{
	"contracts/MetraToken.sol": {
		"Metra": {
			"abi": [
				{
					"inputs": [
						{
							"internalType": "string",
							"name": "token_name",
							"type": "string"
						},
						{
							"internalType": "string",
							"name": "short_symbol",
							"type": "string"
						},
						{
							"internalType": "uint8",
							"name": "token_decimals",
							"type": "uint8"
						},
						{
							"internalType": "uint256",
							"name": "token_totalSupply",
							"type": "uint256"
						}
					],
					"stateMutability": "nonpayable",
					"type": "constructor"
				},
				{
					"anonymous": false,
					"inputs": [
						{
							"indexed": true,
							"internalType": "address",
							"name": "owner",
							"type": "address"
						},
						{
							"indexed": true,
							"internalType": "address",
							"name": "spender",
							"type": "address"
						},
						{
							"indexed": false,
							"internalType": "uint256",
							"name": "value",
							"type": "uint256"
						}
					],
					"name": "Approval",
					"type": "event"
				},
				{
					"anonymous": false,
					"inputs": [
						{
							"indexed": true,
							"internalType": "address",
							"name": "previousOwner",
							"type": "address"
						},
						{
							"indexed": true,
							"internalType": "address",
							"name": "newOwner",
							"type": "address"
						}
					],
					"name": "OwnershipTransferred",
					"type": "event"
				},
				{
					"anonymous": false,
					"inputs": [
						{
							"indexed": true,
							"internalType": "address",
							"name": "user",
							"type": "address"
						},
						{
							"indexed": false,
							"internalType": "uint256",
							"name": "amount",
							"type": "uint256"
						},
						{
							"indexed": false,
							"internalType": "uint256",
							"name": "index",
							"type": "uint256"
						},
						{
							"indexed": false,
							"internalType": "uint256",
							"name": "timestamp",
							"type": "uint256"
						}
					],
					"name": "Staked",
					"type": "event"
				},
				{
					"anonymous": false,
					"inputs": [
						{
							"indexed": true,
							"internalType": "address",
							"name": "from",
							"type": "address"
						},
						{
							"indexed": true,
							"internalType": "address",
							"name": "to",
							"type": "address"
						},
						{
							"indexed": false,
							"internalType": "uint256",
							"name": "value",
							"type": "uint256"
						}
					],
					"name": "Transfer",
					"type": "event"
				},
				{
					"inputs": [
						{
							"internalType": "address",
							"name": "owner",
							"type": "address"
						},
						{
							"internalType": "address",
							"name": "spender",
							"type": "address"
						}
					],
					"name": "allowance",
					"outputs": [
						{
							"internalType": "uint256",
							"name": "",
							"type": "uint256"
						}
					],
					"stateMutability": "view",
					"type": "function"
				},
				{
					"inputs": [
						{
							"internalType": "address",
							"name": "spender",
							"type": "address"
						},
						{
							"internalType": "uint256",
							"name": "amount",
							"type": "uint256"
						}
					],
					"name": "approve",
					"outputs": [
						{
							"internalType": "bool",
							"name": "",
							"type": "bool"
						}
					],
					"stateMutability": "nonpayable",
					"type": "function"
				},
				{
					"inputs": [
						{
							"internalType": "address",
							"name": "account",
							"type": "address"
						}
					],
					"name": "balanceOf",
					"outputs": [
						{
							"internalType": "uint256",
							"name": "",
							"type": "uint256"
						}
					],
					"stateMutability": "view",
					"type": "function"
				},
				{
					"inputs": [
						{
							"internalType": "address",
							"name": "account",
							"type": "address"
						},
						{
							"internalType": "uint256",
							"name": "amount",
							"type": "uint256"
						}
					],
					"name": "burn",
					"outputs": [
						{
							"internalType": "bool",
							"name": "",
							"type": "bool"
						}
					],
					"stateMutability": "nonpayable",
					"type": "function"
				},
				{
					"inputs": [],
					"name": "decimals",
					"outputs": [
						{
							"internalType": "uint8",
							"name": "",
							"type": "uint8"
						}
					],
					"stateMutability": "view",
					"type": "function"
				},
				{
					"inputs": [
						{
							"internalType": "address",
							"name": "spender",
							"type": "address"
						},
						{
							"internalType": "uint256",
							"name": "amount",
							"type": "uint256"
						}
					],
					"name": "decreaseAllowance",
					"outputs": [
						{
							"internalType": "bool",
							"name": "",
							"type": "bool"
						}
					],
					"stateMutability": "nonpayable",
					"type": "function"
				},
				{
					"inputs": [],
					"name": "getOwner",
					"outputs": [
						{
							"internalType": "address",
							"name": "",
							"type": "address"
						}
					],
					"stateMutability": "view",
					"type": "function"
				},
				{
					"inputs": [
						{
							"internalType": "address",
							"name": "_staker",
							"type": "address"
						}
					],
					"name": "hasStake",
					"outputs": [
						{
							"components": [
								{
									"internalType": "uint256",
									"name": "total_amount",
									"type": "uint256"
								},
								{
									"components": [
										{
											"internalType": "address",
											"name": "user",
											"type": "address"
										},
										{
											"internalType": "uint256",
											"name": "amount",
											"type": "uint256"
										},
										{
											"internalType": "uint256",
											"name": "since",
											"type": "uint256"
										},
										{
											"internalType": "uint256",
											"name": "claimable",
											"type": "uint256"
										}
									],
									"internalType": "struct Stakeable.Stake[]",
									"name": "stakes",
									"type": "tuple[]"
								}
							],
							"internalType": "struct Stakeable.StakingSummary",
							"name": "",
							"type": "tuple"
						}
					],
					"stateMutability": "view",
					"type": "function"
				},
				{
					"inputs": [
						{
							"internalType": "address",
							"name": "spender",
							"type": "address"
						},
						{
							"internalType": "uint256",
							"name": "amount",
							"type": "uint256"
						}
					],
					"name": "increaseAllowance",
					"outputs": [
						{
							"internalType": "bool",
							"name": "",
							"type": "bool"
						}
					],
					"stateMutability": "nonpayable",
					"type": "function"
				},
				{
					"inputs": [
						{
							"internalType": "address",
							"name": "account",
							"type": "address"
						},
						{
							"internalType": "uint256",
							"name": "amount",
							"type": "uint256"
						}
					],
					"name": "mint",
					"outputs": [
						{
							"internalType": "bool",
							"name": "",
							"type": "bool"
						}
					],
					"stateMutability": "nonpayable",
					"type": "function"
				},
				{
					"inputs": [],
					"name": "name",
					"outputs": [
						{
							"internalType": "string",
							"name": "",
							"type": "string"
						}
					],
					"stateMutability": "view",
					"type": "function"
				},
				{
					"inputs": [],
					"name": "owner",
					"outputs": [
						{
							"internalType": "address",
							"name": "",
							"type": "address"
						}
					],
					"stateMutability": "view",
					"type": "function"
				},
				{
					"inputs": [],
					"name": "renounceOwnership",
					"outputs": [],
					"stateMutability": "nonpayable",
					"type": "function"
				},
				{
					"inputs": [
						{
							"internalType": "uint256",
							"name": "_amount",
							"type": "uint256"
						}
					],
					"name": "stake",
					"outputs": [],
					"stateMutability": "nonpayable",
					"type": "function"
				},
				{
					"inputs": [],
					"name": "symbol",
					"outputs": [
						{
							"internalType": "string",
							"name": "",
							"type": "string"
						}
					],
					"stateMutability": "view",
					"type": "function"
				},
				{
					"inputs": [],
					"name": "totalSupply",
					"outputs": [
						{
							"internalType": "uint256",
							"name": "",
							"type": "uint256"
						}
					],
					"stateMutability": "view",
					"type": "function"
				},
				{
					"inputs": [
						{
							"internalType": "address",
							"name": "recipient",
							"type": "address"
						},
						{
							"internalType": "uint256",
							"name": "amount",
							"type": "uint256"
						}
					],
					"name": "transfer",
					"outputs": [
						{
							"internalType": "bool",
							"name": "",
							"type": "bool"
						}
					],
					"stateMutability": "nonpayable",
					"type": "function"
				},
				{
					"inputs": [
						{
							"internalType": "address",
							"name": "spender",
							"type": "address"
						},
						{
							"internalType": "address",
							"name": "recipient",
							"type": "address"
						},
						{
							"internalType": "uint256",
							"name": "amount",
							"type": "uint256"
						}
					],
					"name": "transferFrom",
					"outputs": [
						{
							"internalType": "bool",
							"name": "",
							"type": "bool"
						}
					],
					"stateMutability": "nonpayable",
					"type": "function"
				},
				{
					"inputs": [
						{
							"internalType": "address",
							"name": "newOwner",
							"type": "address"
						}
					],
					"name": "transferOwnership",
					"outputs": [],
					"stateMutability": "nonpayable",
					"type": "function"
				},
				{
					"inputs": [
						{
							"internalType": "uint256",
							"name": "amount",
							"type": "uint256"
						},
						{
							"internalType": "uint256",
							"name": "stake_index",
							"type": "uint256"
						}
					],
					"name": "withdrawStake",
					"outputs": [],
					"stateMutability": "nonpayable",
					"type": "function"
				}
			],
			"devdoc": {
				"kind": "dev",
				"methods": {},
				"version": 1
			},
			"evm": {
				"assembly": "    /* \"contracts/MetraToken.sol\":130:9423  contract Metra is Ownable, Stakeable{... */\n  mstore(0x40, 0x80)\n    /* \"contracts/Stakeable.sol\":2222:2231  100000000 */\n  0x05f5e100\n    /* \"contracts/Stakeable.sol\":2189:2231  uint256 internal rewardPerHour = 100000000 */\n  0x03\n  sstore\n    /* \"contracts/MetraToken.sol\":1499:1987  constructor(string memory token_name, string memory short_symbol, uint8 token_decimals, uint256 token_totalSupply){... */\n  callvalue\n  dup1\n  iszero\n  tag_1\n  jumpi\n  0x00\n  dup1\n  revert\ntag_1:\n  pop\n  mload(0x40)\n  sub(codesize, bytecodeSize)\n  dup1\n  bytecodeSize\n  dup4\n  codecopy\n  dup2\n  dup2\n  add\n  0x40\n  mstore\n  dup2\n  add\n  swap1\n  tag_2\n  swap2\n  swap1\n  tag_3\n  jump\t// in\ntag_2:\n    /* \"contracts/Ownable.sol\":965:975  msg.sender */\n  caller\n    /* \"contracts/Ownable.sol\":956:962  _owner */\n  0x00\n  dup1\n    /* \"contracts/Ownable.sol\":956:975  _owner = msg.sender */\n  0x0100\n  exp\n  dup2\n  sload\n  dup2\n  0xffffffffffffffffffffffffffffffffffffffff\n  mul\n  not\n  and\n  swap1\n  dup4\n  0xffffffffffffffffffffffffffffffffffffffff\n  and\n  mul\n  or\n  swap1\n  sstore\n  pop\n    /* \"contracts/Ownable.sol\":1023:1029  _owner */\n  0x00\n  dup1\n  sload\n  swap1\n  0x0100\n  exp\n  swap1\n  div\n  0xffffffffffffffffffffffffffffffffffffffff\n  and\n    /* \"contracts/Ownable.sol\":990:1030  OwnershipTransferred(address(0), _owner) */\n  0xffffffffffffffffffffffffffffffffffffffff\n  and\n    /* \"contracts/Ownable.sol\":1019:1020  0 */\n  0x00\n    /* \"contracts/Ownable.sol\":990:1030  OwnershipTransferred(address(0), _owner) */\n  0xffffffffffffffffffffffffffffffffffffffff\n  and\n  0x8be0079c531659141344cd1fd0a4f28419497f9722a3daafe3b4186f6b6457e0\n  mload(0x40)\n  mload(0x40)\n  dup1\n  swap2\n  sub\n  swap1\n  log3\n    /* \"contracts/Stakeable.sol\":463:475  stakeholders */\n  0x01\n    /* \"contracts/Stakeable.sol\":463:482  stakeholders.push() */\n  dup1\n  dup2\n  0x01\n  dup2\n  sload\n  add\n  dup1\n  dup3\n  sstore\n  dup1\n  swap2\n  pop\n  pop\n  sub\n  swap1\n  0x00\n  mstore\n  keccak256(0x00, 0x20)\n  swap1\n  pop\n  pop\n    /* \"contracts/MetraToken.sol\":1621:1642  _name = \"Metra Token\" */\n  mload(0x40)\n  dup1\n  0x40\n  add\n  0x40\n  mstore\n  dup1\n  0x0b\n  dup2\n  mstore\n  0x20\n  add\n  0x4d6574726120546f6b656e000000000000000000000000000000000000000000\n  dup2\n  mstore\n  pop\n    /* \"contracts/MetraToken.sol\":1621:1626  _name */\n  0x07\n    /* \"contracts/MetraToken.sol\":1621:1642  _name = \"Metra Token\" */\n  swap1\n  dup2\n  tag_11\n  swap2\n  swap1\n  tag_12\n  jump\t// in\ntag_11:\n  pop\n    /* \"contracts/MetraToken.sol\":1650:1667  _symbol = \"METRA\" */\n  mload(0x40)\n  dup1\n  0x40\n  add\n  0x40\n  mstore\n  dup1\n  0x05\n  dup2\n  mstore\n  0x20\n  add\n  0x4d45545241000000000000000000000000000000000000000000000000000000\n  dup2\n  mstore\n  pop\n    /* \"contracts/MetraToken.sol\":1650:1657  _symbol */\n  0x06\n    /* \"contracts/MetraToken.sol\":1650:1667  _symbol = \"METRA\" */\n  swap1\n  dup2\n  tag_13\n  swap2\n  swap1\n  tag_12\n  jump\t// in\ntag_13:\n  pop\n    /* \"contracts/MetraToken.sol\":1687:1689  18 */\n  0x12\n    /* \"contracts/MetraToken.sol\":1675:1684  _decimals */\n  0x05\n  0x00\n    /* \"contracts/MetraToken.sol\":1675:1689  _decimals = 18 */\n  0x0100\n  exp\n  dup2\n  sload\n  dup2\n  0xff\n  mul\n  not\n  and\n  swap1\n  dup4\n  0xff\n  and\n  mul\n  or\n  swap1\n  sstore\n  pop\n    /* \"contracts/MetraToken.sol\":1712:1727  100000000000000 */\n  0x5af3107a4000\n    /* \"contracts/MetraToken.sol\":1697:1709  _totalSupply */\n  0x04\n    /* \"contracts/MetraToken.sol\":1697:1727  _totalSupply = 100000000000000 */\n  dup2\n  swap1\n  sstore\n  pop\n    /* \"contracts/MetraToken.sol\":1824:1836  _totalSupply */\n  sload(0x04)\n    /* \"contracts/MetraToken.sol\":1800:1809  _balances */\n  0x08\n    /* \"contracts/MetraToken.sol\":1800:1821  _balances[msg.sender] */\n  0x00\n    /* \"contracts/MetraToken.sol\":1810:1820  msg.sender */\n  caller\n    /* \"contracts/MetraToken.sol\":1800:1821  _balances[msg.sender] */\n  0xffffffffffffffffffffffffffffffffffffffff\n  and\n  0xffffffffffffffffffffffffffffffffffffffff\n  and\n  dup2\n  mstore\n  0x20\n  add\n  swap1\n  dup2\n  mstore\n  0x20\n  add\n  0x00\n  keccak256\n    /* \"contracts/MetraToken.sol\":1800:1836  _balances[msg.sender] = _totalSupply */\n  dup2\n  swap1\n  sstore\n  pop\n    /* \"contracts/MetraToken.sol\":1957:1967  msg.sender */\n  caller\n    /* \"contracts/MetraToken.sol\":1936:1982  Transfer(address(0), msg.sender, _totalSupply) */\n  0xffffffffffffffffffffffffffffffffffffffff\n  and\n    /* \"contracts/MetraToken.sol\":1953:1954  0 */\n  0x00\n    /* \"contracts/MetraToken.sol\":1936:1982  Transfer(address(0), msg.sender, _totalSupply) */\n  0xffffffffffffffffffffffffffffffffffffffff\n  and\n  0xddf252ad1be2c89b69c2b068fc378daa952ba7f163c4a11628f55a4df523b3ef\n    /* \"contracts/MetraToken.sol\":1969:1981  _totalSupply */\n  sload(0x04)\n    /* \"contracts/MetraToken.sol\":1936:1982  Transfer(address(0), msg.sender, _totalSupply) */\n  mload(0x40)\n  tag_14\n  swap2\n  swap1\n  tag_15\n  jump\t// in\ntag_14:\n  mload(0x40)\n  dup1\n  swap2\n  sub\n  swap1\n  log3\n    /* \"contracts/MetraToken.sol\":1499:1987  constructor(string memory token_name, string memory short_symbol, uint8 token_decimals, uint256 token_totalSupply){... */\n  pop\n  pop\n  pop\n  pop\n    /* \"contracts/MetraToken.sol\":130:9423  contract Metra is Ownable, Stakeable{... */\n  jump(tag_16)\n    /* \"#utility.yul\":7:82   */\ntag_17:\n    /* \"#utility.yul\":40:46   */\n  0x00\n    /* \"#utility.yul\":73:75   */\n  0x40\n    /* \"#utility.yul\":67:76   */\n  mload\n    /* \"#utility.yul\":57:76   */\n  swap1\n  pop\n    /* \"#utility.yul\":7:82   */\n  swap1\n  jump\t// out\n    /* \"#utility.yul\":88:205   */\ntag_18:\n    /* \"#utility.yul\":197:198   */\n  0x00\n    /* \"#utility.yul\":194:195   */\n  dup1\n    /* \"#utility.yul\":187:199   */\n  revert\n    /* \"#utility.yul\":211:328   */\ntag_19:\n    /* \"#utility.yul\":320:321   */\n  0x00\n    /* \"#utility.yul\":317:318   */\n  dup1\n    /* \"#utility.yul\":310:322   */\n  revert\n    /* \"#utility.yul\":334:451   */\ntag_20:\n    /* \"#utility.yul\":443:444   */\n  0x00\n    /* \"#utility.yul\":440:441   */\n  dup1\n    /* \"#utility.yul\":433:445   */\n  revert\n    /* \"#utility.yul\":457:574   */\ntag_21:\n    /* \"#utility.yul\":566:567   */\n  0x00\n    /* \"#utility.yul\":563:564   */\n  dup1\n    /* \"#utility.yul\":556:568   */\n  revert\n    /* \"#utility.yul\":580:682   */\ntag_22:\n    /* \"#utility.yul\":621:627   */\n  0x00\n    /* \"#utility.yul\":672:674   */\n  0x1f\n    /* \"#utility.yul\":668:675   */\n  not\n    /* \"#utility.yul\":663:665   */\n  0x1f\n    /* \"#utility.yul\":656:661   */\n  dup4\n    /* \"#utility.yul\":652:666   */\n  add\n    /* \"#utility.yul\":648:676   */\n  and\n    /* \"#utility.yul\":638:676   */\n  swap1\n  pop\n    /* \"#utility.yul\":580:682   */\n  swap2\n  swap1\n  pop\n  jump\t// out\n    /* \"#utility.yul\":688:868   */\ntag_23:\n    /* \"#utility.yul\":736:813   */\n  0x4e487b7100000000000000000000000000000000000000000000000000000000\n    /* \"#utility.yul\":733:734   */\n  0x00\n    /* \"#utility.yul\":726:814   */\n  mstore\n    /* \"#utility.yul\":833:837   */\n  0x41\n    /* \"#utility.yul\":830:831   */\n  0x04\n    /* \"#utility.yul\":823:838   */\n  mstore\n    /* \"#utility.yul\":857:861   */\n  0x24\n    /* \"#utility.yul\":854:855   */\n  0x00\n    /* \"#utility.yul\":847:862   */\n  revert\n    /* \"#utility.yul\":874:1155   */\ntag_24:\n    /* \"#utility.yul\":957:984   */\n  tag_64\n    /* \"#utility.yul\":979:983   */\n  dup3\n    /* \"#utility.yul\":957:984   */\n  tag_22\n  jump\t// in\ntag_64:\n    /* \"#utility.yul\":949:955   */\n  dup2\n    /* \"#utility.yul\":945:985   */\n  add\n    /* \"#utility.yul\":1087:1093   */\n  dup2\n    /* \"#utility.yul\":1075:1085   */\n  dup2\n    /* \"#utility.yul\":1072:1094   */\n  lt\n    /* \"#utility.yul\":1051:1069   */\n  0xffffffffffffffff\n    /* \"#utility.yul\":1039:1049   */\n  dup3\n    /* \"#utility.yul\":1036:1070   */\n  gt\n    /* \"#utility.yul\":1033:1095   */\n  or\n    /* \"#utility.yul\":1030:1118   */\n  iszero\n  tag_65\n  jumpi\n    /* \"#utility.yul\":1098:1116   */\n  tag_66\n  tag_23\n  jump\t// in\ntag_66:\n    /* \"#utility.yul\":1030:1118   */\ntag_65:\n    /* \"#utility.yul\":1138:1148   */\n  dup1\n    /* \"#utility.yul\":1134:1136   */\n  0x40\n    /* \"#utility.yul\":1127:1149   */\n  mstore\n    /* \"#utility.yul\":917:1155   */\n  pop\n    /* \"#utility.yul\":874:1155   */\n  pop\n  pop\n  jump\t// out\n    /* \"#utility.yul\":1161:1290   */\ntag_25:\n    /* \"#utility.yul\":1195:1201   */\n  0x00\n    /* \"#utility.yul\":1222:1242   */\n  tag_68\n  tag_17\n  jump\t// in\ntag_68:\n    /* \"#utility.yul\":1212:1242   */\n  swap1\n  pop\n    /* \"#utility.yul\":1251:1284   */\n  tag_69\n    /* \"#utility.yul\":1279:1283   */\n  dup3\n    /* \"#utility.yul\":1271:1277   */\n  dup3\n    /* \"#utility.yul\":1251:1284   */\n  tag_24\n  jump\t// in\ntag_69:\n    /* \"#utility.yul\":1161:1290   */\n  swap2\n  swap1\n  pop\n  jump\t// out\n    /* \"#utility.yul\":1296:1604   */\ntag_26:\n    /* \"#utility.yul\":1358:1362   */\n  0x00\n    /* \"#utility.yul\":1448:1466   */\n  0xffffffffffffffff\n    /* \"#utility.yul\":1440:1446   */\n  dup3\n    /* \"#utility.yul\":1437:1467   */\n  gt\n    /* \"#utility.yul\":1434:1490   */\n  iszero\n  tag_71\n  jumpi\n    /* \"#utility.yul\":1470:1488   */\n  tag_72\n  tag_23\n  jump\t// in\ntag_72:\n    /* \"#utility.yul\":1434:1490   */\ntag_71:\n    /* \"#utility.yul\":1508:1537   */\n  tag_73\n    /* \"#utility.yul\":1530:1536   */\n  dup3\n    /* \"#utility.yul\":1508:1537   */\n  tag_22\n  jump\t// in\ntag_73:\n    /* \"#utility.yul\":1500:1537   */\n  swap1\n  pop\n    /* \"#utility.yul\":1592:1596   */\n  0x20\n    /* \"#utility.yul\":1586:1590   */\n  dup2\n    /* \"#utility.yul\":1582:1597   */\n  add\n    /* \"#utility.yul\":1574:1597   */\n  swap1\n  pop\n    /* \"#utility.yul\":1296:1604   */\n  swap2\n  swap1\n  pop\n  jump\t// out\n    /* \"#utility.yul\":1610:1917   */\ntag_27:\n    /* \"#utility.yul\":1678:1679   */\n  0x00\n    /* \"#utility.yul\":1688:1801   */\ntag_75:\n    /* \"#utility.yul\":1702:1708   */\n  dup4\n    /* \"#utility.yul\":1699:1700   */\n  dup2\n    /* \"#utility.yul\":1696:1709   */\n  lt\n    /* \"#utility.yul\":1688:1801   */\n  iszero\n  tag_77\n  jumpi\n    /* \"#utility.yul\":1787:1788   */\n  dup1\n    /* \"#utility.yul\":1782:1785   */\n  dup3\n    /* \"#utility.yul\":1778:1789   */\n  add\n    /* \"#utility.yul\":1772:1790   */\n  mload\n    /* \"#utility.yul\":1768:1769   */\n  dup2\n    /* \"#utility.yul\":1763:1766   */\n  dup5\n    /* \"#utility.yul\":1759:1770   */\n  add\n    /* \"#utility.yul\":1752:1791   */\n  mstore\n    /* \"#utility.yul\":1724:1726   */\n  0x20\n    /* \"#utility.yul\":1721:1722   */\n  dup2\n    /* \"#utility.yul\":1717:1727   */\n  add\n    /* \"#utility.yul\":1712:1727   */\n  swap1\n  pop\n    /* \"#utility.yul\":1688:1801   */\n  jump(tag_75)\ntag_77:\n    /* \"#utility.yul\":1819:1825   */\n  dup4\n    /* \"#utility.yul\":1816:1817   */\n  dup2\n    /* \"#utility.yul\":1813:1826   */\n  gt\n    /* \"#utility.yul\":1810:1911   */\n  iszero\n  tag_78\n  jumpi\n    /* \"#utility.yul\":1899:1900   */\n  0x00\n    /* \"#utility.yul\":1890:1896   */\n  dup5\n    /* \"#utility.yul\":1885:1888   */\n  dup5\n    /* \"#utility.yul\":1881:1897   */\n  add\n    /* \"#utility.yul\":1874:1901   */\n  mstore\n    /* \"#utility.yul\":1810:1911   */\ntag_78:\n    /* \"#utility.yul\":1659:1917   */\n  pop\n    /* \"#utility.yul\":1610:1917   */\n  pop\n  pop\n  pop\n  jump\t// out\n    /* \"#utility.yul\":1923:2344   */\ntag_28:\n    /* \"#utility.yul\":2012:2017   */\n  0x00\n    /* \"#utility.yul\":2037:2103   */\n  tag_80\n    /* \"#utility.yul\":2053:2102   */\n  tag_81\n    /* \"#utility.yul\":2095:2101   */\n  dup5\n    /* \"#utility.yul\":2053:2102   */\n  tag_26\n  jump\t// in\ntag_81:\n    /* \"#utility.yul\":2037:2103   */\n  tag_25\n  jump\t// in\ntag_80:\n    /* \"#utility.yul\":2028:2103   */\n  swap1\n  pop\n    /* \"#utility.yul\":2126:2132   */\n  dup3\n    /* \"#utility.yul\":2119:2124   */\n  dup2\n    /* \"#utility.yul\":2112:2133   */\n  mstore\n    /* \"#utility.yul\":2164:2168   */\n  0x20\n    /* \"#utility.yul\":2157:2162   */\n  dup2\n    /* \"#utility.yul\":2153:2169   */\n  add\n    /* \"#utility.yul\":2202:2205   */\n  dup5\n    /* \"#utility.yul\":2193:2199   */\n  dup5\n    /* \"#utility.yul\":2188:2191   */\n  dup5\n    /* \"#utility.yul\":2184:2200   */\n  add\n    /* \"#utility.yul\":2181:2206   */\n  gt\n    /* \"#utility.yul\":2178:2290   */\n  iszero\n  tag_82\n  jumpi\n    /* \"#utility.yul\":2209:2288   */\n  tag_83\n  tag_21\n  jump\t// in\ntag_83:\n    /* \"#utility.yul\":2178:2290   */\ntag_82:\n    /* \"#utility.yul\":2299:2338   */\n  tag_84\n    /* \"#utility.yul\":2331:2337   */\n  dup5\n    /* \"#utility.yul\":2326:2329   */\n  dup3\n    /* \"#utility.yul\":2321:2324   */\n  dup6\n    /* \"#utility.yul\":2299:2338   */\n  tag_27\n  jump\t// in\ntag_84:\n    /* \"#utility.yul\":2018:2344   */\n  pop\n    /* \"#utility.yul\":1923:2344   */\n  swap4\n  swap3\n  pop\n  pop\n  pop\n  jump\t// out\n    /* \"#utility.yul\":2364:2719   */\ntag_29:\n    /* \"#utility.yul\":2431:2436   */\n  0x00\n    /* \"#utility.yul\":2480:2483   */\n  dup3\n    /* \"#utility.yul\":2473:2477   */\n  0x1f\n    /* \"#utility.yul\":2465:2471   */\n  dup4\n    /* \"#utility.yul\":2461:2478   */\n  add\n    /* \"#utility.yul\":2457:2484   */\n  slt\n    /* \"#utility.yul\":2447:2569   */\n  tag_86\n  jumpi\n    /* \"#utility.yul\":2488:2567   */\n  tag_87\n  tag_20\n  jump\t// in\ntag_87:\n    /* \"#utility.yul\":2447:2569   */\ntag_86:\n    /* \"#utility.yul\":2598:2604   */\n  dup2\n    /* \"#utility.yul\":2592:2605   */\n  mload\n    /* \"#utility.yul\":2623:2713   */\n  tag_88\n    /* \"#utility.yul\":2709:2712   */\n  dup5\n    /* \"#utility.yul\":2701:2707   */\n  dup3\n    /* \"#utility.yul\":2694:2698   */\n  0x20\n    /* \"#utility.yul\":2686:2692   */\n  dup7\n    /* \"#utility.yul\":2682:2699   */\n  add\n    /* \"#utility.yul\":2623:2713   */\n  tag_28\n  jump\t// in\ntag_88:\n    /* \"#utility.yul\":2614:2713   */\n  swap2\n  pop\n    /* \"#utility.yul\":2437:2719   */\n  pop\n    /* \"#utility.yul\":2364:2719   */\n  swap3\n  swap2\n  pop\n  pop\n  jump\t// out\n    /* \"#utility.yul\":2725:2811   */\ntag_30:\n    /* \"#utility.yul\":2760:2767   */\n  0x00\n    /* \"#utility.yul\":2800:2804   */\n  0xff\n    /* \"#utility.yul\":2793:2798   */\n  dup3\n    /* \"#utility.yul\":2789:2805   */\n  and\n    /* \"#utility.yul\":2778:2805   */\n  swap1\n  pop\n    /* \"#utility.yul\":2725:2811   */\n  swap2\n  swap1\n  pop\n  jump\t// out\n    /* \"#utility.yul\":2817:2935   */\ntag_31:\n    /* \"#utility.yul\":2888:2910   */\n  tag_91\n    /* \"#utility.yul\":2904:2909   */\n  dup2\n    /* \"#utility.yul\":2888:2910   */\n  tag_30\n  jump\t// in\ntag_91:\n    /* \"#utility.yul\":2881:2886   */\n  dup2\n    /* \"#utility.yul\":2878:2911   */\n  eq\n    /* \"#utility.yul\":2868:2929   */\n  tag_92\n  jumpi\n    /* \"#utility.yul\":2925:2926   */\n  0x00\n    /* \"#utility.yul\":2922:2923   */\n  dup1\n    /* \"#utility.yul\":2915:2927   */\n  revert\n    /* \"#utility.yul\":2868:2929   */\ntag_92:\n    /* \"#utility.yul\":2817:2935   */\n  pop\n  jump\t// out\n    /* \"#utility.yul\":2941:3080   */\ntag_32:\n    /* \"#utility.yul\":2996:3001   */\n  0x00\n    /* \"#utility.yul\":3027:3033   */\n  dup2\n    /* \"#utility.yul\":3021:3034   */\n  mload\n    /* \"#utility.yul\":3012:3034   */\n  swap1\n  pop\n    /* \"#utility.yul\":3043:3074   */\n  tag_94\n    /* \"#utility.yul\":3068:3073   */\n  dup2\n    /* \"#utility.yul\":3043:3074   */\n  tag_31\n  jump\t// in\ntag_94:\n    /* \"#utility.yul\":2941:3080   */\n  swap3\n  swap2\n  pop\n  pop\n  jump\t// out\n    /* \"#utility.yul\":3086:3163   */\ntag_33:\n    /* \"#utility.yul\":3123:3130   */\n  0x00\n    /* \"#utility.yul\":3152:3157   */\n  dup2\n    /* \"#utility.yul\":3141:3157   */\n  swap1\n  pop\n    /* \"#utility.yul\":3086:3163   */\n  swap2\n  swap1\n  pop\n  jump\t// out\n    /* \"#utility.yul\":3169:3291   */\ntag_34:\n    /* \"#utility.yul\":3242:3266   */\n  tag_97\n    /* \"#utility.yul\":3260:3265   */\n  dup2\n    /* \"#utility.yul\":3242:3266   */\n  tag_33\n  jump\t// in\ntag_97:\n    /* \"#utility.yul\":3235:3240   */\n  dup2\n    /* \"#utility.yul\":3232:3267   */\n  eq\n    /* \"#utility.yul\":3222:3285   */\n  tag_98\n  jumpi\n    /* \"#utility.yul\":3281:3282   */\n  0x00\n    /* \"#utility.yul\":3278:3279   */\n  dup1\n    /* \"#utility.yul\":3271:3283   */\n  revert\n    /* \"#utility.yul\":3222:3285   */\ntag_98:\n    /* \"#utility.yul\":3169:3291   */\n  pop\n  jump\t// out\n    /* \"#utility.yul\":3297:3440   */\ntag_35:\n    /* \"#utility.yul\":3354:3359   */\n  0x00\n    /* \"#utility.yul\":3385:3391   */\n  dup2\n    /* \"#utility.yul\":3379:3392   */\n  mload\n    /* \"#utility.yul\":3370:3392   */\n  swap1\n  pop\n    /* \"#utility.yul\":3401:3434   */\n  tag_100\n    /* \"#utility.yul\":3428:3433   */\n  dup2\n    /* \"#utility.yul\":3401:3434   */\n  tag_34\n  jump\t// in\ntag_100:\n    /* \"#utility.yul\":3297:3440   */\n  swap3\n  swap2\n  pop\n  pop\n  jump\t// out\n    /* \"#utility.yul\":3446:4608   */\ntag_3:\n    /* \"#utility.yul\":3561:3567   */\n  0x00\n    /* \"#utility.yul\":3569:3575   */\n  dup1\n    /* \"#utility.yul\":3577:3583   */\n  0x00\n    /* \"#utility.yul\":3585:3591   */\n  dup1\n    /* \"#utility.yul\":3634:3637   */\n  0x80\n    /* \"#utility.yul\":3622:3631   */\n  dup6\n    /* \"#utility.yul\":3613:3620   */\n  dup8\n    /* \"#utility.yul\":3609:3632   */\n  sub\n    /* \"#utility.yul\":3605:3638   */\n  slt\n    /* \"#utility.yul\":3602:3722   */\n  iszero\n  tag_102\n  jumpi\n    /* \"#utility.yul\":3641:3720   */\n  tag_103\n  tag_18\n  jump\t// in\ntag_103:\n    /* \"#utility.yul\":3602:3722   */\ntag_102:\n    /* \"#utility.yul\":3782:3783   */\n  0x00\n    /* \"#utility.yul\":3771:3780   */\n  dup6\n    /* \"#utility.yul\":3767:3784   */\n  add\n    /* \"#utility.yul\":3761:3785   */\n  mload\n    /* \"#utility.yul\":3812:3830   */\n  0xffffffffffffffff\n    /* \"#utility.yul\":3804:3810   */\n  dup2\n    /* \"#utility.yul\":3801:3831   */\n  gt\n    /* \"#utility.yul\":3798:3915   */\n  iszero\n  tag_104\n  jumpi\n    /* \"#utility.yul\":3834:3913   */\n  tag_105\n  tag_19\n  jump\t// in\ntag_105:\n    /* \"#utility.yul\":3798:3915   */\ntag_104:\n    /* \"#utility.yul\":3939:4013   */\n  tag_106\n    /* \"#utility.yul\":4005:4012   */\n  dup8\n    /* \"#utility.yul\":3996:4002   */\n  dup3\n    /* \"#utility.yul\":3985:3994   */\n  dup9\n    /* \"#utility.yul\":3981:4003   */\n  add\n    /* \"#utility.yul\":3939:4013   */\n  tag_29\n  jump\t// in\ntag_106:\n    /* \"#utility.yul\":3929:4013   */\n  swap5\n  pop\n    /* \"#utility.yul\":3732:4023   */\n  pop\n    /* \"#utility.yul\":4083:4085   */\n  0x20\n    /* \"#utility.yul\":4072:4081   */\n  dup6\n    /* \"#utility.yul\":4068:4086   */\n  add\n    /* \"#utility.yul\":4062:4087   */\n  mload\n    /* \"#utility.yul\":4114:4132   */\n  0xffffffffffffffff\n    /* \"#utility.yul\":4106:4112   */\n  dup2\n    /* \"#utility.yul\":4103:4133   */\n  gt\n    /* \"#utility.yul\":4100:4217   */\n  iszero\n  tag_107\n  jumpi\n    /* \"#utility.yul\":4136:4215   */\n  tag_108\n  tag_19\n  jump\t// in\ntag_108:\n    /* \"#utility.yul\":4100:4217   */\ntag_107:\n    /* \"#utility.yul\":4241:4315   */\n  tag_109\n    /* \"#utility.yul\":4307:4314   */\n  dup8\n    /* \"#utility.yul\":4298:4304   */\n  dup3\n    /* \"#utility.yul\":4287:4296   */\n  dup9\n    /* \"#utility.yul\":4283:4305   */\n  add\n    /* \"#utility.yul\":4241:4315   */\n  tag_29\n  jump\t// in\ntag_109:\n    /* \"#utility.yul\":4231:4315   */\n  swap4\n  pop\n    /* \"#utility.yul\":4033:4325   */\n  pop\n    /* \"#utility.yul\":4364:4366   */\n  0x40\n    /* \"#utility.yul\":4390:4452   */\n  tag_110\n    /* \"#utility.yul\":4444:4451   */\n  dup8\n    /* \"#utility.yul\":4435:4441   */\n  dup3\n    /* \"#utility.yul\":4424:4433   */\n  dup9\n    /* \"#utility.yul\":4420:4442   */\n  add\n    /* \"#utility.yul\":4390:4452   */\n  tag_32\n  jump\t// in\ntag_110:\n    /* \"#utility.yul\":4380:4452   */\n  swap3\n  pop\n    /* \"#utility.yul\":4335:4462   */\n  pop\n    /* \"#utility.yul\":4501:4503   */\n  0x60\n    /* \"#utility.yul\":4527:4591   */\n  tag_111\n    /* \"#utility.yul\":4583:4590   */\n  dup8\n    /* \"#utility.yul\":4574:4580   */\n  dup3\n    /* \"#utility.yul\":4563:4572   */\n  dup9\n    /* \"#utility.yul\":4559:4581   */\n  add\n    /* \"#utility.yul\":4527:4591   */\n  tag_35\n  jump\t// in\ntag_111:\n    /* \"#utility.yul\":4517:4591   */\n  swap2\n  pop\n    /* \"#utility.yul\":4472:4601   */\n  pop\n    /* \"#utility.yul\":3446:4608   */\n  swap3\n  swap6\n  swap2\n  swap5\n  pop\n  swap3\n  pop\n  jump\t// out\n    /* \"#utility.yul\":4614:4713   */\ntag_36:\n    /* \"#utility.yul\":4666:4672   */\n  0x00\n    /* \"#utility.yul\":4700:4705   */\n  dup2\n    /* \"#utility.yul\":4694:4706   */\n  mload\n    /* \"#utility.yul\":4684:4706   */\n  swap1\n  pop\n    /* \"#utility.yul\":4614:4713   */\n  swap2\n  swap1\n  pop\n  jump\t// out\n    /* \"#utility.yul\":4719:4899   */\ntag_37:\n    /* \"#utility.yul\":4767:4844   */\n  0x4e487b7100000000000000000000000000000000000000000000000000000000\n    /* \"#utility.yul\":4764:4765   */\n  0x00\n    /* \"#utility.yul\":4757:4845   */\n  mstore\n    /* \"#utility.yul\":4864:4868   */\n  0x22\n    /* \"#utility.yul\":4861:4862   */\n  0x04\n    /* \"#utility.yul\":4854:4869   */\n  mstore\n    /* \"#utility.yul\":4888:4892   */\n  0x24\n    /* \"#utility.yul\":4885:4886   */\n  0x00\n    /* \"#utility.yul\":4878:4893   */\n  revert\n    /* \"#utility.yul\":4905:5225   */\ntag_38:\n    /* \"#utility.yul\":4949:4955   */\n  0x00\n    /* \"#utility.yul\":4986:4987   */\n  0x02\n    /* \"#utility.yul\":4980:4984   */\n  dup3\n    /* \"#utility.yul\":4976:4988   */\n  div\n    /* \"#utility.yul\":4966:4988   */\n  swap1\n  pop\n    /* \"#utility.yul\":5033:5034   */\n  0x01\n    /* \"#utility.yul\":5027:5031   */\n  dup3\n    /* \"#utility.yul\":5023:5035   */\n  and\n    /* \"#utility.yul\":5054:5072   */\n  dup1\n    /* \"#utility.yul\":5044:5125   */\n  tag_115\n  jumpi\n    /* \"#utility.yul\":5110:5114   */\n  0x7f\n    /* \"#utility.yul\":5102:5108   */\n  dup3\n    /* \"#utility.yul\":5098:5115   */\n  and\n    /* \"#utility.yul\":5088:5115   */\n  swap2\n  pop\n    /* \"#utility.yul\":5044:5125   */\ntag_115:\n    /* \"#utility.yul\":5172:5174   */\n  0x20\n    /* \"#utility.yul\":5164:5170   */\n  dup3\n    /* \"#utility.yul\":5161:5175   */\n  lt\n    /* \"#utility.yul\":5141:5159   */\n  dup2\n    /* \"#utility.yul\":5138:5176   */\n  sub\n    /* \"#utility.yul\":5135:5219   */\n  tag_116\n  jumpi\n    /* \"#utility.yul\":5191:5209   */\n  tag_117\n  tag_37\n  jump\t// in\ntag_117:\n    /* \"#utility.yul\":5135:5219   */\ntag_116:\n    /* \"#utility.yul\":4956:5225   */\n  pop\n    /* \"#utility.yul\":4905:5225   */\n  swap2\n  swap1\n  pop\n  jump\t// out\n    /* \"#utility.yul\":5231:5372   */\ntag_39:\n    /* \"#utility.yul\":5280:5284   */\n  0x00\n    /* \"#utility.yul\":5303:5306   */\n  dup2\n    /* \"#utility.yul\":5295:5306   */\n  swap1\n  pop\n    /* \"#utility.yul\":5326:5329   */\n  dup2\n    /* \"#utility.yul\":5323:5324   */\n  0x00\n    /* \"#utility.yul\":5316:5330   */\n  mstore\n    /* \"#utility.yul\":5360:5364   */\n  0x20\n    /* \"#utility.yul\":5357:5358   */\n  0x00\n    /* \"#utility.yul\":5347:5365   */\n  keccak256\n    /* \"#utility.yul\":5339:5365   */\n  swap1\n  pop\n    /* \"#utility.yul\":5231:5372   */\n  swap2\n  swap1\n  pop\n  jump\t// out\n    /* \"#utility.yul\":5378:5471   */\ntag_40:\n    /* \"#utility.yul\":5415:5421   */\n  0x00\n    /* \"#utility.yul\":5462:5464   */\n  0x20\n    /* \"#utility.yul\":5457:5459   */\n  0x1f\n    /* \"#utility.yul\":5450:5455   */\n  dup4\n    /* \"#utility.yul\":5446:5460   */\n  add\n    /* \"#utility.yul\":5442:5465   */\n  div\n    /* \"#utility.yul\":5432:5465   */\n  swap1\n  pop\n    /* \"#utility.yul\":5378:5471   */\n  swap2\n  swap1\n  pop\n  jump\t// out\n    /* \"#utility.yul\":5477:5584   */\ntag_41:\n    /* \"#utility.yul\":5521:5529   */\n  0x00\n    /* \"#utility.yul\":5571:5576   */\n  dup3\n    /* \"#utility.yul\":5565:5569   */\n  dup3\n    /* \"#utility.yul\":5561:5577   */\n  shl\n    /* \"#utility.yul\":5540:5577   */\n  swap1\n  pop\n    /* \"#utility.yul\":5477:5584   */\n  swap3\n  swap2\n  pop\n  pop\n  jump\t// out\n    /* \"#utility.yul\":5590:5983   */\ntag_42:\n    /* \"#utility.yul\":5659:5665   */\n  0x00\n    /* \"#utility.yul\":5709:5710   */\n  0x08\n    /* \"#utility.yul\":5697:5707   */\n  dup4\n    /* \"#utility.yul\":5693:5711   */\n  mul\n    /* \"#utility.yul\":5732:5829   */\n  tag_122\n    /* \"#utility.yul\":5762:5828   */\n  0xffffffffffffffffffffffffffffffffffffffffffffffffffffffffffffffff\n    /* \"#utility.yul\":5751:5760   */\n  dup3\n    /* \"#utility.yul\":5732:5829   */\n  tag_41\n  jump\t// in\ntag_122:\n    /* \"#utility.yul\":5850:5889   */\n  tag_123\n    /* \"#utility.yul\":5880:5888   */\n  dup7\n    /* \"#utility.yul\":5869:5878   */\n  dup4\n    /* \"#utility.yul\":5850:5889   */\n  tag_41\n  jump\t// in\ntag_123:\n    /* \"#utility.yul\":5838:5889   */\n  swap6\n  pop\n    /* \"#utility.yul\":5922:5926   */\n  dup1\n    /* \"#utility.yul\":5918:5927   */\n  not\n    /* \"#utility.yul\":5911:5916   */\n  dup5\n    /* \"#utility.yul\":5907:5928   */\n  and\n    /* \"#utility.yul\":5898:5928   */\n  swap4\n  pop\n    /* \"#utility.yul\":5971:5975   */\n  dup1\n    /* \"#utility.yul\":5961:5969   */\n  dup7\n    /* \"#utility.yul\":5957:5976   */\n  and\n    /* \"#utility.yul\":5950:5955   */\n  dup5\n    /* \"#utility.yul\":5947:5977   */\n  or\n    /* \"#utility.yul\":5937:5977   */\n  swap3\n  pop\n    /* \"#utility.yul\":5666:5983   */\n  pop\n  pop\n    /* \"#utility.yul\":5590:5983   */\n  swap4\n  swap3\n  pop\n  pop\n  pop\n  jump\t// out\n    /* \"#utility.yul\":5989:6049   */\ntag_43:\n    /* \"#utility.yul\":6017:6020   */\n  0x00\n    /* \"#utility.yul\":6038:6043   */\n  dup2\n    /* \"#utility.yul\":6031:6043   */\n  swap1\n  pop\n    /* \"#utility.yul\":5989:6049   */\n  swap2\n  swap1\n  pop\n  jump\t// out\n    /* \"#utility.yul\":6055:6197   */\ntag_44:\n    /* \"#utility.yul\":6105:6114   */\n  0x00\n    /* \"#utility.yul\":6138:6191   */\n  tag_126\n    /* \"#utility.yul\":6156:6190   */\n  tag_127\n    /* \"#utility.yul\":6165:6189   */\n  tag_128\n    /* \"#utility.yul\":6183:6188   */\n  dup5\n    /* \"#utility.yul\":6165:6189   */\n  tag_33\n  jump\t// in\ntag_128:\n    /* \"#utility.yul\":6156:6190   */\n  tag_43\n  jump\t// in\ntag_127:\n    /* \"#utility.yul\":6138:6191   */\n  tag_33\n  jump\t// in\ntag_126:\n    /* \"#utility.yul\":6125:6191   */\n  swap1\n  pop\n    /* \"#utility.yul\":6055:6197   */\n  swap2\n  swap1\n  pop\n  jump\t// out\n    /* \"#utility.yul\":6203:6278   */\ntag_45:\n    /* \"#utility.yul\":6246:6249   */\n  0x00\n    /* \"#utility.yul\":6267:6272   */\n  dup2\n    /* \"#utility.yul\":6260:6272   */\n  swap1\n  pop\n    /* \"#utility.yul\":6203:6278   */\n  swap2\n  swap1\n  pop\n  jump\t// out\n    /* \"#utility.yul\":6284:6553   */\ntag_46:\n    /* \"#utility.yul\":6394:6433   */\n  tag_131\n    /* \"#utility.yul\":6425:6432   */\n  dup4\n    /* \"#utility.yul\":6394:6433   */\n  tag_44\n  jump\t// in\ntag_131:\n    /* \"#utility.yul\":6455:6546   */\n  tag_132\n    /* \"#utility.yul\":6504:6545   */\n  tag_133\n    /* \"#utility.yul\":6528:6544   */\n  dup3\n    /* \"#utility.yul\":6504:6545   */\n  tag_45\n  jump\t// in\ntag_133:\n    /* \"#utility.yul\":6496:6502   */\n  dup5\n    /* \"#utility.yul\":6489:6493   */\n  dup5\n    /* \"#utility.yul\":6483:6494   */\n  sload\n    /* \"#utility.yul\":6455:6546   */\n  tag_42\n  jump\t// in\ntag_132:\n    /* \"#utility.yul\":6449:6453   */\n  dup3\n    /* \"#utility.yul\":6442:6547   */\n  sstore\n    /* \"#utility.yul\":6360:6553   */\n  pop\n    /* \"#utility.yul\":6284:6553   */\n  pop\n  pop\n  pop\n  jump\t// out\n    /* \"#utility.yul\":6559:6632   */\ntag_47:\n    /* \"#utility.yul\":6604:6607   */\n  0x00\n    /* \"#utility.yul\":6559:6632   */\n  swap1\n  jump\t// out\n    /* \"#utility.yul\":6638:6827   */\ntag_48:\n    /* \"#utility.yul\":6715:6747   */\n  tag_136\n  tag_47\n  jump\t// in\ntag_136:\n    /* \"#utility.yul\":6756:6821   */\n  tag_137\n    /* \"#utility.yul\":6814:6820   */\n  dup2\n    /* \"#utility.yul\":6806:6812   */\n  dup5\n    /* \"#utility.yul\":6800:6804   */\n  dup5\n    /* \"#utility.yul\":6756:6821   */\n  tag_46\n  jump\t// in\ntag_137:\n    /* \"#utility.yul\":6691:6827   */\n  pop\n    /* \"#utility.yul\":6638:6827   */\n  pop\n  pop\n  jump\t// out\n    /* \"#utility.yul\":6833:7019   */\ntag_49:\n    /* \"#utility.yul\":6893:7013   */\ntag_139:\n    /* \"#utility.yul\":6910:6913   */\n  dup2\n    /* \"#utility.yul\":6903:6908   */\n  dup2\n    /* \"#utility.yul\":6900:6914   */\n  lt\n    /* \"#utility.yul\":6893:7013   */\n  iszero\n  tag_141\n  jumpi\n    /* \"#utility.yul\":6964:7003   */\n  tag_142\n    /* \"#utility.yul\":7001:7002   */\n  0x00\n    /* \"#utility.yul\":6994:6999   */\n  dup3\n    /* \"#utility.yul\":6964:7003   */\n  tag_48\n  jump\t// in\ntag_142:\n    /* \"#utility.yul\":6937:6938   */\n  0x01\n    /* \"#utility.yul\":6930:6935   */\n  dup2\n    /* \"#utility.yul\":6926:6939   */\n  add\n    /* \"#utility.yul\":6917:6939   */\n  swap1\n  pop\n    /* \"#utility.yul\":6893:7013   */\n  jump(tag_139)\ntag_141:\n    /* \"#utility.yul\":6833:7019   */\n  pop\n  pop\n  jump\t// out\n    /* \"#utility.yul\":7025:7568   */\ntag_50:\n    /* \"#utility.yul\":7126:7128   */\n  0x1f\n    /* \"#utility.yul\":7121:7124   */\n  dup3\n    /* \"#utility.yul\":7118:7129   */\n  gt\n    /* \"#utility.yul\":7115:7561   */\n  iszero\n  tag_144\n  jumpi\n    /* \"#utility.yul\":7160:7198   */\n  tag_145\n    /* \"#utility.yul\":7192:7197   */\n  dup2\n    /* \"#utility.yul\":7160:7198   */\n  tag_39\n  jump\t// in\ntag_145:\n    /* \"#utility.yul\":7244:7273   */\n  tag_146\n    /* \"#utility.yul\":7262:7272   */\n  dup5\n    /* \"#utility.yul\":7244:7273   */\n  tag_40\n  jump\t// in\ntag_146:\n    /* \"#utility.yul\":7234:7242   */\n  dup2\n    /* \"#utility.yul\":7230:7274   */\n  add\n    /* \"#utility.yul\":7427:7429   */\n  0x20\n    /* \"#utility.yul\":7415:7425   */\n  dup6\n    /* \"#utility.yul\":7412:7430   */\n  lt\n    /* \"#utility.yul\":7409:7458   */\n  iszero\n  tag_147\n  jumpi\n    /* \"#utility.yul\":7448:7456   */\n  dup2\n    /* \"#utility.yul\":7433:7456   */\n  swap1\n  pop\n    /* \"#utility.yul\":7409:7458   */\ntag_147:\n    /* \"#utility.yul\":7471:7551   */\n  tag_148\n    /* \"#utility.yul\":7527:7549   */\n  tag_149\n    /* \"#utility.yul\":7545:7548   */\n  dup6\n    /* \"#utility.yul\":7527:7549   */\n  tag_40\n  jump\t// in\ntag_149:\n    /* \"#utility.yul\":7517:7525   */\n  dup4\n    /* \"#utility.yul\":7513:7550   */\n  add\n    /* \"#utility.yul\":7500:7511   */\n  dup3\n    /* \"#utility.yul\":7471:7551   */\n  tag_49\n  jump\t// in\ntag_148:\n    /* \"#utility.yul\":7130:7561   */\n  pop\n  pop\n    /* \"#utility.yul\":7115:7561   */\ntag_144:\n    /* \"#utility.yul\":7025:7568   */\n  pop\n  pop\n  pop\n  jump\t// out\n    /* \"#utility.yul\":7574:7691   */\ntag_51:\n    /* \"#utility.yul\":7628:7636   */\n  0x00\n    /* \"#utility.yul\":7678:7683   */\n  dup3\n    /* \"#utility.yul\":7672:7676   */\n  dup3\n    /* \"#utility.yul\":7668:7684   */\n  shr\n    /* \"#utility.yul\":7647:7684   */\n  swap1\n  pop\n    /* \"#utility.yul\":7574:7691   */\n  swap3\n  swap2\n  pop\n  pop\n  jump\t// out\n    /* \"#utility.yul\":7697:7866   */\ntag_52:\n    /* \"#utility.yul\":7741:7747   */\n  0x00\n    /* \"#utility.yul\":7774:7825   */\n  tag_152\n    /* \"#utility.yul\":7822:7823   */\n  0x00\n    /* \"#utility.yul\":7818:7824   */\n  not\n    /* \"#utility.yul\":7810:7815   */\n  dup5\n    /* \"#utility.yul\":7807:7808   */\n  0x08\n    /* \"#utility.yul\":7803:7816   */\n  mul\n    /* \"#utility.yul\":7774:7825   */\n  tag_51\n  jump\t// in\ntag_152:\n    /* \"#utility.yul\":7770:7826   */\n  not\n    /* \"#utility.yul\":7855:7859   */\n  dup1\n    /* \"#utility.yul\":7849:7853   */\n  dup4\n    /* \"#utility.yul\":7845:7860   */\n  and\n    /* \"#utility.yul\":7835:7860   */\n  swap2\n  pop\n    /* \"#utility.yul\":7748:7866   */\n  pop\n    /* \"#utility.yul\":7697:7866   */\n  swap3\n  swap2\n  pop\n  pop\n  jump\t// out\n    /* \"#utility.yul\":7871:8166   */\ntag_53:\n    /* \"#utility.yul\":7947:7951   */\n  0x00\n    /* \"#utility.yul\":8093:8122   */\n  tag_154\n    /* \"#utility.yul\":8118:8121   */\n  dup4\n    /* \"#utility.yul\":8112:8116   */\n  dup4\n    /* \"#utility.yul\":8093:8122   */\n  tag_52\n  jump\t// in\ntag_154:\n    /* \"#utility.yul\":8085:8122   */\n  swap2\n  pop\n    /* \"#utility.yul\":8155:8158   */\n  dup3\n    /* \"#utility.yul\":8152:8153   */\n  0x02\n    /* \"#utility.yul\":8148:8159   */\n  mul\n    /* \"#utility.yul\":8142:8146   */\n  dup3\n    /* \"#utility.yul\":8139:8160   */\n  or\n    /* \"#utility.yul\":8131:8160   */\n  swap1\n  pop\n    /* \"#utility.yul\":7871:8166   */\n  swap3\n  swap2\n  pop\n  pop\n  jump\t// out\n    /* \"#utility.yul\":8171:9566   */\ntag_12:\n    /* \"#utility.yul\":8288:8325   */\n  tag_156\n    /* \"#utility.yul\":8321:8324   */\n  dup3\n    /* \"#utility.yul\":8288:8325   */\n  tag_36\n  jump\t// in\ntag_156:\n    /* \"#utility.yul\":8390:8408   */\n  0xffffffffffffffff\n    /* \"#utility.yul\":8382:8388   */\n  dup2\n    /* \"#utility.yul\":8379:8409   */\n  gt\n    /* \"#utility.yul\":8376:8432   */\n  iszero\n  tag_157\n  jumpi\n    /* \"#utility.yul\":8412:8430   */\n  tag_158\n  tag_23\n  jump\t// in\ntag_158:\n    /* \"#utility.yul\":8376:8432   */\ntag_157:\n    /* \"#utility.yul\":8456:8494   */\n  tag_159\n    /* \"#utility.yul\":8488:8492   */\n  dup3\n    /* \"#utility.yul\":8482:8493   */\n  sload\n    /* \"#utility.yul\":8456:8494   */\n  tag_38\n  jump\t// in\ntag_159:\n    /* \"#utility.yul\":8541:8608   */\n  tag_160\n    /* \"#utility.yul\":8601:8607   */\n  dup3\n    /* \"#utility.yul\":8593:8599   */\n  dup3\n    /* \"#utility.yul\":8587:8591   */\n  dup6\n    /* \"#utility.yul\":8541:8608   */\n  tag_50\n  jump\t// in\ntag_160:\n    /* \"#utility.yul\":8635:8636   */\n  0x00\n    /* \"#utility.yul\":8659:8663   */\n  0x20\n    /* \"#utility.yul\":8646:8663   */\n  swap1\n  pop\n    /* \"#utility.yul\":8691:8693   */\n  0x1f\n    /* \"#utility.yul\":8683:8689   */\n  dup4\n    /* \"#utility.yul\":8680:8694   */\n  gt\n    /* \"#utility.yul\":8708:8709   */\n  0x01\n    /* \"#utility.yul\":8703:9321   */\n  dup2\n  eq\n  tag_162\n  jumpi\n    /* \"#utility.yul\":9365:9366   */\n  0x00\n    /* \"#utility.yul\":9382:9388   */\n  dup5\n    /* \"#utility.yul\":9379:9456   */\n  iszero\n  tag_163\n  jumpi\n    /* \"#utility.yul\":9431:9440   */\n  dup3\n    /* \"#utility.yul\":9426:9429   */\n  dup8\n    /* \"#utility.yul\":9422:9441   */\n  add\n    /* \"#utility.yul\":9416:9442   */\n  mload\n    /* \"#utility.yul\":9407:9442   */\n  swap1\n  pop\n    /* \"#utility.yul\":9379:9456   */\ntag_163:\n    /* \"#utility.yul\":9482:9549   */\n  tag_164\n    /* \"#utility.yul\":9542:9548   */\n  dup6\n    /* \"#utility.yul\":9535:9540   */\n  dup3\n    /* \"#utility.yul\":9482:9549   */\n  tag_53\n  jump\t// in\ntag_164:\n    /* \"#utility.yul\":9476:9480   */\n  dup7\n    /* \"#utility.yul\":9469:9550   */\n  sstore\n    /* \"#utility.yul\":9338:9560   */\n  pop\n    /* \"#utility.yul\":8673:9560   */\n  jump(tag_161)\n    /* \"#utility.yul\":8703:9321   */\ntag_162:\n    /* \"#utility.yul\":8755:8759   */\n  0x1f\n    /* \"#utility.yul\":8751:8760   */\n  not\n    /* \"#utility.yul\":8743:8749   */\n  dup5\n    /* \"#utility.yul\":8739:8761   */\n  and\n    /* \"#utility.yul\":8789:8826   */\n  tag_165\n    /* \"#utility.yul\":8821:8825   */\n  dup7\n    /* \"#utility.yul\":8789:8826   */\n  tag_39\n  jump\t// in\ntag_165:\n    /* \"#utility.yul\":8848:8849   */\n  0x00\n    /* \"#utility.yul\":8862:9070   */\ntag_166:\n    /* \"#utility.yul\":8876:8883   */\n  dup3\n    /* \"#utility.yul\":8873:8874   */\n  dup2\n    /* \"#utility.yul\":8870:8884   */\n  lt\n    /* \"#utility.yul\":8862:9070   */\n  iszero\n  tag_168\n  jumpi\n    /* \"#utility.yul\":8955:8964   */\n  dup5\n    /* \"#utility.yul\":8950:8953   */\n  dup10\n    /* \"#utility.yul\":8946:8965   */\n  add\n    /* \"#utility.yul\":8940:8966   */\n  mload\n    /* \"#utility.yul\":8932:8938   */\n  dup3\n    /* \"#utility.yul\":8925:8967   */\n  sstore\n    /* \"#utility.yul\":9006:9007   */\n  0x01\n    /* \"#utility.yul\":8998:9004   */\n  dup3\n    /* \"#utility.yul\":8994:9008   */\n  add\n    /* \"#utility.yul\":8984:9008   */\n  swap2\n  pop\n    /* \"#utility.yul\":9053:9055   */\n  0x20\n    /* \"#utility.yul\":9042:9051   */\n  dup6\n    /* \"#utility.yul\":9038:9056   */\n  add\n    /* \"#utility.yul\":9025:9056   */\n  swap5\n  pop\n    /* \"#utility.yul\":8899:8903   */\n  0x20\n    /* \"#utility.yul\":8896:8897   */\n  dup2\n    /* \"#utility.yul\":8892:8904   */\n  add\n    /* \"#utility.yul\":8887:8904   */\n  swap1\n  pop\n    /* \"#utility.yul\":8862:9070   */\n  jump(tag_166)\ntag_168:\n    /* \"#utility.yul\":9098:9104   */\n  dup7\n    /* \"#utility.yul\":9089:9096   */\n  dup4\n    /* \"#utility.yul\":9086:9105   */\n  lt\n    /* \"#utility.yul\":9083:9262   */\n  iszero\n  tag_169\n  jumpi\n    /* \"#utility.yul\":9156:9165   */\n  dup5\n    /* \"#utility.yul\":9151:9154   */\n  dup10\n    /* \"#utility.yul\":9147:9166   */\n  add\n    /* \"#utility.yul\":9141:9167   */\n  mload\n    /* \"#utility.yul\":9199:9247   */\n  tag_170\n    /* \"#utility.yul\":9241:9245   */\n  0x1f\n    /* \"#utility.yul\":9233:9239   */\n  dup10\n    /* \"#utility.yul\":9229:9246   */\n  and\n    /* \"#utility.yul\":9218:9227   */\n  dup3\n    /* \"#utility.yul\":9199:9247   */\n  tag_52\n  jump\t// in\ntag_170:\n    /* \"#utility.yul\":9191:9197   */\n  dup4\n    /* \"#utility.yul\":9184:9248   */\n  sstore\n    /* \"#utility.yul\":9106:9262   */\n  pop\n    /* \"#utility.yul\":9083:9262   */\ntag_169:\n    /* \"#utility.yul\":9308:9309   */\n  0x01\n    /* \"#utility.yul\":9304:9305   */\n  0x02\n    /* \"#utility.yul\":9296:9302   */\n  dup9\n    /* \"#utility.yul\":9292:9306   */\n  mul\n    /* \"#utility.yul\":9288:9310   */\n  add\n    /* \"#utility.yul\":9282:9286   */\n  dup9\n    /* \"#utility.yul\":9275:9311   */\n  sstore\n    /* \"#utility.yul\":8710:9321   */\n  pop\n  pop\n  pop\n    /* \"#utility.yul\":8673:9560   */\ntag_161:\n  pop\n    /* \"#utility.yul\":8263:9566   */\n  pop\n  pop\n  pop\n    /* \"#utility.yul\":8171:9566   */\n  pop\n  pop\n  jump\t// out\n    /* \"#utility.yul\":9572:9690   */\ntag_54:\n    /* \"#utility.yul\":9659:9683   */\n  tag_172\n    /* \"#utility.yul\":9677:9682   */\n  dup2\n    /* \"#utility.yul\":9659:9683   */\n  tag_33\n  jump\t// in\ntag_172:\n    /* \"#utility.yul\":9654:9657   */\n  dup3\n    /* \"#utility.yul\":9647:9684   */\n  mstore\n    /* \"#utility.yul\":9572:9690   */\n  pop\n  pop\n  jump\t// out\n    /* \"#utility.yul\":9696:9918   */\ntag_15:\n    /* \"#utility.yul\":9789:9793   */\n  0x00\n    /* \"#utility.yul\":9827:9829   */\n  0x20\n    /* \"#utility.yul\":9816:9825   */\n  dup3\n    /* \"#utility.yul\":9812:9830   */\n  add\n    /* \"#utility.yul\":9804:9830   */\n  swap1\n  pop\n    /* \"#utility.yul\":9840:9911   */\n  tag_174\n    /* \"#utility.yul\":9908:9909   */\n  0x00\n    /* \"#utility.yul\":9897:9906   */\n  dup4\n    /* \"#utility.yul\":9893:9910   */\n  add\n    /* \"#utility.yul\":9884:9890   */\n  dup5\n    /* \"#utility.yul\":9840:9911   */\n  tag_54\n  jump\t// in\ntag_174:\n    /* \"#utility.yul\":9696:9918   */\n  swap3\n  swap2\n  pop\n  pop\n  jump\t// out\n    /* \"contracts/MetraToken.sol\":130:9423  contract Metra is Ownable, Stakeable{... */\ntag_16:\n  dataSize(sub_0)\n  dup1\n  dataOffset(sub_0)\n  0x00\n  codecopy\n  0x00\n  return\nstop\n\nsub_0: assembly {\n        /* \"contracts/MetraToken.sol\":130:9423  contract Metra is Ownable, Stakeable{... */\n      mstore(0x40, 0x80)\n      callvalue\n      dup1\n      iszero\n      tag_1\n      jumpi\n      0x00\n      dup1\n      revert\n    tag_1:\n      pop\n      jumpi(tag_2, lt(calldatasize, 0x04))\n      shr(0xe0, calldataload(0x00))\n      dup1\n      0x8da5cb5b\n      gt\n      tag_23\n      jumpi\n      dup1\n      0xa9059cbb\n      gt\n      tag_24\n      jumpi\n      dup1\n      0xa9059cbb\n      eq\n      tag_18\n      jumpi\n      dup1\n      0xdd62ed3e\n      eq\n      tag_19\n      jumpi\n      dup1\n      0xe73e14bf\n      eq\n      tag_20\n      jumpi\n      dup1\n      0xf1fdf469\n      eq\n      tag_21\n      jumpi\n      dup1\n      0xf2fde38b\n      eq\n      tag_22\n      jumpi\n      jump(tag_2)\n    tag_24:\n      dup1\n      0x8da5cb5b\n      eq\n      tag_13\n      jumpi\n      dup1\n      0x95d89b41\n      eq\n      tag_14\n      jumpi\n      dup1\n      0x9dc29fac\n      eq\n      tag_15\n      jumpi\n      dup1\n      0xa457c2d7\n      eq\n      tag_16\n      jumpi\n      dup1\n      0xa694fc3a\n      eq\n      tag_17\n      jumpi\n      jump(tag_2)\n    tag_23:\n      dup1\n      0x39509351\n      gt\n      tag_25\n      jumpi\n      dup1\n      0x39509351\n      eq\n      tag_8\n      jumpi\n      dup1\n      0x40c10f19\n      eq\n      tag_9\n      jumpi\n      dup1\n      0x70a08231\n      eq\n      tag_10\n      jumpi\n      dup1\n      0x715018a6\n      eq\n      tag_11\n      jumpi\n      dup1\n      0x893d20e8\n      eq\n      tag_12\n      jumpi\n      jump(tag_2)\n    tag_25:\n      dup1\n      0x06fdde03\n      eq\n      tag_3\n      jumpi\n      dup1\n      0x095ea7b3\n      eq\n      tag_4\n      jumpi\n      dup1\n      0x18160ddd\n      eq\n      tag_5\n      jumpi\n      dup1\n      0x23b872dd\n      eq\n      tag_6\n      jumpi\n      dup1\n      0x313ce567\n      eq\n      tag_7\n      jumpi\n    tag_2:\n      0x00\n      dup1\n      revert\n        /* \"contracts/MetraToken.sol\":2378:2454  function name() external view returns (string memory){... */\n    tag_3:\n      tag_26\n      tag_27\n      jump\t// in\n    tag_26:\n      mload(0x40)\n      tag_28\n      swap2\n      swap1\n      tag_29\n      jump\t// in\n    tag_28:\n      mload(0x40)\n      dup1\n      swap2\n      sub\n      swap1\n      return\n        /* \"contracts/MetraToken.sol\":6568:6710  function approve(address spender, uint256 amount) external returns (bool) {... */\n    tag_4:\n      tag_30\n      0x04\n      dup1\n      calldatasize\n      sub\n      dup2\n      add\n      swap1\n      tag_31\n      swap2\n      swap1\n      tag_32\n      jump\t// in\n    tag_31:\n      tag_33\n      jump\t// in\n    tag_30:\n      mload(0x40)\n      tag_34\n      swap2\n      swap1\n      tag_35\n      jump\t// in\n    tag_34:\n      mload(0x40)\n      dup1\n      swap2\n      sub\n      swap1\n      return\n        /* \"contracts/MetraToken.sol\":2538:2622  function totalSupply() external view returns (uint256){... */\n    tag_5:\n      tag_36\n      tag_37\n      jump\t// in\n    tag_36:\n      mload(0x40)\n      tag_38\n      swap2\n      swap1\n      tag_39\n      jump\t// in\n    tag_38:\n      mload(0x40)\n      dup1\n      swap2\n      sub\n      swap1\n      return\n        /* \"contracts/MetraToken.sol\":7598:8090  function transferFrom(address spender, address recipient, uint256 amount) external returns(bool){... */\n    tag_6:\n      tag_40\n      0x04\n      dup1\n      calldatasize\n      sub\n      dup2\n      add\n      swap1\n      tag_41\n      swap2\n      swap1\n      tag_42\n      jump\t// in\n    tag_41:\n      tag_43\n      jump\t// in\n    tag_40:\n      mload(0x40)\n      tag_44\n      swap2\n      swap1\n      tag_35\n      jump\t// in\n    tag_44:\n      mload(0x40)\n      dup1\n      swap2\n      sub\n      swap1\n      return\n        /* \"contracts/MetraToken.sol\":2093:2170  function decimals() external view returns (uint8) {... */\n    tag_7:\n      tag_45\n      tag_46\n      jump\t// in\n    tag_45:\n      mload(0x40)\n      tag_47\n      swap2\n      swap1\n      tag_48\n      jump\t// in\n    tag_47:\n      mload(0x40)\n      dup1\n      swap2\n      sub\n      swap1\n      return\n        /* \"contracts/MetraToken.sol\":8209:8395  function increaseAllowance(address spender, uint256 amount) public returns (bool) {... */\n    tag_8:\n      tag_49\n      0x04\n      dup1\n      calldatasize\n      sub\n      dup2\n      add\n      swap1\n      tag_50\n      swap2\n      swap1\n      tag_32\n      jump\t// in\n    tag_50:\n      tag_51\n      jump\t// in\n    tag_49:\n      mload(0x40)\n      tag_52\n      swap2\n      swap1\n      tag_35\n      jump\t// in\n    tag_52:\n      mload(0x40)\n      dup1\n      swap2\n      sub\n      swap1\n      return\n        /* \"contracts/MetraToken.sol\":4754:4881  function mint(address account, uint256 amount) public onlyOwner returns(bool){... */\n    tag_9:\n      tag_53\n      0x04\n      dup1\n      calldatasize\n      sub\n      dup2\n      add\n      swap1\n      tag_54\n      swap2\n      swap1\n      tag_32\n      jump\t// in\n    tag_54:\n      tag_55\n      jump\t// in\n    tag_53:\n      mload(0x40)\n      tag_56\n      swap2\n      swap1\n      tag_35\n      jump\t// in\n    tag_56:\n      mload(0x40)\n      dup1\n      swap2\n      sub\n      swap1\n      return\n        /* \"contracts/MetraToken.sol\":2712:2816  function balanceOf(address account) external view returns (uint256) {... */\n    tag_10:\n      tag_57\n      0x04\n      dup1\n      calldatasize\n      sub\n      dup2\n      add\n      swap1\n      tag_58\n      swap2\n      swap1\n      tag_59\n      jump\t// in\n    tag_58:\n      tag_60\n      jump\t// in\n    tag_57:\n      mload(0x40)\n      tag_61\n      swap2\n      swap1\n      tag_39\n      jump\t// in\n    tag_61:\n      mload(0x40)\n      dup1\n      swap2\n      sub\n      swap1\n      return\n        /* \"contracts/Ownable.sol\":1461:1598  function renounceOwnership() public onlyOwner {... */\n    tag_11:\n      tag_62\n      tag_63\n      jump\t// in\n    tag_62:\n      stop\n        /* \"contracts/MetraToken.sol\":6152:6229  function getOwner() external view returns (address) {... */\n    tag_12:\n      tag_64\n      tag_65\n      jump\t// in\n    tag_64:\n      mload(0x40)\n      tag_66\n      swap2\n      swap1\n      tag_67\n      jump\t// in\n    tag_66:\n      mload(0x40)\n      dup1\n      swap2\n      sub\n      swap1\n      return\n        /* \"contracts/Ownable.sol\":1137:1214  function owner() public view returns(address) {... */\n    tag_13:\n      tag_68\n      tag_69\n      jump\t// in\n    tag_68:\n      mload(0x40)\n      tag_70\n      swap2\n      swap1\n      tag_67\n      jump\t// in\n    tag_70:\n      mload(0x40)\n      dup1\n      swap2\n      sub\n      swap1\n      return\n        /* \"contracts/MetraToken.sol\":2235:2315  function symbol() external view returns (string memory){... */\n    tag_14:\n      tag_71\n      tag_72\n      jump\t// in\n    tag_71:\n      mload(0x40)\n      tag_73\n      swap2\n      swap1\n      tag_29\n      jump\t// in\n    tag_73:\n      mload(0x40)\n      dup1\n      swap2\n      sub\n      swap1\n      return\n        /* \"contracts/MetraToken.sol\":4455:4583  function burn(address account, uint256 amount) public onlyOwner returns(bool) {... */\n    tag_15:\n      tag_74\n      0x04\n      dup1\n      calldatasize\n      sub\n      dup2\n      add\n      swap1\n      tag_75\n      swap2\n      swap1\n      tag_32\n      jump\t// in\n    tag_75:\n      tag_76\n      jump\t// in\n    tag_74:\n      mload(0x40)\n      tag_77\n      swap2\n      swap1\n      tag_35\n      jump\t// in\n    tag_77:\n      mload(0x40)\n      dup1\n      swap2\n      sub\n      swap1\n      return\n        /* \"contracts/MetraToken.sol\":8517:8703  function decreaseAllowance(address spender, uint256 amount) public returns (bool) {... */\n    tag_16:\n      tag_78\n      0x04\n      dup1\n      calldatasize\n      sub\n      dup2\n      add\n      swap1\n      tag_79\n      swap2\n      swap1\n      tag_32\n      jump\t// in\n    tag_79:\n      tag_80\n      jump\t// in\n    tag_78:\n      mload(0x40)\n      tag_81\n      swap2\n      swap1\n      tag_35\n      jump\t// in\n    tag_81:\n      mload(0x40)\n      dup1\n      swap2\n      sub\n      swap1\n      return\n        /* \"contracts/MetraToken.sol\":8790:9096  function stake(uint256 _amount) public {... */\n    tag_17:\n      tag_82\n      0x04\n      dup1\n      calldatasize\n      sub\n      dup2\n      add\n      swap1\n      tag_83\n      swap2\n      swap1\n      tag_84\n      jump\t// in\n    tag_83:\n      tag_85\n      jump\t// in\n    tag_82:\n      stop\n        /* \"contracts/MetraToken.sol\":5183:5328  function transfer(address recipient, uint256 amount) external returns (bool) {... */\n    tag_18:\n      tag_86\n      0x04\n      dup1\n      calldatasize\n      sub\n      dup2\n      add\n      swap1\n      tag_87\n      swap2\n      swap1\n      tag_32\n      jump\t// in\n    tag_87:\n      tag_88\n      jump\t// in\n    tag_86:\n      mload(0x40)\n      tag_89\n      swap2\n      swap1\n      tag_35\n      jump\t// in\n    tag_89:\n      mload(0x40)\n      dup1\n      swap2\n      sub\n      swap1\n      return\n        /* \"contracts/MetraToken.sol\":6314:6442  function allowance(address owner, address spender) external view returns(uint256){... */\n    tag_19:\n      tag_90\n      0x04\n      dup1\n      calldatasize\n      sub\n      dup2\n      add\n      swap1\n      tag_91\n      swap2\n      swap1\n      tag_92\n      jump\t// in\n    tag_91:\n      tag_93\n      jump\t// in\n    tag_90:\n      mload(0x40)\n      tag_94\n      swap2\n      swap1\n      tag_39\n      jump\t// in\n    tag_94:\n      mload(0x40)\n      dup1\n      swap2\n      sub\n      swap1\n      return\n        /* \"contracts/Stakeable.sol\":6899:7727  function hasStake(address _staker) public view returns(StakingSummary memory){... */\n    tag_20:\n      tag_95\n      0x04\n      dup1\n      calldatasize\n      sub\n      dup2\n      add\n      swap1\n      tag_96\n      swap2\n      swap1\n      tag_59\n      jump\t// in\n    tag_96:\n      tag_97\n      jump\t// in\n    tag_95:\n      mload(0x40)\n      tag_98\n      swap2\n      swap1\n      tag_99\n      jump\t// in\n    tag_98:\n      mload(0x40)\n      dup1\n      swap2\n      sub\n      swap1\n      return\n        /* \"contracts/MetraToken.sol\":9197:9420  function withdrawStake(uint256 amount, uint256 stake_index)  public {... */\n    tag_21:\n      tag_100\n      0x04\n      dup1\n      calldatasize\n      sub\n      dup2\n      add\n      swap1\n      tag_101\n      swap2\n      swap1\n      tag_102\n      jump\t// in\n    tag_101:\n      tag_103\n      jump\t// in\n    tag_100:\n      stop\n        /* \"contracts/Ownable.sol\":1694:1801  function transferOwnership(address newOwner) public onlyOwner {... */\n    tag_22:\n      tag_104\n      0x04\n      dup1\n      calldatasize\n      sub\n      dup2\n      add\n      swap1\n      tag_105\n      swap2\n      swap1\n      tag_59\n      jump\t// in\n    tag_105:\n      tag_106\n      jump\t// in\n    tag_104:\n      stop\n        /* \"contracts/MetraToken.sol\":2378:2454  function name() external view returns (string memory){... */\n    tag_27:\n        /* \"contracts/MetraToken.sol\":2417:2430  string memory */\n      0x60\n        /* \"contracts/MetraToken.sol\":2444:2449  _name */\n      0x07\n        /* \"contracts/MetraToken.sol\":2437:2449  return _name */\n      dup1\n      sload\n      tag_108\n      swap1\n      tag_109\n      jump\t// in\n    tag_108:\n      dup1\n      0x1f\n      add\n      0x20\n      dup1\n      swap2\n      div\n      mul\n      0x20\n      add\n      mload(0x40)\n      swap1\n      dup2\n      add\n      0x40\n      mstore\n      dup1\n      swap3\n      swap2\n      swap1\n      dup2\n      dup2\n      mstore\n      0x20\n      add\n      dup3\n      dup1\n      sload\n      tag_110\n      swap1\n      tag_109\n      jump\t// in\n    tag_110:\n      dup1\n      iszero\n      tag_111\n      jumpi\n      dup1\n      0x1f\n      lt\n      tag_112\n      jumpi\n      0x0100\n      dup1\n      dup4\n      sload\n      div\n      mul\n      dup4\n      mstore\n      swap2\n      0x20\n      add\n      swap2\n      jump(tag_111)\n    tag_112:\n      dup3\n      add\n      swap2\n      swap1\n      0x00\n      mstore\n      keccak256(0x00, 0x20)\n      swap1\n    tag_113:\n      dup2\n      sload\n      dup2\n      mstore\n      swap1\n      0x01\n      add\n      swap1\n      0x20\n      add\n      dup1\n      dup4\n      gt\n      tag_113\n      jumpi\n      dup3\n      swap1\n      sub\n      0x1f\n      and\n      dup3\n      add\n      swap2\n    tag_111:\n      pop\n      pop\n      pop\n      pop\n      pop\n      swap1\n      pop\n        /* \"contracts/MetraToken.sol\":2378:2454  function name() external view returns (string memory){... */\n      swap1\n      jump\t// out\n        /* \"contracts/MetraToken.sol\":6568:6710  function approve(address spender, uint256 amount) external returns (bool) {... */\n    tag_33:\n        /* \"contracts/MetraToken.sol\":6636:6640  bool */\n      0x00\n        /* \"contracts/MetraToken.sol\":6649:6686  _approve(msg.sender, spender, amount) */\n      tag_115\n        /* \"contracts/MetraToken.sol\":6658:6668  msg.sender */\n      caller\n        /* \"contracts/MetraToken.sol\":6670:6677  spender */\n      dup5\n        /* \"contracts/MetraToken.sol\":6679:6685  amount */\n      dup5\n        /* \"contracts/MetraToken.sol\":6649:6657  _approve */\n      tag_116\n        /* \"contracts/MetraToken.sol\":6649:6686  _approve(msg.sender, spender, amount) */\n      jump\t// in\n    tag_115:\n        /* \"contracts/MetraToken.sol\":6700:6704  true */\n      0x01\n        /* \"contracts/MetraToken.sol\":6693:6704  return true */\n      swap1\n      pop\n        /* \"contracts/MetraToken.sol\":6568:6710  function approve(address spender, uint256 amount) external returns (bool) {... */\n      swap3\n      swap2\n      pop\n      pop\n      jump\t// out\n        /* \"contracts/MetraToken.sol\":2538:2622  function totalSupply() external view returns (uint256){... */\n    tag_37:\n        /* \"contracts/MetraToken.sol\":2584:2591  uint256 */\n      0x00\n        /* \"contracts/MetraToken.sol\":2605:2617  _totalSupply */\n      sload(0x04)\n        /* \"contracts/MetraToken.sol\":2598:2617  return _totalSupply */\n      swap1\n      pop\n        /* \"contracts/MetraToken.sol\":2538:2622  function totalSupply() external view returns (uint256){... */\n      swap1\n      jump\t// out\n        /* \"contracts/MetraToken.sol\":7598:8090  function transferFrom(address spender, address recipient, uint256 amount) external returns(bool){... */\n    tag_43:\n        /* \"contracts/MetraToken.sol\":7689:7693  bool */\n      0x00\n        /* \"contracts/MetraToken.sol\":7796:7802  amount */\n      dup2\n        /* \"contracts/MetraToken.sol\":7760:7771  _allowances */\n      0x09\n        /* \"contracts/MetraToken.sol\":7760:7780  _allowances[spender] */\n      0x00\n        /* \"contracts/MetraToken.sol\":7772:7779  spender */\n      dup7\n        /* \"contracts/MetraToken.sol\":7760:7780  _allowances[spender] */\n      0xffffffffffffffffffffffffffffffffffffffff\n      and\n      0xffffffffffffffffffffffffffffffffffffffff\n      and\n      dup2\n      mstore\n      0x20\n      add\n      swap1\n      dup2\n      mstore\n      0x20\n      add\n      0x00\n      keccak256\n        /* \"contracts/MetraToken.sol\":7760:7792  _allowances[spender][msg.sender] */\n      0x00\n        /* \"contracts/MetraToken.sol\":7781:7791  msg.sender */\n      caller\n        /* \"contracts/MetraToken.sol\":7760:7792  _allowances[spender][msg.sender] */\n      0xffffffffffffffffffffffffffffffffffffffff\n      and\n      0xffffffffffffffffffffffffffffffffffffffff\n      and\n      dup2\n      mstore\n      0x20\n      add\n      swap1\n      dup2\n      mstore\n      0x20\n      add\n      0x00\n      keccak256\n      sload\n        /* \"contracts/MetraToken.sol\":7760:7802  _allowances[spender][msg.sender] >= amount */\n      lt\n      iszero\n        /* \"contracts/MetraToken.sol\":7752:7856  require(_allowances[spender][msg.sender] >= amount, \"Metra: You cannot spend that much on this account\") */\n      tag_119\n      jumpi\n      mload(0x40)\n      0x08c379a000000000000000000000000000000000000000000000000000000000\n      dup2\n      mstore\n      0x04\n      add\n      tag_120\n      swap1\n      tag_121\n      jump\t// in\n    tag_120:\n      mload(0x40)\n      dup1\n      swap2\n      sub\n      swap1\n      revert\n    tag_119:\n        /* \"contracts/MetraToken.sol\":7888:7925  _transfer(spender, recipient, amount) */\n      tag_122\n        /* \"contracts/MetraToken.sol\":7898:7905  spender */\n      dup5\n        /* \"contracts/MetraToken.sol\":7907:7916  recipient */\n      dup5\n        /* \"contracts/MetraToken.sol\":7918:7924  amount */\n      dup5\n        /* \"contracts/MetraToken.sol\":7888:7897  _transfer */\n      tag_123\n        /* \"contracts/MetraToken.sol\":7888:7925  _transfer(spender, recipient, amount) */\n      jump\t// in\n    tag_122:\n        /* \"contracts/MetraToken.sol\":7992:8064  _approve(spender, msg.sender, _allowances[spender][msg.sender] - amount) */\n      tag_124\n        /* \"contracts/MetraToken.sol\":8001:8008  spender */\n      dup5\n        /* \"contracts/MetraToken.sol\":8010:8020  msg.sender */\n      caller\n        /* \"contracts/MetraToken.sol\":8057:8063  amount */\n      dup5\n        /* \"contracts/MetraToken.sol\":8022:8033  _allowances */\n      0x09\n        /* \"contracts/MetraToken.sol\":8022:8042  _allowances[spender] */\n      0x00\n        /* \"contracts/MetraToken.sol\":8034:8041  spender */\n      dup10\n        /* \"contracts/MetraToken.sol\":8022:8042  _allowances[spender] */\n      0xffffffffffffffffffffffffffffffffffffffff\n      and\n      0xffffffffffffffffffffffffffffffffffffffff\n      and\n      dup2\n      mstore\n      0x20\n      add\n      swap1\n      dup2\n      mstore\n      0x20\n      add\n      0x00\n      keccak256\n        /* \"contracts/MetraToken.sol\":8022:8054  _allowances[spender][msg.sender] */\n      0x00\n        /* \"contracts/MetraToken.sol\":8043:8053  msg.sender */\n      caller\n        /* \"contracts/MetraToken.sol\":8022:8054  _allowances[spender][msg.sender] */\n      0xffffffffffffffffffffffffffffffffffffffff\n      and\n      0xffffffffffffffffffffffffffffffffffffffff\n      and\n      dup2\n      mstore\n      0x20\n      add\n      swap1\n      dup2\n      mstore\n      0x20\n      add\n      0x00\n      keccak256\n      sload\n        /* \"contracts/MetraToken.sol\":8022:8063  _allowances[spender][msg.sender] - amount */\n      tag_125\n      swap2\n      swap1\n      tag_126\n      jump\t// in\n    tag_125:\n        /* \"contracts/MetraToken.sol\":7992:8000  _approve */\n      tag_116\n        /* \"contracts/MetraToken.sol\":7992:8064  _approve(spender, msg.sender, _allowances[spender][msg.sender] - amount) */\n      jump\t// in\n    tag_124:\n        /* \"contracts/MetraToken.sol\":8079:8083  true */\n      0x01\n        /* \"contracts/MetraToken.sol\":8072:8083  return true */\n      swap1\n      pop\n        /* \"contracts/MetraToken.sol\":7598:8090  function transferFrom(address spender, address recipient, uint256 amount) external returns(bool){... */\n      swap4\n      swap3\n      pop\n      pop\n      pop\n      jump\t// out\n        /* \"contracts/MetraToken.sol\":2093:2170  function decimals() external view returns (uint8) {... */\n    tag_46:\n        /* \"contracts/MetraToken.sol\":2136:2141  uint8 */\n      0x00\n        /* \"contracts/MetraToken.sol\":2156:2165  _decimals */\n      0x05\n      0x00\n      swap1\n      sload\n      swap1\n      0x0100\n      exp\n      swap1\n      div\n      0xff\n      and\n        /* \"contracts/MetraToken.sol\":2149:2165  return _decimals */\n      swap1\n      pop\n        /* \"contracts/MetraToken.sol\":2093:2170  function decimals() external view returns (uint8) {... */\n      swap1\n      jump\t// out\n        /* \"contracts/MetraToken.sol\":8209:8395  function increaseAllowance(address spender, uint256 amount) public returns (bool) {... */\n    tag_51:\n        /* \"contracts/MetraToken.sol\":8285:8289  bool */\n      0x00\n        /* \"contracts/MetraToken.sol\":8299:8369  _approve(msg.sender, spender, _allowances[msg.sender][spender]+amount) */\n      tag_129\n        /* \"contracts/MetraToken.sol\":8308:8318  msg.sender */\n      caller\n        /* \"contracts/MetraToken.sol\":8320:8327  spender */\n      dup5\n        /* \"contracts/MetraToken.sol\":8362:8368  amount */\n      dup5\n        /* \"contracts/MetraToken.sol\":8329:8340  _allowances */\n      0x09\n        /* \"contracts/MetraToken.sol\":8329:8352  _allowances[msg.sender] */\n      0x00\n        /* \"contracts/MetraToken.sol\":8341:8351  msg.sender */\n      caller\n        /* \"contracts/MetraToken.sol\":8329:8352  _allowances[msg.sender] */\n      0xffffffffffffffffffffffffffffffffffffffff\n      and\n      0xffffffffffffffffffffffffffffffffffffffff\n      and\n      dup2\n      mstore\n      0x20\n      add\n      swap1\n      dup2\n      mstore\n      0x20\n      add\n      0x00\n      keccak256\n        /* \"contracts/MetraToken.sol\":8329:8361  _allowances[msg.sender][spender] */\n      0x00\n        /* \"contracts/MetraToken.sol\":8353:8360  spender */\n      dup9\n        /* \"contracts/MetraToken.sol\":8329:8361  _allowances[msg.sender][spender] */\n      0xffffffffffffffffffffffffffffffffffffffff\n      and\n      0xffffffffffffffffffffffffffffffffffffffff\n      and\n      dup2\n      mstore\n      0x20\n      add\n      swap1\n      dup2\n      mstore\n      0x20\n      add\n      0x00\n      keccak256\n      sload\n        /* \"contracts/MetraToken.sol\":8329:8368  _allowances[msg.sender][spender]+amount */\n      tag_130\n      swap2\n      swap1\n      tag_131\n      jump\t// in\n    tag_130:\n        /* \"contracts/MetraToken.sol\":8299:8307  _approve */\n      tag_116\n        /* \"contracts/MetraToken.sol\":8299:8369  _approve(msg.sender, spender, _allowances[msg.sender][spender]+amount) */\n      jump\t// in\n    tag_129:\n        /* \"contracts/MetraToken.sol\":8384:8388  true */\n      0x01\n        /* \"contracts/MetraToken.sol\":8377:8388  return true */\n      swap1\n      pop\n        /* \"contracts/MetraToken.sol\":8209:8395  function increaseAllowance(address spender, uint256 amount) public returns (bool) {... */\n      swap3\n      swap2\n      pop\n      pop\n      jump\t// out\n        /* \"contracts/MetraToken.sol\":4754:4881  function mint(address account, uint256 amount) public onlyOwner returns(bool){... */\n    tag_55:\n        /* \"contracts/MetraToken.sol\":4826:4830  bool */\n      0x00\n        /* \"contracts/Ownable.sol\":783:793  msg.sender */\n      caller\n        /* \"contracts/Ownable.sol\":773:793  _owner == msg.sender */\n      0xffffffffffffffffffffffffffffffffffffffff\n      and\n        /* \"contracts/Ownable.sol\":773:779  _owner */\n      0x00\n      dup1\n      sload\n      swap1\n      0x0100\n      exp\n      swap1\n      div\n      0xffffffffffffffffffffffffffffffffffffffff\n      and\n        /* \"contracts/Ownable.sol\":773:793  _owner == msg.sender */\n      0xffffffffffffffffffffffffffffffffffffffff\n      and\n      eq\n        /* \"contracts/Ownable.sol\":765:840  require(_owner == msg.sender, \"Ownable: only owner can call this function\") */\n      tag_133\n      jumpi\n      mload(0x40)\n      0x08c379a000000000000000000000000000000000000000000000000000000000\n      dup2\n      mstore\n      0x04\n      add\n      tag_134\n      swap1\n      tag_135\n      jump\t// in\n    tag_134:\n      mload(0x40)\n      dup1\n      swap2\n      sub\n      swap1\n      revert\n    tag_133:\n        /* \"contracts/MetraToken.sol\":4837:4859  _mint(account, amount) */\n      tag_137\n        /* \"contracts/MetraToken.sol\":4843:4850  account */\n      dup4\n        /* \"contracts/MetraToken.sol\":4852:4858  amount */\n      dup4\n        /* \"contracts/MetraToken.sol\":4837:4842  _mint */\n      tag_138\n        /* \"contracts/MetraToken.sol\":4837:4859  _mint(account, amount) */\n      jump\t// in\n    tag_137:\n        /* \"contracts/MetraToken.sol\":4872:4876  true */\n      0x01\n        /* \"contracts/MetraToken.sol\":4865:4876  return true */\n      swap1\n      pop\n        /* \"contracts/MetraToken.sol\":4754:4881  function mint(address account, uint256 amount) public onlyOwner returns(bool){... */\n      swap3\n      swap2\n      pop\n      pop\n      jump\t// out\n        /* \"contracts/MetraToken.sol\":2712:2816  function balanceOf(address account) external view returns (uint256) {... */\n    tag_60:\n        /* \"contracts/MetraToken.sol\":2771:2778  uint256 */\n      0x00\n        /* \"contracts/MetraToken.sol\":2793:2802  _balances */\n      0x08\n        /* \"contracts/MetraToken.sol\":2793:2811  _balances[account] */\n      0x00\n        /* \"contracts/MetraToken.sol\":2803:2810  account */\n      dup4\n        /* \"contracts/MetraToken.sol\":2793:2811  _balances[account] */\n      0xffffffffffffffffffffffffffffffffffffffff\n      and\n      0xffffffffffffffffffffffffffffffffffffffff\n      and\n      dup2\n      mstore\n      0x20\n      add\n      swap1\n      dup2\n      mstore\n      0x20\n      add\n      0x00\n      keccak256\n      sload\n        /* \"contracts/MetraToken.sol\":2786:2811  return _balances[account] */\n      swap1\n      pop\n        /* \"contracts/MetraToken.sol\":2712:2816  function balanceOf(address account) external view returns (uint256) {... */\n      swap2\n      swap1\n      pop\n      jump\t// out\n        /* \"contracts/Ownable.sol\":1461:1598  function renounceOwnership() public onlyOwner {... */\n    tag_63:\n        /* \"contracts/Ownable.sol\":783:793  msg.sender */\n      caller\n        /* \"contracts/Ownable.sol\":773:793  _owner == msg.sender */\n      0xffffffffffffffffffffffffffffffffffffffff\n      and\n        /* \"contracts/Ownable.sol\":773:779  _owner */\n      0x00\n      dup1\n      sload\n      swap1\n      0x0100\n      exp\n      swap1\n      div\n      0xffffffffffffffffffffffffffffffffffffffff\n      and\n        /* \"contracts/Ownable.sol\":773:793  _owner == msg.sender */\n      0xffffffffffffffffffffffffffffffffffffffff\n      and\n      eq\n        /* \"contracts/Ownable.sol\":765:840  require(_owner == msg.sender, \"Ownable: only owner can call this function\") */\n      tag_141\n      jumpi\n      mload(0x40)\n      0x08c379a000000000000000000000000000000000000000000000000000000000\n      dup2\n      mstore\n      0x04\n      add\n      tag_142\n      swap1\n      tag_135\n      jump\t// in\n    tag_142:\n      mload(0x40)\n      dup1\n      swap2\n      sub\n      swap1\n      revert\n    tag_141:\n        /* \"contracts/Ownable.sol\":1559:1560  0 */\n      0x00\n        /* \"contracts/Ownable.sol\":1522:1562  OwnershipTransferred(_owner, address(0)) */\n      0xffffffffffffffffffffffffffffffffffffffff\n      and\n        /* \"contracts/Ownable.sol\":1543:1549  _owner */\n      0x00\n      dup1\n      sload\n      swap1\n      0x0100\n      exp\n      swap1\n      div\n      0xffffffffffffffffffffffffffffffffffffffff\n      and\n        /* \"contracts/Ownable.sol\":1522:1562  OwnershipTransferred(_owner, address(0)) */\n      0xffffffffffffffffffffffffffffffffffffffff\n      and\n      0x8be0079c531659141344cd1fd0a4f28419497f9722a3daafe3b4186f6b6457e0\n      mload(0x40)\n      mload(0x40)\n      dup1\n      swap2\n      sub\n      swap1\n      log3\n        /* \"contracts/Ownable.sol\":1589:1590  0 */\n      0x00\n        /* \"contracts/Ownable.sol\":1572:1578  _owner */\n      dup1\n      0x00\n        /* \"contracts/Ownable.sol\":1572:1591  _owner = address(0) */\n      0x0100\n      exp\n      dup2\n      sload\n      dup2\n      0xffffffffffffffffffffffffffffffffffffffff\n      mul\n      not\n      and\n      swap1\n      dup4\n      0xffffffffffffffffffffffffffffffffffffffff\n      and\n      mul\n      or\n      swap1\n      sstore\n      pop\n        /* \"contracts/Ownable.sol\":1461:1598  function renounceOwnership() public onlyOwner {... */\n      jump\t// out\n        /* \"contracts/MetraToken.sol\":6152:6229  function getOwner() external view returns (address) {... */\n    tag_65:\n        /* \"contracts/MetraToken.sol\":6195:6202  address */\n      0x00\n        /* \"contracts/MetraToken.sol\":6217:6224  owner() */\n      tag_145\n        /* \"contracts/MetraToken.sol\":6217:6222  owner */\n      tag_69\n        /* \"contracts/MetraToken.sol\":6217:6224  owner() */\n      jump\t// in\n    tag_145:\n        /* \"contracts/MetraToken.sol\":6210:6224  return owner() */\n      swap1\n      pop\n        /* \"contracts/MetraToken.sol\":6152:6229  function getOwner() external view returns (address) {... */\n      swap1\n      jump\t// out\n        /* \"contracts/Ownable.sol\":1137:1214  function owner() public view returns(address) {... */\n    tag_69:\n        /* \"contracts/Ownable.sol\":1174:1181  address */\n      0x00\n        /* \"contracts/Ownable.sol\":1200:1206  _owner */\n      dup1\n      0x00\n      swap1\n      sload\n      swap1\n      0x0100\n      exp\n      swap1\n      div\n      0xffffffffffffffffffffffffffffffffffffffff\n      and\n        /* \"contracts/Ownable.sol\":1193:1206  return _owner */\n      swap1\n      pop\n        /* \"contracts/Ownable.sol\":1137:1214  function owner() public view returns(address) {... */\n      swap1\n      jump\t// out\n        /* \"contracts/MetraToken.sol\":2235:2315  function symbol() external view returns (string memory){... */\n    tag_72:\n        /* \"contracts/MetraToken.sol\":2276:2289  string memory */\n      0x60\n        /* \"contracts/MetraToken.sol\":2303:2310  _symbol */\n      0x06\n        /* \"contracts/MetraToken.sol\":2296:2310  return _symbol */\n      dup1\n      sload\n      tag_148\n      swap1\n      tag_109\n      jump\t// in\n    tag_148:\n      dup1\n      0x1f\n      add\n      0x20\n      dup1\n      swap2\n      div\n      mul\n      0x20\n      add\n      mload(0x40)\n      swap1\n      dup2\n      add\n      0x40\n      mstore\n      dup1\n      swap3\n      swap2\n      swap1\n      dup2\n      dup2\n      mstore\n      0x20\n      add\n      dup3\n      dup1\n      sload\n      tag_149\n      swap1\n      tag_109\n      jump\t// in\n    tag_149:\n      dup1\n      iszero\n      tag_150\n      jumpi\n      dup1\n      0x1f\n      lt\n      tag_151\n      jumpi\n      0x0100\n      dup1\n      dup4\n      sload\n      div\n      mul\n      dup4\n      mstore\n      swap2\n      0x20\n      add\n      swap2\n      jump(tag_150)\n    tag_151:\n      dup3\n      add\n      swap2\n      swap1\n      0x00\n      mstore\n      keccak256(0x00, 0x20)\n      swap1\n    tag_152:\n      dup2\n      sload\n      dup2\n      mstore\n      swap1\n      0x01\n      add\n      swap1\n      0x20\n      add\n      dup1\n      dup4\n      gt\n      tag_152\n      jumpi\n      dup3\n      swap1\n      sub\n      0x1f\n      and\n      dup3\n      add\n      swap2\n    tag_150:\n      pop\n      pop\n      pop\n      pop\n      pop\n      swap1\n      pop\n        /* \"contracts/MetraToken.sol\":2235:2315  function symbol() external view returns (string memory){... */\n      swap1\n      jump\t// out\n        /* \"contracts/MetraToken.sol\":4455:4583  function burn(address account, uint256 amount) public onlyOwner returns(bool) {... */\n    tag_76:\n        /* \"contracts/MetraToken.sol\":4527:4531  bool */\n      0x00\n        /* \"contracts/Ownable.sol\":783:793  msg.sender */\n      caller\n        /* \"contracts/Ownable.sol\":773:793  _owner == msg.sender */\n      0xffffffffffffffffffffffffffffffffffffffff\n      and\n        /* \"contracts/Ownable.sol\":773:779  _owner */\n      0x00\n      dup1\n      sload\n      swap1\n      0x0100\n      exp\n      swap1\n      div\n      0xffffffffffffffffffffffffffffffffffffffff\n      and\n        /* \"contracts/Ownable.sol\":773:793  _owner == msg.sender */\n      0xffffffffffffffffffffffffffffffffffffffff\n      and\n      eq\n        /* \"contracts/Ownable.sol\":765:840  require(_owner == msg.sender, \"Ownable: only owner can call this function\") */\n      tag_154\n      jumpi\n      mload(0x40)\n      0x08c379a000000000000000000000000000000000000000000000000000000000\n      dup2\n      mstore\n      0x04\n      add\n      tag_155\n      swap1\n      tag_135\n      jump\t// in\n    tag_155:\n      mload(0x40)\n      dup1\n      swap2\n      sub\n      swap1\n      revert\n    tag_154:\n        /* \"contracts/MetraToken.sol\":4539:4561  _burn(account, amount) */\n      tag_157\n        /* \"contracts/MetraToken.sol\":4545:4552  account */\n      dup4\n        /* \"contracts/MetraToken.sol\":4554:4560  amount */\n      dup4\n        /* \"contracts/MetraToken.sol\":4539:4544  _burn */\n      tag_158\n        /* \"contracts/MetraToken.sol\":4539:4561  _burn(account, amount) */\n      jump\t// in\n    tag_157:\n        /* \"contracts/MetraToken.sol\":4574:4578  true */\n      0x01\n        /* \"contracts/MetraToken.sol\":4567:4578  return true */\n      swap1\n      pop\n        /* \"contracts/MetraToken.sol\":4455:4583  function burn(address account, uint256 amount) public onlyOwner returns(bool) {... */\n      swap3\n      swap2\n      pop\n      pop\n      jump\t// out\n        /* \"contracts/MetraToken.sol\":8517:8703  function decreaseAllowance(address spender, uint256 amount) public returns (bool) {... */\n    tag_80:\n        /* \"contracts/MetraToken.sol\":8593:8597  bool */\n      0x00\n        /* \"contracts/MetraToken.sol\":8607:8677  _approve(msg.sender, spender, _allowances[msg.sender][spender]-amount) */\n      tag_160\n        /* \"contracts/MetraToken.sol\":8616:8626  msg.sender */\n      caller\n        /* \"contracts/MetraToken.sol\":8628:8635  spender */\n      dup5\n        /* \"contracts/MetraToken.sol\":8670:8676  amount */\n      dup5\n        /* \"contracts/MetraToken.sol\":8637:8648  _allowances */\n      0x09\n        /* \"contracts/MetraToken.sol\":8637:8660  _allowances[msg.sender] */\n      0x00\n        /* \"contracts/MetraToken.sol\":8649:8659  msg.sender */\n      caller\n        /* \"contracts/MetraToken.sol\":8637:8660  _allowances[msg.sender] */\n      0xffffffffffffffffffffffffffffffffffffffff\n      and\n      0xffffffffffffffffffffffffffffffffffffffff\n      and\n      dup2\n      mstore\n      0x20\n      add\n      swap1\n      dup2\n      mstore\n      0x20\n      add\n      0x00\n      keccak256\n        /* \"contracts/MetraToken.sol\":8637:8669  _allowances[msg.sender][spender] */\n      0x00\n        /* \"contracts/MetraToken.sol\":8661:8668  spender */\n      dup9\n        /* \"contracts/MetraToken.sol\":8637:8669  _allowances[msg.sender][spender] */\n      0xffffffffffffffffffffffffffffffffffffffff\n      and\n      0xffffffffffffffffffffffffffffffffffffffff\n      and\n      dup2\n      mstore\n      0x20\n      add\n      swap1\n      dup2\n      mstore\n      0x20\n      add\n      0x00\n      keccak256\n      sload\n        /* \"contracts/MetraToken.sol\":8637:8676  _allowances[msg.sender][spender]-amount */\n      tag_161\n      swap2\n      swap1\n      tag_126\n      jump\t// in\n    tag_161:\n        /* \"contracts/MetraToken.sol\":8607:8615  _approve */\n      tag_116\n        /* \"contracts/MetraToken.sol\":8607:8677  _approve(msg.sender, spender, _allowances[msg.sender][spender]-amount) */\n      jump\t// in\n    tag_160:\n        /* \"contracts/MetraToken.sol\":8692:8696  true */\n      0x01\n        /* \"contracts/MetraToken.sol\":8685:8696  return true */\n      swap1\n      pop\n        /* \"contracts/MetraToken.sol\":8517:8703  function decreaseAllowance(address spender, uint256 amount) public returns (bool) {... */\n      swap3\n      swap2\n      pop\n      pop\n      jump\t// out\n        /* \"contracts/MetraToken.sol\":8790:9096  function stake(uint256 _amount) public {... */\n    tag_85:\n        /* \"contracts/MetraToken.sol\":8905:8914  _balances */\n      0x08\n        /* \"contracts/MetraToken.sol\":8905:8926  _balances[msg.sender] */\n      0x00\n        /* \"contracts/MetraToken.sol\":8915:8925  msg.sender */\n      caller\n        /* \"contracts/MetraToken.sol\":8905:8926  _balances[msg.sender] */\n      0xffffffffffffffffffffffffffffffffffffffff\n      and\n      0xffffffffffffffffffffffffffffffffffffffff\n      and\n      dup2\n      mstore\n      0x20\n      add\n      swap1\n      dup2\n      mstore\n      0x20\n      add\n      0x00\n      keccak256\n      sload\n        /* \"contracts/MetraToken.sol\":8895:8902  _amount */\n      dup2\n        /* \"contracts/MetraToken.sol\":8895:8926  _amount < _balances[msg.sender] */\n      lt\n        /* \"contracts/MetraToken.sol\":8887:8968  require(_amount < _balances[msg.sender], \"Metra: Cannot stake more than you own\") */\n      tag_163\n      jumpi\n      mload(0x40)\n      0x08c379a000000000000000000000000000000000000000000000000000000000\n      dup2\n      mstore\n      0x04\n      add\n      tag_164\n      swap1\n      tag_165\n      jump\t// in\n    tag_164:\n      mload(0x40)\n      dup1\n      swap2\n      sub\n      swap1\n      revert\n    tag_163:\n        /* \"contracts/MetraToken.sol\":8979:8994  _stake(_amount) */\n      tag_166\n        /* \"contracts/MetraToken.sol\":8986:8993  _amount */\n      dup2\n        /* \"contracts/MetraToken.sol\":8979:8985  _stake */\n      tag_167\n        /* \"contracts/MetraToken.sol\":8979:8994  _stake(_amount) */\n      jump\t// in\n    tag_166:\n        /* \"contracts/MetraToken.sol\":9063:9089  _burn(msg.sender, _amount) */\n      tag_168\n        /* \"contracts/MetraToken.sol\":9069:9079  msg.sender */\n      caller\n        /* \"contracts/MetraToken.sol\":9081:9088  _amount */\n      dup3\n        /* \"contracts/MetraToken.sol\":9063:9068  _burn */\n      tag_158\n        /* \"contracts/MetraToken.sol\":9063:9089  _burn(msg.sender, _amount) */\n      jump\t// in\n    tag_168:\n        /* \"contracts/MetraToken.sol\":8790:9096  function stake(uint256 _amount) public {... */\n      pop\n      jump\t// out\n        /* \"contracts/MetraToken.sol\":5183:5328  function transfer(address recipient, uint256 amount) external returns (bool) {... */\n    tag_88:\n        /* \"contracts/MetraToken.sol\":5254:5258  bool */\n      0x00\n        /* \"contracts/MetraToken.sol\":5266:5306  _transfer(msg.sender, recipient, amount) */\n      tag_170\n        /* \"contracts/MetraToken.sol\":5276:5286  msg.sender */\n      caller\n        /* \"contracts/MetraToken.sol\":5288:5297  recipient */\n      dup5\n        /* \"contracts/MetraToken.sol\":5299:5305  amount */\n      dup5\n        /* \"contracts/MetraToken.sol\":5266:5275  _transfer */\n      tag_123\n        /* \"contracts/MetraToken.sol\":5266:5306  _transfer(msg.sender, recipient, amount) */\n      jump\t// in\n    tag_170:\n        /* \"contracts/MetraToken.sol\":5319:5323  true */\n      0x01\n        /* \"contracts/MetraToken.sol\":5312:5323  return true */\n      swap1\n      pop\n        /* \"contracts/MetraToken.sol\":5183:5328  function transfer(address recipient, uint256 amount) external returns (bool) {... */\n      swap3\n      swap2\n      pop\n      pop\n      jump\t// out\n        /* \"contracts/MetraToken.sol\":6314:6442  function allowance(address owner, address spender) external view returns(uint256){... */\n    tag_93:\n        /* \"contracts/MetraToken.sol\":6387:6394  uint256 */\n      0x00\n        /* \"contracts/MetraToken.sol\":6409:6420  _allowances */\n      0x09\n        /* \"contracts/MetraToken.sol\":6409:6427  _allowances[owner] */\n      0x00\n        /* \"contracts/MetraToken.sol\":6421:6426  owner */\n      dup5\n        /* \"contracts/MetraToken.sol\":6409:6427  _allowances[owner] */\n      0xffffffffffffffffffffffffffffffffffffffff\n      and\n      0xffffffffffffffffffffffffffffffffffffffff\n      and\n      dup2\n      mstore\n      0x20\n      add\n      swap1\n      dup2\n      mstore\n      0x20\n      add\n      0x00\n      keccak256\n        /* \"contracts/MetraToken.sol\":6409:6436  _allowances[owner][spender] */\n      0x00\n        /* \"contracts/MetraToken.sol\":6428:6435  spender */\n      dup4\n        /* \"contracts/MetraToken.sol\":6409:6436  _allowances[owner][spender] */\n      0xffffffffffffffffffffffffffffffffffffffff\n      and\n      0xffffffffffffffffffffffffffffffffffffffff\n      and\n      dup2\n      mstore\n      0x20\n      add\n      swap1\n      dup2\n      mstore\n      0x20\n      add\n      0x00\n      keccak256\n      sload\n        /* \"contracts/MetraToken.sol\":6402:6436  return _allowances[owner][spender] */\n      swap1\n      pop\n        /* \"contracts/MetraToken.sol\":6314:6442  function allowance(address owner, address spender) external view returns(uint256){... */\n      swap3\n      swap2\n      pop\n      pop\n      jump\t// out\n        /* \"contracts/Stakeable.sol\":6899:7727  function hasStake(address _staker) public view returns(StakingSummary memory){... */\n    tag_97:\n        /* \"contracts/Stakeable.sol\":6954:6975  StakingSummary memory */\n      tag_172\n      tag_173\n      jump\t// in\n    tag_172:\n        /* \"contracts/Stakeable.sol\":7066:7090  uint256 totalStakeAmount */\n      0x00\n        /* \"contracts/Stakeable.sol\":7169:7198  StakingSummary memory summary */\n      dup1\n        /* \"contracts/Stakeable.sol\":7201:7264  StakingSummary(0, stakeholders[stakes[_staker]].address_stakes) */\n      mload(0x40)\n      dup1\n      0x40\n      add\n      0x40\n      mstore\n      dup1\n        /* \"contracts/Stakeable.sol\":7216:7217  0 */\n      0x00\n        /* \"contracts/Stakeable.sol\":7201:7264  StakingSummary(0, stakeholders[stakes[_staker]].address_stakes) */\n      dup2\n      mstore\n      0x20\n      add\n        /* \"contracts/Stakeable.sol\":7219:7231  stakeholders */\n      0x01\n        /* \"contracts/Stakeable.sol\":7232:7238  stakes */\n      0x02\n        /* \"contracts/Stakeable.sol\":7232:7247  stakes[_staker] */\n      0x00\n        /* \"contracts/Stakeable.sol\":7239:7246  _staker */\n      dup9\n        /* \"contracts/Stakeable.sol\":7232:7247  stakes[_staker] */\n      0xffffffffffffffffffffffffffffffffffffffff\n      and\n      0xffffffffffffffffffffffffffffffffffffffff\n      and\n      dup2\n      mstore\n      0x20\n      add\n      swap1\n      dup2\n      mstore\n      0x20\n      add\n      0x00\n      keccak256\n      sload\n        /* \"contracts/Stakeable.sol\":7219:7248  stakeholders[stakes[_staker]] */\n      dup2\n      sload\n      dup2\n      lt\n      tag_175\n      jumpi\n      tag_176\n      tag_177\n      jump\t// in\n    tag_176:\n    tag_175:\n      swap1\n      0x00\n      mstore\n      keccak256(0x00, 0x20)\n      swap1\n      0x02\n      mul\n      add\n        /* \"contracts/Stakeable.sol\":7219:7263  stakeholders[stakes[_staker]].address_stakes */\n      0x01\n      add\n        /* \"contracts/Stakeable.sol\":7201:7264  StakingSummary(0, stakeholders[stakes[_staker]].address_stakes) */\n      dup1\n      sload\n      dup1\n      0x20\n      mul\n      0x20\n      add\n      mload(0x40)\n      swap1\n      dup2\n      add\n      0x40\n      mstore\n      dup1\n      swap3\n      swap2\n      swap1\n      dup2\n      dup2\n      mstore\n      0x20\n      add\n      0x00\n      swap1\n    tag_179:\n      dup3\n      dup3\n      lt\n      iszero\n      tag_180\n      jumpi\n      dup4\n      dup3\n      swap1\n      0x00\n      mstore\n      keccak256(0x00, 0x20)\n      swap1\n      0x04\n      mul\n      add\n      mload(0x40)\n      dup1\n      0x80\n      add\n      0x40\n      mstore\n      swap1\n      dup2\n      0x00\n      dup3\n      add\n      0x00\n      swap1\n      sload\n      swap1\n      0x0100\n      exp\n      swap1\n      div\n      0xffffffffffffffffffffffffffffffffffffffff\n      and\n      0xffffffffffffffffffffffffffffffffffffffff\n      and\n      0xffffffffffffffffffffffffffffffffffffffff\n      and\n      dup2\n      mstore\n      0x20\n      add\n      0x01\n      dup3\n      add\n      sload\n      dup2\n      mstore\n      0x20\n      add\n      0x02\n      dup3\n      add\n      sload\n      dup2\n      mstore\n      0x20\n      add\n      0x03\n      dup3\n      add\n      sload\n      dup2\n      mstore\n      pop\n      pop\n      dup2\n      mstore\n      0x20\n      add\n      swap1\n      0x01\n      add\n      swap1\n      jump(tag_179)\n    tag_180:\n      pop\n      pop\n      pop\n      pop\n      dup2\n      mstore\n      pop\n        /* \"contracts/Stakeable.sol\":7169:7264  StakingSummary memory summary = StakingSummary(0, stakeholders[stakes[_staker]].address_stakes) */\n      swap1\n      pop\n        /* \"contracts/Stakeable.sol\":7336:7345  uint256 s */\n      0x00\n        /* \"contracts/Stakeable.sol\":7331:7604  for (uint256 s = 0; s < summary.stakes.length; s += 1){... */\n    tag_182:\n        /* \"contracts/Stakeable.sol\":7355:7362  summary */\n      dup2\n        /* \"contracts/Stakeable.sol\":7355:7369  summary.stakes */\n      0x20\n      add\n      mload\n        /* \"contracts/Stakeable.sol\":7355:7376  summary.stakes.length */\n      mload\n        /* \"contracts/Stakeable.sol\":7351:7352  s */\n      dup2\n        /* \"contracts/Stakeable.sol\":7351:7376  s < summary.stakes.length */\n      lt\n        /* \"contracts/Stakeable.sol\":7331:7604  for (uint256 s = 0; s < summary.stakes.length; s += 1){... */\n      iszero\n      tag_183\n      jumpi\n        /* \"contracts/Stakeable.sol\":7398:7421  uint256 availableReward */\n      0x00\n        /* \"contracts/Stakeable.sol\":7424:7463  calculateStakeReward(summary.stakes[s]) */\n      tag_185\n        /* \"contracts/Stakeable.sol\":7445:7452  summary */\n      dup4\n        /* \"contracts/Stakeable.sol\":7445:7459  summary.stakes */\n      0x20\n      add\n      mload\n        /* \"contracts/Stakeable.sol\":7460:7461  s */\n      dup4\n        /* \"contracts/Stakeable.sol\":7445:7462  summary.stakes[s] */\n      dup2\n      mload\n      dup2\n      lt\n      tag_186\n      jumpi\n      tag_187\n      tag_177\n      jump\t// in\n    tag_187:\n    tag_186:\n      0x20\n      mul\n      0x20\n      add\n      add\n      mload\n        /* \"contracts/Stakeable.sol\":7424:7444  calculateStakeReward */\n      tag_188\n        /* \"contracts/Stakeable.sol\":7424:7463  calculateStakeReward(summary.stakes[s]) */\n      jump\t// in\n    tag_185:\n        /* \"contracts/Stakeable.sol\":7398:7463  uint256 availableReward = calculateStakeReward(summary.stakes[s]) */\n      swap1\n      pop\n        /* \"contracts/Stakeable.sol\":7506:7521  availableReward */\n      dup1\n        /* \"contracts/Stakeable.sol\":7476:7483  summary */\n      dup4\n        /* \"contracts/Stakeable.sol\":7476:7490  summary.stakes */\n      0x20\n      add\n      mload\n        /* \"contracts/Stakeable.sol\":7491:7492  s */\n      dup4\n        /* \"contracts/Stakeable.sol\":7476:7493  summary.stakes[s] */\n      dup2\n      mload\n      dup2\n      lt\n      tag_189\n      jumpi\n      tag_190\n      tag_177\n      jump\t// in\n    tag_190:\n    tag_189:\n      0x20\n      mul\n      0x20\n      add\n      add\n      mload\n        /* \"contracts/Stakeable.sol\":7476:7503  summary.stakes[s].claimable */\n      0x60\n      add\n        /* \"contracts/Stakeable.sol\":7476:7521  summary.stakes[s].claimable = availableReward */\n      dup2\n      dup2\n      mstore\n      pop\n      pop\n        /* \"contracts/Stakeable.sol\":7570:7577  summary */\n      dup3\n        /* \"contracts/Stakeable.sol\":7570:7584  summary.stakes */\n      0x20\n      add\n      mload\n        /* \"contracts/Stakeable.sol\":7585:7586  s */\n      dup3\n        /* \"contracts/Stakeable.sol\":7570:7587  summary.stakes[s] */\n      dup2\n      mload\n      dup2\n      lt\n      tag_191\n      jumpi\n      tag_192\n      tag_177\n      jump\t// in\n    tag_192:\n    tag_191:\n      0x20\n      mul\n      0x20\n      add\n      add\n      mload\n        /* \"contracts/Stakeable.sol\":7570:7594  summary.stakes[s].amount */\n      0x20\n      add\n      mload\n        /* \"contracts/Stakeable.sol\":7553:7569  totalStakeAmount */\n      dup5\n        /* \"contracts/Stakeable.sol\":7553:7594  totalStakeAmount+summary.stakes[s].amount */\n      tag_193\n      swap2\n      swap1\n      tag_131\n      jump\t// in\n    tag_193:\n        /* \"contracts/Stakeable.sol\":7534:7594  totalStakeAmount = totalStakeAmount+summary.stakes[s].amount */\n      swap4\n      pop\n        /* \"contracts/Stakeable.sol\":7385:7604  {... */\n      pop\n        /* \"contracts/Stakeable.sol\":7383:7384  1 */\n      0x01\n        /* \"contracts/Stakeable.sol\":7378:7384  s += 1 */\n      dup2\n      tag_194\n      swap2\n      swap1\n      tag_131\n      jump\t// in\n    tag_194:\n      swap1\n      pop\n        /* \"contracts/Stakeable.sol\":7331:7604  for (uint256 s = 0; s < summary.stakes.length; s += 1){... */\n      jump(tag_182)\n    tag_183:\n      pop\n        /* \"contracts/Stakeable.sol\":7680:7696  totalStakeAmount */\n      dup2\n        /* \"contracts/Stakeable.sol\":7657:7664  summary */\n      dup2\n        /* \"contracts/Stakeable.sol\":7657:7677  summary.total_amount */\n      0x00\n      add\n        /* \"contracts/Stakeable.sol\":7657:7696  summary.total_amount = totalStakeAmount */\n      dup2\n      dup2\n      mstore\n      pop\n      pop\n        /* \"contracts/Stakeable.sol\":7713:7720  summary */\n      dup1\n        /* \"contracts/Stakeable.sol\":7706:7720  return summary */\n      swap3\n      pop\n      pop\n      pop\n        /* \"contracts/Stakeable.sol\":6899:7727  function hasStake(address _staker) public view returns(StakingSummary memory){... */\n      swap2\n      swap1\n      pop\n      jump\t// out\n        /* \"contracts/MetraToken.sol\":9197:9420  function withdrawStake(uint256 amount, uint256 stake_index)  public {... */\n    tag_103:\n        /* \"contracts/MetraToken.sol\":9274:9296  uint256 amount_to_mint */\n      0x00\n        /* \"contracts/MetraToken.sol\":9299:9334  _withdrawStake(amount, stake_index) */\n      tag_196\n        /* \"contracts/MetraToken.sol\":9314:9320  amount */\n      dup4\n        /* \"contracts/MetraToken.sol\":9322:9333  stake_index */\n      dup4\n        /* \"contracts/MetraToken.sol\":9299:9313  _withdrawStake */\n      tag_197\n        /* \"contracts/MetraToken.sol\":9299:9334  _withdrawStake(amount, stake_index) */\n      jump\t// in\n    tag_196:\n        /* \"contracts/MetraToken.sol\":9274:9334  uint256 amount_to_mint = _withdrawStake(amount, stake_index) */\n      swap1\n      pop\n        /* \"contracts/MetraToken.sol\":9380:9413  _mint(msg.sender, amount_to_mint) */\n      tag_198\n        /* \"contracts/MetraToken.sol\":9386:9396  msg.sender */\n      caller\n        /* \"contracts/MetraToken.sol\":9398:9412  amount_to_mint */\n      dup3\n        /* \"contracts/MetraToken.sol\":9380:9385  _mint */\n      tag_138\n        /* \"contracts/MetraToken.sol\":9380:9413  _mint(msg.sender, amount_to_mint) */\n      jump\t// in\n    tag_198:\n        /* \"contracts/MetraToken.sol\":9265:9420  {... */\n      pop\n        /* \"contracts/MetraToken.sol\":9197:9420  function withdrawStake(uint256 amount, uint256 stake_index)  public {... */\n      pop\n      pop\n      jump\t// out\n        /* \"contracts/Ownable.sol\":1694:1801  function transferOwnership(address newOwner) public onlyOwner {... */\n    tag_106:\n        /* \"contracts/Ownable.sol\":783:793  msg.sender */\n      caller\n        /* \"contracts/Ownable.sol\":773:793  _owner == msg.sender */\n      0xffffffffffffffffffffffffffffffffffffffff\n      and\n        /* \"contracts/Ownable.sol\":773:779  _owner */\n      0x00\n      dup1\n      sload\n      swap1\n      0x0100\n      exp\n      swap1\n      div\n      0xffffffffffffffffffffffffffffffffffffffff\n      and\n        /* \"contracts/Ownable.sol\":773:793  _owner == msg.sender */\n      0xffffffffffffffffffffffffffffffffffffffff\n      and\n      eq\n        /* \"contracts/Ownable.sol\":765:840  require(_owner == msg.sender, \"Ownable: only owner can call this function\") */\n      tag_200\n      jumpi\n      mload(0x40)\n      0x08c379a000000000000000000000000000000000000000000000000000000000\n      dup2\n      mstore\n      0x04\n      add\n      tag_201\n      swap1\n      tag_135\n      jump\t// in\n    tag_201:\n      mload(0x40)\n      dup1\n      swap2\n      sub\n      swap1\n      revert\n    tag_200:\n        /* \"contracts/Ownable.sol\":1766:1794  _transferOwnership(newOwner) */\n      tag_203\n        /* \"contracts/Ownable.sol\":1785:1793  newOwner */\n      dup2\n        /* \"contracts/Ownable.sol\":1766:1784  _transferOwnership */\n      tag_204\n        /* \"contracts/Ownable.sol\":1766:1794  _transferOwnership(newOwner) */\n      jump\t// in\n    tag_203:\n        /* \"contracts/Ownable.sol\":1694:1801  function transferOwnership(address newOwner) public onlyOwner {... */\n      pop\n      jump\t// out\n        /* \"contracts/MetraToken.sol\":6909:7347  function _approve(address owner, address spender, uint256 amount) internal {... */\n    tag_116:\n        /* \"contracts/MetraToken.sol\":7017:7018  0 */\n      0x00\n        /* \"contracts/MetraToken.sol\":7000:7019  owner != address(0) */\n      0xffffffffffffffffffffffffffffffffffffffff\n      and\n        /* \"contracts/MetraToken.sol\":7000:7005  owner */\n      dup4\n        /* \"contracts/MetraToken.sol\":7000:7019  owner != address(0) */\n      0xffffffffffffffffffffffffffffffffffffffff\n      and\n      sub\n        /* \"contracts/MetraToken.sol\":6992:7071  require(owner != address(0), \"Metra: approve cannot be done from zero address\") */\n      tag_206\n      jumpi\n      mload(0x40)\n      0x08c379a000000000000000000000000000000000000000000000000000000000\n      dup2\n      mstore\n      0x04\n      add\n      tag_207\n      swap1\n      tag_208\n      jump\t// in\n    tag_207:\n      mload(0x40)\n      dup1\n      swap2\n      sub\n      swap1\n      revert\n    tag_206:\n        /* \"contracts/MetraToken.sol\":7106:7107  0 */\n      0x00\n        /* \"contracts/MetraToken.sol\":7087:7108  spender != address(0) */\n      0xffffffffffffffffffffffffffffffffffffffff\n      and\n        /* \"contracts/MetraToken.sol\":7087:7094  spender */\n      dup3\n        /* \"contracts/MetraToken.sol\":7087:7108  spender != address(0) */\n      0xffffffffffffffffffffffffffffffffffffffff\n      and\n      sub\n        /* \"contracts/MetraToken.sol\":7079:7153  require(spender != address(0), \"Metra: approve cannot be to zero address\") */\n      tag_209\n      jumpi\n      mload(0x40)\n      0x08c379a000000000000000000000000000000000000000000000000000000000\n      dup2\n      mstore\n      0x04\n      add\n      tag_210\n      swap1\n      tag_211\n      jump\t// in\n    tag_210:\n      mload(0x40)\n      dup1\n      swap2\n      sub\n      swap1\n      revert\n    tag_209:\n        /* \"contracts/MetraToken.sol\":7290:7296  amount */\n      dup1\n        /* \"contracts/MetraToken.sol\":7260:7271  _allowances */\n      0x09\n        /* \"contracts/MetraToken.sol\":7260:7278  _allowances[owner] */\n      0x00\n        /* \"contracts/MetraToken.sol\":7272:7277  owner */\n      dup6\n        /* \"contracts/MetraToken.sol\":7260:7278  _allowances[owner] */\n      0xffffffffffffffffffffffffffffffffffffffff\n      and\n      0xffffffffffffffffffffffffffffffffffffffff\n      and\n      dup2\n      mstore\n      0x20\n      add\n      swap1\n      dup2\n      mstore\n      0x20\n      add\n      0x00\n      keccak256\n        /* \"contracts/MetraToken.sol\":7260:7287  _allowances[owner][spender] */\n      0x00\n        /* \"contracts/MetraToken.sol\":7279:7286  spender */\n      dup5\n        /* \"contracts/MetraToken.sol\":7260:7287  _allowances[owner][spender] */\n      0xffffffffffffffffffffffffffffffffffffffff\n      and\n      0xffffffffffffffffffffffffffffffffffffffff\n      and\n      dup2\n      mstore\n      0x20\n      add\n      swap1\n      dup2\n      mstore\n      0x20\n      add\n      0x00\n      keccak256\n        /* \"contracts/MetraToken.sol\":7260:7296  _allowances[owner][spender] = amount */\n      dup2\n      swap1\n      sstore\n      pop\n        /* \"contracts/MetraToken.sol\":7325:7332  spender */\n      dup2\n        /* \"contracts/MetraToken.sol\":7310:7340  Approval(owner,spender,amount) */\n      0xffffffffffffffffffffffffffffffffffffffff\n      and\n        /* \"contracts/MetraToken.sol\":7319:7324  owner */\n      dup4\n        /* \"contracts/MetraToken.sol\":7310:7340  Approval(owner,spender,amount) */\n      0xffffffffffffffffffffffffffffffffffffffff\n      and\n      0x8c5be1e5ebec7d5bd14f71427d1e84f3dd0314c0f7b2291e5b200ac8c7c3b925\n        /* \"contracts/MetraToken.sol\":7333:7339  amount */\n      dup4\n        /* \"contracts/MetraToken.sol\":7310:7340  Approval(owner,spender,amount) */\n      mload(0x40)\n      tag_212\n      swap2\n      swap1\n      tag_39\n      jump\t// in\n    tag_212:\n      mload(0x40)\n      dup1\n      swap2\n      sub\n      swap1\n      log3\n        /* \"contracts/MetraToken.sol\":6909:7347  function _approve(address owner, address spender, uint256 amount) internal {... */\n      pop\n      pop\n      pop\n      jump\t// out\n        /* \"contracts/MetraToken.sol\":5561:6043  function _transfer(address sender, address recipient, uint256 amount) internal {... */\n    tag_123:\n        /* \"contracts/MetraToken.sol\":5672:5673  0 */\n      0x00\n        /* \"contracts/MetraToken.sol\":5654:5674  sender != address(0) */\n      0xffffffffffffffffffffffffffffffffffffffff\n      and\n        /* \"contracts/MetraToken.sol\":5654:5660  sender */\n      dup4\n        /* \"contracts/MetraToken.sol\":5654:5674  sender != address(0) */\n      0xffffffffffffffffffffffffffffffffffffffff\n      and\n      sub\n        /* \"contracts/MetraToken.sol\":5646:5712  require(sender != address(0), \"Metra: transfer from zero address\") */\n      tag_214\n      jumpi\n      mload(0x40)\n      0x08c379a000000000000000000000000000000000000000000000000000000000\n      dup2\n      mstore\n      0x04\n      add\n      tag_215\n      swap1\n      tag_216\n      jump\t// in\n    tag_215:\n      mload(0x40)\n      dup1\n      swap2\n      sub\n      swap1\n      revert\n    tag_214:\n        /* \"contracts/MetraToken.sol\":5747:5748  0 */\n      0x00\n        /* \"contracts/MetraToken.sol\":5726:5749  recipient != address(0) */\n      0xffffffffffffffffffffffffffffffffffffffff\n      and\n        /* \"contracts/MetraToken.sol\":5726:5735  recipient */\n      dup3\n        /* \"contracts/MetraToken.sol\":5726:5749  recipient != address(0) */\n      0xffffffffffffffffffffffffffffffffffffffff\n      and\n      sub\n        /* \"contracts/MetraToken.sol\":5718:5785  require(recipient != address(0), \"Metra: transfer to zero address\") */\n      tag_217\n      jumpi\n      mload(0x40)\n      0x08c379a000000000000000000000000000000000000000000000000000000000\n      dup2\n      mstore\n      0x04\n      add\n      tag_218\n      swap1\n      tag_219\n      jump\t// in\n    tag_218:\n      mload(0x40)\n      dup1\n      swap2\n      sub\n      swap1\n      revert\n    tag_217:\n        /* \"contracts/MetraToken.sol\":5820:5826  amount */\n      dup1\n        /* \"contracts/MetraToken.sol\":5799:5808  _balances */\n      0x08\n        /* \"contracts/MetraToken.sol\":5799:5816  _balances[sender] */\n      0x00\n        /* \"contracts/MetraToken.sol\":5809:5815  sender */\n      dup6\n        /* \"contracts/MetraToken.sol\":5799:5816  _balances[sender] */\n      0xffffffffffffffffffffffffffffffffffffffff\n      and\n      0xffffffffffffffffffffffffffffffffffffffff\n      and\n      dup2\n      mstore\n      0x20\n      add\n      swap1\n      dup2\n      mstore\n      0x20\n      add\n      0x00\n      keccak256\n      sload\n        /* \"contracts/MetraToken.sol\":5799:5826  _balances[sender] >= amount */\n      lt\n      iszero\n        /* \"contracts/MetraToken.sol\":5791:5880  require(_balances[sender] >= amount, \"Metra: cant transfer more than your account holds\") */\n      tag_220\n      jumpi\n      mload(0x40)\n      0x08c379a000000000000000000000000000000000000000000000000000000000\n      dup2\n      mstore\n      0x04\n      add\n      tag_221\n      swap1\n      tag_222\n      jump\t// in\n    tag_221:\n      mload(0x40)\n      dup1\n      swap2\n      sub\n      swap1\n      revert\n    tag_220:\n        /* \"contracts/MetraToken.sol\":5927:5933  amount */\n      dup1\n        /* \"contracts/MetraToken.sol\":5907:5916  _balances */\n      0x08\n        /* \"contracts/MetraToken.sol\":5907:5924  _balances[sender] */\n      0x00\n        /* \"contracts/MetraToken.sol\":5917:5923  sender */\n      dup6\n        /* \"contracts/MetraToken.sol\":5907:5924  _balances[sender] */\n      0xffffffffffffffffffffffffffffffffffffffff\n      and\n      0xffffffffffffffffffffffffffffffffffffffff\n      and\n      dup2\n      mstore\n      0x20\n      add\n      swap1\n      dup2\n      mstore\n      0x20\n      add\n      0x00\n      keccak256\n      sload\n        /* \"contracts/MetraToken.sol\":5907:5933  _balances[sender] - amount */\n      tag_223\n      swap2\n      swap1\n      tag_126\n      jump\t// in\n    tag_223:\n        /* \"contracts/MetraToken.sol\":5887:5896  _balances */\n      0x08\n        /* \"contracts/MetraToken.sol\":5887:5904  _balances[sender] */\n      0x00\n        /* \"contracts/MetraToken.sol\":5897:5903  sender */\n      dup6\n        /* \"contracts/MetraToken.sol\":5887:5904  _balances[sender] */\n      0xffffffffffffffffffffffffffffffffffffffff\n      and\n      0xffffffffffffffffffffffffffffffffffffffff\n      and\n      dup2\n      mstore\n      0x20\n      add\n      swap1\n      dup2\n      mstore\n      0x20\n      add\n      0x00\n      keccak256\n        /* \"contracts/MetraToken.sol\":5887:5933  _balances[sender] = _balances[sender] - amount */\n      dup2\n      swap1\n      sstore\n      pop\n        /* \"contracts/MetraToken.sol\":5985:5991  amount */\n      dup1\n        /* \"contracts/MetraToken.sol\":5962:5971  _balances */\n      0x08\n        /* \"contracts/MetraToken.sol\":5962:5982  _balances[recipient] */\n      0x00\n        /* \"contracts/MetraToken.sol\":5972:5981  recipient */\n      dup5\n        /* \"contracts/MetraToken.sol\":5962:5982  _balances[recipient] */\n      0xffffffffffffffffffffffffffffffffffffffff\n      and\n      0xffffffffffffffffffffffffffffffffffffffff\n      and\n      dup2\n      mstore\n      0x20\n      add\n      swap1\n      dup2\n      mstore\n      0x20\n      add\n      0x00\n      keccak256\n      sload\n        /* \"contracts/MetraToken.sol\":5962:5991  _balances[recipient] + amount */\n      tag_224\n      swap2\n      swap1\n      tag_131\n      jump\t// in\n    tag_224:\n        /* \"contracts/MetraToken.sol\":5939:5948  _balances */\n      0x08\n        /* \"contracts/MetraToken.sol\":5939:5959  _balances[recipient] */\n      0x00\n        /* \"contracts/MetraToken.sol\":5949:5958  recipient */\n      dup5\n        /* \"contracts/MetraToken.sol\":5939:5959  _balances[recipient] */\n      0xffffffffffffffffffffffffffffffffffffffff\n      and\n      0xffffffffffffffffffffffffffffffffffffffff\n      and\n      dup2\n      mstore\n      0x20\n      add\n      swap1\n      dup2\n      mstore\n      0x20\n      add\n      0x00\n      keccak256\n        /* \"contracts/MetraToken.sol\":5939:5991  _balances[recipient] = _balances[recipient] + amount */\n      dup2\n      swap1\n      sstore\n      pop\n        /* \"contracts/MetraToken.sol\":6020:6029  recipient */\n      dup2\n        /* \"contracts/MetraToken.sol\":6003:6038  Transfer(sender, recipient, amount) */\n      0xffffffffffffffffffffffffffffffffffffffff\n      and\n        /* \"contracts/MetraToken.sol\":6012:6018  sender */\n      dup4\n        /* \"contracts/MetraToken.sol\":6003:6038  Transfer(sender, recipient, amount) */\n      0xffffffffffffffffffffffffffffffffffffffff\n      and\n      0xddf252ad1be2c89b69c2b068fc378daa952ba7f163c4a11628f55a4df523b3ef\n        /* \"contracts/MetraToken.sol\":6031:6037  amount */\n      dup4\n        /* \"contracts/MetraToken.sol\":6003:6038  Transfer(sender, recipient, amount) */\n      mload(0x40)\n      tag_225\n      swap2\n      swap1\n      tag_39\n      jump\t// in\n    tag_225:\n      mload(0x40)\n      dup1\n      swap2\n      sub\n      swap1\n      log3\n        /* \"contracts/MetraToken.sol\":5561:6043  function _transfer(address sender, address recipient, uint256 amount) internal {... */\n      pop\n      pop\n      pop\n      jump\t// out\n        /* \"contracts/MetraToken.sol\":3101:3520  function _mint(address account, uint256 amount) internal {... */\n    tag_138:\n        /* \"contracts/MetraToken.sol\":3191:3192  0 */\n      0x00\n        /* \"contracts/MetraToken.sol\":3172:3193  account != address(0) */\n      0xffffffffffffffffffffffffffffffffffffffff\n      and\n        /* \"contracts/MetraToken.sol\":3172:3179  account */\n      dup3\n        /* \"contracts/MetraToken.sol\":3172:3193  account != address(0) */\n      0xffffffffffffffffffffffffffffffffffffffff\n      and\n      sub\n        /* \"contracts/MetraToken.sol\":3164:3232  require(account != address(0), \"Metra: cannot mint to zero address\") */\n      tag_227\n      jumpi\n      mload(0x40)\n      0x08c379a000000000000000000000000000000000000000000000000000000000\n      dup2\n      mstore\n      0x04\n      add\n      tag_228\n      swap1\n      tag_229\n      jump\t// in\n    tag_228:\n      mload(0x40)\n      dup1\n      swap2\n      sub\n      swap1\n      revert\n    tag_227:\n        /* \"contracts/MetraToken.sol\":3299:3305  amount */\n      dup1\n        /* \"contracts/MetraToken.sol\":3283:3295  _totalSupply */\n      sload(0x04)\n        /* \"contracts/MetraToken.sol\":3283:3306  _totalSupply + (amount) */\n      tag_230\n      swap2\n      swap1\n      tag_131\n      jump\t// in\n    tag_230:\n        /* \"contracts/MetraToken.sol\":3268:3280  _totalSupply */\n      0x04\n        /* \"contracts/MetraToken.sol\":3268:3306  _totalSupply = _totalSupply + (amount) */\n      dup2\n      swap1\n      sstore\n      pop\n        /* \"contracts/MetraToken.sol\":3421:3427  amount */\n      dup1\n        /* \"contracts/MetraToken.sol\":3400:3409  _balances */\n      0x08\n        /* \"contracts/MetraToken.sol\":3400:3418  _balances[account] */\n      0x00\n        /* \"contracts/MetraToken.sol\":3410:3417  account */\n      dup5\n        /* \"contracts/MetraToken.sol\":3400:3418  _balances[account] */\n      0xffffffffffffffffffffffffffffffffffffffff\n      and\n      0xffffffffffffffffffffffffffffffffffffffff\n      and\n      dup2\n      mstore\n      0x20\n      add\n      swap1\n      dup2\n      mstore\n      0x20\n      add\n      0x00\n      keccak256\n      sload\n        /* \"contracts/MetraToken.sol\":3400:3427  _balances[account] + amount */\n      tag_231\n      swap2\n      swap1\n      tag_131\n      jump\t// in\n    tag_231:\n        /* \"contracts/MetraToken.sol\":3379:3388  _balances */\n      0x08\n        /* \"contracts/MetraToken.sol\":3379:3397  _balances[account] */\n      0x00\n        /* \"contracts/MetraToken.sol\":3389:3396  account */\n      dup5\n        /* \"contracts/MetraToken.sol\":3379:3397  _balances[account] */\n      0xffffffffffffffffffffffffffffffffffffffff\n      and\n      0xffffffffffffffffffffffffffffffffffffffff\n      and\n      dup2\n      mstore\n      0x20\n      add\n      swap1\n      dup2\n      mstore\n      0x20\n      add\n      0x00\n      keccak256\n        /* \"contracts/MetraToken.sol\":3379:3427  _balances[account] = _balances[account] + amount */\n      dup2\n      swap1\n      sstore\n      pop\n        /* \"contracts/MetraToken.sol\":3499:3506  account */\n      dup2\n        /* \"contracts/MetraToken.sol\":3478:3515  Transfer(address(0), account, amount) */\n      0xffffffffffffffffffffffffffffffffffffffff\n      and\n        /* \"contracts/MetraToken.sol\":3495:3496  0 */\n      0x00\n        /* \"contracts/MetraToken.sol\":3478:3515  Transfer(address(0), account, amount) */\n      0xffffffffffffffffffffffffffffffffffffffff\n      and\n      0xddf252ad1be2c89b69c2b068fc378daa952ba7f163c4a11628f55a4df523b3ef\n        /* \"contracts/MetraToken.sol\":3508:3514  amount */\n      dup4\n        /* \"contracts/MetraToken.sol\":3478:3515  Transfer(address(0), account, amount) */\n      mload(0x40)\n      tag_232\n      swap2\n      swap1\n      tag_39\n      jump\t// in\n    tag_232:\n      mload(0x40)\n      dup1\n      swap2\n      sub\n      swap1\n      log3\n        /* \"contracts/MetraToken.sol\":3101:3520  function _mint(address account, uint256 amount) internal {... */\n      pop\n      pop\n      jump\t// out\n        /* \"contracts/MetraToken.sol\":3801:4302  function _burn(address account, uint256 amount) internal {... */\n    tag_158:\n        /* \"contracts/MetraToken.sol\":3891:3892  0 */\n      0x00\n        /* \"contracts/MetraToken.sol\":3872:3893  account != address(0) */\n      0xffffffffffffffffffffffffffffffffffffffff\n      and\n        /* \"contracts/MetraToken.sol\":3872:3879  account */\n      dup3\n        /* \"contracts/MetraToken.sol\":3872:3893  account != address(0) */\n      0xffffffffffffffffffffffffffffffffffffffff\n      and\n      sub\n        /* \"contracts/MetraToken.sol\":3864:3934  require(account != address(0), \"Metra: cannot burn from zero address\") */\n      tag_234\n      jumpi\n      mload(0x40)\n      0x08c379a000000000000000000000000000000000000000000000000000000000\n      dup2\n      mstore\n      0x04\n      add\n      tag_235\n      swap1\n      tag_236\n      jump\t// in\n    tag_235:\n      mload(0x40)\n      dup1\n      swap2\n      sub\n      swap1\n      revert\n    tag_234:\n        /* \"contracts/MetraToken.sol\":3970:3976  amount */\n      dup1\n        /* \"contracts/MetraToken.sol\":3948:3957  _balances */\n      0x08\n        /* \"contracts/MetraToken.sol\":3948:3966  _balances[account] */\n      0x00\n        /* \"contracts/MetraToken.sol\":3958:3965  account */\n      dup5\n        /* \"contracts/MetraToken.sol\":3948:3966  _balances[account] */\n      0xffffffffffffffffffffffffffffffffffffffff\n      and\n      0xffffffffffffffffffffffffffffffffffffffff\n      and\n      dup2\n      mstore\n      0x20\n      add\n      swap1\n      dup2\n      mstore\n      0x20\n      add\n      0x00\n      keccak256\n      sload\n        /* \"contracts/MetraToken.sol\":3948:3976  _balances[account] >= amount */\n      lt\n      iszero\n        /* \"contracts/MetraToken.sol\":3940:4026  require(_balances[account] >= amount, \"Metra: Cannot burn more than the account owns\") */\n      tag_237\n      jumpi\n      mload(0x40)\n      0x08c379a000000000000000000000000000000000000000000000000000000000\n      dup2\n      mstore\n      0x04\n      add\n      tag_238\n      swap1\n      tag_239\n      jump\t// in\n    tag_238:\n      mload(0x40)\n      dup1\n      swap2\n      sub\n      swap1\n      revert\n    tag_237:\n        /* \"contracts/MetraToken.sol\":4125:4131  amount */\n      dup1\n        /* \"contracts/MetraToken.sol\":4104:4113  _balances */\n      0x08\n        /* \"contracts/MetraToken.sol\":4104:4122  _balances[account] */\n      0x00\n        /* \"contracts/MetraToken.sol\":4114:4121  account */\n      dup5\n        /* \"contracts/MetraToken.sol\":4104:4122  _balances[account] */\n      0xffffffffffffffffffffffffffffffffffffffff\n      and\n      0xffffffffffffffffffffffffffffffffffffffff\n      and\n      dup2\n      mstore\n      0x20\n      add\n      swap1\n      dup2\n      mstore\n      0x20\n      add\n      0x00\n      keccak256\n      sload\n        /* \"contracts/MetraToken.sol\":4104:4131  _balances[account] - amount */\n      tag_240\n      swap2\n      swap1\n      tag_126\n      jump\t// in\n    tag_240:\n        /* \"contracts/MetraToken.sol\":4083:4092  _balances */\n      0x08\n        /* \"contracts/MetraToken.sol\":4083:4101  _balances[account] */\n      0x00\n        /* \"contracts/MetraToken.sol\":4093:4100  account */\n      dup5\n        /* \"contracts/MetraToken.sol\":4083:4101  _balances[account] */\n      0xffffffffffffffffffffffffffffffffffffffff\n      and\n      0xffffffffffffffffffffffffffffffffffffffff\n      and\n      dup2\n      mstore\n      0x20\n      add\n      swap1\n      dup2\n      mstore\n      0x20\n      add\n      0x00\n      keccak256\n        /* \"contracts/MetraToken.sol\":4083:4131  _balances[account] = _balances[account] - amount */\n      dup2\n      swap1\n      sstore\n      pop\n        /* \"contracts/MetraToken.sol\":4195:4201  amount */\n      dup1\n        /* \"contracts/MetraToken.sol\":4180:4192  _totalSupply */\n      sload(0x04)\n        /* \"contracts/MetraToken.sol\":4180:4201  _totalSupply - amount */\n      tag_241\n      swap2\n      swap1\n      tag_126\n      jump\t// in\n    tag_241:\n        /* \"contracts/MetraToken.sol\":4165:4177  _totalSupply */\n      0x04\n        /* \"contracts/MetraToken.sol\":4165:4201  _totalSupply = _totalSupply - amount */\n      dup2\n      swap1\n      sstore\n      pop\n        /* \"contracts/MetraToken.sol\":4286:4287  0 */\n      0x00\n        /* \"contracts/MetraToken.sol\":4260:4297  Transfer(account, address(0), amount) */\n      0xffffffffffffffffffffffffffffffffffffffff\n      and\n        /* \"contracts/MetraToken.sol\":4269:4276  account */\n      dup3\n        /* \"contracts/MetraToken.sol\":4260:4297  Transfer(account, address(0), amount) */\n      0xffffffffffffffffffffffffffffffffffffffff\n      and\n      0xddf252ad1be2c89b69c2b068fc378daa952ba7f163c4a11628f55a4df523b3ef\n        /* \"contracts/MetraToken.sol\":4290:4296  amount */\n      dup4\n        /* \"contracts/MetraToken.sol\":4260:4297  Transfer(account, address(0), amount) */\n      mload(0x40)\n      tag_242\n      swap2\n      swap1\n      tag_39\n      jump\t// in\n    tag_242:\n      mload(0x40)\n      dup1\n      swap2\n      sub\n      swap1\n      log3\n        /* \"contracts/MetraToken.sol\":3801:4302  function _burn(address account, uint256 amount) internal {... */\n      pop\n      pop\n      jump\t// out\n        /* \"contracts/Stakeable.sol\":3057:4233  function _stake(uint256 _amount) internal{... */\n    tag_167:\n        /* \"contracts/Stakeable.sol\":3181:3182  0 */\n      0x00\n        /* \"contracts/Stakeable.sol\":3171:3178  _amount */\n      dup2\n        /* \"contracts/Stakeable.sol\":3171:3182  _amount > 0 */\n      gt\n        /* \"contracts/Stakeable.sol\":3163:3207  require(_amount > 0, \"Cannot stake nothing\") */\n      tag_244\n      jumpi\n      mload(0x40)\n      0x08c379a000000000000000000000000000000000000000000000000000000000\n      dup2\n      mstore\n      0x04\n      add\n      tag_245\n      swap1\n      tag_246\n      jump\t// in\n    tag_245:\n      mload(0x40)\n      dup1\n      swap2\n      sub\n      swap1\n      revert\n    tag_244:\n        /* \"contracts/Stakeable.sol\":3323:3336  uint256 index */\n      0x00\n        /* \"contracts/Stakeable.sol\":3339:3345  stakes */\n      0x02\n        /* \"contracts/Stakeable.sol\":3339:3357  stakes[msg.sender] */\n      0x00\n        /* \"contracts/Stakeable.sol\":3346:3356  msg.sender */\n      caller\n        /* \"contracts/Stakeable.sol\":3339:3357  stakes[msg.sender] */\n      0xffffffffffffffffffffffffffffffffffffffff\n      and\n      0xffffffffffffffffffffffffffffffffffffffff\n      and\n      dup2\n      mstore\n      0x20\n      add\n      swap1\n      dup2\n      mstore\n      0x20\n      add\n      0x00\n      keccak256\n      sload\n        /* \"contracts/Stakeable.sol\":3323:3357  uint256 index = stakes[msg.sender] */\n      swap1\n      pop\n        /* \"contracts/Stakeable.sol\":3454:3471  uint256 timestamp */\n      0x00\n        /* \"contracts/Stakeable.sol\":3474:3489  block.timestamp */\n      timestamp\n        /* \"contracts/Stakeable.sol\":3454:3489  uint256 timestamp = block.timestamp */\n      swap1\n      pop\n        /* \"contracts/Stakeable.sol\":3592:3593  0 */\n      0x00\n        /* \"contracts/Stakeable.sol\":3583:3588  index */\n      dup3\n        /* \"contracts/Stakeable.sol\":3583:3593  index == 0 */\n      sub\n        /* \"contracts/Stakeable.sol\":3580:3908  if(index == 0){... */\n      tag_247\n      jumpi\n        /* \"contracts/Stakeable.sol\":3870:3897  _addStakeholder(msg.sender) */\n      tag_248\n        /* \"contracts/Stakeable.sol\":3886:3896  msg.sender */\n      caller\n        /* \"contracts/Stakeable.sol\":3870:3885  _addStakeholder */\n      tag_249\n        /* \"contracts/Stakeable.sol\":3870:3897  _addStakeholder(msg.sender) */\n      jump\t// in\n    tag_248:\n        /* \"contracts/Stakeable.sol\":3862:3897  index = _addStakeholder(msg.sender) */\n      swap2\n      pop\n        /* \"contracts/Stakeable.sol\":3580:3908  if(index == 0){... */\n    tag_247:\n        /* \"contracts/Stakeable.sol\":4035:4047  stakeholders */\n      0x01\n        /* \"contracts/Stakeable.sol\":4048:4053  index */\n      dup3\n        /* \"contracts/Stakeable.sol\":4035:4054  stakeholders[index] */\n      dup2\n      sload\n      dup2\n      lt\n      tag_250\n      jumpi\n      tag_251\n      tag_177\n      jump\t// in\n    tag_251:\n    tag_250:\n      swap1\n      0x00\n      mstore\n      keccak256(0x00, 0x20)\n      swap1\n      0x02\n      mul\n      add\n        /* \"contracts/Stakeable.sol\":4035:4069  stakeholders[index].address_stakes */\n      0x01\n      add\n        /* \"contracts/Stakeable.sol\":4075:4114  Stake(msg.sender, _amount, timestamp,0) */\n      mload(0x40)\n      dup1\n      0x80\n      add\n      0x40\n      mstore\n      dup1\n        /* \"contracts/Stakeable.sol\":4081:4091  msg.sender */\n      caller\n        /* \"contracts/Stakeable.sol\":4075:4114  Stake(msg.sender, _amount, timestamp,0) */\n      0xffffffffffffffffffffffffffffffffffffffff\n      and\n      dup2\n      mstore\n      0x20\n      add\n        /* \"contracts/Stakeable.sol\":4093:4100  _amount */\n      dup6\n        /* \"contracts/Stakeable.sol\":4075:4114  Stake(msg.sender, _amount, timestamp,0) */\n      dup2\n      mstore\n      0x20\n      add\n        /* \"contracts/Stakeable.sol\":4102:4111  timestamp */\n      dup4\n        /* \"contracts/Stakeable.sol\":4075:4114  Stake(msg.sender, _amount, timestamp,0) */\n      dup2\n      mstore\n      0x20\n      add\n        /* \"contracts/Stakeable.sol\":4112:4113  0 */\n      0x00\n        /* \"contracts/Stakeable.sol\":4075:4114  Stake(msg.sender, _amount, timestamp,0) */\n      dup2\n      mstore\n      pop\n        /* \"contracts/Stakeable.sol\":4035:4115  stakeholders[index].address_stakes.push(Stake(msg.sender, _amount, timestamp,0)) */\n      swap1\n      dup1\n      0x01\n      dup2\n      sload\n      add\n      dup1\n      dup3\n      sstore\n      dup1\n      swap2\n      pop\n      pop\n      0x01\n      swap1\n      sub\n      swap1\n      0x00\n      mstore\n      keccak256(0x00, 0x20)\n      swap1\n      0x04\n      mul\n      add\n      0x00\n      swap1\n      swap2\n      swap1\n      swap2\n      swap1\n      swap2\n      pop\n      0x00\n      dup3\n      add\n      mload\n      dup2\n      0x00\n      add\n      exp(0x0100, 0x00)\n      dup2\n      sload\n      dup2\n      0xffffffffffffffffffffffffffffffffffffffff\n      mul\n      not\n      and\n      swap1\n      dup4\n      0xffffffffffffffffffffffffffffffffffffffff\n      and\n      mul\n      or\n      swap1\n      sstore\n      pop\n      0x20\n      dup3\n      add\n      mload\n      dup2\n      0x01\n      add\n      sstore\n      0x40\n      dup3\n      add\n      mload\n      dup2\n      0x02\n      add\n      sstore\n      0x60\n      dup3\n      add\n      mload\n      dup2\n      0x03\n      add\n      sstore\n      pop\n      pop\n        /* \"contracts/Stakeable.sol\":4189:4199  msg.sender */\n      caller\n        /* \"contracts/Stakeable.sol\":4182:4226  Staked(msg.sender, _amount, index,timestamp) */\n      0xffffffffffffffffffffffffffffffffffffffff\n      and\n      0xb4caaf29adda3eefee3ad552a8e85058589bf834c7466cae4ee58787f70589ed\n        /* \"contracts/Stakeable.sol\":4201:4208  _amount */\n      dup5\n        /* \"contracts/Stakeable.sol\":4210:4215  index */\n      dup5\n        /* \"contracts/Stakeable.sol\":4216:4225  timestamp */\n      dup5\n        /* \"contracts/Stakeable.sol\":4182:4226  Staked(msg.sender, _amount, index,timestamp) */\n      mload(0x40)\n      tag_254\n      swap4\n      swap3\n      swap2\n      swap1\n      tag_255\n      jump\t// in\n    tag_254:\n      mload(0x40)\n      dup1\n      swap2\n      sub\n      swap1\n      log2\n        /* \"contracts/Stakeable.sol\":3098:4233  {... */\n      pop\n      pop\n        /* \"contracts/Stakeable.sol\":3057:4233  function _stake(uint256 _amount) internal{... */\n      pop\n      jump\t// out\n        /* \"contracts/Stakeable.sol\":4426:5230  function calculateStakeReward(Stake memory _current_stake) internal view returns(uint256){... */\n    tag_188:\n        /* \"contracts/Stakeable.sol\":4507:4514  uint256 */\n      0x00\n        /* \"contracts/Stakeable.sol\":5208:5221  rewardPerHour */\n      sload(0x03)\n        /* \"contracts/Stakeable.sol\":5183:5197  _current_stake */\n      dup3\n        /* \"contracts/Stakeable.sol\":5183:5204  _current_stake.amount */\n      0x20\n      add\n      mload\n        /* \"contracts/Stakeable.sol\":5172:5179  1 hours */\n      0x0e10\n        /* \"contracts/Stakeable.sol\":5148:5162  _current_stake */\n      dup5\n        /* \"contracts/Stakeable.sol\":5148:5168  _current_stake.since */\n      0x40\n      add\n      mload\n        /* \"contracts/Stakeable.sol\":5130:5145  block.timestamp */\n      timestamp\n        /* \"contracts/Stakeable.sol\":5130:5168  block.timestamp - _current_stake.since */\n      tag_257\n      swap2\n      swap1\n      tag_126\n      jump\t// in\n    tag_257:\n        /* \"contracts/Stakeable.sol\":5129:5179  (block.timestamp - _current_stake.since) / 1 hours */\n      tag_258\n      swap2\n      swap1\n      tag_259\n      jump\t// in\n    tag_258:\n        /* \"contracts/Stakeable.sol\":5128:5204  ((block.timestamp - _current_stake.since) / 1 hours) * _current_stake.amount */\n      tag_260\n      swap2\n      swap1\n      tag_261\n      jump\t// in\n    tag_260:\n        /* \"contracts/Stakeable.sol\":5127:5221  (((block.timestamp - _current_stake.since) / 1 hours) * _current_stake.amount) / rewardPerHour */\n      tag_262\n      swap2\n      swap1\n      tag_259\n      jump\t// in\n    tag_262:\n        /* \"contracts/Stakeable.sol\":5120:5221  return (((block.timestamp - _current_stake.since) / 1 hours) * _current_stake.amount) / rewardPerHour */\n      swap1\n      pop\n        /* \"contracts/Stakeable.sol\":4426:5230  function calculateStakeReward(Stake memory _current_stake) internal view returns(uint256){... */\n      swap2\n      swap1\n      pop\n      jump\t// out\n        /* \"contracts/Stakeable.sol\":5574:6748  function _withdrawStake(uint256 amount, uint256 index) internal returns(uint256){... */\n    tag_197:\n        /* \"contracts/Stakeable.sol\":5646:5653  uint256 */\n      0x00\n        /* \"contracts/Stakeable.sol\":5738:5756  uint256 user_index */\n      dup1\n        /* \"contracts/Stakeable.sol\":5759:5765  stakes */\n      0x02\n        /* \"contracts/Stakeable.sol\":5759:5777  stakes[msg.sender] */\n      0x00\n        /* \"contracts/Stakeable.sol\":5766:5776  msg.sender */\n      caller\n        /* \"contracts/Stakeable.sol\":5759:5777  stakes[msg.sender] */\n      0xffffffffffffffffffffffffffffffffffffffff\n      and\n      0xffffffffffffffffffffffffffffffffffffffff\n      and\n      dup2\n      mstore\n      0x20\n      add\n      swap1\n      dup2\n      mstore\n      0x20\n      add\n      0x00\n      keccak256\n      sload\n        /* \"contracts/Stakeable.sol\":5738:5777  uint256 user_index = stakes[msg.sender] */\n      swap1\n      pop\n        /* \"contracts/Stakeable.sol\":5787:5813  Stake memory current_stake */\n      0x00\n        /* \"contracts/Stakeable.sol\":5816:5828  stakeholders */\n      0x01\n        /* \"contracts/Stakeable.sol\":5829:5839  user_index */\n      dup3\n        /* \"contracts/Stakeable.sol\":5816:5840  stakeholders[user_index] */\n      dup2\n      sload\n      dup2\n      lt\n      tag_264\n      jumpi\n      tag_265\n      tag_177\n      jump\t// in\n    tag_265:\n    tag_264:\n      swap1\n      0x00\n      mstore\n      keccak256(0x00, 0x20)\n      swap1\n      0x02\n      mul\n      add\n        /* \"contracts/Stakeable.sol\":5816:5855  stakeholders[user_index].address_stakes */\n      0x01\n      add\n        /* \"contracts/Stakeable.sol\":5856:5861  index */\n      dup5\n        /* \"contracts/Stakeable.sol\":5816:5862  stakeholders[user_index].address_stakes[index] */\n      dup2\n      sload\n      dup2\n      lt\n      tag_267\n      jumpi\n      tag_268\n      tag_177\n      jump\t// in\n    tag_268:\n    tag_267:\n      swap1\n      0x00\n      mstore\n      keccak256(0x00, 0x20)\n      swap1\n      0x04\n      mul\n      add\n        /* \"contracts/Stakeable.sol\":5787:5862  Stake memory current_stake = stakeholders[user_index].address_stakes[index] */\n      mload(0x40)\n      dup1\n      0x80\n      add\n      0x40\n      mstore\n      swap1\n      dup2\n      0x00\n      dup3\n      add\n      0x00\n      swap1\n      sload\n      swap1\n      0x0100\n      exp\n      swap1\n      div\n      0xffffffffffffffffffffffffffffffffffffffff\n      and\n      0xffffffffffffffffffffffffffffffffffffffff\n      and\n      0xffffffffffffffffffffffffffffffffffffffff\n      and\n      dup2\n      mstore\n      0x20\n      add\n      0x01\n      dup3\n      add\n      sload\n      dup2\n      mstore\n      0x20\n      add\n      0x02\n      dup3\n      add\n      sload\n      dup2\n      mstore\n      0x20\n      add\n      0x03\n      dup3\n      add\n      sload\n      dup2\n      mstore\n      pop\n      pop\n      swap1\n      pop\n        /* \"contracts/Stakeable.sol\":5904:5910  amount */\n      dup5\n        /* \"contracts/Stakeable.sol\":5880:5893  current_stake */\n      dup2\n        /* \"contracts/Stakeable.sol\":5880:5900  current_stake.amount */\n      0x20\n      add\n      mload\n        /* \"contracts/Stakeable.sol\":5880:5910  current_stake.amount >= amount */\n      lt\n      iszero\n        /* \"contracts/Stakeable.sol\":5872:5965  require(current_stake.amount >= amount, \"Staking: Cannot withdraw more than you have staked\") */\n      tag_270\n      jumpi\n      mload(0x40)\n      0x08c379a000000000000000000000000000000000000000000000000000000000\n      dup2\n      mstore\n      0x04\n      add\n      tag_271\n      swap1\n      tag_272\n      jump\t// in\n    tag_271:\n      mload(0x40)\n      dup1\n      swap2\n      sub\n      swap1\n      revert\n    tag_270:\n        /* \"contracts/Stakeable.sol\":6053:6067  uint256 reward */\n      0x00\n        /* \"contracts/Stakeable.sol\":6070:6105  calculateStakeReward(current_stake) */\n      tag_273\n        /* \"contracts/Stakeable.sol\":6091:6104  current_stake */\n      dup3\n        /* \"contracts/Stakeable.sol\":6070:6090  calculateStakeReward */\n      tag_188\n        /* \"contracts/Stakeable.sol\":6070:6105  calculateStakeReward(current_stake) */\n      jump\t// in\n    tag_273:\n        /* \"contracts/Stakeable.sol\":6053:6105  uint256 reward = calculateStakeReward(current_stake) */\n      swap1\n      pop\n        /* \"contracts/Stakeable.sol\":6216:6222  amount */\n      dup6\n        /* \"contracts/Stakeable.sol\":6193:6206  current_stake */\n      dup3\n        /* \"contracts/Stakeable.sol\":6193:6213  current_stake.amount */\n      0x20\n      add\n      mload\n        /* \"contracts/Stakeable.sol\":6193:6222  current_stake.amount - amount */\n      tag_274\n      swap2\n      swap1\n      tag_126\n      jump\t// in\n    tag_274:\n        /* \"contracts/Stakeable.sol\":6170:6183  current_stake */\n      dup3\n        /* \"contracts/Stakeable.sol\":6170:6190  current_stake.amount */\n      0x20\n      add\n        /* \"contracts/Stakeable.sol\":6170:6222  current_stake.amount = current_stake.amount - amount */\n      dup2\n      dup2\n      mstore\n      pop\n      pop\n        /* \"contracts/Stakeable.sol\":6334:6335  0 */\n      0x00\n        /* \"contracts/Stakeable.sol\":6310:6323  current_stake */\n      dup3\n        /* \"contracts/Stakeable.sol\":6310:6330  current_stake.amount */\n      0x20\n      add\n      mload\n        /* \"contracts/Stakeable.sol\":6310:6335  current_stake.amount == 0 */\n      sub\n        /* \"contracts/Stakeable.sol\":6307:6707  if(current_stake.amount == 0){... */\n      tag_275\n      jumpi\n        /* \"contracts/Stakeable.sol\":6358:6370  stakeholders */\n      0x01\n        /* \"contracts/Stakeable.sol\":6371:6381  user_index */\n      dup4\n        /* \"contracts/Stakeable.sol\":6358:6382  stakeholders[user_index] */\n      dup2\n      sload\n      dup2\n      lt\n      tag_276\n      jumpi\n      tag_277\n      tag_177\n      jump\t// in\n    tag_277:\n    tag_276:\n      swap1\n      0x00\n      mstore\n      keccak256(0x00, 0x20)\n      swap1\n      0x02\n      mul\n      add\n        /* \"contracts/Stakeable.sol\":6358:6397  stakeholders[user_index].address_stakes */\n      0x01\n      add\n        /* \"contracts/Stakeable.sol\":6398:6403  index */\n      dup6\n        /* \"contracts/Stakeable.sol\":6358:6404  stakeholders[user_index].address_stakes[index] */\n      dup2\n      sload\n      dup2\n      lt\n      tag_279\n      jumpi\n      tag_280\n      tag_177\n      jump\t// in\n    tag_280:\n    tag_279:\n      swap1\n      0x00\n      mstore\n      keccak256(0x00, 0x20)\n      swap1\n      0x04\n      mul\n      add\n      0x00\n        /* \"contracts/Stakeable.sol\":6351:6404  delete stakeholders[user_index].address_stakes[index] */\n      dup1\n      dup3\n      add\n      exp(0x0100, 0x00)\n      dup2\n      sload\n      swap1\n      0xffffffffffffffffffffffffffffffffffffffff\n      mul\n      not\n      and\n      swap1\n      sstore\n      0x01\n      dup3\n      add\n      0x00\n      swap1\n      sstore\n      0x02\n      dup3\n      add\n      0x00\n      swap1\n      sstore\n      0x03\n      dup3\n      add\n      0x00\n      swap1\n      sstore\n      pop\n      pop\n        /* \"contracts/Stakeable.sol\":6307:6707  if(current_stake.amount == 0){... */\n      jump(tag_282)\n    tag_275:\n        /* \"contracts/Stakeable.sol\":6550:6563  current_stake */\n      dup2\n        /* \"contracts/Stakeable.sol\":6550:6570  current_stake.amount */\n      0x20\n      add\n      mload\n        /* \"contracts/Stakeable.sol\":6494:6506  stakeholders */\n      0x01\n        /* \"contracts/Stakeable.sol\":6507:6517  user_index */\n      dup5\n        /* \"contracts/Stakeable.sol\":6494:6518  stakeholders[user_index] */\n      dup2\n      sload\n      dup2\n      lt\n      tag_283\n      jumpi\n      tag_284\n      tag_177\n      jump\t// in\n    tag_284:\n    tag_283:\n      swap1\n      0x00\n      mstore\n      keccak256(0x00, 0x20)\n      swap1\n      0x02\n      mul\n      add\n        /* \"contracts/Stakeable.sol\":6494:6533  stakeholders[user_index].address_stakes */\n      0x01\n      add\n        /* \"contracts/Stakeable.sol\":6534:6539  index */\n      dup7\n        /* \"contracts/Stakeable.sol\":6494:6540  stakeholders[user_index].address_stakes[index] */\n      dup2\n      sload\n      dup2\n      lt\n      tag_286\n      jumpi\n      tag_287\n      tag_177\n      jump\t// in\n    tag_287:\n    tag_286:\n      swap1\n      0x00\n      mstore\n      keccak256(0x00, 0x20)\n      swap1\n      0x04\n      mul\n      add\n        /* \"contracts/Stakeable.sol\":6494:6547  stakeholders[user_index].address_stakes[index].amount */\n      0x01\n      add\n        /* \"contracts/Stakeable.sol\":6494:6570  stakeholders[user_index].address_stakes[index].amount = current_stake.amount */\n      dup2\n      swap1\n      sstore\n      pop\n        /* \"contracts/Stakeable.sol\":6676:6691  block.timestamp */\n      timestamp\n        /* \"contracts/Stakeable.sol\":6621:6633  stakeholders */\n      0x01\n        /* \"contracts/Stakeable.sol\":6634:6644  user_index */\n      dup5\n        /* \"contracts/Stakeable.sol\":6621:6645  stakeholders[user_index] */\n      dup2\n      sload\n      dup2\n      lt\n      tag_289\n      jumpi\n      tag_290\n      tag_177\n      jump\t// in\n    tag_290:\n    tag_289:\n      swap1\n      0x00\n      mstore\n      keccak256(0x00, 0x20)\n      swap1\n      0x02\n      mul\n      add\n        /* \"contracts/Stakeable.sol\":6621:6660  stakeholders[user_index].address_stakes */\n      0x01\n      add\n        /* \"contracts/Stakeable.sol\":6661:6666  index */\n      dup7\n        /* \"contracts/Stakeable.sol\":6621:6667  stakeholders[user_index].address_stakes[index] */\n      dup2\n      sload\n      dup2\n      lt\n      tag_292\n      jumpi\n      tag_293\n      tag_177\n      jump\t// in\n    tag_293:\n    tag_292:\n      swap1\n      0x00\n      mstore\n      keccak256(0x00, 0x20)\n      swap1\n      0x04\n      mul\n      add\n        /* \"contracts/Stakeable.sol\":6621:6673  stakeholders[user_index].address_stakes[index].since */\n      0x02\n      add\n        /* \"contracts/Stakeable.sol\":6621:6691  stakeholders[user_index].address_stakes[index].since = block.timestamp */\n      dup2\n      swap1\n      sstore\n      pop\n        /* \"contracts/Stakeable.sol\":6307:6707  if(current_stake.amount == 0){... */\n    tag_282:\n        /* \"contracts/Stakeable.sol\":6734:6740  reward */\n      dup1\n        /* \"contracts/Stakeable.sol\":6725:6731  amount */\n      dup7\n        /* \"contracts/Stakeable.sol\":6725:6740  amount + reward */\n      tag_295\n      swap2\n      swap1\n      tag_131\n      jump\t// in\n    tag_295:\n        /* \"contracts/Stakeable.sol\":6718:6740  return amount + reward */\n      swap4\n      pop\n      pop\n      pop\n      pop\n        /* \"contracts/Stakeable.sol\":5574:6748  function _withdrawStake(uint256 amount, uint256 index) internal returns(uint256){... */\n      swap3\n      swap2\n      pop\n      pop\n      jump\t// out\n        /* \"contracts/Ownable.sol\":1897:2122  function _transferOwnership(address newOwner) internal {... */\n    tag_204:\n        /* \"contracts/Ownable.sol\":1990:1991  0 */\n      0x00\n        /* \"contracts/Ownable.sol\":1970:1992  newOwner != address(0) */\n      0xffffffffffffffffffffffffffffffffffffffff\n      and\n        /* \"contracts/Ownable.sol\":1970:1978  newOwner */\n      dup2\n        /* \"contracts/Ownable.sol\":1970:1992  newOwner != address(0) */\n      0xffffffffffffffffffffffffffffffffffffffff\n      and\n      sub\n        /* \"contracts/Ownable.sol\":1962:2035  require(newOwner != address(0), \"Ownable: new owner is the zero address\") */\n      tag_297\n      jumpi\n      mload(0x40)\n      0x08c379a000000000000000000000000000000000000000000000000000000000\n      dup2\n      mstore\n      0x04\n      add\n      tag_298\n      swap1\n      tag_299\n      jump\t// in\n    tag_298:\n      mload(0x40)\n      dup1\n      swap2\n      sub\n      swap1\n      revert\n    tag_297:\n        /* \"contracts/Ownable.sol\":2079:2087  newOwner */\n      dup1\n        /* \"contracts/Ownable.sol\":2050:2088  OwnershipTransferred(_owner, newOwner) */\n      0xffffffffffffffffffffffffffffffffffffffff\n      and\n        /* \"contracts/Ownable.sol\":2071:2077  _owner */\n      0x00\n      dup1\n      sload\n      swap1\n      0x0100\n      exp\n      swap1\n      div\n      0xffffffffffffffffffffffffffffffffffffffff\n      and\n        /* \"contracts/Ownable.sol\":2050:2088  OwnershipTransferred(_owner, newOwner) */\n      0xffffffffffffffffffffffffffffffffffffffff\n      and\n      0x8be0079c531659141344cd1fd0a4f28419497f9722a3daafe3b4186f6b6457e0\n      mload(0x40)\n      mload(0x40)\n      dup1\n      swap2\n      sub\n      swap1\n      log3\n        /* \"contracts/Ownable.sol\":2107:2115  newOwner */\n      dup1\n        /* \"contracts/Ownable.sol\":2098:2104  _owner */\n      0x00\n      dup1\n        /* \"contracts/Ownable.sol\":2098:2115  _owner = newOwner */\n      0x0100\n      exp\n      dup2\n      sload\n      dup2\n      0xffffffffffffffffffffffffffffffffffffffff\n      mul\n      not\n      and\n      swap1\n      dup4\n      0xffffffffffffffffffffffffffffffffffffffff\n      and\n      mul\n      or\n      swap1\n      sstore\n      pop\n        /* \"contracts/Ownable.sol\":1897:2122  function _transferOwnership(address newOwner) internal {... */\n      pop\n      jump\t// out\n        /* \"contracts/Stakeable.sol\":2345:2849  function _addStakeholder(address staker) internal returns (uint256){... */\n    tag_249:\n        /* \"contracts/Stakeable.sol\":2404:2411  uint256 */\n      0x00\n        /* \"contracts/Stakeable.sol\":2502:2514  stakeholders */\n      0x01\n        /* \"contracts/Stakeable.sol\":2502:2521  stakeholders.push() */\n      dup1\n      dup2\n      0x01\n      dup2\n      sload\n      add\n      dup1\n      dup3\n      sstore\n      dup1\n      swap2\n      pop\n      pop\n      sub\n      swap1\n      0x00\n      mstore\n      keccak256(0x00, 0x20)\n      swap1\n      pop\n      pop\n        /* \"contracts/Stakeable.sol\":2601:2618  uint256 userIndex */\n      0x00\n        /* \"contracts/Stakeable.sol\":2643:2644  1 */\n      0x01\n        /* \"contracts/Stakeable.sol\":2621:2633  stakeholders */\n      dup1\n        /* \"contracts/Stakeable.sol\":2621:2640  stakeholders.length */\n      dup1\n      sload\n      swap1\n      pop\n        /* \"contracts/Stakeable.sol\":2621:2644  stakeholders.length - 1 */\n      tag_302\n      swap2\n      swap1\n      tag_126\n      jump\t// in\n    tag_302:\n        /* \"contracts/Stakeable.sol\":2601:2644  uint256 userIndex = stakeholders.length - 1 */\n      swap1\n      pop\n        /* \"contracts/Stakeable.sol\":2732:2738  staker */\n      dup3\n        /* \"contracts/Stakeable.sol\":2701:2713  stakeholders */\n      0x01\n        /* \"contracts/Stakeable.sol\":2714:2723  userIndex */\n      dup3\n        /* \"contracts/Stakeable.sol\":2701:2724  stakeholders[userIndex] */\n      dup2\n      sload\n      dup2\n      lt\n      tag_303\n      jumpi\n      tag_304\n      tag_177\n      jump\t// in\n    tag_304:\n    tag_303:\n      swap1\n      0x00\n      mstore\n      keccak256(0x00, 0x20)\n      swap1\n      0x02\n      mul\n      add\n        /* \"contracts/Stakeable.sol\":2701:2729  stakeholders[userIndex].user */\n      0x00\n      add\n      0x00\n        /* \"contracts/Stakeable.sol\":2701:2738  stakeholders[userIndex].user = staker */\n      0x0100\n      exp\n      dup2\n      sload\n      dup2\n      0xffffffffffffffffffffffffffffffffffffffff\n      mul\n      not\n      and\n      swap1\n      dup4\n      0xffffffffffffffffffffffffffffffffffffffff\n      and\n      mul\n      or\n      swap1\n      sstore\n      pop\n        /* \"contracts/Stakeable.sol\":2806:2815  userIndex */\n      dup1\n        /* \"contracts/Stakeable.sol\":2789:2795  stakes */\n      0x02\n        /* \"contracts/Stakeable.sol\":2789:2803  stakes[staker] */\n      0x00\n        /* \"contracts/Stakeable.sol\":2796:2802  staker */\n      dup6\n        /* \"contracts/Stakeable.sol\":2789:2803  stakes[staker] */\n      0xffffffffffffffffffffffffffffffffffffffff\n      and\n      0xffffffffffffffffffffffffffffffffffffffff\n      and\n      dup2\n      mstore\n      0x20\n      add\n      swap1\n      dup2\n      mstore\n      0x20\n      add\n      0x00\n      keccak256\n        /* \"contracts/Stakeable.sol\":2789:2815  stakes[staker] = userIndex */\n      dup2\n      swap1\n      sstore\n      pop\n        /* \"contracts/Stakeable.sol\":2832:2841  userIndex */\n      dup1\n        /* \"contracts/Stakeable.sol\":2825:2841  return userIndex */\n      swap2\n      pop\n      pop\n        /* \"contracts/Stakeable.sol\":2345:2849  function _addStakeholder(address staker) internal returns (uint256){... */\n      swap2\n      swap1\n      pop\n      jump\t// out\n    tag_173:\n      mload(0x40)\n      dup1\n      0x40\n      add\n      0x40\n      mstore\n      dup1\n      0x00\n      dup2\n      mstore\n      0x20\n      add\n      0x60\n      dup2\n      mstore\n      pop\n      swap1\n      jump\t// out\n        /* \"#utility.yul\":7:106   */\n    tag_306:\n        /* \"#utility.yul\":59:65   */\n      0x00\n        /* \"#utility.yul\":93:98   */\n      dup2\n        /* \"#utility.yul\":87:99   */\n      mload\n        /* \"#utility.yul\":77:99   */\n      swap1\n      pop\n        /* \"#utility.yul\":7:106   */\n      swap2\n      swap1\n      pop\n      jump\t// out\n        /* \"#utility.yul\":112:281   */\n    tag_307:\n        /* \"#utility.yul\":196:207   */\n      0x00\n        /* \"#utility.yul\":230:236   */\n      dup3\n        /* \"#utility.yul\":225:228   */\n      dup3\n        /* \"#utility.yul\":218:237   */\n      mstore\n        /* \"#utility.yul\":270:274   */\n      0x20\n        /* \"#utility.yul\":265:268   */\n      dup3\n        /* \"#utility.yul\":261:275   */\n      add\n        /* \"#utility.yul\":246:275   */\n      swap1\n      pop\n        /* \"#utility.yul\":112:281   */\n      swap3\n      swap2\n      pop\n      pop\n      jump\t// out\n        /* \"#utility.yul\":287:594   */\n    tag_308:\n        /* \"#utility.yul\":355:356   */\n      0x00\n        /* \"#utility.yul\":365:478   */\n    tag_372:\n        /* \"#utility.yul\":379:385   */\n      dup4\n        /* \"#utility.yul\":376:377   */\n      dup2\n        /* \"#utility.yul\":373:386   */\n      lt\n        /* \"#utility.yul\":365:478   */\n      iszero\n      tag_374\n      jumpi\n        /* \"#utility.yul\":464:465   */\n      dup1\n        /* \"#utility.yul\":459:462   */\n      dup3\n        /* \"#utility.yul\":455:466   */\n      add\n        /* \"#utility.yul\":449:467   */\n      mload\n        /* \"#utility.yul\":445:446   */\n      dup2\n        /* \"#utility.yul\":440:443   */\n      dup5\n        /* \"#utility.yul\":436:447   */\n      add\n        /* \"#utility.yul\":429:468   */\n      mstore\n        /* \"#utility.yul\":401:403   */\n      0x20\n        /* \"#utility.yul\":398:399   */\n      dup2\n        /* \"#utility.yul\":394:404   */\n      add\n        /* \"#utility.yul\":389:404   */\n      swap1\n      pop\n        /* \"#utility.yul\":365:478   */\n      jump(tag_372)\n    tag_374:\n        /* \"#utility.yul\":496:502   */\n      dup4\n        /* \"#utility.yul\":493:494   */\n      dup2\n        /* \"#utility.yul\":490:503   */\n      gt\n        /* \"#utility.yul\":487:588   */\n      iszero\n      tag_375\n      jumpi\n        /* \"#utility.yul\":576:577   */\n      0x00\n        /* \"#utility.yul\":567:573   */\n      dup5\n        /* \"#utility.yul\":562:565   */\n      dup5\n        /* \"#utility.yul\":558:574   */\n      add\n        /* \"#utility.yul\":551:578   */\n      mstore\n        /* \"#utility.yul\":487:588   */\n    tag_375:\n        /* \"#utility.yul\":336:594   */\n      pop\n        /* \"#utility.yul\":287:594   */\n      pop\n      pop\n      pop\n      jump\t// out\n        /* \"#utility.yul\":600:702   */\n    tag_309:\n        /* \"#utility.yul\":641:647   */\n      0x00\n        /* \"#utility.yul\":692:694   */\n      0x1f\n        /* \"#utility.yul\":688:695   */\n      not\n        /* \"#utility.yul\":683:685   */\n      0x1f\n        /* \"#utility.yul\":676:681   */\n      dup4\n        /* \"#utility.yul\":672:686   */\n      add\n        /* \"#utility.yul\":668:696   */\n      and\n        /* \"#utility.yul\":658:696   */\n      swap1\n      pop\n        /* \"#utility.yul\":600:702   */\n      swap2\n      swap1\n      pop\n      jump\t// out\n        /* \"#utility.yul\":708:1072   */\n    tag_310:\n        /* \"#utility.yul\":796:799   */\n      0x00\n        /* \"#utility.yul\":824:863   */\n      tag_378\n        /* \"#utility.yul\":857:862   */\n      dup3\n        /* \"#utility.yul\":824:863   */\n      tag_306\n      jump\t// in\n    tag_378:\n        /* \"#utility.yul\":879:950   */\n      tag_379\n        /* \"#utility.yul\":943:949   */\n      dup2\n        /* \"#utility.yul\":938:941   */\n      dup6\n        /* \"#utility.yul\":879:950   */\n      tag_307\n      jump\t// in\n    tag_379:\n        /* \"#utility.yul\":872:950   */\n      swap4\n      pop\n        /* \"#utility.yul\":959:1011   */\n      tag_380\n        /* \"#utility.yul\":1004:1010   */\n      dup2\n        /* \"#utility.yul\":999:1002   */\n      dup6\n        /* \"#utility.yul\":992:996   */\n      0x20\n        /* \"#utility.yul\":985:990   */\n      dup7\n        /* \"#utility.yul\":981:997   */\n      add\n        /* \"#utility.yul\":959:1011   */\n      tag_308\n      jump\t// in\n    tag_380:\n        /* \"#utility.yul\":1036:1065   */\n      tag_381\n        /* \"#utility.yul\":1058:1064   */\n      dup2\n        /* \"#utility.yul\":1036:1065   */\n      tag_309\n      jump\t// in\n    tag_381:\n        /* \"#utility.yul\":1031:1034   */\n      dup5\n        /* \"#utility.yul\":1027:1066   */\n      add\n        /* \"#utility.yul\":1020:1066   */\n      swap2\n      pop\n        /* \"#utility.yul\":800:1072   */\n      pop\n        /* \"#utility.yul\":708:1072   */\n      swap3\n      swap2\n      pop\n      pop\n      jump\t// out\n        /* \"#utility.yul\":1078:1391   */\n    tag_29:\n        /* \"#utility.yul\":1191:1195   */\n      0x00\n        /* \"#utility.yul\":1229:1231   */\n      0x20\n        /* \"#utility.yul\":1218:1227   */\n      dup3\n        /* \"#utility.yul\":1214:1232   */\n      add\n        /* \"#utility.yul\":1206:1232   */\n      swap1\n      pop\n        /* \"#utility.yul\":1278:1287   */\n      dup2\n        /* \"#utility.yul\":1272:1276   */\n      dup2\n        /* \"#utility.yul\":1268:1288   */\n      sub\n        /* \"#utility.yul\":1264:1265   */\n      0x00\n        /* \"#utility.yul\":1253:1262   */\n      dup4\n        /* \"#utility.yul\":1249:1266   */\n      add\n        /* \"#utility.yul\":1242:1289   */\n      mstore\n        /* \"#utility.yul\":1306:1384   */\n      tag_383\n        /* \"#utility.yul\":1379:1383   */\n      dup2\n        /* \"#utility.yul\":1370:1376   */\n      dup5\n        /* \"#utility.yul\":1306:1384   */\n      tag_310\n      jump\t// in\n    tag_383:\n        /* \"#utility.yul\":1298:1384   */\n      swap1\n      pop\n        /* \"#utility.yul\":1078:1391   */\n      swap3\n      swap2\n      pop\n      pop\n      jump\t// out\n        /* \"#utility.yul\":1478:1595   */\n    tag_312:\n        /* \"#utility.yul\":1587:1588   */\n      0x00\n        /* \"#utility.yul\":1584:1585   */\n      dup1\n        /* \"#utility.yul\":1577:1589   */\n      revert\n        /* \"#utility.yul\":1724:1850   */\n    tag_314:\n        /* \"#utility.yul\":1761:1768   */\n      0x00\n        /* \"#utility.yul\":1801:1843   */\n      0xffffffffffffffffffffffffffffffffffffffff\n        /* \"#utility.yul\":1794:1799   */\n      dup3\n        /* \"#utility.yul\":1790:1844   */\n      and\n        /* \"#utility.yul\":1779:1844   */\n      swap1\n      pop\n        /* \"#utility.yul\":1724:1850   */\n      swap2\n      swap1\n      pop\n      jump\t// out\n        /* \"#utility.yul\":1856:1952   */\n    tag_315:\n        /* \"#utility.yul\":1893:1900   */\n      0x00\n        /* \"#utility.yul\":1922:1946   */\n      tag_389\n        /* \"#utility.yul\":1940:1945   */\n      dup3\n        /* \"#utility.yul\":1922:1946   */\n      tag_314\n      jump\t// in\n    tag_389:\n        /* \"#utility.yul\":1911:1946   */\n      swap1\n      pop\n        /* \"#utility.yul\":1856:1952   */\n      swap2\n      swap1\n      pop\n      jump\t// out\n        /* \"#utility.yul\":1958:2080   */\n    tag_316:\n        /* \"#utility.yul\":2031:2055   */\n      tag_391\n        /* \"#utility.yul\":2049:2054   */\n      dup2\n        /* \"#utility.yul\":2031:2055   */\n      tag_315\n      jump\t// in\n    tag_391:\n        /* \"#utility.yul\":2024:2029   */\n      dup2\n        /* \"#utility.yul\":2021:2056   */\n      eq\n        /* \"#utility.yul\":2011:2074   */\n      tag_392\n      jumpi\n        /* \"#utility.yul\":2070:2071   */\n      0x00\n        /* \"#utility.yul\":2067:2068   */\n      dup1\n        /* \"#utility.yul\":2060:2072   */\n      revert\n        /* \"#utility.yul\":2011:2074   */\n    tag_392:\n        /* \"#utility.yul\":1958:2080   */\n      pop\n      jump\t// out\n        /* \"#utility.yul\":2086:2225   */\n    tag_317:\n        /* \"#utility.yul\":2132:2137   */\n      0x00\n        /* \"#utility.yul\":2170:2176   */\n      dup2\n        /* \"#utility.yul\":2157:2177   */\n      calldataload\n        /* \"#utility.yul\":2148:2177   */\n      swap1\n      pop\n        /* \"#utility.yul\":2186:2219   */\n      tag_394\n        /* \"#utility.yul\":2213:2218   */\n      dup2\n        /* \"#utility.yul\":2186:2219   */\n      tag_316\n      jump\t// in\n    tag_394:\n        /* \"#utility.yul\":2086:2225   */\n      swap3\n      swap2\n      pop\n      pop\n      jump\t// out\n        /* \"#utility.yul\":2231:2308   */\n    tag_318:\n        /* \"#utility.yul\":2268:2275   */\n      0x00\n        /* \"#utility.yul\":2297:2302   */\n      dup2\n        /* \"#utility.yul\":2286:2302   */\n      swap1\n      pop\n        /* \"#utility.yul\":2231:2308   */\n      swap2\n      swap1\n      pop\n      jump\t// out\n        /* \"#utility.yul\":2314:2436   */\n    tag_319:\n        /* \"#utility.yul\":2387:2411   */\n      tag_397\n        /* \"#utility.yul\":2405:2410   */\n      dup2\n        /* \"#utility.yul\":2387:2411   */\n      tag_318\n      jump\t// in\n    tag_397:\n        /* \"#utility.yul\":2380:2385   */\n      dup2\n        /* \"#utility.yul\":2377:2412   */\n      eq\n        /* \"#utility.yul\":2367:2430   */\n      tag_398\n      jumpi\n        /* \"#utility.yul\":2426:2427   */\n      0x00\n        /* \"#utility.yul\":2423:2424   */\n      dup1\n        /* \"#utility.yul\":2416:2428   */\n      revert\n        /* \"#utility.yul\":2367:2430   */\n    tag_398:\n        /* \"#utility.yul\":2314:2436   */\n      pop\n      jump\t// out\n        /* \"#utility.yul\":2442:2581   */\n    tag_320:\n        /* \"#utility.yul\":2488:2493   */\n      0x00\n        /* \"#utility.yul\":2526:2532   */\n      dup2\n        /* \"#utility.yul\":2513:2533   */\n      calldataload\n        /* \"#utility.yul\":2504:2533   */\n      swap1\n      pop\n        /* \"#utility.yul\":2542:2575   */\n      tag_400\n        /* \"#utility.yul\":2569:2574   */\n      dup2\n        /* \"#utility.yul\":2542:2575   */\n      tag_319\n      jump\t// in\n    tag_400:\n        /* \"#utility.yul\":2442:2581   */\n      swap3\n      swap2\n      pop\n      pop\n      jump\t// out\n        /* \"#utility.yul\":2587:3061   */\n    tag_32:\n        /* \"#utility.yul\":2655:2661   */\n      0x00\n        /* \"#utility.yul\":2663:2669   */\n      dup1\n        /* \"#utility.yul\":2712:2714   */\n      0x40\n        /* \"#utility.yul\":2700:2709   */\n      dup4\n        /* \"#utility.yul\":2691:2698   */\n      dup6\n        /* \"#utility.yul\":2687:2710   */\n      sub\n        /* \"#utility.yul\":2683:2715   */\n      slt\n        /* \"#utility.yul\":2680:2799   */\n      iszero\n      tag_402\n      jumpi\n        /* \"#utility.yul\":2718:2797   */\n      tag_403\n      tag_312\n      jump\t// in\n    tag_403:\n        /* \"#utility.yul\":2680:2799   */\n    tag_402:\n        /* \"#utility.yul\":2838:2839   */\n      0x00\n        /* \"#utility.yul\":2863:2916   */\n      tag_404\n        /* \"#utility.yul\":2908:2915   */\n      dup6\n        /* \"#utility.yul\":2899:2905   */\n      dup3\n        /* \"#utility.yul\":2888:2897   */\n      dup7\n        /* \"#utility.yul\":2884:2906   */\n      add\n        /* \"#utility.yul\":2863:2916   */\n      tag_317\n      jump\t// in\n    tag_404:\n        /* \"#utility.yul\":2853:2916   */\n      swap3\n      pop\n        /* \"#utility.yul\":2809:2926   */\n      pop\n        /* \"#utility.yul\":2965:2967   */\n      0x20\n        /* \"#utility.yul\":2991:3044   */\n      tag_405\n        /* \"#utility.yul\":3036:3043   */\n      dup6\n        /* \"#utility.yul\":3027:3033   */\n      dup3\n        /* \"#utility.yul\":3016:3025   */\n      dup7\n        /* \"#utility.yul\":3012:3034   */\n      add\n        /* \"#utility.yul\":2991:3044   */\n      tag_320\n      jump\t// in\n    tag_405:\n        /* \"#utility.yul\":2981:3044   */\n      swap2\n      pop\n        /* \"#utility.yul\":2936:3054   */\n      pop\n        /* \"#utility.yul\":2587:3061   */\n      swap3\n      pop\n      swap3\n      swap1\n      pop\n      jump\t// out\n        /* \"#utility.yul\":3067:3157   */\n    tag_321:\n        /* \"#utility.yul\":3101:3108   */\n      0x00\n        /* \"#utility.yul\":3144:3149   */\n      dup2\n        /* \"#utility.yul\":3137:3150   */\n      iszero\n        /* \"#utility.yul\":3130:3151   */\n      iszero\n        /* \"#utility.yul\":3119:3151   */\n      swap1\n      pop\n        /* \"#utility.yul\":3067:3157   */\n      swap2\n      swap1\n      pop\n      jump\t// out\n        /* \"#utility.yul\":3163:3272   */\n    tag_322:\n        /* \"#utility.yul\":3244:3265   */\n      tag_408\n        /* \"#utility.yul\":3259:3264   */\n      dup2\n        /* \"#utility.yul\":3244:3265   */\n      tag_321\n      jump\t// in\n    tag_408:\n        /* \"#utility.yul\":3239:3242   */\n      dup3\n        /* \"#utility.yul\":3232:3266   */\n      mstore\n        /* \"#utility.yul\":3163:3272   */\n      pop\n      pop\n      jump\t// out\n        /* \"#utility.yul\":3278:3488   */\n    tag_35:\n        /* \"#utility.yul\":3365:3369   */\n      0x00\n        /* \"#utility.yul\":3403:3405   */\n      0x20\n        /* \"#utility.yul\":3392:3401   */\n      dup3\n        /* \"#utility.yul\":3388:3406   */\n      add\n        /* \"#utility.yul\":3380:3406   */\n      swap1\n      pop\n        /* \"#utility.yul\":3416:3481   */\n      tag_410\n        /* \"#utility.yul\":3478:3479   */\n      0x00\n        /* \"#utility.yul\":3467:3476   */\n      dup4\n        /* \"#utility.yul\":3463:3480   */\n      add\n        /* \"#utility.yul\":3454:3460   */\n      dup5\n        /* \"#utility.yul\":3416:3481   */\n      tag_322\n      jump\t// in\n    tag_410:\n        /* \"#utility.yul\":3278:3488   */\n      swap3\n      swap2\n      pop\n      pop\n      jump\t// out\n        /* \"#utility.yul\":3494:3612   */\n    tag_323:\n        /* \"#utility.yul\":3581:3605   */\n      tag_412\n        /* \"#utility.yul\":3599:3604   */\n      dup2\n        /* \"#utility.yul\":3581:3605   */\n      tag_318\n      jump\t// in\n    tag_412:\n        /* \"#utility.yul\":3576:3579   */\n      dup3\n        /* \"#utility.yul\":3569:3606   */\n      mstore\n        /* \"#utility.yul\":3494:3612   */\n      pop\n      pop\n      jump\t// out\n        /* \"#utility.yul\":3618:3840   */\n    tag_39:\n        /* \"#utility.yul\":3711:3715   */\n      0x00\n        /* \"#utility.yul\":3749:3751   */\n      0x20\n        /* \"#utility.yul\":3738:3747   */\n      dup3\n        /* \"#utility.yul\":3734:3752   */\n      add\n        /* \"#utility.yul\":3726:3752   */\n      swap1\n      pop\n        /* \"#utility.yul\":3762:3833   */\n      tag_414\n        /* \"#utility.yul\":3830:3831   */\n      0x00\n        /* \"#utility.yul\":3819:3828   */\n      dup4\n        /* \"#utility.yul\":3815:3832   */\n      add\n        /* \"#utility.yul\":3806:3812   */\n      dup5\n        /* \"#utility.yul\":3762:3833   */\n      tag_323\n      jump\t// in\n    tag_414:\n        /* \"#utility.yul\":3618:3840   */\n      swap3\n      swap2\n      pop\n      pop\n      jump\t// out\n        /* \"#utility.yul\":3846:4465   */\n    tag_42:\n        /* \"#utility.yul\":3923:3929   */\n      0x00\n        /* \"#utility.yul\":3931:3937   */\n      dup1\n        /* \"#utility.yul\":3939:3945   */\n      0x00\n        /* \"#utility.yul\":3988:3990   */\n      0x60\n        /* \"#utility.yul\":3976:3985   */\n      dup5\n        /* \"#utility.yul\":3967:3974   */\n      dup7\n        /* \"#utility.yul\":3963:3986   */\n      sub\n        /* \"#utility.yul\":3959:3991   */\n      slt\n        /* \"#utility.yul\":3956:4075   */\n      iszero\n      tag_416\n      jumpi\n        /* \"#utility.yul\":3994:4073   */\n      tag_417\n      tag_312\n      jump\t// in\n    tag_417:\n        /* \"#utility.yul\":3956:4075   */\n    tag_416:\n        /* \"#utility.yul\":4114:4115   */\n      0x00\n        /* \"#utility.yul\":4139:4192   */\n      tag_418\n        /* \"#utility.yul\":4184:4191   */\n      dup7\n        /* \"#utility.yul\":4175:4181   */\n      dup3\n        /* \"#utility.yul\":4164:4173   */\n      dup8\n        /* \"#utility.yul\":4160:4182   */\n      add\n        /* \"#utility.yul\":4139:4192   */\n      tag_317\n      jump\t// in\n    tag_418:\n        /* \"#utility.yul\":4129:4192   */\n      swap4\n      pop\n        /* \"#utility.yul\":4085:4202   */\n      pop\n        /* \"#utility.yul\":4241:4243   */\n      0x20\n        /* \"#utility.yul\":4267:4320   */\n      tag_419\n        /* \"#utility.yul\":4312:4319   */\n      dup7\n        /* \"#utility.yul\":4303:4309   */\n      dup3\n        /* \"#utility.yul\":4292:4301   */\n      dup8\n        /* \"#utility.yul\":4288:4310   */\n      add\n        /* \"#utility.yul\":4267:4320   */\n      tag_317\n      jump\t// in\n    tag_419:\n        /* \"#utility.yul\":4257:4320   */\n      swap3\n      pop\n        /* \"#utility.yul\":4212:4330   */\n      pop\n        /* \"#utility.yul\":4369:4371   */\n      0x40\n        /* \"#utility.yul\":4395:4448   */\n      tag_420\n        /* \"#utility.yul\":4440:4447   */\n      dup7\n        /* \"#utility.yul\":4431:4437   */\n      dup3\n        /* \"#utility.yul\":4420:4429   */\n      dup8\n        /* \"#utility.yul\":4416:4438   */\n      add\n        /* \"#utility.yul\":4395:4448   */\n      tag_320\n      jump\t// in\n    tag_420:\n        /* \"#utility.yul\":4385:4448   */\n      swap2\n      pop\n        /* \"#utility.yul\":4340:4458   */\n      pop\n        /* \"#utility.yul\":3846:4465   */\n      swap3\n      pop\n      swap3\n      pop\n      swap3\n      jump\t// out\n        /* \"#utility.yul\":4471:4557   */\n    tag_324:\n        /* \"#utility.yul\":4506:4513   */\n      0x00\n        /* \"#utility.yul\":4546:4550   */\n      0xff\n        /* \"#utility.yul\":4539:4544   */\n      dup3\n        /* \"#utility.yul\":4535:4551   */\n      and\n        /* \"#utility.yul\":4524:4551   */\n      swap1\n      pop\n        /* \"#utility.yul\":4471:4557   */\n      swap2\n      swap1\n      pop\n      jump\t// out\n        /* \"#utility.yul\":4563:4675   */\n    tag_325:\n        /* \"#utility.yul\":4646:4668   */\n      tag_423\n        /* \"#utility.yul\":4662:4667   */\n      dup2\n        /* \"#utility.yul\":4646:4668   */\n      tag_324\n      jump\t// in\n    tag_423:\n        /* \"#utility.yul\":4641:4644   */\n      dup3\n        /* \"#utility.yul\":4634:4669   */\n      mstore\n        /* \"#utility.yul\":4563:4675   */\n      pop\n      pop\n      jump\t// out\n        /* \"#utility.yul\":4681:4895   */\n    tag_48:\n        /* \"#utility.yul\":4770:4774   */\n      0x00\n        /* \"#utility.yul\":4808:4810   */\n      0x20\n        /* \"#utility.yul\":4797:4806   */\n      dup3\n        /* \"#utility.yul\":4793:4811   */\n      add\n        /* \"#utility.yul\":4785:4811   */\n      swap1\n      pop\n        /* \"#utility.yul\":4821:4888   */\n      tag_425\n        /* \"#utility.yul\":4885:4886   */\n      0x00\n        /* \"#utility.yul\":4874:4883   */\n      dup4\n        /* \"#utility.yul\":4870:4887   */\n      add\n        /* \"#utility.yul\":4861:4867   */\n      dup5\n        /* \"#utility.yul\":4821:4888   */\n      tag_325\n      jump\t// in\n    tag_425:\n        /* \"#utility.yul\":4681:4895   */\n      swap3\n      swap2\n      pop\n      pop\n      jump\t// out\n        /* \"#utility.yul\":4901:5230   */\n    tag_59:\n        /* \"#utility.yul\":4960:4966   */\n      0x00\n        /* \"#utility.yul\":5009:5011   */\n      0x20\n        /* \"#utility.yul\":4997:5006   */\n      dup3\n        /* \"#utility.yul\":4988:4995   */\n      dup5\n        /* \"#utility.yul\":4984:5007   */\n      sub\n        /* \"#utility.yul\":4980:5012   */\n      slt\n        /* \"#utility.yul\":4977:5096   */\n      iszero\n      tag_427\n      jumpi\n        /* \"#utility.yul\":5015:5094   */\n      tag_428\n      tag_312\n      jump\t// in\n    tag_428:\n        /* \"#utility.yul\":4977:5096   */\n    tag_427:\n        /* \"#utility.yul\":5135:5136   */\n      0x00\n        /* \"#utility.yul\":5160:5213   */\n      tag_429\n        /* \"#utility.yul\":5205:5212   */\n      dup5\n        /* \"#utility.yul\":5196:5202   */\n      dup3\n        /* \"#utility.yul\":5185:5194   */\n      dup6\n        /* \"#utility.yul\":5181:5203   */\n      add\n        /* \"#utility.yul\":5160:5213   */\n      tag_317\n      jump\t// in\n    tag_429:\n        /* \"#utility.yul\":5150:5213   */\n      swap2\n      pop\n        /* \"#utility.yul\":5106:5223   */\n      pop\n        /* \"#utility.yul\":4901:5230   */\n      swap3\n      swap2\n      pop\n      pop\n      jump\t// out\n        /* \"#utility.yul\":5236:5354   */\n    tag_326:\n        /* \"#utility.yul\":5323:5347   */\n      tag_431\n        /* \"#utility.yul\":5341:5346   */\n      dup2\n        /* \"#utility.yul\":5323:5347   */\n      tag_315\n      jump\t// in\n    tag_431:\n        /* \"#utility.yul\":5318:5321   */\n      dup3\n        /* \"#utility.yul\":5311:5348   */\n      mstore\n        /* \"#utility.yul\":5236:5354   */\n      pop\n      pop\n      jump\t// out\n        /* \"#utility.yul\":5360:5582   */\n    tag_67:\n        /* \"#utility.yul\":5453:5457   */\n      0x00\n        /* \"#utility.yul\":5491:5493   */\n      0x20\n        /* \"#utility.yul\":5480:5489   */\n      dup3\n        /* \"#utility.yul\":5476:5494   */\n      add\n        /* \"#utility.yul\":5468:5494   */\n      swap1\n      pop\n        /* \"#utility.yul\":5504:5575   */\n      tag_433\n        /* \"#utility.yul\":5572:5573   */\n      0x00\n        /* \"#utility.yul\":5561:5570   */\n      dup4\n        /* \"#utility.yul\":5557:5574   */\n      add\n        /* \"#utility.yul\":5548:5554   */\n      dup5\n        /* \"#utility.yul\":5504:5575   */\n      tag_326\n      jump\t// in\n    tag_433:\n        /* \"#utility.yul\":5360:5582   */\n      swap3\n      swap2\n      pop\n      pop\n      jump\t// out\n        /* \"#utility.yul\":5588:5917   */\n    tag_84:\n        /* \"#utility.yul\":5647:5653   */\n      0x00\n        /* \"#utility.yul\":5696:5698   */\n      0x20\n        /* \"#utility.yul\":5684:5693   */\n      dup3\n        /* \"#utility.yul\":5675:5682   */\n      dup5\n        /* \"#utility.yul\":5671:5694   */\n      sub\n        /* \"#utility.yul\":5667:5699   */\n      slt\n        /* \"#utility.yul\":5664:5783   */\n      iszero\n      tag_435\n      jumpi\n        /* \"#utility.yul\":5702:5781   */\n      tag_436\n      tag_312\n      jump\t// in\n    tag_436:\n        /* \"#utility.yul\":5664:5783   */\n    tag_435:\n        /* \"#utility.yul\":5822:5823   */\n      0x00\n        /* \"#utility.yul\":5847:5900   */\n      tag_437\n        /* \"#utility.yul\":5892:5899   */\n      dup5\n        /* \"#utility.yul\":5883:5889   */\n      dup3\n        /* \"#utility.yul\":5872:5881   */\n      dup6\n        /* \"#utility.yul\":5868:5890   */\n      add\n        /* \"#utility.yul\":5847:5900   */\n      tag_320\n      jump\t// in\n    tag_437:\n        /* \"#utility.yul\":5837:5900   */\n      swap2\n      pop\n        /* \"#utility.yul\":5793:5910   */\n      pop\n        /* \"#utility.yul\":5588:5917   */\n      swap3\n      swap2\n      pop\n      pop\n      jump\t// out\n        /* \"#utility.yul\":5923:6397   */\n    tag_92:\n        /* \"#utility.yul\":5991:5997   */\n      0x00\n        /* \"#utility.yul\":5999:6005   */\n      dup1\n        /* \"#utility.yul\":6048:6050   */\n      0x40\n        /* \"#utility.yul\":6036:6045   */\n      dup4\n        /* \"#utility.yul\":6027:6034   */\n      dup6\n        /* \"#utility.yul\":6023:6046   */\n      sub\n        /* \"#utility.yul\":6019:6051   */\n      slt\n        /* \"#utility.yul\":6016:6135   */\n      iszero\n      tag_439\n      jumpi\n        /* \"#utility.yul\":6054:6133   */\n      tag_440\n      tag_312\n      jump\t// in\n    tag_440:\n        /* \"#utility.yul\":6016:6135   */\n    tag_439:\n        /* \"#utility.yul\":6174:6175   */\n      0x00\n        /* \"#utility.yul\":6199:6252   */\n      tag_441\n        /* \"#utility.yul\":6244:6251   */\n      dup6\n        /* \"#utility.yul\":6235:6241   */\n      dup3\n        /* \"#utility.yul\":6224:6233   */\n      dup7\n        /* \"#utility.yul\":6220:6242   */\n      add\n        /* \"#utility.yul\":6199:6252   */\n      tag_317\n      jump\t// in\n    tag_441:\n        /* \"#utility.yul\":6189:6252   */\n      swap3\n      pop\n        /* \"#utility.yul\":6145:6262   */\n      pop\n        /* \"#utility.yul\":6301:6303   */\n      0x20\n        /* \"#utility.yul\":6327:6380   */\n      tag_442\n        /* \"#utility.yul\":6372:6379   */\n      dup6\n        /* \"#utility.yul\":6363:6369   */\n      dup3\n        /* \"#utility.yul\":6352:6361   */\n      dup7\n        /* \"#utility.yul\":6348:6370   */\n      add\n        /* \"#utility.yul\":6327:6380   */\n      tag_317\n      jump\t// in\n    tag_442:\n        /* \"#utility.yul\":6317:6380   */\n      swap2\n      pop\n        /* \"#utility.yul\":6272:6390   */\n      pop\n        /* \"#utility.yul\":5923:6397   */\n      swap3\n      pop\n      swap3\n      swap1\n      pop\n      jump\t// out\n        /* \"#utility.yul\":6403:6511   */\n    tag_327:\n        /* \"#utility.yul\":6480:6504   */\n      tag_444\n        /* \"#utility.yul\":6498:6503   */\n      dup2\n        /* \"#utility.yul\":6480:6504   */\n      tag_318\n      jump\t// in\n    tag_444:\n        /* \"#utility.yul\":6475:6478   */\n      dup3\n        /* \"#utility.yul\":6468:6505   */\n      mstore\n        /* \"#utility.yul\":6403:6511   */\n      pop\n      pop\n      jump\t// out\n        /* \"#utility.yul\":6517:6653   */\n    tag_328:\n        /* \"#utility.yul\":6606:6612   */\n      0x00\n        /* \"#utility.yul\":6640:6645   */\n      dup2\n        /* \"#utility.yul\":6634:6646   */\n      mload\n        /* \"#utility.yul\":6624:6646   */\n      swap1\n      pop\n        /* \"#utility.yul\":6517:6653   */\n      swap2\n      swap1\n      pop\n      jump\t// out\n        /* \"#utility.yul\":6659:6855   */\n    tag_329:\n        /* \"#utility.yul\":6770:6781   */\n      0x00\n        /* \"#utility.yul\":6804:6810   */\n      dup3\n        /* \"#utility.yul\":6799:6802   */\n      dup3\n        /* \"#utility.yul\":6792:6811   */\n      mstore\n        /* \"#utility.yul\":6844:6848   */\n      0x20\n        /* \"#utility.yul\":6839:6842   */\n      dup3\n        /* \"#utility.yul\":6835:6849   */\n      add\n        /* \"#utility.yul\":6820:6849   */\n      swap1\n      pop\n        /* \"#utility.yul\":6659:6855   */\n      swap3\n      swap2\n      pop\n      pop\n      jump\t// out\n        /* \"#utility.yul\":6861:7015   */\n    tag_330:\n        /* \"#utility.yul\":6950:6954   */\n      0x00\n        /* \"#utility.yul\":6973:6976   */\n      dup2\n        /* \"#utility.yul\":6965:6976   */\n      swap1\n      pop\n        /* \"#utility.yul\":7003:7007   */\n      0x20\n        /* \"#utility.yul\":6998:7001   */\n      dup3\n        /* \"#utility.yul\":6994:7008   */\n      add\n        /* \"#utility.yul\":6986:7008   */\n      swap1\n      pop\n        /* \"#utility.yul\":6861:7015   */\n      swap2\n      swap1\n      pop\n      jump\t// out\n        /* \"#utility.yul\":7021:7129   */\n    tag_331:\n        /* \"#utility.yul\":7098:7122   */\n      tag_449\n        /* \"#utility.yul\":7116:7121   */\n      dup2\n        /* \"#utility.yul\":7098:7122   */\n      tag_315\n      jump\t// in\n    tag_449:\n        /* \"#utility.yul\":7093:7096   */\n      dup3\n        /* \"#utility.yul\":7086:7123   */\n      mstore\n        /* \"#utility.yul\":7021:7129   */\n      pop\n      pop\n      jump\t// out\n        /* \"#utility.yul\":7191:8038   */\n    tag_332:\n        /* \"#utility.yul\":7322:7326   */\n      0x80\n        /* \"#utility.yul\":7317:7320   */\n      dup3\n        /* \"#utility.yul\":7313:7327   */\n      add\n        /* \"#utility.yul\":7409:7413   */\n      0x00\n        /* \"#utility.yul\":7402:7407   */\n      dup3\n        /* \"#utility.yul\":7398:7414   */\n      add\n        /* \"#utility.yul\":7392:7415   */\n      mload\n        /* \"#utility.yul\":7428:7491   */\n      tag_451\n        /* \"#utility.yul\":7485:7489   */\n      0x00\n        /* \"#utility.yul\":7480:7483   */\n      dup6\n        /* \"#utility.yul\":7476:7490   */\n      add\n        /* \"#utility.yul\":7462:7474   */\n      dup3\n        /* \"#utility.yul\":7428:7491   */\n      tag_331\n      jump\t// in\n    tag_451:\n        /* \"#utility.yul\":7337:7501   */\n      pop\n        /* \"#utility.yul\":7585:7589   */\n      0x20\n        /* \"#utility.yul\":7578:7583   */\n      dup3\n        /* \"#utility.yul\":7574:7590   */\n      add\n        /* \"#utility.yul\":7568:7591   */\n      mload\n        /* \"#utility.yul\":7604:7667   */\n      tag_452\n        /* \"#utility.yul\":7661:7665   */\n      0x20\n        /* \"#utility.yul\":7656:7659   */\n      dup6\n        /* \"#utility.yul\":7652:7666   */\n      add\n        /* \"#utility.yul\":7638:7650   */\n      dup3\n        /* \"#utility.yul\":7604:7667   */\n      tag_327\n      jump\t// in\n    tag_452:\n        /* \"#utility.yul\":7511:7677   */\n      pop\n        /* \"#utility.yul\":7760:7764   */\n      0x40\n        /* \"#utility.yul\":7753:7758   */\n      dup3\n        /* \"#utility.yul\":7749:7765   */\n      add\n        /* \"#utility.yul\":7743:7766   */\n      mload\n        /* \"#utility.yul\":7779:7842   */\n      tag_453\n        /* \"#utility.yul\":7836:7840   */\n      0x40\n        /* \"#utility.yul\":7831:7834   */\n      dup6\n        /* \"#utility.yul\":7827:7841   */\n      add\n        /* \"#utility.yul\":7813:7825   */\n      dup3\n        /* \"#utility.yul\":7779:7842   */\n      tag_327\n      jump\t// in\n    tag_453:\n        /* \"#utility.yul\":7687:7852   */\n      pop\n        /* \"#utility.yul\":7939:7943   */\n      0x60\n        /* \"#utility.yul\":7932:7937   */\n      dup3\n        /* \"#utility.yul\":7928:7944   */\n      add\n        /* \"#utility.yul\":7922:7945   */\n      mload\n        /* \"#utility.yul\":7958:8021   */\n      tag_454\n        /* \"#utility.yul\":8015:8019   */\n      0x60\n        /* \"#utility.yul\":8010:8013   */\n      dup6\n        /* \"#utility.yul\":8006:8020   */\n      add\n        /* \"#utility.yul\":7992:8004   */\n      dup3\n        /* \"#utility.yul\":7958:8021   */\n      tag_327\n      jump\t// in\n    tag_454:\n        /* \"#utility.yul\":7862:8031   */\n      pop\n        /* \"#utility.yul\":7291:8038   */\n      pop\n        /* \"#utility.yul\":7191:8038   */\n      pop\n      pop\n      jump\t// out\n        /* \"#utility.yul\":8044:8311   */\n    tag_333:\n        /* \"#utility.yul\":8157:8167   */\n      0x00\n        /* \"#utility.yul\":8178:8268   */\n      tag_456\n        /* \"#utility.yul\":8264:8267   */\n      dup4\n        /* \"#utility.yul\":8256:8262   */\n      dup4\n        /* \"#utility.yul\":8178:8268   */\n      tag_332\n      jump\t// in\n    tag_456:\n        /* \"#utility.yul\":8300:8304   */\n      0x80\n        /* \"#utility.yul\":8295:8298   */\n      dup4\n        /* \"#utility.yul\":8291:8305   */\n      add\n        /* \"#utility.yul\":8277:8305   */\n      swap1\n      pop\n        /* \"#utility.yul\":8044:8311   */\n      swap3\n      swap2\n      pop\n      pop\n      jump\t// out\n        /* \"#utility.yul\":8317:8452   */\n    tag_334:\n        /* \"#utility.yul\":8409:8413   */\n      0x00\n        /* \"#utility.yul\":8441:8445   */\n      0x20\n        /* \"#utility.yul\":8436:8439   */\n      dup3\n        /* \"#utility.yul\":8432:8446   */\n      add\n        /* \"#utility.yul\":8424:8446   */\n      swap1\n      pop\n        /* \"#utility.yul\":8317:8452   */\n      swap2\n      swap1\n      pop\n      jump\t// out\n        /* \"#utility.yul\":8518:9406   */\n    tag_335:\n        /* \"#utility.yul\":8671:8674   */\n      0x00\n        /* \"#utility.yul\":8700:8776   */\n      tag_459\n        /* \"#utility.yul\":8770:8775   */\n      dup3\n        /* \"#utility.yul\":8700:8776   */\n      tag_328\n      jump\t// in\n    tag_459:\n        /* \"#utility.yul\":8792:8890   */\n      tag_460\n        /* \"#utility.yul\":8883:8889   */\n      dup2\n        /* \"#utility.yul\":8878:8881   */\n      dup6\n        /* \"#utility.yul\":8792:8890   */\n      tag_329\n      jump\t// in\n    tag_460:\n        /* \"#utility.yul\":8785:8890   */\n      swap4\n      pop\n        /* \"#utility.yul\":8914:8992   */\n      tag_461\n        /* \"#utility.yul\":8986:8991   */\n      dup4\n        /* \"#utility.yul\":8914:8992   */\n      tag_330\n      jump\t// in\n    tag_461:\n        /* \"#utility.yul\":9015:9022   */\n      dup1\n        /* \"#utility.yul\":9046:9047   */\n      0x00\n        /* \"#utility.yul\":9031:9381   */\n    tag_462:\n        /* \"#utility.yul\":9056:9062   */\n      dup4\n        /* \"#utility.yul\":9053:9054   */\n      dup2\n        /* \"#utility.yul\":9050:9063   */\n      lt\n        /* \"#utility.yul\":9031:9381   */\n      iszero\n      tag_464\n      jumpi\n        /* \"#utility.yul\":9132:9138   */\n      dup2\n        /* \"#utility.yul\":9126:9139   */\n      mload\n        /* \"#utility.yul\":9159:9266   */\n      tag_465\n        /* \"#utility.yul\":9262:9265   */\n      dup9\n        /* \"#utility.yul\":9247:9260   */\n      dup3\n        /* \"#utility.yul\":9159:9266   */\n      tag_333\n      jump\t// in\n    tag_465:\n        /* \"#utility.yul\":9152:9266   */\n      swap8\n      pop\n        /* \"#utility.yul\":9289:9371   */\n      tag_466\n        /* \"#utility.yul\":9364:9370   */\n      dup4\n        /* \"#utility.yul\":9289:9371   */\n      tag_334\n      jump\t// in\n    tag_466:\n        /* \"#utility.yul\":9279:9371   */\n      swap3\n      pop\n        /* \"#utility.yul\":9091:9381   */\n      pop\n        /* \"#utility.yul\":9078:9079   */\n      0x01\n        /* \"#utility.yul\":9075:9076   */\n      dup2\n        /* \"#utility.yul\":9071:9080   */\n      add\n        /* \"#utility.yul\":9066:9080   */\n      swap1\n      pop\n        /* \"#utility.yul\":9031:9381   */\n      jump(tag_462)\n    tag_464:\n        /* \"#utility.yul\":9035:9049   */\n      pop\n        /* \"#utility.yul\":9397:9400   */\n      dup6\n        /* \"#utility.yul\":9390:9400   */\n      swap4\n      pop\n        /* \"#utility.yul\":8676:9406   */\n      pop\n      pop\n      pop\n        /* \"#utility.yul\":8518:9406   */\n      swap3\n      swap2\n      pop\n      pop\n      jump\t// out\n        /* \"#utility.yul\":9486:10188   */\n    tag_336:\n        /* \"#utility.yul\":9617:9620   */\n      0x00\n        /* \"#utility.yul\":9653:9657   */\n      0x40\n        /* \"#utility.yul\":9648:9651   */\n      dup4\n        /* \"#utility.yul\":9644:9658   */\n      add\n        /* \"#utility.yul\":9748:9752   */\n      0x00\n        /* \"#utility.yul\":9741:9746   */\n      dup4\n        /* \"#utility.yul\":9737:9753   */\n      add\n        /* \"#utility.yul\":9731:9754   */\n      mload\n        /* \"#utility.yul\":9767:9830   */\n      tag_468\n        /* \"#utility.yul\":9824:9828   */\n      0x00\n        /* \"#utility.yul\":9819:9822   */\n      dup7\n        /* \"#utility.yul\":9815:9829   */\n      add\n        /* \"#utility.yul\":9801:9813   */\n      dup3\n        /* \"#utility.yul\":9767:9830   */\n      tag_327\n      jump\t// in\n    tag_468:\n        /* \"#utility.yul\":9668:9840   */\n      pop\n        /* \"#utility.yul\":9924:9928   */\n      0x20\n        /* \"#utility.yul\":9917:9922   */\n      dup4\n        /* \"#utility.yul\":9913:9929   */\n      add\n        /* \"#utility.yul\":9907:9930   */\n      mload\n        /* \"#utility.yul\":9977:9980   */\n      dup5\n        /* \"#utility.yul\":9971:9975   */\n      dup3\n        /* \"#utility.yul\":9967:9981   */\n      sub\n        /* \"#utility.yul\":9960:9964   */\n      0x20\n        /* \"#utility.yul\":9955:9958   */\n      dup7\n        /* \"#utility.yul\":9951:9965   */\n      add\n        /* \"#utility.yul\":9944:9982   */\n      mstore\n        /* \"#utility.yul\":10003:10150   */\n      tag_469\n        /* \"#utility.yul\":10145:10149   */\n      dup3\n        /* \"#utility.yul\":10131:10143   */\n      dup3\n        /* \"#utility.yul\":10003:10150   */\n      tag_335\n      jump\t// in\n    tag_469:\n        /* \"#utility.yul\":9995:10150   */\n      swap2\n      pop\n        /* \"#utility.yul\":9850:10161   */\n      pop\n        /* \"#utility.yul\":10178:10182   */\n      dup1\n        /* \"#utility.yul\":10171:10182   */\n      swap2\n      pop\n        /* \"#utility.yul\":9622:10188   */\n      pop\n        /* \"#utility.yul\":9486:10188   */\n      swap3\n      swap2\n      pop\n      pop\n      jump\t// out\n        /* \"#utility.yul\":10194:10591   */\n    tag_99:\n        /* \"#utility.yul\":10349:10353   */\n      0x00\n        /* \"#utility.yul\":10387:10389   */\n      0x20\n        /* \"#utility.yul\":10376:10385   */\n      dup3\n        /* \"#utility.yul\":10372:10390   */\n      add\n        /* \"#utility.yul\":10364:10390   */\n      swap1\n      pop\n        /* \"#utility.yul\":10436:10445   */\n      dup2\n        /* \"#utility.yul\":10430:10434   */\n      dup2\n        /* \"#utility.yul\":10426:10446   */\n      sub\n        /* \"#utility.yul\":10422:10423   */\n      0x00\n        /* \"#utility.yul\":10411:10420   */\n      dup4\n        /* \"#utility.yul\":10407:10424   */\n      add\n        /* \"#utility.yul\":10400:10447   */\n      mstore\n        /* \"#utility.yul\":10464:10584   */\n      tag_471\n        /* \"#utility.yul\":10579:10583   */\n      dup2\n        /* \"#utility.yul\":10570:10576   */\n      dup5\n        /* \"#utility.yul\":10464:10584   */\n      tag_336\n      jump\t// in\n    tag_471:\n        /* \"#utility.yul\":10456:10584   */\n      swap1\n      pop\n        /* \"#utility.yul\":10194:10591   */\n      swap3\n      swap2\n      pop\n      pop\n      jump\t// out\n        /* \"#utility.yul\":10597:11071   */\n    tag_102:\n        /* \"#utility.yul\":10665:10671   */\n      0x00\n        /* \"#utility.yul\":10673:10679   */\n      dup1\n        /* \"#utility.yul\":10722:10724   */\n      0x40\n        /* \"#utility.yul\":10710:10719   */\n      dup4\n        /* \"#utility.yul\":10701:10708   */\n      dup6\n        /* \"#utility.yul\":10697:10720   */\n      sub\n        /* \"#utility.yul\":10693:10725   */\n      slt\n        /* \"#utility.yul\":10690:10809   */\n      iszero\n      tag_473\n      jumpi\n        /* \"#utility.yul\":10728:10807   */\n      tag_474\n      tag_312\n      jump\t// in\n    tag_474:\n        /* \"#utility.yul\":10690:10809   */\n    tag_473:\n        /* \"#utility.yul\":10848:10849   */\n      0x00\n        /* \"#utility.yul\":10873:10926   */\n      tag_475\n        /* \"#utility.yul\":10918:10925   */\n      dup6\n        /* \"#utility.yul\":10909:10915   */\n      dup3\n        /* \"#utility.yul\":10898:10907   */\n      dup7\n        /* \"#utility.yul\":10894:10916   */\n      add\n        /* \"#utility.yul\":10873:10926   */\n      tag_320\n      jump\t// in\n    tag_475:\n        /* \"#utility.yul\":10863:10926   */\n      swap3\n      pop\n        /* \"#utility.yul\":10819:10936   */\n      pop\n        /* \"#utility.yul\":10975:10977   */\n      0x20\n        /* \"#utility.yul\":11001:11054   */\n      tag_476\n        /* \"#utility.yul\":11046:11053   */\n      dup6\n        /* \"#utility.yul\":11037:11043   */\n      dup3\n        /* \"#utility.yul\":11026:11035   */\n      dup7\n        /* \"#utility.yul\":11022:11044   */\n      add\n        /* \"#utility.yul\":11001:11054   */\n      tag_320\n      jump\t// in\n    tag_476:\n        /* \"#utility.yul\":10991:11054   */\n      swap2\n      pop\n        /* \"#utility.yul\":10946:11064   */\n      pop\n        /* \"#utility.yul\":10597:11071   */\n      swap3\n      pop\n      swap3\n      swap1\n      pop\n      jump\t// out\n        /* \"#utility.yul\":11077:11257   */\n    tag_337:\n        /* \"#utility.yul\":11125:11202   */\n      0x4e487b7100000000000000000000000000000000000000000000000000000000\n        /* \"#utility.yul\":11122:11123   */\n      0x00\n        /* \"#utility.yul\":11115:11203   */\n      mstore\n        /* \"#utility.yul\":11222:11226   */\n      0x22\n        /* \"#utility.yul\":11219:11220   */\n      0x04\n        /* \"#utility.yul\":11212:11227   */\n      mstore\n        /* \"#utility.yul\":11246:11250   */\n      0x24\n        /* \"#utility.yul\":11243:11244   */\n      0x00\n        /* \"#utility.yul\":11236:11251   */\n      revert\n        /* \"#utility.yul\":11263:11583   */\n    tag_109:\n        /* \"#utility.yul\":11307:11313   */\n      0x00\n        /* \"#utility.yul\":11344:11345   */\n      0x02\n        /* \"#utility.yul\":11338:11342   */\n      dup3\n        /* \"#utility.yul\":11334:11346   */\n      div\n        /* \"#utility.yul\":11324:11346   */\n      swap1\n      pop\n        /* \"#utility.yul\":11391:11392   */\n      0x01\n        /* \"#utility.yul\":11385:11389   */\n      dup3\n        /* \"#utility.yul\":11381:11393   */\n      and\n        /* \"#utility.yul\":11412:11430   */\n      dup1\n        /* \"#utility.yul\":11402:11483   */\n      tag_479\n      jumpi\n        /* \"#utility.yul\":11468:11472   */\n      0x7f\n        /* \"#utility.yul\":11460:11466   */\n      dup3\n        /* \"#utility.yul\":11456:11473   */\n      and\n        /* \"#utility.yul\":11446:11473   */\n      swap2\n      pop\n        /* \"#utility.yul\":11402:11483   */\n    tag_479:\n        /* \"#utility.yul\":11530:11532   */\n      0x20\n        /* \"#utility.yul\":11522:11528   */\n      dup3\n        /* \"#utility.yul\":11519:11533   */\n      lt\n        /* \"#utility.yul\":11499:11517   */\n      dup2\n        /* \"#utility.yul\":11496:11534   */\n      sub\n        /* \"#utility.yul\":11493:11577   */\n      tag_480\n      jumpi\n        /* \"#utility.yul\":11549:11567   */\n      tag_481\n      tag_337\n      jump\t// in\n    tag_481:\n        /* \"#utility.yul\":11493:11577   */\n    tag_480:\n        /* \"#utility.yul\":11314:11583   */\n      pop\n        /* \"#utility.yul\":11263:11583   */\n      swap2\n      swap1\n      pop\n      jump\t// out\n        /* \"#utility.yul\":11589:11825   */\n    tag_338:\n        /* \"#utility.yul\":11729:11763   */\n      0x4d657472613a20596f752063616e6e6f74207370656e642074686174206d7563\n        /* \"#utility.yul\":11725:11726   */\n      0x00\n        /* \"#utility.yul\":11717:11723   */\n      dup3\n        /* \"#utility.yul\":11713:11727   */\n      add\n        /* \"#utility.yul\":11706:11764   */\n      mstore\n        /* \"#utility.yul\":11798:11817   */\n      0x68206f6e2074686973206163636f756e74000000000000000000000000000000\n        /* \"#utility.yul\":11793:11795   */\n      0x20\n        /* \"#utility.yul\":11785:11791   */\n      dup3\n        /* \"#utility.yul\":11781:11796   */\n      add\n        /* \"#utility.yul\":11774:11818   */\n      mstore\n        /* \"#utility.yul\":11589:11825   */\n      pop\n      jump\t// out\n        /* \"#utility.yul\":11831:12197   */\n    tag_339:\n        /* \"#utility.yul\":11973:11976   */\n      0x00\n        /* \"#utility.yul\":11994:12061   */\n      tag_484\n        /* \"#utility.yul\":12058:12060   */\n      0x31\n        /* \"#utility.yul\":12053:12056   */\n      dup4\n        /* \"#utility.yul\":11994:12061   */\n      tag_307\n      jump\t// in\n    tag_484:\n        /* \"#utility.yul\":11987:12061   */\n      swap2\n      pop\n        /* \"#utility.yul\":12070:12163   */\n      tag_485\n        /* \"#utility.yul\":12159:12162   */\n      dup3\n        /* \"#utility.yul\":12070:12163   */\n      tag_338\n      jump\t// in\n    tag_485:\n        /* \"#utility.yul\":12188:12190   */\n      0x40\n        /* \"#utility.yul\":12183:12186   */\n      dup3\n        /* \"#utility.yul\":12179:12191   */\n      add\n        /* \"#utility.yul\":12172:12191   */\n      swap1\n      pop\n        /* \"#utility.yul\":11831:12197   */\n      swap2\n      swap1\n      pop\n      jump\t// out\n        /* \"#utility.yul\":12203:12622   */\n    tag_121:\n        /* \"#utility.yul\":12369:12373   */\n      0x00\n        /* \"#utility.yul\":12407:12409   */\n      0x20\n        /* \"#utility.yul\":12396:12405   */\n      dup3\n        /* \"#utility.yul\":12392:12410   */\n      add\n        /* \"#utility.yul\":12384:12410   */\n      swap1\n      pop\n        /* \"#utility.yul\":12456:12465   */\n      dup2\n        /* \"#utility.yul\":12450:12454   */\n      dup2\n        /* \"#utility.yul\":12446:12466   */\n      sub\n        /* \"#utility.yul\":12442:12443   */\n      0x00\n        /* \"#utility.yul\":12431:12440   */\n      dup4\n        /* \"#utility.yul\":12427:12444   */\n      add\n        /* \"#utility.yul\":12420:12467   */\n      mstore\n        /* \"#utility.yul\":12484:12615   */\n      tag_487\n        /* \"#utility.yul\":12610:12614   */\n      dup2\n        /* \"#utility.yul\":12484:12615   */\n      tag_339\n      jump\t// in\n    tag_487:\n        /* \"#utility.yul\":12476:12615   */\n      swap1\n      pop\n        /* \"#utility.yul\":12203:12622   */\n      swap2\n      swap1\n      pop\n      jump\t// out\n        /* \"#utility.yul\":12628:12808   */\n    tag_340:\n        /* \"#utility.yul\":12676:12753   */\n      0x4e487b7100000000000000000000000000000000000000000000000000000000\n        /* \"#utility.yul\":12673:12674   */\n      0x00\n        /* \"#utility.yul\":12666:12754   */\n      mstore\n        /* \"#utility.yul\":12773:12777   */\n      0x11\n        /* \"#utility.yul\":12770:12771   */\n      0x04\n        /* \"#utility.yul\":12763:12778   */\n      mstore\n        /* \"#utility.yul\":12797:12801   */\n      0x24\n        /* \"#utility.yul\":12794:12795   */\n      0x00\n        /* \"#utility.yul\":12787:12802   */\n      revert\n        /* \"#utility.yul\":12814:13005   */\n    tag_126:\n        /* \"#utility.yul\":12854:12858   */\n      0x00\n        /* \"#utility.yul\":12874:12894   */\n      tag_490\n        /* \"#utility.yul\":12892:12893   */\n      dup3\n        /* \"#utility.yul\":12874:12894   */\n      tag_318\n      jump\t// in\n    tag_490:\n        /* \"#utility.yul\":12869:12894   */\n      swap2\n      pop\n        /* \"#utility.yul\":12908:12928   */\n      tag_491\n        /* \"#utility.yul\":12926:12927   */\n      dup4\n        /* \"#utility.yul\":12908:12928   */\n      tag_318\n      jump\t// in\n    tag_491:\n        /* \"#utility.yul\":12903:12928   */\n      swap3\n      pop\n        /* \"#utility.yul\":12947:12948   */\n      dup3\n        /* \"#utility.yul\":12944:12945   */\n      dup3\n        /* \"#utility.yul\":12941:12949   */\n      lt\n        /* \"#utility.yul\":12938:12972   */\n      iszero\n      tag_492\n      jumpi\n        /* \"#utility.yul\":12952:12970   */\n      tag_493\n      tag_340\n      jump\t// in\n    tag_493:\n        /* \"#utility.yul\":12938:12972   */\n    tag_492:\n        /* \"#utility.yul\":12997:12998   */\n      dup3\n        /* \"#utility.yul\":12994:12995   */\n      dup3\n        /* \"#utility.yul\":12990:12999   */\n      sub\n        /* \"#utility.yul\":12982:12999   */\n      swap1\n      pop\n        /* \"#utility.yul\":12814:13005   */\n      swap3\n      swap2\n      pop\n      pop\n      jump\t// out\n        /* \"#utility.yul\":13011:13316   */\n    tag_131:\n        /* \"#utility.yul\":13051:13054   */\n      0x00\n        /* \"#utility.yul\":13070:13090   */\n      tag_495\n        /* \"#utility.yul\":13088:13089   */\n      dup3\n        /* \"#utility.yul\":13070:13090   */\n      tag_318\n      jump\t// in\n    tag_495:\n        /* \"#utility.yul\":13065:13090   */\n      swap2\n      pop\n        /* \"#utility.yul\":13104:13124   */\n      tag_496\n        /* \"#utility.yul\":13122:13123   */\n      dup4\n        /* \"#utility.yul\":13104:13124   */\n      tag_318\n      jump\t// in\n    tag_496:\n        /* \"#utility.yul\":13099:13124   */\n      swap3\n      pop\n        /* \"#utility.yul\":13258:13259   */\n      dup3\n        /* \"#utility.yul\":13190:13256   */\n      0xffffffffffffffffffffffffffffffffffffffffffffffffffffffffffffffff\n        /* \"#utility.yul\":13186:13260   */\n      sub\n        /* \"#utility.yul\":13183:13184   */\n      dup3\n        /* \"#utility.yul\":13180:13261   */\n      gt\n        /* \"#utility.yul\":13177:13284   */\n      iszero\n      tag_497\n      jumpi\n        /* \"#utility.yul\":13264:13282   */\n      tag_498\n      tag_340\n      jump\t// in\n    tag_498:\n        /* \"#utility.yul\":13177:13284   */\n    tag_497:\n        /* \"#utility.yul\":13308:13309   */\n      dup3\n        /* \"#utility.yul\":13305:13306   */\n      dup3\n        /* \"#utility.yul\":13301:13310   */\n      add\n        /* \"#utility.yul\":13294:13310   */\n      swap1\n      pop\n        /* \"#utility.yul\":13011:13316   */\n      swap3\n      swap2\n      pop\n      pop\n      jump\t// out\n        /* \"#utility.yul\":13322:13551   */\n    tag_341:\n        /* \"#utility.yul\":13462:13496   */\n      0x4f776e61626c653a206f6e6c79206f776e65722063616e2063616c6c20746869\n        /* \"#utility.yul\":13458:13459   */\n      0x00\n        /* \"#utility.yul\":13450:13456   */\n      dup3\n        /* \"#utility.yul\":13446:13460   */\n      add\n        /* \"#utility.yul\":13439:13497   */\n      mstore\n        /* \"#utility.yul\":13531:13543   */\n      0x732066756e6374696f6e00000000000000000000000000000000000000000000\n        /* \"#utility.yul\":13526:13528   */\n      0x20\n        /* \"#utility.yul\":13518:13524   */\n      dup3\n        /* \"#utility.yul\":13514:13529   */\n      add\n        /* \"#utility.yul\":13507:13544   */\n      mstore\n        /* \"#utility.yul\":13322:13551   */\n      pop\n      jump\t// out\n        /* \"#utility.yul\":13557:13923   */\n    tag_342:\n        /* \"#utility.yul\":13699:13702   */\n      0x00\n        /* \"#utility.yul\":13720:13787   */\n      tag_501\n        /* \"#utility.yul\":13784:13786   */\n      0x2a\n        /* \"#utility.yul\":13779:13782   */\n      dup4\n        /* \"#utility.yul\":13720:13787   */\n      tag_307\n      jump\t// in\n    tag_501:\n        /* \"#utility.yul\":13713:13787   */\n      swap2\n      pop\n        /* \"#utility.yul\":13796:13889   */\n      tag_502\n        /* \"#utility.yul\":13885:13888   */\n      dup3\n        /* \"#utility.yul\":13796:13889   */\n      tag_341\n      jump\t// in\n    tag_502:\n        /* \"#utility.yul\":13914:13916   */\n      0x40\n        /* \"#utility.yul\":13909:13912   */\n      dup3\n        /* \"#utility.yul\":13905:13917   */\n      add\n        /* \"#utility.yul\":13898:13917   */\n      swap1\n      pop\n        /* \"#utility.yul\":13557:13923   */\n      swap2\n      swap1\n      pop\n      jump\t// out\n        /* \"#utility.yul\":13929:14348   */\n    tag_135:\n        /* \"#utility.yul\":14095:14099   */\n      0x00\n        /* \"#utility.yul\":14133:14135   */\n      0x20\n        /* \"#utility.yul\":14122:14131   */\n      dup3\n        /* \"#utility.yul\":14118:14136   */\n      add\n        /* \"#utility.yul\":14110:14136   */\n      swap1\n      pop\n        /* \"#utility.yul\":14182:14191   */\n      dup2\n        /* \"#utility.yul\":14176:14180   */\n      dup2\n        /* \"#utility.yul\":14172:14192   */\n      sub\n        /* \"#utility.yul\":14168:14169   */\n      0x00\n        /* \"#utility.yul\":14157:14166   */\n      dup4\n        /* \"#utility.yul\":14153:14170   */\n      add\n        /* \"#utility.yul\":14146:14193   */\n      mstore\n        /* \"#utility.yul\":14210:14341   */\n      tag_504\n        /* \"#utility.yul\":14336:14340   */\n      dup2\n        /* \"#utility.yul\":14210:14341   */\n      tag_342\n      jump\t// in\n    tag_504:\n        /* \"#utility.yul\":14202:14341   */\n      swap1\n      pop\n        /* \"#utility.yul\":13929:14348   */\n      swap2\n      swap1\n      pop\n      jump\t// out\n        /* \"#utility.yul\":14354:14578   */\n    tag_343:\n        /* \"#utility.yul\":14494:14528   */\n      0x4d657472613a2043616e6e6f74207374616b65206d6f7265207468616e20796f\n        /* \"#utility.yul\":14490:14491   */\n      0x00\n        /* \"#utility.yul\":14482:14488   */\n      dup3\n        /* \"#utility.yul\":14478:14492   */\n      add\n        /* \"#utility.yul\":14471:14529   */\n      mstore\n        /* \"#utility.yul\":14563:14570   */\n      0x75206f776e000000000000000000000000000000000000000000000000000000\n        /* \"#utility.yul\":14558:14560   */\n      0x20\n        /* \"#utility.yul\":14550:14556   */\n      dup3\n        /* \"#utility.yul\":14546:14561   */\n      add\n        /* \"#utility.yul\":14539:14571   */\n      mstore\n        /* \"#utility.yul\":14354:14578   */\n      pop\n      jump\t// out\n        /* \"#utility.yul\":14584:14950   */\n    tag_344:\n        /* \"#utility.yul\":14726:14729   */\n      0x00\n        /* \"#utility.yul\":14747:14814   */\n      tag_507\n        /* \"#utility.yul\":14811:14813   */\n      0x25\n        /* \"#utility.yul\":14806:14809   */\n      dup4\n        /* \"#utility.yul\":14747:14814   */\n      tag_307\n      jump\t// in\n    tag_507:\n        /* \"#utility.yul\":14740:14814   */\n      swap2\n      pop\n        /* \"#utility.yul\":14823:14916   */\n      tag_508\n        /* \"#utility.yul\":14912:14915   */\n      dup3\n        /* \"#utility.yul\":14823:14916   */\n      tag_343\n      jump\t// in\n    tag_508:\n        /* \"#utility.yul\":14941:14943   */\n      0x40\n        /* \"#utility.yul\":14936:14939   */\n      dup3\n        /* \"#utility.yul\":14932:14944   */\n      add\n        /* \"#utility.yul\":14925:14944   */\n      swap1\n      pop\n        /* \"#utility.yul\":14584:14950   */\n      swap2\n      swap1\n      pop\n      jump\t// out\n        /* \"#utility.yul\":14956:15375   */\n    tag_165:\n        /* \"#utility.yul\":15122:15126   */\n      0x00\n        /* \"#utility.yul\":15160:15162   */\n      0x20\n        /* \"#utility.yul\":15149:15158   */\n      dup3\n        /* \"#utility.yul\":15145:15163   */\n      add\n        /* \"#utility.yul\":15137:15163   */\n      swap1\n      pop\n        /* \"#utility.yul\":15209:15218   */\n      dup2\n        /* \"#utility.yul\":15203:15207   */\n      dup2\n        /* \"#utility.yul\":15199:15219   */\n      sub\n        /* \"#utility.yul\":15195:15196   */\n      0x00\n        /* \"#utility.yul\":15184:15193   */\n      dup4\n        /* \"#utility.yul\":15180:15197   */\n      add\n        /* \"#utility.yul\":15173:15220   */\n      mstore\n        /* \"#utility.yul\":15237:15368   */\n      tag_510\n        /* \"#utility.yul\":15363:15367   */\n      dup2\n        /* \"#utility.yul\":15237:15368   */\n      tag_344\n      jump\t// in\n    tag_510:\n        /* \"#utility.yul\":15229:15368   */\n      swap1\n      pop\n        /* \"#utility.yul\":14956:15375   */\n      swap2\n      swap1\n      pop\n      jump\t// out\n        /* \"#utility.yul\":15381:15561   */\n    tag_177:\n        /* \"#utility.yul\":15429:15506   */\n      0x4e487b7100000000000000000000000000000000000000000000000000000000\n        /* \"#utility.yul\":15426:15427   */\n      0x00\n        /* \"#utility.yul\":15419:15507   */\n      mstore\n        /* \"#utility.yul\":15526:15530   */\n      0x32\n        /* \"#utility.yul\":15523:15524   */\n      0x04\n        /* \"#utility.yul\":15516:15531   */\n      mstore\n        /* \"#utility.yul\":15550:15554   */\n      0x24\n        /* \"#utility.yul\":15547:15548   */\n      0x00\n        /* \"#utility.yul\":15540:15555   */\n      revert\n        /* \"#utility.yul\":15567:15801   */\n    tag_345:\n        /* \"#utility.yul\":15707:15741   */\n      0x4d657472613a20617070726f76652063616e6e6f7420626520646f6e65206672\n        /* \"#utility.yul\":15703:15704   */\n      0x00\n        /* \"#utility.yul\":15695:15701   */\n      dup3\n        /* \"#utility.yul\":15691:15705   */\n      add\n        /* \"#utility.yul\":15684:15742   */\n      mstore\n        /* \"#utility.yul\":15776:15793   */\n      0x6f6d207a65726f20616464726573730000000000000000000000000000000000\n        /* \"#utility.yul\":15771:15773   */\n      0x20\n        /* \"#utility.yul\":15763:15769   */\n      dup3\n        /* \"#utility.yul\":15759:15774   */\n      add\n        /* \"#utility.yul\":15752:15794   */\n      mstore\n        /* \"#utility.yul\":15567:15801   */\n      pop\n      jump\t// out\n        /* \"#utility.yul\":15807:16173   */\n    tag_346:\n        /* \"#utility.yul\":15949:15952   */\n      0x00\n        /* \"#utility.yul\":15970:16037   */\n      tag_514\n        /* \"#utility.yul\":16034:16036   */\n      0x2f\n        /* \"#utility.yul\":16029:16032   */\n      dup4\n        /* \"#utility.yul\":15970:16037   */\n      tag_307\n      jump\t// in\n    tag_514:\n        /* \"#utility.yul\":15963:16037   */\n      swap2\n      pop\n        /* \"#utility.yul\":16046:16139   */\n      tag_515\n        /* \"#utility.yul\":16135:16138   */\n      dup3\n        /* \"#utility.yul\":16046:16139   */\n      tag_345\n      jump\t// in\n    tag_515:\n        /* \"#utility.yul\":16164:16166   */\n      0x40\n        /* \"#utility.yul\":16159:16162   */\n      dup3\n        /* \"#utility.yul\":16155:16167   */\n      add\n        /* \"#utility.yul\":16148:16167   */\n      swap1\n      pop\n        /* \"#utility.yul\":15807:16173   */\n      swap2\n      swap1\n      pop\n      jump\t// out\n        /* \"#utility.yul\":16179:16598   */\n    tag_208:\n        /* \"#utility.yul\":16345:16349   */\n      0x00\n        /* \"#utility.yul\":16383:16385   */\n      0x20\n        /* \"#utility.yul\":16372:16381   */\n      dup3\n        /* \"#utility.yul\":16368:16386   */\n      add\n        /* \"#utility.yul\":16360:16386   */\n      swap1\n      pop\n        /* \"#utility.yul\":16432:16441   */\n      dup2\n        /* \"#utility.yul\":16426:16430   */\n      dup2\n        /* \"#utility.yul\":16422:16442   */\n      sub\n        /* \"#utility.yul\":16418:16419   */\n      0x00\n        /* \"#utility.yul\":16407:16416   */\n      dup4\n        /* \"#utility.yul\":16403:16420   */\n      add\n        /* \"#utility.yul\":16396:16443   */\n      mstore\n        /* \"#utility.yul\":16460:16591   */\n      tag_517\n        /* \"#utility.yul\":16586:16590   */\n      dup2\n        /* \"#utility.yul\":16460:16591   */\n      tag_346\n      jump\t// in\n    tag_517:\n        /* \"#utility.yul\":16452:16591   */\n      swap1\n      pop\n        /* \"#utility.yul\":16179:16598   */\n      swap2\n      swap1\n      pop\n      jump\t// out\n        /* \"#utility.yul\":16604:16831   */\n    tag_347:\n        /* \"#utility.yul\":16744:16778   */\n      0x4d657472613a20617070726f76652063616e6e6f7420626520746f207a65726f\n        /* \"#utility.yul\":16740:16741   */\n      0x00\n        /* \"#utility.yul\":16732:16738   */\n      dup3\n        /* \"#utility.yul\":16728:16742   */\n      add\n        /* \"#utility.yul\":16721:16779   */\n      mstore\n        /* \"#utility.yul\":16813:16823   */\n      0x2061646472657373000000000000000000000000000000000000000000000000\n        /* \"#utility.yul\":16808:16810   */\n      0x20\n        /* \"#utility.yul\":16800:16806   */\n      dup3\n        /* \"#utility.yul\":16796:16811   */\n      add\n        /* \"#utility.yul\":16789:16824   */\n      mstore\n        /* \"#utility.yul\":16604:16831   */\n      pop\n      jump\t// out\n        /* \"#utility.yul\":16837:17203   */\n    tag_348:\n        /* \"#utility.yul\":16979:16982   */\n      0x00\n        /* \"#utility.yul\":17000:17067   */\n      tag_520\n        /* \"#utility.yul\":17064:17066   */\n      0x28\n        /* \"#utility.yul\":17059:17062   */\n      dup4\n        /* \"#utility.yul\":17000:17067   */\n      tag_307\n      jump\t// in\n    tag_520:\n        /* \"#utility.yul\":16993:17067   */\n      swap2\n      pop\n        /* \"#utility.yul\":17076:17169   */\n      tag_521\n        /* \"#utility.yul\":17165:17168   */\n      dup3\n        /* \"#utility.yul\":17076:17169   */\n      tag_347\n      jump\t// in\n    tag_521:\n        /* \"#utility.yul\":17194:17196   */\n      0x40\n        /* \"#utility.yul\":17189:17192   */\n      dup3\n        /* \"#utility.yul\":17185:17197   */\n      add\n        /* \"#utility.yul\":17178:17197   */\n      swap1\n      pop\n        /* \"#utility.yul\":16837:17203   */\n      swap2\n      swap1\n      pop\n      jump\t// out\n        /* \"#utility.yul\":17209:17628   */\n    tag_211:\n        /* \"#utility.yul\":17375:17379   */\n      0x00\n        /* \"#utility.yul\":17413:17415   */\n      0x20\n        /* \"#utility.yul\":17402:17411   */\n      dup3\n        /* \"#utility.yul\":17398:17416   */\n      add\n        /* \"#utility.yul\":17390:17416   */\n      swap1\n      pop\n        /* \"#utility.yul\":17462:17471   */\n      dup2\n        /* \"#utility.yul\":17456:17460   */\n      dup2\n        /* \"#utility.yul\":17452:17472   */\n      sub\n        /* \"#utility.yul\":17448:17449   */\n      0x00\n        /* \"#utility.yul\":17437:17446   */\n      dup4\n        /* \"#utility.yul\":17433:17450   */\n      add\n        /* \"#utility.yul\":17426:17473   */\n      mstore\n        /* \"#utility.yul\":17490:17621   */\n      tag_523\n        /* \"#utility.yul\":17616:17620   */\n      dup2\n        /* \"#utility.yul\":17490:17621   */\n      tag_348\n      jump\t// in\n    tag_523:\n        /* \"#utility.yul\":17482:17621   */\n      swap1\n      pop\n        /* \"#utility.yul\":17209:17628   */\n      swap2\n      swap1\n      pop\n      jump\t// out\n        /* \"#utility.yul\":17634:17854   */\n    tag_349:\n        /* \"#utility.yul\":17774:17808   */\n      0x4d657472613a207472616e736665722066726f6d207a65726f20616464726573\n        /* \"#utility.yul\":17770:17771   */\n      0x00\n        /* \"#utility.yul\":17762:17768   */\n      dup3\n        /* \"#utility.yul\":17758:17772   */\n      add\n        /* \"#utility.yul\":17751:17809   */\n      mstore\n        /* \"#utility.yul\":17843:17846   */\n      0x7300000000000000000000000000000000000000000000000000000000000000\n        /* \"#utility.yul\":17838:17840   */\n      0x20\n        /* \"#utility.yul\":17830:17836   */\n      dup3\n        /* \"#utility.yul\":17826:17841   */\n      add\n        /* \"#utility.yul\":17819:17847   */\n      mstore\n        /* \"#utility.yul\":17634:17854   */\n      pop\n      jump\t// out\n        /* \"#utility.yul\":17860:18226   */\n    tag_350:\n        /* \"#utility.yul\":18002:18005   */\n      0x00\n        /* \"#utility.yul\":18023:18090   */\n      tag_526\n        /* \"#utility.yul\":18087:18089   */\n      0x21\n        /* \"#utility.yul\":18082:18085   */\n      dup4\n        /* \"#utility.yul\":18023:18090   */\n      tag_307\n      jump\t// in\n    tag_526:\n        /* \"#utility.yul\":18016:18090   */\n      swap2\n      pop\n        /* \"#utility.yul\":18099:18192   */\n      tag_527\n        /* \"#utility.yul\":18188:18191   */\n      dup3\n        /* \"#utility.yul\":18099:18192   */\n      tag_349\n      jump\t// in\n    tag_527:\n        /* \"#utility.yul\":18217:18219   */\n      0x40\n        /* \"#utility.yul\":18212:18215   */\n      dup3\n        /* \"#utility.yul\":18208:18220   */\n      add\n        /* \"#utility.yul\":18201:18220   */\n      swap1\n      pop\n        /* \"#utility.yul\":17860:18226   */\n      swap2\n      swap1\n      pop\n      jump\t// out\n        /* \"#utility.yul\":18232:18651   */\n    tag_216:\n        /* \"#utility.yul\":18398:18402   */\n      0x00\n        /* \"#utility.yul\":18436:18438   */\n      0x20\n        /* \"#utility.yul\":18425:18434   */\n      dup3\n        /* \"#utility.yul\":18421:18439   */\n      add\n        /* \"#utility.yul\":18413:18439   */\n      swap1\n      pop\n        /* \"#utility.yul\":18485:18494   */\n      dup2\n        /* \"#utility.yul\":18479:18483   */\n      dup2\n        /* \"#utility.yul\":18475:18495   */\n      sub\n        /* \"#utility.yul\":18471:18472   */\n      0x00\n        /* \"#utility.yul\":18460:18469   */\n      dup4\n        /* \"#utility.yul\":18456:18473   */\n      add\n        /* \"#utility.yul\":18449:18496   */\n      mstore\n        /* \"#utility.yul\":18513:18644   */\n      tag_529\n        /* \"#utility.yul\":18639:18643   */\n      dup2\n        /* \"#utility.yul\":18513:18644   */\n      tag_350\n      jump\t// in\n    tag_529:\n        /* \"#utility.yul\":18505:18644   */\n      swap1\n      pop\n        /* \"#utility.yul\":18232:18651   */\n      swap2\n      swap1\n      pop\n      jump\t// out\n        /* \"#utility.yul\":18657:18838   */\n    tag_351:\n        /* \"#utility.yul\":18797:18830   */\n      0x4d657472613a207472616e7366657220746f207a65726f206164647265737300\n        /* \"#utility.yul\":18793:18794   */\n      0x00\n        /* \"#utility.yul\":18785:18791   */\n      dup3\n        /* \"#utility.yul\":18781:18795   */\n      add\n        /* \"#utility.yul\":18774:18831   */\n      mstore\n        /* \"#utility.yul\":18657:18838   */\n      pop\n      jump\t// out\n        /* \"#utility.yul\":18844:19210   */\n    tag_352:\n        /* \"#utility.yul\":18986:18989   */\n      0x00\n        /* \"#utility.yul\":19007:19074   */\n      tag_532\n        /* \"#utility.yul\":19071:19073   */\n      0x1f\n        /* \"#utility.yul\":19066:19069   */\n      dup4\n        /* \"#utility.yul\":19007:19074   */\n      tag_307\n      jump\t// in\n    tag_532:\n        /* \"#utility.yul\":19000:19074   */\n      swap2\n      pop\n        /* \"#utility.yul\":19083:19176   */\n      tag_533\n        /* \"#utility.yul\":19172:19175   */\n      dup3\n        /* \"#utility.yul\":19083:19176   */\n      tag_351\n      jump\t// in\n    tag_533:\n        /* \"#utility.yul\":19201:19203   */\n      0x20\n        /* \"#utility.yul\":19196:19199   */\n      dup3\n        /* \"#utility.yul\":19192:19204   */\n      add\n        /* \"#utility.yul\":19185:19204   */\n      swap1\n      pop\n        /* \"#utility.yul\":18844:19210   */\n      swap2\n      swap1\n      pop\n      jump\t// out\n        /* \"#utility.yul\":19216:19635   */\n    tag_219:\n        /* \"#utility.yul\":19382:19386   */\n      0x00\n        /* \"#utility.yul\":19420:19422   */\n      0x20\n        /* \"#utility.yul\":19409:19418   */\n      dup3\n        /* \"#utility.yul\":19405:19423   */\n      add\n        /* \"#utility.yul\":19397:19423   */\n      swap1\n      pop\n        /* \"#utility.yul\":19469:19478   */\n      dup2\n        /* \"#utility.yul\":19463:19467   */\n      dup2\n        /* \"#utility.yul\":19459:19479   */\n      sub\n        /* \"#utility.yul\":19455:19456   */\n      0x00\n        /* \"#utility.yul\":19444:19453   */\n      dup4\n        /* \"#utility.yul\":19440:19457   */\n      add\n        /* \"#utility.yul\":19433:19480   */\n      mstore\n        /* \"#utility.yul\":19497:19628   */\n      tag_535\n        /* \"#utility.yul\":19623:19627   */\n      dup2\n        /* \"#utility.yul\":19497:19628   */\n      tag_352\n      jump\t// in\n    tag_535:\n        /* \"#utility.yul\":19489:19628   */\n      swap1\n      pop\n        /* \"#utility.yul\":19216:19635   */\n      swap2\n      swap1\n      pop\n      jump\t// out\n        /* \"#utility.yul\":19641:19877   */\n    tag_353:\n        /* \"#utility.yul\":19781:19815   */\n      0x4d657472613a2063616e74207472616e73666572206d6f7265207468616e2079\n        /* \"#utility.yul\":19777:19778   */\n      0x00\n        /* \"#utility.yul\":19769:19775   */\n      dup3\n        /* \"#utility.yul\":19765:19779   */\n      add\n        /* \"#utility.yul\":19758:19816   */\n      mstore\n        /* \"#utility.yul\":19850:19869   */\n      0x6f7572206163636f756e7420686f6c6473000000000000000000000000000000\n        /* \"#utility.yul\":19845:19847   */\n      0x20\n        /* \"#utility.yul\":19837:19843   */\n      dup3\n        /* \"#utility.yul\":19833:19848   */\n      add\n        /* \"#utility.yul\":19826:19870   */\n      mstore\n        /* \"#utility.yul\":19641:19877   */\n      pop\n      jump\t// out\n        /* \"#utility.yul\":19883:20249   */\n    tag_354:\n        /* \"#utility.yul\":20025:20028   */\n      0x00\n        /* \"#utility.yul\":20046:20113   */\n      tag_538\n        /* \"#utility.yul\":20110:20112   */\n      0x31\n        /* \"#utility.yul\":20105:20108   */\n      dup4\n        /* \"#utility.yul\":20046:20113   */\n      tag_307\n      jump\t// in\n    tag_538:\n        /* \"#utility.yul\":20039:20113   */\n      swap2\n      pop\n        /* \"#utility.yul\":20122:20215   */\n      tag_539\n        /* \"#utility.yul\":20211:20214   */\n      dup3\n        /* \"#utility.yul\":20122:20215   */\n      tag_353\n      jump\t// in\n    tag_539:\n        /* \"#utility.yul\":20240:20242   */\n      0x40\n        /* \"#utility.yul\":20235:20238   */\n      dup3\n        /* \"#utility.yul\":20231:20243   */\n      add\n        /* \"#utility.yul\":20224:20243   */\n      swap1\n      pop\n        /* \"#utility.yul\":19883:20249   */\n      swap2\n      swap1\n      pop\n      jump\t// out\n        /* \"#utility.yul\":20255:20674   */\n    tag_222:\n        /* \"#utility.yul\":20421:20425   */\n      0x00\n        /* \"#utility.yul\":20459:20461   */\n      0x20\n        /* \"#utility.yul\":20448:20457   */\n      dup3\n        /* \"#utility.yul\":20444:20462   */\n      add\n        /* \"#utility.yul\":20436:20462   */\n      swap1\n      pop\n        /* \"#utility.yul\":20508:20517   */\n      dup2\n        /* \"#utility.yul\":20502:20506   */\n      dup2\n        /* \"#utility.yul\":20498:20518   */\n      sub\n        /* \"#utility.yul\":20494:20495   */\n      0x00\n        /* \"#utility.yul\":20483:20492   */\n      dup4\n        /* \"#utility.yul\":20479:20496   */\n      add\n        /* \"#utility.yul\":20472:20519   */\n      mstore\n        /* \"#utility.yul\":20536:20667   */\n      tag_541\n        /* \"#utility.yul\":20662:20666   */\n      dup2\n        /* \"#utility.yul\":20536:20667   */\n      tag_354\n      jump\t// in\n    tag_541:\n        /* \"#utility.yul\":20528:20667   */\n      swap1\n      pop\n        /* \"#utility.yul\":20255:20674   */\n      swap2\n      swap1\n      pop\n      jump\t// out\n        /* \"#utility.yul\":20680:20901   */\n    tag_355:\n        /* \"#utility.yul\":20820:20854   */\n      0x4d657472613a2063616e6e6f74206d696e7420746f207a65726f206164647265\n        /* \"#utility.yul\":20816:20817   */\n      0x00\n        /* \"#utility.yul\":20808:20814   */\n      dup3\n        /* \"#utility.yul\":20804:20818   */\n      add\n        /* \"#utility.yul\":20797:20855   */\n      mstore\n        /* \"#utility.yul\":20889:20893   */\n      0x7373000000000000000000000000000000000000000000000000000000000000\n        /* \"#utility.yul\":20884:20886   */\n      0x20\n        /* \"#utility.yul\":20876:20882   */\n      dup3\n        /* \"#utility.yul\":20872:20887   */\n      add\n        /* \"#utility.yul\":20865:20894   */\n      mstore\n        /* \"#utility.yul\":20680:20901   */\n      pop\n      jump\t// out\n        /* \"#utility.yul\":20907:21273   */\n    tag_356:\n        /* \"#utility.yul\":21049:21052   */\n      0x00\n        /* \"#utility.yul\":21070:21137   */\n      tag_544\n        /* \"#utility.yul\":21134:21136   */\n      0x22\n        /* \"#utility.yul\":21129:21132   */\n      dup4\n        /* \"#utility.yul\":21070:21137   */\n      tag_307\n      jump\t// in\n    tag_544:\n        /* \"#utility.yul\":21063:21137   */\n      swap2\n      pop\n        /* \"#utility.yul\":21146:21239   */\n      tag_545\n        /* \"#utility.yul\":21235:21238   */\n      dup3\n        /* \"#utility.yul\":21146:21239   */\n      tag_355\n      jump\t// in\n    tag_545:\n        /* \"#utility.yul\":21264:21266   */\n      0x40\n        /* \"#utility.yul\":21259:21262   */\n      dup3\n        /* \"#utility.yul\":21255:21267   */\n      add\n        /* \"#utility.yul\":21248:21267   */\n      swap1\n      pop\n        /* \"#utility.yul\":20907:21273   */\n      swap2\n      swap1\n      pop\n      jump\t// out\n        /* \"#utility.yul\":21279:21698   */\n    tag_229:\n        /* \"#utility.yul\":21445:21449   */\n      0x00\n        /* \"#utility.yul\":21483:21485   */\n      0x20\n        /* \"#utility.yul\":21472:21481   */\n      dup3\n        /* \"#utility.yul\":21468:21486   */\n      add\n        /* \"#utility.yul\":21460:21486   */\n      swap1\n      pop\n        /* \"#utility.yul\":21532:21541   */\n      dup2\n        /* \"#utility.yul\":21526:21530   */\n      dup2\n        /* \"#utility.yul\":21522:21542   */\n      sub\n        /* \"#utility.yul\":21518:21519   */\n      0x00\n        /* \"#utility.yul\":21507:21516   */\n      dup4\n        /* \"#utility.yul\":21503:21520   */\n      add\n        /* \"#utility.yul\":21496:21543   */\n      mstore\n        /* \"#utility.yul\":21560:21691   */\n      tag_547\n        /* \"#utility.yul\":21686:21690   */\n      dup2\n        /* \"#utility.yul\":21560:21691   */\n      tag_356\n      jump\t// in\n    tag_547:\n        /* \"#utility.yul\":21552:21691   */\n      swap1\n      pop\n        /* \"#utility.yul\":21279:21698   */\n      swap2\n      swap1\n      pop\n      jump\t// out\n        /* \"#utility.yul\":21704:21927   */\n    tag_357:\n        /* \"#utility.yul\":21844:21878   */\n      0x4d657472613a2063616e6e6f74206275726e2066726f6d207a65726f20616464\n        /* \"#utility.yul\":21840:21841   */\n      0x00\n        /* \"#utility.yul\":21832:21838   */\n      dup3\n        /* \"#utility.yul\":21828:21842   */\n      add\n        /* \"#utility.yul\":21821:21879   */\n      mstore\n        /* \"#utility.yul\":21913:21919   */\n      0x7265737300000000000000000000000000000000000000000000000000000000\n        /* \"#utility.yul\":21908:21910   */\n      0x20\n        /* \"#utility.yul\":21900:21906   */\n      dup3\n        /* \"#utility.yul\":21896:21911   */\n      add\n        /* \"#utility.yul\":21889:21920   */\n      mstore\n        /* \"#utility.yul\":21704:21927   */\n      pop\n      jump\t// out\n        /* \"#utility.yul\":21933:22299   */\n    tag_358:\n        /* \"#utility.yul\":22075:22078   */\n      0x00\n        /* \"#utility.yul\":22096:22163   */\n      tag_550\n        /* \"#utility.yul\":22160:22162   */\n      0x24\n        /* \"#utility.yul\":22155:22158   */\n      dup4\n        /* \"#utility.yul\":22096:22163   */\n      tag_307\n      jump\t// in\n    tag_550:\n        /* \"#utility.yul\":22089:22163   */\n      swap2\n      pop\n        /* \"#utility.yul\":22172:22265   */\n      tag_551\n        /* \"#utility.yul\":22261:22264   */\n      dup3\n        /* \"#utility.yul\":22172:22265   */\n      tag_357\n      jump\t// in\n    tag_551:\n        /* \"#utility.yul\":22290:22292   */\n      0x40\n        /* \"#utility.yul\":22285:22288   */\n      dup3\n        /* \"#utility.yul\":22281:22293   */\n      add\n        /* \"#utility.yul\":22274:22293   */\n      swap1\n      pop\n        /* \"#utility.yul\":21933:22299   */\n      swap2\n      swap1\n      pop\n      jump\t// out\n        /* \"#utility.yul\":22305:22724   */\n    tag_236:\n        /* \"#utility.yul\":22471:22475   */\n      0x00\n        /* \"#utility.yul\":22509:22511   */\n      0x20\n        /* \"#utility.yul\":22498:22507   */\n      dup3\n        /* \"#utility.yul\":22494:22512   */\n      add\n        /* \"#utility.yul\":22486:22512   */\n      swap1\n      pop\n        /* \"#utility.yul\":22558:22567   */\n      dup2\n        /* \"#utility.yul\":22552:22556   */\n      dup2\n        /* \"#utility.yul\":22548:22568   */\n      sub\n        /* \"#utility.yul\":22544:22545   */\n      0x00\n        /* \"#utility.yul\":22533:22542   */\n      dup4\n        /* \"#utility.yul\":22529:22546   */\n      add\n        /* \"#utility.yul\":22522:22569   */\n      mstore\n        /* \"#utility.yul\":22586:22717   */\n      tag_553\n        /* \"#utility.yul\":22712:22716   */\n      dup2\n        /* \"#utility.yul\":22586:22717   */\n      tag_358\n      jump\t// in\n    tag_553:\n        /* \"#utility.yul\":22578:22717   */\n      swap1\n      pop\n        /* \"#utility.yul\":22305:22724   */\n      swap2\n      swap1\n      pop\n      jump\t// out\n        /* \"#utility.yul\":22730:22962   */\n    tag_359:\n        /* \"#utility.yul\":22870:22904   */\n      0x4d657472613a2043616e6e6f74206275726e206d6f7265207468616e20746865\n        /* \"#utility.yul\":22866:22867   */\n      0x00\n        /* \"#utility.yul\":22858:22864   */\n      dup3\n        /* \"#utility.yul\":22854:22868   */\n      add\n        /* \"#utility.yul\":22847:22905   */\n      mstore\n        /* \"#utility.yul\":22939:22954   */\n      0x206163636f756e74206f776e7300000000000000000000000000000000000000\n        /* \"#utility.yul\":22934:22936   */\n      0x20\n        /* \"#utility.yul\":22926:22932   */\n      dup3\n        /* \"#utility.yul\":22922:22937   */\n      add\n        /* \"#utility.yul\":22915:22955   */\n      mstore\n        /* \"#utility.yul\":22730:22962   */\n      pop\n      jump\t// out\n        /* \"#utility.yul\":22968:23334   */\n    tag_360:\n        /* \"#utility.yul\":23110:23113   */\n      0x00\n        /* \"#utility.yul\":23131:23198   */\n      tag_556\n        /* \"#utility.yul\":23195:23197   */\n      0x2d\n        /* \"#utility.yul\":23190:23193   */\n      dup4\n        /* \"#utility.yul\":23131:23198   */\n      tag_307\n      jump\t// in\n    tag_556:\n        /* \"#utility.yul\":23124:23198   */\n      swap2\n      pop\n        /* \"#utility.yul\":23207:23300   */\n      tag_557\n        /* \"#utility.yul\":23296:23299   */\n      dup3\n        /* \"#utility.yul\":23207:23300   */\n      tag_359\n      jump\t// in\n    tag_557:\n        /* \"#utility.yul\":23325:23327   */\n      0x40\n        /* \"#utility.yul\":23320:23323   */\n      dup3\n        /* \"#utility.yul\":23316:23328   */\n      add\n        /* \"#utility.yul\":23309:23328   */\n      swap1\n      pop\n        /* \"#utility.yul\":22968:23334   */\n      swap2\n      swap1\n      pop\n      jump\t// out\n        /* \"#utility.yul\":23340:23759   */\n    tag_239:\n        /* \"#utility.yul\":23506:23510   */\n      0x00\n        /* \"#utility.yul\":23544:23546   */\n      0x20\n        /* \"#utility.yul\":23533:23542   */\n      dup3\n        /* \"#utility.yul\":23529:23547   */\n      add\n        /* \"#utility.yul\":23521:23547   */\n      swap1\n      pop\n        /* \"#utility.yul\":23593:23602   */\n      dup2\n        /* \"#utility.yul\":23587:23591   */\n      dup2\n        /* \"#utility.yul\":23583:23603   */\n      sub\n        /* \"#utility.yul\":23579:23580   */\n      0x00\n        /* \"#utility.yul\":23568:23577   */\n      dup4\n        /* \"#utility.yul\":23564:23581   */\n      add\n        /* \"#utility.yul\":23557:23604   */\n      mstore\n        /* \"#utility.yul\":23621:23752   */\n      tag_559\n        /* \"#utility.yul\":23747:23751   */\n      dup2\n        /* \"#utility.yul\":23621:23752   */\n      tag_360\n      jump\t// in\n    tag_559:\n        /* \"#utility.yul\":23613:23752   */\n      swap1\n      pop\n        /* \"#utility.yul\":23340:23759   */\n      swap2\n      swap1\n      pop\n      jump\t// out\n        /* \"#utility.yul\":23765:23935   */\n    tag_361:\n        /* \"#utility.yul\":23905:23927   */\n      0x43616e6e6f74207374616b65206e6f7468696e67000000000000000000000000\n        /* \"#utility.yul\":23901:23902   */\n      0x00\n        /* \"#utility.yul\":23893:23899   */\n      dup3\n        /* \"#utility.yul\":23889:23903   */\n      add\n        /* \"#utility.yul\":23882:23928   */\n      mstore\n        /* \"#utility.yul\":23765:23935   */\n      pop\n      jump\t// out\n        /* \"#utility.yul\":23941:24307   */\n    tag_362:\n        /* \"#utility.yul\":24083:24086   */\n      0x00\n        /* \"#utility.yul\":24104:24171   */\n      tag_562\n        /* \"#utility.yul\":24168:24170   */\n      0x14\n        /* \"#utility.yul\":24163:24166   */\n      dup4\n        /* \"#utility.yul\":24104:24171   */\n      tag_307\n      jump\t// in\n    tag_562:\n        /* \"#utility.yul\":24097:24171   */\n      swap2\n      pop\n        /* \"#utility.yul\":24180:24273   */\n      tag_563\n        /* \"#utility.yul\":24269:24272   */\n      dup3\n        /* \"#utility.yul\":24180:24273   */\n      tag_361\n      jump\t// in\n    tag_563:\n        /* \"#utility.yul\":24298:24300   */\n      0x20\n        /* \"#utility.yul\":24293:24296   */\n      dup3\n        /* \"#utility.yul\":24289:24301   */\n      add\n        /* \"#utility.yul\":24282:24301   */\n      swap1\n      pop\n        /* \"#utility.yul\":23941:24307   */\n      swap2\n      swap1\n      pop\n      jump\t// out\n        /* \"#utility.yul\":24313:24732   */\n    tag_246:\n        /* \"#utility.yul\":24479:24483   */\n      0x00\n        /* \"#utility.yul\":24517:24519   */\n      0x20\n        /* \"#utility.yul\":24506:24515   */\n      dup3\n        /* \"#utility.yul\":24502:24520   */\n      add\n        /* \"#utility.yul\":24494:24520   */\n      swap1\n      pop\n        /* \"#utility.yul\":24566:24575   */\n      dup2\n        /* \"#utility.yul\":24560:24564   */\n      dup2\n        /* \"#utility.yul\":24556:24576   */\n      sub\n        /* \"#utility.yul\":24552:24553   */\n      0x00\n        /* \"#utility.yul\":24541:24550   */\n      dup4\n        /* \"#utility.yul\":24537:24554   */\n      add\n        /* \"#utility.yul\":24530:24577   */\n      mstore\n        /* \"#utility.yul\":24594:24725   */\n      tag_565\n        /* \"#utility.yul\":24720:24724   */\n      dup2\n        /* \"#utility.yul\":24594:24725   */\n      tag_362\n      jump\t// in\n    tag_565:\n        /* \"#utility.yul\":24586:24725   */\n      swap1\n      pop\n        /* \"#utility.yul\":24313:24732   */\n      swap2\n      swap1\n      pop\n      jump\t// out\n        /* \"#utility.yul\":24738:25180   */\n    tag_255:\n        /* \"#utility.yul\":24887:24891   */\n      0x00\n        /* \"#utility.yul\":24925:24927   */\n      0x60\n        /* \"#utility.yul\":24914:24923   */\n      dup3\n        /* \"#utility.yul\":24910:24928   */\n      add\n        /* \"#utility.yul\":24902:24928   */\n      swap1\n      pop\n        /* \"#utility.yul\":24938:25009   */\n      tag_567\n        /* \"#utility.yul\":25006:25007   */\n      0x00\n        /* \"#utility.yul\":24995:25004   */\n      dup4\n        /* \"#utility.yul\":24991:25008   */\n      add\n        /* \"#utility.yul\":24982:24988   */\n      dup7\n        /* \"#utility.yul\":24938:25009   */\n      tag_323\n      jump\t// in\n    tag_567:\n        /* \"#utility.yul\":25019:25091   */\n      tag_568\n        /* \"#utility.yul\":25087:25089   */\n      0x20\n        /* \"#utility.yul\":25076:25085   */\n      dup4\n        /* \"#utility.yul\":25072:25090   */\n      add\n        /* \"#utility.yul\":25063:25069   */\n      dup6\n        /* \"#utility.yul\":25019:25091   */\n      tag_323\n      jump\t// in\n    tag_568:\n        /* \"#utility.yul\":25101:25173   */\n      tag_569\n        /* \"#utility.yul\":25169:25171   */\n      0x40\n        /* \"#utility.yul\":25158:25167   */\n      dup4\n        /* \"#utility.yul\":25154:25172   */\n      add\n        /* \"#utility.yul\":25145:25151   */\n      dup5\n        /* \"#utility.yul\":25101:25173   */\n      tag_323\n      jump\t// in\n    tag_569:\n        /* \"#utility.yul\":24738:25180   */\n      swap5\n      swap4\n      pop\n      pop\n      pop\n      pop\n      jump\t// out\n        /* \"#utility.yul\":25186:25366   */\n    tag_363:\n        /* \"#utility.yul\":25234:25311   */\n      0x4e487b7100000000000000000000000000000000000000000000000000000000\n        /* \"#utility.yul\":25231:25232   */\n      0x00\n        /* \"#utility.yul\":25224:25312   */\n      mstore\n        /* \"#utility.yul\":25331:25335   */\n      0x12\n        /* \"#utility.yul\":25328:25329   */\n      0x04\n        /* \"#utility.yul\":25321:25336   */\n      mstore\n        /* \"#utility.yul\":25355:25359   */\n      0x24\n        /* \"#utility.yul\":25352:25353   */\n      0x00\n        /* \"#utility.yul\":25345:25360   */\n      revert\n        /* \"#utility.yul\":25372:25557   */\n    tag_259:\n        /* \"#utility.yul\":25412:25413   */\n      0x00\n        /* \"#utility.yul\":25429:25449   */\n      tag_572\n        /* \"#utility.yul\":25447:25448   */\n      dup3\n        /* \"#utility.yul\":25429:25449   */\n      tag_318\n      jump\t// in\n    tag_572:\n        /* \"#utility.yul\":25424:25449   */\n      swap2\n      pop\n        /* \"#utility.yul\":25463:25483   */\n      tag_573\n        /* \"#utility.yul\":25481:25482   */\n      dup4\n        /* \"#utility.yul\":25463:25483   */\n      tag_318\n      jump\t// in\n    tag_573:\n        /* \"#utility.yul\":25458:25483   */\n      swap3\n      pop\n        /* \"#utility.yul\":25502:25503   */\n      dup3\n        /* \"#utility.yul\":25492:25527   */\n      tag_574\n      jumpi\n        /* \"#utility.yul\":25507:25525   */\n      tag_575\n      tag_363\n      jump\t// in\n    tag_575:\n        /* \"#utility.yul\":25492:25527   */\n    tag_574:\n        /* \"#utility.yul\":25549:25550   */\n      dup3\n        /* \"#utility.yul\":25546:25547   */\n      dup3\n        /* \"#utility.yul\":25542:25551   */\n      div\n        /* \"#utility.yul\":25537:25551   */\n      swap1\n      pop\n        /* \"#utility.yul\":25372:25557   */\n      swap3\n      swap2\n      pop\n      pop\n      jump\t// out\n        /* \"#utility.yul\":25563:25911   */\n    tag_261:\n        /* \"#utility.yul\":25603:25610   */\n      0x00\n        /* \"#utility.yul\":25626:25646   */\n      tag_577\n        /* \"#utility.yul\":25644:25645   */\n      dup3\n        /* \"#utility.yul\":25626:25646   */\n      tag_318\n      jump\t// in\n    tag_577:\n        /* \"#utility.yul\":25621:25646   */\n      swap2\n      pop\n        /* \"#utility.yul\":25660:25680   */\n      tag_578\n        /* \"#utility.yul\":25678:25679   */\n      dup4\n        /* \"#utility.yul\":25660:25680   */\n      tag_318\n      jump\t// in\n    tag_578:\n        /* \"#utility.yul\":25655:25680   */\n      swap3\n      pop\n        /* \"#utility.yul\":25848:25849   */\n      dup2\n        /* \"#utility.yul\":25780:25846   */\n      0xffffffffffffffffffffffffffffffffffffffffffffffffffffffffffffffff\n        /* \"#utility.yul\":25776:25850   */\n      div\n        /* \"#utility.yul\":25773:25774   */\n      dup4\n        /* \"#utility.yul\":25770:25851   */\n      gt\n        /* \"#utility.yul\":25765:25766   */\n      dup3\n        /* \"#utility.yul\":25758:25767   */\n      iszero\n        /* \"#utility.yul\":25751:25768   */\n      iszero\n        /* \"#utility.yul\":25747:25852   */\n      and\n        /* \"#utility.yul\":25744:25875   */\n      iszero\n      tag_579\n      jumpi\n        /* \"#utility.yul\":25855:25873   */\n      tag_580\n      tag_340\n      jump\t// in\n    tag_580:\n        /* \"#utility.yul\":25744:25875   */\n    tag_579:\n        /* \"#utility.yul\":25903:25904   */\n      dup3\n        /* \"#utility.yul\":25900:25901   */\n      dup3\n        /* \"#utility.yul\":25896:25905   */\n      mul\n        /* \"#utility.yul\":25885:25905   */\n      swap1\n      pop\n        /* \"#utility.yul\":25563:25911   */\n      swap3\n      swap2\n      pop\n      pop\n      jump\t// out\n        /* \"#utility.yul\":25917:26154   */\n    tag_364:\n        /* \"#utility.yul\":26057:26091   */\n      0x5374616b696e673a2043616e6e6f74207769746864726177206d6f7265207468\n        /* \"#utility.yul\":26053:26054   */\n      0x00\n        /* \"#utility.yul\":26045:26051   */\n      dup3\n        /* \"#utility.yul\":26041:26055   */\n      add\n        /* \"#utility.yul\":26034:26092   */\n      mstore\n        /* \"#utility.yul\":26126:26146   */\n      0x616e20796f752068617665207374616b65640000000000000000000000000000\n        /* \"#utility.yul\":26121:26123   */\n      0x20\n        /* \"#utility.yul\":26113:26119   */\n      dup3\n        /* \"#utility.yul\":26109:26124   */\n      add\n        /* \"#utility.yul\":26102:26147   */\n      mstore\n        /* \"#utility.yul\":25917:26154   */\n      pop\n      jump\t// out\n        /* \"#utility.yul\":26160:26526   */\n    tag_365:\n        /* \"#utility.yul\":26302:26305   */\n      0x00\n        /* \"#utility.yul\":26323:26390   */\n      tag_583\n        /* \"#utility.yul\":26387:26389   */\n      0x32\n        /* \"#utility.yul\":26382:26385   */\n      dup4\n        /* \"#utility.yul\":26323:26390   */\n      tag_307\n      jump\t// in\n    tag_583:\n        /* \"#utility.yul\":26316:26390   */\n      swap2\n      pop\n        /* \"#utility.yul\":26399:26492   */\n      tag_584\n        /* \"#utility.yul\":26488:26491   */\n      dup3\n        /* \"#utility.yul\":26399:26492   */\n      tag_364\n      jump\t// in\n    tag_584:\n        /* \"#utility.yul\":26517:26519   */\n      0x40\n        /* \"#utility.yul\":26512:26515   */\n      dup3\n        /* \"#utility.yul\":26508:26520   */\n      add\n        /* \"#utility.yul\":26501:26520   */\n      swap1\n      pop\n        /* \"#utility.yul\":26160:26526   */\n      swap2\n      swap1\n      pop\n      jump\t// out\n        /* \"#utility.yul\":26532:26951   */\n    tag_272:\n        /* \"#utility.yul\":26698:26702   */\n      0x00\n        /* \"#utility.yul\":26736:26738   */\n      0x20\n        /* \"#utility.yul\":26725:26734   */\n      dup3\n        /* \"#utility.yul\":26721:26739   */\n      add\n        /* \"#utility.yul\":26713:26739   */\n      swap1\n      pop\n        /* \"#utility.yul\":26785:26794   */\n      dup2\n        /* \"#utility.yul\":26779:26783   */\n      dup2\n        /* \"#utility.yul\":26775:26795   */\n      sub\n        /* \"#utility.yul\":26771:26772   */\n      0x00\n        /* \"#utility.yul\":26760:26769   */\n      dup4\n        /* \"#utility.yul\":26756:26773   */\n      add\n        /* \"#utility.yul\":26749:26796   */\n      mstore\n        /* \"#utility.yul\":26813:26944   */\n      tag_586\n        /* \"#utility.yul\":26939:26943   */\n      dup2\n        /* \"#utility.yul\":26813:26944   */\n      tag_365\n      jump\t// in\n    tag_586:\n        /* \"#utility.yul\":26805:26944   */\n      swap1\n      pop\n        /* \"#utility.yul\":26532:26951   */\n      swap2\n      swap1\n      pop\n      jump\t// out\n        /* \"#utility.yul\":26957:27182   */\n    tag_366:\n        /* \"#utility.yul\":27097:27131   */\n      0x4f776e61626c653a206e6577206f776e657220697320746865207a65726f2061\n        /* \"#utility.yul\":27093:27094   */\n      0x00\n        /* \"#utility.yul\":27085:27091   */\n      dup3\n        /* \"#utility.yul\":27081:27095   */\n      add\n        /* \"#utility.yul\":27074:27132   */\n      mstore\n        /* \"#utility.yul\":27166:27174   */\n      0x6464726573730000000000000000000000000000000000000000000000000000\n        /* \"#utility.yul\":27161:27163   */\n      0x20\n        /* \"#utility.yul\":27153:27159   */\n      dup3\n        /* \"#utility.yul\":27149:27164   */\n      add\n        /* \"#utility.yul\":27142:27175   */\n      mstore\n        /* \"#utility.yul\":26957:27182   */\n      pop\n      jump\t// out\n        /* \"#utility.yul\":27188:27554   */\n    tag_367:\n        /* \"#utility.yul\":27330:27333   */\n      0x00\n        /* \"#utility.yul\":27351:27418   */\n      tag_589\n        /* \"#utility.yul\":27415:27417   */\n      0x26\n        /* \"#utility.yul\":27410:27413   */\n      dup4\n        /* \"#utility.yul\":27351:27418   */\n      tag_307\n      jump\t// in\n    tag_589:\n        /* \"#utility.yul\":27344:27418   */\n      swap2\n      pop\n        /* \"#utility.yul\":27427:27520   */\n      tag_590\n        /* \"#utility.yul\":27516:27519   */\n      dup3\n        /* \"#utility.yul\":27427:27520   */\n      tag_366\n      jump\t// in\n    tag_590:\n        /* \"#utility.yul\":27545:27547   */\n      0x40\n        /* \"#utility.yul\":27540:27543   */\n      dup3\n        /* \"#utility.yul\":27536:27548   */\n      add\n        /* \"#utility.yul\":27529:27548   */\n      swap1\n      pop\n        /* \"#utility.yul\":27188:27554   */\n      swap2\n      swap1\n      pop\n      jump\t// out\n        /* \"#utility.yul\":27560:27979   */\n    tag_299:\n        /* \"#utility.yul\":27726:27730   */\n      0x00\n        /* \"#utility.yul\":27764:27766   */\n      0x20\n        /* \"#utility.yul\":27753:27762   */\n      dup3\n        /* \"#utility.yul\":27749:27767   */\n      add\n        /* \"#utility.yul\":27741:27767   */\n      swap1\n      pop\n        /* \"#utility.yul\":27813:27822   */\n      dup2\n        /* \"#utility.yul\":27807:27811   */\n      dup2\n        /* \"#utility.yul\":27803:27823   */\n      sub\n        /* \"#utility.yul\":27799:27800   */\n      0x00\n        /* \"#utility.yul\":27788:27797   */\n      dup4\n        /* \"#utility.yul\":27784:27801   */\n      add\n        /* \"#utility.yul\":27777:27824   */\n      mstore\n        /* \"#utility.yul\":27841:27972   */\n      tag_592\n        /* \"#utility.yul\":27967:27971   */\n      dup2\n        /* \"#utility.yul\":27841:27972   */\n      tag_367\n      jump\t// in\n    tag_592:\n        /* \"#utility.yul\":27833:27972   */\n      swap1\n      pop\n        /* \"#utility.yul\":27560:27979   */\n      swap2\n      swap1\n      pop\n      jump\t// out\n\n    auxdata: 0xa26469706673582212204e955f43b15a7c25bd4b51ccc8203cd69c583930764e2e471a0c7abd094c2fad64736f6c634300080f0033\n}\n",
				"bytecode": {
					"linkReferences": {},
					"object": "60806040526305f5e1006003553480156200001957600080fd5b50604051620036483803806200364883398181016040528101906200003f91906200049e565b336000806101000a81548173ffffffffffffffffffffffffffffffffffffffff021916908373ffffffffffffffffffffffffffffffffffffffff16021790555060008054906101000a900473ffffffffffffffffffffffffffffffffffffffff1673ffffffffffffffffffffffffffffffffffffffff16600073ffffffffffffffffffffffffffffffffffffffff167f8be0079c531659141344cd1fd0a4f28419497f9722a3daafe3b4186f6b6457e060405160405180910390a360018081600181540180825580915050039060005260206000209050506040518060400160405280600b81526020017f4d6574726120546f6b656e000000000000000000000000000000000000000000815250600790816200015d91906200078f565b506040518060400160405280600581526020017f4d4554524100000000000000000000000000000000000000000000000000000081525060069081620001a491906200078f565b506012600560006101000a81548160ff021916908360ff160217905550655af3107a4000600481905550600454600860003373ffffffffffffffffffffffffffffffffffffffff1673ffffffffffffffffffffffffffffffffffffffff168152602001908152602001600020819055503373ffffffffffffffffffffffffffffffffffffffff16600073ffffffffffffffffffffffffffffffffffffffff167fddf252ad1be2c89b69c2b068fc378daa952ba7f163c4a11628f55a4df523b3ef60045460405162000276919062000887565b60405180910390a350505050620008a4565b6000604051905090565b600080fd5b600080fd5b600080fd5b600080fd5b6000601f19601f8301169050919050565b7f4e487b7100000000000000000000000000000000000000000000000000000000600052604160045260246000fd5b620002f182620002a6565b810181811067ffffffffffffffff82111715620003135762000312620002b7565b5b80604052505050565b60006200032862000288565b9050620003368282620002e6565b919050565b600067ffffffffffffffff821115620003595762000358620002b7565b5b6200036482620002a6565b9050602081019050919050565b60005b838110156200039157808201518184015260208101905062000374565b83811115620003a1576000848401525b50505050565b6000620003be620003b8846200033b565b6200031c565b905082815260208101848484011115620003dd57620003dc620002a1565b5b620003ea84828562000371565b509392505050565b600082601f8301126200040a57620004096200029c565b5b81516200041c848260208601620003a7565b91505092915050565b600060ff82169050919050565b6200043d8162000425565b81146200044957600080fd5b50565b6000815190506200045d8162000432565b92915050565b6000819050919050565b620004788162000463565b81146200048457600080fd5b50565b60008151905062000498816200046d565b92915050565b60008060008060808587031215620004bb57620004ba62000292565b5b600085015167ffffffffffffffff811115620004dc57620004db62000297565b5b620004ea87828801620003f2565b945050602085015167ffffffffffffffff8111156200050e576200050d62000297565b5b6200051c87828801620003f2565b93505060406200052f878288016200044c565b9250506060620005428782880162000487565b91505092959194509250565b600081519050919050565b7f4e487b7100000000000000000000000000000000000000000000000000000000600052602260045260246000fd5b60006002820490506001821680620005a157607f821691505b602082108103620005b757620005b662000559565b5b50919050565b60008190508160005260206000209050919050565b60006020601f8301049050919050565b600082821b905092915050565b600060088302620006217fffffffffffffffffffffffffffffffffffffffffffffffffffffffffffffffff82620005e2565b6200062d8683620005e2565b95508019841693508086168417925050509392505050565b6000819050919050565b6000620006706200066a620006648462000463565b62000645565b62000463565b9050919050565b6000819050919050565b6200068c836200064f565b620006a46200069b8262000677565b848454620005ef565b825550505050565b600090565b620006bb620006ac565b620006c881848462000681565b505050565b5b81811015620006f057620006e4600082620006b1565b600181019050620006ce565b5050565b601f8211156200073f576200070981620005bd565b6200071484620005d2565b8101602085101562000724578190505b6200073c6200073385620005d2565b830182620006cd565b50505b505050565b600082821c905092915050565b6000620007646000198460080262000744565b1980831691505092915050565b60006200077f838362000751565b9150826002028217905092915050565b6200079a826200054e565b67ffffffffffffffff811115620007b657620007b5620002b7565b5b620007c2825462000588565b620007cf828285620006f4565b600060209050601f831160018114620008075760008415620007f2578287015190505b620007fe858262000771565b8655506200086e565b601f1984166200081786620005bd565b60005b8281101562000841578489015182556001820191506020850194506020810190506200081a565b868310156200086157848901516200085d601f89168262000751565b8355505b6001600288020188555050505b505050505050565b620008818162000463565b82525050565b60006020820190506200089e600083018462000876565b92915050565b612d9480620008b46000396000f3fe608060405234801561001057600080fd5b506004361061012c5760003560e01c80638da5cb5b116100ad578063a9059cbb11610071578063a9059cbb1461035b578063dd62ed3e1461038b578063e73e14bf146103bb578063f1fdf469146103eb578063f2fde38b146104075761012c565b80638da5cb5b146102a357806395d89b41146102c15780639dc29fac146102df578063a457c2d71461030f578063a694fc3a1461033f5761012c565b806339509351116100f457806339509351146101eb57806340c10f191461021b57806370a082311461024b578063715018a61461027b578063893d20e8146102855761012c565b806306fdde0314610131578063095ea7b31461014f57806318160ddd1461017f57806323b872dd1461019d578063313ce567146101cd575b600080fd5b610139610423565b6040516101469190611f0b565b60405180910390f35b61016960048036038101906101649190611fc6565b6104b5565b6040516101769190612021565b60405180910390f35b6101876104cc565b604051610194919061204b565b60405180910390f35b6101b760048036038101906101b29190612066565b6104d6565b6040516101c49190612021565b60405180910390f35b6101d561063f565b6040516101e291906120d5565b60405180910390f35b61020560048036038101906102009190611fc6565b610656565b6040516102129190612021565b60405180910390f35b61023560048036038101906102309190611fc6565b6106f4565b6040516102429190612021565b60405180910390f35b610265600480360381019061026091906120f0565b610798565b604051610272919061204b565b60405180910390f35b6102836107e1565b005b61028d61092d565b60405161029a919061212c565b60405180910390f35b6102ab61093c565b6040516102b8919061212c565b60405180910390f35b6102c9610965565b6040516102d69190611f0b565b60405180910390f35b6102f960048036038101906102f49190611fc6565b6109f7565b6040516103069190612021565b60405180910390f35b61032960048036038101906103249190611fc6565b610a9b565b6040516103369190612021565b60405180910390f35b61035960048036038101906103549190612147565b610b39565b005b61037560048036038101906103709190611fc6565b610bd0565b6040516103829190612021565b60405180910390f35b6103a560048036038101906103a09190612174565b610be7565b6040516103b2919061204b565b60405180910390f35b6103d560048036038101906103d091906120f0565b610c6e565b6040516103e29190612313565b60405180910390f35b61040560048036038101906104009190612335565b610e7b565b005b610421600480360381019061041c91906120f0565b610e98565b005b606060078054610432906123a4565b80601f016020809104026020016040519081016040528092919081815260200182805461045e906123a4565b80156104ab5780601f10610480576101008083540402835291602001916104ab565b820191906000526020600020905b81548152906001019060200180831161048e57829003601f168201915b5050505050905090565b60006104c2338484610f32565b6001905092915050565b6000600454905090565b600081600960008673ffffffffffffffffffffffffffffffffffffffff1673ffffffffffffffffffffffffffffffffffffffff16815260200190815260200160002060003373ffffffffffffffffffffffffffffffffffffffff1673ffffffffffffffffffffffffffffffffffffffff168152602001908152602001600020541015610597576040517f08c379a000000000000000000000000000000000000000000000000000000000815260040161058e90612447565b60405180910390fd5b6105a28484846110fb565b610634843384600960008973ffffffffffffffffffffffffffffffffffffffff1673ffffffffffffffffffffffffffffffffffffffff16815260200190815260200160002060003373ffffffffffffffffffffffffffffffffffffffff1673ffffffffffffffffffffffffffffffffffffffff1681526020019081526020016000205461062f9190612496565b610f32565b600190509392505050565b6000600560009054906101000a900460ff16905090565b60006106ea338484600960003373ffffffffffffffffffffffffffffffffffffffff1673ffffffffffffffffffffffffffffffffffffffff16815260200190815260200160002060008873ffffffffffffffffffffffffffffffffffffffff1673ffffffffffffffffffffffffffffffffffffffff168152602001908152602001600020546106e591906124ca565b610f32565b6001905092915050565b60003373ffffffffffffffffffffffffffffffffffffffff1660008054906101000a900473ffffffffffffffffffffffffffffffffffffffff1673ffffffffffffffffffffffffffffffffffffffff1614610784576040517f08c379a000000000000000000000000000000000000000000000000000000000815260040161077b90612592565b60405180910390fd5b61078e83836113e1565b6001905092915050565b6000600860008373ffffffffffffffffffffffffffffffffffffffff1673ffffffffffffffffffffffffffffffffffffffff168152602001908152602001600020549050919050565b3373ffffffffffffffffffffffffffffffffffffffff1660008054906101000a900473ffffffffffffffffffffffffffffffffffffffff1673ffffffffffffffffffffffffffffffffffffffff161461086f576040517f08c379a000000000000000000000000000000000000000000000000000000000815260040161086690612592565b60405180910390fd5b600073ffffffffffffffffffffffffffffffffffffffff1660008054906101000a900473ffffffffffffffffffffffffffffffffffffffff1673ffffffffffffffffffffffffffffffffffffffff167f8be0079c531659141344cd1fd0a4f28419497f9722a3daafe3b4186f6b6457e060405160405180910390a360008060006101000a81548173ffffffffffffffffffffffffffffffffffffffff021916908373ffffffffffffffffffffffffffffffffffffffff160217905550565b600061093761093c565b905090565b60008060009054906101000a900473ffffffffffffffffffffffffffffffffffffffff16905090565b606060068054610974906123a4565b80601f01602080910402602001604051908101604052809291908181526020018280546109a0906123a4565b80156109ed5780601f106109c2576101008083540402835291602001916109ed565b820191906000526020600020905b8154815290600101906020018083116109d057829003601f168201915b5050505050905090565b60003373ffffffffffffffffffffffffffffffffffffffff1660008054906101000a900473ffffffffffffffffffffffffffffffffffffffff1673ffffffffffffffffffffffffffffffffffffffff1614610a87576040517f08c379a0000000000000000000000000000000000000000000000000000000008152600401610a7e90612592565b60405180910390fd5b610a91838361155c565b6001905092915050565b6000610b2f338484600960003373ffffffffffffffffffffffffffffffffffffffff1673ffffffffffffffffffffffffffffffffffffffff16815260200190815260200160002060008873ffffffffffffffffffffffffffffffffffffffff1673ffffffffffffffffffffffffffffffffffffffff16815260200190815260200160002054610b2a9190612496565b610f32565b6001905092915050565b600860003373ffffffffffffffffffffffffffffffffffffffff1673ffffffffffffffffffffffffffffffffffffffff168152602001908152602001600020548110610bba576040517f08c379a0000000000000000000000000000000000000000000000000000000008152600401610bb190612624565b60405180910390fd5b610bc381611759565b610bcd338261155c565b50565b6000610bdd3384846110fb565b6001905092915050565b6000600960008473ffffffffffffffffffffffffffffffffffffffff1673ffffffffffffffffffffffffffffffffffffffff16815260200190815260200160002060008373ffffffffffffffffffffffffffffffffffffffff1673ffffffffffffffffffffffffffffffffffffffff16815260200190815260200160002054905092915050565b610c76611e58565b6000806040518060400160405280600081526020016001600260008873ffffffffffffffffffffffffffffffffffffffff1673ffffffffffffffffffffffffffffffffffffffff1681526020019081526020016000205481548110610cde57610cdd612644565b5b9060005260206000209060020201600101805480602002602001604051908101604052809291908181526020016000905b82821015610db557838290600052602060002090600402016040518060800160405290816000820160009054906101000a900473ffffffffffffffffffffffffffffffffffffffff1673ffffffffffffffffffffffffffffffffffffffff1673ffffffffffffffffffffffffffffffffffffffff168152602001600182015481526020016002820154815260200160038201548152505081526020019060010190610d0f565b50505050815250905060005b816020015151811015610e66576000610df783602001518381518110610dea57610de9612644565b5b602002602001015161193d565b90508083602001518381518110610e1157610e10612644565b5b6020026020010151606001818152505082602001518281518110610e3857610e37612644565b5b60200260200101516020015184610e4f91906124ca565b935050600181610e5f91906124ca565b9050610dc1565b50818160000181815250508092505050919050565b6000610e87838361197f565b9050610e9333826113e1565b505050565b3373ffffffffffffffffffffffffffffffffffffffff1660008054906101000a900473ffffffffffffffffffffffffffffffffffffffff1673ffffffffffffffffffffffffffffffffffffffff1614610f26576040517f08c379a0000000000000000000000000000000000000000000000000000000008152600401610f1d90612592565b60405180910390fd5b610f2f81611c47565b50565b600073ffffffffffffffffffffffffffffffffffffffff168373ffffffffffffffffffffffffffffffffffffffff1603610fa1576040517f08c379a0000000000000000000000000000000000000000000000000000000008152600401610f98906126e5565b60405180910390fd5b600073ffffffffffffffffffffffffffffffffffffffff168273ffffffffffffffffffffffffffffffffffffffff1603611010576040517f08c379a000000000000000000000000000000000000000000000000000000000815260040161100790612777565b60405180910390fd5b80600960008573ffffffffffffffffffffffffffffffffffffffff1673ffffffffffffffffffffffffffffffffffffffff16815260200190815260200160002060008473ffffffffffffffffffffffffffffffffffffffff1673ffffffffffffffffffffffffffffffffffffffff168152602001908152602001600020819055508173ffffffffffffffffffffffffffffffffffffffff168373ffffffffffffffffffffffffffffffffffffffff167f8c5be1e5ebec7d5bd14f71427d1e84f3dd0314c0f7b2291e5b200ac8c7c3b925836040516110ee919061204b565b60405180910390a3505050565b600073ffffffffffffffffffffffffffffffffffffffff168373ffffffffffffffffffffffffffffffffffffffff160361116a576040517f08c379a000000000000000000000000000000000000000000000000000000000815260040161116190612809565b60405180910390fd5b600073ffffffffffffffffffffffffffffffffffffffff168273ffffffffffffffffffffffffffffffffffffffff16036111d9576040517f08c379a00000000000000000000000000000000000000000000000000000000081526004016111d090612875565b60405180910390fd5b80600860008573ffffffffffffffffffffffffffffffffffffffff1673ffffffffffffffffffffffffffffffffffffffff16815260200190815260200160002054101561125b576040517f08c379a000000000000000000000000000000000000000000000000000000000815260040161125290612907565b60405180910390fd5b80600860008573ffffffffffffffffffffffffffffffffffffffff1673ffffffffffffffffffffffffffffffffffffffff168152602001908152602001600020546112a69190612496565b600860008573ffffffffffffffffffffffffffffffffffffffff1673ffffffffffffffffffffffffffffffffffffffff1681526020019081526020016000208190555080600860008473ffffffffffffffffffffffffffffffffffffffff1673ffffffffffffffffffffffffffffffffffffffff1681526020019081526020016000205461133491906124ca565b600860008473ffffffffffffffffffffffffffffffffffffffff1673ffffffffffffffffffffffffffffffffffffffff168152602001908152602001600020819055508173ffffffffffffffffffffffffffffffffffffffff168373ffffffffffffffffffffffffffffffffffffffff167fddf252ad1be2c89b69c2b068fc378daa952ba7f163c4a11628f55a4df523b3ef836040516113d4919061204b565b60405180910390a3505050565b600073ffffffffffffffffffffffffffffffffffffffff168273ffffffffffffffffffffffffffffffffffffffff1603611450576040517f08c379a000000000000000000000000000000000000000000000000000000000815260040161144790612999565b60405180910390fd5b8060045461145e91906124ca565b60048190555080600860008473ffffffffffffffffffffffffffffffffffffffff1673ffffffffffffffffffffffffffffffffffffffff168152602001908152602001600020546114af91906124ca565b600860008473ffffffffffffffffffffffffffffffffffffffff1673ffffffffffffffffffffffffffffffffffffffff168152602001908152602001600020819055508173ffffffffffffffffffffffffffffffffffffffff16600073ffffffffffffffffffffffffffffffffffffffff167fddf252ad1be2c89b69c2b068fc378daa952ba7f163c4a11628f55a4df523b3ef83604051611550919061204b565b60405180910390a35050565b600073ffffffffffffffffffffffffffffffffffffffff168273ffffffffffffffffffffffffffffffffffffffff16036115cb576040517f08c379a00000000000000000000000000000000000000000000000000000000081526004016115c290612a2b565b60405180910390fd5b80600860008473ffffffffffffffffffffffffffffffffffffffff1673ffffffffffffffffffffffffffffffffffffffff16815260200190815260200160002054101561164d576040517f08c379a000000000000000000000000000000000000000000000000000000000815260040161164490612abd565b60405180910390fd5b80600860008473ffffffffffffffffffffffffffffffffffffffff1673ffffffffffffffffffffffffffffffffffffffff168152602001908152602001600020546116989190612496565b600860008473ffffffffffffffffffffffffffffffffffffffff1673ffffffffffffffffffffffffffffffffffffffff16815260200190815260200160002081905550806004546116e99190612496565b600481905550600073ffffffffffffffffffffffffffffffffffffffff168273ffffffffffffffffffffffffffffffffffffffff167fddf252ad1be2c89b69c2b068fc378daa952ba7f163c4a11628f55a4df523b3ef8360405161174d919061204b565b60405180910390a35050565b6000811161179c576040517f08c379a000000000000000000000000000000000000000000000000000000000815260040161179390612b29565b60405180910390fd5b6000600260003373ffffffffffffffffffffffffffffffffffffffff1673ffffffffffffffffffffffffffffffffffffffff1681526020019081526020016000205490506000429050600082036117f9576117f633611d73565b91505b6001828154811061180d5761180c612644565b5b906000526020600020906002020160010160405180608001604052803373ffffffffffffffffffffffffffffffffffffffff1681526020018581526020018381526020016000815250908060018154018082558091505060019003906000526020600020906004020160009091909190915060008201518160000160006101000a81548173ffffffffffffffffffffffffffffffffffffffff021916908373ffffffffffffffffffffffffffffffffffffffff16021790555060208201518160010155604082015181600201556060820151816003015550503373ffffffffffffffffffffffffffffffffffffffff167fb4caaf29adda3eefee3ad552a8e85058589bf834c7466cae4ee58787f70589ed84848460405161193093929190612b49565b60405180910390a2505050565b60006003548260200151610e1084604001514261195a9190612496565b6119649190612baf565b61196e9190612be0565b6119789190612baf565b9050919050565b600080600260003373ffffffffffffffffffffffffffffffffffffffff1673ffffffffffffffffffffffffffffffffffffffff1681526020019081526020016000205490506000600182815481106119da576119d9612644565b5b906000526020600020906002020160010184815481106119fd576119fc612644565b5b90600052602060002090600402016040518060800160405290816000820160009054906101000a900473ffffffffffffffffffffffffffffffffffffffff1673ffffffffffffffffffffffffffffffffffffffff1673ffffffffffffffffffffffffffffffffffffffff168152602001600182015481526020016002820154815260200160038201548152505090508481602001511015611ad3576040517f08c379a0000000000000000000000000000000000000000000000000000000008152600401611aca90612cac565b60405180910390fd5b6000611ade8261193d565b9050858260200151611af09190612496565b8260200181815250506000826020015103611b915760018381548110611b1957611b18612644565b5b90600052602060002090600202016001018581548110611b3c57611b3b612644565b5b9060005260206000209060040201600080820160006101000a81549073ffffffffffffffffffffffffffffffffffffffff02191690556001820160009055600282016000905560038201600090555050611c30565b816020015160018481548110611baa57611ba9612644565b5b90600052602060002090600202016001018681548110611bcd57611bcc612644565b5b9060005260206000209060040201600101819055504260018481548110611bf757611bf6612644565b5b90600052602060002090600202016001018681548110611c1a57611c19612644565b5b9060005260206000209060040201600201819055505b8086611c3c91906124ca565b935050505092915050565b600073ffffffffffffffffffffffffffffffffffffffff168173ffffffffffffffffffffffffffffffffffffffff1603611cb6576040517f08c379a0000000000000000000000000000000000000000000000000000000008152600401611cad90612d3e565b60405180910390fd5b8073ffffffffffffffffffffffffffffffffffffffff1660008054906101000a900473ffffffffffffffffffffffffffffffffffffffff1673ffffffffffffffffffffffffffffffffffffffff167f8be0079c531659141344cd1fd0a4f28419497f9722a3daafe3b4186f6b6457e060405160405180910390a3806000806101000a81548173ffffffffffffffffffffffffffffffffffffffff021916908373ffffffffffffffffffffffffffffffffffffffff16021790555050565b60006001808160018154018082558091505003906000526020600020905050600060018080549050611da59190612496565b90508260018281548110611dbc57611dbb612644565b5b906000526020600020906002020160000160006101000a81548173ffffffffffffffffffffffffffffffffffffffff021916908373ffffffffffffffffffffffffffffffffffffffff16021790555080600260008573ffffffffffffffffffffffffffffffffffffffff1673ffffffffffffffffffffffffffffffffffffffff1681526020019081526020016000208190555080915050919050565b604051806040016040528060008152602001606081525090565b600081519050919050565b600082825260208201905092915050565b60005b83811015611eac578082015181840152602081019050611e91565b83811115611ebb576000848401525b50505050565b6000601f19601f8301169050919050565b6000611edd82611e72565b611ee78185611e7d565b9350611ef7818560208601611e8e565b611f0081611ec1565b840191505092915050565b60006020820190508181036000830152611f258184611ed2565b905092915050565b600080fd5b600073ffffffffffffffffffffffffffffffffffffffff82169050919050565b6000611f5d82611f32565b9050919050565b611f6d81611f52565b8114611f7857600080fd5b50565b600081359050611f8a81611f64565b92915050565b6000819050919050565b611fa381611f90565b8114611fae57600080fd5b50565b600081359050611fc081611f9a565b92915050565b60008060408385031215611fdd57611fdc611f2d565b5b6000611feb85828601611f7b565b9250506020611ffc85828601611fb1565b9150509250929050565b60008115159050919050565b61201b81612006565b82525050565b60006020820190506120366000830184612012565b92915050565b61204581611f90565b82525050565b6000602082019050612060600083018461203c565b92915050565b60008060006060848603121561207f5761207e611f2d565b5b600061208d86828701611f7b565b935050602061209e86828701611f7b565b92505060406120af86828701611fb1565b9150509250925092565b600060ff82169050919050565b6120cf816120b9565b82525050565b60006020820190506120ea60008301846120c6565b92915050565b60006020828403121561210657612105611f2d565b5b600061211484828501611f7b565b91505092915050565b61212681611f52565b82525050565b6000602082019050612141600083018461211d565b92915050565b60006020828403121561215d5761215c611f2d565b5b600061216b84828501611fb1565b91505092915050565b6000806040838503121561218b5761218a611f2d565b5b600061219985828601611f7b565b92505060206121aa85828601611f7b565b9150509250929050565b6121bd81611f90565b82525050565b600081519050919050565b600082825260208201905092915050565b6000819050602082019050919050565b6121f881611f52565b82525050565b60808201600082015161221460008501826121ef565b50602082015161222760208501826121b4565b50604082015161223a60408501826121b4565b50606082015161224d60608501826121b4565b50505050565b600061225f83836121fe565b60808301905092915050565b6000602082019050919050565b6000612283826121c3565b61228d81856121ce565b9350612298836121df565b8060005b838110156122c95781516122b08882612253565b97506122bb8361226b565b92505060018101905061229c565b5085935050505092915050565b60006040830160008301516122ee60008601826121b4565b50602083015184820360208601526123068282612278565b9150508091505092915050565b6000602082019050818103600083015261232d81846122d6565b905092915050565b6000806040838503121561234c5761234b611f2d565b5b600061235a85828601611fb1565b925050602061236b85828601611fb1565b9150509250929050565b7f4e487b7100000000000000000000000000000000000000000000000000000000600052602260045260246000fd5b600060028204905060018216806123bc57607f821691505b6020821081036123cf576123ce612375565b5b50919050565b7f4d657472613a20596f752063616e6e6f74207370656e642074686174206d756360008201527f68206f6e2074686973206163636f756e74000000000000000000000000000000602082015250565b6000612431603183611e7d565b915061243c826123d5565b604082019050919050565b6000602082019050818103600083015261246081612424565b9050919050565b7f4e487b7100000000000000000000000000000000000000000000000000000000600052601160045260246000fd5b60006124a182611f90565b91506124ac83611f90565b9250828210156124bf576124be612467565b5b828203905092915050565b60006124d582611f90565b91506124e083611f90565b9250827fffffffffffffffffffffffffffffffffffffffffffffffffffffffffffffffff0382111561251557612514612467565b5b828201905092915050565b7f4f776e61626c653a206f6e6c79206f776e65722063616e2063616c6c2074686960008201527f732066756e6374696f6e00000000000000000000000000000000000000000000602082015250565b600061257c602a83611e7d565b915061258782612520565b604082019050919050565b600060208201905081810360008301526125ab8161256f565b9050919050565b7f4d657472613a2043616e6e6f74207374616b65206d6f7265207468616e20796f60008201527f75206f776e000000000000000000000000000000000000000000000000000000602082015250565b600061260e602583611e7d565b9150612619826125b2565b604082019050919050565b6000602082019050818103600083015261263d81612601565b9050919050565b7f4e487b7100000000000000000000000000000000000000000000000000000000600052603260045260246000fd5b7f4d657472613a20617070726f76652063616e6e6f7420626520646f6e6520667260008201527f6f6d207a65726f20616464726573730000000000000000000000000000000000602082015250565b60006126cf602f83611e7d565b91506126da82612673565b604082019050919050565b600060208201905081810360008301526126fe816126c2565b9050919050565b7f4d657472613a20617070726f76652063616e6e6f7420626520746f207a65726f60008201527f2061646472657373000000000000000000000000000000000000000000000000602082015250565b6000612761602883611e7d565b915061276c82612705565b604082019050919050565b6000602082019050818103600083015261279081612754565b9050919050565b7f4d657472613a207472616e736665722066726f6d207a65726f2061646472657360008201527f7300000000000000000000000000000000000000000000000000000000000000602082015250565b60006127f3602183611e7d565b91506127fe82612797565b604082019050919050565b60006020820190508181036000830152612822816127e6565b9050919050565b7f4d657472613a207472616e7366657220746f207a65726f206164647265737300600082015250565b600061285f601f83611e7d565b915061286a82612829565b602082019050919050565b6000602082019050818103600083015261288e81612852565b9050919050565b7f4d657472613a2063616e74207472616e73666572206d6f7265207468616e207960008201527f6f7572206163636f756e7420686f6c6473000000000000000000000000000000602082015250565b60006128f1603183611e7d565b91506128fc82612895565b604082019050919050565b60006020820190508181036000830152612920816128e4565b9050919050565b7f4d657472613a2063616e6e6f74206d696e7420746f207a65726f20616464726560008201527f7373000000000000000000000000000000000000000000000000000000000000602082015250565b6000612983602283611e7d565b915061298e82612927565b604082019050919050565b600060208201905081810360008301526129b281612976565b9050919050565b7f4d657472613a2063616e6e6f74206275726e2066726f6d207a65726f2061646460008201527f7265737300000000000000000000000000000000000000000000000000000000602082015250565b6000612a15602483611e7d565b9150612a20826129b9565b604082019050919050565b60006020820190508181036000830152612a4481612a08565b9050919050565b7f4d657472613a2043616e6e6f74206275726e206d6f7265207468616e2074686560008201527f206163636f756e74206f776e7300000000000000000000000000000000000000602082015250565b6000612aa7602d83611e7d565b9150612ab282612a4b565b604082019050919050565b60006020820190508181036000830152612ad681612a9a565b9050919050565b7f43616e6e6f74207374616b65206e6f7468696e67000000000000000000000000600082015250565b6000612b13601483611e7d565b9150612b1e82612add565b602082019050919050565b60006020820190508181036000830152612b4281612b06565b9050919050565b6000606082019050612b5e600083018661203c565b612b6b602083018561203c565b612b78604083018461203c565b949350505050565b7f4e487b7100000000000000000000000000000000000000000000000000000000600052601260045260246000fd5b6000612bba82611f90565b9150612bc583611f90565b925082612bd557612bd4612b80565b5b828204905092915050565b6000612beb82611f90565b9150612bf683611f90565b9250817fffffffffffffffffffffffffffffffffffffffffffffffffffffffffffffffff0483118215151615612c2f57612c2e612467565b5b828202905092915050565b7f5374616b696e673a2043616e6e6f74207769746864726177206d6f726520746860008201527f616e20796f752068617665207374616b65640000000000000000000000000000602082015250565b6000612c96603283611e7d565b9150612ca182612c3a565b604082019050919050565b60006020820190508181036000830152612cc581612c89565b9050919050565b7f4f776e61626c653a206e6577206f776e657220697320746865207a65726f206160008201527f6464726573730000000000000000000000000000000000000000000000000000602082015250565b6000612d28602683611e7d565b9150612d3382612ccc565b604082019050919050565b60006020820190508181036000830152612d5781612d1b565b905091905056fea26469706673582212204e955f43b15a7c25bd4b51ccc8203cd69c583930764e2e471a0c7abd094c2fad64736f6c634300080f0033",
					"opcodes": "PUSH1 0x80 PUSH1 0x40 MSTORE PUSH4 0x5F5E100 PUSH1 0x3 SSTORE CALLVALUE DUP1 ISZERO PUSH3 0x19 JUMPI PUSH1 0x0 DUP1 REVERT JUMPDEST POP PUSH1 0x40 MLOAD PUSH3 0x3648 CODESIZE SUB DUP1 PUSH3 0x3648 DUP4 CODECOPY DUP2 DUP2 ADD PUSH1 0x40 MSTORE DUP2 ADD SWAP1 PUSH3 0x3F SWAP2 SWAP1 PUSH3 0x49E JUMP JUMPDEST CALLER PUSH1 0x0 DUP1 PUSH2 0x100 EXP DUP2 SLOAD DUP2 PUSH20 0xFFFFFFFFFFFFFFFFFFFFFFFFFFFFFFFFFFFFFFFF MUL NOT AND SWAP1 DUP4 PUSH20 0xFFFFFFFFFFFFFFFFFFFFFFFFFFFFFFFFFFFFFFFF AND MUL OR SWAP1 SSTORE POP PUSH1 0x0 DUP1 SLOAD SWAP1 PUSH2 0x100 EXP SWAP1 DIV PUSH20 0xFFFFFFFFFFFFFFFFFFFFFFFFFFFFFFFFFFFFFFFF AND PUSH20 0xFFFFFFFFFFFFFFFFFFFFFFFFFFFFFFFFFFFFFFFF AND PUSH1 0x0 PUSH20 0xFFFFFFFFFFFFFFFFFFFFFFFFFFFFFFFFFFFFFFFF AND PUSH32 0x8BE0079C531659141344CD1FD0A4F28419497F9722A3DAAFE3B4186F6B6457E0 PUSH1 0x40 MLOAD PUSH1 0x40 MLOAD DUP1 SWAP2 SUB SWAP1 LOG3 PUSH1 0x1 DUP1 DUP2 PUSH1 0x1 DUP2 SLOAD ADD DUP1 DUP3 SSTORE DUP1 SWAP2 POP POP SUB SWAP1 PUSH1 0x0 MSTORE PUSH1 0x20 PUSH1 0x0 KECCAK256 SWAP1 POP POP PUSH1 0x40 MLOAD DUP1 PUSH1 0x40 ADD PUSH1 0x40 MSTORE DUP1 PUSH1 0xB DUP2 MSTORE PUSH1 0x20 ADD PUSH32 0x4D6574726120546F6B656E000000000000000000000000000000000000000000 DUP2 MSTORE POP PUSH1 0x7 SWAP1 DUP2 PUSH3 0x15D SWAP2 SWAP1 PUSH3 0x78F JUMP JUMPDEST POP PUSH1 0x40 MLOAD DUP1 PUSH1 0x40 ADD PUSH1 0x40 MSTORE DUP1 PUSH1 0x5 DUP2 MSTORE PUSH1 0x20 ADD PUSH32 0x4D45545241000000000000000000000000000000000000000000000000000000 DUP2 MSTORE POP PUSH1 0x6 SWAP1 DUP2 PUSH3 0x1A4 SWAP2 SWAP1 PUSH3 0x78F JUMP JUMPDEST POP PUSH1 0x12 PUSH1 0x5 PUSH1 0x0 PUSH2 0x100 EXP DUP2 SLOAD DUP2 PUSH1 0xFF MUL NOT AND SWAP1 DUP4 PUSH1 0xFF AND MUL OR SWAP1 SSTORE POP PUSH6 0x5AF3107A4000 PUSH1 0x4 DUP2 SWAP1 SSTORE POP PUSH1 0x4 SLOAD PUSH1 0x8 PUSH1 0x0 CALLER PUSH20 0xFFFFFFFFFFFFFFFFFFFFFFFFFFFFFFFFFFFFFFFF AND PUSH20 0xFFFFFFFFFFFFFFFFFFFFFFFFFFFFFFFFFFFFFFFF AND DUP2 MSTORE PUSH1 0x20 ADD SWAP1 DUP2 MSTORE PUSH1 0x20 ADD PUSH1 0x0 KECCAK256 DUP2 SWAP1 SSTORE POP CALLER PUSH20 0xFFFFFFFFFFFFFFFFFFFFFFFFFFFFFFFFFFFFFFFF AND PUSH1 0x0 PUSH20 0xFFFFFFFFFFFFFFFFFFFFFFFFFFFFFFFFFFFFFFFF AND PUSH32 0xDDF252AD1BE2C89B69C2B068FC378DAA952BA7F163C4A11628F55A4DF523B3EF PUSH1 0x4 SLOAD PUSH1 0x40 MLOAD PUSH3 0x276 SWAP2 SWAP1 PUSH3 0x887 JUMP JUMPDEST PUSH1 0x40 MLOAD DUP1 SWAP2 SUB SWAP1 LOG3 POP POP POP POP PUSH3 0x8A4 JUMP JUMPDEST PUSH1 0x0 PUSH1 0x40 MLOAD SWAP1 POP SWAP1 JUMP JUMPDEST PUSH1 0x0 DUP1 REVERT JUMPDEST PUSH1 0x0 DUP1 REVERT JUMPDEST PUSH1 0x0 DUP1 REVERT JUMPDEST PUSH1 0x0 DUP1 REVERT JUMPDEST PUSH1 0x0 PUSH1 0x1F NOT PUSH1 0x1F DUP4 ADD AND SWAP1 POP SWAP2 SWAP1 POP JUMP JUMPDEST PUSH32 0x4E487B7100000000000000000000000000000000000000000000000000000000 PUSH1 0x0 MSTORE PUSH1 0x41 PUSH1 0x4 MSTORE PUSH1 0x24 PUSH1 0x0 REVERT JUMPDEST PUSH3 0x2F1 DUP3 PUSH3 0x2A6 JUMP JUMPDEST DUP2 ADD DUP2 DUP2 LT PUSH8 0xFFFFFFFFFFFFFFFF DUP3 GT OR ISZERO PUSH3 0x313 JUMPI PUSH3 0x312 PUSH3 0x2B7 JUMP JUMPDEST JUMPDEST DUP1 PUSH1 0x40 MSTORE POP POP POP JUMP JUMPDEST PUSH1 0x0 PUSH3 0x328 PUSH3 0x288 JUMP JUMPDEST SWAP1 POP PUSH3 0x336 DUP3 DUP3 PUSH3 0x2E6 JUMP JUMPDEST SWAP2 SWAP1 POP JUMP JUMPDEST PUSH1 0x0 PUSH8 0xFFFFFFFFFFFFFFFF DUP3 GT ISZERO PUSH3 0x359 JUMPI PUSH3 0x358 PUSH3 0x2B7 JUMP JUMPDEST JUMPDEST PUSH3 0x364 DUP3 PUSH3 0x2A6 JUMP JUMPDEST SWAP1 POP PUSH1 0x20 DUP2 ADD SWAP1 POP SWAP2 SWAP1 POP JUMP JUMPDEST PUSH1 0x0 JUMPDEST DUP4 DUP2 LT ISZERO PUSH3 0x391 JUMPI DUP1 DUP3 ADD MLOAD DUP2 DUP5 ADD MSTORE PUSH1 0x20 DUP2 ADD SWAP1 POP PUSH3 0x374 JUMP JUMPDEST DUP4 DUP2 GT ISZERO PUSH3 0x3A1 JUMPI PUSH1 0x0 DUP5 DUP5 ADD MSTORE JUMPDEST POP POP POP POP JUMP JUMPDEST PUSH1 0x0 PUSH3 0x3BE PUSH3 0x3B8 DUP5 PUSH3 0x33B JUMP JUMPDEST PUSH3 0x31C JUMP JUMPDEST SWAP1 POP DUP3 DUP2 MSTORE PUSH1 0x20 DUP2 ADD DUP5 DUP5 DUP5 ADD GT ISZERO PUSH3 0x3DD JUMPI PUSH3 0x3DC PUSH3 0x2A1 JUMP JUMPDEST JUMPDEST PUSH3 0x3EA DUP5 DUP3 DUP6 PUSH3 0x371 JUMP JUMPDEST POP SWAP4 SWAP3 POP POP POP JUMP JUMPDEST PUSH1 0x0 DUP3 PUSH1 0x1F DUP4 ADD SLT PUSH3 0x40A JUMPI PUSH3 0x409 PUSH3 0x29C JUMP JUMPDEST JUMPDEST DUP2 MLOAD PUSH3 0x41C DUP5 DUP3 PUSH1 0x20 DUP7 ADD PUSH3 0x3A7 JUMP JUMPDEST SWAP2 POP POP SWAP3 SWAP2 POP POP JUMP JUMPDEST PUSH1 0x0 PUSH1 0xFF DUP3 AND SWAP1 POP SWAP2 SWAP1 POP JUMP JUMPDEST PUSH3 0x43D DUP2 PUSH3 0x425 JUMP JUMPDEST DUP2 EQ PUSH3 0x449 JUMPI PUSH1 0x0 DUP1 REVERT JUMPDEST POP JUMP JUMPDEST PUSH1 0x0 DUP2 MLOAD SWAP1 POP PUSH3 0x45D DUP2 PUSH3 0x432 JUMP JUMPDEST SWAP3 SWAP2 POP POP JUMP JUMPDEST PUSH1 0x0 DUP2 SWAP1 POP SWAP2 SWAP1 POP JUMP JUMPDEST PUSH3 0x478 DUP2 PUSH3 0x463 JUMP JUMPDEST DUP2 EQ PUSH3 0x484 JUMPI PUSH1 0x0 DUP1 REVERT JUMPDEST POP JUMP JUMPDEST PUSH1 0x0 DUP2 MLOAD SWAP1 POP PUSH3 0x498 DUP2 PUSH3 0x46D JUMP JUMPDEST SWAP3 SWAP2 POP POP JUMP JUMPDEST PUSH1 0x0 DUP1 PUSH1 0x0 DUP1 PUSH1 0x80 DUP6 DUP8 SUB SLT ISZERO PUSH3 0x4BB JUMPI PUSH3 0x4BA PUSH3 0x292 JUMP JUMPDEST JUMPDEST PUSH1 0x0 DUP6 ADD MLOAD PUSH8 0xFFFFFFFFFFFFFFFF DUP2 GT ISZERO PUSH3 0x4DC JUMPI PUSH3 0x4DB PUSH3 0x297 JUMP JUMPDEST JUMPDEST PUSH3 0x4EA DUP8 DUP3 DUP9 ADD PUSH3 0x3F2 JUMP JUMPDEST SWAP5 POP POP PUSH1 0x20 DUP6 ADD MLOAD PUSH8 0xFFFFFFFFFFFFFFFF DUP2 GT ISZERO PUSH3 0x50E JUMPI PUSH3 0x50D PUSH3 0x297 JUMP JUMPDEST JUMPDEST PUSH3 0x51C DUP8 DUP3 DUP9 ADD PUSH3 0x3F2 JUMP JUMPDEST SWAP4 POP POP PUSH1 0x40 PUSH3 0x52F DUP8 DUP3 DUP9 ADD PUSH3 0x44C JUMP JUMPDEST SWAP3 POP POP PUSH1 0x60 PUSH3 0x542 DUP8 DUP3 DUP9 ADD PUSH3 0x487 JUMP JUMPDEST SWAP2 POP POP SWAP3 SWAP6 SWAP2 SWAP5 POP SWAP3 POP JUMP JUMPDEST PUSH1 0x0 DUP2 MLOAD SWAP1 POP SWAP2 SWAP1 POP JUMP JUMPDEST PUSH32 0x4E487B7100000000000000000000000000000000000000000000000000000000 PUSH1 0x0 MSTORE PUSH1 0x22 PUSH1 0x4 MSTORE PUSH1 0x24 PUSH1 0x0 REVERT JUMPDEST PUSH1 0x0 PUSH1 0x2 DUP3 DIV SWAP1 POP PUSH1 0x1 DUP3 AND DUP1 PUSH3 0x5A1 JUMPI PUSH1 0x7F DUP3 AND SWAP2 POP JUMPDEST PUSH1 0x20 DUP3 LT DUP2 SUB PUSH3 0x5B7 JUMPI PUSH3 0x5B6 PUSH3 0x559 JUMP JUMPDEST JUMPDEST POP SWAP2 SWAP1 POP JUMP JUMPDEST PUSH1 0x0 DUP2 SWAP1 POP DUP2 PUSH1 0x0 MSTORE PUSH1 0x20 PUSH1 0x0 KECCAK256 SWAP1 POP SWAP2 SWAP1 POP JUMP JUMPDEST PUSH1 0x0 PUSH1 0x20 PUSH1 0x1F DUP4 ADD DIV SWAP1 POP SWAP2 SWAP1 POP JUMP JUMPDEST PUSH1 0x0 DUP3 DUP3 SHL SWAP1 POP SWAP3 SWAP2 POP POP JUMP JUMPDEST PUSH1 0x0 PUSH1 0x8 DUP4 MUL PUSH3 0x621 PUSH32 0xFFFFFFFFFFFFFFFFFFFFFFFFFFFFFFFFFFFFFFFFFFFFFFFFFFFFFFFFFFFFFFFF DUP3 PUSH3 0x5E2 JUMP JUMPDEST PUSH3 0x62D DUP7 DUP4 PUSH3 0x5E2 JUMP JUMPDEST SWAP6 POP DUP1 NOT DUP5 AND SWAP4 POP DUP1 DUP7 AND DUP5 OR SWAP3 POP POP POP SWAP4 SWAP3 POP POP POP JUMP JUMPDEST PUSH1 0x0 DUP2 SWAP1 POP SWAP2 SWAP1 POP JUMP JUMPDEST PUSH1 0x0 PUSH3 0x670 PUSH3 0x66A PUSH3 0x664 DUP5 PUSH3 0x463 JUMP JUMPDEST PUSH3 0x645 JUMP JUMPDEST PUSH3 0x463 JUMP JUMPDEST SWAP1 POP SWAP2 SWAP1 POP JUMP JUMPDEST PUSH1 0x0 DUP2 SWAP1 POP SWAP2 SWAP1 POP JUMP JUMPDEST PUSH3 0x68C DUP4 PUSH3 0x64F JUMP JUMPDEST PUSH3 0x6A4 PUSH3 0x69B DUP3 PUSH3 0x677 JUMP JUMPDEST DUP5 DUP5 SLOAD PUSH3 0x5EF JUMP JUMPDEST DUP3 SSTORE POP POP POP POP JUMP JUMPDEST PUSH1 0x0 SWAP1 JUMP JUMPDEST PUSH3 0x6BB PUSH3 0x6AC JUMP JUMPDEST PUSH3 0x6C8 DUP2 DUP5 DUP5 PUSH3 0x681 JUMP JUMPDEST POP POP POP JUMP JUMPDEST JUMPDEST DUP2 DUP2 LT ISZERO PUSH3 0x6F0 JUMPI PUSH3 0x6E4 PUSH1 0x0 DUP3 PUSH3 0x6B1 JUMP JUMPDEST PUSH1 0x1 DUP2 ADD SWAP1 POP PUSH3 0x6CE JUMP JUMPDEST POP POP JUMP JUMPDEST PUSH1 0x1F DUP3 GT ISZERO PUSH3 0x73F JUMPI PUSH3 0x709 DUP2 PUSH3 0x5BD JUMP JUMPDEST PUSH3 0x714 DUP5 PUSH3 0x5D2 JUMP JUMPDEST DUP2 ADD PUSH1 0x20 DUP6 LT ISZERO PUSH3 0x724 JUMPI DUP2 SWAP1 POP JUMPDEST PUSH3 0x73C PUSH3 0x733 DUP6 PUSH3 0x5D2 JUMP JUMPDEST DUP4 ADD DUP3 PUSH3 0x6CD JUMP JUMPDEST POP POP JUMPDEST POP POP POP JUMP JUMPDEST PUSH1 0x0 DUP3 DUP3 SHR SWAP1 POP SWAP3 SWAP2 POP POP JUMP JUMPDEST PUSH1 0x0 PUSH3 0x764 PUSH1 0x0 NOT DUP5 PUSH1 0x8 MUL PUSH3 0x744 JUMP JUMPDEST NOT DUP1 DUP4 AND SWAP2 POP POP SWAP3 SWAP2 POP POP JUMP JUMPDEST PUSH1 0x0 PUSH3 0x77F DUP4 DUP4 PUSH3 0x751 JUMP JUMPDEST SWAP2 POP DUP3 PUSH1 0x2 MUL DUP3 OR SWAP1 POP SWAP3 SWAP2 POP POP JUMP JUMPDEST PUSH3 0x79A DUP3 PUSH3 0x54E JUMP JUMPDEST PUSH8 0xFFFFFFFFFFFFFFFF DUP2 GT ISZERO PUSH3 0x7B6 JUMPI PUSH3 0x7B5 PUSH3 0x2B7 JUMP JUMPDEST JUMPDEST PUSH3 0x7C2 DUP3 SLOAD PUSH3 0x588 JUMP JUMPDEST PUSH3 0x7CF DUP3 DUP3 DUP6 PUSH3 0x6F4 JUMP JUMPDEST PUSH1 0x0 PUSH1 0x20 SWAP1 POP PUSH1 0x1F DUP4 GT PUSH1 0x1 DUP2 EQ PUSH3 0x807 JUMPI PUSH1 0x0 DUP5 ISZERO PUSH3 0x7F2 JUMPI DUP3 DUP8 ADD MLOAD SWAP1 POP JUMPDEST PUSH3 0x7FE DUP6 DUP3 PUSH3 0x771 JUMP JUMPDEST DUP7 SSTORE POP PUSH3 0x86E JUMP JUMPDEST PUSH1 0x1F NOT DUP5 AND PUSH3 0x817 DUP7 PUSH3 0x5BD JUMP JUMPDEST PUSH1 0x0 JUMPDEST DUP3 DUP2 LT ISZERO PUSH3 0x841 JUMPI DUP5 DUP10 ADD MLOAD DUP3 SSTORE PUSH1 0x1 DUP3 ADD SWAP2 POP PUSH1 0x20 DUP6 ADD SWAP5 POP PUSH1 0x20 DUP2 ADD SWAP1 POP PUSH3 0x81A JUMP JUMPDEST DUP7 DUP4 LT ISZERO PUSH3 0x861 JUMPI DUP5 DUP10 ADD MLOAD PUSH3 0x85D PUSH1 0x1F DUP10 AND DUP3 PUSH3 0x751 JUMP JUMPDEST DUP4 SSTORE POP JUMPDEST PUSH1 0x1 PUSH1 0x2 DUP9 MUL ADD DUP9 SSTORE POP POP POP JUMPDEST POP POP POP POP POP POP JUMP JUMPDEST PUSH3 0x881 DUP2 PUSH3 0x463 JUMP JUMPDEST DUP3 MSTORE POP POP JUMP JUMPDEST PUSH1 0x0 PUSH1 0x20 DUP3 ADD SWAP1 POP PUSH3 0x89E PUSH1 0x0 DUP4 ADD DUP5 PUSH3 0x876 JUMP JUMPDEST SWAP3 SWAP2 POP POP JUMP JUMPDEST PUSH2 0x2D94 DUP1 PUSH3 0x8B4 PUSH1 0x0 CODECOPY PUSH1 0x0 RETURN INVALID PUSH1 0x80 PUSH1 0x40 MSTORE CALLVALUE DUP1 ISZERO PUSH2 0x10 JUMPI PUSH1 0x0 DUP1 REVERT JUMPDEST POP PUSH1 0x4 CALLDATASIZE LT PUSH2 0x12C JUMPI PUSH1 0x0 CALLDATALOAD PUSH1 0xE0 SHR DUP1 PUSH4 0x8DA5CB5B GT PUSH2 0xAD JUMPI DUP1 PUSH4 0xA9059CBB GT PUSH2 0x71 JUMPI DUP1 PUSH4 0xA9059CBB EQ PUSH2 0x35B JUMPI DUP1 PUSH4 0xDD62ED3E EQ PUSH2 0x38B JUMPI DUP1 PUSH4 0xE73E14BF EQ PUSH2 0x3BB JUMPI DUP1 PUSH4 0xF1FDF469 EQ PUSH2 0x3EB JUMPI DUP1 PUSH4 0xF2FDE38B EQ PUSH2 0x407 JUMPI PUSH2 0x12C JUMP JUMPDEST DUP1 PUSH4 0x8DA5CB5B EQ PUSH2 0x2A3 JUMPI DUP1 PUSH4 0x95D89B41 EQ PUSH2 0x2C1 JUMPI DUP1 PUSH4 0x9DC29FAC EQ PUSH2 0x2DF JUMPI DUP1 PUSH4 0xA457C2D7 EQ PUSH2 0x30F JUMPI DUP1 PUSH4 0xA694FC3A EQ PUSH2 0x33F JUMPI PUSH2 0x12C JUMP JUMPDEST DUP1 PUSH4 0x39509351 GT PUSH2 0xF4 JUMPI DUP1 PUSH4 0x39509351 EQ PUSH2 0x1EB JUMPI DUP1 PUSH4 0x40C10F19 EQ PUSH2 0x21B JUMPI DUP1 PUSH4 0x70A08231 EQ PUSH2 0x24B JUMPI DUP1 PUSH4 0x715018A6 EQ PUSH2 0x27B JUMPI DUP1 PUSH4 0x893D20E8 EQ PUSH2 0x285 JUMPI PUSH2 0x12C JUMP JUMPDEST DUP1 PUSH4 0x6FDDE03 EQ PUSH2 0x131 JUMPI DUP1 PUSH4 0x95EA7B3 EQ PUSH2 0x14F JUMPI DUP1 PUSH4 0x18160DDD EQ PUSH2 0x17F JUMPI DUP1 PUSH4 0x23B872DD EQ PUSH2 0x19D JUMPI DUP1 PUSH4 0x313CE567 EQ PUSH2 0x1CD JUMPI JUMPDEST PUSH1 0x0 DUP1 REVERT JUMPDEST PUSH2 0x139 PUSH2 0x423 JUMP JUMPDEST PUSH1 0x40 MLOAD PUSH2 0x146 SWAP2 SWAP1 PUSH2 0x1F0B JUMP JUMPDEST PUSH1 0x40 MLOAD DUP1 SWAP2 SUB SWAP1 RETURN JUMPDEST PUSH2 0x169 PUSH1 0x4 DUP1 CALLDATASIZE SUB DUP2 ADD SWAP1 PUSH2 0x164 SWAP2 SWAP1 PUSH2 0x1FC6 JUMP JUMPDEST PUSH2 0x4B5 JUMP JUMPDEST PUSH1 0x40 MLOAD PUSH2 0x176 SWAP2 SWAP1 PUSH2 0x2021 JUMP JUMPDEST PUSH1 0x40 MLOAD DUP1 SWAP2 SUB SWAP1 RETURN JUMPDEST PUSH2 0x187 PUSH2 0x4CC JUMP JUMPDEST PUSH1 0x40 MLOAD PUSH2 0x194 SWAP2 SWAP1 PUSH2 0x204B JUMP JUMPDEST PUSH1 0x40 MLOAD DUP1 SWAP2 SUB SWAP1 RETURN JUMPDEST PUSH2 0x1B7 PUSH1 0x4 DUP1 CALLDATASIZE SUB DUP2 ADD SWAP1 PUSH2 0x1B2 SWAP2 SWAP1 PUSH2 0x2066 JUMP JUMPDEST PUSH2 0x4D6 JUMP JUMPDEST PUSH1 0x40 MLOAD PUSH2 0x1C4 SWAP2 SWAP1 PUSH2 0x2021 JUMP JUMPDEST PUSH1 0x40 MLOAD DUP1 SWAP2 SUB SWAP1 RETURN JUMPDEST PUSH2 0x1D5 PUSH2 0x63F JUMP JUMPDEST PUSH1 0x40 MLOAD PUSH2 0x1E2 SWAP2 SWAP1 PUSH2 0x20D5 JUMP JUMPDEST PUSH1 0x40 MLOAD DUP1 SWAP2 SUB SWAP1 RETURN JUMPDEST PUSH2 0x205 PUSH1 0x4 DUP1 CALLDATASIZE SUB DUP2 ADD SWAP1 PUSH2 0x200 SWAP2 SWAP1 PUSH2 0x1FC6 JUMP JUMPDEST PUSH2 0x656 JUMP JUMPDEST PUSH1 0x40 MLOAD PUSH2 0x212 SWAP2 SWAP1 PUSH2 0x2021 JUMP JUMPDEST PUSH1 0x40 MLOAD DUP1 SWAP2 SUB SWAP1 RETURN JUMPDEST PUSH2 0x235 PUSH1 0x4 DUP1 CALLDATASIZE SUB DUP2 ADD SWAP1 PUSH2 0x230 SWAP2 SWAP1 PUSH2 0x1FC6 JUMP JUMPDEST PUSH2 0x6F4 JUMP JUMPDEST PUSH1 0x40 MLOAD PUSH2 0x242 SWAP2 SWAP1 PUSH2 0x2021 JUMP JUMPDEST PUSH1 0x40 MLOAD DUP1 SWAP2 SUB SWAP1 RETURN JUMPDEST PUSH2 0x265 PUSH1 0x4 DUP1 CALLDATASIZE SUB DUP2 ADD SWAP1 PUSH2 0x260 SWAP2 SWAP1 PUSH2 0x20F0 JUMP JUMPDEST PUSH2 0x798 JUMP JUMPDEST PUSH1 0x40 MLOAD PUSH2 0x272 SWAP2 SWAP1 PUSH2 0x204B JUMP JUMPDEST PUSH1 0x40 MLOAD DUP1 SWAP2 SUB SWAP1 RETURN JUMPDEST PUSH2 0x283 PUSH2 0x7E1 JUMP JUMPDEST STOP JUMPDEST PUSH2 0x28D PUSH2 0x92D JUMP JUMPDEST PUSH1 0x40 MLOAD PUSH2 0x29A SWAP2 SWAP1 PUSH2 0x212C JUMP JUMPDEST PUSH1 0x40 MLOAD DUP1 SWAP2 SUB SWAP1 RETURN JUMPDEST PUSH2 0x2AB PUSH2 0x93C JUMP JUMPDEST PUSH1 0x40 MLOAD PUSH2 0x2B8 SWAP2 SWAP1 PUSH2 0x212C JUMP JUMPDEST PUSH1 0x40 MLOAD DUP1 SWAP2 SUB SWAP1 RETURN JUMPDEST PUSH2 0x2C9 PUSH2 0x965 JUMP JUMPDEST PUSH1 0x40 MLOAD PUSH2 0x2D6 SWAP2 SWAP1 PUSH2 0x1F0B JUMP JUMPDEST PUSH1 0x40 MLOAD DUP1 SWAP2 SUB SWAP1 RETURN JUMPDEST PUSH2 0x2F9 PUSH1 0x4 DUP1 CALLDATASIZE SUB DUP2 ADD SWAP1 PUSH2 0x2F4 SWAP2 SWAP1 PUSH2 0x1FC6 JUMP JUMPDEST PUSH2 0x9F7 JUMP JUMPDEST PUSH1 0x40 MLOAD PUSH2 0x306 SWAP2 SWAP1 PUSH2 0x2021 JUMP JUMPDEST PUSH1 0x40 MLOAD DUP1 SWAP2 SUB SWAP1 RETURN JUMPDEST PUSH2 0x329 PUSH1 0x4 DUP1 CALLDATASIZE SUB DUP2 ADD SWAP1 PUSH2 0x324 SWAP2 SWAP1 PUSH2 0x1FC6 JUMP JUMPDEST PUSH2 0xA9B JUMP JUMPDEST PUSH1 0x40 MLOAD PUSH2 0x336 SWAP2 SWAP1 PUSH2 0x2021 JUMP JUMPDEST PUSH1 0x40 MLOAD DUP1 SWAP2 SUB SWAP1 RETURN JUMPDEST PUSH2 0x359 PUSH1 0x4 DUP1 CALLDATASIZE SUB DUP2 ADD SWAP1 PUSH2 0x354 SWAP2 SWAP1 PUSH2 0x2147 JUMP JUMPDEST PUSH2 0xB39 JUMP JUMPDEST STOP JUMPDEST PUSH2 0x375 PUSH1 0x4 DUP1 CALLDATASIZE SUB DUP2 ADD SWAP1 PUSH2 0x370 SWAP2 SWAP1 PUSH2 0x1FC6 JUMP JUMPDEST PUSH2 0xBD0 JUMP JUMPDEST PUSH1 0x40 MLOAD PUSH2 0x382 SWAP2 SWAP1 PUSH2 0x2021 JUMP JUMPDEST PUSH1 0x40 MLOAD DUP1 SWAP2 SUB SWAP1 RETURN JUMPDEST PUSH2 0x3A5 PUSH1 0x4 DUP1 CALLDATASIZE SUB DUP2 ADD SWAP1 PUSH2 0x3A0 SWAP2 SWAP1 PUSH2 0x2174 JUMP JUMPDEST PUSH2 0xBE7 JUMP JUMPDEST PUSH1 0x40 MLOAD PUSH2 0x3B2 SWAP2 SWAP1 PUSH2 0x204B JUMP JUMPDEST PUSH1 0x40 MLOAD DUP1 SWAP2 SUB SWAP1 RETURN JUMPDEST PUSH2 0x3D5 PUSH1 0x4 DUP1 CALLDATASIZE SUB DUP2 ADD SWAP1 PUSH2 0x3D0 SWAP2 SWAP1 PUSH2 0x20F0 JUMP JUMPDEST PUSH2 0xC6E JUMP JUMPDEST PUSH1 0x40 MLOAD PUSH2 0x3E2 SWAP2 SWAP1 PUSH2 0x2313 JUMP JUMPDEST PUSH1 0x40 MLOAD DUP1 SWAP2 SUB SWAP1 RETURN JUMPDEST PUSH2 0x405 PUSH1 0x4 DUP1 CALLDATASIZE SUB DUP2 ADD SWAP1 PUSH2 0x400 SWAP2 SWAP1 PUSH2 0x2335 JUMP JUMPDEST PUSH2 0xE7B JUMP JUMPDEST STOP JUMPDEST PUSH2 0x421 PUSH1 0x4 DUP1 CALLDATASIZE SUB DUP2 ADD SWAP1 PUSH2 0x41C SWAP2 SWAP1 PUSH2 0x20F0 JUMP JUMPDEST PUSH2 0xE98 JUMP JUMPDEST STOP JUMPDEST PUSH1 0x60 PUSH1 0x7 DUP1 SLOAD PUSH2 0x432 SWAP1 PUSH2 0x23A4 JUMP JUMPDEST DUP1 PUSH1 0x1F ADD PUSH1 0x20 DUP1 SWAP2 DIV MUL PUSH1 0x20 ADD PUSH1 0x40 MLOAD SWAP1 DUP2 ADD PUSH1 0x40 MSTORE DUP1 SWAP3 SWAP2 SWAP1 DUP2 DUP2 MSTORE PUSH1 0x20 ADD DUP3 DUP1 SLOAD PUSH2 0x45E SWAP1 PUSH2 0x23A4 JUMP JUMPDEST DUP1 ISZERO PUSH2 0x4AB JUMPI DUP1 PUSH1 0x1F LT PUSH2 0x480 JUMPI PUSH2 0x100 DUP1 DUP4 SLOAD DIV MUL DUP4 MSTORE SWAP2 PUSH1 0x20 ADD SWAP2 PUSH2 0x4AB JUMP JUMPDEST DUP3 ADD SWAP2 SWAP1 PUSH1 0x0 MSTORE PUSH1 0x20 PUSH1 0x0 KECCAK256 SWAP1 JUMPDEST DUP2 SLOAD DUP2 MSTORE SWAP1 PUSH1 0x1 ADD SWAP1 PUSH1 0x20 ADD DUP1 DUP4 GT PUSH2 0x48E JUMPI DUP3 SWAP1 SUB PUSH1 0x1F AND DUP3 ADD SWAP2 JUMPDEST POP POP POP POP POP SWAP1 POP SWAP1 JUMP JUMPDEST PUSH1 0x0 PUSH2 0x4C2 CALLER DUP5 DUP5 PUSH2 0xF32 JUMP JUMPDEST PUSH1 0x1 SWAP1 POP SWAP3 SWAP2 POP POP JUMP JUMPDEST PUSH1 0x0 PUSH1 0x4 SLOAD SWAP1 POP SWAP1 JUMP JUMPDEST PUSH1 0x0 DUP2 PUSH1 0x9 PUSH1 0x0 DUP7 PUSH20 0xFFFFFFFFFFFFFFFFFFFFFFFFFFFFFFFFFFFFFFFF AND PUSH20 0xFFFFFFFFFFFFFFFFFFFFFFFFFFFFFFFFFFFFFFFF AND DUP2 MSTORE PUSH1 0x20 ADD SWAP1 DUP2 MSTORE PUSH1 0x20 ADD PUSH1 0x0 KECCAK256 PUSH1 0x0 CALLER PUSH20 0xFFFFFFFFFFFFFFFFFFFFFFFFFFFFFFFFFFFFFFFF AND PUSH20 0xFFFFFFFFFFFFFFFFFFFFFFFFFFFFFFFFFFFFFFFF AND DUP2 MSTORE PUSH1 0x20 ADD SWAP1 DUP2 MSTORE PUSH1 0x20 ADD PUSH1 0x0 KECCAK256 SLOAD LT ISZERO PUSH2 0x597 JUMPI PUSH1 0x40 MLOAD PUSH32 0x8C379A000000000000000000000000000000000000000000000000000000000 DUP2 MSTORE PUSH1 0x4 ADD PUSH2 0x58E SWAP1 PUSH2 0x2447 JUMP JUMPDEST PUSH1 0x40 MLOAD DUP1 SWAP2 SUB SWAP1 REVERT JUMPDEST PUSH2 0x5A2 DUP5 DUP5 DUP5 PUSH2 0x10FB JUMP JUMPDEST PUSH2 0x634 DUP5 CALLER DUP5 PUSH1 0x9 PUSH1 0x0 DUP10 PUSH20 0xFFFFFFFFFFFFFFFFFFFFFFFFFFFFFFFFFFFFFFFF AND PUSH20 0xFFFFFFFFFFFFFFFFFFFFFFFFFFFFFFFFFFFFFFFF AND DUP2 MSTORE PUSH1 0x20 ADD SWAP1 DUP2 MSTORE PUSH1 0x20 ADD PUSH1 0x0 KECCAK256 PUSH1 0x0 CALLER PUSH20 0xFFFFFFFFFFFFFFFFFFFFFFFFFFFFFFFFFFFFFFFF AND PUSH20 0xFFFFFFFFFFFFFFFFFFFFFFFFFFFFFFFFFFFFFFFF AND DUP2 MSTORE PUSH1 0x20 ADD SWAP1 DUP2 MSTORE PUSH1 0x20 ADD PUSH1 0x0 KECCAK256 SLOAD PUSH2 0x62F SWAP2 SWAP1 PUSH2 0x2496 JUMP JUMPDEST PUSH2 0xF32 JUMP JUMPDEST PUSH1 0x1 SWAP1 POP SWAP4 SWAP3 POP POP POP JUMP JUMPDEST PUSH1 0x0 PUSH1 0x5 PUSH1 0x0 SWAP1 SLOAD SWAP1 PUSH2 0x100 EXP SWAP1 DIV PUSH1 0xFF AND SWAP1 POP SWAP1 JUMP JUMPDEST PUSH1 0x0 PUSH2 0x6EA CALLER DUP5 DUP5 PUSH1 0x9 PUSH1 0x0 CALLER PUSH20 0xFFFFFFFFFFFFFFFFFFFFFFFFFFFFFFFFFFFFFFFF AND PUSH20 0xFFFFFFFFFFFFFFFFFFFFFFFFFFFFFFFFFFFFFFFF AND DUP2 MSTORE PUSH1 0x20 ADD SWAP1 DUP2 MSTORE PUSH1 0x20 ADD PUSH1 0x0 KECCAK256 PUSH1 0x0 DUP9 PUSH20 0xFFFFFFFFFFFFFFFFFFFFFFFFFFFFFFFFFFFFFFFF AND PUSH20 0xFFFFFFFFFFFFFFFFFFFFFFFFFFFFFFFFFFFFFFFF AND DUP2 MSTORE PUSH1 0x20 ADD SWAP1 DUP2 MSTORE PUSH1 0x20 ADD PUSH1 0x0 KECCAK256 SLOAD PUSH2 0x6E5 SWAP2 SWAP1 PUSH2 0x24CA JUMP JUMPDEST PUSH2 0xF32 JUMP JUMPDEST PUSH1 0x1 SWAP1 POP SWAP3 SWAP2 POP POP JUMP JUMPDEST PUSH1 0x0 CALLER PUSH20 0xFFFFFFFFFFFFFFFFFFFFFFFFFFFFFFFFFFFFFFFF AND PUSH1 0x0 DUP1 SLOAD SWAP1 PUSH2 0x100 EXP SWAP1 DIV PUSH20 0xFFFFFFFFFFFFFFFFFFFFFFFFFFFFFFFFFFFFFFFF AND PUSH20 0xFFFFFFFFFFFFFFFFFFFFFFFFFFFFFFFFFFFFFFFF AND EQ PUSH2 0x784 JUMPI PUSH1 0x40 MLOAD PUSH32 0x8C379A000000000000000000000000000000000000000000000000000000000 DUP2 MSTORE PUSH1 0x4 ADD PUSH2 0x77B SWAP1 PUSH2 0x2592 JUMP JUMPDEST PUSH1 0x40 MLOAD DUP1 SWAP2 SUB SWAP1 REVERT JUMPDEST PUSH2 0x78E DUP4 DUP4 PUSH2 0x13E1 JUMP JUMPDEST PUSH1 0x1 SWAP1 POP SWAP3 SWAP2 POP POP JUMP JUMPDEST PUSH1 0x0 PUSH1 0x8 PUSH1 0x0 DUP4 PUSH20 0xFFFFFFFFFFFFFFFFFFFFFFFFFFFFFFFFFFFFFFFF AND PUSH20 0xFFFFFFFFFFFFFFFFFFFFFFFFFFFFFFFFFFFFFFFF AND DUP2 MSTORE PUSH1 0x20 ADD SWAP1 DUP2 MSTORE PUSH1 0x20 ADD PUSH1 0x0 KECCAK256 SLOAD SWAP1 POP SWAP2 SWAP1 POP JUMP JUMPDEST CALLER PUSH20 0xFFFFFFFFFFFFFFFFFFFFFFFFFFFFFFFFFFFFFFFF AND PUSH1 0x0 DUP1 SLOAD SWAP1 PUSH2 0x100 EXP SWAP1 DIV PUSH20 0xFFFFFFFFFFFFFFFFFFFFFFFFFFFFFFFFFFFFFFFF AND PUSH20 0xFFFFFFFFFFFFFFFFFFFFFFFFFFFFFFFFFFFFFFFF AND EQ PUSH2 0x86F JUMPI PUSH1 0x40 MLOAD PUSH32 0x8C379A000000000000000000000000000000000000000000000000000000000 DUP2 MSTORE PUSH1 0x4 ADD PUSH2 0x866 SWAP1 PUSH2 0x2592 JUMP JUMPDEST PUSH1 0x40 MLOAD DUP1 SWAP2 SUB SWAP1 REVERT JUMPDEST PUSH1 0x0 PUSH20 0xFFFFFFFFFFFFFFFFFFFFFFFFFFFFFFFFFFFFFFFF AND PUSH1 0x0 DUP1 SLOAD SWAP1 PUSH2 0x100 EXP SWAP1 DIV PUSH20 0xFFFFFFFFFFFFFFFFFFFFFFFFFFFFFFFFFFFFFFFF AND PUSH20 0xFFFFFFFFFFFFFFFFFFFFFFFFFFFFFFFFFFFFFFFF AND PUSH32 0x8BE0079C531659141344CD1FD0A4F28419497F9722A3DAAFE3B4186F6B6457E0 PUSH1 0x40 MLOAD PUSH1 0x40 MLOAD DUP1 SWAP2 SUB SWAP1 LOG3 PUSH1 0x0 DUP1 PUSH1 0x0 PUSH2 0x100 EXP DUP2 SLOAD DUP2 PUSH20 0xFFFFFFFFFFFFFFFFFFFFFFFFFFFFFFFFFFFFFFFF MUL NOT AND SWAP1 DUP4 PUSH20 0xFFFFFFFFFFFFFFFFFFFFFFFFFFFFFFFFFFFFFFFF AND MUL OR SWAP1 SSTORE POP JUMP JUMPDEST PUSH1 0x0 PUSH2 0x937 PUSH2 0x93C JUMP JUMPDEST SWAP1 POP SWAP1 JUMP JUMPDEST PUSH1 0x0 DUP1 PUSH1 0x0 SWAP1 SLOAD SWAP1 PUSH2 0x100 EXP SWAP1 DIV PUSH20 0xFFFFFFFFFFFFFFFFFFFFFFFFFFFFFFFFFFFFFFFF AND SWAP1 POP SWAP1 JUMP JUMPDEST PUSH1 0x60 PUSH1 0x6 DUP1 SLOAD PUSH2 0x974 SWAP1 PUSH2 0x23A4 JUMP JUMPDEST DUP1 PUSH1 0x1F ADD PUSH1 0x20 DUP1 SWAP2 DIV MUL PUSH1 0x20 ADD PUSH1 0x40 MLOAD SWAP1 DUP2 ADD PUSH1 0x40 MSTORE DUP1 SWAP3 SWAP2 SWAP1 DUP2 DUP2 MSTORE PUSH1 0x20 ADD DUP3 DUP1 SLOAD PUSH2 0x9A0 SWAP1 PUSH2 0x23A4 JUMP JUMPDEST DUP1 ISZERO PUSH2 0x9ED JUMPI DUP1 PUSH1 0x1F LT PUSH2 0x9C2 JUMPI PUSH2 0x100 DUP1 DUP4 SLOAD DIV MUL DUP4 MSTORE SWAP2 PUSH1 0x20 ADD SWAP2 PUSH2 0x9ED JUMP JUMPDEST DUP3 ADD SWAP2 SWAP1 PUSH1 0x0 MSTORE PUSH1 0x20 PUSH1 0x0 KECCAK256 SWAP1 JUMPDEST DUP2 SLOAD DUP2 MSTORE SWAP1 PUSH1 0x1 ADD SWAP1 PUSH1 0x20 ADD DUP1 DUP4 GT PUSH2 0x9D0 JUMPI DUP3 SWAP1 SUB PUSH1 0x1F AND DUP3 ADD SWAP2 JUMPDEST POP POP POP POP POP SWAP1 POP SWAP1 JUMP JUMPDEST PUSH1 0x0 CALLER PUSH20 0xFFFFFFFFFFFFFFFFFFFFFFFFFFFFFFFFFFFFFFFF AND PUSH1 0x0 DUP1 SLOAD SWAP1 PUSH2 0x100 EXP SWAP1 DIV PUSH20 0xFFFFFFFFFFFFFFFFFFFFFFFFFFFFFFFFFFFFFFFF AND PUSH20 0xFFFFFFFFFFFFFFFFFFFFFFFFFFFFFFFFFFFFFFFF AND EQ PUSH2 0xA87 JUMPI PUSH1 0x40 MLOAD PUSH32 0x8C379A000000000000000000000000000000000000000000000000000000000 DUP2 MSTORE PUSH1 0x4 ADD PUSH2 0xA7E SWAP1 PUSH2 0x2592 JUMP JUMPDEST PUSH1 0x40 MLOAD DUP1 SWAP2 SUB SWAP1 REVERT JUMPDEST PUSH2 0xA91 DUP4 DUP4 PUSH2 0x155C JUMP JUMPDEST PUSH1 0x1 SWAP1 POP SWAP3 SWAP2 POP POP JUMP JUMPDEST PUSH1 0x0 PUSH2 0xB2F CALLER DUP5 DUP5 PUSH1 0x9 PUSH1 0x0 CALLER PUSH20 0xFFFFFFFFFFFFFFFFFFFFFFFFFFFFFFFFFFFFFFFF AND PUSH20 0xFFFFFFFFFFFFFFFFFFFFFFFFFFFFFFFFFFFFFFFF AND DUP2 MSTORE PUSH1 0x20 ADD SWAP1 DUP2 MSTORE PUSH1 0x20 ADD PUSH1 0x0 KECCAK256 PUSH1 0x0 DUP9 PUSH20 0xFFFFFFFFFFFFFFFFFFFFFFFFFFFFFFFFFFFFFFFF AND PUSH20 0xFFFFFFFFFFFFFFFFFFFFFFFFFFFFFFFFFFFFFFFF AND DUP2 MSTORE PUSH1 0x20 ADD SWAP1 DUP2 MSTORE PUSH1 0x20 ADD PUSH1 0x0 KECCAK256 SLOAD PUSH2 0xB2A SWAP2 SWAP1 PUSH2 0x2496 JUMP JUMPDEST PUSH2 0xF32 JUMP JUMPDEST PUSH1 0x1 SWAP1 POP SWAP3 SWAP2 POP POP JUMP JUMPDEST PUSH1 0x8 PUSH1 0x0 CALLER PUSH20 0xFFFFFFFFFFFFFFFFFFFFFFFFFFFFFFFFFFFFFFFF AND PUSH20 0xFFFFFFFFFFFFFFFFFFFFFFFFFFFFFFFFFFFFFFFF AND DUP2 MSTORE PUSH1 0x20 ADD SWAP1 DUP2 MSTORE PUSH1 0x20 ADD PUSH1 0x0 KECCAK256 SLOAD DUP2 LT PUSH2 0xBBA JUMPI PUSH1 0x40 MLOAD PUSH32 0x8C379A000000000000000000000000000000000000000000000000000000000 DUP2 MSTORE PUSH1 0x4 ADD PUSH2 0xBB1 SWAP1 PUSH2 0x2624 JUMP JUMPDEST PUSH1 0x40 MLOAD DUP1 SWAP2 SUB SWAP1 REVERT JUMPDEST PUSH2 0xBC3 DUP2 PUSH2 0x1759 JUMP JUMPDEST PUSH2 0xBCD CALLER DUP3 PUSH2 0x155C JUMP JUMPDEST POP JUMP JUMPDEST PUSH1 0x0 PUSH2 0xBDD CALLER DUP5 DUP5 PUSH2 0x10FB JUMP JUMPDEST PUSH1 0x1 SWAP1 POP SWAP3 SWAP2 POP POP JUMP JUMPDEST PUSH1 0x0 PUSH1 0x9 PUSH1 0x0 DUP5 PUSH20 0xFFFFFFFFFFFFFFFFFFFFFFFFFFFFFFFFFFFFFFFF AND PUSH20 0xFFFFFFFFFFFFFFFFFFFFFFFFFFFFFFFFFFFFFFFF AND DUP2 MSTORE PUSH1 0x20 ADD SWAP1 DUP2 MSTORE PUSH1 0x20 ADD PUSH1 0x0 KECCAK256 PUSH1 0x0 DUP4 PUSH20 0xFFFFFFFFFFFFFFFFFFFFFFFFFFFFFFFFFFFFFFFF AND PUSH20 0xFFFFFFFFFFFFFFFFFFFFFFFFFFFFFFFFFFFFFFFF AND DUP2 MSTORE PUSH1 0x20 ADD SWAP1 DUP2 MSTORE PUSH1 0x20 ADD PUSH1 0x0 KECCAK256 SLOAD SWAP1 POP SWAP3 SWAP2 POP POP JUMP JUMPDEST PUSH2 0xC76 PUSH2 0x1E58 JUMP JUMPDEST PUSH1 0x0 DUP1 PUSH1 0x40 MLOAD DUP1 PUSH1 0x40 ADD PUSH1 0x40 MSTORE DUP1 PUSH1 0x0 DUP2 MSTORE PUSH1 0x20 ADD PUSH1 0x1 PUSH1 0x2 PUSH1 0x0 DUP9 PUSH20 0xFFFFFFFFFFFFFFFFFFFFFFFFFFFFFFFFFFFFFFFF AND PUSH20 0xFFFFFFFFFFFFFFFFFFFFFFFFFFFFFFFFFFFFFFFF AND DUP2 MSTORE PUSH1 0x20 ADD SWAP1 DUP2 MSTORE PUSH1 0x20 ADD PUSH1 0x0 KECCAK256 SLOAD DUP2 SLOAD DUP2 LT PUSH2 0xCDE JUMPI PUSH2 0xCDD PUSH2 0x2644 JUMP JUMPDEST JUMPDEST SWAP1 PUSH1 0x0 MSTORE PUSH1 0x20 PUSH1 0x0 KECCAK256 SWAP1 PUSH1 0x2 MUL ADD PUSH1 0x1 ADD DUP1 SLOAD DUP1 PUSH1 0x20 MUL PUSH1 0x20 ADD PUSH1 0x40 MLOAD SWAP1 DUP2 ADD PUSH1 0x40 MSTORE DUP1 SWAP3 SWAP2 SWAP1 DUP2 DUP2 MSTORE PUSH1 0x20 ADD PUSH1 0x0 SWAP1 JUMPDEST DUP3 DUP3 LT ISZERO PUSH2 0xDB5 JUMPI DUP4 DUP3 SWAP1 PUSH1 0x0 MSTORE PUSH1 0x20 PUSH1 0x0 KECCAK256 SWAP1 PUSH1 0x4 MUL ADD PUSH1 0x40 MLOAD DUP1 PUSH1 0x80 ADD PUSH1 0x40 MSTORE SWAP1 DUP2 PUSH1 0x0 DUP3 ADD PUSH1 0x0 SWAP1 SLOAD SWAP1 PUSH2 0x100 EXP SWAP1 DIV PUSH20 0xFFFFFFFFFFFFFFFFFFFFFFFFFFFFFFFFFFFFFFFF AND PUSH20 0xFFFFFFFFFFFFFFFFFFFFFFFFFFFFFFFFFFFFFFFF AND PUSH20 0xFFFFFFFFFFFFFFFFFFFFFFFFFFFFFFFFFFFFFFFF AND DUP2 MSTORE PUSH1 0x20 ADD PUSH1 0x1 DUP3 ADD SLOAD DUP2 MSTORE PUSH1 0x20 ADD PUSH1 0x2 DUP3 ADD SLOAD DUP2 MSTORE PUSH1 0x20 ADD PUSH1 0x3 DUP3 ADD SLOAD DUP2 MSTORE POP POP DUP2 MSTORE PUSH1 0x20 ADD SWAP1 PUSH1 0x1 ADD SWAP1 PUSH2 0xD0F JUMP JUMPDEST POP POP POP POP DUP2 MSTORE POP SWAP1 POP PUSH1 0x0 JUMPDEST DUP2 PUSH1 0x20 ADD MLOAD MLOAD DUP2 LT ISZERO PUSH2 0xE66 JUMPI PUSH1 0x0 PUSH2 0xDF7 DUP4 PUSH1 0x20 ADD MLOAD DUP4 DUP2 MLOAD DUP2 LT PUSH2 0xDEA JUMPI PUSH2 0xDE9 PUSH2 0x2644 JUMP JUMPDEST JUMPDEST PUSH1 0x20 MUL PUSH1 0x20 ADD ADD MLOAD PUSH2 0x193D JUMP JUMPDEST SWAP1 POP DUP1 DUP4 PUSH1 0x20 ADD MLOAD DUP4 DUP2 MLOAD DUP2 LT PUSH2 0xE11 JUMPI PUSH2 0xE10 PUSH2 0x2644 JUMP JUMPDEST JUMPDEST PUSH1 0x20 MUL PUSH1 0x20 ADD ADD MLOAD PUSH1 0x60 ADD DUP2 DUP2 MSTORE POP POP DUP3 PUSH1 0x20 ADD MLOAD DUP3 DUP2 MLOAD DUP2 LT PUSH2 0xE38 JUMPI PUSH2 0xE37 PUSH2 0x2644 JUMP JUMPDEST JUMPDEST PUSH1 0x20 MUL PUSH1 0x20 ADD ADD MLOAD PUSH1 0x20 ADD MLOAD DUP5 PUSH2 0xE4F SWAP2 SWAP1 PUSH2 0x24CA JUMP JUMPDEST SWAP4 POP POP PUSH1 0x1 DUP2 PUSH2 0xE5F SWAP2 SWAP1 PUSH2 0x24CA JUMP JUMPDEST SWAP1 POP PUSH2 0xDC1 JUMP JUMPDEST POP DUP2 DUP2 PUSH1 0x0 ADD DUP2 DUP2 MSTORE POP POP DUP1 SWAP3 POP POP POP SWAP2 SWAP1 POP JUMP JUMPDEST PUSH1 0x0 PUSH2 0xE87 DUP4 DUP4 PUSH2 0x197F JUMP JUMPDEST SWAP1 POP PUSH2 0xE93 CALLER DUP3 PUSH2 0x13E1 JUMP JUMPDEST POP POP POP JUMP JUMPDEST CALLER PUSH20 0xFFFFFFFFFFFFFFFFFFFFFFFFFFFFFFFFFFFFFFFF AND PUSH1 0x0 DUP1 SLOAD SWAP1 PUSH2 0x100 EXP SWAP1 DIV PUSH20 0xFFFFFFFFFFFFFFFFFFFFFFFFFFFFFFFFFFFFFFFF AND PUSH20 0xFFFFFFFFFFFFFFFFFFFFFFFFFFFFFFFFFFFFFFFF AND EQ PUSH2 0xF26 JUMPI PUSH1 0x40 MLOAD PUSH32 0x8C379A000000000000000000000000000000000000000000000000000000000 DUP2 MSTORE PUSH1 0x4 ADD PUSH2 0xF1D SWAP1 PUSH2 0x2592 JUMP JUMPDEST PUSH1 0x40 MLOAD DUP1 SWAP2 SUB SWAP1 REVERT JUMPDEST PUSH2 0xF2F DUP2 PUSH2 0x1C47 JUMP JUMPDEST POP JUMP JUMPDEST PUSH1 0x0 PUSH20 0xFFFFFFFFFFFFFFFFFFFFFFFFFFFFFFFFFFFFFFFF AND DUP4 PUSH20 0xFFFFFFFFFFFFFFFFFFFFFFFFFFFFFFFFFFFFFFFF AND SUB PUSH2 0xFA1 JUMPI PUSH1 0x40 MLOAD PUSH32 0x8C379A000000000000000000000000000000000000000000000000000000000 DUP2 MSTORE PUSH1 0x4 ADD PUSH2 0xF98 SWAP1 PUSH2 0x26E5 JUMP JUMPDEST PUSH1 0x40 MLOAD DUP1 SWAP2 SUB SWAP1 REVERT JUMPDEST PUSH1 0x0 PUSH20 0xFFFFFFFFFFFFFFFFFFFFFFFFFFFFFFFFFFFFFFFF AND DUP3 PUSH20 0xFFFFFFFFFFFFFFFFFFFFFFFFFFFFFFFFFFFFFFFF AND SUB PUSH2 0x1010 JUMPI PUSH1 0x40 MLOAD PUSH32 0x8C379A000000000000000000000000000000000000000000000000000000000 DUP2 MSTORE PUSH1 0x4 ADD PUSH2 0x1007 SWAP1 PUSH2 0x2777 JUMP JUMPDEST PUSH1 0x40 MLOAD DUP1 SWAP2 SUB SWAP1 REVERT JUMPDEST DUP1 PUSH1 0x9 PUSH1 0x0 DUP6 PUSH20 0xFFFFFFFFFFFFFFFFFFFFFFFFFFFFFFFFFFFFFFFF AND PUSH20 0xFFFFFFFFFFFFFFFFFFFFFFFFFFFFFFFFFFFFFFFF AND DUP2 MSTORE PUSH1 0x20 ADD SWAP1 DUP2 MSTORE PUSH1 0x20 ADD PUSH1 0x0 KECCAK256 PUSH1 0x0 DUP5 PUSH20 0xFFFFFFFFFFFFFFFFFFFFFFFFFFFFFFFFFFFFFFFF AND PUSH20 0xFFFFFFFFFFFFFFFFFFFFFFFFFFFFFFFFFFFFFFFF AND DUP2 MSTORE PUSH1 0x20 ADD SWAP1 DUP2 MSTORE PUSH1 0x20 ADD PUSH1 0x0 KECCAK256 DUP2 SWAP1 SSTORE POP DUP2 PUSH20 0xFFFFFFFFFFFFFFFFFFFFFFFFFFFFFFFFFFFFFFFF AND DUP4 PUSH20 0xFFFFFFFFFFFFFFFFFFFFFFFFFFFFFFFFFFFFFFFF AND PUSH32 0x8C5BE1E5EBEC7D5BD14F71427D1E84F3DD0314C0F7B2291E5B200AC8C7C3B925 DUP4 PUSH1 0x40 MLOAD PUSH2 0x10EE SWAP2 SWAP1 PUSH2 0x204B JUMP JUMPDEST PUSH1 0x40 MLOAD DUP1 SWAP2 SUB SWAP1 LOG3 POP POP POP JUMP JUMPDEST PUSH1 0x0 PUSH20 0xFFFFFFFFFFFFFFFFFFFFFFFFFFFFFFFFFFFFFFFF AND DUP4 PUSH20 0xFFFFFFFFFFFFFFFFFFFFFFFFFFFFFFFFFFFFFFFF AND SUB PUSH2 0x116A JUMPI PUSH1 0x40 MLOAD PUSH32 0x8C379A000000000000000000000000000000000000000000000000000000000 DUP2 MSTORE PUSH1 0x4 ADD PUSH2 0x1161 SWAP1 PUSH2 0x2809 JUMP JUMPDEST PUSH1 0x40 MLOAD DUP1 SWAP2 SUB SWAP1 REVERT JUMPDEST PUSH1 0x0 PUSH20 0xFFFFFFFFFFFFFFFFFFFFFFFFFFFFFFFFFFFFFFFF AND DUP3 PUSH20 0xFFFFFFFFFFFFFFFFFFFFFFFFFFFFFFFFFFFFFFFF AND SUB PUSH2 0x11D9 JUMPI PUSH1 0x40 MLOAD PUSH32 0x8C379A000000000000000000000000000000000000000000000000000000000 DUP2 MSTORE PUSH1 0x4 ADD PUSH2 0x11D0 SWAP1 PUSH2 0x2875 JUMP JUMPDEST PUSH1 0x40 MLOAD DUP1 SWAP2 SUB SWAP1 REVERT JUMPDEST DUP1 PUSH1 0x8 PUSH1 0x0 DUP6 PUSH20 0xFFFFFFFFFFFFFFFFFFFFFFFFFFFFFFFFFFFFFFFF AND PUSH20 0xFFFFFFFFFFFFFFFFFFFFFFFFFFFFFFFFFFFFFFFF AND DUP2 MSTORE PUSH1 0x20 ADD SWAP1 DUP2 MSTORE PUSH1 0x20 ADD PUSH1 0x0 KECCAK256 SLOAD LT ISZERO PUSH2 0x125B JUMPI PUSH1 0x40 MLOAD PUSH32 0x8C379A000000000000000000000000000000000000000000000000000000000 DUP2 MSTORE PUSH1 0x4 ADD PUSH2 0x1252 SWAP1 PUSH2 0x2907 JUMP JUMPDEST PUSH1 0x40 MLOAD DUP1 SWAP2 SUB SWAP1 REVERT JUMPDEST DUP1 PUSH1 0x8 PUSH1 0x0 DUP6 PUSH20 0xFFFFFFFFFFFFFFFFFFFFFFFFFFFFFFFFFFFFFFFF AND PUSH20 0xFFFFFFFFFFFFFFFFFFFFFFFFFFFFFFFFFFFFFFFF AND DUP2 MSTORE PUSH1 0x20 ADD SWAP1 DUP2 MSTORE PUSH1 0x20 ADD PUSH1 0x0 KECCAK256 SLOAD PUSH2 0x12A6 SWAP2 SWAP1 PUSH2 0x2496 JUMP JUMPDEST PUSH1 0x8 PUSH1 0x0 DUP6 PUSH20 0xFFFFFFFFFFFFFFFFFFFFFFFFFFFFFFFFFFFFFFFF AND PUSH20 0xFFFFFFFFFFFFFFFFFFFFFFFFFFFFFFFFFFFFFFFF AND DUP2 MSTORE PUSH1 0x20 ADD SWAP1 DUP2 MSTORE PUSH1 0x20 ADD PUSH1 0x0 KECCAK256 DUP2 SWAP1 SSTORE POP DUP1 PUSH1 0x8 PUSH1 0x0 DUP5 PUSH20 0xFFFFFFFFFFFFFFFFFFFFFFFFFFFFFFFFFFFFFFFF AND PUSH20 0xFFFFFFFFFFFFFFFFFFFFFFFFFFFFFFFFFFFFFFFF AND DUP2 MSTORE PUSH1 0x20 ADD SWAP1 DUP2 MSTORE PUSH1 0x20 ADD PUSH1 0x0 KECCAK256 SLOAD PUSH2 0x1334 SWAP2 SWAP1 PUSH2 0x24CA JUMP JUMPDEST PUSH1 0x8 PUSH1 0x0 DUP5 PUSH20 0xFFFFFFFFFFFFFFFFFFFFFFFFFFFFFFFFFFFFFFFF AND PUSH20 0xFFFFFFFFFFFFFFFFFFFFFFFFFFFFFFFFFFFFFFFF AND DUP2 MSTORE PUSH1 0x20 ADD SWAP1 DUP2 MSTORE PUSH1 0x20 ADD PUSH1 0x0 KECCAK256 DUP2 SWAP1 SSTORE POP DUP2 PUSH20 0xFFFFFFFFFFFFFFFFFFFFFFFFFFFFFFFFFFFFFFFF AND DUP4 PUSH20 0xFFFFFFFFFFFFFFFFFFFFFFFFFFFFFFFFFFFFFFFF AND PUSH32 0xDDF252AD1BE2C89B69C2B068FC378DAA952BA7F163C4A11628F55A4DF523B3EF DUP4 PUSH1 0x40 MLOAD PUSH2 0x13D4 SWAP2 SWAP1 PUSH2 0x204B JUMP JUMPDEST PUSH1 0x40 MLOAD DUP1 SWAP2 SUB SWAP1 LOG3 POP POP POP JUMP JUMPDEST PUSH1 0x0 PUSH20 0xFFFFFFFFFFFFFFFFFFFFFFFFFFFFFFFFFFFFFFFF AND DUP3 PUSH20 0xFFFFFFFFFFFFFFFFFFFFFFFFFFFFFFFFFFFFFFFF AND SUB PUSH2 0x1450 JUMPI PUSH1 0x40 MLOAD PUSH32 0x8C379A000000000000000000000000000000000000000000000000000000000 DUP2 MSTORE PUSH1 0x4 ADD PUSH2 0x1447 SWAP1 PUSH2 0x2999 JUMP JUMPDEST PUSH1 0x40 MLOAD DUP1 SWAP2 SUB SWAP1 REVERT JUMPDEST DUP1 PUSH1 0x4 SLOAD PUSH2 0x145E SWAP2 SWAP1 PUSH2 0x24CA JUMP JUMPDEST PUSH1 0x4 DUP2 SWAP1 SSTORE POP DUP1 PUSH1 0x8 PUSH1 0x0 DUP5 PUSH20 0xFFFFFFFFFFFFFFFFFFFFFFFFFFFFFFFFFFFFFFFF AND PUSH20 0xFFFFFFFFFFFFFFFFFFFFFFFFFFFFFFFFFFFFFFFF AND DUP2 MSTORE PUSH1 0x20 ADD SWAP1 DUP2 MSTORE PUSH1 0x20 ADD PUSH1 0x0 KECCAK256 SLOAD PUSH2 0x14AF SWAP2 SWAP1 PUSH2 0x24CA JUMP JUMPDEST PUSH1 0x8 PUSH1 0x0 DUP5 PUSH20 0xFFFFFFFFFFFFFFFFFFFFFFFFFFFFFFFFFFFFFFFF AND PUSH20 0xFFFFFFFFFFFFFFFFFFFFFFFFFFFFFFFFFFFFFFFF AND DUP2 MSTORE PUSH1 0x20 ADD SWAP1 DUP2 MSTORE PUSH1 0x20 ADD PUSH1 0x0 KECCAK256 DUP2 SWAP1 SSTORE POP DUP2 PUSH20 0xFFFFFFFFFFFFFFFFFFFFFFFFFFFFFFFFFFFFFFFF AND PUSH1 0x0 PUSH20 0xFFFFFFFFFFFFFFFFFFFFFFFFFFFFFFFFFFFFFFFF AND PUSH32 0xDDF252AD1BE2C89B69C2B068FC378DAA952BA7F163C4A11628F55A4DF523B3EF DUP4 PUSH1 0x40 MLOAD PUSH2 0x1550 SWAP2 SWAP1 PUSH2 0x204B JUMP JUMPDEST PUSH1 0x40 MLOAD DUP1 SWAP2 SUB SWAP1 LOG3 POP POP JUMP JUMPDEST PUSH1 0x0 PUSH20 0xFFFFFFFFFFFFFFFFFFFFFFFFFFFFFFFFFFFFFFFF AND DUP3 PUSH20 0xFFFFFFFFFFFFFFFFFFFFFFFFFFFFFFFFFFFFFFFF AND SUB PUSH2 0x15CB JUMPI PUSH1 0x40 MLOAD PUSH32 0x8C379A000000000000000000000000000000000000000000000000000000000 DUP2 MSTORE PUSH1 0x4 ADD PUSH2 0x15C2 SWAP1 PUSH2 0x2A2B JUMP JUMPDEST PUSH1 0x40 MLOAD DUP1 SWAP2 SUB SWAP1 REVERT JUMPDEST DUP1 PUSH1 0x8 PUSH1 0x0 DUP5 PUSH20 0xFFFFFFFFFFFFFFFFFFFFFFFFFFFFFFFFFFFFFFFF AND PUSH20 0xFFFFFFFFFFFFFFFFFFFFFFFFFFFFFFFFFFFFFFFF AND DUP2 MSTORE PUSH1 0x20 ADD SWAP1 DUP2 MSTORE PUSH1 0x20 ADD PUSH1 0x0 KECCAK256 SLOAD LT ISZERO PUSH2 0x164D JUMPI PUSH1 0x40 MLOAD PUSH32 0x8C379A000000000000000000000000000000000000000000000000000000000 DUP2 MSTORE PUSH1 0x4 ADD PUSH2 0x1644 SWAP1 PUSH2 0x2ABD JUMP JUMPDEST PUSH1 0x40 MLOAD DUP1 SWAP2 SUB SWAP1 REVERT JUMPDEST DUP1 PUSH1 0x8 PUSH1 0x0 DUP5 PUSH20 0xFFFFFFFFFFFFFFFFFFFFFFFFFFFFFFFFFFFFFFFF AND PUSH20 0xFFFFFFFFFFFFFFFFFFFFFFFFFFFFFFFFFFFFFFFF AND DUP2 MSTORE PUSH1 0x20 ADD SWAP1 DUP2 MSTORE PUSH1 0x20 ADD PUSH1 0x0 KECCAK256 SLOAD PUSH2 0x1698 SWAP2 SWAP1 PUSH2 0x2496 JUMP JUMPDEST PUSH1 0x8 PUSH1 0x0 DUP5 PUSH20 0xFFFFFFFFFFFFFFFFFFFFFFFFFFFFFFFFFFFFFFFF AND PUSH20 0xFFFFFFFFFFFFFFFFFFFFFFFFFFFFFFFFFFFFFFFF AND DUP2 MSTORE PUSH1 0x20 ADD SWAP1 DUP2 MSTORE PUSH1 0x20 ADD PUSH1 0x0 KECCAK256 DUP2 SWAP1 SSTORE POP DUP1 PUSH1 0x4 SLOAD PUSH2 0x16E9 SWAP2 SWAP1 PUSH2 0x2496 JUMP JUMPDEST PUSH1 0x4 DUP2 SWAP1 SSTORE POP PUSH1 0x0 PUSH20 0xFFFFFFFFFFFFFFFFFFFFFFFFFFFFFFFFFFFFFFFF AND DUP3 PUSH20 0xFFFFFFFFFFFFFFFFFFFFFFFFFFFFFFFFFFFFFFFF AND PUSH32 0xDDF252AD1BE2C89B69C2B068FC378DAA952BA7F163C4A11628F55A4DF523B3EF DUP4 PUSH1 0x40 MLOAD PUSH2 0x174D SWAP2 SWAP1 PUSH2 0x204B JUMP JUMPDEST PUSH1 0x40 MLOAD DUP1 SWAP2 SUB SWAP1 LOG3 POP POP JUMP JUMPDEST PUSH1 0x0 DUP2 GT PUSH2 0x179C JUMPI PUSH1 0x40 MLOAD PUSH32 0x8C379A000000000000000000000000000000000000000000000000000000000 DUP2 MSTORE PUSH1 0x4 ADD PUSH2 0x1793 SWAP1 PUSH2 0x2B29 JUMP JUMPDEST PUSH1 0x40 MLOAD DUP1 SWAP2 SUB SWAP1 REVERT JUMPDEST PUSH1 0x0 PUSH1 0x2 PUSH1 0x0 CALLER PUSH20 0xFFFFFFFFFFFFFFFFFFFFFFFFFFFFFFFFFFFFFFFF AND PUSH20 0xFFFFFFFFFFFFFFFFFFFFFFFFFFFFFFFFFFFFFFFF AND DUP2 MSTORE PUSH1 0x20 ADD SWAP1 DUP2 MSTORE PUSH1 0x20 ADD PUSH1 0x0 KECCAK256 SLOAD SWAP1 POP PUSH1 0x0 TIMESTAMP SWAP1 POP PUSH1 0x0 DUP3 SUB PUSH2 0x17F9 JUMPI PUSH2 0x17F6 CALLER PUSH2 0x1D73 JUMP JUMPDEST SWAP2 POP JUMPDEST PUSH1 0x1 DUP3 DUP2 SLOAD DUP2 LT PUSH2 0x180D JUMPI PUSH2 0x180C PUSH2 0x2644 JUMP JUMPDEST JUMPDEST SWAP1 PUSH1 0x0 MSTORE PUSH1 0x20 PUSH1 0x0 KECCAK256 SWAP1 PUSH1 0x2 MUL ADD PUSH1 0x1 ADD PUSH1 0x40 MLOAD DUP1 PUSH1 0x80 ADD PUSH1 0x40 MSTORE DUP1 CALLER PUSH20 0xFFFFFFFFFFFFFFFFFFFFFFFFFFFFFFFFFFFFFFFF AND DUP2 MSTORE PUSH1 0x20 ADD DUP6 DUP2 MSTORE PUSH1 0x20 ADD DUP4 DUP2 MSTORE PUSH1 0x20 ADD PUSH1 0x0 DUP2 MSTORE POP SWAP1 DUP1 PUSH1 0x1 DUP2 SLOAD ADD DUP1 DUP3 SSTORE DUP1 SWAP2 POP POP PUSH1 0x1 SWAP1 SUB SWAP1 PUSH1 0x0 MSTORE PUSH1 0x20 PUSH1 0x0 KECCAK256 SWAP1 PUSH1 0x4 MUL ADD PUSH1 0x0 SWAP1 SWAP2 SWAP1 SWAP2 SWAP1 SWAP2 POP PUSH1 0x0 DUP3 ADD MLOAD DUP2 PUSH1 0x0 ADD PUSH1 0x0 PUSH2 0x100 EXP DUP2 SLOAD DUP2 PUSH20 0xFFFFFFFFFFFFFFFFFFFFFFFFFFFFFFFFFFFFFFFF MUL NOT AND SWAP1 DUP4 PUSH20 0xFFFFFFFFFFFFFFFFFFFFFFFFFFFFFFFFFFFFFFFF AND MUL OR SWAP1 SSTORE POP PUSH1 0x20 DUP3 ADD MLOAD DUP2 PUSH1 0x1 ADD SSTORE PUSH1 0x40 DUP3 ADD MLOAD DUP2 PUSH1 0x2 ADD SSTORE PUSH1 0x60 DUP3 ADD MLOAD DUP2 PUSH1 0x3 ADD SSTORE POP POP CALLER PUSH20 0xFFFFFFFFFFFFFFFFFFFFFFFFFFFFFFFFFFFFFFFF AND PUSH32 0xB4CAAF29ADDA3EEFEE3AD552A8E85058589BF834C7466CAE4EE58787F70589ED DUP5 DUP5 DUP5 PUSH1 0x40 MLOAD PUSH2 0x1930 SWAP4 SWAP3 SWAP2 SWAP1 PUSH2 0x2B49 JUMP JUMPDEST PUSH1 0x40 MLOAD DUP1 SWAP2 SUB SWAP1 LOG2 POP POP POP JUMP JUMPDEST PUSH1 0x0 PUSH1 0x3 SLOAD DUP3 PUSH1 0x20 ADD MLOAD PUSH2 0xE10 DUP5 PUSH1 0x40 ADD MLOAD TIMESTAMP PUSH2 0x195A SWAP2 SWAP1 PUSH2 0x2496 JUMP JUMPDEST PUSH2 0x1964 SWAP2 SWAP1 PUSH2 0x2BAF JUMP JUMPDEST PUSH2 0x196E SWAP2 SWAP1 PUSH2 0x2BE0 JUMP JUMPDEST PUSH2 0x1978 SWAP2 SWAP1 PUSH2 0x2BAF JUMP JUMPDEST SWAP1 POP SWAP2 SWAP1 POP JUMP JUMPDEST PUSH1 0x0 DUP1 PUSH1 0x2 PUSH1 0x0 CALLER PUSH20 0xFFFFFFFFFFFFFFFFFFFFFFFFFFFFFFFFFFFFFFFF AND PUSH20 0xFFFFFFFFFFFFFFFFFFFFFFFFFFFFFFFFFFFFFFFF AND DUP2 MSTORE PUSH1 0x20 ADD SWAP1 DUP2 MSTORE PUSH1 0x20 ADD PUSH1 0x0 KECCAK256 SLOAD SWAP1 POP PUSH1 0x0 PUSH1 0x1 DUP3 DUP2 SLOAD DUP2 LT PUSH2 0x19DA JUMPI PUSH2 0x19D9 PUSH2 0x2644 JUMP JUMPDEST JUMPDEST SWAP1 PUSH1 0x0 MSTORE PUSH1 0x20 PUSH1 0x0 KECCAK256 SWAP1 PUSH1 0x2 MUL ADD PUSH1 0x1 ADD DUP5 DUP2 SLOAD DUP2 LT PUSH2 0x19FD JUMPI PUSH2 0x19FC PUSH2 0x2644 JUMP JUMPDEST JUMPDEST SWAP1 PUSH1 0x0 MSTORE PUSH1 0x20 PUSH1 0x0 KECCAK256 SWAP1 PUSH1 0x4 MUL ADD PUSH1 0x40 MLOAD DUP1 PUSH1 0x80 ADD PUSH1 0x40 MSTORE SWAP1 DUP2 PUSH1 0x0 DUP3 ADD PUSH1 0x0 SWAP1 SLOAD SWAP1 PUSH2 0x100 EXP SWAP1 DIV PUSH20 0xFFFFFFFFFFFFFFFFFFFFFFFFFFFFFFFFFFFFFFFF AND PUSH20 0xFFFFFFFFFFFFFFFFFFFFFFFFFFFFFFFFFFFFFFFF AND PUSH20 0xFFFFFFFFFFFFFFFFFFFFFFFFFFFFFFFFFFFFFFFF AND DUP2 MSTORE PUSH1 0x20 ADD PUSH1 0x1 DUP3 ADD SLOAD DUP2 MSTORE PUSH1 0x20 ADD PUSH1 0x2 DUP3 ADD SLOAD DUP2 MSTORE PUSH1 0x20 ADD PUSH1 0x3 DUP3 ADD SLOAD DUP2 MSTORE POP POP SWAP1 POP DUP5 DUP2 PUSH1 0x20 ADD MLOAD LT ISZERO PUSH2 0x1AD3 JUMPI PUSH1 0x40 MLOAD PUSH32 0x8C379A000000000000000000000000000000000000000000000000000000000 DUP2 MSTORE PUSH1 0x4 ADD PUSH2 0x1ACA SWAP1 PUSH2 0x2CAC JUMP JUMPDEST PUSH1 0x40 MLOAD DUP1 SWAP2 SUB SWAP1 REVERT JUMPDEST PUSH1 0x0 PUSH2 0x1ADE DUP3 PUSH2 0x193D JUMP JUMPDEST SWAP1 POP DUP6 DUP3 PUSH1 0x20 ADD MLOAD PUSH2 0x1AF0 SWAP2 SWAP1 PUSH2 0x2496 JUMP JUMPDEST DUP3 PUSH1 0x20 ADD DUP2 DUP2 MSTORE POP POP PUSH1 0x0 DUP3 PUSH1 0x20 ADD MLOAD SUB PUSH2 0x1B91 JUMPI PUSH1 0x1 DUP4 DUP2 SLOAD DUP2 LT PUSH2 0x1B19 JUMPI PUSH2 0x1B18 PUSH2 0x2644 JUMP JUMPDEST JUMPDEST SWAP1 PUSH1 0x0 MSTORE PUSH1 0x20 PUSH1 0x0 KECCAK256 SWAP1 PUSH1 0x2 MUL ADD PUSH1 0x1 ADD DUP6 DUP2 SLOAD DUP2 LT PUSH2 0x1B3C JUMPI PUSH2 0x1B3B PUSH2 0x2644 JUMP JUMPDEST JUMPDEST SWAP1 PUSH1 0x0 MSTORE PUSH1 0x20 PUSH1 0x0 KECCAK256 SWAP1 PUSH1 0x4 MUL ADD PUSH1 0x0 DUP1 DUP3 ADD PUSH1 0x0 PUSH2 0x100 EXP DUP2 SLOAD SWAP1 PUSH20 0xFFFFFFFFFFFFFFFFFFFFFFFFFFFFFFFFFFFFFFFF MUL NOT AND SWAP1 SSTORE PUSH1 0x1 DUP3 ADD PUSH1 0x0 SWAP1 SSTORE PUSH1 0x2 DUP3 ADD PUSH1 0x0 SWAP1 SSTORE PUSH1 0x3 DUP3 ADD PUSH1 0x0 SWAP1 SSTORE POP POP PUSH2 0x1C30 JUMP JUMPDEST DUP2 PUSH1 0x20 ADD MLOAD PUSH1 0x1 DUP5 DUP2 SLOAD DUP2 LT PUSH2 0x1BAA JUMPI PUSH2 0x1BA9 PUSH2 0x2644 JUMP JUMPDEST JUMPDEST SWAP1 PUSH1 0x0 MSTORE PUSH1 0x20 PUSH1 0x0 KECCAK256 SWAP1 PUSH1 0x2 MUL ADD PUSH1 0x1 ADD DUP7 DUP2 SLOAD DUP2 LT PUSH2 0x1BCD JUMPI PUSH2 0x1BCC PUSH2 0x2644 JUMP JUMPDEST JUMPDEST SWAP1 PUSH1 0x0 MSTORE PUSH1 0x20 PUSH1 0x0 KECCAK256 SWAP1 PUSH1 0x4 MUL ADD PUSH1 0x1 ADD DUP2 SWAP1 SSTORE POP TIMESTAMP PUSH1 0x1 DUP5 DUP2 SLOAD DUP2 LT PUSH2 0x1BF7 JUMPI PUSH2 0x1BF6 PUSH2 0x2644 JUMP JUMPDEST JUMPDEST SWAP1 PUSH1 0x0 MSTORE PUSH1 0x20 PUSH1 0x0 KECCAK256 SWAP1 PUSH1 0x2 MUL ADD PUSH1 0x1 ADD DUP7 DUP2 SLOAD DUP2 LT PUSH2 0x1C1A JUMPI PUSH2 0x1C19 PUSH2 0x2644 JUMP JUMPDEST JUMPDEST SWAP1 PUSH1 0x0 MSTORE PUSH1 0x20 PUSH1 0x0 KECCAK256 SWAP1 PUSH1 0x4 MUL ADD PUSH1 0x2 ADD DUP2 SWAP1 SSTORE POP JUMPDEST DUP1 DUP7 PUSH2 0x1C3C SWAP2 SWAP1 PUSH2 0x24CA JUMP JUMPDEST SWAP4 POP POP POP POP SWAP3 SWAP2 POP POP JUMP JUMPDEST PUSH1 0x0 PUSH20 0xFFFFFFFFFFFFFFFFFFFFFFFFFFFFFFFFFFFFFFFF AND DUP2 PUSH20 0xFFFFFFFFFFFFFFFFFFFFFFFFFFFFFFFFFFFFFFFF AND SUB PUSH2 0x1CB6 JUMPI PUSH1 0x40 MLOAD PUSH32 0x8C379A000000000000000000000000000000000000000000000000000000000 DUP2 MSTORE PUSH1 0x4 ADD PUSH2 0x1CAD SWAP1 PUSH2 0x2D3E JUMP JUMPDEST PUSH1 0x40 MLOAD DUP1 SWAP2 SUB SWAP1 REVERT JUMPDEST DUP1 PUSH20 0xFFFFFFFFFFFFFFFFFFFFFFFFFFFFFFFFFFFFFFFF AND PUSH1 0x0 DUP1 SLOAD SWAP1 PUSH2 0x100 EXP SWAP1 DIV PUSH20 0xFFFFFFFFFFFFFFFFFFFFFFFFFFFFFFFFFFFFFFFF AND PUSH20 0xFFFFFFFFFFFFFFFFFFFFFFFFFFFFFFFFFFFFFFFF AND PUSH32 0x8BE0079C531659141344CD1FD0A4F28419497F9722A3DAAFE3B4186F6B6457E0 PUSH1 0x40 MLOAD PUSH1 0x40 MLOAD DUP1 SWAP2 SUB SWAP1 LOG3 DUP1 PUSH1 0x0 DUP1 PUSH2 0x100 EXP DUP2 SLOAD DUP2 PUSH20 0xFFFFFFFFFFFFFFFFFFFFFFFFFFFFFFFFFFFFFFFF MUL NOT AND SWAP1 DUP4 PUSH20 0xFFFFFFFFFFFFFFFFFFFFFFFFFFFFFFFFFFFFFFFF AND MUL OR SWAP1 SSTORE POP POP JUMP JUMPDEST PUSH1 0x0 PUSH1 0x1 DUP1 DUP2 PUSH1 0x1 DUP2 SLOAD ADD DUP1 DUP3 SSTORE DUP1 SWAP2 POP POP SUB SWAP1 PUSH1 0x0 MSTORE PUSH1 0x20 PUSH1 0x0 KECCAK256 SWAP1 POP POP PUSH1 0x0 PUSH1 0x1 DUP1 DUP1 SLOAD SWAP1 POP PUSH2 0x1DA5 SWAP2 SWAP1 PUSH2 0x2496 JUMP JUMPDEST SWAP1 POP DUP3 PUSH1 0x1 DUP3 DUP2 SLOAD DUP2 LT PUSH2 0x1DBC JUMPI PUSH2 0x1DBB PUSH2 0x2644 JUMP JUMPDEST JUMPDEST SWAP1 PUSH1 0x0 MSTORE PUSH1 0x20 PUSH1 0x0 KECCAK256 SWAP1 PUSH1 0x2 MUL ADD PUSH1 0x0 ADD PUSH1 0x0 PUSH2 0x100 EXP DUP2 SLOAD DUP2 PUSH20 0xFFFFFFFFFFFFFFFFFFFFFFFFFFFFFFFFFFFFFFFF MUL NOT AND SWAP1 DUP4 PUSH20 0xFFFFFFFFFFFFFFFFFFFFFFFFFFFFFFFFFFFFFFFF AND MUL OR SWAP1 SSTORE POP DUP1 PUSH1 0x2 PUSH1 0x0 DUP6 PUSH20 0xFFFFFFFFFFFFFFFFFFFFFFFFFFFFFFFFFFFFFFFF AND PUSH20 0xFFFFFFFFFFFFFFFFFFFFFFFFFFFFFFFFFFFFFFFF AND DUP2 MSTORE PUSH1 0x20 ADD SWAP1 DUP2 MSTORE PUSH1 0x20 ADD PUSH1 0x0 KECCAK256 DUP2 SWAP1 SSTORE POP DUP1 SWAP2 POP POP SWAP2 SWAP1 POP JUMP JUMPDEST PUSH1 0x40 MLOAD DUP1 PUSH1 0x40 ADD PUSH1 0x40 MSTORE DUP1 PUSH1 0x0 DUP2 MSTORE PUSH1 0x20 ADD PUSH1 0x60 DUP2 MSTORE POP SWAP1 JUMP JUMPDEST PUSH1 0x0 DUP2 MLOAD SWAP1 POP SWAP2 SWAP1 POP JUMP JUMPDEST PUSH1 0x0 DUP3 DUP3 MSTORE PUSH1 0x20 DUP3 ADD SWAP1 POP SWAP3 SWAP2 POP POP JUMP JUMPDEST PUSH1 0x0 JUMPDEST DUP4 DUP2 LT ISZERO PUSH2 0x1EAC JUMPI DUP1 DUP3 ADD MLOAD DUP2 DUP5 ADD MSTORE PUSH1 0x20 DUP2 ADD SWAP1 POP PUSH2 0x1E91 JUMP JUMPDEST DUP4 DUP2 GT ISZERO PUSH2 0x1EBB JUMPI PUSH1 0x0 DUP5 DUP5 ADD MSTORE JUMPDEST POP POP POP POP JUMP JUMPDEST PUSH1 0x0 PUSH1 0x1F NOT PUSH1 0x1F DUP4 ADD AND SWAP1 POP SWAP2 SWAP1 POP JUMP JUMPDEST PUSH1 0x0 PUSH2 0x1EDD DUP3 PUSH2 0x1E72 JUMP JUMPDEST PUSH2 0x1EE7 DUP2 DUP6 PUSH2 0x1E7D JUMP JUMPDEST SWAP4 POP PUSH2 0x1EF7 DUP2 DUP6 PUSH1 0x20 DUP7 ADD PUSH2 0x1E8E JUMP JUMPDEST PUSH2 0x1F00 DUP2 PUSH2 0x1EC1 JUMP JUMPDEST DUP5 ADD SWAP2 POP POP SWAP3 SWAP2 POP POP JUMP JUMPDEST PUSH1 0x0 PUSH1 0x20 DUP3 ADD SWAP1 POP DUP2 DUP2 SUB PUSH1 0x0 DUP4 ADD MSTORE PUSH2 0x1F25 DUP2 DUP5 PUSH2 0x1ED2 JUMP JUMPDEST SWAP1 POP SWAP3 SWAP2 POP POP JUMP JUMPDEST PUSH1 0x0 DUP1 REVERT JUMPDEST PUSH1 0x0 PUSH20 0xFFFFFFFFFFFFFFFFFFFFFFFFFFFFFFFFFFFFFFFF DUP3 AND SWAP1 POP SWAP2 SWAP1 POP JUMP JUMPDEST PUSH1 0x0 PUSH2 0x1F5D DUP3 PUSH2 0x1F32 JUMP JUMPDEST SWAP1 POP SWAP2 SWAP1 POP JUMP JUMPDEST PUSH2 0x1F6D DUP2 PUSH2 0x1F52 JUMP JUMPDEST DUP2 EQ PUSH2 0x1F78 JUMPI PUSH1 0x0 DUP1 REVERT JUMPDEST POP JUMP JUMPDEST PUSH1 0x0 DUP2 CALLDATALOAD SWAP1 POP PUSH2 0x1F8A DUP2 PUSH2 0x1F64 JUMP JUMPDEST SWAP3 SWAP2 POP POP JUMP JUMPDEST PUSH1 0x0 DUP2 SWAP1 POP SWAP2 SWAP1 POP JUMP JUMPDEST PUSH2 0x1FA3 DUP2 PUSH2 0x1F90 JUMP JUMPDEST DUP2 EQ PUSH2 0x1FAE JUMPI PUSH1 0x0 DUP1 REVERT JUMPDEST POP JUMP JUMPDEST PUSH1 0x0 DUP2 CALLDATALOAD SWAP1 POP PUSH2 0x1FC0 DUP2 PUSH2 0x1F9A JUMP JUMPDEST SWAP3 SWAP2 POP POP JUMP JUMPDEST PUSH1 0x0 DUP1 PUSH1 0x40 DUP4 DUP6 SUB SLT ISZERO PUSH2 0x1FDD JUMPI PUSH2 0x1FDC PUSH2 0x1F2D JUMP JUMPDEST JUMPDEST PUSH1 0x0 PUSH2 0x1FEB DUP6 DUP3 DUP7 ADD PUSH2 0x1F7B JUMP JUMPDEST SWAP3 POP POP PUSH1 0x20 PUSH2 0x1FFC DUP6 DUP3 DUP7 ADD PUSH2 0x1FB1 JUMP JUMPDEST SWAP2 POP POP SWAP3 POP SWAP3 SWAP1 POP JUMP JUMPDEST PUSH1 0x0 DUP2 ISZERO ISZERO SWAP1 POP SWAP2 SWAP1 POP JUMP JUMPDEST PUSH2 0x201B DUP2 PUSH2 0x2006 JUMP JUMPDEST DUP3 MSTORE POP POP JUMP JUMPDEST PUSH1 0x0 PUSH1 0x20 DUP3 ADD SWAP1 POP PUSH2 0x2036 PUSH1 0x0 DUP4 ADD DUP5 PUSH2 0x2012 JUMP JUMPDEST SWAP3 SWAP2 POP POP JUMP JUMPDEST PUSH2 0x2045 DUP2 PUSH2 0x1F90 JUMP JUMPDEST DUP3 MSTORE POP POP JUMP JUMPDEST PUSH1 0x0 PUSH1 0x20 DUP3 ADD SWAP1 POP PUSH2 0x2060 PUSH1 0x0 DUP4 ADD DUP5 PUSH2 0x203C JUMP JUMPDEST SWAP3 SWAP2 POP POP JUMP JUMPDEST PUSH1 0x0 DUP1 PUSH1 0x0 PUSH1 0x60 DUP5 DUP7 SUB SLT ISZERO PUSH2 0x207F JUMPI PUSH2 0x207E PUSH2 0x1F2D JUMP JUMPDEST JUMPDEST PUSH1 0x0 PUSH2 0x208D DUP7 DUP3 DUP8 ADD PUSH2 0x1F7B JUMP JUMPDEST SWAP4 POP POP PUSH1 0x20 PUSH2 0x209E DUP7 DUP3 DUP8 ADD PUSH2 0x1F7B JUMP JUMPDEST SWAP3 POP POP PUSH1 0x40 PUSH2 0x20AF DUP7 DUP3 DUP8 ADD PUSH2 0x1FB1 JUMP JUMPDEST SWAP2 POP POP SWAP3 POP SWAP3 POP SWAP3 JUMP JUMPDEST PUSH1 0x0 PUSH1 0xFF DUP3 AND SWAP1 POP SWAP2 SWAP1 POP JUMP JUMPDEST PUSH2 0x20CF DUP2 PUSH2 0x20B9 JUMP JUMPDEST DUP3 MSTORE POP POP JUMP JUMPDEST PUSH1 0x0 PUSH1 0x20 DUP3 ADD SWAP1 POP PUSH2 0x20EA PUSH1 0x0 DUP4 ADD DUP5 PUSH2 0x20C6 JUMP JUMPDEST SWAP3 SWAP2 POP POP JUMP JUMPDEST PUSH1 0x0 PUSH1 0x20 DUP3 DUP5 SUB SLT ISZERO PUSH2 0x2106 JUMPI PUSH2 0x2105 PUSH2 0x1F2D JUMP JUMPDEST JUMPDEST PUSH1 0x0 PUSH2 0x2114 DUP5 DUP3 DUP6 ADD PUSH2 0x1F7B JUMP JUMPDEST SWAP2 POP POP SWAP3 SWAP2 POP POP JUMP JUMPDEST PUSH2 0x2126 DUP2 PUSH2 0x1F52 JUMP JUMPDEST DUP3 MSTORE POP POP JUMP JUMPDEST PUSH1 0x0 PUSH1 0x20 DUP3 ADD SWAP1 POP PUSH2 0x2141 PUSH1 0x0 DUP4 ADD DUP5 PUSH2 0x211D JUMP JUMPDEST SWAP3 SWAP2 POP POP JUMP JUMPDEST PUSH1 0x0 PUSH1 0x20 DUP3 DUP5 SUB SLT ISZERO PUSH2 0x215D JUMPI PUSH2 0x215C PUSH2 0x1F2D JUMP JUMPDEST JUMPDEST PUSH1 0x0 PUSH2 0x216B DUP5 DUP3 DUP6 ADD PUSH2 0x1FB1 JUMP JUMPDEST SWAP2 POP POP SWAP3 SWAP2 POP POP JUMP JUMPDEST PUSH1 0x0 DUP1 PUSH1 0x40 DUP4 DUP6 SUB SLT ISZERO PUSH2 0x218B JUMPI PUSH2 0x218A PUSH2 0x1F2D JUMP JUMPDEST JUMPDEST PUSH1 0x0 PUSH2 0x2199 DUP6 DUP3 DUP7 ADD PUSH2 0x1F7B JUMP JUMPDEST SWAP3 POP POP PUSH1 0x20 PUSH2 0x21AA DUP6 DUP3 DUP7 ADD PUSH2 0x1F7B JUMP JUMPDEST SWAP2 POP POP SWAP3 POP SWAP3 SWAP1 POP JUMP JUMPDEST PUSH2 0x21BD DUP2 PUSH2 0x1F90 JUMP JUMPDEST DUP3 MSTORE POP POP JUMP JUMPDEST PUSH1 0x0 DUP2 MLOAD SWAP1 POP SWAP2 SWAP1 POP JUMP JUMPDEST PUSH1 0x0 DUP3 DUP3 MSTORE PUSH1 0x20 DUP3 ADD SWAP1 POP SWAP3 SWAP2 POP POP JUMP JUMPDEST PUSH1 0x0 DUP2 SWAP1 POP PUSH1 0x20 DUP3 ADD SWAP1 POP SWAP2 SWAP1 POP JUMP JUMPDEST PUSH2 0x21F8 DUP2 PUSH2 0x1F52 JUMP JUMPDEST DUP3 MSTORE POP POP JUMP JUMPDEST PUSH1 0x80 DUP3 ADD PUSH1 0x0 DUP3 ADD MLOAD PUSH2 0x2214 PUSH1 0x0 DUP6 ADD DUP3 PUSH2 0x21EF JUMP JUMPDEST POP PUSH1 0x20 DUP3 ADD MLOAD PUSH2 0x2227 PUSH1 0x20 DUP6 ADD DUP3 PUSH2 0x21B4 JUMP JUMPDEST POP PUSH1 0x40 DUP3 ADD MLOAD PUSH2 0x223A PUSH1 0x40 DUP6 ADD DUP3 PUSH2 0x21B4 JUMP JUMPDEST POP PUSH1 0x60 DUP3 ADD MLOAD PUSH2 0x224D PUSH1 0x60 DUP6 ADD DUP3 PUSH2 0x21B4 JUMP JUMPDEST POP POP POP POP JUMP JUMPDEST PUSH1 0x0 PUSH2 0x225F DUP4 DUP4 PUSH2 0x21FE JUMP JUMPDEST PUSH1 0x80 DUP4 ADD SWAP1 POP SWAP3 SWAP2 POP POP JUMP JUMPDEST PUSH1 0x0 PUSH1 0x20 DUP3 ADD SWAP1 POP SWAP2 SWAP1 POP JUMP JUMPDEST PUSH1 0x0 PUSH2 0x2283 DUP3 PUSH2 0x21C3 JUMP JUMPDEST PUSH2 0x228D DUP2 DUP6 PUSH2 0x21CE JUMP JUMPDEST SWAP4 POP PUSH2 0x2298 DUP4 PUSH2 0x21DF JUMP JUMPDEST DUP1 PUSH1 0x0 JUMPDEST DUP4 DUP2 LT ISZERO PUSH2 0x22C9 JUMPI DUP2 MLOAD PUSH2 0x22B0 DUP9 DUP3 PUSH2 0x2253 JUMP JUMPDEST SWAP8 POP PUSH2 0x22BB DUP4 PUSH2 0x226B JUMP JUMPDEST SWAP3 POP POP PUSH1 0x1 DUP2 ADD SWAP1 POP PUSH2 0x229C JUMP JUMPDEST POP DUP6 SWAP4 POP POP POP POP SWAP3 SWAP2 POP POP JUMP JUMPDEST PUSH1 0x0 PUSH1 0x40 DUP4 ADD PUSH1 0x0 DUP4 ADD MLOAD PUSH2 0x22EE PUSH1 0x0 DUP7 ADD DUP3 PUSH2 0x21B4 JUMP JUMPDEST POP PUSH1 0x20 DUP4 ADD MLOAD DUP5 DUP3 SUB PUSH1 0x20 DUP7 ADD MSTORE PUSH2 0x2306 DUP3 DUP3 PUSH2 0x2278 JUMP JUMPDEST SWAP2 POP POP DUP1 SWAP2 POP POP SWAP3 SWAP2 POP POP JUMP JUMPDEST PUSH1 0x0 PUSH1 0x20 DUP3 ADD SWAP1 POP DUP2 DUP2 SUB PUSH1 0x0 DUP4 ADD MSTORE PUSH2 0x232D DUP2 DUP5 PUSH2 0x22D6 JUMP JUMPDEST SWAP1 POP SWAP3 SWAP2 POP POP JUMP JUMPDEST PUSH1 0x0 DUP1 PUSH1 0x40 DUP4 DUP6 SUB SLT ISZERO PUSH2 0x234C JUMPI PUSH2 0x234B PUSH2 0x1F2D JUMP JUMPDEST JUMPDEST PUSH1 0x0 PUSH2 0x235A DUP6 DUP3 DUP7 ADD PUSH2 0x1FB1 JUMP JUMPDEST SWAP3 POP POP PUSH1 0x20 PUSH2 0x236B DUP6 DUP3 DUP7 ADD PUSH2 0x1FB1 JUMP JUMPDEST SWAP2 POP POP SWAP3 POP SWAP3 SWAP1 POP JUMP JUMPDEST PUSH32 0x4E487B7100000000000000000000000000000000000000000000000000000000 PUSH1 0x0 MSTORE PUSH1 0x22 PUSH1 0x4 MSTORE PUSH1 0x24 PUSH1 0x0 REVERT JUMPDEST PUSH1 0x0 PUSH1 0x2 DUP3 DIV SWAP1 POP PUSH1 0x1 DUP3 AND DUP1 PUSH2 0x23BC JUMPI PUSH1 0x7F DUP3 AND SWAP2 POP JUMPDEST PUSH1 0x20 DUP3 LT DUP2 SUB PUSH2 0x23CF JUMPI PUSH2 0x23CE PUSH2 0x2375 JUMP JUMPDEST JUMPDEST POP SWAP2 SWAP1 POP JUMP JUMPDEST PUSH32 0x4D657472613A20596F752063616E6E6F74207370656E642074686174206D7563 PUSH1 0x0 DUP3 ADD MSTORE PUSH32 0x68206F6E2074686973206163636F756E74000000000000000000000000000000 PUSH1 0x20 DUP3 ADD MSTORE POP JUMP JUMPDEST PUSH1 0x0 PUSH2 0x2431 PUSH1 0x31 DUP4 PUSH2 0x1E7D JUMP JUMPDEST SWAP2 POP PUSH2 0x243C DUP3 PUSH2 0x23D5 JUMP JUMPDEST PUSH1 0x40 DUP3 ADD SWAP1 POP SWAP2 SWAP1 POP JUMP JUMPDEST PUSH1 0x0 PUSH1 0x20 DUP3 ADD SWAP1 POP DUP2 DUP2 SUB PUSH1 0x0 DUP4 ADD MSTORE PUSH2 0x2460 DUP2 PUSH2 0x2424 JUMP JUMPDEST SWAP1 POP SWAP2 SWAP1 POP JUMP JUMPDEST PUSH32 0x4E487B7100000000000000000000000000000000000000000000000000000000 PUSH1 0x0 MSTORE PUSH1 0x11 PUSH1 0x4 MSTORE PUSH1 0x24 PUSH1 0x0 REVERT JUMPDEST PUSH1 0x0 PUSH2 0x24A1 DUP3 PUSH2 0x1F90 JUMP JUMPDEST SWAP2 POP PUSH2 0x24AC DUP4 PUSH2 0x1F90 JUMP JUMPDEST SWAP3 POP DUP3 DUP3 LT ISZERO PUSH2 0x24BF JUMPI PUSH2 0x24BE PUSH2 0x2467 JUMP JUMPDEST JUMPDEST DUP3 DUP3 SUB SWAP1 POP SWAP3 SWAP2 POP POP JUMP JUMPDEST PUSH1 0x0 PUSH2 0x24D5 DUP3 PUSH2 0x1F90 JUMP JUMPDEST SWAP2 POP PUSH2 0x24E0 DUP4 PUSH2 0x1F90 JUMP JUMPDEST SWAP3 POP DUP3 PUSH32 0xFFFFFFFFFFFFFFFFFFFFFFFFFFFFFFFFFFFFFFFFFFFFFFFFFFFFFFFFFFFFFFFF SUB DUP3 GT ISZERO PUSH2 0x2515 JUMPI PUSH2 0x2514 PUSH2 0x2467 JUMP JUMPDEST JUMPDEST DUP3 DUP3 ADD SWAP1 POP SWAP3 SWAP2 POP POP JUMP JUMPDEST PUSH32 0x4F776E61626C653A206F6E6C79206F776E65722063616E2063616C6C20746869 PUSH1 0x0 DUP3 ADD MSTORE PUSH32 0x732066756E6374696F6E00000000000000000000000000000000000000000000 PUSH1 0x20 DUP3 ADD MSTORE POP JUMP JUMPDEST PUSH1 0x0 PUSH2 0x257C PUSH1 0x2A DUP4 PUSH2 0x1E7D JUMP JUMPDEST SWAP2 POP PUSH2 0x2587 DUP3 PUSH2 0x2520 JUMP JUMPDEST PUSH1 0x40 DUP3 ADD SWAP1 POP SWAP2 SWAP1 POP JUMP JUMPDEST PUSH1 0x0 PUSH1 0x20 DUP3 ADD SWAP1 POP DUP2 DUP2 SUB PUSH1 0x0 DUP4 ADD MSTORE PUSH2 0x25AB DUP2 PUSH2 0x256F JUMP JUMPDEST SWAP1 POP SWAP2 SWAP1 POP JUMP JUMPDEST PUSH32 0x4D657472613A2043616E6E6F74207374616B65206D6F7265207468616E20796F PUSH1 0x0 DUP3 ADD MSTORE PUSH32 0x75206F776E000000000000000000000000000000000000000000000000000000 PUSH1 0x20 DUP3 ADD MSTORE POP JUMP JUMPDEST PUSH1 0x0 PUSH2 0x260E PUSH1 0x25 DUP4 PUSH2 0x1E7D JUMP JUMPDEST SWAP2 POP PUSH2 0x2619 DUP3 PUSH2 0x25B2 JUMP JUMPDEST PUSH1 0x40 DUP3 ADD SWAP1 POP SWAP2 SWAP1 POP JUMP JUMPDEST PUSH1 0x0 PUSH1 0x20 DUP3 ADD SWAP1 POP DUP2 DUP2 SUB PUSH1 0x0 DUP4 ADD MSTORE PUSH2 0x263D DUP2 PUSH2 0x2601 JUMP JUMPDEST SWAP1 POP SWAP2 SWAP1 POP JUMP JUMPDEST PUSH32 0x4E487B7100000000000000000000000000000000000000000000000000000000 PUSH1 0x0 MSTORE PUSH1 0x32 PUSH1 0x4 MSTORE PUSH1 0x24 PUSH1 0x0 REVERT JUMPDEST PUSH32 0x4D657472613A20617070726F76652063616E6E6F7420626520646F6E65206672 PUSH1 0x0 DUP3 ADD MSTORE PUSH32 0x6F6D207A65726F20616464726573730000000000000000000000000000000000 PUSH1 0x20 DUP3 ADD MSTORE POP JUMP JUMPDEST PUSH1 0x0 PUSH2 0x26CF PUSH1 0x2F DUP4 PUSH2 0x1E7D JUMP JUMPDEST SWAP2 POP PUSH2 0x26DA DUP3 PUSH2 0x2673 JUMP JUMPDEST PUSH1 0x40 DUP3 ADD SWAP1 POP SWAP2 SWAP1 POP JUMP JUMPDEST PUSH1 0x0 PUSH1 0x20 DUP3 ADD SWAP1 POP DUP2 DUP2 SUB PUSH1 0x0 DUP4 ADD MSTORE PUSH2 0x26FE DUP2 PUSH2 0x26C2 JUMP JUMPDEST SWAP1 POP SWAP2 SWAP1 POP JUMP JUMPDEST PUSH32 0x4D657472613A20617070726F76652063616E6E6F7420626520746F207A65726F PUSH1 0x0 DUP3 ADD MSTORE PUSH32 0x2061646472657373000000000000000000000000000000000000000000000000 PUSH1 0x20 DUP3 ADD MSTORE POP JUMP JUMPDEST PUSH1 0x0 PUSH2 0x2761 PUSH1 0x28 DUP4 PUSH2 0x1E7D JUMP JUMPDEST SWAP2 POP PUSH2 0x276C DUP3 PUSH2 0x2705 JUMP JUMPDEST PUSH1 0x40 DUP3 ADD SWAP1 POP SWAP2 SWAP1 POP JUMP JUMPDEST PUSH1 0x0 PUSH1 0x20 DUP3 ADD SWAP1 POP DUP2 DUP2 SUB PUSH1 0x0 DUP4 ADD MSTORE PUSH2 0x2790 DUP2 PUSH2 0x2754 JUMP JUMPDEST SWAP1 POP SWAP2 SWAP1 POP JUMP JUMPDEST PUSH32 0x4D657472613A207472616E736665722066726F6D207A65726F20616464726573 PUSH1 0x0 DUP3 ADD MSTORE PUSH32 0x7300000000000000000000000000000000000000000000000000000000000000 PUSH1 0x20 DUP3 ADD MSTORE POP JUMP JUMPDEST PUSH1 0x0 PUSH2 0x27F3 PUSH1 0x21 DUP4 PUSH2 0x1E7D JUMP JUMPDEST SWAP2 POP PUSH2 0x27FE DUP3 PUSH2 0x2797 JUMP JUMPDEST PUSH1 0x40 DUP3 ADD SWAP1 POP SWAP2 SWAP1 POP JUMP JUMPDEST PUSH1 0x0 PUSH1 0x20 DUP3 ADD SWAP1 POP DUP2 DUP2 SUB PUSH1 0x0 DUP4 ADD MSTORE PUSH2 0x2822 DUP2 PUSH2 0x27E6 JUMP JUMPDEST SWAP1 POP SWAP2 SWAP1 POP JUMP JUMPDEST PUSH32 0x4D657472613A207472616E7366657220746F207A65726F206164647265737300 PUSH1 0x0 DUP3 ADD MSTORE POP JUMP JUMPDEST PUSH1 0x0 PUSH2 0x285F PUSH1 0x1F DUP4 PUSH2 0x1E7D JUMP JUMPDEST SWAP2 POP PUSH2 0x286A DUP3 PUSH2 0x2829 JUMP JUMPDEST PUSH1 0x20 DUP3 ADD SWAP1 POP SWAP2 SWAP1 POP JUMP JUMPDEST PUSH1 0x0 PUSH1 0x20 DUP3 ADD SWAP1 POP DUP2 DUP2 SUB PUSH1 0x0 DUP4 ADD MSTORE PUSH2 0x288E DUP2 PUSH2 0x2852 JUMP JUMPDEST SWAP1 POP SWAP2 SWAP1 POP JUMP JUMPDEST PUSH32 0x4D657472613A2063616E74207472616E73666572206D6F7265207468616E2079 PUSH1 0x0 DUP3 ADD MSTORE PUSH32 0x6F7572206163636F756E7420686F6C6473000000000000000000000000000000 PUSH1 0x20 DUP3 ADD MSTORE POP JUMP JUMPDEST PUSH1 0x0 PUSH2 0x28F1 PUSH1 0x31 DUP4 PUSH2 0x1E7D JUMP JUMPDEST SWAP2 POP PUSH2 0x28FC DUP3 PUSH2 0x2895 JUMP JUMPDEST PUSH1 0x40 DUP3 ADD SWAP1 POP SWAP2 SWAP1 POP JUMP JUMPDEST PUSH1 0x0 PUSH1 0x20 DUP3 ADD SWAP1 POP DUP2 DUP2 SUB PUSH1 0x0 DUP4 ADD MSTORE PUSH2 0x2920 DUP2 PUSH2 0x28E4 JUMP JUMPDEST SWAP1 POP SWAP2 SWAP1 POP JUMP JUMPDEST PUSH32 0x4D657472613A2063616E6E6F74206D696E7420746F207A65726F206164647265 PUSH1 0x0 DUP3 ADD MSTORE PUSH32 0x7373000000000000000000000000000000000000000000000000000000000000 PUSH1 0x20 DUP3 ADD MSTORE POP JUMP JUMPDEST PUSH1 0x0 PUSH2 0x2983 PUSH1 0x22 DUP4 PUSH2 0x1E7D JUMP JUMPDEST SWAP2 POP PUSH2 0x298E DUP3 PUSH2 0x2927 JUMP JUMPDEST PUSH1 0x40 DUP3 ADD SWAP1 POP SWAP2 SWAP1 POP JUMP JUMPDEST PUSH1 0x0 PUSH1 0x20 DUP3 ADD SWAP1 POP DUP2 DUP2 SUB PUSH1 0x0 DUP4 ADD MSTORE PUSH2 0x29B2 DUP2 PUSH2 0x2976 JUMP JUMPDEST SWAP1 POP SWAP2 SWAP1 POP JUMP JUMPDEST PUSH32 0x4D657472613A2063616E6E6F74206275726E2066726F6D207A65726F20616464 PUSH1 0x0 DUP3 ADD MSTORE PUSH32 0x7265737300000000000000000000000000000000000000000000000000000000 PUSH1 0x20 DUP3 ADD MSTORE POP JUMP JUMPDEST PUSH1 0x0 PUSH2 0x2A15 PUSH1 0x24 DUP4 PUSH2 0x1E7D JUMP JUMPDEST SWAP2 POP PUSH2 0x2A20 DUP3 PUSH2 0x29B9 JUMP JUMPDEST PUSH1 0x40 DUP3 ADD SWAP1 POP SWAP2 SWAP1 POP JUMP JUMPDEST PUSH1 0x0 PUSH1 0x20 DUP3 ADD SWAP1 POP DUP2 DUP2 SUB PUSH1 0x0 DUP4 ADD MSTORE PUSH2 0x2A44 DUP2 PUSH2 0x2A08 JUMP JUMPDEST SWAP1 POP SWAP2 SWAP1 POP JUMP JUMPDEST PUSH32 0x4D657472613A2043616E6E6F74206275726E206D6F7265207468616E20746865 PUSH1 0x0 DUP3 ADD MSTORE PUSH32 0x206163636F756E74206F776E7300000000000000000000000000000000000000 PUSH1 0x20 DUP3 ADD MSTORE POP JUMP JUMPDEST PUSH1 0x0 PUSH2 0x2AA7 PUSH1 0x2D DUP4 PUSH2 0x1E7D JUMP JUMPDEST SWAP2 POP PUSH2 0x2AB2 DUP3 PUSH2 0x2A4B JUMP JUMPDEST PUSH1 0x40 DUP3 ADD SWAP1 POP SWAP2 SWAP1 POP JUMP JUMPDEST PUSH1 0x0 PUSH1 0x20 DUP3 ADD SWAP1 POP DUP2 DUP2 SUB PUSH1 0x0 DUP4 ADD MSTORE PUSH2 0x2AD6 DUP2 PUSH2 0x2A9A JUMP JUMPDEST SWAP1 POP SWAP2 SWAP1 POP JUMP JUMPDEST PUSH32 0x43616E6E6F74207374616B65206E6F7468696E67000000000000000000000000 PUSH1 0x0 DUP3 ADD MSTORE POP JUMP JUMPDEST PUSH1 0x0 PUSH2 0x2B13 PUSH1 0x14 DUP4 PUSH2 0x1E7D JUMP JUMPDEST SWAP2 POP PUSH2 0x2B1E DUP3 PUSH2 0x2ADD JUMP JUMPDEST PUSH1 0x20 DUP3 ADD SWAP1 POP SWAP2 SWAP1 POP JUMP JUMPDEST PUSH1 0x0 PUSH1 0x20 DUP3 ADD SWAP1 POP DUP2 DUP2 SUB PUSH1 0x0 DUP4 ADD MSTORE PUSH2 0x2B42 DUP2 PUSH2 0x2B06 JUMP JUMPDEST SWAP1 POP SWAP2 SWAP1 POP JUMP JUMPDEST PUSH1 0x0 PUSH1 0x60 DUP3 ADD SWAP1 POP PUSH2 0x2B5E PUSH1 0x0 DUP4 ADD DUP7 PUSH2 0x203C JUMP JUMPDEST PUSH2 0x2B6B PUSH1 0x20 DUP4 ADD DUP6 PUSH2 0x203C JUMP JUMPDEST PUSH2 0x2B78 PUSH1 0x40 DUP4 ADD DUP5 PUSH2 0x203C JUMP JUMPDEST SWAP5 SWAP4 POP POP POP POP JUMP JUMPDEST PUSH32 0x4E487B7100000000000000000000000000000000000000000000000000000000 PUSH1 0x0 MSTORE PUSH1 0x12 PUSH1 0x4 MSTORE PUSH1 0x24 PUSH1 0x0 REVERT JUMPDEST PUSH1 0x0 PUSH2 0x2BBA DUP3 PUSH2 0x1F90 JUMP JUMPDEST SWAP2 POP PUSH2 0x2BC5 DUP4 PUSH2 0x1F90 JUMP JUMPDEST SWAP3 POP DUP3 PUSH2 0x2BD5 JUMPI PUSH2 0x2BD4 PUSH2 0x2B80 JUMP JUMPDEST JUMPDEST DUP3 DUP3 DIV SWAP1 POP SWAP3 SWAP2 POP POP JUMP JUMPDEST PUSH1 0x0 PUSH2 0x2BEB DUP3 PUSH2 0x1F90 JUMP JUMPDEST SWAP2 POP PUSH2 0x2BF6 DUP4 PUSH2 0x1F90 JUMP JUMPDEST SWAP3 POP DUP2 PUSH32 0xFFFFFFFFFFFFFFFFFFFFFFFFFFFFFFFFFFFFFFFFFFFFFFFFFFFFFFFFFFFFFFFF DIV DUP4 GT DUP3 ISZERO ISZERO AND ISZERO PUSH2 0x2C2F JUMPI PUSH2 0x2C2E PUSH2 0x2467 JUMP JUMPDEST JUMPDEST DUP3 DUP3 MUL SWAP1 POP SWAP3 SWAP2 POP POP JUMP JUMPDEST PUSH32 0x5374616B696E673A2043616E6E6F74207769746864726177206D6F7265207468 PUSH1 0x0 DUP3 ADD MSTORE PUSH32 0x616E20796F752068617665207374616B65640000000000000000000000000000 PUSH1 0x20 DUP3 ADD MSTORE POP JUMP JUMPDEST PUSH1 0x0 PUSH2 0x2C96 PUSH1 0x32 DUP4 PUSH2 0x1E7D JUMP JUMPDEST SWAP2 POP PUSH2 0x2CA1 DUP3 PUSH2 0x2C3A JUMP JUMPDEST PUSH1 0x40 DUP3 ADD SWAP1 POP SWAP2 SWAP1 POP JUMP JUMPDEST PUSH1 0x0 PUSH1 0x20 DUP3 ADD SWAP1 POP DUP2 DUP2 SUB PUSH1 0x0 DUP4 ADD MSTORE PUSH2 0x2CC5 DUP2 PUSH2 0x2C89 JUMP JUMPDEST SWAP1 POP SWAP2 SWAP1 POP JUMP JUMPDEST PUSH32 0x4F776E61626C653A206E6577206F776E657220697320746865207A65726F2061 PUSH1 0x0 DUP3 ADD MSTORE PUSH32 0x6464726573730000000000000000000000000000000000000000000000000000 PUSH1 0x20 DUP3 ADD MSTORE POP JUMP JUMPDEST PUSH1 0x0 PUSH2 0x2D28 PUSH1 0x26 DUP4 PUSH2 0x1E7D JUMP JUMPDEST SWAP2 POP PUSH2 0x2D33 DUP3 PUSH2 0x2CCC JUMP JUMPDEST PUSH1 0x40 DUP3 ADD SWAP1 POP SWAP2 SWAP1 POP JUMP JUMPDEST PUSH1 0x0 PUSH1 0x20 DUP3 ADD SWAP1 POP DUP2 DUP2 SUB PUSH1 0x0 DUP4 ADD MSTORE PUSH2 0x2D57 DUP2 PUSH2 0x2D1B JUMP JUMPDEST SWAP1 POP SWAP2 SWAP1 POP JUMP INVALID LOG2 PUSH5 0x6970667358 0x22 SLT KECCAK256 0x4E SWAP6 0x5F NUMBER 0xB1 GAS PUSH29 0x25BD4B51CCC8203CD69C583930764E2E471A0C7ABD094C2FAD64736F6C PUSH4 0x4300080F STOP CALLER "
				},
				"gasEstimates": {
					"creation": {
						"codeDepositCost": "2333600",
						"executionCost": "infinite",
						"totalCost": "infinite"
					},
					"external": {
						"allowance(address,address)": "infinite",
						"approve(address,uint256)": "infinite",
						"balanceOf(address)": "2908",
						"burn(address,uint256)": "infinite",
						"decimals()": "2591",
						"decreaseAllowance(address,uint256)": "infinite",
						"getOwner()": "2668",
						"hasStake(address)": "infinite",
						"increaseAllowance(address,uint256)": "infinite",
						"mint(address,uint256)": "infinite",
						"name()": "infinite",
						"owner()": "2545",
						"renounceOwnership()": "30345",
						"stake(uint256)": "infinite",
						"symbol()": "infinite",
						"totalSupply()": "2505",
						"transfer(address,uint256)": "infinite",
						"transferFrom(address,address,uint256)": "infinite",
						"transferOwnership(address)": "30741",
						"withdrawStake(uint256,uint256)": "infinite"
					},
					"internal": {
						"_approve(address,address,uint256)": "infinite",
						"_burn(address,uint256)": "infinite",
						"_mint(address,uint256)": "infinite",
						"_transfer(address,address,uint256)": "infinite"
					}
				},
				"methodIdentifiers": {
					"allowance(address,address)": "dd62ed3e",
					"approve(address,uint256)": "095ea7b3",
					"balanceOf(address)": "70a08231",
					"burn(address,uint256)": "9dc29fac",
					"decimals()": "313ce567",
					"decreaseAllowance(address,uint256)": "a457c2d7",
					"getOwner()": "893d20e8",
					"hasStake(address)": "e73e14bf",
					"increaseAllowance(address,uint256)": "39509351",
					"mint(address,uint256)": "40c10f19",
					"name()": "06fdde03",
					"owner()": "8da5cb5b",
					"renounceOwnership()": "715018a6",
					"stake(uint256)": "a694fc3a",
					"symbol()": "95d89b41",
					"totalSupply()": "18160ddd",
					"transfer(address,uint256)": "a9059cbb",
					"transferFrom(address,address,uint256)": "23b872dd",
					"transferOwnership(address)": "f2fde38b",
					"withdrawStake(uint256,uint256)": "f1fdf469"
				}
			},
			"storageLayout": {
				"storage": [
					{
						"astId": 614,
						"contract": "contracts/MetraToken.sol:Metra",
						"label": "_owner",
						"offset": 0,
						"slot": "0",
						"type": "t_address"
					},
					{
						"astId": 763,
						"contract": "contracts/MetraToken.sol:Metra",
						"label": "stakeholders",
						"offset": 0,
						"slot": "1",
						"type": "t_array(t_struct(Stakeholder)751_storage)dyn_storage"
					},
					{
						"astId": 768,
						"contract": "contracts/MetraToken.sol:Metra",
						"label": "stakes",
						"offset": 0,
						"slot": "2",
						"type": "t_mapping(t_address,t_uint256)"
					},
					{
						"astId": 783,
						"contract": "contracts/MetraToken.sol:Metra",
						"label": "rewardPerHour",
						"offset": 0,
						"slot": "3",
						"type": "t_uint256"
					},
					{
						"astId": 11,
						"contract": "contracts/MetraToken.sol:Metra",
						"label": "_totalSupply",
						"offset": 0,
						"slot": "4",
						"type": "t_uint256"
					},
					{
						"astId": 13,
						"contract": "contracts/MetraToken.sol:Metra",
						"label": "_decimals",
						"offset": 0,
						"slot": "5",
						"type": "t_uint8"
					},
					{
						"astId": 15,
						"contract": "contracts/MetraToken.sol:Metra",
						"label": "_symbol",
						"offset": 0,
						"slot": "6",
						"type": "t_string_storage"
					},
					{
						"astId": 17,
						"contract": "contracts/MetraToken.sol:Metra",
						"label": "_name",
						"offset": 0,
						"slot": "7",
						"type": "t_string_storage"
					},
					{
						"astId": 22,
						"contract": "contracts/MetraToken.sol:Metra",
						"label": "_balances",
						"offset": 0,
						"slot": "8",
						"type": "t_mapping(t_address,t_uint256)"
					},
					{
						"astId": 29,
						"contract": "contracts/MetraToken.sol:Metra",
						"label": "_allowances",
						"offset": 0,
						"slot": "9",
						"type": "t_mapping(t_address,t_mapping(t_address,t_uint256))"
					}
				],
				"types": {
					"t_address": {
						"encoding": "inplace",
						"label": "address",
						"numberOfBytes": "20"
					},
					"t_array(t_struct(Stake)744_storage)dyn_storage": {
						"base": "t_struct(Stake)744_storage",
						"encoding": "dynamic_array",
						"label": "struct Stakeable.Stake[]",
						"numberOfBytes": "32"
					},
					"t_array(t_struct(Stakeholder)751_storage)dyn_storage": {
						"base": "t_struct(Stakeholder)751_storage",
						"encoding": "dynamic_array",
						"label": "struct Stakeable.Stakeholder[]",
						"numberOfBytes": "32"
					},
					"t_mapping(t_address,t_mapping(t_address,t_uint256))": {
						"encoding": "mapping",
						"key": "t_address",
						"label": "mapping(address => mapping(address => uint256))",
						"numberOfBytes": "32",
						"value": "t_mapping(t_address,t_uint256)"
					},
					"t_mapping(t_address,t_uint256)": {
						"encoding": "mapping",
						"key": "t_address",
						"label": "mapping(address => uint256)",
						"numberOfBytes": "32",
						"value": "t_uint256"
					},
					"t_string_storage": {
						"encoding": "bytes",
						"label": "string",
						"numberOfBytes": "32"
					},
					"t_struct(Stake)744_storage": {
						"encoding": "inplace",
						"label": "struct Stakeable.Stake",
						"members": [
							{
								"astId": 737,
								"contract": "contracts/MetraToken.sol:Metra",
								"label": "user",
								"offset": 0,
								"slot": "0",
								"type": "t_address"
							},
							{
								"astId": 739,
								"contract": "contracts/MetraToken.sol:Metra",
								"label": "amount",
								"offset": 0,
								"slot": "1",
								"type": "t_uint256"
							},
							{
								"astId": 741,
								"contract": "contracts/MetraToken.sol:Metra",
								"label": "since",
								"offset": 0,
								"slot": "2",
								"type": "t_uint256"
							},
							{
								"astId": 743,
								"contract": "contracts/MetraToken.sol:Metra",
								"label": "claimable",
								"offset": 0,
								"slot": "3",
								"type": "t_uint256"
							}
						],
						"numberOfBytes": "128"
					},
					"t_struct(Stakeholder)751_storage": {
						"encoding": "inplace",
						"label": "struct Stakeable.Stakeholder",
						"members": [
							{
								"astId": 746,
								"contract": "contracts/MetraToken.sol:Metra",
								"label": "user",
								"offset": 0,
								"slot": "0",
								"type": "t_address"
							},
							{
								"astId": 750,
								"contract": "contracts/MetraToken.sol:Metra",
								"label": "address_stakes",
								"offset": 0,
								"slot": "1",
								"type": "t_array(t_struct(Stake)744_storage)dyn_storage"
							}
						],
						"numberOfBytes": "64"
					},
					"t_uint256": {
						"encoding": "inplace",
						"label": "uint256",
						"numberOfBytes": "32"
					},
					"t_uint8": {
						"encoding": "inplace",
						"label": "uint8",
						"numberOfBytes": "1"
					}
				}
			},
			"userdoc": {
				"events": {
					"Approval(address,address,uint256)": {
						"notice": "Approval is emitted when a new Spender is approved to spend Tokens on the Owners account"
					},
					"OwnershipTransferred(address,address)": {
						"notice": "Event OwnershipTransferred is used to log that a ownership change of the token has occured"
					},
					"Staked(address,uint256,uint256,uint256)": {
						"notice": "Staked event is triggered whenever a user stakes tokens, address is indexed to make it filterable"
					},
					"Transfer(address,address,uint256)": {
						"notice": "Events are created below. Transfer event is a event that notify the blockchain that a transfer of assets has taken place"
					}
				},
				"kind": "user",
				"methods": {
					"allowance(address,address)": {
						"notice": "allowance is used view how much allowance an spender has"
					},
					"approve(address,uint256)": {
						"notice": "approve will use the senders address and allow the spender to use X amount of tokens on his behalf"
					},
					"balanceOf(address)": {
						"notice": "balanceOf will return the account balance for the given account"
					},
					"burn(address,uint256)": {
						"notice": "burn is used to destroy tokens on an address  See {_burn} Requires   - msg.sender must be the token owner"
					},
					"constructor": {
						"notice": "constructor will be triggered when we create the Smart contract _name = name of the token _short_symbol = Short Symbol name for the token token_decimals = The decimal precision of the Token, defaults 18 _totalSupply is how much Tokens there are totally "
					},
					"decimals()": {
						"notice": "decimals will return the number of decimal precision the Token is deployed with"
					},
					"decreaseAllowance(address,uint256)": {
						"notice": "decreaseAllowance Decrease the allowance on the account inputted from the caller address"
					},
					"getOwner()": {
						"notice": "getOwner just calls Ownables owner function.  returns owner of the token "
					},
					"hasStake(address)": {
						"notice": "hasStake is used to check if a account has stakes and the total amount along with all the seperate stakes"
					},
					"increaseAllowance(address,uint256)": {
						"notice": "increaseAllowance Adds allowance to a account from the function caller address"
					},
					"mint(address,uint256)": {
						"notice": "mint is used to create tokens and assign them to msg.sender  See {_mint} Requires   - msg.sender must be the token owner"
					},
					"name()": {
						"notice": "name will return the Token's symbol "
					},
					"owner()": {
						"notice": "owner() returns the currently assigned owner of the Token "
					},
					"renounceOwnership()": {
						"notice": "renounceOwnership will set the owner to zero address This will make the contract owner less, It will make ALL functions with onlyOwner no longer callable. There is no way of restoring the owner"
					},
					"stake(uint256)": {
						"notice": "Add functionality like burn to the _stake afunction"
					},
					"symbol()": {
						"notice": "symbol will return the Token's symbol "
					},
					"totalSupply()": {
						"notice": "totalSupply will return the tokens total supply of tokens"
					},
					"transfer(address,uint256)": {
						"notice": "transfer is used to transfer funds from the sender to the recipient This function is only callable from outside the contract. For internal usage see  _transfer Requires - Caller cannot be zero - Caller must have a balance = or bigger than amount"
					},
					"transferFrom(address,address,uint256)": {
						"notice": "transferFrom is uesd to transfer Tokens from a Accounts allowance Spender address should be the token holder Requires   - The caller must have a allowance = or bigger than the amount spending"
					},
					"transferOwnership(address)": {
						"notice": "transferOwnership will assign the {newOwner} as owner"
					},
					"withdrawStake(uint256,uint256)": {
						"notice": "withdrawStake is used to withdraw stakes from the account holder"
					}
				},
				"notice": "Metra",
				"version": 1
			}
		}
	}
}