{
	"contracts/Stakeable.sol": {
		"Stakeable": {
			"abi": [
				{
					"inputs": [],
					"stateMutability": "nonpayable",
					"type": "constructor"
				},
				{
					"anonymous": false,
					"inputs": [
						{
							"indexed": true,
							"internalType": "address",
							"name": "user",
							"type": "address"
						},
						{
							"indexed": false,
							"internalType": "uint256",
							"name": "amount",
							"type": "uint256"
						},
						{
							"indexed": false,
							"internalType": "uint256",
							"name": "index",
							"type": "uint256"
						},
						{
							"indexed": false,
							"internalType": "uint256",
							"name": "timestamp",
							"type": "uint256"
						}
					],
					"name": "Staked",
					"type": "event"
				},
				{
					"inputs": [
						{
							"internalType": "address",
							"name": "_staker",
							"type": "address"
						}
					],
					"name": "hasStake",
					"outputs": [
						{
							"components": [
								{
									"internalType": "uint256",
									"name": "total_amount",
									"type": "uint256"
								},
								{
									"components": [
										{
											"internalType": "address",
											"name": "user",
											"type": "address"
										},
										{
											"internalType": "uint256",
											"name": "amount",
											"type": "uint256"
										},
										{
											"internalType": "uint256",
											"name": "since",
											"type": "uint256"
										},
										{
											"internalType": "uint256",
											"name": "claimable",
											"type": "uint256"
										}
									],
									"internalType": "struct Stakeable.Stake[]",
									"name": "stakes",
									"type": "tuple[]"
								}
							],
							"internalType": "struct Stakeable.StakingSummary",
							"name": "",
							"type": "tuple"
						}
					],
					"stateMutability": "view",
					"type": "function"
				}
			],
			"devdoc": {
				"kind": "dev",
				"methods": {},
				"version": 1
			},
			"evm": {
				"assembly": "    /* \"contracts/Stakeable.sol\":176:7743  contract Stakeable {... */\n  mstore(0x40, 0x80)\n    /* \"contracts/Stakeable.sol\":2222:2231  100000000 */\n  0x05f5e100\n    /* \"contracts/Stakeable.sol\":2189:2231  uint256 internal rewardPerHour = 100000000 */\n  0x02\n  sstore\n    /* \"contracts/Stakeable.sol\":365:489  constructor() {... */\n  callvalue\n  dup1\n  iszero\n  tag_1\n  jumpi\n  0x00\n  dup1\n  revert\ntag_1:\n  pop\n    /* \"contracts/Stakeable.sol\":463:475  stakeholders */\n  0x00\n    /* \"contracts/Stakeable.sol\":463:482  stakeholders.push() */\n  0x01\n  dup2\n  0x01\n  dup2\n  sload\n  add\n  dup1\n  dup3\n  sstore\n  dup1\n  swap2\n  pop\n  pop\n  sub\n  swap1\n  0x00\n  mstore\n  keccak256(0x00, 0x20)\n  swap1\n  pop\n  pop\n    /* \"contracts/Stakeable.sol\":176:7743  contract Stakeable {... */\n  dataSize(sub_0)\n  dup1\n  dataOffset(sub_0)\n  0x00\n  codecopy\n  0x00\n  return\nstop\n\nsub_0: assembly {\n        /* \"contracts/Stakeable.sol\":176:7743  contract Stakeable {... */\n      mstore(0x40, 0x80)\n      callvalue\n      dup1\n      iszero\n      tag_1\n      jumpi\n      0x00\n      dup1\n      revert\n    tag_1:\n      pop\n      jumpi(tag_2, lt(calldatasize, 0x04))\n      shr(0xe0, calldataload(0x00))\n      dup1\n      0xe73e14bf\n      eq\n      tag_3\n      jumpi\n    tag_2:\n      0x00\n      dup1\n      revert\n        /* \"contracts/Stakeable.sol\":6912:7740  function hasStake(address _staker) public view returns(StakingSummary memory){... */\n    tag_3:\n      tag_4\n      0x04\n      dup1\n      calldatasize\n      sub\n      dup2\n      add\n      swap1\n      tag_5\n      swap2\n      swap1\n      tag_6\n      jump\t// in\n    tag_5:\n      tag_7\n      jump\t// in\n    tag_4:\n      mload(0x40)\n      tag_8\n      swap2\n      swap1\n      tag_9\n      jump\t// in\n    tag_8:\n      mload(0x40)\n      dup1\n      swap2\n      sub\n      swap1\n      return\n    tag_7:\n        /* \"contracts/Stakeable.sol\":6967:6988  StakingSummary memory */\n      tag_10\n      tag_11\n      jump\t// in\n    tag_10:\n        /* \"contracts/Stakeable.sol\":7079:7103  uint256 totalStakeAmount */\n      0x00\n        /* \"contracts/Stakeable.sol\":7182:7211  StakingSummary memory summary */\n      dup1\n        /* \"contracts/Stakeable.sol\":7214:7277  StakingSummary(0, stakeholders[stakes[_staker]].address_stakes) */\n      mload(0x40)\n      dup1\n      0x40\n      add\n      0x40\n      mstore\n      dup1\n        /* \"contracts/Stakeable.sol\":7229:7230  0 */\n      0x00\n        /* \"contracts/Stakeable.sol\":7214:7277  StakingSummary(0, stakeholders[stakes[_staker]].address_stakes) */\n      dup2\n      mstore\n      0x20\n      add\n        /* \"contracts/Stakeable.sol\":7232:7244  stakeholders */\n      0x00\n        /* \"contracts/Stakeable.sol\":7245:7251  stakes */\n      0x01\n        /* \"contracts/Stakeable.sol\":7245:7260  stakes[_staker] */\n      0x00\n        /* \"contracts/Stakeable.sol\":7252:7259  _staker */\n      dup9\n        /* \"contracts/Stakeable.sol\":7245:7260  stakes[_staker] */\n      0xffffffffffffffffffffffffffffffffffffffff\n      and\n      0xffffffffffffffffffffffffffffffffffffffff\n      and\n      dup2\n      mstore\n      0x20\n      add\n      swap1\n      dup2\n      mstore\n      0x20\n      add\n      0x00\n      keccak256\n      sload\n        /* \"contracts/Stakeable.sol\":7232:7261  stakeholders[stakes[_staker]] */\n      dup2\n      sload\n      dup2\n      lt\n      tag_13\n      jumpi\n      tag_14\n      tag_15\n      jump\t// in\n    tag_14:\n    tag_13:\n      swap1\n      0x00\n      mstore\n      keccak256(0x00, 0x20)\n      swap1\n      0x02\n      mul\n      add\n        /* \"contracts/Stakeable.sol\":7232:7276  stakeholders[stakes[_staker]].address_stakes */\n      0x01\n      add\n        /* \"contracts/Stakeable.sol\":7214:7277  StakingSummary(0, stakeholders[stakes[_staker]].address_stakes) */\n      dup1\n      sload\n      dup1\n      0x20\n      mul\n      0x20\n      add\n      mload(0x40)\n      swap1\n      dup2\n      add\n      0x40\n      mstore\n      dup1\n      swap3\n      swap2\n      swap1\n      dup2\n      dup2\n      mstore\n      0x20\n      add\n      0x00\n      swap1\n    tag_17:\n      dup3\n      dup3\n      lt\n      iszero\n      tag_18\n      jumpi\n      dup4\n      dup3\n      swap1\n      0x00\n      mstore\n      keccak256(0x00, 0x20)\n      swap1\n      0x04\n      mul\n      add\n      mload(0x40)\n      dup1\n      0x80\n      add\n      0x40\n      mstore\n      swap1\n      dup2\n      0x00\n      dup3\n      add\n      0x00\n      swap1\n      sload\n      swap1\n      0x0100\n      exp\n      swap1\n      div\n      0xffffffffffffffffffffffffffffffffffffffff\n      and\n      0xffffffffffffffffffffffffffffffffffffffff\n      and\n      0xffffffffffffffffffffffffffffffffffffffff\n      and\n      dup2\n      mstore\n      0x20\n      add\n      0x01\n      dup3\n      add\n      sload\n      dup2\n      mstore\n      0x20\n      add\n      0x02\n      dup3\n      add\n      sload\n      dup2\n      mstore\n      0x20\n      add\n      0x03\n      dup3\n      add\n      sload\n      dup2\n      mstore\n      pop\n      pop\n      dup2\n      mstore\n      0x20\n      add\n      swap1\n      0x01\n      add\n      swap1\n      jump(tag_17)\n    tag_18:\n      pop\n      pop\n      pop\n      pop\n      dup2\n      mstore\n      pop\n        /* \"contracts/Stakeable.sol\":7182:7277  StakingSummary memory summary = StakingSummary(0, stakeholders[stakes[_staker]].address_stakes) */\n      swap1\n      pop\n        /* \"contracts/Stakeable.sol\":7349:7358  uint256 s */\n      0x00\n        /* \"contracts/Stakeable.sol\":7344:7617  for (uint256 s = 0; s < summary.stakes.length; s += 1){... */\n    tag_20:\n        /* \"contracts/Stakeable.sol\":7368:7375  summary */\n      dup2\n        /* \"contracts/Stakeable.sol\":7368:7382  summary.stakes */\n      0x20\n      add\n      mload\n        /* \"contracts/Stakeable.sol\":7368:7389  summary.stakes.length */\n      mload\n        /* \"contracts/Stakeable.sol\":7364:7365  s */\n      dup2\n        /* \"contracts/Stakeable.sol\":7364:7389  s < summary.stakes.length */\n      lt\n        /* \"contracts/Stakeable.sol\":7344:7617  for (uint256 s = 0; s < summary.stakes.length; s += 1){... */\n      iszero\n      tag_21\n      jumpi\n        /* \"contracts/Stakeable.sol\":7411:7434  uint256 availableReward */\n      0x00\n        /* \"contracts/Stakeable.sol\":7437:7476  calculateStakeReward(summary.stakes[s]) */\n      tag_23\n        /* \"contracts/Stakeable.sol\":7458:7465  summary */\n      dup4\n        /* \"contracts/Stakeable.sol\":7458:7472  summary.stakes */\n      0x20\n      add\n      mload\n        /* \"contracts/Stakeable.sol\":7473:7474  s */\n      dup4\n        /* \"contracts/Stakeable.sol\":7458:7475  summary.stakes[s] */\n      dup2\n      mload\n      dup2\n      lt\n      tag_24\n      jumpi\n      tag_25\n      tag_15\n      jump\t// in\n    tag_25:\n    tag_24:\n      0x20\n      mul\n      0x20\n      add\n      add\n      mload\n        /* \"contracts/Stakeable.sol\":7437:7457  calculateStakeReward */\n      tag_26\n        /* \"contracts/Stakeable.sol\":7437:7476  calculateStakeReward(summary.stakes[s]) */\n      jump\t// in\n    tag_23:\n        /* \"contracts/Stakeable.sol\":7411:7476  uint256 availableReward = calculateStakeReward(summary.stakes[s]) */\n      swap1\n      pop\n        /* \"contracts/Stakeable.sol\":7519:7534  availableReward */\n      dup1\n        /* \"contracts/Stakeable.sol\":7489:7496  summary */\n      dup4\n        /* \"contracts/Stakeable.sol\":7489:7503  summary.stakes */\n      0x20\n      add\n      mload\n        /* \"contracts/Stakeable.sol\":7504:7505  s */\n      dup4\n        /* \"contracts/Stakeable.sol\":7489:7506  summary.stakes[s] */\n      dup2\n      mload\n      dup2\n      lt\n      tag_27\n      jumpi\n      tag_28\n      tag_15\n      jump\t// in\n    tag_28:\n    tag_27:\n      0x20\n      mul\n      0x20\n      add\n      add\n      mload\n        /* \"contracts/Stakeable.sol\":7489:7516  summary.stakes[s].claimable */\n      0x60\n      add\n        /* \"contracts/Stakeable.sol\":7489:7534  summary.stakes[s].claimable = availableReward */\n      dup2\n      dup2\n      mstore\n      pop\n      pop\n        /* \"contracts/Stakeable.sol\":7583:7590  summary */\n      dup3\n        /* \"contracts/Stakeable.sol\":7583:7597  summary.stakes */\n      0x20\n      add\n      mload\n        /* \"contracts/Stakeable.sol\":7598:7599  s */\n      dup3\n        /* \"contracts/Stakeable.sol\":7583:7600  summary.stakes[s] */\n      dup2\n      mload\n      dup2\n      lt\n      tag_29\n      jumpi\n      tag_30\n      tag_15\n      jump\t// in\n    tag_30:\n    tag_29:\n      0x20\n      mul\n      0x20\n      add\n      add\n      mload\n        /* \"contracts/Stakeable.sol\":7583:7607  summary.stakes[s].amount */\n      0x20\n      add\n      mload\n        /* \"contracts/Stakeable.sol\":7566:7582  totalStakeAmount */\n      dup5\n        /* \"contracts/Stakeable.sol\":7566:7607  totalStakeAmount+summary.stakes[s].amount */\n      tag_31\n      swap2\n      swap1\n      tag_32\n      jump\t// in\n    tag_31:\n        /* \"contracts/Stakeable.sol\":7547:7607  totalStakeAmount = totalStakeAmount+summary.stakes[s].amount */\n      swap4\n      pop\n        /* \"contracts/Stakeable.sol\":7398:7617  {... */\n      pop\n        /* \"contracts/Stakeable.sol\":7396:7397  1 */\n      0x01\n        /* \"contracts/Stakeable.sol\":7391:7397  s += 1 */\n      dup2\n      tag_33\n      swap2\n      swap1\n      tag_32\n      jump\t// in\n    tag_33:\n      swap1\n      pop\n        /* \"contracts/Stakeable.sol\":7344:7617  for (uint256 s = 0; s < summary.stakes.length; s += 1){... */\n      jump(tag_20)\n    tag_21:\n      pop\n        /* \"contracts/Stakeable.sol\":7693:7709  totalStakeAmount */\n      dup2\n        /* \"contracts/Stakeable.sol\":7670:7677  summary */\n      dup2\n        /* \"contracts/Stakeable.sol\":7670:7690  summary.total_amount */\n      0x00\n      add\n        /* \"contracts/Stakeable.sol\":7670:7709  summary.total_amount = totalStakeAmount */\n      dup2\n      dup2\n      mstore\n      pop\n      pop\n        /* \"contracts/Stakeable.sol\":7726:7733  summary */\n      dup1\n        /* \"contracts/Stakeable.sol\":7719:7733  return summary */\n      swap3\n      pop\n      pop\n      pop\n        /* \"contracts/Stakeable.sol\":6912:7740  function hasStake(address _staker) public view returns(StakingSummary memory){... */\n      swap2\n      swap1\n      pop\n      jump\t// out\n        /* \"contracts/Stakeable.sol\":4426:5230  function calculateStakeReward(Stake memory _current_stake) internal view returns(uint256){... */\n    tag_26:\n        /* \"contracts/Stakeable.sol\":4507:4514  uint256 */\n      0x00\n        /* \"contracts/Stakeable.sol\":5208:5221  rewardPerHour */\n      sload(0x02)\n        /* \"contracts/Stakeable.sol\":5183:5197  _current_stake */\n      dup3\n        /* \"contracts/Stakeable.sol\":5183:5204  _current_stake.amount */\n      0x20\n      add\n      mload\n        /* \"contracts/Stakeable.sol\":5172:5179  1 hours */\n      0x0e10\n        /* \"contracts/Stakeable.sol\":5148:5162  _current_stake */\n      dup5\n        /* \"contracts/Stakeable.sol\":5148:5168  _current_stake.since */\n      0x40\n      add\n      mload\n        /* \"contracts/Stakeable.sol\":5130:5145  block.timestamp */\n      timestamp\n        /* \"contracts/Stakeable.sol\":5130:5168  block.timestamp - _current_stake.since */\n      tag_35\n      swap2\n      swap1\n      tag_36\n      jump\t// in\n    tag_35:\n        /* \"contracts/Stakeable.sol\":5129:5179  (block.timestamp - _current_stake.since) / 1 hours */\n      tag_37\n      swap2\n      swap1\n      tag_38\n      jump\t// in\n    tag_37:\n        /* \"contracts/Stakeable.sol\":5128:5204  ((block.timestamp - _current_stake.since) / 1 hours) * _current_stake.amount */\n      tag_39\n      swap2\n      swap1\n      tag_40\n      jump\t// in\n    tag_39:\n        /* \"contracts/Stakeable.sol\":5127:5221  (((block.timestamp - _current_stake.since) / 1 hours) * _current_stake.amount) / rewardPerHour */\n      tag_41\n      swap2\n      swap1\n      tag_38\n      jump\t// in\n    tag_41:\n        /* \"contracts/Stakeable.sol\":5120:5221  return (((block.timestamp - _current_stake.since) / 1 hours) * _current_stake.amount) / rewardPerHour */\n      swap1\n      pop\n        /* \"contracts/Stakeable.sol\":4426:5230  function calculateStakeReward(Stake memory _current_stake) internal view returns(uint256){... */\n      swap2\n      swap1\n      pop\n      jump\t// out\n    tag_11:\n      mload(0x40)\n      dup1\n      0x40\n      add\n      0x40\n      mstore\n      dup1\n      0x00\n      dup2\n      mstore\n      0x20\n      add\n      0x60\n      dup2\n      mstore\n      pop\n      swap1\n      jump\t// out\n        /* \"#utility.yul\":7:146   */\n    tag_43:\n        /* \"#utility.yul\":53:58   */\n      0x00\n        /* \"#utility.yul\":91:97   */\n      dup2\n        /* \"#utility.yul\":78:98   */\n      calldataload\n        /* \"#utility.yul\":69:98   */\n      swap1\n      pop\n        /* \"#utility.yul\":107:140   */\n      tag_45\n        /* \"#utility.yul\":134:139   */\n      dup2\n        /* \"#utility.yul\":107:140   */\n      tag_46\n      jump\t// in\n    tag_45:\n        /* \"#utility.yul\":7:146   */\n      swap3\n      swap2\n      pop\n      pop\n      jump\t// out\n        /* \"#utility.yul\":152:481   */\n    tag_6:\n        /* \"#utility.yul\":211:217   */\n      0x00\n        /* \"#utility.yul\":260:262   */\n      0x20\n        /* \"#utility.yul\":248:257   */\n      dup3\n        /* \"#utility.yul\":239:246   */\n      dup5\n        /* \"#utility.yul\":235:258   */\n      sub\n        /* \"#utility.yul\":231:263   */\n      slt\n        /* \"#utility.yul\":228:347   */\n      iszero\n      tag_48\n      jumpi\n        /* \"#utility.yul\":266:345   */\n      tag_49\n      tag_50\n      jump\t// in\n    tag_49:\n        /* \"#utility.yul\":228:347   */\n    tag_48:\n        /* \"#utility.yul\":386:387   */\n      0x00\n        /* \"#utility.yul\":411:464   */\n      tag_51\n        /* \"#utility.yul\":456:463   */\n      dup5\n        /* \"#utility.yul\":447:453   */\n      dup3\n        /* \"#utility.yul\":436:445   */\n      dup6\n        /* \"#utility.yul\":432:454   */\n      add\n        /* \"#utility.yul\":411:464   */\n      tag_43\n      jump\t// in\n    tag_51:\n        /* \"#utility.yul\":401:464   */\n      swap2\n      pop\n        /* \"#utility.yul\":357:474   */\n      pop\n        /* \"#utility.yul\":152:481   */\n      swap3\n      swap2\n      pop\n      pop\n      jump\t// out\n        /* \"#utility.yul\":487:750   */\n    tag_52:\n        /* \"#utility.yul\":598:608   */\n      0x00\n        /* \"#utility.yul\":619:707   */\n      tag_54\n        /* \"#utility.yul\":703:706   */\n      dup4\n        /* \"#utility.yul\":695:701   */\n      dup4\n        /* \"#utility.yul\":619:707   */\n      tag_55\n      jump\t// in\n    tag_54:\n        /* \"#utility.yul\":739:743   */\n      0x80\n        /* \"#utility.yul\":734:737   */\n      dup4\n        /* \"#utility.yul\":730:744   */\n      add\n        /* \"#utility.yul\":716:744   */\n      swap1\n      pop\n        /* \"#utility.yul\":487:750   */\n      swap3\n      swap2\n      pop\n      pop\n      jump\t// out\n        /* \"#utility.yul\":756:864   */\n    tag_56:\n        /* \"#utility.yul\":833:857   */\n      tag_58\n        /* \"#utility.yul\":851:856   */\n      dup2\n        /* \"#utility.yul\":833:857   */\n      tag_59\n      jump\t// in\n    tag_58:\n        /* \"#utility.yul\":828:831   */\n      dup3\n        /* \"#utility.yul\":821:858   */\n      mstore\n        /* \"#utility.yul\":756:864   */\n      pop\n      pop\n      jump\t// out\n        /* \"#utility.yul\":930:1810   */\n    tag_60:\n        /* \"#utility.yul\":1081:1084   */\n      0x00\n        /* \"#utility.yul\":1110:1185   */\n      tag_62\n        /* \"#utility.yul\":1179:1184   */\n      dup3\n        /* \"#utility.yul\":1110:1185   */\n      tag_63\n      jump\t// in\n    tag_62:\n        /* \"#utility.yul\":1201:1298   */\n      tag_64\n        /* \"#utility.yul\":1291:1297   */\n      dup2\n        /* \"#utility.yul\":1286:1289   */\n      dup6\n        /* \"#utility.yul\":1201:1298   */\n      tag_65\n      jump\t// in\n    tag_64:\n        /* \"#utility.yul\":1194:1298   */\n      swap4\n      pop\n        /* \"#utility.yul\":1322:1399   */\n      tag_66\n        /* \"#utility.yul\":1393:1398   */\n      dup4\n        /* \"#utility.yul\":1322:1399   */\n      tag_67\n      jump\t// in\n    tag_66:\n        /* \"#utility.yul\":1422:1429   */\n      dup1\n        /* \"#utility.yul\":1453:1454   */\n      0x00\n        /* \"#utility.yul\":1438:1785   */\n    tag_68:\n        /* \"#utility.yul\":1463:1469   */\n      dup4\n        /* \"#utility.yul\":1460:1461   */\n      dup2\n        /* \"#utility.yul\":1457:1470   */\n      lt\n        /* \"#utility.yul\":1438:1785   */\n      iszero\n      tag_70\n      jumpi\n        /* \"#utility.yul\":1539:1545   */\n      dup2\n        /* \"#utility.yul\":1533:1546   */\n      mload\n        /* \"#utility.yul\":1566:1671   */\n      tag_71\n        /* \"#utility.yul\":1667:1670   */\n      dup9\n        /* \"#utility.yul\":1652:1665   */\n      dup3\n        /* \"#utility.yul\":1566:1671   */\n      tag_52\n      jump\t// in\n    tag_71:\n        /* \"#utility.yul\":1559:1671   */\n      swap8\n      pop\n        /* \"#utility.yul\":1694:1775   */\n      tag_72\n        /* \"#utility.yul\":1768:1774   */\n      dup4\n        /* \"#utility.yul\":1694:1775   */\n      tag_73\n      jump\t// in\n    tag_72:\n        /* \"#utility.yul\":1684:1775   */\n      swap3\n      pop\n        /* \"#utility.yul\":1498:1785   */\n      pop\n        /* \"#utility.yul\":1485:1486   */\n      0x01\n        /* \"#utility.yul\":1482:1483   */\n      dup2\n        /* \"#utility.yul\":1478:1487   */\n      add\n        /* \"#utility.yul\":1473:1487   */\n      swap1\n      pop\n        /* \"#utility.yul\":1438:1785   */\n      jump(tag_68)\n    tag_70:\n        /* \"#utility.yul\":1442:1456   */\n      pop\n        /* \"#utility.yul\":1801:1804   */\n      dup6\n        /* \"#utility.yul\":1794:1804   */\n      swap4\n      pop\n        /* \"#utility.yul\":1086:1810   */\n      pop\n      pop\n      pop\n        /* \"#utility.yul\":930:1810   */\n      swap3\n      swap2\n      pop\n      pop\n      jump\t// out\n        /* \"#utility.yul\":1872:2717   */\n    tag_55:\n        /* \"#utility.yul\":2001:2005   */\n      0x80\n        /* \"#utility.yul\":1996:1999   */\n      dup3\n        /* \"#utility.yul\":1992:2006   */\n      add\n        /* \"#utility.yul\":2088:2092   */\n      0x00\n        /* \"#utility.yul\":2081:2086   */\n      dup3\n        /* \"#utility.yul\":2077:2093   */\n      add\n        /* \"#utility.yul\":2071:2094   */\n      mload\n        /* \"#utility.yul\":2107:2170   */\n      tag_75\n        /* \"#utility.yul\":2164:2168   */\n      0x00\n        /* \"#utility.yul\":2159:2162   */\n      dup6\n        /* \"#utility.yul\":2155:2169   */\n      add\n        /* \"#utility.yul\":2141:2153   */\n      dup3\n        /* \"#utility.yul\":2107:2170   */\n      tag_56\n      jump\t// in\n    tag_75:\n        /* \"#utility.yul\":2016:2180   */\n      pop\n        /* \"#utility.yul\":2264:2268   */\n      0x20\n        /* \"#utility.yul\":2257:2262   */\n      dup3\n        /* \"#utility.yul\":2253:2269   */\n      add\n        /* \"#utility.yul\":2247:2270   */\n      mload\n        /* \"#utility.yul\":2283:2346   */\n      tag_76\n        /* \"#utility.yul\":2340:2344   */\n      0x20\n        /* \"#utility.yul\":2335:2338   */\n      dup6\n        /* \"#utility.yul\":2331:2345   */\n      add\n        /* \"#utility.yul\":2317:2329   */\n      dup3\n        /* \"#utility.yul\":2283:2346   */\n      tag_77\n      jump\t// in\n    tag_76:\n        /* \"#utility.yul\":2190:2356   */\n      pop\n        /* \"#utility.yul\":2439:2443   */\n      0x40\n        /* \"#utility.yul\":2432:2437   */\n      dup3\n        /* \"#utility.yul\":2428:2444   */\n      add\n        /* \"#utility.yul\":2422:2445   */\n      mload\n        /* \"#utility.yul\":2458:2521   */\n      tag_78\n        /* \"#utility.yul\":2515:2519   */\n      0x40\n        /* \"#utility.yul\":2510:2513   */\n      dup6\n        /* \"#utility.yul\":2506:2520   */\n      add\n        /* \"#utility.yul\":2492:2504   */\n      dup3\n        /* \"#utility.yul\":2458:2521   */\n      tag_77\n      jump\t// in\n    tag_78:\n        /* \"#utility.yul\":2366:2531   */\n      pop\n        /* \"#utility.yul\":2618:2622   */\n      0x60\n        /* \"#utility.yul\":2611:2616   */\n      dup3\n        /* \"#utility.yul\":2607:2623   */\n      add\n        /* \"#utility.yul\":2601:2624   */\n      mload\n        /* \"#utility.yul\":2637:2700   */\n      tag_79\n        /* \"#utility.yul\":2694:2698   */\n      0x60\n        /* \"#utility.yul\":2689:2692   */\n      dup6\n        /* \"#utility.yul\":2685:2699   */\n      add\n        /* \"#utility.yul\":2671:2683   */\n      dup3\n        /* \"#utility.yul\":2637:2700   */\n      tag_77\n      jump\t// in\n    tag_79:\n        /* \"#utility.yul\":2541:2710   */\n      pop\n        /* \"#utility.yul\":1970:2717   */\n      pop\n        /* \"#utility.yul\":1872:2717   */\n      pop\n      pop\n      jump\t// out\n        /* \"#utility.yul\":2797:3495   */\n    tag_80:\n        /* \"#utility.yul\":2926:2929   */\n      0x00\n        /* \"#utility.yul\":2962:2966   */\n      0x40\n        /* \"#utility.yul\":2957:2960   */\n      dup4\n        /* \"#utility.yul\":2953:2967   */\n      add\n        /* \"#utility.yul\":3057:3061   */\n      0x00\n        /* \"#utility.yul\":3050:3055   */\n      dup4\n        /* \"#utility.yul\":3046:3062   */\n      add\n        /* \"#utility.yul\":3040:3063   */\n      mload\n        /* \"#utility.yul\":3076:3139   */\n      tag_82\n        /* \"#utility.yul\":3133:3137   */\n      0x00\n        /* \"#utility.yul\":3128:3131   */\n      dup7\n        /* \"#utility.yul\":3124:3138   */\n      add\n        /* \"#utility.yul\":3110:3122   */\n      dup3\n        /* \"#utility.yul\":3076:3139   */\n      tag_77\n      jump\t// in\n    tag_82:\n        /* \"#utility.yul\":2977:3149   */\n      pop\n        /* \"#utility.yul\":3233:3237   */\n      0x20\n        /* \"#utility.yul\":3226:3231   */\n      dup4\n        /* \"#utility.yul\":3222:3238   */\n      add\n        /* \"#utility.yul\":3216:3239   */\n      mload\n        /* \"#utility.yul\":3286:3289   */\n      dup5\n        /* \"#utility.yul\":3280:3284   */\n      dup3\n        /* \"#utility.yul\":3276:3290   */\n      sub\n        /* \"#utility.yul\":3269:3273   */\n      0x20\n        /* \"#utility.yul\":3264:3267   */\n      dup7\n        /* \"#utility.yul\":3260:3274   */\n      add\n        /* \"#utility.yul\":3253:3291   */\n      mstore\n        /* \"#utility.yul\":3312:3457   */\n      tag_83\n        /* \"#utility.yul\":3452:3456   */\n      dup3\n        /* \"#utility.yul\":3438:3450   */\n      dup3\n        /* \"#utility.yul\":3312:3457   */\n      tag_60\n      jump\t// in\n    tag_83:\n        /* \"#utility.yul\":3304:3457   */\n      swap2\n      pop\n        /* \"#utility.yul\":3159:3468   */\n      pop\n        /* \"#utility.yul\":3485:3489   */\n      dup1\n        /* \"#utility.yul\":3478:3489   */\n      swap2\n      pop\n        /* \"#utility.yul\":2931:3495   */\n      pop\n        /* \"#utility.yul\":2797:3495   */\n      swap3\n      swap2\n      pop\n      pop\n      jump\t// out\n        /* \"#utility.yul\":3501:3609   */\n    tag_77:\n        /* \"#utility.yul\":3578:3602   */\n      tag_85\n        /* \"#utility.yul\":3596:3601   */\n      dup2\n        /* \"#utility.yul\":3578:3602   */\n      tag_86\n      jump\t// in\n    tag_85:\n        /* \"#utility.yul\":3573:3576   */\n      dup3\n        /* \"#utility.yul\":3566:3603   */\n      mstore\n        /* \"#utility.yul\":3501:3609   */\n      pop\n      pop\n      jump\t// out\n        /* \"#utility.yul\":3615:4008   */\n    tag_9:\n        /* \"#utility.yul\":3768:3772   */\n      0x00\n        /* \"#utility.yul\":3806:3808   */\n      0x20\n        /* \"#utility.yul\":3795:3804   */\n      dup3\n        /* \"#utility.yul\":3791:3809   */\n      add\n        /* \"#utility.yul\":3783:3809   */\n      swap1\n      pop\n        /* \"#utility.yul\":3855:3864   */\n      dup2\n        /* \"#utility.yul\":3849:3853   */\n      dup2\n        /* \"#utility.yul\":3845:3865   */\n      sub\n        /* \"#utility.yul\":3841:3842   */\n      0x00\n        /* \"#utility.yul\":3830:3839   */\n      dup4\n        /* \"#utility.yul\":3826:3843   */\n      add\n        /* \"#utility.yul\":3819:3866   */\n      mstore\n        /* \"#utility.yul\":3883:4001   */\n      tag_88\n        /* \"#utility.yul\":3996:4000   */\n      dup2\n        /* \"#utility.yul\":3987:3993   */\n      dup5\n        /* \"#utility.yul\":3883:4001   */\n      tag_80\n      jump\t// in\n    tag_88:\n        /* \"#utility.yul\":3875:4001   */\n      swap1\n      pop\n        /* \"#utility.yul\":3615:4008   */\n      swap3\n      swap2\n      pop\n      pop\n      jump\t// out\n        /* \"#utility.yul\":4095:4248   */\n    tag_67:\n        /* \"#utility.yul\":4183:4187   */\n      0x00\n        /* \"#utility.yul\":4206:4209   */\n      dup2\n        /* \"#utility.yul\":4198:4209   */\n      swap1\n      pop\n        /* \"#utility.yul\":4236:4240   */\n      0x20\n        /* \"#utility.yul\":4231:4234   */\n      dup3\n        /* \"#utility.yul\":4227:4241   */\n      add\n        /* \"#utility.yul\":4219:4241   */\n      swap1\n      pop\n        /* \"#utility.yul\":4095:4248   */\n      swap2\n      swap1\n      pop\n      jump\t// out\n        /* \"#utility.yul\":4254:4389   */\n    tag_63:\n        /* \"#utility.yul\":4342:4348   */\n      0x00\n        /* \"#utility.yul\":4376:4381   */\n      dup2\n        /* \"#utility.yul\":4370:4382   */\n      mload\n        /* \"#utility.yul\":4360:4382   */\n      swap1\n      pop\n        /* \"#utility.yul\":4254:4389   */\n      swap2\n      swap1\n      pop\n      jump\t// out\n        /* \"#utility.yul\":4395:4529   */\n    tag_73:\n        /* \"#utility.yul\":4486:4490   */\n      0x00\n        /* \"#utility.yul\":4518:4522   */\n      0x20\n        /* \"#utility.yul\":4513:4516   */\n      dup3\n        /* \"#utility.yul\":4509:4523   */\n      add\n        /* \"#utility.yul\":4501:4523   */\n      swap1\n      pop\n        /* \"#utility.yul\":4395:4529   */\n      swap2\n      swap1\n      pop\n      jump\t// out\n        /* \"#utility.yul\":4535:4730   */\n    tag_65:\n        /* \"#utility.yul\":4645:4656   */\n      0x00\n        /* \"#utility.yul\":4679:4685   */\n      dup3\n        /* \"#utility.yul\":4674:4677   */\n      dup3\n        /* \"#utility.yul\":4667:4686   */\n      mstore\n        /* \"#utility.yul\":4719:4723   */\n      0x20\n        /* \"#utility.yul\":4714:4717   */\n      dup3\n        /* \"#utility.yul\":4710:4724   */\n      add\n        /* \"#utility.yul\":4695:4724   */\n      swap1\n      pop\n        /* \"#utility.yul\":4535:4730   */\n      swap3\n      swap2\n      pop\n      pop\n      jump\t// out\n        /* \"#utility.yul\":4736:5041   */\n    tag_32:\n        /* \"#utility.yul\":4776:4779   */\n      0x00\n        /* \"#utility.yul\":4795:4815   */\n      tag_96\n        /* \"#utility.yul\":4813:4814   */\n      dup3\n        /* \"#utility.yul\":4795:4815   */\n      tag_86\n      jump\t// in\n    tag_96:\n        /* \"#utility.yul\":4790:4815   */\n      swap2\n      pop\n        /* \"#utility.yul\":4829:4849   */\n      tag_97\n        /* \"#utility.yul\":4847:4848   */\n      dup4\n        /* \"#utility.yul\":4829:4849   */\n      tag_86\n      jump\t// in\n    tag_97:\n        /* \"#utility.yul\":4824:4849   */\n      swap3\n      pop\n        /* \"#utility.yul\":4983:4984   */\n      dup3\n        /* \"#utility.yul\":4915:4981   */\n      0xffffffffffffffffffffffffffffffffffffffffffffffffffffffffffffffff\n        /* \"#utility.yul\":4911:4985   */\n      sub\n        /* \"#utility.yul\":4908:4909   */\n      dup3\n        /* \"#utility.yul\":4905:4986   */\n      gt\n        /* \"#utility.yul\":4902:5009   */\n      iszero\n      tag_98\n      jumpi\n        /* \"#utility.yul\":4989:5007   */\n      tag_99\n      tag_100\n      jump\t// in\n    tag_99:\n        /* \"#utility.yul\":4902:5009   */\n    tag_98:\n        /* \"#utility.yul\":5033:5034   */\n      dup3\n        /* \"#utility.yul\":5030:5031   */\n      dup3\n        /* \"#utility.yul\":5026:5035   */\n      add\n        /* \"#utility.yul\":5019:5035   */\n      swap1\n      pop\n        /* \"#utility.yul\":4736:5041   */\n      swap3\n      swap2\n      pop\n      pop\n      jump\t// out\n        /* \"#utility.yul\":5047:5232   */\n    tag_38:\n        /* \"#utility.yul\":5087:5088   */\n      0x00\n        /* \"#utility.yul\":5104:5124   */\n      tag_102\n        /* \"#utility.yul\":5122:5123   */\n      dup3\n        /* \"#utility.yul\":5104:5124   */\n      tag_86\n      jump\t// in\n    tag_102:\n        /* \"#utility.yul\":5099:5124   */\n      swap2\n      pop\n        /* \"#utility.yul\":5138:5158   */\n      tag_103\n        /* \"#utility.yul\":5156:5157   */\n      dup4\n        /* \"#utility.yul\":5138:5158   */\n      tag_86\n      jump\t// in\n    tag_103:\n        /* \"#utility.yul\":5133:5158   */\n      swap3\n      pop\n        /* \"#utility.yul\":5177:5178   */\n      dup3\n        /* \"#utility.yul\":5167:5202   */\n      tag_104\n      jumpi\n        /* \"#utility.yul\":5182:5200   */\n      tag_105\n      tag_106\n      jump\t// in\n    tag_105:\n        /* \"#utility.yul\":5167:5202   */\n    tag_104:\n        /* \"#utility.yul\":5224:5225   */\n      dup3\n        /* \"#utility.yul\":5221:5222   */\n      dup3\n        /* \"#utility.yul\":5217:5226   */\n      div\n        /* \"#utility.yul\":5212:5226   */\n      swap1\n      pop\n        /* \"#utility.yul\":5047:5232   */\n      swap3\n      swap2\n      pop\n      pop\n      jump\t// out\n        /* \"#utility.yul\":5238:5586   */\n    tag_40:\n        /* \"#utility.yul\":5278:5285   */\n      0x00\n        /* \"#utility.yul\":5301:5321   */\n      tag_108\n        /* \"#utility.yul\":5319:5320   */\n      dup3\n        /* \"#utility.yul\":5301:5321   */\n      tag_86\n      jump\t// in\n    tag_108:\n        /* \"#utility.yul\":5296:5321   */\n      swap2\n      pop\n        /* \"#utility.yul\":5335:5355   */\n      tag_109\n        /* \"#utility.yul\":5353:5354   */\n      dup4\n        /* \"#utility.yul\":5335:5355   */\n      tag_86\n      jump\t// in\n    tag_109:\n        /* \"#utility.yul\":5330:5355   */\n      swap3\n      pop\n        /* \"#utility.yul\":5523:5524   */\n      dup2\n        /* \"#utility.yul\":5455:5521   */\n      0xffffffffffffffffffffffffffffffffffffffffffffffffffffffffffffffff\n        /* \"#utility.yul\":5451:5525   */\n      div\n        /* \"#utility.yul\":5448:5449   */\n      dup4\n        /* \"#utility.yul\":5445:5526   */\n      gt\n        /* \"#utility.yul\":5440:5441   */\n      dup3\n        /* \"#utility.yul\":5433:5442   */\n      iszero\n        /* \"#utility.yul\":5426:5443   */\n      iszero\n        /* \"#utility.yul\":5422:5527   */\n      and\n        /* \"#utility.yul\":5419:5550   */\n      iszero\n      tag_110\n      jumpi\n        /* \"#utility.yul\":5530:5548   */\n      tag_111\n      tag_100\n      jump\t// in\n    tag_111:\n        /* \"#utility.yul\":5419:5550   */\n    tag_110:\n        /* \"#utility.yul\":5578:5579   */\n      dup3\n        /* \"#utility.yul\":5575:5576   */\n      dup3\n        /* \"#utility.yul\":5571:5580   */\n      mul\n        /* \"#utility.yul\":5560:5580   */\n      swap1\n      pop\n        /* \"#utility.yul\":5238:5586   */\n      swap3\n      swap2\n      pop\n      pop\n      jump\t// out\n        /* \"#utility.yul\":5592:5783   */\n    tag_36:\n        /* \"#utility.yul\":5632:5636   */\n      0x00\n        /* \"#utility.yul\":5652:5672   */\n      tag_113\n        /* \"#utility.yul\":5670:5671   */\n      dup3\n        /* \"#utility.yul\":5652:5672   */\n      tag_86\n      jump\t// in\n    tag_113:\n        /* \"#utility.yul\":5647:5672   */\n      swap2\n      pop\n        /* \"#utility.yul\":5686:5706   */\n      tag_114\n        /* \"#utility.yul\":5704:5705   */\n      dup4\n        /* \"#utility.yul\":5686:5706   */\n      tag_86\n      jump\t// in\n    tag_114:\n        /* \"#utility.yul\":5681:5706   */\n      swap3\n      pop\n        /* \"#utility.yul\":5725:5726   */\n      dup3\n        /* \"#utility.yul\":5722:5723   */\n      dup3\n        /* \"#utility.yul\":5719:5727   */\n      lt\n        /* \"#utility.yul\":5716:5750   */\n      iszero\n      tag_115\n      jumpi\n        /* \"#utility.yul\":5730:5748   */\n      tag_116\n      tag_100\n      jump\t// in\n    tag_116:\n        /* \"#utility.yul\":5716:5750   */\n    tag_115:\n        /* \"#utility.yul\":5775:5776   */\n      dup3\n        /* \"#utility.yul\":5772:5773   */\n      dup3\n        /* \"#utility.yul\":5768:5777   */\n      sub\n        /* \"#utility.yul\":5760:5777   */\n      swap1\n      pop\n        /* \"#utility.yul\":5592:5783   */\n      swap3\n      swap2\n      pop\n      pop\n      jump\t// out\n        /* \"#utility.yul\":5789:5885   */\n    tag_59:\n        /* \"#utility.yul\":5826:5833   */\n      0x00\n        /* \"#utility.yul\":5855:5879   */\n      tag_118\n        /* \"#utility.yul\":5873:5878   */\n      dup3\n        /* \"#utility.yul\":5855:5879   */\n      tag_119\n      jump\t// in\n    tag_118:\n        /* \"#utility.yul\":5844:5879   */\n      swap1\n      pop\n        /* \"#utility.yul\":5789:5885   */\n      swap2\n      swap1\n      pop\n      jump\t// out\n        /* \"#utility.yul\":5891:6017   */\n    tag_119:\n        /* \"#utility.yul\":5928:5935   */\n      0x00\n        /* \"#utility.yul\":5968:6010   */\n      0xffffffffffffffffffffffffffffffffffffffff\n        /* \"#utility.yul\":5961:5966   */\n      dup3\n        /* \"#utility.yul\":5957:6011   */\n      and\n        /* \"#utility.yul\":5946:6011   */\n      swap1\n      pop\n        /* \"#utility.yul\":5891:6017   */\n      swap2\n      swap1\n      pop\n      jump\t// out\n        /* \"#utility.yul\":6023:6100   */\n    tag_86:\n        /* \"#utility.yul\":6060:6067   */\n      0x00\n        /* \"#utility.yul\":6089:6094   */\n      dup2\n        /* \"#utility.yul\":6078:6094   */\n      swap1\n      pop\n        /* \"#utility.yul\":6023:6100   */\n      swap2\n      swap1\n      pop\n      jump\t// out\n        /* \"#utility.yul\":6106:6286   */\n    tag_100:\n        /* \"#utility.yul\":6154:6231   */\n      0x4e487b7100000000000000000000000000000000000000000000000000000000\n        /* \"#utility.yul\":6151:6152   */\n      0x00\n        /* \"#utility.yul\":6144:6232   */\n      mstore\n        /* \"#utility.yul\":6251:6255   */\n      0x11\n        /* \"#utility.yul\":6248:6249   */\n      0x04\n        /* \"#utility.yul\":6241:6256   */\n      mstore\n        /* \"#utility.yul\":6275:6279   */\n      0x24\n        /* \"#utility.yul\":6272:6273   */\n      0x00\n        /* \"#utility.yul\":6265:6280   */\n      revert\n        /* \"#utility.yul\":6292:6472   */\n    tag_106:\n        /* \"#utility.yul\":6340:6417   */\n      0x4e487b7100000000000000000000000000000000000000000000000000000000\n        /* \"#utility.yul\":6337:6338   */\n      0x00\n        /* \"#utility.yul\":6330:6418   */\n      mstore\n        /* \"#utility.yul\":6437:6441   */\n      0x12\n        /* \"#utility.yul\":6434:6435   */\n      0x04\n        /* \"#utility.yul\":6427:6442   */\n      mstore\n        /* \"#utility.yul\":6461:6465   */\n      0x24\n        /* \"#utility.yul\":6458:6459   */\n      0x00\n        /* \"#utility.yul\":6451:6466   */\n      revert\n        /* \"#utility.yul\":6478:6658   */\n    tag_15:\n        /* \"#utility.yul\":6526:6603   */\n      0x4e487b7100000000000000000000000000000000000000000000000000000000\n        /* \"#utility.yul\":6523:6524   */\n      0x00\n        /* \"#utility.yul\":6516:6604   */\n      mstore\n        /* \"#utility.yul\":6623:6627   */\n      0x32\n        /* \"#utility.yul\":6620:6621   */\n      0x04\n        /* \"#utility.yul\":6613:6628   */\n      mstore\n        /* \"#utility.yul\":6647:6651   */\n      0x24\n        /* \"#utility.yul\":6644:6645   */\n      0x00\n        /* \"#utility.yul\":6637:6652   */\n      revert\n        /* \"#utility.yul\":6787:6904   */\n    tag_50:\n        /* \"#utility.yul\":6896:6897   */\n      0x00\n        /* \"#utility.yul\":6893:6894   */\n      dup1\n        /* \"#utility.yul\":6886:6898   */\n      revert\n        /* \"#utility.yul\":6910:7032   */\n    tag_46:\n        /* \"#utility.yul\":6983:7007   */\n      tag_129\n        /* \"#utility.yul\":7001:7006   */\n      dup2\n        /* \"#utility.yul\":6983:7007   */\n      tag_59\n      jump\t// in\n    tag_129:\n        /* \"#utility.yul\":6976:6981   */\n      dup2\n        /* \"#utility.yul\":6973:7008   */\n      eq\n        /* \"#utility.yul\":6963:7026   */\n      tag_130\n      jumpi\n        /* \"#utility.yul\":7022:7023   */\n      0x00\n        /* \"#utility.yul\":7019:7020   */\n      dup1\n        /* \"#utility.yul\":7012:7024   */\n      revert\n        /* \"#utility.yul\":6963:7026   */\n    tag_130:\n        /* \"#utility.yul\":6910:7032   */\n      pop\n      jump\t// out\n\n    auxdata: 0xa2646970667358221220116f6469dea2e9413d9ee149564b60dcefe6da180b7954dab60a1d08ffcc25c064736f6c63430008070033\n}\n",
				"bytecode": {
					"linkReferences": {},
					"object": "60806040526305f5e10060025534801561001857600080fd5b506000600181600181540180825580915050039060005260206000209050506106bc806100466000396000f3fe608060405234801561001057600080fd5b506004361061002b5760003560e01c8063e73e14bf14610030575b600080fd5b61004a600480360381019061004591906102de565b610060565b6040516100579190610431565b60405180910390f35b6100686102af565b6000806040518060400160405280600081526020016000600160008873ffffffffffffffffffffffffffffffffffffffff1673ffffffffffffffffffffffffffffffffffffffff16815260200190815260200160002054815481106100d0576100cf61063b565b5b9060005260206000209060020201600101805480602002602001604051908101604052809291908181526020016000905b828210156101a757838290600052602060002090600402016040518060800160405290816000820160009054906101000a900473ffffffffffffffffffffffffffffffffffffffff1673ffffffffffffffffffffffffffffffffffffffff1673ffffffffffffffffffffffffffffffffffffffff168152602001600182015481526020016002820154815260200160038201548152505081526020019060010190610101565b50505050815250905060005b8160200151518110156102585760006101e9836020015183815181106101dc576101db61063b565b5b602002602001015161026d565b905080836020015183815181106102035761020261063b565b5b602002602001015160600181815250508260200151828151811061022a5761022961063b565b5b60200260200101516020015184610241919061048c565b935050600181610251919061048c565b90506101b3565b50818160000181815250508092505050919050565b60006002548260200151610e1084604001514261028a919061056d565b61029491906104e2565b61029e9190610513565b6102a891906104e2565b9050919050565b604051806040016040528060008152602001606081525090565b6000813590506102d88161066f565b92915050565b6000602082840312156102f4576102f361066a565b5b6000610302848285016102c9565b91505092915050565b60006103178383610390565b60808301905092915050565b61032c816105a1565b82525050565b600061033d82610463565b610347818561047b565b935061035283610453565b8060005b8381101561038357815161036a888261030b565b97506103758361046e565b925050600181019050610356565b5085935050505092915050565b6080820160008201516103a66000850182610323565b5060208201516103b96020850182610422565b5060408201516103cc6040850182610422565b5060608201516103df6060850182610422565b50505050565b60006040830160008301516103fd6000860182610422565b50602083015184820360208601526104158282610332565b9150508091505092915050565b61042b816105d3565b82525050565b6000602082019050818103600083015261044b81846103e5565b905092915050565b6000819050602082019050919050565b600081519050919050565b6000602082019050919050565b600082825260208201905092915050565b6000610497826105d3565b91506104a2836105d3565b9250827fffffffffffffffffffffffffffffffffffffffffffffffffffffffffffffffff038211156104d7576104d66105dd565b5b828201905092915050565b60006104ed826105d3565b91506104f8836105d3565b9250826105085761050761060c565b5b828204905092915050565b600061051e826105d3565b9150610529836105d3565b9250817fffffffffffffffffffffffffffffffffffffffffffffffffffffffffffffffff0483118215151615610562576105616105dd565b5b828202905092915050565b6000610578826105d3565b9150610583836105d3565b925082821015610596576105956105dd565b5b828203905092915050565b60006105ac826105b3565b9050919050565b600073ffffffffffffffffffffffffffffffffffffffff82169050919050565b6000819050919050565b7f4e487b7100000000000000000000000000000000000000000000000000000000600052601160045260246000fd5b7f4e487b7100000000000000000000000000000000000000000000000000000000600052601260045260246000fd5b7f4e487b7100000000000000000000000000000000000000000000000000000000600052603260045260246000fd5b600080fd5b610678816105a1565b811461068357600080fd5b5056fea2646970667358221220116f6469dea2e9413d9ee149564b60dcefe6da180b7954dab60a1d08ffcc25c064736f6c63430008070033",
					"opcodes": "PUSH1 0x80 PUSH1 0x40 MSTORE PUSH4 0x5F5E100 PUSH1 0x2 SSTORE CALLVALUE DUP1 ISZERO PUSH2 0x18 JUMPI PUSH1 0x0 DUP1 REVERT JUMPDEST POP PUSH1 0x0 PUSH1 0x1 DUP2 PUSH1 0x1 DUP2 SLOAD ADD DUP1 DUP3 SSTORE DUP1 SWAP2 POP POP SUB SWAP1 PUSH1 0x0 MSTORE PUSH1 0x20 PUSH1 0x0 KECCAK256 SWAP1 POP POP PUSH2 0x6BC DUP1 PUSH2 0x46 PUSH1 0x0 CODECOPY PUSH1 0x0 RETURN INVALID PUSH1 0x80 PUSH1 0x40 MSTORE CALLVALUE DUP1 ISZERO PUSH2 0x10 JUMPI PUSH1 0x0 DUP1 REVERT JUMPDEST POP PUSH1 0x4 CALLDATASIZE LT PUSH2 0x2B JUMPI PUSH1 0x0 CALLDATALOAD PUSH1 0xE0 SHR DUP1 PUSH4 0xE73E14BF EQ PUSH2 0x30 JUMPI JUMPDEST PUSH1 0x0 DUP1 REVERT JUMPDEST PUSH2 0x4A PUSH1 0x4 DUP1 CALLDATASIZE SUB DUP2 ADD SWAP1 PUSH2 0x45 SWAP2 SWAP1 PUSH2 0x2DE JUMP JUMPDEST PUSH2 0x60 JUMP JUMPDEST PUSH1 0x40 MLOAD PUSH2 0x57 SWAP2 SWAP1 PUSH2 0x431 JUMP JUMPDEST PUSH1 0x40 MLOAD DUP1 SWAP2 SUB SWAP1 RETURN JUMPDEST PUSH2 0x68 PUSH2 0x2AF JUMP JUMPDEST PUSH1 0x0 DUP1 PUSH1 0x40 MLOAD DUP1 PUSH1 0x40 ADD PUSH1 0x40 MSTORE DUP1 PUSH1 0x0 DUP2 MSTORE PUSH1 0x20 ADD PUSH1 0x0 PUSH1 0x1 PUSH1 0x0 DUP9 PUSH20 0xFFFFFFFFFFFFFFFFFFFFFFFFFFFFFFFFFFFFFFFF AND PUSH20 0xFFFFFFFFFFFFFFFFFFFFFFFFFFFFFFFFFFFFFFFF AND DUP2 MSTORE PUSH1 0x20 ADD SWAP1 DUP2 MSTORE PUSH1 0x20 ADD PUSH1 0x0 KECCAK256 SLOAD DUP2 SLOAD DUP2 LT PUSH2 0xD0 JUMPI PUSH2 0xCF PUSH2 0x63B JUMP JUMPDEST JUMPDEST SWAP1 PUSH1 0x0 MSTORE PUSH1 0x20 PUSH1 0x0 KECCAK256 SWAP1 PUSH1 0x2 MUL ADD PUSH1 0x1 ADD DUP1 SLOAD DUP1 PUSH1 0x20 MUL PUSH1 0x20 ADD PUSH1 0x40 MLOAD SWAP1 DUP2 ADD PUSH1 0x40 MSTORE DUP1 SWAP3 SWAP2 SWAP1 DUP2 DUP2 MSTORE PUSH1 0x20 ADD PUSH1 0x0 SWAP1 JUMPDEST DUP3 DUP3 LT ISZERO PUSH2 0x1A7 JUMPI DUP4 DUP3 SWAP1 PUSH1 0x0 MSTORE PUSH1 0x20 PUSH1 0x0 KECCAK256 SWAP1 PUSH1 0x4 MUL ADD PUSH1 0x40 MLOAD DUP1 PUSH1 0x80 ADD PUSH1 0x40 MSTORE SWAP1 DUP2 PUSH1 0x0 DUP3 ADD PUSH1 0x0 SWAP1 SLOAD SWAP1 PUSH2 0x100 EXP SWAP1 DIV PUSH20 0xFFFFFFFFFFFFFFFFFFFFFFFFFFFFFFFFFFFFFFFF AND PUSH20 0xFFFFFFFFFFFFFFFFFFFFFFFFFFFFFFFFFFFFFFFF AND PUSH20 0xFFFFFFFFFFFFFFFFFFFFFFFFFFFFFFFFFFFFFFFF AND DUP2 MSTORE PUSH1 0x20 ADD PUSH1 0x1 DUP3 ADD SLOAD DUP2 MSTORE PUSH1 0x20 ADD PUSH1 0x2 DUP3 ADD SLOAD DUP2 MSTORE PUSH1 0x20 ADD PUSH1 0x3 DUP3 ADD SLOAD DUP2 MSTORE POP POP DUP2 MSTORE PUSH1 0x20 ADD SWAP1 PUSH1 0x1 ADD SWAP1 PUSH2 0x101 JUMP JUMPDEST POP POP POP POP DUP2 MSTORE POP SWAP1 POP PUSH1 0x0 JUMPDEST DUP2 PUSH1 0x20 ADD MLOAD MLOAD DUP2 LT ISZERO PUSH2 0x258 JUMPI PUSH1 0x0 PUSH2 0x1E9 DUP4 PUSH1 0x20 ADD MLOAD DUP4 DUP2 MLOAD DUP2 LT PUSH2 0x1DC JUMPI PUSH2 0x1DB PUSH2 0x63B JUMP JUMPDEST JUMPDEST PUSH1 0x20 MUL PUSH1 0x20 ADD ADD MLOAD PUSH2 0x26D JUMP JUMPDEST SWAP1 POP DUP1 DUP4 PUSH1 0x20 ADD MLOAD DUP4 DUP2 MLOAD DUP2 LT PUSH2 0x203 JUMPI PUSH2 0x202 PUSH2 0x63B JUMP JUMPDEST JUMPDEST PUSH1 0x20 MUL PUSH1 0x20 ADD ADD MLOAD PUSH1 0x60 ADD DUP2 DUP2 MSTORE POP POP DUP3 PUSH1 0x20 ADD MLOAD DUP3 DUP2 MLOAD DUP2 LT PUSH2 0x22A JUMPI PUSH2 0x229 PUSH2 0x63B JUMP JUMPDEST JUMPDEST PUSH1 0x20 MUL PUSH1 0x20 ADD ADD MLOAD PUSH1 0x20 ADD MLOAD DUP5 PUSH2 0x241 SWAP2 SWAP1 PUSH2 0x48C JUMP JUMPDEST SWAP4 POP POP PUSH1 0x1 DUP2 PUSH2 0x251 SWAP2 SWAP1 PUSH2 0x48C JUMP JUMPDEST SWAP1 POP PUSH2 0x1B3 JUMP JUMPDEST POP DUP2 DUP2 PUSH1 0x0 ADD DUP2 DUP2 MSTORE POP POP DUP1 SWAP3 POP POP POP SWAP2 SWAP1 POP JUMP JUMPDEST PUSH1 0x0 PUSH1 0x2 SLOAD DUP3 PUSH1 0x20 ADD MLOAD PUSH2 0xE10 DUP5 PUSH1 0x40 ADD MLOAD TIMESTAMP PUSH2 0x28A SWAP2 SWAP1 PUSH2 0x56D JUMP JUMPDEST PUSH2 0x294 SWAP2 SWAP1 PUSH2 0x4E2 JUMP JUMPDEST PUSH2 0x29E SWAP2 SWAP1 PUSH2 0x513 JUMP JUMPDEST PUSH2 0x2A8 SWAP2 SWAP1 PUSH2 0x4E2 JUMP JUMPDEST SWAP1 POP SWAP2 SWAP1 POP JUMP JUMPDEST PUSH1 0x40 MLOAD DUP1 PUSH1 0x40 ADD PUSH1 0x40 MSTORE DUP1 PUSH1 0x0 DUP2 MSTORE PUSH1 0x20 ADD PUSH1 0x60 DUP2 MSTORE POP SWAP1 JUMP JUMPDEST PUSH1 0x0 DUP2 CALLDATALOAD SWAP1 POP PUSH2 0x2D8 DUP2 PUSH2 0x66F JUMP JUMPDEST SWAP3 SWAP2 POP POP JUMP JUMPDEST PUSH1 0x0 PUSH1 0x20 DUP3 DUP5 SUB SLT ISZERO PUSH2 0x2F4 JUMPI PUSH2 0x2F3 PUSH2 0x66A JUMP JUMPDEST JUMPDEST PUSH1 0x0 PUSH2 0x302 DUP5 DUP3 DUP6 ADD PUSH2 0x2C9 JUMP JUMPDEST SWAP2 POP POP SWAP3 SWAP2 POP POP JUMP JUMPDEST PUSH1 0x0 PUSH2 0x317 DUP4 DUP4 PUSH2 0x390 JUMP JUMPDEST PUSH1 0x80 DUP4 ADD SWAP1 POP SWAP3 SWAP2 POP POP JUMP JUMPDEST PUSH2 0x32C DUP2 PUSH2 0x5A1 JUMP JUMPDEST DUP3 MSTORE POP POP JUMP JUMPDEST PUSH1 0x0 PUSH2 0x33D DUP3 PUSH2 0x463 JUMP JUMPDEST PUSH2 0x347 DUP2 DUP6 PUSH2 0x47B JUMP JUMPDEST SWAP4 POP PUSH2 0x352 DUP4 PUSH2 0x453 JUMP JUMPDEST DUP1 PUSH1 0x0 JUMPDEST DUP4 DUP2 LT ISZERO PUSH2 0x383 JUMPI DUP2 MLOAD PUSH2 0x36A DUP9 DUP3 PUSH2 0x30B JUMP JUMPDEST SWAP8 POP PUSH2 0x375 DUP4 PUSH2 0x46E JUMP JUMPDEST SWAP3 POP POP PUSH1 0x1 DUP2 ADD SWAP1 POP PUSH2 0x356 JUMP JUMPDEST POP DUP6 SWAP4 POP POP POP POP SWAP3 SWAP2 POP POP JUMP JUMPDEST PUSH1 0x80 DUP3 ADD PUSH1 0x0 DUP3 ADD MLOAD PUSH2 0x3A6 PUSH1 0x0 DUP6 ADD DUP3 PUSH2 0x323 JUMP JUMPDEST POP PUSH1 0x20 DUP3 ADD MLOAD PUSH2 0x3B9 PUSH1 0x20 DUP6 ADD DUP3 PUSH2 0x422 JUMP JUMPDEST POP PUSH1 0x40 DUP3 ADD MLOAD PUSH2 0x3CC PUSH1 0x40 DUP6 ADD DUP3 PUSH2 0x422 JUMP JUMPDEST POP PUSH1 0x60 DUP3 ADD MLOAD PUSH2 0x3DF PUSH1 0x60 DUP6 ADD DUP3 PUSH2 0x422 JUMP JUMPDEST POP POP POP POP JUMP JUMPDEST PUSH1 0x0 PUSH1 0x40 DUP4 ADD PUSH1 0x0 DUP4 ADD MLOAD PUSH2 0x3FD PUSH1 0x0 DUP7 ADD DUP3 PUSH2 0x422 JUMP JUMPDEST POP PUSH1 0x20 DUP4 ADD MLOAD DUP5 DUP3 SUB PUSH1 0x20 DUP7 ADD MSTORE PUSH2 0x415 DUP3 DUP3 PUSH2 0x332 JUMP JUMPDEST SWAP2 POP POP DUP1 SWAP2 POP POP SWAP3 SWAP2 POP POP JUMP JUMPDEST PUSH2 0x42B DUP2 PUSH2 0x5D3 JUMP JUMPDEST DUP3 MSTORE POP POP JUMP JUMPDEST PUSH1 0x0 PUSH1 0x20 DUP3 ADD SWAP1 POP DUP2 DUP2 SUB PUSH1 0x0 DUP4 ADD MSTORE PUSH2 0x44B DUP2 DUP5 PUSH2 0x3E5 JUMP JUMPDEST SWAP1 POP SWAP3 SWAP2 POP POP JUMP JUMPDEST PUSH1 0x0 DUP2 SWAP1 POP PUSH1 0x20 DUP3 ADD SWAP1 POP SWAP2 SWAP1 POP JUMP JUMPDEST PUSH1 0x0 DUP2 MLOAD SWAP1 POP SWAP2 SWAP1 POP JUMP JUMPDEST PUSH1 0x0 PUSH1 0x20 DUP3 ADD SWAP1 POP SWAP2 SWAP1 POP JUMP JUMPDEST PUSH1 0x0 DUP3 DUP3 MSTORE PUSH1 0x20 DUP3 ADD SWAP1 POP SWAP3 SWAP2 POP POP JUMP JUMPDEST PUSH1 0x0 PUSH2 0x497 DUP3 PUSH2 0x5D3 JUMP JUMPDEST SWAP2 POP PUSH2 0x4A2 DUP4 PUSH2 0x5D3 JUMP JUMPDEST SWAP3 POP DUP3 PUSH32 0xFFFFFFFFFFFFFFFFFFFFFFFFFFFFFFFFFFFFFFFFFFFFFFFFFFFFFFFFFFFFFFFF SUB DUP3 GT ISZERO PUSH2 0x4D7 JUMPI PUSH2 0x4D6 PUSH2 0x5DD JUMP JUMPDEST JUMPDEST DUP3 DUP3 ADD SWAP1 POP SWAP3 SWAP2 POP POP JUMP JUMPDEST PUSH1 0x0 PUSH2 0x4ED DUP3 PUSH2 0x5D3 JUMP JUMPDEST SWAP2 POP PUSH2 0x4F8 DUP4 PUSH2 0x5D3 JUMP JUMPDEST SWAP3 POP DUP3 PUSH2 0x508 JUMPI PUSH2 0x507 PUSH2 0x60C JUMP JUMPDEST JUMPDEST DUP3 DUP3 DIV SWAP1 POP SWAP3 SWAP2 POP POP JUMP JUMPDEST PUSH1 0x0 PUSH2 0x51E DUP3 PUSH2 0x5D3 JUMP JUMPDEST SWAP2 POP PUSH2 0x529 DUP4 PUSH2 0x5D3 JUMP JUMPDEST SWAP3 POP DUP2 PUSH32 0xFFFFFFFFFFFFFFFFFFFFFFFFFFFFFFFFFFFFFFFFFFFFFFFFFFFFFFFFFFFFFFFF DIV DUP4 GT DUP3 ISZERO ISZERO AND ISZERO PUSH2 0x562 JUMPI PUSH2 0x561 PUSH2 0x5DD JUMP JUMPDEST JUMPDEST DUP3 DUP3 MUL SWAP1 POP SWAP3 SWAP2 POP POP JUMP JUMPDEST PUSH1 0x0 PUSH2 0x578 DUP3 PUSH2 0x5D3 JUMP JUMPDEST SWAP2 POP PUSH2 0x583 DUP4 PUSH2 0x5D3 JUMP JUMPDEST SWAP3 POP DUP3 DUP3 LT ISZERO PUSH2 0x596 JUMPI PUSH2 0x595 PUSH2 0x5DD JUMP JUMPDEST JUMPDEST DUP3 DUP3 SUB SWAP1 POP SWAP3 SWAP2 POP POP JUMP JUMPDEST PUSH1 0x0 PUSH2 0x5AC DUP3 PUSH2 0x5B3 JUMP JUMPDEST SWAP1 POP SWAP2 SWAP1 POP JUMP JUMPDEST PUSH1 0x0 PUSH20 0xFFFFFFFFFFFFFFFFFFFFFFFFFFFFFFFFFFFFFFFF DUP3 AND SWAP1 POP SWAP2 SWAP1 POP JUMP JUMPDEST PUSH1 0x0 DUP2 SWAP1 POP SWAP2 SWAP1 POP JUMP JUMPDEST PUSH32 0x4E487B7100000000000000000000000000000000000000000000000000000000 PUSH1 0x0 MSTORE PUSH1 0x11 PUSH1 0x4 MSTORE PUSH1 0x24 PUSH1 0x0 REVERT JUMPDEST PUSH32 0x4E487B7100000000000000000000000000000000000000000000000000000000 PUSH1 0x0 MSTORE PUSH1 0x12 PUSH1 0x4 MSTORE PUSH1 0x24 PUSH1 0x0 REVERT JUMPDEST PUSH32 0x4E487B7100000000000000000000000000000000000000000000000000000000 PUSH1 0x0 MSTORE PUSH1 0x32 PUSH1 0x4 MSTORE PUSH1 0x24 PUSH1 0x0 REVERT JUMPDEST PUSH1 0x0 DUP1 REVERT JUMPDEST PUSH2 0x678 DUP2 PUSH2 0x5A1 JUMP JUMPDEST DUP2 EQ PUSH2 0x683 JUMPI PUSH1 0x0 DUP1 REVERT JUMPDEST POP JUMP INVALID LOG2 PUSH5 0x6970667358 0x22 SLT KECCAK256 GT PUSH16 0x6469DEA2E9413D9EE149564B60DCEFE6 0xDA XOR SIGNEXTEND PUSH26 0x54DAB60A1D08FFCC25C064736F6C634300080700330000000000 "
				},
				"gasEstimates": {
					"creation": {
						"codeDepositCost": "344800",
						"executionCost": "46781",
						"totalCost": "391581"
					},
					"external": {
						"hasStake(address)": "infinite"
					},
					"internal": {
						"_addStakeholder(address)": "infinite",
						"_stake(uint256)": "infinite",
						"_withdrawStake(uint256,uint256,uint256)": "infinite",
						"calculateStakeReward(struct Stakeable.Stake memory)": "infinite"
					}
				},
				"methodIdentifiers": {
					"hasStake(address)": "e73e14bf"
				}
			},
			"storageLayout": {
				"storage": [
					{
						"astId": 40,
						"contract": "contracts/Stakeable.sol:Stakeable",
						"label": "stakeholders",
						"offset": 0,
						"slot": "0",
						"type": "t_array(t_struct(Stakeholder)28_storage)dyn_storage"
					},
					{
						"astId": 45,
						"contract": "contracts/Stakeable.sol:Stakeable",
						"label": "stakes",
						"offset": 0,
						"slot": "1",
						"type": "t_mapping(t_address,t_uint256)"
					},
					{
						"astId": 60,
						"contract": "contracts/Stakeable.sol:Stakeable",
						"label": "rewardPerHour",
						"offset": 0,
						"slot": "2",
						"type": "t_uint256"
					}
				],
				"types": {
					"t_address": {
						"encoding": "inplace",
						"label": "address",
						"numberOfBytes": "20"
					},
					"t_array(t_struct(Stake)21_storage)dyn_storage": {
						"base": "t_struct(Stake)21_storage",
						"encoding": "dynamic_array",
						"label": "struct Stakeable.Stake[]",
						"numberOfBytes": "32"
					},
					"t_array(t_struct(Stakeholder)28_storage)dyn_storage": {
						"base": "t_struct(Stakeholder)28_storage",
						"encoding": "dynamic_array",
						"label": "struct Stakeable.Stakeholder[]",
						"numberOfBytes": "32"
					},
					"t_mapping(t_address,t_uint256)": {
						"encoding": "mapping",
						"key": "t_address",
						"label": "mapping(address => uint256)",
						"numberOfBytes": "32",
						"value": "t_uint256"
					},
					"t_struct(Stake)21_storage": {
						"encoding": "inplace",
						"label": "struct Stakeable.Stake",
						"members": [
							{
								"astId": 14,
								"contract": "contracts/Stakeable.sol:Stakeable",
								"label": "user",
								"offset": 0,
								"slot": "0",
								"type": "t_address"
							},
							{
								"astId": 16,
								"contract": "contracts/Stakeable.sol:Stakeable",
								"label": "amount",
								"offset": 0,
								"slot": "1",
								"type": "t_uint256"
							},
							{
								"astId": 18,
								"contract": "contracts/Stakeable.sol:Stakeable",
								"label": "since",
								"offset": 0,
								"slot": "2",
								"type": "t_uint256"
							},
							{
								"astId": 20,
								"contract": "contracts/Stakeable.sol:Stakeable",
								"label": "claimable",
								"offset": 0,
								"slot": "3",
								"type": "t_uint256"
							}
						],
						"numberOfBytes": "128"
					},
					"t_struct(Stakeholder)28_storage": {
						"encoding": "inplace",
						"label": "struct Stakeable.Stakeholder",
						"members": [
							{
								"astId": 23,
								"contract": "contracts/Stakeable.sol:Stakeable",
								"label": "user",
								"offset": 0,
								"slot": "0",
								"type": "t_address"
							},
							{
								"astId": 27,
								"contract": "contracts/Stakeable.sol:Stakeable",
								"label": "address_stakes",
								"offset": 0,
								"slot": "1",
								"type": "t_array(t_struct(Stake)21_storage)dyn_storage"
							}
						],
						"numberOfBytes": "64"
					},
					"t_uint256": {
						"encoding": "inplace",
						"label": "uint256",
						"numberOfBytes": "32"
					}
				}
			},
			"userdoc": {
				"events": {
					"Staked(address,uint256,uint256,uint256)": {
						"notice": "Staked event is triggered whenever a user stakes tokens, address is indexed to make it filterable"
					}
				},
				"kind": "user",
				"methods": {
					"constructor": {
						"notice": "Constructor since this contract is not ment to be used without inheritance push once to stakeholders for it to work proplerly"
					},
					"hasStake(address)": {
						"notice": "hasStake is used to check if a account has stakes and the total amount along with all the seperate stakes"
					}
				},
				"notice": "Stakeable is a contract who is ment to be inherited by other contract that wants Staking capabilities",
				"version": 1
			}
		}
	}
}