{
	"contracts/Stakeable.sol": {
		"Stakeable": {
			"abi": [
				{
					"inputs": [],
					"stateMutability": "nonpayable",
					"type": "constructor"
				},
				{
					"anonymous": false,
					"inputs": [
						{
							"indexed": true,
							"internalType": "address",
							"name": "user",
							"type": "address"
						},
						{
							"indexed": false,
							"internalType": "uint256",
							"name": "amount",
							"type": "uint256"
						},
						{
							"indexed": false,
							"internalType": "uint256",
							"name": "index",
							"type": "uint256"
						},
						{
							"indexed": false,
							"internalType": "uint256",
							"name": "timestamp",
							"type": "uint256"
						}
					],
					"name": "Staked",
					"type": "event"
				},
				{
					"inputs": [
						{
							"internalType": "address",
							"name": "_staker",
							"type": "address"
						}
					],
					"name": "hasStake",
					"outputs": [
						{
							"components": [
								{
									"internalType": "uint256",
									"name": "total_amount",
									"type": "uint256"
								},
								{
									"components": [
										{
											"internalType": "address",
											"name": "user",
											"type": "address"
										},
										{
											"internalType": "uint256",
											"name": "amount",
											"type": "uint256"
										},
										{
											"internalType": "uint256",
											"name": "since",
											"type": "uint256"
										},
										{
											"internalType": "uint256",
											"name": "claimable",
											"type": "uint256"
										}
									],
									"internalType": "struct Stakeable.Stake[]",
									"name": "stakes",
									"type": "tuple[]"
								}
							],
							"internalType": "struct Stakeable.StakingSummary",
							"name": "",
							"type": "tuple"
						}
					],
					"stateMutability": "view",
					"type": "function"
				}
			],
			"devdoc": {
				"kind": "dev",
				"methods": {},
				"version": 1
			},
			"evm": {
				"assembly": "    /* \"contracts/Stakeable.sol\":176:7730  contract Stakeable {... */\n  mstore(0x40, 0x80)\n    /* \"contracts/Stakeable.sol\":2222:2231  100000000 */\n  0x05f5e100\n    /* \"contracts/Stakeable.sol\":2189:2231  uint256 internal rewardPerHour = 100000000 */\n  0x02\n  sstore\n    /* \"contracts/Stakeable.sol\":365:489  constructor() {... */\n  callvalue\n  dup1\n  iszero\n  tag_1\n  jumpi\n  0x00\n  dup1\n  revert\ntag_1:\n  pop\n    /* \"contracts/Stakeable.sol\":463:475  stakeholders */\n  0x00\n    /* \"contracts/Stakeable.sol\":463:482  stakeholders.push() */\n  0x01\n  dup2\n  0x01\n  dup2\n  sload\n  add\n  dup1\n  dup3\n  sstore\n  dup1\n  swap2\n  pop\n  pop\n  sub\n  swap1\n  0x00\n  mstore\n  keccak256(0x00, 0x20)\n  swap1\n  pop\n  pop\n    /* \"contracts/Stakeable.sol\":176:7730  contract Stakeable {... */\n  dataSize(sub_0)\n  dup1\n  dataOffset(sub_0)\n  0x00\n  codecopy\n  0x00\n  return\nstop\n\nsub_0: assembly {\n        /* \"contracts/Stakeable.sol\":176:7730  contract Stakeable {... */\n      mstore(0x40, 0x80)\n      callvalue\n      dup1\n      iszero\n      tag_1\n      jumpi\n      0x00\n      dup1\n      revert\n    tag_1:\n      pop\n      jumpi(tag_2, lt(calldatasize, 0x04))\n      shr(0xe0, calldataload(0x00))\n      dup1\n      0xe73e14bf\n      eq\n      tag_3\n      jumpi\n    tag_2:\n      0x00\n      dup1\n      revert\n        /* \"contracts/Stakeable.sol\":6899:7727  function hasStake(address _staker) public view returns(StakingSummary memory){... */\n    tag_3:\n      tag_4\n      0x04\n      dup1\n      calldatasize\n      sub\n      dup2\n      add\n      swap1\n      tag_5\n      swap2\n      swap1\n      tag_6\n      jump\t// in\n    tag_5:\n      tag_7\n      jump\t// in\n    tag_4:\n      mload(0x40)\n      tag_8\n      swap2\n      swap1\n      tag_9\n      jump\t// in\n    tag_8:\n      mload(0x40)\n      dup1\n      swap2\n      sub\n      swap1\n      return\n    tag_7:\n        /* \"contracts/Stakeable.sol\":6954:6975  StakingSummary memory */\n      tag_10\n      tag_11\n      jump\t// in\n    tag_10:\n        /* \"contracts/Stakeable.sol\":7066:7090  uint256 totalStakeAmount */\n      0x00\n        /* \"contracts/Stakeable.sol\":7169:7198  StakingSummary memory summary */\n      dup1\n        /* \"contracts/Stakeable.sol\":7201:7264  StakingSummary(0, stakeholders[stakes[_staker]].address_stakes) */\n      mload(0x40)\n      dup1\n      0x40\n      add\n      0x40\n      mstore\n      dup1\n        /* \"contracts/Stakeable.sol\":7216:7217  0 */\n      0x00\n        /* \"contracts/Stakeable.sol\":7201:7264  StakingSummary(0, stakeholders[stakes[_staker]].address_stakes) */\n      dup2\n      mstore\n      0x20\n      add\n        /* \"contracts/Stakeable.sol\":7219:7231  stakeholders */\n      0x00\n        /* \"contracts/Stakeable.sol\":7232:7238  stakes */\n      0x01\n        /* \"contracts/Stakeable.sol\":7232:7247  stakes[_staker] */\n      0x00\n        /* \"contracts/Stakeable.sol\":7239:7246  _staker */\n      dup9\n        /* \"contracts/Stakeable.sol\":7232:7247  stakes[_staker] */\n      0xffffffffffffffffffffffffffffffffffffffff\n      and\n      0xffffffffffffffffffffffffffffffffffffffff\n      and\n      dup2\n      mstore\n      0x20\n      add\n      swap1\n      dup2\n      mstore\n      0x20\n      add\n      0x00\n      keccak256\n      sload\n        /* \"contracts/Stakeable.sol\":7219:7248  stakeholders[stakes[_staker]] */\n      dup2\n      sload\n      dup2\n      lt\n      tag_13\n      jumpi\n      tag_14\n      tag_15\n      jump\t// in\n    tag_14:\n    tag_13:\n      swap1\n      0x00\n      mstore\n      keccak256(0x00, 0x20)\n      swap1\n      0x02\n      mul\n      add\n        /* \"contracts/Stakeable.sol\":7219:7263  stakeholders[stakes[_staker]].address_stakes */\n      0x01\n      add\n        /* \"contracts/Stakeable.sol\":7201:7264  StakingSummary(0, stakeholders[stakes[_staker]].address_stakes) */\n      dup1\n      sload\n      dup1\n      0x20\n      mul\n      0x20\n      add\n      mload(0x40)\n      swap1\n      dup2\n      add\n      0x40\n      mstore\n      dup1\n      swap3\n      swap2\n      swap1\n      dup2\n      dup2\n      mstore\n      0x20\n      add\n      0x00\n      swap1\n    tag_17:\n      dup3\n      dup3\n      lt\n      iszero\n      tag_18\n      jumpi\n      dup4\n      dup3\n      swap1\n      0x00\n      mstore\n      keccak256(0x00, 0x20)\n      swap1\n      0x04\n      mul\n      add\n      mload(0x40)\n      dup1\n      0x80\n      add\n      0x40\n      mstore\n      swap1\n      dup2\n      0x00\n      dup3\n      add\n      0x00\n      swap1\n      sload\n      swap1\n      0x0100\n      exp\n      swap1\n      div\n      0xffffffffffffffffffffffffffffffffffffffff\n      and\n      0xffffffffffffffffffffffffffffffffffffffff\n      and\n      0xffffffffffffffffffffffffffffffffffffffff\n      and\n      dup2\n      mstore\n      0x20\n      add\n      0x01\n      dup3\n      add\n      sload\n      dup2\n      mstore\n      0x20\n      add\n      0x02\n      dup3\n      add\n      sload\n      dup2\n      mstore\n      0x20\n      add\n      0x03\n      dup3\n      add\n      sload\n      dup2\n      mstore\n      pop\n      pop\n      dup2\n      mstore\n      0x20\n      add\n      swap1\n      0x01\n      add\n      swap1\n      jump(tag_17)\n    tag_18:\n      pop\n      pop\n      pop\n      pop\n      dup2\n      mstore\n      pop\n        /* \"contracts/Stakeable.sol\":7169:7264  StakingSummary memory summary = StakingSummary(0, stakeholders[stakes[_staker]].address_stakes) */\n      swap1\n      pop\n        /* \"contracts/Stakeable.sol\":7336:7345  uint256 s */\n      0x00\n        /* \"contracts/Stakeable.sol\":7331:7604  for (uint256 s = 0; s < summary.stakes.length; s += 1){... */\n    tag_20:\n        /* \"contracts/Stakeable.sol\":7355:7362  summary */\n      dup2\n        /* \"contracts/Stakeable.sol\":7355:7369  summary.stakes */\n      0x20\n      add\n      mload\n        /* \"contracts/Stakeable.sol\":7355:7376  summary.stakes.length */\n      mload\n        /* \"contracts/Stakeable.sol\":7351:7352  s */\n      dup2\n        /* \"contracts/Stakeable.sol\":7351:7376  s < summary.stakes.length */\n      lt\n        /* \"contracts/Stakeable.sol\":7331:7604  for (uint256 s = 0; s < summary.stakes.length; s += 1){... */\n      iszero\n      tag_21\n      jumpi\n        /* \"contracts/Stakeable.sol\":7398:7421  uint256 availableReward */\n      0x00\n        /* \"contracts/Stakeable.sol\":7424:7463  calculateStakeReward(summary.stakes[s]) */\n      tag_23\n        /* \"contracts/Stakeable.sol\":7445:7452  summary */\n      dup4\n        /* \"contracts/Stakeable.sol\":7445:7459  summary.stakes */\n      0x20\n      add\n      mload\n        /* \"contracts/Stakeable.sol\":7460:7461  s */\n      dup4\n        /* \"contracts/Stakeable.sol\":7445:7462  summary.stakes[s] */\n      dup2\n      mload\n      dup2\n      lt\n      tag_24\n      jumpi\n      tag_25\n      tag_15\n      jump\t// in\n    tag_25:\n    tag_24:\n      0x20\n      mul\n      0x20\n      add\n      add\n      mload\n        /* \"contracts/Stakeable.sol\":7424:7444  calculateStakeReward */\n      tag_26\n        /* \"contracts/Stakeable.sol\":7424:7463  calculateStakeReward(summary.stakes[s]) */\n      jump\t// in\n    tag_23:\n        /* \"contracts/Stakeable.sol\":7398:7463  uint256 availableReward = calculateStakeReward(summary.stakes[s]) */\n      swap1\n      pop\n        /* \"contracts/Stakeable.sol\":7506:7521  availableReward */\n      dup1\n        /* \"contracts/Stakeable.sol\":7476:7483  summary */\n      dup4\n        /* \"contracts/Stakeable.sol\":7476:7490  summary.stakes */\n      0x20\n      add\n      mload\n        /* \"contracts/Stakeable.sol\":7491:7492  s */\n      dup4\n        /* \"contracts/Stakeable.sol\":7476:7493  summary.stakes[s] */\n      dup2\n      mload\n      dup2\n      lt\n      tag_27\n      jumpi\n      tag_28\n      tag_15\n      jump\t// in\n    tag_28:\n    tag_27:\n      0x20\n      mul\n      0x20\n      add\n      add\n      mload\n        /* \"contracts/Stakeable.sol\":7476:7503  summary.stakes[s].claimable */\n      0x60\n      add\n        /* \"contracts/Stakeable.sol\":7476:7521  summary.stakes[s].claimable = availableReward */\n      dup2\n      dup2\n      mstore\n      pop\n      pop\n        /* \"contracts/Stakeable.sol\":7570:7577  summary */\n      dup3\n        /* \"contracts/Stakeable.sol\":7570:7584  summary.stakes */\n      0x20\n      add\n      mload\n        /* \"contracts/Stakeable.sol\":7585:7586  s */\n      dup3\n        /* \"contracts/Stakeable.sol\":7570:7587  summary.stakes[s] */\n      dup2\n      mload\n      dup2\n      lt\n      tag_29\n      jumpi\n      tag_30\n      tag_15\n      jump\t// in\n    tag_30:\n    tag_29:\n      0x20\n      mul\n      0x20\n      add\n      add\n      mload\n        /* \"contracts/Stakeable.sol\":7570:7594  summary.stakes[s].amount */\n      0x20\n      add\n      mload\n        /* \"contracts/Stakeable.sol\":7553:7569  totalStakeAmount */\n      dup5\n        /* \"contracts/Stakeable.sol\":7553:7594  totalStakeAmount+summary.stakes[s].amount */\n      tag_31\n      swap2\n      swap1\n      tag_32\n      jump\t// in\n    tag_31:\n        /* \"contracts/Stakeable.sol\":7534:7594  totalStakeAmount = totalStakeAmount+summary.stakes[s].amount */\n      swap4\n      pop\n        /* \"contracts/Stakeable.sol\":7385:7604  {... */\n      pop\n        /* \"contracts/Stakeable.sol\":7383:7384  1 */\n      0x01\n        /* \"contracts/Stakeable.sol\":7378:7384  s += 1 */\n      dup2\n      tag_33\n      swap2\n      swap1\n      tag_32\n      jump\t// in\n    tag_33:\n      swap1\n      pop\n        /* \"contracts/Stakeable.sol\":7331:7604  for (uint256 s = 0; s < summary.stakes.length; s += 1){... */\n      jump(tag_20)\n    tag_21:\n      pop\n        /* \"contracts/Stakeable.sol\":7680:7696  totalStakeAmount */\n      dup2\n        /* \"contracts/Stakeable.sol\":7657:7664  summary */\n      dup2\n        /* \"contracts/Stakeable.sol\":7657:7677  summary.total_amount */\n      0x00\n      add\n        /* \"contracts/Stakeable.sol\":7657:7696  summary.total_amount = totalStakeAmount */\n      dup2\n      dup2\n      mstore\n      pop\n      pop\n        /* \"contracts/Stakeable.sol\":7713:7720  summary */\n      dup1\n        /* \"contracts/Stakeable.sol\":7706:7720  return summary */\n      swap3\n      pop\n      pop\n      pop\n        /* \"contracts/Stakeable.sol\":6899:7727  function hasStake(address _staker) public view returns(StakingSummary memory){... */\n      swap2\n      swap1\n      pop\n      jump\t// out\n        /* \"contracts/Stakeable.sol\":4426:5230  function calculateStakeReward(Stake memory _current_stake) internal view returns(uint256){... */\n    tag_26:\n        /* \"contracts/Stakeable.sol\":4507:4514  uint256 */\n      0x00\n        /* \"contracts/Stakeable.sol\":5208:5221  rewardPerHour */\n      sload(0x02)\n        /* \"contracts/Stakeable.sol\":5183:5197  _current_stake */\n      dup3\n        /* \"contracts/Stakeable.sol\":5183:5204  _current_stake.amount */\n      0x20\n      add\n      mload\n        /* \"contracts/Stakeable.sol\":5172:5179  1 hours */\n      0x0e10\n        /* \"contracts/Stakeable.sol\":5148:5162  _current_stake */\n      dup5\n        /* \"contracts/Stakeable.sol\":5148:5168  _current_stake.since */\n      0x40\n      add\n      mload\n        /* \"contracts/Stakeable.sol\":5130:5145  block.timestamp */\n      timestamp\n        /* \"contracts/Stakeable.sol\":5130:5168  block.timestamp - _current_stake.since */\n      tag_35\n      swap2\n      swap1\n      tag_36\n      jump\t// in\n    tag_35:\n        /* \"contracts/Stakeable.sol\":5129:5179  (block.timestamp - _current_stake.since) / 1 hours */\n      tag_37\n      swap2\n      swap1\n      tag_38\n      jump\t// in\n    tag_37:\n        /* \"contracts/Stakeable.sol\":5128:5204  ((block.timestamp - _current_stake.since) / 1 hours) * _current_stake.amount */\n      tag_39\n      swap2\n      swap1\n      tag_40\n      jump\t// in\n    tag_39:\n        /* \"contracts/Stakeable.sol\":5127:5221  (((block.timestamp - _current_stake.since) / 1 hours) * _current_stake.amount) / rewardPerHour */\n      tag_41\n      swap2\n      swap1\n      tag_38\n      jump\t// in\n    tag_41:\n        /* \"contracts/Stakeable.sol\":5120:5221  return (((block.timestamp - _current_stake.since) / 1 hours) * _current_stake.amount) / rewardPerHour */\n      swap1\n      pop\n        /* \"contracts/Stakeable.sol\":4426:5230  function calculateStakeReward(Stake memory _current_stake) internal view returns(uint256){... */\n      swap2\n      swap1\n      pop\n      jump\t// out\n    tag_11:\n      mload(0x40)\n      dup1\n      0x40\n      add\n      0x40\n      mstore\n      dup1\n      0x00\n      dup2\n      mstore\n      0x20\n      add\n      0x60\n      dup2\n      mstore\n      pop\n      swap1\n      jump\t// out\n        /* \"#utility.yul\":88:205   */\n    tag_43:\n        /* \"#utility.yul\":197:198   */\n      0x00\n        /* \"#utility.yul\":194:195   */\n      dup1\n        /* \"#utility.yul\":187:199   */\n      revert\n        /* \"#utility.yul\":334:460   */\n    tag_45:\n        /* \"#utility.yul\":371:378   */\n      0x00\n        /* \"#utility.yul\":411:453   */\n      0xffffffffffffffffffffffffffffffffffffffff\n        /* \"#utility.yul\":404:409   */\n      dup3\n        /* \"#utility.yul\":400:454   */\n      and\n        /* \"#utility.yul\":389:454   */\n      swap1\n      pop\n        /* \"#utility.yul\":334:460   */\n      swap2\n      swap1\n      pop\n      jump\t// out\n        /* \"#utility.yul\":466:562   */\n    tag_46:\n        /* \"#utility.yul\":503:510   */\n      0x00\n        /* \"#utility.yul\":532:556   */\n      tag_68\n        /* \"#utility.yul\":550:555   */\n      dup3\n        /* \"#utility.yul\":532:556   */\n      tag_45\n      jump\t// in\n    tag_68:\n        /* \"#utility.yul\":521:556   */\n      swap1\n      pop\n        /* \"#utility.yul\":466:562   */\n      swap2\n      swap1\n      pop\n      jump\t// out\n        /* \"#utility.yul\":568:690   */\n    tag_47:\n        /* \"#utility.yul\":641:665   */\n      tag_70\n        /* \"#utility.yul\":659:664   */\n      dup2\n        /* \"#utility.yul\":641:665   */\n      tag_46\n      jump\t// in\n    tag_70:\n        /* \"#utility.yul\":634:639   */\n      dup2\n        /* \"#utility.yul\":631:666   */\n      eq\n        /* \"#utility.yul\":621:684   */\n      tag_71\n      jumpi\n        /* \"#utility.yul\":680:681   */\n      0x00\n        /* \"#utility.yul\":677:678   */\n      dup1\n        /* \"#utility.yul\":670:682   */\n      revert\n        /* \"#utility.yul\":621:684   */\n    tag_71:\n        /* \"#utility.yul\":568:690   */\n      pop\n      jump\t// out\n        /* \"#utility.yul\":696:835   */\n    tag_48:\n        /* \"#utility.yul\":742:747   */\n      0x00\n        /* \"#utility.yul\":780:786   */\n      dup2\n        /* \"#utility.yul\":767:787   */\n      calldataload\n        /* \"#utility.yul\":758:787   */\n      swap1\n      pop\n        /* \"#utility.yul\":796:829   */\n      tag_73\n        /* \"#utility.yul\":823:828   */\n      dup2\n        /* \"#utility.yul\":796:829   */\n      tag_47\n      jump\t// in\n    tag_73:\n        /* \"#utility.yul\":696:835   */\n      swap3\n      swap2\n      pop\n      pop\n      jump\t// out\n        /* \"#utility.yul\":841:1170   */\n    tag_6:\n        /* \"#utility.yul\":900:906   */\n      0x00\n        /* \"#utility.yul\":949:951   */\n      0x20\n        /* \"#utility.yul\":937:946   */\n      dup3\n        /* \"#utility.yul\":928:935   */\n      dup5\n        /* \"#utility.yul\":924:947   */\n      sub\n        /* \"#utility.yul\":920:952   */\n      slt\n        /* \"#utility.yul\":917:1036   */\n      iszero\n      tag_75\n      jumpi\n        /* \"#utility.yul\":955:1034   */\n      tag_76\n      tag_43\n      jump\t// in\n    tag_76:\n        /* \"#utility.yul\":917:1036   */\n    tag_75:\n        /* \"#utility.yul\":1075:1076   */\n      0x00\n        /* \"#utility.yul\":1100:1153   */\n      tag_77\n        /* \"#utility.yul\":1145:1152   */\n      dup5\n        /* \"#utility.yul\":1136:1142   */\n      dup3\n        /* \"#utility.yul\":1125:1134   */\n      dup6\n        /* \"#utility.yul\":1121:1143   */\n      add\n        /* \"#utility.yul\":1100:1153   */\n      tag_48\n      jump\t// in\n    tag_77:\n        /* \"#utility.yul\":1090:1153   */\n      swap2\n      pop\n        /* \"#utility.yul\":1046:1163   */\n      pop\n        /* \"#utility.yul\":841:1170   */\n      swap3\n      swap2\n      pop\n      pop\n      jump\t// out\n        /* \"#utility.yul\":1176:1253   */\n    tag_49:\n        /* \"#utility.yul\":1213:1220   */\n      0x00\n        /* \"#utility.yul\":1242:1247   */\n      dup2\n        /* \"#utility.yul\":1231:1247   */\n      swap1\n      pop\n        /* \"#utility.yul\":1176:1253   */\n      swap2\n      swap1\n      pop\n      jump\t// out\n        /* \"#utility.yul\":1259:1367   */\n    tag_50:\n        /* \"#utility.yul\":1336:1360   */\n      tag_80\n        /* \"#utility.yul\":1354:1359   */\n      dup2\n        /* \"#utility.yul\":1336:1360   */\n      tag_49\n      jump\t// in\n    tag_80:\n        /* \"#utility.yul\":1331:1334   */\n      dup3\n        /* \"#utility.yul\":1324:1361   */\n      mstore\n        /* \"#utility.yul\":1259:1367   */\n      pop\n      pop\n      jump\t// out\n        /* \"#utility.yul\":1373:1509   */\n    tag_51:\n        /* \"#utility.yul\":1462:1468   */\n      0x00\n        /* \"#utility.yul\":1496:1501   */\n      dup2\n        /* \"#utility.yul\":1490:1502   */\n      mload\n        /* \"#utility.yul\":1480:1502   */\n      swap1\n      pop\n        /* \"#utility.yul\":1373:1509   */\n      swap2\n      swap1\n      pop\n      jump\t// out\n        /* \"#utility.yul\":1515:1711   */\n    tag_52:\n        /* \"#utility.yul\":1626:1637   */\n      0x00\n        /* \"#utility.yul\":1660:1666   */\n      dup3\n        /* \"#utility.yul\":1655:1658   */\n      dup3\n        /* \"#utility.yul\":1648:1667   */\n      mstore\n        /* \"#utility.yul\":1700:1704   */\n      0x20\n        /* \"#utility.yul\":1695:1698   */\n      dup3\n        /* \"#utility.yul\":1691:1705   */\n      add\n        /* \"#utility.yul\":1676:1705   */\n      swap1\n      pop\n        /* \"#utility.yul\":1515:1711   */\n      swap3\n      swap2\n      pop\n      pop\n      jump\t// out\n        /* \"#utility.yul\":1717:1871   */\n    tag_53:\n        /* \"#utility.yul\":1806:1810   */\n      0x00\n        /* \"#utility.yul\":1829:1832   */\n      dup2\n        /* \"#utility.yul\":1821:1832   */\n      swap1\n      pop\n        /* \"#utility.yul\":1859:1863   */\n      0x20\n        /* \"#utility.yul\":1854:1857   */\n      dup3\n        /* \"#utility.yul\":1850:1864   */\n      add\n        /* \"#utility.yul\":1842:1864   */\n      swap1\n      pop\n        /* \"#utility.yul\":1717:1871   */\n      swap2\n      swap1\n      pop\n      jump\t// out\n        /* \"#utility.yul\":1877:1985   */\n    tag_54:\n        /* \"#utility.yul\":1954:1978   */\n      tag_85\n        /* \"#utility.yul\":1972:1977   */\n      dup2\n        /* \"#utility.yul\":1954:1978   */\n      tag_46\n      jump\t// in\n    tag_85:\n        /* \"#utility.yul\":1949:1952   */\n      dup3\n        /* \"#utility.yul\":1942:1979   */\n      mstore\n        /* \"#utility.yul\":1877:1985   */\n      pop\n      pop\n      jump\t// out\n        /* \"#utility.yul\":2047:2894   */\n    tag_55:\n        /* \"#utility.yul\":2178:2182   */\n      0x80\n        /* \"#utility.yul\":2173:2176   */\n      dup3\n        /* \"#utility.yul\":2169:2183   */\n      add\n        /* \"#utility.yul\":2265:2269   */\n      0x00\n        /* \"#utility.yul\":2258:2263   */\n      dup3\n        /* \"#utility.yul\":2254:2270   */\n      add\n        /* \"#utility.yul\":2248:2271   */\n      mload\n        /* \"#utility.yul\":2284:2347   */\n      tag_87\n        /* \"#utility.yul\":2341:2345   */\n      0x00\n        /* \"#utility.yul\":2336:2339   */\n      dup6\n        /* \"#utility.yul\":2332:2346   */\n      add\n        /* \"#utility.yul\":2318:2330   */\n      dup3\n        /* \"#utility.yul\":2284:2347   */\n      tag_54\n      jump\t// in\n    tag_87:\n        /* \"#utility.yul\":2193:2357   */\n      pop\n        /* \"#utility.yul\":2441:2445   */\n      0x20\n        /* \"#utility.yul\":2434:2439   */\n      dup3\n        /* \"#utility.yul\":2430:2446   */\n      add\n        /* \"#utility.yul\":2424:2447   */\n      mload\n        /* \"#utility.yul\":2460:2523   */\n      tag_88\n        /* \"#utility.yul\":2517:2521   */\n      0x20\n        /* \"#utility.yul\":2512:2515   */\n      dup6\n        /* \"#utility.yul\":2508:2522   */\n      add\n        /* \"#utility.yul\":2494:2506   */\n      dup3\n        /* \"#utility.yul\":2460:2523   */\n      tag_50\n      jump\t// in\n    tag_88:\n        /* \"#utility.yul\":2367:2533   */\n      pop\n        /* \"#utility.yul\":2616:2620   */\n      0x40\n        /* \"#utility.yul\":2609:2614   */\n      dup3\n        /* \"#utility.yul\":2605:2621   */\n      add\n        /* \"#utility.yul\":2599:2622   */\n      mload\n        /* \"#utility.yul\":2635:2698   */\n      tag_89\n        /* \"#utility.yul\":2692:2696   */\n      0x40\n        /* \"#utility.yul\":2687:2690   */\n      dup6\n        /* \"#utility.yul\":2683:2697   */\n      add\n        /* \"#utility.yul\":2669:2681   */\n      dup3\n        /* \"#utility.yul\":2635:2698   */\n      tag_50\n      jump\t// in\n    tag_89:\n        /* \"#utility.yul\":2543:2708   */\n      pop\n        /* \"#utility.yul\":2795:2799   */\n      0x60\n        /* \"#utility.yul\":2788:2793   */\n      dup3\n        /* \"#utility.yul\":2784:2800   */\n      add\n        /* \"#utility.yul\":2778:2801   */\n      mload\n        /* \"#utility.yul\":2814:2877   */\n      tag_90\n        /* \"#utility.yul\":2871:2875   */\n      0x60\n        /* \"#utility.yul\":2866:2869   */\n      dup6\n        /* \"#utility.yul\":2862:2876   */\n      add\n        /* \"#utility.yul\":2848:2860   */\n      dup3\n        /* \"#utility.yul\":2814:2877   */\n      tag_50\n      jump\t// in\n    tag_90:\n        /* \"#utility.yul\":2718:2887   */\n      pop\n        /* \"#utility.yul\":2147:2894   */\n      pop\n        /* \"#utility.yul\":2047:2894   */\n      pop\n      pop\n      jump\t// out\n        /* \"#utility.yul\":2900:3167   */\n    tag_56:\n        /* \"#utility.yul\":3013:3023   */\n      0x00\n        /* \"#utility.yul\":3034:3124   */\n      tag_92\n        /* \"#utility.yul\":3120:3123   */\n      dup4\n        /* \"#utility.yul\":3112:3118   */\n      dup4\n        /* \"#utility.yul\":3034:3124   */\n      tag_55\n      jump\t// in\n    tag_92:\n        /* \"#utility.yul\":3156:3160   */\n      0x80\n        /* \"#utility.yul\":3151:3154   */\n      dup4\n        /* \"#utility.yul\":3147:3161   */\n      add\n        /* \"#utility.yul\":3133:3161   */\n      swap1\n      pop\n        /* \"#utility.yul\":2900:3167   */\n      swap3\n      swap2\n      pop\n      pop\n      jump\t// out\n        /* \"#utility.yul\":3173:3308   */\n    tag_57:\n        /* \"#utility.yul\":3265:3269   */\n      0x00\n        /* \"#utility.yul\":3297:3301   */\n      0x20\n        /* \"#utility.yul\":3292:3295   */\n      dup3\n        /* \"#utility.yul\":3288:3302   */\n      add\n        /* \"#utility.yul\":3280:3302   */\n      swap1\n      pop\n        /* \"#utility.yul\":3173:3308   */\n      swap2\n      swap1\n      pop\n      jump\t// out\n        /* \"#utility.yul\":3374:4262   */\n    tag_58:\n        /* \"#utility.yul\":3527:3530   */\n      0x00\n        /* \"#utility.yul\":3556:3632   */\n      tag_95\n        /* \"#utility.yul\":3626:3631   */\n      dup3\n        /* \"#utility.yul\":3556:3632   */\n      tag_51\n      jump\t// in\n    tag_95:\n        /* \"#utility.yul\":3648:3746   */\n      tag_96\n        /* \"#utility.yul\":3739:3745   */\n      dup2\n        /* \"#utility.yul\":3734:3737   */\n      dup6\n        /* \"#utility.yul\":3648:3746   */\n      tag_52\n      jump\t// in\n    tag_96:\n        /* \"#utility.yul\":3641:3746   */\n      swap4\n      pop\n        /* \"#utility.yul\":3770:3848   */\n      tag_97\n        /* \"#utility.yul\":3842:3847   */\n      dup4\n        /* \"#utility.yul\":3770:3848   */\n      tag_53\n      jump\t// in\n    tag_97:\n        /* \"#utility.yul\":3871:3878   */\n      dup1\n        /* \"#utility.yul\":3902:3903   */\n      0x00\n        /* \"#utility.yul\":3887:4237   */\n    tag_98:\n        /* \"#utility.yul\":3912:3918   */\n      dup4\n        /* \"#utility.yul\":3909:3910   */\n      dup2\n        /* \"#utility.yul\":3906:3919   */\n      lt\n        /* \"#utility.yul\":3887:4237   */\n      iszero\n      tag_100\n      jumpi\n        /* \"#utility.yul\":3988:3994   */\n      dup2\n        /* \"#utility.yul\":3982:3995   */\n      mload\n        /* \"#utility.yul\":4015:4122   */\n      tag_101\n        /* \"#utility.yul\":4118:4121   */\n      dup9\n        /* \"#utility.yul\":4103:4116   */\n      dup3\n        /* \"#utility.yul\":4015:4122   */\n      tag_56\n      jump\t// in\n    tag_101:\n        /* \"#utility.yul\":4008:4122   */\n      swap8\n      pop\n        /* \"#utility.yul\":4145:4227   */\n      tag_102\n        /* \"#utility.yul\":4220:4226   */\n      dup4\n        /* \"#utility.yul\":4145:4227   */\n      tag_57\n      jump\t// in\n    tag_102:\n        /* \"#utility.yul\":4135:4227   */\n      swap3\n      pop\n        /* \"#utility.yul\":3947:4237   */\n      pop\n        /* \"#utility.yul\":3934:3935   */\n      0x01\n        /* \"#utility.yul\":3931:3932   */\n      dup2\n        /* \"#utility.yul\":3927:3936   */\n      add\n        /* \"#utility.yul\":3922:3936   */\n      swap1\n      pop\n        /* \"#utility.yul\":3887:4237   */\n      jump(tag_98)\n    tag_100:\n        /* \"#utility.yul\":3891:3905   */\n      pop\n        /* \"#utility.yul\":4253:4256   */\n      dup6\n        /* \"#utility.yul\":4246:4256   */\n      swap4\n      pop\n        /* \"#utility.yul\":3532:4262   */\n      pop\n      pop\n      pop\n        /* \"#utility.yul\":3374:4262   */\n      swap3\n      swap2\n      pop\n      pop\n      jump\t// out\n        /* \"#utility.yul\":4342:5044   */\n    tag_59:\n        /* \"#utility.yul\":4473:4476   */\n      0x00\n        /* \"#utility.yul\":4509:4513   */\n      0x40\n        /* \"#utility.yul\":4504:4507   */\n      dup4\n        /* \"#utility.yul\":4500:4514   */\n      add\n        /* \"#utility.yul\":4604:4608   */\n      0x00\n        /* \"#utility.yul\":4597:4602   */\n      dup4\n        /* \"#utility.yul\":4593:4609   */\n      add\n        /* \"#utility.yul\":4587:4610   */\n      mload\n        /* \"#utility.yul\":4623:4686   */\n      tag_104\n        /* \"#utility.yul\":4680:4684   */\n      0x00\n        /* \"#utility.yul\":4675:4678   */\n      dup7\n        /* \"#utility.yul\":4671:4685   */\n      add\n        /* \"#utility.yul\":4657:4669   */\n      dup3\n        /* \"#utility.yul\":4623:4686   */\n      tag_50\n      jump\t// in\n    tag_104:\n        /* \"#utility.yul\":4524:4696   */\n      pop\n        /* \"#utility.yul\":4780:4784   */\n      0x20\n        /* \"#utility.yul\":4773:4778   */\n      dup4\n        /* \"#utility.yul\":4769:4785   */\n      add\n        /* \"#utility.yul\":4763:4786   */\n      mload\n        /* \"#utility.yul\":4833:4836   */\n      dup5\n        /* \"#utility.yul\":4827:4831   */\n      dup3\n        /* \"#utility.yul\":4823:4837   */\n      sub\n        /* \"#utility.yul\":4816:4820   */\n      0x20\n        /* \"#utility.yul\":4811:4814   */\n      dup7\n        /* \"#utility.yul\":4807:4821   */\n      add\n        /* \"#utility.yul\":4800:4838   */\n      mstore\n        /* \"#utility.yul\":4859:5006   */\n      tag_105\n        /* \"#utility.yul\":5001:5005   */\n      dup3\n        /* \"#utility.yul\":4987:4999   */\n      dup3\n        /* \"#utility.yul\":4859:5006   */\n      tag_58\n      jump\t// in\n    tag_105:\n        /* \"#utility.yul\":4851:5006   */\n      swap2\n      pop\n        /* \"#utility.yul\":4706:5017   */\n      pop\n        /* \"#utility.yul\":5034:5038   */\n      dup1\n        /* \"#utility.yul\":5027:5038   */\n      swap2\n      pop\n        /* \"#utility.yul\":4478:5044   */\n      pop\n        /* \"#utility.yul\":4342:5044   */\n      swap3\n      swap2\n      pop\n      pop\n      jump\t// out\n        /* \"#utility.yul\":5050:5447   */\n    tag_9:\n        /* \"#utility.yul\":5205:5209   */\n      0x00\n        /* \"#utility.yul\":5243:5245   */\n      0x20\n        /* \"#utility.yul\":5232:5241   */\n      dup3\n        /* \"#utility.yul\":5228:5246   */\n      add\n        /* \"#utility.yul\":5220:5246   */\n      swap1\n      pop\n        /* \"#utility.yul\":5292:5301   */\n      dup2\n        /* \"#utility.yul\":5286:5290   */\n      dup2\n        /* \"#utility.yul\":5282:5302   */\n      sub\n        /* \"#utility.yul\":5278:5279   */\n      0x00\n        /* \"#utility.yul\":5267:5276   */\n      dup4\n        /* \"#utility.yul\":5263:5280   */\n      add\n        /* \"#utility.yul\":5256:5303   */\n      mstore\n        /* \"#utility.yul\":5320:5440   */\n      tag_107\n        /* \"#utility.yul\":5435:5439   */\n      dup2\n        /* \"#utility.yul\":5426:5432   */\n      dup5\n        /* \"#utility.yul\":5320:5440   */\n      tag_59\n      jump\t// in\n    tag_107:\n        /* \"#utility.yul\":5312:5440   */\n      swap1\n      pop\n        /* \"#utility.yul\":5050:5447   */\n      swap3\n      swap2\n      pop\n      pop\n      jump\t// out\n        /* \"#utility.yul\":5453:5633   */\n    tag_15:\n        /* \"#utility.yul\":5501:5578   */\n      0x4e487b7100000000000000000000000000000000000000000000000000000000\n        /* \"#utility.yul\":5498:5499   */\n      0x00\n        /* \"#utility.yul\":5491:5579   */\n      mstore\n        /* \"#utility.yul\":5598:5602   */\n      0x32\n        /* \"#utility.yul\":5595:5596   */\n      0x04\n        /* \"#utility.yul\":5588:5603   */\n      mstore\n        /* \"#utility.yul\":5622:5626   */\n      0x24\n        /* \"#utility.yul\":5619:5620   */\n      0x00\n        /* \"#utility.yul\":5612:5627   */\n      revert\n        /* \"#utility.yul\":5639:5819   */\n    tag_60:\n        /* \"#utility.yul\":5687:5764   */\n      0x4e487b7100000000000000000000000000000000000000000000000000000000\n        /* \"#utility.yul\":5684:5685   */\n      0x00\n        /* \"#utility.yul\":5677:5765   */\n      mstore\n        /* \"#utility.yul\":5784:5788   */\n      0x11\n        /* \"#utility.yul\":5781:5782   */\n      0x04\n        /* \"#utility.yul\":5774:5789   */\n      mstore\n        /* \"#utility.yul\":5808:5812   */\n      0x24\n        /* \"#utility.yul\":5805:5806   */\n      0x00\n        /* \"#utility.yul\":5798:5813   */\n      revert\n        /* \"#utility.yul\":5825:6130   */\n    tag_32:\n        /* \"#utility.yul\":5865:5868   */\n      0x00\n        /* \"#utility.yul\":5884:5904   */\n      tag_111\n        /* \"#utility.yul\":5902:5903   */\n      dup3\n        /* \"#utility.yul\":5884:5904   */\n      tag_49\n      jump\t// in\n    tag_111:\n        /* \"#utility.yul\":5879:5904   */\n      swap2\n      pop\n        /* \"#utility.yul\":5918:5938   */\n      tag_112\n        /* \"#utility.yul\":5936:5937   */\n      dup4\n        /* \"#utility.yul\":5918:5938   */\n      tag_49\n      jump\t// in\n    tag_112:\n        /* \"#utility.yul\":5913:5938   */\n      swap3\n      pop\n        /* \"#utility.yul\":6072:6073   */\n      dup3\n        /* \"#utility.yul\":6004:6070   */\n      0xffffffffffffffffffffffffffffffffffffffffffffffffffffffffffffffff\n        /* \"#utility.yul\":6000:6074   */\n      sub\n        /* \"#utility.yul\":5997:5998   */\n      dup3\n        /* \"#utility.yul\":5994:6075   */\n      gt\n        /* \"#utility.yul\":5991:6098   */\n      iszero\n      tag_113\n      jumpi\n        /* \"#utility.yul\":6078:6096   */\n      tag_114\n      tag_60\n      jump\t// in\n    tag_114:\n        /* \"#utility.yul\":5991:6098   */\n    tag_113:\n        /* \"#utility.yul\":6122:6123   */\n      dup3\n        /* \"#utility.yul\":6119:6120   */\n      dup3\n        /* \"#utility.yul\":6115:6124   */\n      add\n        /* \"#utility.yul\":6108:6124   */\n      swap1\n      pop\n        /* \"#utility.yul\":5825:6130   */\n      swap3\n      swap2\n      pop\n      pop\n      jump\t// out\n        /* \"#utility.yul\":6136:6327   */\n    tag_36:\n        /* \"#utility.yul\":6176:6180   */\n      0x00\n        /* \"#utility.yul\":6196:6216   */\n      tag_116\n        /* \"#utility.yul\":6214:6215   */\n      dup3\n        /* \"#utility.yul\":6196:6216   */\n      tag_49\n      jump\t// in\n    tag_116:\n        /* \"#utility.yul\":6191:6216   */\n      swap2\n      pop\n        /* \"#utility.yul\":6230:6250   */\n      tag_117\n        /* \"#utility.yul\":6248:6249   */\n      dup4\n        /* \"#utility.yul\":6230:6250   */\n      tag_49\n      jump\t// in\n    tag_117:\n        /* \"#utility.yul\":6225:6250   */\n      swap3\n      pop\n        /* \"#utility.yul\":6269:6270   */\n      dup3\n        /* \"#utility.yul\":6266:6267   */\n      dup3\n        /* \"#utility.yul\":6263:6271   */\n      lt\n        /* \"#utility.yul\":6260:6294   */\n      iszero\n      tag_118\n      jumpi\n        /* \"#utility.yul\":6274:6292   */\n      tag_119\n      tag_60\n      jump\t// in\n    tag_119:\n        /* \"#utility.yul\":6260:6294   */\n    tag_118:\n        /* \"#utility.yul\":6319:6320   */\n      dup3\n        /* \"#utility.yul\":6316:6317   */\n      dup3\n        /* \"#utility.yul\":6312:6321   */\n      sub\n        /* \"#utility.yul\":6304:6321   */\n      swap1\n      pop\n        /* \"#utility.yul\":6136:6327   */\n      swap3\n      swap2\n      pop\n      pop\n      jump\t// out\n        /* \"#utility.yul\":6333:6513   */\n    tag_61:\n        /* \"#utility.yul\":6381:6458   */\n      0x4e487b7100000000000000000000000000000000000000000000000000000000\n        /* \"#utility.yul\":6378:6379   */\n      0x00\n        /* \"#utility.yul\":6371:6459   */\n      mstore\n        /* \"#utility.yul\":6478:6482   */\n      0x12\n        /* \"#utility.yul\":6475:6476   */\n      0x04\n        /* \"#utility.yul\":6468:6483   */\n      mstore\n        /* \"#utility.yul\":6502:6506   */\n      0x24\n        /* \"#utility.yul\":6499:6500   */\n      0x00\n        /* \"#utility.yul\":6492:6507   */\n      revert\n        /* \"#utility.yul\":6519:6704   */\n    tag_38:\n        /* \"#utility.yul\":6559:6560   */\n      0x00\n        /* \"#utility.yul\":6576:6596   */\n      tag_122\n        /* \"#utility.yul\":6594:6595   */\n      dup3\n        /* \"#utility.yul\":6576:6596   */\n      tag_49\n      jump\t// in\n    tag_122:\n        /* \"#utility.yul\":6571:6596   */\n      swap2\n      pop\n        /* \"#utility.yul\":6610:6630   */\n      tag_123\n        /* \"#utility.yul\":6628:6629   */\n      dup4\n        /* \"#utility.yul\":6610:6630   */\n      tag_49\n      jump\t// in\n    tag_123:\n        /* \"#utility.yul\":6605:6630   */\n      swap3\n      pop\n        /* \"#utility.yul\":6649:6650   */\n      dup3\n        /* \"#utility.yul\":6639:6674   */\n      tag_124\n      jumpi\n        /* \"#utility.yul\":6654:6672   */\n      tag_125\n      tag_61\n      jump\t// in\n    tag_125:\n        /* \"#utility.yul\":6639:6674   */\n    tag_124:\n        /* \"#utility.yul\":6696:6697   */\n      dup3\n        /* \"#utility.yul\":6693:6694   */\n      dup3\n        /* \"#utility.yul\":6689:6698   */\n      div\n        /* \"#utility.yul\":6684:6698   */\n      swap1\n      pop\n        /* \"#utility.yul\":6519:6704   */\n      swap3\n      swap2\n      pop\n      pop\n      jump\t// out\n        /* \"#utility.yul\":6710:7058   */\n    tag_40:\n        /* \"#utility.yul\":6750:6757   */\n      0x00\n        /* \"#utility.yul\":6773:6793   */\n      tag_127\n        /* \"#utility.yul\":6791:6792   */\n      dup3\n        /* \"#utility.yul\":6773:6793   */\n      tag_49\n      jump\t// in\n    tag_127:\n        /* \"#utility.yul\":6768:6793   */\n      swap2\n      pop\n        /* \"#utility.yul\":6807:6827   */\n      tag_128\n        /* \"#utility.yul\":6825:6826   */\n      dup4\n        /* \"#utility.yul\":6807:6827   */\n      tag_49\n      jump\t// in\n    tag_128:\n        /* \"#utility.yul\":6802:6827   */\n      swap3\n      pop\n        /* \"#utility.yul\":6995:6996   */\n      dup2\n        /* \"#utility.yul\":6927:6993   */\n      0xffffffffffffffffffffffffffffffffffffffffffffffffffffffffffffffff\n        /* \"#utility.yul\":6923:6997   */\n      div\n        /* \"#utility.yul\":6920:6921   */\n      dup4\n        /* \"#utility.yul\":6917:6998   */\n      gt\n        /* \"#utility.yul\":6912:6913   */\n      dup3\n        /* \"#utility.yul\":6905:6914   */\n      iszero\n        /* \"#utility.yul\":6898:6915   */\n      iszero\n        /* \"#utility.yul\":6894:6999   */\n      and\n        /* \"#utility.yul\":6891:7022   */\n      iszero\n      tag_129\n      jumpi\n        /* \"#utility.yul\":7002:7020   */\n      tag_130\n      tag_60\n      jump\t// in\n    tag_130:\n        /* \"#utility.yul\":6891:7022   */\n    tag_129:\n        /* \"#utility.yul\":7050:7051   */\n      dup3\n        /* \"#utility.yul\":7047:7048   */\n      dup3\n        /* \"#utility.yul\":7043:7052   */\n      mul\n        /* \"#utility.yul\":7032:7052   */\n      swap1\n      pop\n        /* \"#utility.yul\":6710:7058   */\n      swap3\n      swap2\n      pop\n      pop\n      jump\t// out\n\n    auxdata: 0xa2646970667358221220ae1e42ed3af7b6d60dcda209f6f1a186ba6857967c3a5bc59adf78f34ec8b99364736f6c634300080f0033\n}\n",
				"bytecode": {
					"linkReferences": {},
					"object": "60806040526305f5e10060025534801561001857600080fd5b506000600181600181540180825580915050039060005260206000209050506106bc806100466000396000f3fe608060405234801561001057600080fd5b506004361061002b5760003560e01c8063e73e14bf14610030575b600080fd5b61004a6004803603810190610045919061032c565b610060565b60405161005791906104c2565b60405180910390f35b6100686102af565b6000806040518060400160405280600081526020016000600160008873ffffffffffffffffffffffffffffffffffffffff1673ffffffffffffffffffffffffffffffffffffffff16815260200190815260200160002054815481106100d0576100cf6104e4565b5b9060005260206000209060020201600101805480602002602001604051908101604052809291908181526020016000905b828210156101a757838290600052602060002090600402016040518060800160405290816000820160009054906101000a900473ffffffffffffffffffffffffffffffffffffffff1673ffffffffffffffffffffffffffffffffffffffff1673ffffffffffffffffffffffffffffffffffffffff168152602001600182015481526020016002820154815260200160038201548152505081526020019060010190610101565b50505050815250905060005b8160200151518110156102585760006101e9836020015183815181106101dc576101db6104e4565b5b602002602001015161026d565b90508083602001518381518110610203576102026104e4565b5b602002602001015160600181815250508260200151828151811061022a576102296104e4565b5b602002602001015160200151846102419190610542565b9350506001816102519190610542565b90506101b3565b50818160000181815250508092505050919050565b60006002548260200151610e1084604001514261028a9190610598565b61029491906105fb565b61029e919061062c565b6102a891906105fb565b9050919050565b604051806040016040528060008152602001606081525090565b600080fd5b600073ffffffffffffffffffffffffffffffffffffffff82169050919050565b60006102f9826102ce565b9050919050565b610309816102ee565b811461031457600080fd5b50565b60008135905061032681610300565b92915050565b600060208284031215610342576103416102c9565b5b600061035084828501610317565b91505092915050565b6000819050919050565b61036c81610359565b82525050565b600081519050919050565b600082825260208201905092915050565b6000819050602082019050919050565b6103a7816102ee565b82525050565b6080820160008201516103c3600085018261039e565b5060208201516103d66020850182610363565b5060408201516103e96040850182610363565b5060608201516103fc6060850182610363565b50505050565b600061040e83836103ad565b60808301905092915050565b6000602082019050919050565b600061043282610372565b61043c818561037d565b93506104478361038e565b8060005b8381101561047857815161045f8882610402565b975061046a8361041a565b92505060018101905061044b565b5085935050505092915050565b600060408301600083015161049d6000860182610363565b50602083015184820360208601526104b58282610427565b9150508091505092915050565b600060208201905081810360008301526104dc8184610485565b905092915050565b7f4e487b7100000000000000000000000000000000000000000000000000000000600052603260045260246000fd5b7f4e487b7100000000000000000000000000000000000000000000000000000000600052601160045260246000fd5b600061054d82610359565b915061055883610359565b9250827fffffffffffffffffffffffffffffffffffffffffffffffffffffffffffffffff0382111561058d5761058c610513565b5b828201905092915050565b60006105a382610359565b91506105ae83610359565b9250828210156105c1576105c0610513565b5b828203905092915050565b7f4e487b7100000000000000000000000000000000000000000000000000000000600052601260045260246000fd5b600061060682610359565b915061061183610359565b925082610621576106206105cc565b5b828204905092915050565b600061063782610359565b915061064283610359565b9250817fffffffffffffffffffffffffffffffffffffffffffffffffffffffffffffffff048311821515161561067b5761067a610513565b5b82820290509291505056fea2646970667358221220ae1e42ed3af7b6d60dcda209f6f1a186ba6857967c3a5bc59adf78f34ec8b99364736f6c634300080f0033",
					"opcodes": "PUSH1 0x80 PUSH1 0x40 MSTORE PUSH4 0x5F5E100 PUSH1 0x2 SSTORE CALLVALUE DUP1 ISZERO PUSH2 0x18 JUMPI PUSH1 0x0 DUP1 REVERT JUMPDEST POP PUSH1 0x0 PUSH1 0x1 DUP2 PUSH1 0x1 DUP2 SLOAD ADD DUP1 DUP3 SSTORE DUP1 SWAP2 POP POP SUB SWAP1 PUSH1 0x0 MSTORE PUSH1 0x20 PUSH1 0x0 KECCAK256 SWAP1 POP POP PUSH2 0x6BC DUP1 PUSH2 0x46 PUSH1 0x0 CODECOPY PUSH1 0x0 RETURN INVALID PUSH1 0x80 PUSH1 0x40 MSTORE CALLVALUE DUP1 ISZERO PUSH2 0x10 JUMPI PUSH1 0x0 DUP1 REVERT JUMPDEST POP PUSH1 0x4 CALLDATASIZE LT PUSH2 0x2B JUMPI PUSH1 0x0 CALLDATALOAD PUSH1 0xE0 SHR DUP1 PUSH4 0xE73E14BF EQ PUSH2 0x30 JUMPI JUMPDEST PUSH1 0x0 DUP1 REVERT JUMPDEST PUSH2 0x4A PUSH1 0x4 DUP1 CALLDATASIZE SUB DUP2 ADD SWAP1 PUSH2 0x45 SWAP2 SWAP1 PUSH2 0x32C JUMP JUMPDEST PUSH2 0x60 JUMP JUMPDEST PUSH1 0x40 MLOAD PUSH2 0x57 SWAP2 SWAP1 PUSH2 0x4C2 JUMP JUMPDEST PUSH1 0x40 MLOAD DUP1 SWAP2 SUB SWAP1 RETURN JUMPDEST PUSH2 0x68 PUSH2 0x2AF JUMP JUMPDEST PUSH1 0x0 DUP1 PUSH1 0x40 MLOAD DUP1 PUSH1 0x40 ADD PUSH1 0x40 MSTORE DUP1 PUSH1 0x0 DUP2 MSTORE PUSH1 0x20 ADD PUSH1 0x0 PUSH1 0x1 PUSH1 0x0 DUP9 PUSH20 0xFFFFFFFFFFFFFFFFFFFFFFFFFFFFFFFFFFFFFFFF AND PUSH20 0xFFFFFFFFFFFFFFFFFFFFFFFFFFFFFFFFFFFFFFFF AND DUP2 MSTORE PUSH1 0x20 ADD SWAP1 DUP2 MSTORE PUSH1 0x20 ADD PUSH1 0x0 KECCAK256 SLOAD DUP2 SLOAD DUP2 LT PUSH2 0xD0 JUMPI PUSH2 0xCF PUSH2 0x4E4 JUMP JUMPDEST JUMPDEST SWAP1 PUSH1 0x0 MSTORE PUSH1 0x20 PUSH1 0x0 KECCAK256 SWAP1 PUSH1 0x2 MUL ADD PUSH1 0x1 ADD DUP1 SLOAD DUP1 PUSH1 0x20 MUL PUSH1 0x20 ADD PUSH1 0x40 MLOAD SWAP1 DUP2 ADD PUSH1 0x40 MSTORE DUP1 SWAP3 SWAP2 SWAP1 DUP2 DUP2 MSTORE PUSH1 0x20 ADD PUSH1 0x0 SWAP1 JUMPDEST DUP3 DUP3 LT ISZERO PUSH2 0x1A7 JUMPI DUP4 DUP3 SWAP1 PUSH1 0x0 MSTORE PUSH1 0x20 PUSH1 0x0 KECCAK256 SWAP1 PUSH1 0x4 MUL ADD PUSH1 0x40 MLOAD DUP1 PUSH1 0x80 ADD PUSH1 0x40 MSTORE SWAP1 DUP2 PUSH1 0x0 DUP3 ADD PUSH1 0x0 SWAP1 SLOAD SWAP1 PUSH2 0x100 EXP SWAP1 DIV PUSH20 0xFFFFFFFFFFFFFFFFFFFFFFFFFFFFFFFFFFFFFFFF AND PUSH20 0xFFFFFFFFFFFFFFFFFFFFFFFFFFFFFFFFFFFFFFFF AND PUSH20 0xFFFFFFFFFFFFFFFFFFFFFFFFFFFFFFFFFFFFFFFF AND DUP2 MSTORE PUSH1 0x20 ADD PUSH1 0x1 DUP3 ADD SLOAD DUP2 MSTORE PUSH1 0x20 ADD PUSH1 0x2 DUP3 ADD SLOAD DUP2 MSTORE PUSH1 0x20 ADD PUSH1 0x3 DUP3 ADD SLOAD DUP2 MSTORE POP POP DUP2 MSTORE PUSH1 0x20 ADD SWAP1 PUSH1 0x1 ADD SWAP1 PUSH2 0x101 JUMP JUMPDEST POP POP POP POP DUP2 MSTORE POP SWAP1 POP PUSH1 0x0 JUMPDEST DUP2 PUSH1 0x20 ADD MLOAD MLOAD DUP2 LT ISZERO PUSH2 0x258 JUMPI PUSH1 0x0 PUSH2 0x1E9 DUP4 PUSH1 0x20 ADD MLOAD DUP4 DUP2 MLOAD DUP2 LT PUSH2 0x1DC JUMPI PUSH2 0x1DB PUSH2 0x4E4 JUMP JUMPDEST JUMPDEST PUSH1 0x20 MUL PUSH1 0x20 ADD ADD MLOAD PUSH2 0x26D JUMP JUMPDEST SWAP1 POP DUP1 DUP4 PUSH1 0x20 ADD MLOAD DUP4 DUP2 MLOAD DUP2 LT PUSH2 0x203 JUMPI PUSH2 0x202 PUSH2 0x4E4 JUMP JUMPDEST JUMPDEST PUSH1 0x20 MUL PUSH1 0x20 ADD ADD MLOAD PUSH1 0x60 ADD DUP2 DUP2 MSTORE POP POP DUP3 PUSH1 0x20 ADD MLOAD DUP3 DUP2 MLOAD DUP2 LT PUSH2 0x22A JUMPI PUSH2 0x229 PUSH2 0x4E4 JUMP JUMPDEST JUMPDEST PUSH1 0x20 MUL PUSH1 0x20 ADD ADD MLOAD PUSH1 0x20 ADD MLOAD DUP5 PUSH2 0x241 SWAP2 SWAP1 PUSH2 0x542 JUMP JUMPDEST SWAP4 POP POP PUSH1 0x1 DUP2 PUSH2 0x251 SWAP2 SWAP1 PUSH2 0x542 JUMP JUMPDEST SWAP1 POP PUSH2 0x1B3 JUMP JUMPDEST POP DUP2 DUP2 PUSH1 0x0 ADD DUP2 DUP2 MSTORE POP POP DUP1 SWAP3 POP POP POP SWAP2 SWAP1 POP JUMP JUMPDEST PUSH1 0x0 PUSH1 0x2 SLOAD DUP3 PUSH1 0x20 ADD MLOAD PUSH2 0xE10 DUP5 PUSH1 0x40 ADD MLOAD TIMESTAMP PUSH2 0x28A SWAP2 SWAP1 PUSH2 0x598 JUMP JUMPDEST PUSH2 0x294 SWAP2 SWAP1 PUSH2 0x5FB JUMP JUMPDEST PUSH2 0x29E SWAP2 SWAP1 PUSH2 0x62C JUMP JUMPDEST PUSH2 0x2A8 SWAP2 SWAP1 PUSH2 0x5FB JUMP JUMPDEST SWAP1 POP SWAP2 SWAP1 POP JUMP JUMPDEST PUSH1 0x40 MLOAD DUP1 PUSH1 0x40 ADD PUSH1 0x40 MSTORE DUP1 PUSH1 0x0 DUP2 MSTORE PUSH1 0x20 ADD PUSH1 0x60 DUP2 MSTORE POP SWAP1 JUMP JUMPDEST PUSH1 0x0 DUP1 REVERT JUMPDEST PUSH1 0x0 PUSH20 0xFFFFFFFFFFFFFFFFFFFFFFFFFFFFFFFFFFFFFFFF DUP3 AND SWAP1 POP SWAP2 SWAP1 POP JUMP JUMPDEST PUSH1 0x0 PUSH2 0x2F9 DUP3 PUSH2 0x2CE JUMP JUMPDEST SWAP1 POP SWAP2 SWAP1 POP JUMP JUMPDEST PUSH2 0x309 DUP2 PUSH2 0x2EE JUMP JUMPDEST DUP2 EQ PUSH2 0x314 JUMPI PUSH1 0x0 DUP1 REVERT JUMPDEST POP JUMP JUMPDEST PUSH1 0x0 DUP2 CALLDATALOAD SWAP1 POP PUSH2 0x326 DUP2 PUSH2 0x300 JUMP JUMPDEST SWAP3 SWAP2 POP POP JUMP JUMPDEST PUSH1 0x0 PUSH1 0x20 DUP3 DUP5 SUB SLT ISZERO PUSH2 0x342 JUMPI PUSH2 0x341 PUSH2 0x2C9 JUMP JUMPDEST JUMPDEST PUSH1 0x0 PUSH2 0x350 DUP5 DUP3 DUP6 ADD PUSH2 0x317 JUMP JUMPDEST SWAP2 POP POP SWAP3 SWAP2 POP POP JUMP JUMPDEST PUSH1 0x0 DUP2 SWAP1 POP SWAP2 SWAP1 POP JUMP JUMPDEST PUSH2 0x36C DUP2 PUSH2 0x359 JUMP JUMPDEST DUP3 MSTORE POP POP JUMP JUMPDEST PUSH1 0x0 DUP2 MLOAD SWAP1 POP SWAP2 SWAP1 POP JUMP JUMPDEST PUSH1 0x0 DUP3 DUP3 MSTORE PUSH1 0x20 DUP3 ADD SWAP1 POP SWAP3 SWAP2 POP POP JUMP JUMPDEST PUSH1 0x0 DUP2 SWAP1 POP PUSH1 0x20 DUP3 ADD SWAP1 POP SWAP2 SWAP1 POP JUMP JUMPDEST PUSH2 0x3A7 DUP2 PUSH2 0x2EE JUMP JUMPDEST DUP3 MSTORE POP POP JUMP JUMPDEST PUSH1 0x80 DUP3 ADD PUSH1 0x0 DUP3 ADD MLOAD PUSH2 0x3C3 PUSH1 0x0 DUP6 ADD DUP3 PUSH2 0x39E JUMP JUMPDEST POP PUSH1 0x20 DUP3 ADD MLOAD PUSH2 0x3D6 PUSH1 0x20 DUP6 ADD DUP3 PUSH2 0x363 JUMP JUMPDEST POP PUSH1 0x40 DUP3 ADD MLOAD PUSH2 0x3E9 PUSH1 0x40 DUP6 ADD DUP3 PUSH2 0x363 JUMP JUMPDEST POP PUSH1 0x60 DUP3 ADD MLOAD PUSH2 0x3FC PUSH1 0x60 DUP6 ADD DUP3 PUSH2 0x363 JUMP JUMPDEST POP POP POP POP JUMP JUMPDEST PUSH1 0x0 PUSH2 0x40E DUP4 DUP4 PUSH2 0x3AD JUMP JUMPDEST PUSH1 0x80 DUP4 ADD SWAP1 POP SWAP3 SWAP2 POP POP JUMP JUMPDEST PUSH1 0x0 PUSH1 0x20 DUP3 ADD SWAP1 POP SWAP2 SWAP1 POP JUMP JUMPDEST PUSH1 0x0 PUSH2 0x432 DUP3 PUSH2 0x372 JUMP JUMPDEST PUSH2 0x43C DUP2 DUP6 PUSH2 0x37D JUMP JUMPDEST SWAP4 POP PUSH2 0x447 DUP4 PUSH2 0x38E JUMP JUMPDEST DUP1 PUSH1 0x0 JUMPDEST DUP4 DUP2 LT ISZERO PUSH2 0x478 JUMPI DUP2 MLOAD PUSH2 0x45F DUP9 DUP3 PUSH2 0x402 JUMP JUMPDEST SWAP8 POP PUSH2 0x46A DUP4 PUSH2 0x41A JUMP JUMPDEST SWAP3 POP POP PUSH1 0x1 DUP2 ADD SWAP1 POP PUSH2 0x44B JUMP JUMPDEST POP DUP6 SWAP4 POP POP POP POP SWAP3 SWAP2 POP POP JUMP JUMPDEST PUSH1 0x0 PUSH1 0x40 DUP4 ADD PUSH1 0x0 DUP4 ADD MLOAD PUSH2 0x49D PUSH1 0x0 DUP7 ADD DUP3 PUSH2 0x363 JUMP JUMPDEST POP PUSH1 0x20 DUP4 ADD MLOAD DUP5 DUP3 SUB PUSH1 0x20 DUP7 ADD MSTORE PUSH2 0x4B5 DUP3 DUP3 PUSH2 0x427 JUMP JUMPDEST SWAP2 POP POP DUP1 SWAP2 POP POP SWAP3 SWAP2 POP POP JUMP JUMPDEST PUSH1 0x0 PUSH1 0x20 DUP3 ADD SWAP1 POP DUP2 DUP2 SUB PUSH1 0x0 DUP4 ADD MSTORE PUSH2 0x4DC DUP2 DUP5 PUSH2 0x485 JUMP JUMPDEST SWAP1 POP SWAP3 SWAP2 POP POP JUMP JUMPDEST PUSH32 0x4E487B7100000000000000000000000000000000000000000000000000000000 PUSH1 0x0 MSTORE PUSH1 0x32 PUSH1 0x4 MSTORE PUSH1 0x24 PUSH1 0x0 REVERT JUMPDEST PUSH32 0x4E487B7100000000000000000000000000000000000000000000000000000000 PUSH1 0x0 MSTORE PUSH1 0x11 PUSH1 0x4 MSTORE PUSH1 0x24 PUSH1 0x0 REVERT JUMPDEST PUSH1 0x0 PUSH2 0x54D DUP3 PUSH2 0x359 JUMP JUMPDEST SWAP2 POP PUSH2 0x558 DUP4 PUSH2 0x359 JUMP JUMPDEST SWAP3 POP DUP3 PUSH32 0xFFFFFFFFFFFFFFFFFFFFFFFFFFFFFFFFFFFFFFFFFFFFFFFFFFFFFFFFFFFFFFFF SUB DUP3 GT ISZERO PUSH2 0x58D JUMPI PUSH2 0x58C PUSH2 0x513 JUMP JUMPDEST JUMPDEST DUP3 DUP3 ADD SWAP1 POP SWAP3 SWAP2 POP POP JUMP JUMPDEST PUSH1 0x0 PUSH2 0x5A3 DUP3 PUSH2 0x359 JUMP JUMPDEST SWAP2 POP PUSH2 0x5AE DUP4 PUSH2 0x359 JUMP JUMPDEST SWAP3 POP DUP3 DUP3 LT ISZERO PUSH2 0x5C1 JUMPI PUSH2 0x5C0 PUSH2 0x513 JUMP JUMPDEST JUMPDEST DUP3 DUP3 SUB SWAP1 POP SWAP3 SWAP2 POP POP JUMP JUMPDEST PUSH32 0x4E487B7100000000000000000000000000000000000000000000000000000000 PUSH1 0x0 MSTORE PUSH1 0x12 PUSH1 0x4 MSTORE PUSH1 0x24 PUSH1 0x0 REVERT JUMPDEST PUSH1 0x0 PUSH2 0x606 DUP3 PUSH2 0x359 JUMP JUMPDEST SWAP2 POP PUSH2 0x611 DUP4 PUSH2 0x359 JUMP JUMPDEST SWAP3 POP DUP3 PUSH2 0x621 JUMPI PUSH2 0x620 PUSH2 0x5CC JUMP JUMPDEST JUMPDEST DUP3 DUP3 DIV SWAP1 POP SWAP3 SWAP2 POP POP JUMP JUMPDEST PUSH1 0x0 PUSH2 0x637 DUP3 PUSH2 0x359 JUMP JUMPDEST SWAP2 POP PUSH2 0x642 DUP4 PUSH2 0x359 JUMP JUMPDEST SWAP3 POP DUP2 PUSH32 0xFFFFFFFFFFFFFFFFFFFFFFFFFFFFFFFFFFFFFFFFFFFFFFFFFFFFFFFFFFFFFFFF DIV DUP4 GT DUP3 ISZERO ISZERO AND ISZERO PUSH2 0x67B JUMPI PUSH2 0x67A PUSH2 0x513 JUMP JUMPDEST JUMPDEST DUP3 DUP3 MUL SWAP1 POP SWAP3 SWAP2 POP POP JUMP INVALID LOG2 PUSH5 0x6970667358 0x22 SLT KECCAK256 0xAE 0x1E TIMESTAMP 0xED GASPRICE 0xF7 0xB6 0xD6 0xD 0xCD LOG2 MULMOD 0xF6 CALL LOG1 DUP7 0xBA PUSH9 0x57967C3A5BC59ADF78 RETURN 0x4E 0xC8 0xB9 SWAP4 PUSH5 0x736F6C6343 STOP ADDMOD 0xF STOP CALLER "
				},
				"gasEstimates": {
					"creation": {
						"codeDepositCost": "344800",
						"executionCost": "46781",
						"totalCost": "391581"
					},
					"external": {
						"hasStake(address)": "infinite"
					},
					"internal": {
						"_addStakeholder(address)": "infinite",
						"_stake(uint256)": "infinite",
						"_withdrawStake(uint256,uint256)": "infinite",
						"calculateStakeReward(struct Stakeable.Stake memory)": "infinite"
					}
				},
				"methodIdentifiers": {
					"hasStake(address)": "e73e14bf"
				}
			},
			"storageLayout": {
				"storage": [
					{
						"astId": 738,
						"contract": "contracts/Stakeable.sol:Stakeable",
						"label": "stakeholders",
						"offset": 0,
						"slot": "0",
						"type": "t_array(t_struct(Stakeholder)726_storage)dyn_storage"
					},
					{
						"astId": 743,
						"contract": "contracts/Stakeable.sol:Stakeable",
						"label": "stakes",
						"offset": 0,
						"slot": "1",
						"type": "t_mapping(t_address,t_uint256)"
					},
					{
						"astId": 758,
						"contract": "contracts/Stakeable.sol:Stakeable",
						"label": "rewardPerHour",
						"offset": 0,
						"slot": "2",
						"type": "t_uint256"
					}
				],
				"types": {
					"t_address": {
						"encoding": "inplace",
						"label": "address",
						"numberOfBytes": "20"
					},
					"t_array(t_struct(Stake)719_storage)dyn_storage": {
						"base": "t_struct(Stake)719_storage",
						"encoding": "dynamic_array",
						"label": "struct Stakeable.Stake[]",
						"numberOfBytes": "32"
					},
					"t_array(t_struct(Stakeholder)726_storage)dyn_storage": {
						"base": "t_struct(Stakeholder)726_storage",
						"encoding": "dynamic_array",
						"label": "struct Stakeable.Stakeholder[]",
						"numberOfBytes": "32"
					},
					"t_mapping(t_address,t_uint256)": {
						"encoding": "mapping",
						"key": "t_address",
						"label": "mapping(address => uint256)",
						"numberOfBytes": "32",
						"value": "t_uint256"
					},
					"t_struct(Stake)719_storage": {
						"encoding": "inplace",
						"label": "struct Stakeable.Stake",
						"members": [
							{
								"astId": 712,
								"contract": "contracts/Stakeable.sol:Stakeable",
								"label": "user",
								"offset": 0,
								"slot": "0",
								"type": "t_address"
							},
							{
								"astId": 714,
								"contract": "contracts/Stakeable.sol:Stakeable",
								"label": "amount",
								"offset": 0,
								"slot": "1",
								"type": "t_uint256"
							},
							{
								"astId": 716,
								"contract": "contracts/Stakeable.sol:Stakeable",
								"label": "since",
								"offset": 0,
								"slot": "2",
								"type": "t_uint256"
							},
							{
								"astId": 718,
								"contract": "contracts/Stakeable.sol:Stakeable",
								"label": "claimable",
								"offset": 0,
								"slot": "3",
								"type": "t_uint256"
							}
						],
						"numberOfBytes": "128"
					},
					"t_struct(Stakeholder)726_storage": {
						"encoding": "inplace",
						"label": "struct Stakeable.Stakeholder",
						"members": [
							{
								"astId": 721,
								"contract": "contracts/Stakeable.sol:Stakeable",
								"label": "user",
								"offset": 0,
								"slot": "0",
								"type": "t_address"
							},
							{
								"astId": 725,
								"contract": "contracts/Stakeable.sol:Stakeable",
								"label": "address_stakes",
								"offset": 0,
								"slot": "1",
								"type": "t_array(t_struct(Stake)719_storage)dyn_storage"
							}
						],
						"numberOfBytes": "64"
					},
					"t_uint256": {
						"encoding": "inplace",
						"label": "uint256",
						"numberOfBytes": "32"
					}
				}
			},
			"userdoc": {
				"events": {
					"Staked(address,uint256,uint256,uint256)": {
						"notice": "Staked event is triggered whenever a user stakes tokens, address is indexed to make it filterable"
					}
				},
				"kind": "user",
				"methods": {
					"constructor": {
						"notice": "Constructor since this contract is not ment to be used without inheritance push once to stakeholders for it to work proplerly"
					},
					"hasStake(address)": {
						"notice": "hasStake is used to check if a account has stakes and the total amount along with all the seperate stakes"
					}
				},
				"notice": "Stakeable is a contract who is ment to be inherited by other contract that wants Staking capabilities",
				"version": 1
			}
		}
	}
}