{
	"contracts/MetraToken.sol": {
		"Metra": {
			"abi": [
				{
					"inputs": [
						{
							"internalType": "string",
							"name": "token_name",
							"type": "string"
						},
						{
							"internalType": "string",
							"name": "short_symbol",
							"type": "string"
						},
						{
							"internalType": "uint8",
							"name": "token_decimals",
							"type": "uint8"
						},
						{
							"internalType": "uint256",
							"name": "token_totalSupply",
							"type": "uint256"
						}
					],
					"stateMutability": "nonpayable",
					"type": "constructor"
				},
				{
					"anonymous": false,
					"inputs": [
						{
							"indexed": true,
							"internalType": "address",
							"name": "owner",
							"type": "address"
						},
						{
							"indexed": true,
							"internalType": "address",
							"name": "spender",
							"type": "address"
						},
						{
							"indexed": false,
							"internalType": "uint256",
							"name": "value",
							"type": "uint256"
						}
					],
					"name": "Approval",
					"type": "event"
				},
				{
					"anonymous": false,
					"inputs": [
						{
							"indexed": true,
							"internalType": "address",
							"name": "previousOwner",
							"type": "address"
						},
						{
							"indexed": true,
							"internalType": "address",
							"name": "newOwner",
							"type": "address"
						}
					],
					"name": "OwnershipTransferred",
					"type": "event"
				},
				{
					"anonymous": false,
					"inputs": [
						{
							"indexed": true,
							"internalType": "address",
							"name": "user",
							"type": "address"
						},
						{
							"indexed": false,
							"internalType": "uint256",
							"name": "amount",
							"type": "uint256"
						},
						{
							"indexed": false,
							"internalType": "uint256",
							"name": "index",
							"type": "uint256"
						},
						{
							"indexed": false,
							"internalType": "uint256",
							"name": "timestamp",
							"type": "uint256"
						}
					],
					"name": "Staked",
					"type": "event"
				},
				{
					"anonymous": false,
					"inputs": [
						{
							"indexed": true,
							"internalType": "address",
							"name": "from",
							"type": "address"
						},
						{
							"indexed": true,
							"internalType": "address",
							"name": "to",
							"type": "address"
						},
						{
							"indexed": false,
							"internalType": "uint256",
							"name": "value",
							"type": "uint256"
						}
					],
					"name": "Transfer",
					"type": "event"
				},
				{
					"inputs": [
						{
							"internalType": "address",
							"name": "owner",
							"type": "address"
						},
						{
							"internalType": "address",
							"name": "spender",
							"type": "address"
						}
					],
					"name": "allowance",
					"outputs": [
						{
							"internalType": "uint256",
							"name": "",
							"type": "uint256"
						}
					],
					"stateMutability": "view",
					"type": "function"
				},
				{
					"inputs": [
						{
							"internalType": "address",
							"name": "spender",
							"type": "address"
						},
						{
							"internalType": "uint256",
							"name": "amount",
							"type": "uint256"
						}
					],
					"name": "approve",
					"outputs": [
						{
							"internalType": "bool",
							"name": "",
							"type": "bool"
						}
					],
					"stateMutability": "nonpayable",
					"type": "function"
				},
				{
					"inputs": [
						{
							"internalType": "address",
							"name": "account",
							"type": "address"
						}
					],
					"name": "balanceOf",
					"outputs": [
						{
							"internalType": "uint256",
							"name": "",
							"type": "uint256"
						}
					],
					"stateMutability": "view",
					"type": "function"
				},
				{
					"inputs": [
						{
							"internalType": "address",
							"name": "account",
							"type": "address"
						},
						{
							"internalType": "uint256",
							"name": "amount",
							"type": "uint256"
						}
					],
					"name": "burn",
					"outputs": [
						{
							"internalType": "bool",
							"name": "",
							"type": "bool"
						}
					],
					"stateMutability": "nonpayable",
					"type": "function"
				},
				{
					"inputs": [],
					"name": "decimals",
					"outputs": [
						{
							"internalType": "uint8",
							"name": "",
							"type": "uint8"
						}
					],
					"stateMutability": "pure",
					"type": "function"
				},
				{
					"inputs": [
						{
							"internalType": "address",
							"name": "spender",
							"type": "address"
						},
						{
							"internalType": "uint256",
							"name": "amount",
							"type": "uint256"
						}
					],
					"name": "decreaseAllowance",
					"outputs": [
						{
							"internalType": "bool",
							"name": "",
							"type": "bool"
						}
					],
					"stateMutability": "nonpayable",
					"type": "function"
				},
				{
					"inputs": [],
					"name": "getOwner",
					"outputs": [
						{
							"internalType": "address",
							"name": "",
							"type": "address"
						}
					],
					"stateMutability": "view",
					"type": "function"
				},
				{
					"inputs": [
						{
							"internalType": "address",
							"name": "_staker",
							"type": "address"
						}
					],
					"name": "hasStake",
					"outputs": [
						{
							"components": [
								{
									"internalType": "uint256",
									"name": "total_amount",
									"type": "uint256"
								},
								{
									"components": [
										{
											"internalType": "address",
											"name": "user",
											"type": "address"
										},
										{
											"internalType": "uint256",
											"name": "amount",
											"type": "uint256"
										},
										{
											"internalType": "uint256",
											"name": "since",
											"type": "uint256"
										},
										{
											"internalType": "uint256",
											"name": "claimable",
											"type": "uint256"
										}
									],
									"internalType": "struct Stakeable.Stake[]",
									"name": "stakes",
									"type": "tuple[]"
								}
							],
							"internalType": "struct Stakeable.StakingSummary",
							"name": "",
							"type": "tuple"
						}
					],
					"stateMutability": "view",
					"type": "function"
				},
				{
					"inputs": [
						{
							"internalType": "address",
							"name": "spender",
							"type": "address"
						},
						{
							"internalType": "uint256",
							"name": "amount",
							"type": "uint256"
						}
					],
					"name": "increaseAllowance",
					"outputs": [
						{
							"internalType": "bool",
							"name": "",
							"type": "bool"
						}
					],
					"stateMutability": "nonpayable",
					"type": "function"
				},
				{
					"inputs": [],
					"name": "name",
					"outputs": [
						{
							"internalType": "string",
							"name": "",
							"type": "string"
						}
					],
					"stateMutability": "pure",
					"type": "function"
				},
				{
					"inputs": [],
					"name": "owner",
					"outputs": [
						{
							"internalType": "address",
							"name": "",
							"type": "address"
						}
					],
					"stateMutability": "view",
					"type": "function"
				},
				{
					"inputs": [],
					"name": "renounceOwnership",
					"outputs": [],
					"stateMutability": "nonpayable",
					"type": "function"
				},
				{
					"inputs": [
						{
							"internalType": "uint256",
							"name": "_amount",
							"type": "uint256"
						}
					],
					"name": "stake",
					"outputs": [],
					"stateMutability": "nonpayable",
					"type": "function"
				},
				{
					"inputs": [],
					"name": "symbol",
					"outputs": [
						{
							"internalType": "string",
							"name": "",
							"type": "string"
						}
					],
					"stateMutability": "pure",
					"type": "function"
				},
				{
					"inputs": [],
					"name": "totalSupply",
					"outputs": [
						{
							"internalType": "uint256",
							"name": "",
							"type": "uint256"
						}
					],
					"stateMutability": "view",
					"type": "function"
				},
				{
					"inputs": [
						{
							"internalType": "address",
							"name": "recipient",
							"type": "address"
						},
						{
							"internalType": "uint256",
							"name": "amount",
							"type": "uint256"
						}
					],
					"name": "transfer",
					"outputs": [
						{
							"internalType": "bool",
							"name": "",
							"type": "bool"
						}
					],
					"stateMutability": "nonpayable",
					"type": "function"
				},
				{
					"inputs": [
						{
							"internalType": "address",
							"name": "spender",
							"type": "address"
						},
						{
							"internalType": "address",
							"name": "recipient",
							"type": "address"
						},
						{
							"internalType": "uint256",
							"name": "amount",
							"type": "uint256"
						}
					],
					"name": "transferFrom",
					"outputs": [
						{
							"internalType": "bool",
							"name": "",
							"type": "bool"
						}
					],
					"stateMutability": "nonpayable",
					"type": "function"
				},
				{
					"inputs": [
						{
							"internalType": "address",
							"name": "newOwner",
							"type": "address"
						}
					],
					"name": "transferOwnership",
					"outputs": [],
					"stateMutability": "nonpayable",
					"type": "function"
				},
				{
					"inputs": [
						{
							"internalType": "uint256",
							"name": "amount",
							"type": "uint256"
						},
						{
							"internalType": "uint256",
							"name": "stake_index",
							"type": "uint256"
						},
						{
							"internalType": "uint256",
							"name": "reward",
							"type": "uint256"
						}
					],
					"name": "withdrawStake",
					"outputs": [],
					"stateMutability": "nonpayable",
					"type": "function"
				}
			],
			"devdoc": {
				"kind": "dev",
				"methods": {},
				"version": 1
			},
			"evm": {
				"assembly": "    /* \"contracts/MetraToken.sol\":150:8950  contract Metra is Ownable, Stakeable{... */\n  mstore(0x40, 0x80)\n    /* \"contracts/Stakeable.sol\":2222:2231  100000000 */\n  0x05f5e100\n    /* \"contracts/Stakeable.sol\":2189:2231  uint256 internal rewardPerHour = 100000000 */\n  0x03\n  sstore\n    /* \"contracts/MetraToken.sol\":1559:1940  constructor(string memory token_name, string memory short_symbol, uint8 token_decimals, uint256 token_totalSupply){... */\n  callvalue\n  dup1\n  iszero\n  tag_1\n  jumpi\n  0x00\n  dup1\n  revert\ntag_1:\n  pop\n  mload(0x40)\n  sub(codesize, bytecodeSize)\n  dup1\n  bytecodeSize\n  dup4\n  codecopy\n  dup2\n  dup2\n  add\n  0x40\n  mstore\n  dup2\n  add\n  swap1\n  tag_2\n  swap2\n  swap1\n  tag_3\n  jump\t// in\ntag_2:\n    /* \"contracts/Ownable.sol\":965:975  msg.sender */\n  caller\n    /* \"contracts/Ownable.sol\":956:962  _owner */\n  0x00\n  dup1\n    /* \"contracts/Ownable.sol\":956:975  _owner = msg.sender */\n  0x0100\n  exp\n  dup2\n  sload\n  dup2\n  0xffffffffffffffffffffffffffffffffffffffff\n  mul\n  not\n  and\n  swap1\n  dup4\n  0xffffffffffffffffffffffffffffffffffffffff\n  and\n  mul\n  or\n  swap1\n  sstore\n  pop\n    /* \"contracts/Ownable.sol\":1023:1029  _owner */\n  0x00\n  dup1\n  sload\n  swap1\n  0x0100\n  exp\n  swap1\n  div\n  0xffffffffffffffffffffffffffffffffffffffff\n  and\n    /* \"contracts/Ownable.sol\":990:1030  OwnershipTransferred(address(0), _owner) */\n  0xffffffffffffffffffffffffffffffffffffffff\n  and\n    /* \"contracts/Ownable.sol\":1019:1020  0 */\n  0x00\n    /* \"contracts/Ownable.sol\":990:1030  OwnershipTransferred(address(0), _owner) */\n  0xffffffffffffffffffffffffffffffffffffffff\n  and\n  0x8be0079c531659141344cd1fd0a4f28419497f9722a3daafe3b4186f6b6457e0\n  mload(0x40)\n  mload(0x40)\n  dup1\n  swap2\n  sub\n  swap1\n  log3\n    /* \"contracts/Stakeable.sol\":463:475  stakeholders */\n  0x01\n    /* \"contracts/Stakeable.sol\":463:482  stakeholders.push() */\n  dup1\n  dup2\n  0x01\n  dup2\n  sload\n  add\n  dup1\n  dup3\n  sstore\n  dup1\n  swap2\n  pop\n  pop\n  sub\n  swap1\n  0x00\n  mstore\n  keccak256(0x00, 0x20)\n  swap1\n  pop\n  pop\n    /* \"contracts/MetraToken.sol\":1777:1789  _totalSupply */\n  sload(0x04)\n    /* \"contracts/MetraToken.sol\":1753:1762  _balances */\n  0x08\n    /* \"contracts/MetraToken.sol\":1753:1774  _balances[msg.sender] */\n  0x00\n    /* \"contracts/MetraToken.sol\":1763:1773  msg.sender */\n  caller\n    /* \"contracts/MetraToken.sol\":1753:1774  _balances[msg.sender] */\n  0xffffffffffffffffffffffffffffffffffffffff\n  and\n  0xffffffffffffffffffffffffffffffffffffffff\n  and\n  dup2\n  mstore\n  0x20\n  add\n  swap1\n  dup2\n  mstore\n  0x20\n  add\n  0x00\n  keccak256\n    /* \"contracts/MetraToken.sol\":1753:1789  _balances[msg.sender] = _totalSupply */\n  dup2\n  swap1\n  sstore\n  pop\n    /* \"contracts/MetraToken.sol\":1910:1920  msg.sender */\n  caller\n    /* \"contracts/MetraToken.sol\":1889:1935  Transfer(address(0), msg.sender, _totalSupply) */\n  0xffffffffffffffffffffffffffffffffffffffff\n  and\n    /* \"contracts/MetraToken.sol\":1906:1907  0 */\n  0x00\n    /* \"contracts/MetraToken.sol\":1889:1935  Transfer(address(0), msg.sender, _totalSupply) */\n  0xffffffffffffffffffffffffffffffffffffffff\n  and\n  0xddf252ad1be2c89b69c2b068fc378daa952ba7f163c4a11628f55a4df523b3ef\n    /* \"contracts/MetraToken.sol\":1922:1934  _totalSupply */\n  sload(0x04)\n    /* \"contracts/MetraToken.sol\":1889:1935  Transfer(address(0), msg.sender, _totalSupply) */\n  mload(0x40)\n  tag_11\n  swap2\n  swap1\n  tag_12\n  jump\t// in\ntag_11:\n  mload(0x40)\n  dup1\n  swap2\n  sub\n  swap1\n  log3\n    /* \"contracts/MetraToken.sol\":1559:1940  constructor(string memory token_name, string memory short_symbol, uint8 token_decimals, uint256 token_totalSupply){... */\n  pop\n  pop\n  pop\n  pop\n    /* \"contracts/MetraToken.sol\":150:8950  contract Metra is Ownable, Stakeable{... */\n  jump(tag_13)\n    /* \"#utility.yul\":7:82   */\ntag_14:\n    /* \"#utility.yul\":40:46   */\n  0x00\n    /* \"#utility.yul\":73:75   */\n  0x40\n    /* \"#utility.yul\":67:76   */\n  mload\n    /* \"#utility.yul\":57:76   */\n  swap1\n  pop\n    /* \"#utility.yul\":7:82   */\n  swap1\n  jump\t// out\n    /* \"#utility.yul\":88:205   */\ntag_15:\n    /* \"#utility.yul\":197:198   */\n  0x00\n    /* \"#utility.yul\":194:195   */\n  dup1\n    /* \"#utility.yul\":187:199   */\n  revert\n    /* \"#utility.yul\":211:328   */\ntag_16:\n    /* \"#utility.yul\":320:321   */\n  0x00\n    /* \"#utility.yul\":317:318   */\n  dup1\n    /* \"#utility.yul\":310:322   */\n  revert\n    /* \"#utility.yul\":334:451   */\ntag_17:\n    /* \"#utility.yul\":443:444   */\n  0x00\n    /* \"#utility.yul\":440:441   */\n  dup1\n    /* \"#utility.yul\":433:445   */\n  revert\n    /* \"#utility.yul\":457:574   */\ntag_18:\n    /* \"#utility.yul\":566:567   */\n  0x00\n    /* \"#utility.yul\":563:564   */\n  dup1\n    /* \"#utility.yul\":556:568   */\n  revert\n    /* \"#utility.yul\":580:682   */\ntag_19:\n    /* \"#utility.yul\":621:627   */\n  0x00\n    /* \"#utility.yul\":672:674   */\n  0x1f\n    /* \"#utility.yul\":668:675   */\n  not\n    /* \"#utility.yul\":663:665   */\n  0x1f\n    /* \"#utility.yul\":656:661   */\n  dup4\n    /* \"#utility.yul\":652:666   */\n  add\n    /* \"#utility.yul\":648:676   */\n  and\n    /* \"#utility.yul\":638:676   */\n  swap1\n  pop\n    /* \"#utility.yul\":580:682   */\n  swap2\n  swap1\n  pop\n  jump\t// out\n    /* \"#utility.yul\":688:868   */\ntag_20:\n    /* \"#utility.yul\":736:813   */\n  0x4e487b7100000000000000000000000000000000000000000000000000000000\n    /* \"#utility.yul\":733:734   */\n  0x00\n    /* \"#utility.yul\":726:814   */\n  mstore\n    /* \"#utility.yul\":833:837   */\n  0x41\n    /* \"#utility.yul\":830:831   */\n  0x04\n    /* \"#utility.yul\":823:838   */\n  mstore\n    /* \"#utility.yul\":857:861   */\n  0x24\n    /* \"#utility.yul\":854:855   */\n  0x00\n    /* \"#utility.yul\":847:862   */\n  revert\n    /* \"#utility.yul\":874:1155   */\ntag_21:\n    /* \"#utility.yul\":957:984   */\n  tag_43\n    /* \"#utility.yul\":979:983   */\n  dup3\n    /* \"#utility.yul\":957:984   */\n  tag_19\n  jump\t// in\ntag_43:\n    /* \"#utility.yul\":949:955   */\n  dup2\n    /* \"#utility.yul\":945:985   */\n  add\n    /* \"#utility.yul\":1087:1093   */\n  dup2\n    /* \"#utility.yul\":1075:1085   */\n  dup2\n    /* \"#utility.yul\":1072:1094   */\n  lt\n    /* \"#utility.yul\":1051:1069   */\n  0xffffffffffffffff\n    /* \"#utility.yul\":1039:1049   */\n  dup3\n    /* \"#utility.yul\":1036:1070   */\n  gt\n    /* \"#utility.yul\":1033:1095   */\n  or\n    /* \"#utility.yul\":1030:1118   */\n  iszero\n  tag_44\n  jumpi\n    /* \"#utility.yul\":1098:1116   */\n  tag_45\n  tag_20\n  jump\t// in\ntag_45:\n    /* \"#utility.yul\":1030:1118   */\ntag_44:\n    /* \"#utility.yul\":1138:1148   */\n  dup1\n    /* \"#utility.yul\":1134:1136   */\n  0x40\n    /* \"#utility.yul\":1127:1149   */\n  mstore\n    /* \"#utility.yul\":917:1155   */\n  pop\n    /* \"#utility.yul\":874:1155   */\n  pop\n  pop\n  jump\t// out\n    /* \"#utility.yul\":1161:1290   */\ntag_22:\n    /* \"#utility.yul\":1195:1201   */\n  0x00\n    /* \"#utility.yul\":1222:1242   */\n  tag_47\n  tag_14\n  jump\t// in\ntag_47:\n    /* \"#utility.yul\":1212:1242   */\n  swap1\n  pop\n    /* \"#utility.yul\":1251:1284   */\n  tag_48\n    /* \"#utility.yul\":1279:1283   */\n  dup3\n    /* \"#utility.yul\":1271:1277   */\n  dup3\n    /* \"#utility.yul\":1251:1284   */\n  tag_21\n  jump\t// in\ntag_48:\n    /* \"#utility.yul\":1161:1290   */\n  swap2\n  swap1\n  pop\n  jump\t// out\n    /* \"#utility.yul\":1296:1604   */\ntag_23:\n    /* \"#utility.yul\":1358:1362   */\n  0x00\n    /* \"#utility.yul\":1448:1466   */\n  0xffffffffffffffff\n    /* \"#utility.yul\":1440:1446   */\n  dup3\n    /* \"#utility.yul\":1437:1467   */\n  gt\n    /* \"#utility.yul\":1434:1490   */\n  iszero\n  tag_50\n  jumpi\n    /* \"#utility.yul\":1470:1488   */\n  tag_51\n  tag_20\n  jump\t// in\ntag_51:\n    /* \"#utility.yul\":1434:1490   */\ntag_50:\n    /* \"#utility.yul\":1508:1537   */\n  tag_52\n    /* \"#utility.yul\":1530:1536   */\n  dup3\n    /* \"#utility.yul\":1508:1537   */\n  tag_19\n  jump\t// in\ntag_52:\n    /* \"#utility.yul\":1500:1537   */\n  swap1\n  pop\n    /* \"#utility.yul\":1592:1596   */\n  0x20\n    /* \"#utility.yul\":1586:1590   */\n  dup2\n    /* \"#utility.yul\":1582:1597   */\n  add\n    /* \"#utility.yul\":1574:1597   */\n  swap1\n  pop\n    /* \"#utility.yul\":1296:1604   */\n  swap2\n  swap1\n  pop\n  jump\t// out\n    /* \"#utility.yul\":1610:1917   */\ntag_24:\n    /* \"#utility.yul\":1678:1679   */\n  0x00\n    /* \"#utility.yul\":1688:1801   */\ntag_54:\n    /* \"#utility.yul\":1702:1708   */\n  dup4\n    /* \"#utility.yul\":1699:1700   */\n  dup2\n    /* \"#utility.yul\":1696:1709   */\n  lt\n    /* \"#utility.yul\":1688:1801   */\n  iszero\n  tag_56\n  jumpi\n    /* \"#utility.yul\":1787:1788   */\n  dup1\n    /* \"#utility.yul\":1782:1785   */\n  dup3\n    /* \"#utility.yul\":1778:1789   */\n  add\n    /* \"#utility.yul\":1772:1790   */\n  mload\n    /* \"#utility.yul\":1768:1769   */\n  dup2\n    /* \"#utility.yul\":1763:1766   */\n  dup5\n    /* \"#utility.yul\":1759:1770   */\n  add\n    /* \"#utility.yul\":1752:1791   */\n  mstore\n    /* \"#utility.yul\":1724:1726   */\n  0x20\n    /* \"#utility.yul\":1721:1722   */\n  dup2\n    /* \"#utility.yul\":1717:1727   */\n  add\n    /* \"#utility.yul\":1712:1727   */\n  swap1\n  pop\n    /* \"#utility.yul\":1688:1801   */\n  jump(tag_54)\ntag_56:\n    /* \"#utility.yul\":1819:1825   */\n  dup4\n    /* \"#utility.yul\":1816:1817   */\n  dup2\n    /* \"#utility.yul\":1813:1826   */\n  gt\n    /* \"#utility.yul\":1810:1911   */\n  iszero\n  tag_57\n  jumpi\n    /* \"#utility.yul\":1899:1900   */\n  0x00\n    /* \"#utility.yul\":1890:1896   */\n  dup5\n    /* \"#utility.yul\":1885:1888   */\n  dup5\n    /* \"#utility.yul\":1881:1897   */\n  add\n    /* \"#utility.yul\":1874:1901   */\n  mstore\n    /* \"#utility.yul\":1810:1911   */\ntag_57:\n    /* \"#utility.yul\":1659:1917   */\n  pop\n    /* \"#utility.yul\":1610:1917   */\n  pop\n  pop\n  pop\n  jump\t// out\n    /* \"#utility.yul\":1923:2344   */\ntag_25:\n    /* \"#utility.yul\":2012:2017   */\n  0x00\n    /* \"#utility.yul\":2037:2103   */\n  tag_59\n    /* \"#utility.yul\":2053:2102   */\n  tag_60\n    /* \"#utility.yul\":2095:2101   */\n  dup5\n    /* \"#utility.yul\":2053:2102   */\n  tag_23\n  jump\t// in\ntag_60:\n    /* \"#utility.yul\":2037:2103   */\n  tag_22\n  jump\t// in\ntag_59:\n    /* \"#utility.yul\":2028:2103   */\n  swap1\n  pop\n    /* \"#utility.yul\":2126:2132   */\n  dup3\n    /* \"#utility.yul\":2119:2124   */\n  dup2\n    /* \"#utility.yul\":2112:2133   */\n  mstore\n    /* \"#utility.yul\":2164:2168   */\n  0x20\n    /* \"#utility.yul\":2157:2162   */\n  dup2\n    /* \"#utility.yul\":2153:2169   */\n  add\n    /* \"#utility.yul\":2202:2205   */\n  dup5\n    /* \"#utility.yul\":2193:2199   */\n  dup5\n    /* \"#utility.yul\":2188:2191   */\n  dup5\n    /* \"#utility.yul\":2184:2200   */\n  add\n    /* \"#utility.yul\":2181:2206   */\n  gt\n    /* \"#utility.yul\":2178:2290   */\n  iszero\n  tag_61\n  jumpi\n    /* \"#utility.yul\":2209:2288   */\n  tag_62\n  tag_18\n  jump\t// in\ntag_62:\n    /* \"#utility.yul\":2178:2290   */\ntag_61:\n    /* \"#utility.yul\":2299:2338   */\n  tag_63\n    /* \"#utility.yul\":2331:2337   */\n  dup5\n    /* \"#utility.yul\":2326:2329   */\n  dup3\n    /* \"#utility.yul\":2321:2324   */\n  dup6\n    /* \"#utility.yul\":2299:2338   */\n  tag_24\n  jump\t// in\ntag_63:\n    /* \"#utility.yul\":2018:2344   */\n  pop\n    /* \"#utility.yul\":1923:2344   */\n  swap4\n  swap3\n  pop\n  pop\n  pop\n  jump\t// out\n    /* \"#utility.yul\":2364:2719   */\ntag_26:\n    /* \"#utility.yul\":2431:2436   */\n  0x00\n    /* \"#utility.yul\":2480:2483   */\n  dup3\n    /* \"#utility.yul\":2473:2477   */\n  0x1f\n    /* \"#utility.yul\":2465:2471   */\n  dup4\n    /* \"#utility.yul\":2461:2478   */\n  add\n    /* \"#utility.yul\":2457:2484   */\n  slt\n    /* \"#utility.yul\":2447:2569   */\n  tag_65\n  jumpi\n    /* \"#utility.yul\":2488:2567   */\n  tag_66\n  tag_17\n  jump\t// in\ntag_66:\n    /* \"#utility.yul\":2447:2569   */\ntag_65:\n    /* \"#utility.yul\":2598:2604   */\n  dup2\n    /* \"#utility.yul\":2592:2605   */\n  mload\n    /* \"#utility.yul\":2623:2713   */\n  tag_67\n    /* \"#utility.yul\":2709:2712   */\n  dup5\n    /* \"#utility.yul\":2701:2707   */\n  dup3\n    /* \"#utility.yul\":2694:2698   */\n  0x20\n    /* \"#utility.yul\":2686:2692   */\n  dup7\n    /* \"#utility.yul\":2682:2699   */\n  add\n    /* \"#utility.yul\":2623:2713   */\n  tag_25\n  jump\t// in\ntag_67:\n    /* \"#utility.yul\":2614:2713   */\n  swap2\n  pop\n    /* \"#utility.yul\":2437:2719   */\n  pop\n    /* \"#utility.yul\":2364:2719   */\n  swap3\n  swap2\n  pop\n  pop\n  jump\t// out\n    /* \"#utility.yul\":2725:2811   */\ntag_27:\n    /* \"#utility.yul\":2760:2767   */\n  0x00\n    /* \"#utility.yul\":2800:2804   */\n  0xff\n    /* \"#utility.yul\":2793:2798   */\n  dup3\n    /* \"#utility.yul\":2789:2805   */\n  and\n    /* \"#utility.yul\":2778:2805   */\n  swap1\n  pop\n    /* \"#utility.yul\":2725:2811   */\n  swap2\n  swap1\n  pop\n  jump\t// out\n    /* \"#utility.yul\":2817:2935   */\ntag_28:\n    /* \"#utility.yul\":2888:2910   */\n  tag_70\n    /* \"#utility.yul\":2904:2909   */\n  dup2\n    /* \"#utility.yul\":2888:2910   */\n  tag_27\n  jump\t// in\ntag_70:\n    /* \"#utility.yul\":2881:2886   */\n  dup2\n    /* \"#utility.yul\":2878:2911   */\n  eq\n    /* \"#utility.yul\":2868:2929   */\n  tag_71\n  jumpi\n    /* \"#utility.yul\":2925:2926   */\n  0x00\n    /* \"#utility.yul\":2922:2923   */\n  dup1\n    /* \"#utility.yul\":2915:2927   */\n  revert\n    /* \"#utility.yul\":2868:2929   */\ntag_71:\n    /* \"#utility.yul\":2817:2935   */\n  pop\n  jump\t// out\n    /* \"#utility.yul\":2941:3080   */\ntag_29:\n    /* \"#utility.yul\":2996:3001   */\n  0x00\n    /* \"#utility.yul\":3027:3033   */\n  dup2\n    /* \"#utility.yul\":3021:3034   */\n  mload\n    /* \"#utility.yul\":3012:3034   */\n  swap1\n  pop\n    /* \"#utility.yul\":3043:3074   */\n  tag_73\n    /* \"#utility.yul\":3068:3073   */\n  dup2\n    /* \"#utility.yul\":3043:3074   */\n  tag_28\n  jump\t// in\ntag_73:\n    /* \"#utility.yul\":2941:3080   */\n  swap3\n  swap2\n  pop\n  pop\n  jump\t// out\n    /* \"#utility.yul\":3086:3163   */\ntag_30:\n    /* \"#utility.yul\":3123:3130   */\n  0x00\n    /* \"#utility.yul\":3152:3157   */\n  dup2\n    /* \"#utility.yul\":3141:3157   */\n  swap1\n  pop\n    /* \"#utility.yul\":3086:3163   */\n  swap2\n  swap1\n  pop\n  jump\t// out\n    /* \"#utility.yul\":3169:3291   */\ntag_31:\n    /* \"#utility.yul\":3242:3266   */\n  tag_76\n    /* \"#utility.yul\":3260:3265   */\n  dup2\n    /* \"#utility.yul\":3242:3266   */\n  tag_30\n  jump\t// in\ntag_76:\n    /* \"#utility.yul\":3235:3240   */\n  dup2\n    /* \"#utility.yul\":3232:3267   */\n  eq\n    /* \"#utility.yul\":3222:3285   */\n  tag_77\n  jumpi\n    /* \"#utility.yul\":3281:3282   */\n  0x00\n    /* \"#utility.yul\":3278:3279   */\n  dup1\n    /* \"#utility.yul\":3271:3283   */\n  revert\n    /* \"#utility.yul\":3222:3285   */\ntag_77:\n    /* \"#utility.yul\":3169:3291   */\n  pop\n  jump\t// out\n    /* \"#utility.yul\":3297:3440   */\ntag_32:\n    /* \"#utility.yul\":3354:3359   */\n  0x00\n    /* \"#utility.yul\":3385:3391   */\n  dup2\n    /* \"#utility.yul\":3379:3392   */\n  mload\n    /* \"#utility.yul\":3370:3392   */\n  swap1\n  pop\n    /* \"#utility.yul\":3401:3434   */\n  tag_79\n    /* \"#utility.yul\":3428:3433   */\n  dup2\n    /* \"#utility.yul\":3401:3434   */\n  tag_31\n  jump\t// in\ntag_79:\n    /* \"#utility.yul\":3297:3440   */\n  swap3\n  swap2\n  pop\n  pop\n  jump\t// out\n    /* \"#utility.yul\":3446:4608   */\ntag_3:\n    /* \"#utility.yul\":3561:3567   */\n  0x00\n    /* \"#utility.yul\":3569:3575   */\n  dup1\n    /* \"#utility.yul\":3577:3583   */\n  0x00\n    /* \"#utility.yul\":3585:3591   */\n  dup1\n    /* \"#utility.yul\":3634:3637   */\n  0x80\n    /* \"#utility.yul\":3622:3631   */\n  dup6\n    /* \"#utility.yul\":3613:3620   */\n  dup8\n    /* \"#utility.yul\":3609:3632   */\n  sub\n    /* \"#utility.yul\":3605:3638   */\n  slt\n    /* \"#utility.yul\":3602:3722   */\n  iszero\n  tag_81\n  jumpi\n    /* \"#utility.yul\":3641:3720   */\n  tag_82\n  tag_15\n  jump\t// in\ntag_82:\n    /* \"#utility.yul\":3602:3722   */\ntag_81:\n    /* \"#utility.yul\":3782:3783   */\n  0x00\n    /* \"#utility.yul\":3771:3780   */\n  dup6\n    /* \"#utility.yul\":3767:3784   */\n  add\n    /* \"#utility.yul\":3761:3785   */\n  mload\n    /* \"#utility.yul\":3812:3830   */\n  0xffffffffffffffff\n    /* \"#utility.yul\":3804:3810   */\n  dup2\n    /* \"#utility.yul\":3801:3831   */\n  gt\n    /* \"#utility.yul\":3798:3915   */\n  iszero\n  tag_83\n  jumpi\n    /* \"#utility.yul\":3834:3913   */\n  tag_84\n  tag_16\n  jump\t// in\ntag_84:\n    /* \"#utility.yul\":3798:3915   */\ntag_83:\n    /* \"#utility.yul\":3939:4013   */\n  tag_85\n    /* \"#utility.yul\":4005:4012   */\n  dup8\n    /* \"#utility.yul\":3996:4002   */\n  dup3\n    /* \"#utility.yul\":3985:3994   */\n  dup9\n    /* \"#utility.yul\":3981:4003   */\n  add\n    /* \"#utility.yul\":3939:4013   */\n  tag_26\n  jump\t// in\ntag_85:\n    /* \"#utility.yul\":3929:4013   */\n  swap5\n  pop\n    /* \"#utility.yul\":3732:4023   */\n  pop\n    /* \"#utility.yul\":4083:4085   */\n  0x20\n    /* \"#utility.yul\":4072:4081   */\n  dup6\n    /* \"#utility.yul\":4068:4086   */\n  add\n    /* \"#utility.yul\":4062:4087   */\n  mload\n    /* \"#utility.yul\":4114:4132   */\n  0xffffffffffffffff\n    /* \"#utility.yul\":4106:4112   */\n  dup2\n    /* \"#utility.yul\":4103:4133   */\n  gt\n    /* \"#utility.yul\":4100:4217   */\n  iszero\n  tag_86\n  jumpi\n    /* \"#utility.yul\":4136:4215   */\n  tag_87\n  tag_16\n  jump\t// in\ntag_87:\n    /* \"#utility.yul\":4100:4217   */\ntag_86:\n    /* \"#utility.yul\":4241:4315   */\n  tag_88\n    /* \"#utility.yul\":4307:4314   */\n  dup8\n    /* \"#utility.yul\":4298:4304   */\n  dup3\n    /* \"#utility.yul\":4287:4296   */\n  dup9\n    /* \"#utility.yul\":4283:4305   */\n  add\n    /* \"#utility.yul\":4241:4315   */\n  tag_26\n  jump\t// in\ntag_88:\n    /* \"#utility.yul\":4231:4315   */\n  swap4\n  pop\n    /* \"#utility.yul\":4033:4325   */\n  pop\n    /* \"#utility.yul\":4364:4366   */\n  0x40\n    /* \"#utility.yul\":4390:4452   */\n  tag_89\n    /* \"#utility.yul\":4444:4451   */\n  dup8\n    /* \"#utility.yul\":4435:4441   */\n  dup3\n    /* \"#utility.yul\":4424:4433   */\n  dup9\n    /* \"#utility.yul\":4420:4442   */\n  add\n    /* \"#utility.yul\":4390:4452   */\n  tag_29\n  jump\t// in\ntag_89:\n    /* \"#utility.yul\":4380:4452   */\n  swap3\n  pop\n    /* \"#utility.yul\":4335:4462   */\n  pop\n    /* \"#utility.yul\":4501:4503   */\n  0x60\n    /* \"#utility.yul\":4527:4591   */\n  tag_90\n    /* \"#utility.yul\":4583:4590   */\n  dup8\n    /* \"#utility.yul\":4574:4580   */\n  dup3\n    /* \"#utility.yul\":4563:4572   */\n  dup9\n    /* \"#utility.yul\":4559:4581   */\n  add\n    /* \"#utility.yul\":4527:4591   */\n  tag_32\n  jump\t// in\ntag_90:\n    /* \"#utility.yul\":4517:4591   */\n  swap2\n  pop\n    /* \"#utility.yul\":4472:4601   */\n  pop\n    /* \"#utility.yul\":3446:4608   */\n  swap3\n  swap6\n  swap2\n  swap5\n  pop\n  swap3\n  pop\n  jump\t// out\n    /* \"#utility.yul\":4614:4732   */\ntag_33:\n    /* \"#utility.yul\":4701:4725   */\n  tag_92\n    /* \"#utility.yul\":4719:4724   */\n  dup2\n    /* \"#utility.yul\":4701:4725   */\n  tag_30\n  jump\t// in\ntag_92:\n    /* \"#utility.yul\":4696:4699   */\n  dup3\n    /* \"#utility.yul\":4689:4726   */\n  mstore\n    /* \"#utility.yul\":4614:4732   */\n  pop\n  pop\n  jump\t// out\n    /* \"#utility.yul\":4738:4960   */\ntag_12:\n    /* \"#utility.yul\":4831:4835   */\n  0x00\n    /* \"#utility.yul\":4869:4871   */\n  0x20\n    /* \"#utility.yul\":4858:4867   */\n  dup3\n    /* \"#utility.yul\":4854:4872   */\n  add\n    /* \"#utility.yul\":4846:4872   */\n  swap1\n  pop\n    /* \"#utility.yul\":4882:4953   */\n  tag_94\n    /* \"#utility.yul\":4950:4951   */\n  0x00\n    /* \"#utility.yul\":4939:4948   */\n  dup4\n    /* \"#utility.yul\":4935:4952   */\n  add\n    /* \"#utility.yul\":4926:4932   */\n  dup5\n    /* \"#utility.yul\":4882:4953   */\n  tag_33\n  jump\t// in\ntag_94:\n    /* \"#utility.yul\":4738:4960   */\n  swap3\n  swap2\n  pop\n  pop\n  jump\t// out\n    /* \"contracts/MetraToken.sol\":150:8950  contract Metra is Ownable, Stakeable{... */\ntag_13:\n  dataSize(sub_0)\n  dup1\n  dataOffset(sub_0)\n  0x00\n  codecopy\n  0x00\n  return\nstop\n\nsub_0: assembly {\n        /* \"contracts/MetraToken.sol\":150:8950  contract Metra is Ownable, Stakeable{... */\n      mstore(0x40, 0x80)\n      callvalue\n      dup1\n      iszero\n      tag_1\n      jumpi\n      0x00\n      dup1\n      revert\n    tag_1:\n      pop\n      jumpi(tag_2, lt(calldatasize, 0x04))\n      shr(0xe0, calldataload(0x00))\n      dup1\n      0x893d20e8\n      gt\n      tag_22\n      jumpi\n      dup1\n      0xa694fc3a\n      gt\n      tag_23\n      jumpi\n      dup1\n      0xa694fc3a\n      eq\n      tag_17\n      jumpi\n      dup1\n      0xa9059cbb\n      eq\n      tag_18\n      jumpi\n      dup1\n      0xdd62ed3e\n      eq\n      tag_19\n      jumpi\n      dup1\n      0xe73e14bf\n      eq\n      tag_20\n      jumpi\n      dup1\n      0xf2fde38b\n      eq\n      tag_21\n      jumpi\n      jump(tag_2)\n    tag_23:\n      dup1\n      0x893d20e8\n      eq\n      tag_12\n      jumpi\n      dup1\n      0x8da5cb5b\n      eq\n      tag_13\n      jumpi\n      dup1\n      0x95d89b41\n      eq\n      tag_14\n      jumpi\n      dup1\n      0x9dc29fac\n      eq\n      tag_15\n      jumpi\n      dup1\n      0xa457c2d7\n      eq\n      tag_16\n      jumpi\n      jump(tag_2)\n    tag_22:\n      dup1\n      0x279f9b11\n      gt\n      tag_24\n      jumpi\n      dup1\n      0x279f9b11\n      eq\n      tag_7\n      jumpi\n      dup1\n      0x313ce567\n      eq\n      tag_8\n      jumpi\n      dup1\n      0x39509351\n      eq\n      tag_9\n      jumpi\n      dup1\n      0x70a08231\n      eq\n      tag_10\n      jumpi\n      dup1\n      0x715018a6\n      eq\n      tag_11\n      jumpi\n      jump(tag_2)\n    tag_24:\n      dup1\n      0x06fdde03\n      eq\n      tag_3\n      jumpi\n      dup1\n      0x095ea7b3\n      eq\n      tag_4\n      jumpi\n      dup1\n      0x18160ddd\n      eq\n      tag_5\n      jumpi\n      dup1\n      0x23b872dd\n      eq\n      tag_6\n      jumpi\n    tag_2:\n      0x00\n      dup1\n      revert\n        /* \"contracts/MetraToken.sol\":2046:2135  function name() public pure returns (string memory) {... */\n    tag_3:\n      tag_25\n      tag_26\n      jump\t// in\n    tag_25:\n      mload(0x40)\n      tag_27\n      swap2\n      swap1\n      tag_28\n      jump\t// in\n    tag_27:\n      mload(0x40)\n      dup1\n      swap2\n      sub\n      swap1\n      return\n        /* \"contracts/MetraToken.sol\":6072:6214  function approve(address spender, uint256 amount) external returns (bool) {... */\n    tag_4:\n      tag_29\n      0x04\n      dup1\n      calldatasize\n      sub\n      dup2\n      add\n      swap1\n      tag_30\n      swap2\n      swap1\n      tag_31\n      jump\t// in\n    tag_30:\n      tag_32\n      jump\t// in\n    tag_29:\n      mload(0x40)\n      tag_33\n      swap2\n      swap1\n      tag_34\n      jump\t// in\n    tag_33:\n      mload(0x40)\n      dup1\n      swap2\n      sub\n      swap1\n      return\n        /* \"contracts/MetraToken.sol\":2312:2424  function totalSupply() public view returns (uint256) {... */\n    tag_5:\n      tag_35\n      tag_36\n      jump\t// in\n    tag_35:\n      mload(0x40)\n      tag_37\n      swap2\n      swap1\n      tag_38\n      jump\t// in\n    tag_37:\n      mload(0x40)\n      dup1\n      swap2\n      sub\n      swap1\n      return\n        /* \"contracts/MetraToken.sol\":7102:7594  function transferFrom(address spender, address recipient, uint256 amount) external returns(bool){... */\n    tag_6:\n      tag_39\n      0x04\n      dup1\n      calldatasize\n      sub\n      dup2\n      add\n      swap1\n      tag_40\n      swap2\n      swap1\n      tag_41\n      jump\t// in\n    tag_40:\n      tag_42\n      jump\t// in\n    tag_39:\n      mload(0x40)\n      tag_43\n      swap2\n      swap1\n      tag_34\n      jump\t// in\n    tag_43:\n      mload(0x40)\n      dup1\n      swap2\n      sub\n      swap1\n      return\n        /* \"contracts/MetraToken.sol\":8701:8947  function withdrawStake(uint256 amount, uint256 stake_index, uint256 reward)  public {... */\n    tag_7:\n      tag_44\n      0x04\n      dup1\n      calldatasize\n      sub\n      dup2\n      add\n      swap1\n      tag_45\n      swap2\n      swap1\n      tag_46\n      jump\t// in\n    tag_45:\n      tag_47\n      jump\t// in\n    tag_44:\n      stop\n        /* \"contracts/MetraToken.sol\":2228:2308  function decimals() public pure returns (uint8) {... */\n    tag_8:\n      tag_48\n      tag_49\n      jump\t// in\n    tag_48:\n      mload(0x40)\n      tag_50\n      swap2\n      swap1\n      tag_51\n      jump\t// in\n    tag_50:\n      mload(0x40)\n      dup1\n      swap2\n      sub\n      swap1\n      return\n        /* \"contracts/MetraToken.sol\":7713:7899  function increaseAllowance(address spender, uint256 amount) public returns (bool) {... */\n    tag_9:\n      tag_52\n      0x04\n      dup1\n      calldatasize\n      sub\n      dup2\n      add\n      swap1\n      tag_53\n      swap2\n      swap1\n      tag_31\n      jump\t// in\n    tag_53:\n      tag_54\n      jump\t// in\n    tag_52:\n      mload(0x40)\n      tag_55\n      swap2\n      swap1\n      tag_34\n      jump\t// in\n    tag_55:\n      mload(0x40)\n      dup1\n      swap2\n      sub\n      swap1\n      return\n        /* \"contracts/MetraToken.sol\":2514:2618  function balanceOf(address account) external view returns (uint256) {... */\n    tag_10:\n      tag_56\n      0x04\n      dup1\n      calldatasize\n      sub\n      dup2\n      add\n      swap1\n      tag_57\n      swap2\n      swap1\n      tag_58\n      jump\t// in\n    tag_57:\n      tag_59\n      jump\t// in\n    tag_56:\n      mload(0x40)\n      tag_60\n      swap2\n      swap1\n      tag_38\n      jump\t// in\n    tag_60:\n      mload(0x40)\n      dup1\n      swap2\n      sub\n      swap1\n      return\n        /* \"contracts/Ownable.sol\":1461:1598  function renounceOwnership() public onlyOwner {... */\n    tag_11:\n      tag_61\n      tag_62\n      jump\t// in\n    tag_61:\n      stop\n        /* \"contracts/MetraToken.sol\":5656:5733  function getOwner() external view returns (address) {... */\n    tag_12:\n      tag_63\n      tag_64\n      jump\t// in\n    tag_63:\n      mload(0x40)\n      tag_65\n      swap2\n      swap1\n      tag_66\n      jump\t// in\n    tag_65:\n      mload(0x40)\n      dup1\n      swap2\n      sub\n      swap1\n      return\n        /* \"contracts/Ownable.sol\":1137:1214  function owner() public view returns(address) {... */\n    tag_13:\n      tag_67\n      tag_68\n      jump\t// in\n    tag_67:\n      mload(0x40)\n      tag_69\n      swap2\n      swap1\n      tag_66\n      jump\t// in\n    tag_69:\n      mload(0x40)\n      dup1\n      swap2\n      sub\n      swap1\n      return\n        /* \"contracts/MetraToken.sol\":2139:2224  function symbol() public pure returns (string memory) {... */\n    tag_14:\n      tag_70\n      tag_71\n      jump\t// in\n    tag_70:\n      mload(0x40)\n      tag_72\n      swap2\n      swap1\n      tag_28\n      jump\t// in\n    tag_72:\n      mload(0x40)\n      dup1\n      swap2\n      sub\n      swap1\n      return\n        /* \"contracts/MetraToken.sol\":4257:4385  function burn(address account, uint256 amount) public onlyOwner returns(bool) {... */\n    tag_15:\n      tag_73\n      0x04\n      dup1\n      calldatasize\n      sub\n      dup2\n      add\n      swap1\n      tag_74\n      swap2\n      swap1\n      tag_31\n      jump\t// in\n    tag_74:\n      tag_75\n      jump\t// in\n    tag_73:\n      mload(0x40)\n      tag_76\n      swap2\n      swap1\n      tag_34\n      jump\t// in\n    tag_76:\n      mload(0x40)\n      dup1\n      swap2\n      sub\n      swap1\n      return\n        /* \"contracts/MetraToken.sol\":8021:8207  function decreaseAllowance(address spender, uint256 amount) public returns (bool) {... */\n    tag_16:\n      tag_77\n      0x04\n      dup1\n      calldatasize\n      sub\n      dup2\n      add\n      swap1\n      tag_78\n      swap2\n      swap1\n      tag_31\n      jump\t// in\n    tag_78:\n      tag_79\n      jump\t// in\n    tag_77:\n      mload(0x40)\n      tag_80\n      swap2\n      swap1\n      tag_34\n      jump\t// in\n    tag_80:\n      mload(0x40)\n      dup1\n      swap2\n      sub\n      swap1\n      return\n        /* \"contracts/MetraToken.sol\":8294:8600  function stake(uint256 _amount) public {... */\n    tag_17:\n      tag_81\n      0x04\n      dup1\n      calldatasize\n      sub\n      dup2\n      add\n      swap1\n      tag_82\n      swap2\n      swap1\n      tag_83\n      jump\t// in\n    tag_82:\n      tag_84\n      jump\t// in\n    tag_81:\n      stop\n        /* \"contracts/MetraToken.sol\":4687:4832  function transfer(address recipient, uint256 amount) external returns (bool) {... */\n    tag_18:\n      tag_85\n      0x04\n      dup1\n      calldatasize\n      sub\n      dup2\n      add\n      swap1\n      tag_86\n      swap2\n      swap1\n      tag_31\n      jump\t// in\n    tag_86:\n      tag_87\n      jump\t// in\n    tag_85:\n      mload(0x40)\n      tag_88\n      swap2\n      swap1\n      tag_34\n      jump\t// in\n    tag_88:\n      mload(0x40)\n      dup1\n      swap2\n      sub\n      swap1\n      return\n        /* \"contracts/MetraToken.sol\":5818:5946  function allowance(address owner, address spender) external view returns(uint256){... */\n    tag_19:\n      tag_89\n      0x04\n      dup1\n      calldatasize\n      sub\n      dup2\n      add\n      swap1\n      tag_90\n      swap2\n      swap1\n      tag_91\n      jump\t// in\n    tag_90:\n      tag_92\n      jump\t// in\n    tag_89:\n      mload(0x40)\n      tag_93\n      swap2\n      swap1\n      tag_38\n      jump\t// in\n    tag_93:\n      mload(0x40)\n      dup1\n      swap2\n      sub\n      swap1\n      return\n        /* \"contracts/Stakeable.sol\":6899:7727  function hasStake(address _staker) public view returns(StakingSummary memory){... */\n    tag_20:\n      tag_94\n      0x04\n      dup1\n      calldatasize\n      sub\n      dup2\n      add\n      swap1\n      tag_95\n      swap2\n      swap1\n      tag_58\n      jump\t// in\n    tag_95:\n      tag_96\n      jump\t// in\n    tag_94:\n      mload(0x40)\n      tag_97\n      swap2\n      swap1\n      tag_98\n      jump\t// in\n    tag_97:\n      mload(0x40)\n      dup1\n      swap2\n      sub\n      swap1\n      return\n        /* \"contracts/Ownable.sol\":1694:1801  function transferOwnership(address newOwner) public onlyOwner {... */\n    tag_21:\n      tag_99\n      0x04\n      dup1\n      calldatasize\n      sub\n      dup2\n      add\n      swap1\n      tag_100\n      swap2\n      swap1\n      tag_58\n      jump\t// in\n    tag_100:\n      tag_101\n      jump\t// in\n    tag_99:\n      stop\n        /* \"contracts/MetraToken.sol\":2046:2135  function name() public pure returns (string memory) {... */\n    tag_26:\n        /* \"contracts/MetraToken.sol\":2083:2096  string memory */\n      0x60\n        /* \"contracts/MetraToken.sol\":2108:2128  return \"Matic Token\" */\n      mload(0x40)\n      dup1\n      0x40\n      add\n      0x40\n      mstore\n      dup1\n      0x0b\n      dup2\n      mstore\n      0x20\n      add\n      0x4d6174696320546f6b656e000000000000000000000000000000000000000000\n      dup2\n      mstore\n      pop\n      swap1\n      pop\n        /* \"contracts/MetraToken.sol\":2046:2135  function name() public pure returns (string memory) {... */\n      swap1\n      jump\t// out\n        /* \"contracts/MetraToken.sol\":6072:6214  function approve(address spender, uint256 amount) external returns (bool) {... */\n    tag_32:\n        /* \"contracts/MetraToken.sol\":6140:6144  bool */\n      0x00\n        /* \"contracts/MetraToken.sol\":6153:6190  _approve(msg.sender, spender, amount) */\n      tag_104\n        /* \"contracts/MetraToken.sol\":6162:6172  msg.sender */\n      caller\n        /* \"contracts/MetraToken.sol\":6174:6181  spender */\n      dup5\n        /* \"contracts/MetraToken.sol\":6183:6189  amount */\n      dup5\n        /* \"contracts/MetraToken.sol\":6153:6161  _approve */\n      tag_105\n        /* \"contracts/MetraToken.sol\":6153:6190  _approve(msg.sender, spender, amount) */\n      jump\t// in\n    tag_104:\n        /* \"contracts/MetraToken.sol\":6204:6208  true */\n      0x01\n        /* \"contracts/MetraToken.sol\":6197:6208  return true */\n      swap1\n      pop\n        /* \"contracts/MetraToken.sol\":6072:6214  function approve(address spender, uint256 amount) external returns (bool) {... */\n      swap3\n      swap2\n      pop\n      pop\n      jump\t// out\n        /* \"contracts/MetraToken.sol\":2312:2424  function totalSupply() public view returns (uint256) {... */\n    tag_36:\n        /* \"contracts/MetraToken.sol\":2356:2363  uint256 */\n      0x00\n        /* \"contracts/MetraToken.sol\":427:429  18 */\n      0x12\n        /* \"contracts/MetraToken.sol\":2400:2417  uint256(DECIMALS) */\n      0xff\n      and\n        /* \"contracts/MetraToken.sol\":2396:2398  10 */\n      0x0a\n        /* \"contracts/MetraToken.sol\":2396:2417  10**uint256(DECIMALS) */\n      tag_107\n      swap2\n      swap1\n      tag_108\n      jump\t// in\n    tag_107:\n        /* \"contracts/MetraToken.sol\":2382:2393  10000000000 */\n      0x02540be400\n        /* \"contracts/MetraToken.sol\":2382:2417  10000000000 * 10**uint256(DECIMALS) */\n      tag_109\n      swap2\n      swap1\n      tag_110\n      jump\t// in\n    tag_109:\n        /* \"contracts/MetraToken.sol\":2375:2417  return 10000000000 * 10**uint256(DECIMALS) */\n      swap1\n      pop\n        /* \"contracts/MetraToken.sol\":2312:2424  function totalSupply() public view returns (uint256) {... */\n      swap1\n      jump\t// out\n        /* \"contracts/MetraToken.sol\":7102:7594  function transferFrom(address spender, address recipient, uint256 amount) external returns(bool){... */\n    tag_42:\n        /* \"contracts/MetraToken.sol\":7193:7197  bool */\n      0x00\n        /* \"contracts/MetraToken.sol\":7300:7306  amount */\n      dup2\n        /* \"contracts/MetraToken.sol\":7264:7275  _allowances */\n      0x09\n        /* \"contracts/MetraToken.sol\":7264:7284  _allowances[spender] */\n      0x00\n        /* \"contracts/MetraToken.sol\":7276:7283  spender */\n      dup7\n        /* \"contracts/MetraToken.sol\":7264:7284  _allowances[spender] */\n      0xffffffffffffffffffffffffffffffffffffffff\n      and\n      0xffffffffffffffffffffffffffffffffffffffff\n      and\n      dup2\n      mstore\n      0x20\n      add\n      swap1\n      dup2\n      mstore\n      0x20\n      add\n      0x00\n      keccak256\n        /* \"contracts/MetraToken.sol\":7264:7296  _allowances[spender][msg.sender] */\n      0x00\n        /* \"contracts/MetraToken.sol\":7285:7295  msg.sender */\n      caller\n        /* \"contracts/MetraToken.sol\":7264:7296  _allowances[spender][msg.sender] */\n      0xffffffffffffffffffffffffffffffffffffffff\n      and\n      0xffffffffffffffffffffffffffffffffffffffff\n      and\n      dup2\n      mstore\n      0x20\n      add\n      swap1\n      dup2\n      mstore\n      0x20\n      add\n      0x00\n      keccak256\n      sload\n        /* \"contracts/MetraToken.sol\":7264:7306  _allowances[spender][msg.sender] >= amount */\n      lt\n      iszero\n        /* \"contracts/MetraToken.sol\":7256:7360  require(_allowances[spender][msg.sender] >= amount, \"Metra: You cannot spend that much on this account\") */\n      tag_112\n      jumpi\n      mload(0x40)\n      0x08c379a000000000000000000000000000000000000000000000000000000000\n      dup2\n      mstore\n      0x04\n      add\n      tag_113\n      swap1\n      tag_114\n      jump\t// in\n    tag_113:\n      mload(0x40)\n      dup1\n      swap2\n      sub\n      swap1\n      revert\n    tag_112:\n        /* \"contracts/MetraToken.sol\":7392:7429  _transfer(spender, recipient, amount) */\n      tag_115\n        /* \"contracts/MetraToken.sol\":7402:7409  spender */\n      dup5\n        /* \"contracts/MetraToken.sol\":7411:7420  recipient */\n      dup5\n        /* \"contracts/MetraToken.sol\":7422:7428  amount */\n      dup5\n        /* \"contracts/MetraToken.sol\":7392:7401  _transfer */\n      tag_116\n        /* \"contracts/MetraToken.sol\":7392:7429  _transfer(spender, recipient, amount) */\n      jump\t// in\n    tag_115:\n        /* \"contracts/MetraToken.sol\":7496:7568  _approve(spender, msg.sender, _allowances[spender][msg.sender] - amount) */\n      tag_117\n        /* \"contracts/MetraToken.sol\":7505:7512  spender */\n      dup5\n        /* \"contracts/MetraToken.sol\":7514:7524  msg.sender */\n      caller\n        /* \"contracts/MetraToken.sol\":7561:7567  amount */\n      dup5\n        /* \"contracts/MetraToken.sol\":7526:7537  _allowances */\n      0x09\n        /* \"contracts/MetraToken.sol\":7526:7546  _allowances[spender] */\n      0x00\n        /* \"contracts/MetraToken.sol\":7538:7545  spender */\n      dup10\n        /* \"contracts/MetraToken.sol\":7526:7546  _allowances[spender] */\n      0xffffffffffffffffffffffffffffffffffffffff\n      and\n      0xffffffffffffffffffffffffffffffffffffffff\n      and\n      dup2\n      mstore\n      0x20\n      add\n      swap1\n      dup2\n      mstore\n      0x20\n      add\n      0x00\n      keccak256\n        /* \"contracts/MetraToken.sol\":7526:7558  _allowances[spender][msg.sender] */\n      0x00\n        /* \"contracts/MetraToken.sol\":7547:7557  msg.sender */\n      caller\n        /* \"contracts/MetraToken.sol\":7526:7558  _allowances[spender][msg.sender] */\n      0xffffffffffffffffffffffffffffffffffffffff\n      and\n      0xffffffffffffffffffffffffffffffffffffffff\n      and\n      dup2\n      mstore\n      0x20\n      add\n      swap1\n      dup2\n      mstore\n      0x20\n      add\n      0x00\n      keccak256\n      sload\n        /* \"contracts/MetraToken.sol\":7526:7567  _allowances[spender][msg.sender] - amount */\n      tag_118\n      swap2\n      swap1\n      tag_119\n      jump\t// in\n    tag_118:\n        /* \"contracts/MetraToken.sol\":7496:7504  _approve */\n      tag_105\n        /* \"contracts/MetraToken.sol\":7496:7568  _approve(spender, msg.sender, _allowances[spender][msg.sender] - amount) */\n      jump\t// in\n    tag_117:\n        /* \"contracts/MetraToken.sol\":7583:7587  true */\n      0x01\n        /* \"contracts/MetraToken.sol\":7576:7587  return true */\n      swap1\n      pop\n        /* \"contracts/MetraToken.sol\":7102:7594  function transferFrom(address spender, address recipient, uint256 amount) external returns(bool){... */\n      swap4\n      swap3\n      pop\n      pop\n      pop\n      jump\t// out\n        /* \"contracts/MetraToken.sol\":8701:8947  function withdrawStake(uint256 amount, uint256 stake_index, uint256 reward)  public {... */\n    tag_47:\n        /* \"contracts/MetraToken.sol\":8794:8816  uint256 amount_to_mint */\n      0x00\n        /* \"contracts/MetraToken.sol\":8819:8861  _withdrawStake(amount+reward, stake_index) */\n      tag_121\n        /* \"contracts/MetraToken.sol\":8841:8847  reward */\n      dup3\n        /* \"contracts/MetraToken.sol\":8834:8840  amount */\n      dup6\n        /* \"contracts/MetraToken.sol\":8834:8847  amount+reward */\n      tag_122\n      swap2\n      swap1\n      tag_123\n      jump\t// in\n    tag_122:\n        /* \"contracts/MetraToken.sol\":8849:8860  stake_index */\n      dup5\n        /* \"contracts/MetraToken.sol\":8819:8833  _withdrawStake */\n      tag_124\n        /* \"contracts/MetraToken.sol\":8819:8861  _withdrawStake(amount+reward, stake_index) */\n      jump\t// in\n    tag_121:\n        /* \"contracts/MetraToken.sol\":8794:8861  uint256 amount_to_mint = _withdrawStake(amount+reward, stake_index) */\n      swap1\n      pop\n        /* \"contracts/MetraToken.sol\":8907:8940  _mint(msg.sender, amount_to_mint) */\n      tag_125\n        /* \"contracts/MetraToken.sol\":8913:8923  msg.sender */\n      caller\n        /* \"contracts/MetraToken.sol\":8925:8939  amount_to_mint */\n      dup3\n        /* \"contracts/MetraToken.sol\":8907:8912  _mint */\n      tag_126\n        /* \"contracts/MetraToken.sol\":8907:8940  _mint(msg.sender, amount_to_mint) */\n      jump\t// in\n    tag_125:\n        /* \"contracts/MetraToken.sol\":8785:8947  {... */\n      pop\n        /* \"contracts/MetraToken.sol\":8701:8947  function withdrawStake(uint256 amount, uint256 stake_index, uint256 reward)  public {... */\n      pop\n      pop\n      pop\n      jump\t// out\n        /* \"contracts/MetraToken.sol\":2228:2308  function decimals() public pure returns (uint8) {... */\n    tag_49:\n        /* \"contracts/MetraToken.sol\":2269:2274  uint8 */\n      0x00\n        /* \"contracts/MetraToken.sol\":427:429  18 */\n      0x12\n        /* \"contracts/MetraToken.sol\":2286:2301  return DECIMALS */\n      swap1\n      pop\n        /* \"contracts/MetraToken.sol\":2228:2308  function decimals() public pure returns (uint8) {... */\n      swap1\n      jump\t// out\n        /* \"contracts/MetraToken.sol\":7713:7899  function increaseAllowance(address spender, uint256 amount) public returns (bool) {... */\n    tag_54:\n        /* \"contracts/MetraToken.sol\":7789:7793  bool */\n      0x00\n        /* \"contracts/MetraToken.sol\":7803:7873  _approve(msg.sender, spender, _allowances[msg.sender][spender]+amount) */\n      tag_129\n        /* \"contracts/MetraToken.sol\":7812:7822  msg.sender */\n      caller\n        /* \"contracts/MetraToken.sol\":7824:7831  spender */\n      dup5\n        /* \"contracts/MetraToken.sol\":7866:7872  amount */\n      dup5\n        /* \"contracts/MetraToken.sol\":7833:7844  _allowances */\n      0x09\n        /* \"contracts/MetraToken.sol\":7833:7856  _allowances[msg.sender] */\n      0x00\n        /* \"contracts/MetraToken.sol\":7845:7855  msg.sender */\n      caller\n        /* \"contracts/MetraToken.sol\":7833:7856  _allowances[msg.sender] */\n      0xffffffffffffffffffffffffffffffffffffffff\n      and\n      0xffffffffffffffffffffffffffffffffffffffff\n      and\n      dup2\n      mstore\n      0x20\n      add\n      swap1\n      dup2\n      mstore\n      0x20\n      add\n      0x00\n      keccak256\n        /* \"contracts/MetraToken.sol\":7833:7865  _allowances[msg.sender][spender] */\n      0x00\n        /* \"contracts/MetraToken.sol\":7857:7864  spender */\n      dup9\n        /* \"contracts/MetraToken.sol\":7833:7865  _allowances[msg.sender][spender] */\n      0xffffffffffffffffffffffffffffffffffffffff\n      and\n      0xffffffffffffffffffffffffffffffffffffffff\n      and\n      dup2\n      mstore\n      0x20\n      add\n      swap1\n      dup2\n      mstore\n      0x20\n      add\n      0x00\n      keccak256\n      sload\n        /* \"contracts/MetraToken.sol\":7833:7872  _allowances[msg.sender][spender]+amount */\n      tag_130\n      swap2\n      swap1\n      tag_123\n      jump\t// in\n    tag_130:\n        /* \"contracts/MetraToken.sol\":7803:7811  _approve */\n      tag_105\n        /* \"contracts/MetraToken.sol\":7803:7873  _approve(msg.sender, spender, _allowances[msg.sender][spender]+amount) */\n      jump\t// in\n    tag_129:\n        /* \"contracts/MetraToken.sol\":7888:7892  true */\n      0x01\n        /* \"contracts/MetraToken.sol\":7881:7892  return true */\n      swap1\n      pop\n        /* \"contracts/MetraToken.sol\":7713:7899  function increaseAllowance(address spender, uint256 amount) public returns (bool) {... */\n      swap3\n      swap2\n      pop\n      pop\n      jump\t// out\n        /* \"contracts/MetraToken.sol\":2514:2618  function balanceOf(address account) external view returns (uint256) {... */\n    tag_59:\n        /* \"contracts/MetraToken.sol\":2573:2580  uint256 */\n      0x00\n        /* \"contracts/MetraToken.sol\":2595:2604  _balances */\n      0x08\n        /* \"contracts/MetraToken.sol\":2595:2613  _balances[account] */\n      0x00\n        /* \"contracts/MetraToken.sol\":2605:2612  account */\n      dup4\n        /* \"contracts/MetraToken.sol\":2595:2613  _balances[account] */\n      0xffffffffffffffffffffffffffffffffffffffff\n      and\n      0xffffffffffffffffffffffffffffffffffffffff\n      and\n      dup2\n      mstore\n      0x20\n      add\n      swap1\n      dup2\n      mstore\n      0x20\n      add\n      0x00\n      keccak256\n      sload\n        /* \"contracts/MetraToken.sol\":2588:2613  return _balances[account] */\n      swap1\n      pop\n        /* \"contracts/MetraToken.sol\":2514:2618  function balanceOf(address account) external view returns (uint256) {... */\n      swap2\n      swap1\n      pop\n      jump\t// out\n        /* \"contracts/Ownable.sol\":1461:1598  function renounceOwnership() public onlyOwner {... */\n    tag_62:\n        /* \"contracts/Ownable.sol\":783:793  msg.sender */\n      caller\n        /* \"contracts/Ownable.sol\":773:793  _owner == msg.sender */\n      0xffffffffffffffffffffffffffffffffffffffff\n      and\n        /* \"contracts/Ownable.sol\":773:779  _owner */\n      0x00\n      dup1\n      sload\n      swap1\n      0x0100\n      exp\n      swap1\n      div\n      0xffffffffffffffffffffffffffffffffffffffff\n      and\n        /* \"contracts/Ownable.sol\":773:793  _owner == msg.sender */\n      0xffffffffffffffffffffffffffffffffffffffff\n      and\n      eq\n        /* \"contracts/Ownable.sol\":765:840  require(_owner == msg.sender, \"Ownable: only owner can call this function\") */\n      tag_133\n      jumpi\n      mload(0x40)\n      0x08c379a000000000000000000000000000000000000000000000000000000000\n      dup2\n      mstore\n      0x04\n      add\n      tag_134\n      swap1\n      tag_135\n      jump\t// in\n    tag_134:\n      mload(0x40)\n      dup1\n      swap2\n      sub\n      swap1\n      revert\n    tag_133:\n        /* \"contracts/Ownable.sol\":1559:1560  0 */\n      0x00\n        /* \"contracts/Ownable.sol\":1522:1562  OwnershipTransferred(_owner, address(0)) */\n      0xffffffffffffffffffffffffffffffffffffffff\n      and\n        /* \"contracts/Ownable.sol\":1543:1549  _owner */\n      0x00\n      dup1\n      sload\n      swap1\n      0x0100\n      exp\n      swap1\n      div\n      0xffffffffffffffffffffffffffffffffffffffff\n      and\n        /* \"contracts/Ownable.sol\":1522:1562  OwnershipTransferred(_owner, address(0)) */\n      0xffffffffffffffffffffffffffffffffffffffff\n      and\n      0x8be0079c531659141344cd1fd0a4f28419497f9722a3daafe3b4186f6b6457e0\n      mload(0x40)\n      mload(0x40)\n      dup1\n      swap2\n      sub\n      swap1\n      log3\n        /* \"contracts/Ownable.sol\":1589:1590  0 */\n      0x00\n        /* \"contracts/Ownable.sol\":1572:1578  _owner */\n      dup1\n      0x00\n        /* \"contracts/Ownable.sol\":1572:1591  _owner = address(0) */\n      0x0100\n      exp\n      dup2\n      sload\n      dup2\n      0xffffffffffffffffffffffffffffffffffffffff\n      mul\n      not\n      and\n      swap1\n      dup4\n      0xffffffffffffffffffffffffffffffffffffffff\n      and\n      mul\n      or\n      swap1\n      sstore\n      pop\n        /* \"contracts/Ownable.sol\":1461:1598  function renounceOwnership() public onlyOwner {... */\n      jump\t// out\n        /* \"contracts/MetraToken.sol\":5656:5733  function getOwner() external view returns (address) {... */\n    tag_64:\n        /* \"contracts/MetraToken.sol\":5699:5706  address */\n      0x00\n        /* \"contracts/MetraToken.sol\":5721:5728  owner() */\n      tag_138\n        /* \"contracts/MetraToken.sol\":5721:5726  owner */\n      tag_68\n        /* \"contracts/MetraToken.sol\":5721:5728  owner() */\n      jump\t// in\n    tag_138:\n        /* \"contracts/MetraToken.sol\":5714:5728  return owner() */\n      swap1\n      pop\n        /* \"contracts/MetraToken.sol\":5656:5733  function getOwner() external view returns (address) {... */\n      swap1\n      jump\t// out\n        /* \"contracts/Ownable.sol\":1137:1214  function owner() public view returns(address) {... */\n    tag_68:\n        /* \"contracts/Ownable.sol\":1174:1181  address */\n      0x00\n        /* \"contracts/Ownable.sol\":1200:1206  _owner */\n      dup1\n      0x00\n      swap1\n      sload\n      swap1\n      0x0100\n      exp\n      swap1\n      div\n      0xffffffffffffffffffffffffffffffffffffffff\n      and\n        /* \"contracts/Ownable.sol\":1193:1206  return _owner */\n      swap1\n      pop\n        /* \"contracts/Ownable.sol\":1137:1214  function owner() public view returns(address) {... */\n      swap1\n      jump\t// out\n        /* \"contracts/MetraToken.sol\":2139:2224  function symbol() public pure returns (string memory) {... */\n    tag_71:\n        /* \"contracts/MetraToken.sol\":2178:2191  string memory */\n      0x60\n        /* \"contracts/MetraToken.sol\":2203:2217  return \"MATIC\" */\n      mload(0x40)\n      dup1\n      0x40\n      add\n      0x40\n      mstore\n      dup1\n      0x05\n      dup2\n      mstore\n      0x20\n      add\n      0x4d41544943000000000000000000000000000000000000000000000000000000\n      dup2\n      mstore\n      pop\n      swap1\n      pop\n        /* \"contracts/MetraToken.sol\":2139:2224  function symbol() public pure returns (string memory) {... */\n      swap1\n      jump\t// out\n        /* \"contracts/MetraToken.sol\":4257:4385  function burn(address account, uint256 amount) public onlyOwner returns(bool) {... */\n    tag_75:\n        /* \"contracts/MetraToken.sol\":4329:4333  bool */\n      0x00\n        /* \"contracts/Ownable.sol\":783:793  msg.sender */\n      caller\n        /* \"contracts/Ownable.sol\":773:793  _owner == msg.sender */\n      0xffffffffffffffffffffffffffffffffffffffff\n      and\n        /* \"contracts/Ownable.sol\":773:779  _owner */\n      0x00\n      dup1\n      sload\n      swap1\n      0x0100\n      exp\n      swap1\n      div\n      0xffffffffffffffffffffffffffffffffffffffff\n      and\n        /* \"contracts/Ownable.sol\":773:793  _owner == msg.sender */\n      0xffffffffffffffffffffffffffffffffffffffff\n      and\n      eq\n        /* \"contracts/Ownable.sol\":765:840  require(_owner == msg.sender, \"Ownable: only owner can call this function\") */\n      tag_142\n      jumpi\n      mload(0x40)\n      0x08c379a000000000000000000000000000000000000000000000000000000000\n      dup2\n      mstore\n      0x04\n      add\n      tag_143\n      swap1\n      tag_135\n      jump\t// in\n    tag_143:\n      mload(0x40)\n      dup1\n      swap2\n      sub\n      swap1\n      revert\n    tag_142:\n        /* \"contracts/MetraToken.sol\":4341:4363  _burn(account, amount) */\n      tag_145\n        /* \"contracts/MetraToken.sol\":4347:4354  account */\n      dup4\n        /* \"contracts/MetraToken.sol\":4356:4362  amount */\n      dup4\n        /* \"contracts/MetraToken.sol\":4341:4346  _burn */\n      tag_146\n        /* \"contracts/MetraToken.sol\":4341:4363  _burn(account, amount) */\n      jump\t// in\n    tag_145:\n        /* \"contracts/MetraToken.sol\":4376:4380  true */\n      0x01\n        /* \"contracts/MetraToken.sol\":4369:4380  return true */\n      swap1\n      pop\n        /* \"contracts/MetraToken.sol\":4257:4385  function burn(address account, uint256 amount) public onlyOwner returns(bool) {... */\n      swap3\n      swap2\n      pop\n      pop\n      jump\t// out\n        /* \"contracts/MetraToken.sol\":8021:8207  function decreaseAllowance(address spender, uint256 amount) public returns (bool) {... */\n    tag_79:\n        /* \"contracts/MetraToken.sol\":8097:8101  bool */\n      0x00\n        /* \"contracts/MetraToken.sol\":8111:8181  _approve(msg.sender, spender, _allowances[msg.sender][spender]-amount) */\n      tag_148\n        /* \"contracts/MetraToken.sol\":8120:8130  msg.sender */\n      caller\n        /* \"contracts/MetraToken.sol\":8132:8139  spender */\n      dup5\n        /* \"contracts/MetraToken.sol\":8174:8180  amount */\n      dup5\n        /* \"contracts/MetraToken.sol\":8141:8152  _allowances */\n      0x09\n        /* \"contracts/MetraToken.sol\":8141:8164  _allowances[msg.sender] */\n      0x00\n        /* \"contracts/MetraToken.sol\":8153:8163  msg.sender */\n      caller\n        /* \"contracts/MetraToken.sol\":8141:8164  _allowances[msg.sender] */\n      0xffffffffffffffffffffffffffffffffffffffff\n      and\n      0xffffffffffffffffffffffffffffffffffffffff\n      and\n      dup2\n      mstore\n      0x20\n      add\n      swap1\n      dup2\n      mstore\n      0x20\n      add\n      0x00\n      keccak256\n        /* \"contracts/MetraToken.sol\":8141:8173  _allowances[msg.sender][spender] */\n      0x00\n        /* \"contracts/MetraToken.sol\":8165:8172  spender */\n      dup9\n        /* \"contracts/MetraToken.sol\":8141:8173  _allowances[msg.sender][spender] */\n      0xffffffffffffffffffffffffffffffffffffffff\n      and\n      0xffffffffffffffffffffffffffffffffffffffff\n      and\n      dup2\n      mstore\n      0x20\n      add\n      swap1\n      dup2\n      mstore\n      0x20\n      add\n      0x00\n      keccak256\n      sload\n        /* \"contracts/MetraToken.sol\":8141:8180  _allowances[msg.sender][spender]-amount */\n      tag_149\n      swap2\n      swap1\n      tag_119\n      jump\t// in\n    tag_149:\n        /* \"contracts/MetraToken.sol\":8111:8119  _approve */\n      tag_105\n        /* \"contracts/MetraToken.sol\":8111:8181  _approve(msg.sender, spender, _allowances[msg.sender][spender]-amount) */\n      jump\t// in\n    tag_148:\n        /* \"contracts/MetraToken.sol\":8196:8200  true */\n      0x01\n        /* \"contracts/MetraToken.sol\":8189:8200  return true */\n      swap1\n      pop\n        /* \"contracts/MetraToken.sol\":8021:8207  function decreaseAllowance(address spender, uint256 amount) public returns (bool) {... */\n      swap3\n      swap2\n      pop\n      pop\n      jump\t// out\n        /* \"contracts/MetraToken.sol\":8294:8600  function stake(uint256 _amount) public {... */\n    tag_84:\n        /* \"contracts/MetraToken.sol\":8409:8418  _balances */\n      0x08\n        /* \"contracts/MetraToken.sol\":8409:8430  _balances[msg.sender] */\n      0x00\n        /* \"contracts/MetraToken.sol\":8419:8429  msg.sender */\n      caller\n        /* \"contracts/MetraToken.sol\":8409:8430  _balances[msg.sender] */\n      0xffffffffffffffffffffffffffffffffffffffff\n      and\n      0xffffffffffffffffffffffffffffffffffffffff\n      and\n      dup2\n      mstore\n      0x20\n      add\n      swap1\n      dup2\n      mstore\n      0x20\n      add\n      0x00\n      keccak256\n      sload\n        /* \"contracts/MetraToken.sol\":8399:8406  _amount */\n      dup2\n        /* \"contracts/MetraToken.sol\":8399:8430  _amount < _balances[msg.sender] */\n      lt\n        /* \"contracts/MetraToken.sol\":8391:8472  require(_amount < _balances[msg.sender], \"Metra: Cannot stake more than you own\") */\n      tag_151\n      jumpi\n      mload(0x40)\n      0x08c379a000000000000000000000000000000000000000000000000000000000\n      dup2\n      mstore\n      0x04\n      add\n      tag_152\n      swap1\n      tag_153\n      jump\t// in\n    tag_152:\n      mload(0x40)\n      dup1\n      swap2\n      sub\n      swap1\n      revert\n    tag_151:\n        /* \"contracts/MetraToken.sol\":8483:8498  _stake(_amount) */\n      tag_154\n        /* \"contracts/MetraToken.sol\":8490:8497  _amount */\n      dup2\n        /* \"contracts/MetraToken.sol\":8483:8489  _stake */\n      tag_155\n        /* \"contracts/MetraToken.sol\":8483:8498  _stake(_amount) */\n      jump\t// in\n    tag_154:\n        /* \"contracts/MetraToken.sol\":8567:8593  _burn(msg.sender, _amount) */\n      tag_156\n        /* \"contracts/MetraToken.sol\":8573:8583  msg.sender */\n      caller\n        /* \"contracts/MetraToken.sol\":8585:8592  _amount */\n      dup3\n        /* \"contracts/MetraToken.sol\":8567:8572  _burn */\n      tag_146\n        /* \"contracts/MetraToken.sol\":8567:8593  _burn(msg.sender, _amount) */\n      jump\t// in\n    tag_156:\n        /* \"contracts/MetraToken.sol\":8294:8600  function stake(uint256 _amount) public {... */\n      pop\n      jump\t// out\n        /* \"contracts/MetraToken.sol\":4687:4832  function transfer(address recipient, uint256 amount) external returns (bool) {... */\n    tag_87:\n        /* \"contracts/MetraToken.sol\":4758:4762  bool */\n      0x00\n        /* \"contracts/MetraToken.sol\":4770:4810  _transfer(msg.sender, recipient, amount) */\n      tag_158\n        /* \"contracts/MetraToken.sol\":4780:4790  msg.sender */\n      caller\n        /* \"contracts/MetraToken.sol\":4792:4801  recipient */\n      dup5\n        /* \"contracts/MetraToken.sol\":4803:4809  amount */\n      dup5\n        /* \"contracts/MetraToken.sol\":4770:4779  _transfer */\n      tag_116\n        /* \"contracts/MetraToken.sol\":4770:4810  _transfer(msg.sender, recipient, amount) */\n      jump\t// in\n    tag_158:\n        /* \"contracts/MetraToken.sol\":4823:4827  true */\n      0x01\n        /* \"contracts/MetraToken.sol\":4816:4827  return true */\n      swap1\n      pop\n        /* \"contracts/MetraToken.sol\":4687:4832  function transfer(address recipient, uint256 amount) external returns (bool) {... */\n      swap3\n      swap2\n      pop\n      pop\n      jump\t// out\n        /* \"contracts/MetraToken.sol\":5818:5946  function allowance(address owner, address spender) external view returns(uint256){... */\n    tag_92:\n        /* \"contracts/MetraToken.sol\":5891:5898  uint256 */\n      0x00\n        /* \"contracts/MetraToken.sol\":5913:5924  _allowances */\n      0x09\n        /* \"contracts/MetraToken.sol\":5913:5931  _allowances[owner] */\n      0x00\n        /* \"contracts/MetraToken.sol\":5925:5930  owner */\n      dup5\n        /* \"contracts/MetraToken.sol\":5913:5931  _allowances[owner] */\n      0xffffffffffffffffffffffffffffffffffffffff\n      and\n      0xffffffffffffffffffffffffffffffffffffffff\n      and\n      dup2\n      mstore\n      0x20\n      add\n      swap1\n      dup2\n      mstore\n      0x20\n      add\n      0x00\n      keccak256\n        /* \"contracts/MetraToken.sol\":5913:5940  _allowances[owner][spender] */\n      0x00\n        /* \"contracts/MetraToken.sol\":5932:5939  spender */\n      dup4\n        /* \"contracts/MetraToken.sol\":5913:5940  _allowances[owner][spender] */\n      0xffffffffffffffffffffffffffffffffffffffff\n      and\n      0xffffffffffffffffffffffffffffffffffffffff\n      and\n      dup2\n      mstore\n      0x20\n      add\n      swap1\n      dup2\n      mstore\n      0x20\n      add\n      0x00\n      keccak256\n      sload\n        /* \"contracts/MetraToken.sol\":5906:5940  return _allowances[owner][spender] */\n      swap1\n      pop\n        /* \"contracts/MetraToken.sol\":5818:5946  function allowance(address owner, address spender) external view returns(uint256){... */\n      swap3\n      swap2\n      pop\n      pop\n      jump\t// out\n        /* \"contracts/Stakeable.sol\":6899:7727  function hasStake(address _staker) public view returns(StakingSummary memory){... */\n    tag_96:\n        /* \"contracts/Stakeable.sol\":6954:6975  StakingSummary memory */\n      tag_160\n      tag_161\n      jump\t// in\n    tag_160:\n        /* \"contracts/Stakeable.sol\":7066:7090  uint256 totalStakeAmount */\n      0x00\n        /* \"contracts/Stakeable.sol\":7169:7198  StakingSummary memory summary */\n      dup1\n        /* \"contracts/Stakeable.sol\":7201:7264  StakingSummary(0, stakeholders[stakes[_staker]].address_stakes) */\n      mload(0x40)\n      dup1\n      0x40\n      add\n      0x40\n      mstore\n      dup1\n        /* \"contracts/Stakeable.sol\":7216:7217  0 */\n      0x00\n        /* \"contracts/Stakeable.sol\":7201:7264  StakingSummary(0, stakeholders[stakes[_staker]].address_stakes) */\n      dup2\n      mstore\n      0x20\n      add\n        /* \"contracts/Stakeable.sol\":7219:7231  stakeholders */\n      0x01\n        /* \"contracts/Stakeable.sol\":7232:7238  stakes */\n      0x02\n        /* \"contracts/Stakeable.sol\":7232:7247  stakes[_staker] */\n      0x00\n        /* \"contracts/Stakeable.sol\":7239:7246  _staker */\n      dup9\n        /* \"contracts/Stakeable.sol\":7232:7247  stakes[_staker] */\n      0xffffffffffffffffffffffffffffffffffffffff\n      and\n      0xffffffffffffffffffffffffffffffffffffffff\n      and\n      dup2\n      mstore\n      0x20\n      add\n      swap1\n      dup2\n      mstore\n      0x20\n      add\n      0x00\n      keccak256\n      sload\n        /* \"contracts/Stakeable.sol\":7219:7248  stakeholders[stakes[_staker]] */\n      dup2\n      sload\n      dup2\n      lt\n      tag_163\n      jumpi\n      tag_164\n      tag_165\n      jump\t// in\n    tag_164:\n    tag_163:\n      swap1\n      0x00\n      mstore\n      keccak256(0x00, 0x20)\n      swap1\n      0x02\n      mul\n      add\n        /* \"contracts/Stakeable.sol\":7219:7263  stakeholders[stakes[_staker]].address_stakes */\n      0x01\n      add\n        /* \"contracts/Stakeable.sol\":7201:7264  StakingSummary(0, stakeholders[stakes[_staker]].address_stakes) */\n      dup1\n      sload\n      dup1\n      0x20\n      mul\n      0x20\n      add\n      mload(0x40)\n      swap1\n      dup2\n      add\n      0x40\n      mstore\n      dup1\n      swap3\n      swap2\n      swap1\n      dup2\n      dup2\n      mstore\n      0x20\n      add\n      0x00\n      swap1\n    tag_167:\n      dup3\n      dup3\n      lt\n      iszero\n      tag_168\n      jumpi\n      dup4\n      dup3\n      swap1\n      0x00\n      mstore\n      keccak256(0x00, 0x20)\n      swap1\n      0x04\n      mul\n      add\n      mload(0x40)\n      dup1\n      0x80\n      add\n      0x40\n      mstore\n      swap1\n      dup2\n      0x00\n      dup3\n      add\n      0x00\n      swap1\n      sload\n      swap1\n      0x0100\n      exp\n      swap1\n      div\n      0xffffffffffffffffffffffffffffffffffffffff\n      and\n      0xffffffffffffffffffffffffffffffffffffffff\n      and\n      0xffffffffffffffffffffffffffffffffffffffff\n      and\n      dup2\n      mstore\n      0x20\n      add\n      0x01\n      dup3\n      add\n      sload\n      dup2\n      mstore\n      0x20\n      add\n      0x02\n      dup3\n      add\n      sload\n      dup2\n      mstore\n      0x20\n      add\n      0x03\n      dup3\n      add\n      sload\n      dup2\n      mstore\n      pop\n      pop\n      dup2\n      mstore\n      0x20\n      add\n      swap1\n      0x01\n      add\n      swap1\n      jump(tag_167)\n    tag_168:\n      pop\n      pop\n      pop\n      pop\n      dup2\n      mstore\n      pop\n        /* \"contracts/Stakeable.sol\":7169:7264  StakingSummary memory summary = StakingSummary(0, stakeholders[stakes[_staker]].address_stakes) */\n      swap1\n      pop\n        /* \"contracts/Stakeable.sol\":7336:7345  uint256 s */\n      0x00\n        /* \"contracts/Stakeable.sol\":7331:7604  for (uint256 s = 0; s < summary.stakes.length; s += 1){... */\n    tag_170:\n        /* \"contracts/Stakeable.sol\":7355:7362  summary */\n      dup2\n        /* \"contracts/Stakeable.sol\":7355:7369  summary.stakes */\n      0x20\n      add\n      mload\n        /* \"contracts/Stakeable.sol\":7355:7376  summary.stakes.length */\n      mload\n        /* \"contracts/Stakeable.sol\":7351:7352  s */\n      dup2\n        /* \"contracts/Stakeable.sol\":7351:7376  s < summary.stakes.length */\n      lt\n        /* \"contracts/Stakeable.sol\":7331:7604  for (uint256 s = 0; s < summary.stakes.length; s += 1){... */\n      iszero\n      tag_171\n      jumpi\n        /* \"contracts/Stakeable.sol\":7398:7421  uint256 availableReward */\n      0x00\n        /* \"contracts/Stakeable.sol\":7424:7463  calculateStakeReward(summary.stakes[s]) */\n      tag_173\n        /* \"contracts/Stakeable.sol\":7445:7452  summary */\n      dup4\n        /* \"contracts/Stakeable.sol\":7445:7459  summary.stakes */\n      0x20\n      add\n      mload\n        /* \"contracts/Stakeable.sol\":7460:7461  s */\n      dup4\n        /* \"contracts/Stakeable.sol\":7445:7462  summary.stakes[s] */\n      dup2\n      mload\n      dup2\n      lt\n      tag_174\n      jumpi\n      tag_175\n      tag_165\n      jump\t// in\n    tag_175:\n    tag_174:\n      0x20\n      mul\n      0x20\n      add\n      add\n      mload\n        /* \"contracts/Stakeable.sol\":7424:7444  calculateStakeReward */\n      tag_176\n        /* \"contracts/Stakeable.sol\":7424:7463  calculateStakeReward(summary.stakes[s]) */\n      jump\t// in\n    tag_173:\n        /* \"contracts/Stakeable.sol\":7398:7463  uint256 availableReward = calculateStakeReward(summary.stakes[s]) */\n      swap1\n      pop\n        /* \"contracts/Stakeable.sol\":7506:7521  availableReward */\n      dup1\n        /* \"contracts/Stakeable.sol\":7476:7483  summary */\n      dup4\n        /* \"contracts/Stakeable.sol\":7476:7490  summary.stakes */\n      0x20\n      add\n      mload\n        /* \"contracts/Stakeable.sol\":7491:7492  s */\n      dup4\n        /* \"contracts/Stakeable.sol\":7476:7493  summary.stakes[s] */\n      dup2\n      mload\n      dup2\n      lt\n      tag_177\n      jumpi\n      tag_178\n      tag_165\n      jump\t// in\n    tag_178:\n    tag_177:\n      0x20\n      mul\n      0x20\n      add\n      add\n      mload\n        /* \"contracts/Stakeable.sol\":7476:7503  summary.stakes[s].claimable */\n      0x60\n      add\n        /* \"contracts/Stakeable.sol\":7476:7521  summary.stakes[s].claimable = availableReward */\n      dup2\n      dup2\n      mstore\n      pop\n      pop\n        /* \"contracts/Stakeable.sol\":7570:7577  summary */\n      dup3\n        /* \"contracts/Stakeable.sol\":7570:7584  summary.stakes */\n      0x20\n      add\n      mload\n        /* \"contracts/Stakeable.sol\":7585:7586  s */\n      dup3\n        /* \"contracts/Stakeable.sol\":7570:7587  summary.stakes[s] */\n      dup2\n      mload\n      dup2\n      lt\n      tag_179\n      jumpi\n      tag_180\n      tag_165\n      jump\t// in\n    tag_180:\n    tag_179:\n      0x20\n      mul\n      0x20\n      add\n      add\n      mload\n        /* \"contracts/Stakeable.sol\":7570:7594  summary.stakes[s].amount */\n      0x20\n      add\n      mload\n        /* \"contracts/Stakeable.sol\":7553:7569  totalStakeAmount */\n      dup5\n        /* \"contracts/Stakeable.sol\":7553:7594  totalStakeAmount+summary.stakes[s].amount */\n      tag_181\n      swap2\n      swap1\n      tag_123\n      jump\t// in\n    tag_181:\n        /* \"contracts/Stakeable.sol\":7534:7594  totalStakeAmount = totalStakeAmount+summary.stakes[s].amount */\n      swap4\n      pop\n        /* \"contracts/Stakeable.sol\":7385:7604  {... */\n      pop\n        /* \"contracts/Stakeable.sol\":7383:7384  1 */\n      0x01\n        /* \"contracts/Stakeable.sol\":7378:7384  s += 1 */\n      dup2\n      tag_182\n      swap2\n      swap1\n      tag_123\n      jump\t// in\n    tag_182:\n      swap1\n      pop\n        /* \"contracts/Stakeable.sol\":7331:7604  for (uint256 s = 0; s < summary.stakes.length; s += 1){... */\n      jump(tag_170)\n    tag_171:\n      pop\n        /* \"contracts/Stakeable.sol\":7680:7696  totalStakeAmount */\n      dup2\n        /* \"contracts/Stakeable.sol\":7657:7664  summary */\n      dup2\n        /* \"contracts/Stakeable.sol\":7657:7677  summary.total_amount */\n      0x00\n      add\n        /* \"contracts/Stakeable.sol\":7657:7696  summary.total_amount = totalStakeAmount */\n      dup2\n      dup2\n      mstore\n      pop\n      pop\n        /* \"contracts/Stakeable.sol\":7713:7720  summary */\n      dup1\n        /* \"contracts/Stakeable.sol\":7706:7720  return summary */\n      swap3\n      pop\n      pop\n      pop\n        /* \"contracts/Stakeable.sol\":6899:7727  function hasStake(address _staker) public view returns(StakingSummary memory){... */\n      swap2\n      swap1\n      pop\n      jump\t// out\n        /* \"contracts/Ownable.sol\":1694:1801  function transferOwnership(address newOwner) public onlyOwner {... */\n    tag_101:\n        /* \"contracts/Ownable.sol\":783:793  msg.sender */\n      caller\n        /* \"contracts/Ownable.sol\":773:793  _owner == msg.sender */\n      0xffffffffffffffffffffffffffffffffffffffff\n      and\n        /* \"contracts/Ownable.sol\":773:779  _owner */\n      0x00\n      dup1\n      sload\n      swap1\n      0x0100\n      exp\n      swap1\n      div\n      0xffffffffffffffffffffffffffffffffffffffff\n      and\n        /* \"contracts/Ownable.sol\":773:793  _owner == msg.sender */\n      0xffffffffffffffffffffffffffffffffffffffff\n      and\n      eq\n        /* \"contracts/Ownable.sol\":765:840  require(_owner == msg.sender, \"Ownable: only owner can call this function\") */\n      tag_184\n      jumpi\n      mload(0x40)\n      0x08c379a000000000000000000000000000000000000000000000000000000000\n      dup2\n      mstore\n      0x04\n      add\n      tag_185\n      swap1\n      tag_135\n      jump\t// in\n    tag_185:\n      mload(0x40)\n      dup1\n      swap2\n      sub\n      swap1\n      revert\n    tag_184:\n        /* \"contracts/Ownable.sol\":1766:1794  _transferOwnership(newOwner) */\n      tag_187\n        /* \"contracts/Ownable.sol\":1785:1793  newOwner */\n      dup2\n        /* \"contracts/Ownable.sol\":1766:1784  _transferOwnership */\n      tag_188\n        /* \"contracts/Ownable.sol\":1766:1794  _transferOwnership(newOwner) */\n      jump\t// in\n    tag_187:\n        /* \"contracts/Ownable.sol\":1694:1801  function transferOwnership(address newOwner) public onlyOwner {... */\n      pop\n      jump\t// out\n        /* \"contracts/MetraToken.sol\":6413:6851  function _approve(address owner, address spender, uint256 amount) internal {... */\n    tag_105:\n        /* \"contracts/MetraToken.sol\":6521:6522  0 */\n      0x00\n        /* \"contracts/MetraToken.sol\":6504:6523  owner != address(0) */\n      0xffffffffffffffffffffffffffffffffffffffff\n      and\n        /* \"contracts/MetraToken.sol\":6504:6509  owner */\n      dup4\n        /* \"contracts/MetraToken.sol\":6504:6523  owner != address(0) */\n      0xffffffffffffffffffffffffffffffffffffffff\n      and\n      sub\n        /* \"contracts/MetraToken.sol\":6496:6575  require(owner != address(0), \"Metra: approve cannot be done from zero address\") */\n      tag_190\n      jumpi\n      mload(0x40)\n      0x08c379a000000000000000000000000000000000000000000000000000000000\n      dup2\n      mstore\n      0x04\n      add\n      tag_191\n      swap1\n      tag_192\n      jump\t// in\n    tag_191:\n      mload(0x40)\n      dup1\n      swap2\n      sub\n      swap1\n      revert\n    tag_190:\n        /* \"contracts/MetraToken.sol\":6610:6611  0 */\n      0x00\n        /* \"contracts/MetraToken.sol\":6591:6612  spender != address(0) */\n      0xffffffffffffffffffffffffffffffffffffffff\n      and\n        /* \"contracts/MetraToken.sol\":6591:6598  spender */\n      dup3\n        /* \"contracts/MetraToken.sol\":6591:6612  spender != address(0) */\n      0xffffffffffffffffffffffffffffffffffffffff\n      and\n      sub\n        /* \"contracts/MetraToken.sol\":6583:6657  require(spender != address(0), \"Metra: approve cannot be to zero address\") */\n      tag_193\n      jumpi\n      mload(0x40)\n      0x08c379a000000000000000000000000000000000000000000000000000000000\n      dup2\n      mstore\n      0x04\n      add\n      tag_194\n      swap1\n      tag_195\n      jump\t// in\n    tag_194:\n      mload(0x40)\n      dup1\n      swap2\n      sub\n      swap1\n      revert\n    tag_193:\n        /* \"contracts/MetraToken.sol\":6794:6800  amount */\n      dup1\n        /* \"contracts/MetraToken.sol\":6764:6775  _allowances */\n      0x09\n        /* \"contracts/MetraToken.sol\":6764:6782  _allowances[owner] */\n      0x00\n        /* \"contracts/MetraToken.sol\":6776:6781  owner */\n      dup6\n        /* \"contracts/MetraToken.sol\":6764:6782  _allowances[owner] */\n      0xffffffffffffffffffffffffffffffffffffffff\n      and\n      0xffffffffffffffffffffffffffffffffffffffff\n      and\n      dup2\n      mstore\n      0x20\n      add\n      swap1\n      dup2\n      mstore\n      0x20\n      add\n      0x00\n      keccak256\n        /* \"contracts/MetraToken.sol\":6764:6791  _allowances[owner][spender] */\n      0x00\n        /* \"contracts/MetraToken.sol\":6783:6790  spender */\n      dup5\n        /* \"contracts/MetraToken.sol\":6764:6791  _allowances[owner][spender] */\n      0xffffffffffffffffffffffffffffffffffffffff\n      and\n      0xffffffffffffffffffffffffffffffffffffffff\n      and\n      dup2\n      mstore\n      0x20\n      add\n      swap1\n      dup2\n      mstore\n      0x20\n      add\n      0x00\n      keccak256\n        /* \"contracts/MetraToken.sol\":6764:6800  _allowances[owner][spender] = amount */\n      dup2\n      swap1\n      sstore\n      pop\n        /* \"contracts/MetraToken.sol\":6829:6836  spender */\n      dup2\n        /* \"contracts/MetraToken.sol\":6814:6844  Approval(owner,spender,amount) */\n      0xffffffffffffffffffffffffffffffffffffffff\n      and\n        /* \"contracts/MetraToken.sol\":6823:6828  owner */\n      dup4\n        /* \"contracts/MetraToken.sol\":6814:6844  Approval(owner,spender,amount) */\n      0xffffffffffffffffffffffffffffffffffffffff\n      and\n      0x8c5be1e5ebec7d5bd14f71427d1e84f3dd0314c0f7b2291e5b200ac8c7c3b925\n        /* \"contracts/MetraToken.sol\":6837:6843  amount */\n      dup4\n        /* \"contracts/MetraToken.sol\":6814:6844  Approval(owner,spender,amount) */\n      mload(0x40)\n      tag_196\n      swap2\n      swap1\n      tag_38\n      jump\t// in\n    tag_196:\n      mload(0x40)\n      dup1\n      swap2\n      sub\n      swap1\n      log3\n        /* \"contracts/MetraToken.sol\":6413:6851  function _approve(address owner, address spender, uint256 amount) internal {... */\n      pop\n      pop\n      pop\n      jump\t// out\n        /* \"contracts/MetraToken.sol\":5065:5547  function _transfer(address sender, address recipient, uint256 amount) internal {... */\n    tag_116:\n        /* \"contracts/MetraToken.sol\":5176:5177  0 */\n      0x00\n        /* \"contracts/MetraToken.sol\":5158:5178  sender != address(0) */\n      0xffffffffffffffffffffffffffffffffffffffff\n      and\n        /* \"contracts/MetraToken.sol\":5158:5164  sender */\n      dup4\n        /* \"contracts/MetraToken.sol\":5158:5178  sender != address(0) */\n      0xffffffffffffffffffffffffffffffffffffffff\n      and\n      sub\n        /* \"contracts/MetraToken.sol\":5150:5216  require(sender != address(0), \"Metra: transfer from zero address\") */\n      tag_198\n      jumpi\n      mload(0x40)\n      0x08c379a000000000000000000000000000000000000000000000000000000000\n      dup2\n      mstore\n      0x04\n      add\n      tag_199\n      swap1\n      tag_200\n      jump\t// in\n    tag_199:\n      mload(0x40)\n      dup1\n      swap2\n      sub\n      swap1\n      revert\n    tag_198:\n        /* \"contracts/MetraToken.sol\":5251:5252  0 */\n      0x00\n        /* \"contracts/MetraToken.sol\":5230:5253  recipient != address(0) */\n      0xffffffffffffffffffffffffffffffffffffffff\n      and\n        /* \"contracts/MetraToken.sol\":5230:5239  recipient */\n      dup3\n        /* \"contracts/MetraToken.sol\":5230:5253  recipient != address(0) */\n      0xffffffffffffffffffffffffffffffffffffffff\n      and\n      sub\n        /* \"contracts/MetraToken.sol\":5222:5289  require(recipient != address(0), \"Metra: transfer to zero address\") */\n      tag_201\n      jumpi\n      mload(0x40)\n      0x08c379a000000000000000000000000000000000000000000000000000000000\n      dup2\n      mstore\n      0x04\n      add\n      tag_202\n      swap1\n      tag_203\n      jump\t// in\n    tag_202:\n      mload(0x40)\n      dup1\n      swap2\n      sub\n      swap1\n      revert\n    tag_201:\n        /* \"contracts/MetraToken.sol\":5324:5330  amount */\n      dup1\n        /* \"contracts/MetraToken.sol\":5303:5312  _balances */\n      0x08\n        /* \"contracts/MetraToken.sol\":5303:5320  _balances[sender] */\n      0x00\n        /* \"contracts/MetraToken.sol\":5313:5319  sender */\n      dup6\n        /* \"contracts/MetraToken.sol\":5303:5320  _balances[sender] */\n      0xffffffffffffffffffffffffffffffffffffffff\n      and\n      0xffffffffffffffffffffffffffffffffffffffff\n      and\n      dup2\n      mstore\n      0x20\n      add\n      swap1\n      dup2\n      mstore\n      0x20\n      add\n      0x00\n      keccak256\n      sload\n        /* \"contracts/MetraToken.sol\":5303:5330  _balances[sender] >= amount */\n      lt\n      iszero\n        /* \"contracts/MetraToken.sol\":5295:5384  require(_balances[sender] >= amount, \"Metra: cant transfer more than your account holds\") */\n      tag_204\n      jumpi\n      mload(0x40)\n      0x08c379a000000000000000000000000000000000000000000000000000000000\n      dup2\n      mstore\n      0x04\n      add\n      tag_205\n      swap1\n      tag_206\n      jump\t// in\n    tag_205:\n      mload(0x40)\n      dup1\n      swap2\n      sub\n      swap1\n      revert\n    tag_204:\n        /* \"contracts/MetraToken.sol\":5431:5437  amount */\n      dup1\n        /* \"contracts/MetraToken.sol\":5411:5420  _balances */\n      0x08\n        /* \"contracts/MetraToken.sol\":5411:5428  _balances[sender] */\n      0x00\n        /* \"contracts/MetraToken.sol\":5421:5427  sender */\n      dup6\n        /* \"contracts/MetraToken.sol\":5411:5428  _balances[sender] */\n      0xffffffffffffffffffffffffffffffffffffffff\n      and\n      0xffffffffffffffffffffffffffffffffffffffff\n      and\n      dup2\n      mstore\n      0x20\n      add\n      swap1\n      dup2\n      mstore\n      0x20\n      add\n      0x00\n      keccak256\n      sload\n        /* \"contracts/MetraToken.sol\":5411:5437  _balances[sender] - amount */\n      tag_207\n      swap2\n      swap1\n      tag_119\n      jump\t// in\n    tag_207:\n        /* \"contracts/MetraToken.sol\":5391:5400  _balances */\n      0x08\n        /* \"contracts/MetraToken.sol\":5391:5408  _balances[sender] */\n      0x00\n        /* \"contracts/MetraToken.sol\":5401:5407  sender */\n      dup6\n        /* \"contracts/MetraToken.sol\":5391:5408  _balances[sender] */\n      0xffffffffffffffffffffffffffffffffffffffff\n      and\n      0xffffffffffffffffffffffffffffffffffffffff\n      and\n      dup2\n      mstore\n      0x20\n      add\n      swap1\n      dup2\n      mstore\n      0x20\n      add\n      0x00\n      keccak256\n        /* \"contracts/MetraToken.sol\":5391:5437  _balances[sender] = _balances[sender] - amount */\n      dup2\n      swap1\n      sstore\n      pop\n        /* \"contracts/MetraToken.sol\":5489:5495  amount */\n      dup1\n        /* \"contracts/MetraToken.sol\":5466:5475  _balances */\n      0x08\n        /* \"contracts/MetraToken.sol\":5466:5486  _balances[recipient] */\n      0x00\n        /* \"contracts/MetraToken.sol\":5476:5485  recipient */\n      dup5\n        /* \"contracts/MetraToken.sol\":5466:5486  _balances[recipient] */\n      0xffffffffffffffffffffffffffffffffffffffff\n      and\n      0xffffffffffffffffffffffffffffffffffffffff\n      and\n      dup2\n      mstore\n      0x20\n      add\n      swap1\n      dup2\n      mstore\n      0x20\n      add\n      0x00\n      keccak256\n      sload\n        /* \"contracts/MetraToken.sol\":5466:5495  _balances[recipient] + amount */\n      tag_208\n      swap2\n      swap1\n      tag_123\n      jump\t// in\n    tag_208:\n        /* \"contracts/MetraToken.sol\":5443:5452  _balances */\n      0x08\n        /* \"contracts/MetraToken.sol\":5443:5463  _balances[recipient] */\n      0x00\n        /* \"contracts/MetraToken.sol\":5453:5462  recipient */\n      dup5\n        /* \"contracts/MetraToken.sol\":5443:5463  _balances[recipient] */\n      0xffffffffffffffffffffffffffffffffffffffff\n      and\n      0xffffffffffffffffffffffffffffffffffffffff\n      and\n      dup2\n      mstore\n      0x20\n      add\n      swap1\n      dup2\n      mstore\n      0x20\n      add\n      0x00\n      keccak256\n        /* \"contracts/MetraToken.sol\":5443:5495  _balances[recipient] = _balances[recipient] + amount */\n      dup2\n      swap1\n      sstore\n      pop\n        /* \"contracts/MetraToken.sol\":5524:5533  recipient */\n      dup2\n        /* \"contracts/MetraToken.sol\":5507:5542  Transfer(sender, recipient, amount) */\n      0xffffffffffffffffffffffffffffffffffffffff\n      and\n        /* \"contracts/MetraToken.sol\":5516:5522  sender */\n      dup4\n        /* \"contracts/MetraToken.sol\":5507:5542  Transfer(sender, recipient, amount) */\n      0xffffffffffffffffffffffffffffffffffffffff\n      and\n      0xddf252ad1be2c89b69c2b068fc378daa952ba7f163c4a11628f55a4df523b3ef\n        /* \"contracts/MetraToken.sol\":5535:5541  amount */\n      dup4\n        /* \"contracts/MetraToken.sol\":5507:5542  Transfer(sender, recipient, amount) */\n      mload(0x40)\n      tag_209\n      swap2\n      swap1\n      tag_38\n      jump\t// in\n    tag_209:\n      mload(0x40)\n      dup1\n      swap2\n      sub\n      swap1\n      log3\n        /* \"contracts/MetraToken.sol\":5065:5547  function _transfer(address sender, address recipient, uint256 amount) internal {... */\n      pop\n      pop\n      pop\n      jump\t// out\n        /* \"contracts/Stakeable.sol\":5574:6748  function _withdrawStake(uint256 amount, uint256 index) internal returns(uint256){... */\n    tag_124:\n        /* \"contracts/Stakeable.sol\":5646:5653  uint256 */\n      0x00\n        /* \"contracts/Stakeable.sol\":5738:5756  uint256 user_index */\n      dup1\n        /* \"contracts/Stakeable.sol\":5759:5765  stakes */\n      0x02\n        /* \"contracts/Stakeable.sol\":5759:5777  stakes[msg.sender] */\n      0x00\n        /* \"contracts/Stakeable.sol\":5766:5776  msg.sender */\n      caller\n        /* \"contracts/Stakeable.sol\":5759:5777  stakes[msg.sender] */\n      0xffffffffffffffffffffffffffffffffffffffff\n      and\n      0xffffffffffffffffffffffffffffffffffffffff\n      and\n      dup2\n      mstore\n      0x20\n      add\n      swap1\n      dup2\n      mstore\n      0x20\n      add\n      0x00\n      keccak256\n      sload\n        /* \"contracts/Stakeable.sol\":5738:5777  uint256 user_index = stakes[msg.sender] */\n      swap1\n      pop\n        /* \"contracts/Stakeable.sol\":5787:5813  Stake memory current_stake */\n      0x00\n        /* \"contracts/Stakeable.sol\":5816:5828  stakeholders */\n      0x01\n        /* \"contracts/Stakeable.sol\":5829:5839  user_index */\n      dup3\n        /* \"contracts/Stakeable.sol\":5816:5840  stakeholders[user_index] */\n      dup2\n      sload\n      dup2\n      lt\n      tag_211\n      jumpi\n      tag_212\n      tag_165\n      jump\t// in\n    tag_212:\n    tag_211:\n      swap1\n      0x00\n      mstore\n      keccak256(0x00, 0x20)\n      swap1\n      0x02\n      mul\n      add\n        /* \"contracts/Stakeable.sol\":5816:5855  stakeholders[user_index].address_stakes */\n      0x01\n      add\n        /* \"contracts/Stakeable.sol\":5856:5861  index */\n      dup5\n        /* \"contracts/Stakeable.sol\":5816:5862  stakeholders[user_index].address_stakes[index] */\n      dup2\n      sload\n      dup2\n      lt\n      tag_214\n      jumpi\n      tag_215\n      tag_165\n      jump\t// in\n    tag_215:\n    tag_214:\n      swap1\n      0x00\n      mstore\n      keccak256(0x00, 0x20)\n      swap1\n      0x04\n      mul\n      add\n        /* \"contracts/Stakeable.sol\":5787:5862  Stake memory current_stake = stakeholders[user_index].address_stakes[index] */\n      mload(0x40)\n      dup1\n      0x80\n      add\n      0x40\n      mstore\n      swap1\n      dup2\n      0x00\n      dup3\n      add\n      0x00\n      swap1\n      sload\n      swap1\n      0x0100\n      exp\n      swap1\n      div\n      0xffffffffffffffffffffffffffffffffffffffff\n      and\n      0xffffffffffffffffffffffffffffffffffffffff\n      and\n      0xffffffffffffffffffffffffffffffffffffffff\n      and\n      dup2\n      mstore\n      0x20\n      add\n      0x01\n      dup3\n      add\n      sload\n      dup2\n      mstore\n      0x20\n      add\n      0x02\n      dup3\n      add\n      sload\n      dup2\n      mstore\n      0x20\n      add\n      0x03\n      dup3\n      add\n      sload\n      dup2\n      mstore\n      pop\n      pop\n      swap1\n      pop\n        /* \"contracts/Stakeable.sol\":5904:5910  amount */\n      dup5\n        /* \"contracts/Stakeable.sol\":5880:5893  current_stake */\n      dup2\n        /* \"contracts/Stakeable.sol\":5880:5900  current_stake.amount */\n      0x20\n      add\n      mload\n        /* \"contracts/Stakeable.sol\":5880:5910  current_stake.amount >= amount */\n      lt\n      iszero\n        /* \"contracts/Stakeable.sol\":5872:5965  require(current_stake.amount >= amount, \"Staking: Cannot withdraw more than you have staked\") */\n      tag_217\n      jumpi\n      mload(0x40)\n      0x08c379a000000000000000000000000000000000000000000000000000000000\n      dup2\n      mstore\n      0x04\n      add\n      tag_218\n      swap1\n      tag_219\n      jump\t// in\n    tag_218:\n      mload(0x40)\n      dup1\n      swap2\n      sub\n      swap1\n      revert\n    tag_217:\n        /* \"contracts/Stakeable.sol\":6053:6067  uint256 reward */\n      0x00\n        /* \"contracts/Stakeable.sol\":6070:6105  calculateStakeReward(current_stake) */\n      tag_220\n        /* \"contracts/Stakeable.sol\":6091:6104  current_stake */\n      dup3\n        /* \"contracts/Stakeable.sol\":6070:6090  calculateStakeReward */\n      tag_176\n        /* \"contracts/Stakeable.sol\":6070:6105  calculateStakeReward(current_stake) */\n      jump\t// in\n    tag_220:\n        /* \"contracts/Stakeable.sol\":6053:6105  uint256 reward = calculateStakeReward(current_stake) */\n      swap1\n      pop\n        /* \"contracts/Stakeable.sol\":6216:6222  amount */\n      dup6\n        /* \"contracts/Stakeable.sol\":6193:6206  current_stake */\n      dup3\n        /* \"contracts/Stakeable.sol\":6193:6213  current_stake.amount */\n      0x20\n      add\n      mload\n        /* \"contracts/Stakeable.sol\":6193:6222  current_stake.amount - amount */\n      tag_221\n      swap2\n      swap1\n      tag_119\n      jump\t// in\n    tag_221:\n        /* \"contracts/Stakeable.sol\":6170:6183  current_stake */\n      dup3\n        /* \"contracts/Stakeable.sol\":6170:6190  current_stake.amount */\n      0x20\n      add\n        /* \"contracts/Stakeable.sol\":6170:6222  current_stake.amount = current_stake.amount - amount */\n      dup2\n      dup2\n      mstore\n      pop\n      pop\n        /* \"contracts/Stakeable.sol\":6334:6335  0 */\n      0x00\n        /* \"contracts/Stakeable.sol\":6310:6323  current_stake */\n      dup3\n        /* \"contracts/Stakeable.sol\":6310:6330  current_stake.amount */\n      0x20\n      add\n      mload\n        /* \"contracts/Stakeable.sol\":6310:6335  current_stake.amount == 0 */\n      sub\n        /* \"contracts/Stakeable.sol\":6307:6707  if(current_stake.amount == 0){... */\n      tag_222\n      jumpi\n        /* \"contracts/Stakeable.sol\":6358:6370  stakeholders */\n      0x01\n        /* \"contracts/Stakeable.sol\":6371:6381  user_index */\n      dup4\n        /* \"contracts/Stakeable.sol\":6358:6382  stakeholders[user_index] */\n      dup2\n      sload\n      dup2\n      lt\n      tag_223\n      jumpi\n      tag_224\n      tag_165\n      jump\t// in\n    tag_224:\n    tag_223:\n      swap1\n      0x00\n      mstore\n      keccak256(0x00, 0x20)\n      swap1\n      0x02\n      mul\n      add\n        /* \"contracts/Stakeable.sol\":6358:6397  stakeholders[user_index].address_stakes */\n      0x01\n      add\n        /* \"contracts/Stakeable.sol\":6398:6403  index */\n      dup6\n        /* \"contracts/Stakeable.sol\":6358:6404  stakeholders[user_index].address_stakes[index] */\n      dup2\n      sload\n      dup2\n      lt\n      tag_226\n      jumpi\n      tag_227\n      tag_165\n      jump\t// in\n    tag_227:\n    tag_226:\n      swap1\n      0x00\n      mstore\n      keccak256(0x00, 0x20)\n      swap1\n      0x04\n      mul\n      add\n      0x00\n        /* \"contracts/Stakeable.sol\":6351:6404  delete stakeholders[user_index].address_stakes[index] */\n      dup1\n      dup3\n      add\n      exp(0x0100, 0x00)\n      dup2\n      sload\n      swap1\n      0xffffffffffffffffffffffffffffffffffffffff\n      mul\n      not\n      and\n      swap1\n      sstore\n      0x01\n      dup3\n      add\n      0x00\n      swap1\n      sstore\n      0x02\n      dup3\n      add\n      0x00\n      swap1\n      sstore\n      0x03\n      dup3\n      add\n      0x00\n      swap1\n      sstore\n      pop\n      pop\n        /* \"contracts/Stakeable.sol\":6307:6707  if(current_stake.amount == 0){... */\n      jump(tag_229)\n    tag_222:\n        /* \"contracts/Stakeable.sol\":6550:6563  current_stake */\n      dup2\n        /* \"contracts/Stakeable.sol\":6550:6570  current_stake.amount */\n      0x20\n      add\n      mload\n        /* \"contracts/Stakeable.sol\":6494:6506  stakeholders */\n      0x01\n        /* \"contracts/Stakeable.sol\":6507:6517  user_index */\n      dup5\n        /* \"contracts/Stakeable.sol\":6494:6518  stakeholders[user_index] */\n      dup2\n      sload\n      dup2\n      lt\n      tag_230\n      jumpi\n      tag_231\n      tag_165\n      jump\t// in\n    tag_231:\n    tag_230:\n      swap1\n      0x00\n      mstore\n      keccak256(0x00, 0x20)\n      swap1\n      0x02\n      mul\n      add\n        /* \"contracts/Stakeable.sol\":6494:6533  stakeholders[user_index].address_stakes */\n      0x01\n      add\n        /* \"contracts/Stakeable.sol\":6534:6539  index */\n      dup7\n        /* \"contracts/Stakeable.sol\":6494:6540  stakeholders[user_index].address_stakes[index] */\n      dup2\n      sload\n      dup2\n      lt\n      tag_233\n      jumpi\n      tag_234\n      tag_165\n      jump\t// in\n    tag_234:\n    tag_233:\n      swap1\n      0x00\n      mstore\n      keccak256(0x00, 0x20)\n      swap1\n      0x04\n      mul\n      add\n        /* \"contracts/Stakeable.sol\":6494:6547  stakeholders[user_index].address_stakes[index].amount */\n      0x01\n      add\n        /* \"contracts/Stakeable.sol\":6494:6570  stakeholders[user_index].address_stakes[index].amount = current_stake.amount */\n      dup2\n      swap1\n      sstore\n      pop\n        /* \"contracts/Stakeable.sol\":6676:6691  block.timestamp */\n      timestamp\n        /* \"contracts/Stakeable.sol\":6621:6633  stakeholders */\n      0x01\n        /* \"contracts/Stakeable.sol\":6634:6644  user_index */\n      dup5\n        /* \"contracts/Stakeable.sol\":6621:6645  stakeholders[user_index] */\n      dup2\n      sload\n      dup2\n      lt\n      tag_236\n      jumpi\n      tag_237\n      tag_165\n      jump\t// in\n    tag_237:\n    tag_236:\n      swap1\n      0x00\n      mstore\n      keccak256(0x00, 0x20)\n      swap1\n      0x02\n      mul\n      add\n        /* \"contracts/Stakeable.sol\":6621:6660  stakeholders[user_index].address_stakes */\n      0x01\n      add\n        /* \"contracts/Stakeable.sol\":6661:6666  index */\n      dup7\n        /* \"contracts/Stakeable.sol\":6621:6667  stakeholders[user_index].address_stakes[index] */\n      dup2\n      sload\n      dup2\n      lt\n      tag_239\n      jumpi\n      tag_240\n      tag_165\n      jump\t// in\n    tag_240:\n    tag_239:\n      swap1\n      0x00\n      mstore\n      keccak256(0x00, 0x20)\n      swap1\n      0x04\n      mul\n      add\n        /* \"contracts/Stakeable.sol\":6621:6673  stakeholders[user_index].address_stakes[index].since */\n      0x02\n      add\n        /* \"contracts/Stakeable.sol\":6621:6691  stakeholders[user_index].address_stakes[index].since = block.timestamp */\n      dup2\n      swap1\n      sstore\n      pop\n        /* \"contracts/Stakeable.sol\":6307:6707  if(current_stake.amount == 0){... */\n    tag_229:\n        /* \"contracts/Stakeable.sol\":6734:6740  reward */\n      dup1\n        /* \"contracts/Stakeable.sol\":6725:6731  amount */\n      dup7\n        /* \"contracts/Stakeable.sol\":6725:6740  amount + reward */\n      tag_242\n      swap2\n      swap1\n      tag_123\n      jump\t// in\n    tag_242:\n        /* \"contracts/Stakeable.sol\":6718:6740  return amount + reward */\n      swap4\n      pop\n      pop\n      pop\n      pop\n        /* \"contracts/Stakeable.sol\":5574:6748  function _withdrawStake(uint256 amount, uint256 index) internal returns(uint256){... */\n      swap3\n      swap2\n      pop\n      pop\n      jump\t// out\n        /* \"contracts/MetraToken.sol\":2903:3322  function _mint(address account, uint256 amount) internal {... */\n    tag_126:\n        /* \"contracts/MetraToken.sol\":2993:2994  0 */\n      0x00\n        /* \"contracts/MetraToken.sol\":2974:2995  account != address(0) */\n      0xffffffffffffffffffffffffffffffffffffffff\n      and\n        /* \"contracts/MetraToken.sol\":2974:2981  account */\n      dup3\n        /* \"contracts/MetraToken.sol\":2974:2995  account != address(0) */\n      0xffffffffffffffffffffffffffffffffffffffff\n      and\n      sub\n        /* \"contracts/MetraToken.sol\":2966:3034  require(account != address(0), \"Metra: cannot mint to zero address\") */\n      tag_244\n      jumpi\n      mload(0x40)\n      0x08c379a000000000000000000000000000000000000000000000000000000000\n      dup2\n      mstore\n      0x04\n      add\n      tag_245\n      swap1\n      tag_246\n      jump\t// in\n    tag_245:\n      mload(0x40)\n      dup1\n      swap2\n      sub\n      swap1\n      revert\n    tag_244:\n        /* \"contracts/MetraToken.sol\":3101:3107  amount */\n      dup1\n        /* \"contracts/MetraToken.sol\":3085:3097  _totalSupply */\n      sload(0x04)\n        /* \"contracts/MetraToken.sol\":3085:3108  _totalSupply + (amount) */\n      tag_247\n      swap2\n      swap1\n      tag_123\n      jump\t// in\n    tag_247:\n        /* \"contracts/MetraToken.sol\":3070:3082  _totalSupply */\n      0x04\n        /* \"contracts/MetraToken.sol\":3070:3108  _totalSupply = _totalSupply + (amount) */\n      dup2\n      swap1\n      sstore\n      pop\n        /* \"contracts/MetraToken.sol\":3223:3229  amount */\n      dup1\n        /* \"contracts/MetraToken.sol\":3202:3211  _balances */\n      0x08\n        /* \"contracts/MetraToken.sol\":3202:3220  _balances[account] */\n      0x00\n        /* \"contracts/MetraToken.sol\":3212:3219  account */\n      dup5\n        /* \"contracts/MetraToken.sol\":3202:3220  _balances[account] */\n      0xffffffffffffffffffffffffffffffffffffffff\n      and\n      0xffffffffffffffffffffffffffffffffffffffff\n      and\n      dup2\n      mstore\n      0x20\n      add\n      swap1\n      dup2\n      mstore\n      0x20\n      add\n      0x00\n      keccak256\n      sload\n        /* \"contracts/MetraToken.sol\":3202:3229  _balances[account] + amount */\n      tag_248\n      swap2\n      swap1\n      tag_123\n      jump\t// in\n    tag_248:\n        /* \"contracts/MetraToken.sol\":3181:3190  _balances */\n      0x08\n        /* \"contracts/MetraToken.sol\":3181:3199  _balances[account] */\n      0x00\n        /* \"contracts/MetraToken.sol\":3191:3198  account */\n      dup5\n        /* \"contracts/MetraToken.sol\":3181:3199  _balances[account] */\n      0xffffffffffffffffffffffffffffffffffffffff\n      and\n      0xffffffffffffffffffffffffffffffffffffffff\n      and\n      dup2\n      mstore\n      0x20\n      add\n      swap1\n      dup2\n      mstore\n      0x20\n      add\n      0x00\n      keccak256\n        /* \"contracts/MetraToken.sol\":3181:3229  _balances[account] = _balances[account] + amount */\n      dup2\n      swap1\n      sstore\n      pop\n        /* \"contracts/MetraToken.sol\":3301:3308  account */\n      dup2\n        /* \"contracts/MetraToken.sol\":3280:3317  Transfer(address(0), account, amount) */\n      0xffffffffffffffffffffffffffffffffffffffff\n      and\n        /* \"contracts/MetraToken.sol\":3297:3298  0 */\n      0x00\n        /* \"contracts/MetraToken.sol\":3280:3317  Transfer(address(0), account, amount) */\n      0xffffffffffffffffffffffffffffffffffffffff\n      and\n      0xddf252ad1be2c89b69c2b068fc378daa952ba7f163c4a11628f55a4df523b3ef\n        /* \"contracts/MetraToken.sol\":3310:3316  amount */\n      dup4\n        /* \"contracts/MetraToken.sol\":3280:3317  Transfer(address(0), account, amount) */\n      mload(0x40)\n      tag_249\n      swap2\n      swap1\n      tag_38\n      jump\t// in\n    tag_249:\n      mload(0x40)\n      dup1\n      swap2\n      sub\n      swap1\n      log3\n        /* \"contracts/MetraToken.sol\":2903:3322  function _mint(address account, uint256 amount) internal {... */\n      pop\n      pop\n      jump\t// out\n        /* \"contracts/MetraToken.sol\":3603:4104  function _burn(address account, uint256 amount) internal {... */\n    tag_146:\n        /* \"contracts/MetraToken.sol\":3693:3694  0 */\n      0x00\n        /* \"contracts/MetraToken.sol\":3674:3695  account != address(0) */\n      0xffffffffffffffffffffffffffffffffffffffff\n      and\n        /* \"contracts/MetraToken.sol\":3674:3681  account */\n      dup3\n        /* \"contracts/MetraToken.sol\":3674:3695  account != address(0) */\n      0xffffffffffffffffffffffffffffffffffffffff\n      and\n      sub\n        /* \"contracts/MetraToken.sol\":3666:3736  require(account != address(0), \"Metra: cannot burn from zero address\") */\n      tag_251\n      jumpi\n      mload(0x40)\n      0x08c379a000000000000000000000000000000000000000000000000000000000\n      dup2\n      mstore\n      0x04\n      add\n      tag_252\n      swap1\n      tag_253\n      jump\t// in\n    tag_252:\n      mload(0x40)\n      dup1\n      swap2\n      sub\n      swap1\n      revert\n    tag_251:\n        /* \"contracts/MetraToken.sol\":3772:3778  amount */\n      dup1\n        /* \"contracts/MetraToken.sol\":3750:3759  _balances */\n      0x08\n        /* \"contracts/MetraToken.sol\":3750:3768  _balances[account] */\n      0x00\n        /* \"contracts/MetraToken.sol\":3760:3767  account */\n      dup5\n        /* \"contracts/MetraToken.sol\":3750:3768  _balances[account] */\n      0xffffffffffffffffffffffffffffffffffffffff\n      and\n      0xffffffffffffffffffffffffffffffffffffffff\n      and\n      dup2\n      mstore\n      0x20\n      add\n      swap1\n      dup2\n      mstore\n      0x20\n      add\n      0x00\n      keccak256\n      sload\n        /* \"contracts/MetraToken.sol\":3750:3778  _balances[account] >= amount */\n      lt\n      iszero\n        /* \"contracts/MetraToken.sol\":3742:3828  require(_balances[account] >= amount, \"Metra: Cannot burn more than the account owns\") */\n      tag_254\n      jumpi\n      mload(0x40)\n      0x08c379a000000000000000000000000000000000000000000000000000000000\n      dup2\n      mstore\n      0x04\n      add\n      tag_255\n      swap1\n      tag_256\n      jump\t// in\n    tag_255:\n      mload(0x40)\n      dup1\n      swap2\n      sub\n      swap1\n      revert\n    tag_254:\n        /* \"contracts/MetraToken.sol\":3927:3933  amount */\n      dup1\n        /* \"contracts/MetraToken.sol\":3906:3915  _balances */\n      0x08\n        /* \"contracts/MetraToken.sol\":3906:3924  _balances[account] */\n      0x00\n        /* \"contracts/MetraToken.sol\":3916:3923  account */\n      dup5\n        /* \"contracts/MetraToken.sol\":3906:3924  _balances[account] */\n      0xffffffffffffffffffffffffffffffffffffffff\n      and\n      0xffffffffffffffffffffffffffffffffffffffff\n      and\n      dup2\n      mstore\n      0x20\n      add\n      swap1\n      dup2\n      mstore\n      0x20\n      add\n      0x00\n      keccak256\n      sload\n        /* \"contracts/MetraToken.sol\":3906:3933  _balances[account] - amount */\n      tag_257\n      swap2\n      swap1\n      tag_119\n      jump\t// in\n    tag_257:\n        /* \"contracts/MetraToken.sol\":3885:3894  _balances */\n      0x08\n        /* \"contracts/MetraToken.sol\":3885:3903  _balances[account] */\n      0x00\n        /* \"contracts/MetraToken.sol\":3895:3902  account */\n      dup5\n        /* \"contracts/MetraToken.sol\":3885:3903  _balances[account] */\n      0xffffffffffffffffffffffffffffffffffffffff\n      and\n      0xffffffffffffffffffffffffffffffffffffffff\n      and\n      dup2\n      mstore\n      0x20\n      add\n      swap1\n      dup2\n      mstore\n      0x20\n      add\n      0x00\n      keccak256\n        /* \"contracts/MetraToken.sol\":3885:3933  _balances[account] = _balances[account] - amount */\n      dup2\n      swap1\n      sstore\n      pop\n        /* \"contracts/MetraToken.sol\":3997:4003  amount */\n      dup1\n        /* \"contracts/MetraToken.sol\":3982:3994  _totalSupply */\n      sload(0x04)\n        /* \"contracts/MetraToken.sol\":3982:4003  _totalSupply - amount */\n      tag_258\n      swap2\n      swap1\n      tag_119\n      jump\t// in\n    tag_258:\n        /* \"contracts/MetraToken.sol\":3967:3979  _totalSupply */\n      0x04\n        /* \"contracts/MetraToken.sol\":3967:4003  _totalSupply = _totalSupply - amount */\n      dup2\n      swap1\n      sstore\n      pop\n        /* \"contracts/MetraToken.sol\":4088:4089  0 */\n      0x00\n        /* \"contracts/MetraToken.sol\":4062:4099  Transfer(account, address(0), amount) */\n      0xffffffffffffffffffffffffffffffffffffffff\n      and\n        /* \"contracts/MetraToken.sol\":4071:4078  account */\n      dup3\n        /* \"contracts/MetraToken.sol\":4062:4099  Transfer(account, address(0), amount) */\n      0xffffffffffffffffffffffffffffffffffffffff\n      and\n      0xddf252ad1be2c89b69c2b068fc378daa952ba7f163c4a11628f55a4df523b3ef\n        /* \"contracts/MetraToken.sol\":4092:4098  amount */\n      dup4\n        /* \"contracts/MetraToken.sol\":4062:4099  Transfer(account, address(0), amount) */\n      mload(0x40)\n      tag_259\n      swap2\n      swap1\n      tag_38\n      jump\t// in\n    tag_259:\n      mload(0x40)\n      dup1\n      swap2\n      sub\n      swap1\n      log3\n        /* \"contracts/MetraToken.sol\":3603:4104  function _burn(address account, uint256 amount) internal {... */\n      pop\n      pop\n      jump\t// out\n        /* \"contracts/Stakeable.sol\":3057:4233  function _stake(uint256 _amount) internal{... */\n    tag_155:\n        /* \"contracts/Stakeable.sol\":3181:3182  0 */\n      0x00\n        /* \"contracts/Stakeable.sol\":3171:3178  _amount */\n      dup2\n        /* \"contracts/Stakeable.sol\":3171:3182  _amount > 0 */\n      gt\n        /* \"contracts/Stakeable.sol\":3163:3207  require(_amount > 0, \"Cannot stake nothing\") */\n      tag_261\n      jumpi\n      mload(0x40)\n      0x08c379a000000000000000000000000000000000000000000000000000000000\n      dup2\n      mstore\n      0x04\n      add\n      tag_262\n      swap1\n      tag_263\n      jump\t// in\n    tag_262:\n      mload(0x40)\n      dup1\n      swap2\n      sub\n      swap1\n      revert\n    tag_261:\n        /* \"contracts/Stakeable.sol\":3323:3336  uint256 index */\n      0x00\n        /* \"contracts/Stakeable.sol\":3339:3345  stakes */\n      0x02\n        /* \"contracts/Stakeable.sol\":3339:3357  stakes[msg.sender] */\n      0x00\n        /* \"contracts/Stakeable.sol\":3346:3356  msg.sender */\n      caller\n        /* \"contracts/Stakeable.sol\":3339:3357  stakes[msg.sender] */\n      0xffffffffffffffffffffffffffffffffffffffff\n      and\n      0xffffffffffffffffffffffffffffffffffffffff\n      and\n      dup2\n      mstore\n      0x20\n      add\n      swap1\n      dup2\n      mstore\n      0x20\n      add\n      0x00\n      keccak256\n      sload\n        /* \"contracts/Stakeable.sol\":3323:3357  uint256 index = stakes[msg.sender] */\n      swap1\n      pop\n        /* \"contracts/Stakeable.sol\":3454:3471  uint256 timestamp */\n      0x00\n        /* \"contracts/Stakeable.sol\":3474:3489  block.timestamp */\n      timestamp\n        /* \"contracts/Stakeable.sol\":3454:3489  uint256 timestamp = block.timestamp */\n      swap1\n      pop\n        /* \"contracts/Stakeable.sol\":3592:3593  0 */\n      0x00\n        /* \"contracts/Stakeable.sol\":3583:3588  index */\n      dup3\n        /* \"contracts/Stakeable.sol\":3583:3593  index == 0 */\n      sub\n        /* \"contracts/Stakeable.sol\":3580:3908  if(index == 0){... */\n      tag_264\n      jumpi\n        /* \"contracts/Stakeable.sol\":3870:3897  _addStakeholder(msg.sender) */\n      tag_265\n        /* \"contracts/Stakeable.sol\":3886:3896  msg.sender */\n      caller\n        /* \"contracts/Stakeable.sol\":3870:3885  _addStakeholder */\n      tag_266\n        /* \"contracts/Stakeable.sol\":3870:3897  _addStakeholder(msg.sender) */\n      jump\t// in\n    tag_265:\n        /* \"contracts/Stakeable.sol\":3862:3897  index = _addStakeholder(msg.sender) */\n      swap2\n      pop\n        /* \"contracts/Stakeable.sol\":3580:3908  if(index == 0){... */\n    tag_264:\n        /* \"contracts/Stakeable.sol\":4035:4047  stakeholders */\n      0x01\n        /* \"contracts/Stakeable.sol\":4048:4053  index */\n      dup3\n        /* \"contracts/Stakeable.sol\":4035:4054  stakeholders[index] */\n      dup2\n      sload\n      dup2\n      lt\n      tag_267\n      jumpi\n      tag_268\n      tag_165\n      jump\t// in\n    tag_268:\n    tag_267:\n      swap1\n      0x00\n      mstore\n      keccak256(0x00, 0x20)\n      swap1\n      0x02\n      mul\n      add\n        /* \"contracts/Stakeable.sol\":4035:4069  stakeholders[index].address_stakes */\n      0x01\n      add\n        /* \"contracts/Stakeable.sol\":4075:4114  Stake(msg.sender, _amount, timestamp,0) */\n      mload(0x40)\n      dup1\n      0x80\n      add\n      0x40\n      mstore\n      dup1\n        /* \"contracts/Stakeable.sol\":4081:4091  msg.sender */\n      caller\n        /* \"contracts/Stakeable.sol\":4075:4114  Stake(msg.sender, _amount, timestamp,0) */\n      0xffffffffffffffffffffffffffffffffffffffff\n      and\n      dup2\n      mstore\n      0x20\n      add\n        /* \"contracts/Stakeable.sol\":4093:4100  _amount */\n      dup6\n        /* \"contracts/Stakeable.sol\":4075:4114  Stake(msg.sender, _amount, timestamp,0) */\n      dup2\n      mstore\n      0x20\n      add\n        /* \"contracts/Stakeable.sol\":4102:4111  timestamp */\n      dup4\n        /* \"contracts/Stakeable.sol\":4075:4114  Stake(msg.sender, _amount, timestamp,0) */\n      dup2\n      mstore\n      0x20\n      add\n        /* \"contracts/Stakeable.sol\":4112:4113  0 */\n      0x00\n        /* \"contracts/Stakeable.sol\":4075:4114  Stake(msg.sender, _amount, timestamp,0) */\n      dup2\n      mstore\n      pop\n        /* \"contracts/Stakeable.sol\":4035:4115  stakeholders[index].address_stakes.push(Stake(msg.sender, _amount, timestamp,0)) */\n      swap1\n      dup1\n      0x01\n      dup2\n      sload\n      add\n      dup1\n      dup3\n      sstore\n      dup1\n      swap2\n      pop\n      pop\n      0x01\n      swap1\n      sub\n      swap1\n      0x00\n      mstore\n      keccak256(0x00, 0x20)\n      swap1\n      0x04\n      mul\n      add\n      0x00\n      swap1\n      swap2\n      swap1\n      swap2\n      swap1\n      swap2\n      pop\n      0x00\n      dup3\n      add\n      mload\n      dup2\n      0x00\n      add\n      exp(0x0100, 0x00)\n      dup2\n      sload\n      dup2\n      0xffffffffffffffffffffffffffffffffffffffff\n      mul\n      not\n      and\n      swap1\n      dup4\n      0xffffffffffffffffffffffffffffffffffffffff\n      and\n      mul\n      or\n      swap1\n      sstore\n      pop\n      0x20\n      dup3\n      add\n      mload\n      dup2\n      0x01\n      add\n      sstore\n      0x40\n      dup3\n      add\n      mload\n      dup2\n      0x02\n      add\n      sstore\n      0x60\n      dup3\n      add\n      mload\n      dup2\n      0x03\n      add\n      sstore\n      pop\n      pop\n        /* \"contracts/Stakeable.sol\":4189:4199  msg.sender */\n      caller\n        /* \"contracts/Stakeable.sol\":4182:4226  Staked(msg.sender, _amount, index,timestamp) */\n      0xffffffffffffffffffffffffffffffffffffffff\n      and\n      0xb4caaf29adda3eefee3ad552a8e85058589bf834c7466cae4ee58787f70589ed\n        /* \"contracts/Stakeable.sol\":4201:4208  _amount */\n      dup5\n        /* \"contracts/Stakeable.sol\":4210:4215  index */\n      dup5\n        /* \"contracts/Stakeable.sol\":4216:4225  timestamp */\n      dup5\n        /* \"contracts/Stakeable.sol\":4182:4226  Staked(msg.sender, _amount, index,timestamp) */\n      mload(0x40)\n      tag_271\n      swap4\n      swap3\n      swap2\n      swap1\n      tag_272\n      jump\t// in\n    tag_271:\n      mload(0x40)\n      dup1\n      swap2\n      sub\n      swap1\n      log2\n        /* \"contracts/Stakeable.sol\":3098:4233  {... */\n      pop\n      pop\n        /* \"contracts/Stakeable.sol\":3057:4233  function _stake(uint256 _amount) internal{... */\n      pop\n      jump\t// out\n        /* \"contracts/Stakeable.sol\":4426:5230  function calculateStakeReward(Stake memory _current_stake) internal view returns(uint256){... */\n    tag_176:\n        /* \"contracts/Stakeable.sol\":4507:4514  uint256 */\n      0x00\n        /* \"contracts/Stakeable.sol\":5208:5221  rewardPerHour */\n      sload(0x03)\n        /* \"contracts/Stakeable.sol\":5183:5197  _current_stake */\n      dup3\n        /* \"contracts/Stakeable.sol\":5183:5204  _current_stake.amount */\n      0x20\n      add\n      mload\n        /* \"contracts/Stakeable.sol\":5172:5179  1 hours */\n      0x0e10\n        /* \"contracts/Stakeable.sol\":5148:5162  _current_stake */\n      dup5\n        /* \"contracts/Stakeable.sol\":5148:5168  _current_stake.since */\n      0x40\n      add\n      mload\n        /* \"contracts/Stakeable.sol\":5130:5145  block.timestamp */\n      timestamp\n        /* \"contracts/Stakeable.sol\":5130:5168  block.timestamp - _current_stake.since */\n      tag_274\n      swap2\n      swap1\n      tag_119\n      jump\t// in\n    tag_274:\n        /* \"contracts/Stakeable.sol\":5129:5179  (block.timestamp - _current_stake.since) / 1 hours */\n      tag_275\n      swap2\n      swap1\n      tag_276\n      jump\t// in\n    tag_275:\n        /* \"contracts/Stakeable.sol\":5128:5204  ((block.timestamp - _current_stake.since) / 1 hours) * _current_stake.amount */\n      tag_277\n      swap2\n      swap1\n      tag_110\n      jump\t// in\n    tag_277:\n        /* \"contracts/Stakeable.sol\":5127:5221  (((block.timestamp - _current_stake.since) / 1 hours) * _current_stake.amount) / rewardPerHour */\n      tag_278\n      swap2\n      swap1\n      tag_276\n      jump\t// in\n    tag_278:\n        /* \"contracts/Stakeable.sol\":5120:5221  return (((block.timestamp - _current_stake.since) / 1 hours) * _current_stake.amount) / rewardPerHour */\n      swap1\n      pop\n        /* \"contracts/Stakeable.sol\":4426:5230  function calculateStakeReward(Stake memory _current_stake) internal view returns(uint256){... */\n      swap2\n      swap1\n      pop\n      jump\t// out\n        /* \"contracts/Ownable.sol\":1897:2122  function _transferOwnership(address newOwner) internal {... */\n    tag_188:\n        /* \"contracts/Ownable.sol\":1990:1991  0 */\n      0x00\n        /* \"contracts/Ownable.sol\":1970:1992  newOwner != address(0) */\n      0xffffffffffffffffffffffffffffffffffffffff\n      and\n        /* \"contracts/Ownable.sol\":1970:1978  newOwner */\n      dup2\n        /* \"contracts/Ownable.sol\":1970:1992  newOwner != address(0) */\n      0xffffffffffffffffffffffffffffffffffffffff\n      and\n      sub\n        /* \"contracts/Ownable.sol\":1962:2035  require(newOwner != address(0), \"Ownable: new owner is the zero address\") */\n      tag_280\n      jumpi\n      mload(0x40)\n      0x08c379a000000000000000000000000000000000000000000000000000000000\n      dup2\n      mstore\n      0x04\n      add\n      tag_281\n      swap1\n      tag_282\n      jump\t// in\n    tag_281:\n      mload(0x40)\n      dup1\n      swap2\n      sub\n      swap1\n      revert\n    tag_280:\n        /* \"contracts/Ownable.sol\":2079:2087  newOwner */\n      dup1\n        /* \"contracts/Ownable.sol\":2050:2088  OwnershipTransferred(_owner, newOwner) */\n      0xffffffffffffffffffffffffffffffffffffffff\n      and\n        /* \"contracts/Ownable.sol\":2071:2077  _owner */\n      0x00\n      dup1\n      sload\n      swap1\n      0x0100\n      exp\n      swap1\n      div\n      0xffffffffffffffffffffffffffffffffffffffff\n      and\n        /* \"contracts/Ownable.sol\":2050:2088  OwnershipTransferred(_owner, newOwner) */\n      0xffffffffffffffffffffffffffffffffffffffff\n      and\n      0x8be0079c531659141344cd1fd0a4f28419497f9722a3daafe3b4186f6b6457e0\n      mload(0x40)\n      mload(0x40)\n      dup1\n      swap2\n      sub\n      swap1\n      log3\n        /* \"contracts/Ownable.sol\":2107:2115  newOwner */\n      dup1\n        /* \"contracts/Ownable.sol\":2098:2104  _owner */\n      0x00\n      dup1\n        /* \"contracts/Ownable.sol\":2098:2115  _owner = newOwner */\n      0x0100\n      exp\n      dup2\n      sload\n      dup2\n      0xffffffffffffffffffffffffffffffffffffffff\n      mul\n      not\n      and\n      swap1\n      dup4\n      0xffffffffffffffffffffffffffffffffffffffff\n      and\n      mul\n      or\n      swap1\n      sstore\n      pop\n        /* \"contracts/Ownable.sol\":1897:2122  function _transferOwnership(address newOwner) internal {... */\n      pop\n      jump\t// out\n        /* \"contracts/Stakeable.sol\":2345:2849  function _addStakeholder(address staker) internal returns (uint256){... */\n    tag_266:\n        /* \"contracts/Stakeable.sol\":2404:2411  uint256 */\n      0x00\n        /* \"contracts/Stakeable.sol\":2502:2514  stakeholders */\n      0x01\n        /* \"contracts/Stakeable.sol\":2502:2521  stakeholders.push() */\n      dup1\n      dup2\n      0x01\n      dup2\n      sload\n      add\n      dup1\n      dup3\n      sstore\n      dup1\n      swap2\n      pop\n      pop\n      sub\n      swap1\n      0x00\n      mstore\n      keccak256(0x00, 0x20)\n      swap1\n      pop\n      pop\n        /* \"contracts/Stakeable.sol\":2601:2618  uint256 userIndex */\n      0x00\n        /* \"contracts/Stakeable.sol\":2643:2644  1 */\n      0x01\n        /* \"contracts/Stakeable.sol\":2621:2633  stakeholders */\n      dup1\n        /* \"contracts/Stakeable.sol\":2621:2640  stakeholders.length */\n      dup1\n      sload\n      swap1\n      pop\n        /* \"contracts/Stakeable.sol\":2621:2644  stakeholders.length - 1 */\n      tag_285\n      swap2\n      swap1\n      tag_119\n      jump\t// in\n    tag_285:\n        /* \"contracts/Stakeable.sol\":2601:2644  uint256 userIndex = stakeholders.length - 1 */\n      swap1\n      pop\n        /* \"contracts/Stakeable.sol\":2732:2738  staker */\n      dup3\n        /* \"contracts/Stakeable.sol\":2701:2713  stakeholders */\n      0x01\n        /* \"contracts/Stakeable.sol\":2714:2723  userIndex */\n      dup3\n        /* \"contracts/Stakeable.sol\":2701:2724  stakeholders[userIndex] */\n      dup2\n      sload\n      dup2\n      lt\n      tag_286\n      jumpi\n      tag_287\n      tag_165\n      jump\t// in\n    tag_287:\n    tag_286:\n      swap1\n      0x00\n      mstore\n      keccak256(0x00, 0x20)\n      swap1\n      0x02\n      mul\n      add\n        /* \"contracts/Stakeable.sol\":2701:2729  stakeholders[userIndex].user */\n      0x00\n      add\n      0x00\n        /* \"contracts/Stakeable.sol\":2701:2738  stakeholders[userIndex].user = staker */\n      0x0100\n      exp\n      dup2\n      sload\n      dup2\n      0xffffffffffffffffffffffffffffffffffffffff\n      mul\n      not\n      and\n      swap1\n      dup4\n      0xffffffffffffffffffffffffffffffffffffffff\n      and\n      mul\n      or\n      swap1\n      sstore\n      pop\n        /* \"contracts/Stakeable.sol\":2806:2815  userIndex */\n      dup1\n        /* \"contracts/Stakeable.sol\":2789:2795  stakes */\n      0x02\n        /* \"contracts/Stakeable.sol\":2789:2803  stakes[staker] */\n      0x00\n        /* \"contracts/Stakeable.sol\":2796:2802  staker */\n      dup6\n        /* \"contracts/Stakeable.sol\":2789:2803  stakes[staker] */\n      0xffffffffffffffffffffffffffffffffffffffff\n      and\n      0xffffffffffffffffffffffffffffffffffffffff\n      and\n      dup2\n      mstore\n      0x20\n      add\n      swap1\n      dup2\n      mstore\n      0x20\n      add\n      0x00\n      keccak256\n        /* \"contracts/Stakeable.sol\":2789:2815  stakes[staker] = userIndex */\n      dup2\n      swap1\n      sstore\n      pop\n        /* \"contracts/Stakeable.sol\":2832:2841  userIndex */\n      dup1\n        /* \"contracts/Stakeable.sol\":2825:2841  return userIndex */\n      swap2\n      pop\n      pop\n        /* \"contracts/Stakeable.sol\":2345:2849  function _addStakeholder(address staker) internal returns (uint256){... */\n      swap2\n      swap1\n      pop\n      jump\t// out\n    tag_161:\n      mload(0x40)\n      dup1\n      0x40\n      add\n      0x40\n      mstore\n      dup1\n      0x00\n      dup2\n      mstore\n      0x20\n      add\n      0x60\n      dup2\n      mstore\n      pop\n      swap1\n      jump\t// out\n        /* \"#utility.yul\":7:106   */\n    tag_289:\n        /* \"#utility.yul\":59:65   */\n      0x00\n        /* \"#utility.yul\":93:98   */\n      dup2\n        /* \"#utility.yul\":87:99   */\n      mload\n        /* \"#utility.yul\":77:99   */\n      swap1\n      pop\n        /* \"#utility.yul\":7:106   */\n      swap2\n      swap1\n      pop\n      jump\t// out\n        /* \"#utility.yul\":112:281   */\n    tag_290:\n        /* \"#utility.yul\":196:207   */\n      0x00\n        /* \"#utility.yul\":230:236   */\n      dup3\n        /* \"#utility.yul\":225:228   */\n      dup3\n        /* \"#utility.yul\":218:237   */\n      mstore\n        /* \"#utility.yul\":270:274   */\n      0x20\n        /* \"#utility.yul\":265:268   */\n      dup3\n        /* \"#utility.yul\":261:275   */\n      add\n        /* \"#utility.yul\":246:275   */\n      swap1\n      pop\n        /* \"#utility.yul\":112:281   */\n      swap3\n      swap2\n      pop\n      pop\n      jump\t// out\n        /* \"#utility.yul\":287:594   */\n    tag_291:\n        /* \"#utility.yul\":355:356   */\n      0x00\n        /* \"#utility.yul\":365:478   */\n    tag_357:\n        /* \"#utility.yul\":379:385   */\n      dup4\n        /* \"#utility.yul\":376:377   */\n      dup2\n        /* \"#utility.yul\":373:386   */\n      lt\n        /* \"#utility.yul\":365:478   */\n      iszero\n      tag_359\n      jumpi\n        /* \"#utility.yul\":464:465   */\n      dup1\n        /* \"#utility.yul\":459:462   */\n      dup3\n        /* \"#utility.yul\":455:466   */\n      add\n        /* \"#utility.yul\":449:467   */\n      mload\n        /* \"#utility.yul\":445:446   */\n      dup2\n        /* \"#utility.yul\":440:443   */\n      dup5\n        /* \"#utility.yul\":436:447   */\n      add\n        /* \"#utility.yul\":429:468   */\n      mstore\n        /* \"#utility.yul\":401:403   */\n      0x20\n        /* \"#utility.yul\":398:399   */\n      dup2\n        /* \"#utility.yul\":394:404   */\n      add\n        /* \"#utility.yul\":389:404   */\n      swap1\n      pop\n        /* \"#utility.yul\":365:478   */\n      jump(tag_357)\n    tag_359:\n        /* \"#utility.yul\":496:502   */\n      dup4\n        /* \"#utility.yul\":493:494   */\n      dup2\n        /* \"#utility.yul\":490:503   */\n      gt\n        /* \"#utility.yul\":487:588   */\n      iszero\n      tag_360\n      jumpi\n        /* \"#utility.yul\":576:577   */\n      0x00\n        /* \"#utility.yul\":567:573   */\n      dup5\n        /* \"#utility.yul\":562:565   */\n      dup5\n        /* \"#utility.yul\":558:574   */\n      add\n        /* \"#utility.yul\":551:578   */\n      mstore\n        /* \"#utility.yul\":487:588   */\n    tag_360:\n        /* \"#utility.yul\":336:594   */\n      pop\n        /* \"#utility.yul\":287:594   */\n      pop\n      pop\n      pop\n      jump\t// out\n        /* \"#utility.yul\":600:702   */\n    tag_292:\n        /* \"#utility.yul\":641:647   */\n      0x00\n        /* \"#utility.yul\":692:694   */\n      0x1f\n        /* \"#utility.yul\":688:695   */\n      not\n        /* \"#utility.yul\":683:685   */\n      0x1f\n        /* \"#utility.yul\":676:681   */\n      dup4\n        /* \"#utility.yul\":672:686   */\n      add\n        /* \"#utility.yul\":668:696   */\n      and\n        /* \"#utility.yul\":658:696   */\n      swap1\n      pop\n        /* \"#utility.yul\":600:702   */\n      swap2\n      swap1\n      pop\n      jump\t// out\n        /* \"#utility.yul\":708:1072   */\n    tag_293:\n        /* \"#utility.yul\":796:799   */\n      0x00\n        /* \"#utility.yul\":824:863   */\n      tag_363\n        /* \"#utility.yul\":857:862   */\n      dup3\n        /* \"#utility.yul\":824:863   */\n      tag_289\n      jump\t// in\n    tag_363:\n        /* \"#utility.yul\":879:950   */\n      tag_364\n        /* \"#utility.yul\":943:949   */\n      dup2\n        /* \"#utility.yul\":938:941   */\n      dup6\n        /* \"#utility.yul\":879:950   */\n      tag_290\n      jump\t// in\n    tag_364:\n        /* \"#utility.yul\":872:950   */\n      swap4\n      pop\n        /* \"#utility.yul\":959:1011   */\n      tag_365\n        /* \"#utility.yul\":1004:1010   */\n      dup2\n        /* \"#utility.yul\":999:1002   */\n      dup6\n        /* \"#utility.yul\":992:996   */\n      0x20\n        /* \"#utility.yul\":985:990   */\n      dup7\n        /* \"#utility.yul\":981:997   */\n      add\n        /* \"#utility.yul\":959:1011   */\n      tag_291\n      jump\t// in\n    tag_365:\n        /* \"#utility.yul\":1036:1065   */\n      tag_366\n        /* \"#utility.yul\":1058:1064   */\n      dup2\n        /* \"#utility.yul\":1036:1065   */\n      tag_292\n      jump\t// in\n    tag_366:\n        /* \"#utility.yul\":1031:1034   */\n      dup5\n        /* \"#utility.yul\":1027:1066   */\n      add\n        /* \"#utility.yul\":1020:1066   */\n      swap2\n      pop\n        /* \"#utility.yul\":800:1072   */\n      pop\n        /* \"#utility.yul\":708:1072   */\n      swap3\n      swap2\n      pop\n      pop\n      jump\t// out\n        /* \"#utility.yul\":1078:1391   */\n    tag_28:\n        /* \"#utility.yul\":1191:1195   */\n      0x00\n        /* \"#utility.yul\":1229:1231   */\n      0x20\n        /* \"#utility.yul\":1218:1227   */\n      dup3\n        /* \"#utility.yul\":1214:1232   */\n      add\n        /* \"#utility.yul\":1206:1232   */\n      swap1\n      pop\n        /* \"#utility.yul\":1278:1287   */\n      dup2\n        /* \"#utility.yul\":1272:1276   */\n      dup2\n        /* \"#utility.yul\":1268:1288   */\n      sub\n        /* \"#utility.yul\":1264:1265   */\n      0x00\n        /* \"#utility.yul\":1253:1262   */\n      dup4\n        /* \"#utility.yul\":1249:1266   */\n      add\n        /* \"#utility.yul\":1242:1289   */\n      mstore\n        /* \"#utility.yul\":1306:1384   */\n      tag_368\n        /* \"#utility.yul\":1379:1383   */\n      dup2\n        /* \"#utility.yul\":1370:1376   */\n      dup5\n        /* \"#utility.yul\":1306:1384   */\n      tag_293\n      jump\t// in\n    tag_368:\n        /* \"#utility.yul\":1298:1384   */\n      swap1\n      pop\n        /* \"#utility.yul\":1078:1391   */\n      swap3\n      swap2\n      pop\n      pop\n      jump\t// out\n        /* \"#utility.yul\":1478:1595   */\n    tag_295:\n        /* \"#utility.yul\":1587:1588   */\n      0x00\n        /* \"#utility.yul\":1584:1585   */\n      dup1\n        /* \"#utility.yul\":1577:1589   */\n      revert\n        /* \"#utility.yul\":1724:1850   */\n    tag_297:\n        /* \"#utility.yul\":1761:1768   */\n      0x00\n        /* \"#utility.yul\":1801:1843   */\n      0xffffffffffffffffffffffffffffffffffffffff\n        /* \"#utility.yul\":1794:1799   */\n      dup3\n        /* \"#utility.yul\":1790:1844   */\n      and\n        /* \"#utility.yul\":1779:1844   */\n      swap1\n      pop\n        /* \"#utility.yul\":1724:1850   */\n      swap2\n      swap1\n      pop\n      jump\t// out\n        /* \"#utility.yul\":1856:1952   */\n    tag_298:\n        /* \"#utility.yul\":1893:1900   */\n      0x00\n        /* \"#utility.yul\":1922:1946   */\n      tag_374\n        /* \"#utility.yul\":1940:1945   */\n      dup3\n        /* \"#utility.yul\":1922:1946   */\n      tag_297\n      jump\t// in\n    tag_374:\n        /* \"#utility.yul\":1911:1946   */\n      swap1\n      pop\n        /* \"#utility.yul\":1856:1952   */\n      swap2\n      swap1\n      pop\n      jump\t// out\n        /* \"#utility.yul\":1958:2080   */\n    tag_299:\n        /* \"#utility.yul\":2031:2055   */\n      tag_376\n        /* \"#utility.yul\":2049:2054   */\n      dup2\n        /* \"#utility.yul\":2031:2055   */\n      tag_298\n      jump\t// in\n    tag_376:\n        /* \"#utility.yul\":2024:2029   */\n      dup2\n        /* \"#utility.yul\":2021:2056   */\n      eq\n        /* \"#utility.yul\":2011:2074   */\n      tag_377\n      jumpi\n        /* \"#utility.yul\":2070:2071   */\n      0x00\n        /* \"#utility.yul\":2067:2068   */\n      dup1\n        /* \"#utility.yul\":2060:2072   */\n      revert\n        /* \"#utility.yul\":2011:2074   */\n    tag_377:\n        /* \"#utility.yul\":1958:2080   */\n      pop\n      jump\t// out\n        /* \"#utility.yul\":2086:2225   */\n    tag_300:\n        /* \"#utility.yul\":2132:2137   */\n      0x00\n        /* \"#utility.yul\":2170:2176   */\n      dup2\n        /* \"#utility.yul\":2157:2177   */\n      calldataload\n        /* \"#utility.yul\":2148:2177   */\n      swap1\n      pop\n        /* \"#utility.yul\":2186:2219   */\n      tag_379\n        /* \"#utility.yul\":2213:2218   */\n      dup2\n        /* \"#utility.yul\":2186:2219   */\n      tag_299\n      jump\t// in\n    tag_379:\n        /* \"#utility.yul\":2086:2225   */\n      swap3\n      swap2\n      pop\n      pop\n      jump\t// out\n        /* \"#utility.yul\":2231:2308   */\n    tag_301:\n        /* \"#utility.yul\":2268:2275   */\n      0x00\n        /* \"#utility.yul\":2297:2302   */\n      dup2\n        /* \"#utility.yul\":2286:2302   */\n      swap1\n      pop\n        /* \"#utility.yul\":2231:2308   */\n      swap2\n      swap1\n      pop\n      jump\t// out\n        /* \"#utility.yul\":2314:2436   */\n    tag_302:\n        /* \"#utility.yul\":2387:2411   */\n      tag_382\n        /* \"#utility.yul\":2405:2410   */\n      dup2\n        /* \"#utility.yul\":2387:2411   */\n      tag_301\n      jump\t// in\n    tag_382:\n        /* \"#utility.yul\":2380:2385   */\n      dup2\n        /* \"#utility.yul\":2377:2412   */\n      eq\n        /* \"#utility.yul\":2367:2430   */\n      tag_383\n      jumpi\n        /* \"#utility.yul\":2426:2427   */\n      0x00\n        /* \"#utility.yul\":2423:2424   */\n      dup1\n        /* \"#utility.yul\":2416:2428   */\n      revert\n        /* \"#utility.yul\":2367:2430   */\n    tag_383:\n        /* \"#utility.yul\":2314:2436   */\n      pop\n      jump\t// out\n        /* \"#utility.yul\":2442:2581   */\n    tag_303:\n        /* \"#utility.yul\":2488:2493   */\n      0x00\n        /* \"#utility.yul\":2526:2532   */\n      dup2\n        /* \"#utility.yul\":2513:2533   */\n      calldataload\n        /* \"#utility.yul\":2504:2533   */\n      swap1\n      pop\n        /* \"#utility.yul\":2542:2575   */\n      tag_385\n        /* \"#utility.yul\":2569:2574   */\n      dup2\n        /* \"#utility.yul\":2542:2575   */\n      tag_302\n      jump\t// in\n    tag_385:\n        /* \"#utility.yul\":2442:2581   */\n      swap3\n      swap2\n      pop\n      pop\n      jump\t// out\n        /* \"#utility.yul\":2587:3061   */\n    tag_31:\n        /* \"#utility.yul\":2655:2661   */\n      0x00\n        /* \"#utility.yul\":2663:2669   */\n      dup1\n        /* \"#utility.yul\":2712:2714   */\n      0x40\n        /* \"#utility.yul\":2700:2709   */\n      dup4\n        /* \"#utility.yul\":2691:2698   */\n      dup6\n        /* \"#utility.yul\":2687:2710   */\n      sub\n        /* \"#utility.yul\":2683:2715   */\n      slt\n        /* \"#utility.yul\":2680:2799   */\n      iszero\n      tag_387\n      jumpi\n        /* \"#utility.yul\":2718:2797   */\n      tag_388\n      tag_295\n      jump\t// in\n    tag_388:\n        /* \"#utility.yul\":2680:2799   */\n    tag_387:\n        /* \"#utility.yul\":2838:2839   */\n      0x00\n        /* \"#utility.yul\":2863:2916   */\n      tag_389\n        /* \"#utility.yul\":2908:2915   */\n      dup6\n        /* \"#utility.yul\":2899:2905   */\n      dup3\n        /* \"#utility.yul\":2888:2897   */\n      dup7\n        /* \"#utility.yul\":2884:2906   */\n      add\n        /* \"#utility.yul\":2863:2916   */\n      tag_300\n      jump\t// in\n    tag_389:\n        /* \"#utility.yul\":2853:2916   */\n      swap3\n      pop\n        /* \"#utility.yul\":2809:2926   */\n      pop\n        /* \"#utility.yul\":2965:2967   */\n      0x20\n        /* \"#utility.yul\":2991:3044   */\n      tag_390\n        /* \"#utility.yul\":3036:3043   */\n      dup6\n        /* \"#utility.yul\":3027:3033   */\n      dup3\n        /* \"#utility.yul\":3016:3025   */\n      dup7\n        /* \"#utility.yul\":3012:3034   */\n      add\n        /* \"#utility.yul\":2991:3044   */\n      tag_303\n      jump\t// in\n    tag_390:\n        /* \"#utility.yul\":2981:3044   */\n      swap2\n      pop\n        /* \"#utility.yul\":2936:3054   */\n      pop\n        /* \"#utility.yul\":2587:3061   */\n      swap3\n      pop\n      swap3\n      swap1\n      pop\n      jump\t// out\n        /* \"#utility.yul\":3067:3157   */\n    tag_304:\n        /* \"#utility.yul\":3101:3108   */\n      0x00\n        /* \"#utility.yul\":3144:3149   */\n      dup2\n        /* \"#utility.yul\":3137:3150   */\n      iszero\n        /* \"#utility.yul\":3130:3151   */\n      iszero\n        /* \"#utility.yul\":3119:3151   */\n      swap1\n      pop\n        /* \"#utility.yul\":3067:3157   */\n      swap2\n      swap1\n      pop\n      jump\t// out\n        /* \"#utility.yul\":3163:3272   */\n    tag_305:\n        /* \"#utility.yul\":3244:3265   */\n      tag_393\n        /* \"#utility.yul\":3259:3264   */\n      dup2\n        /* \"#utility.yul\":3244:3265   */\n      tag_304\n      jump\t// in\n    tag_393:\n        /* \"#utility.yul\":3239:3242   */\n      dup3\n        /* \"#utility.yul\":3232:3266   */\n      mstore\n        /* \"#utility.yul\":3163:3272   */\n      pop\n      pop\n      jump\t// out\n        /* \"#utility.yul\":3278:3488   */\n    tag_34:\n        /* \"#utility.yul\":3365:3369   */\n      0x00\n        /* \"#utility.yul\":3403:3405   */\n      0x20\n        /* \"#utility.yul\":3392:3401   */\n      dup3\n        /* \"#utility.yul\":3388:3406   */\n      add\n        /* \"#utility.yul\":3380:3406   */\n      swap1\n      pop\n        /* \"#utility.yul\":3416:3481   */\n      tag_395\n        /* \"#utility.yul\":3478:3479   */\n      0x00\n        /* \"#utility.yul\":3467:3476   */\n      dup4\n        /* \"#utility.yul\":3463:3480   */\n      add\n        /* \"#utility.yul\":3454:3460   */\n      dup5\n        /* \"#utility.yul\":3416:3481   */\n      tag_305\n      jump\t// in\n    tag_395:\n        /* \"#utility.yul\":3278:3488   */\n      swap3\n      swap2\n      pop\n      pop\n      jump\t// out\n        /* \"#utility.yul\":3494:3612   */\n    tag_306:\n        /* \"#utility.yul\":3581:3605   */\n      tag_397\n        /* \"#utility.yul\":3599:3604   */\n      dup2\n        /* \"#utility.yul\":3581:3605   */\n      tag_301\n      jump\t// in\n    tag_397:\n        /* \"#utility.yul\":3576:3579   */\n      dup3\n        /* \"#utility.yul\":3569:3606   */\n      mstore\n        /* \"#utility.yul\":3494:3612   */\n      pop\n      pop\n      jump\t// out\n        /* \"#utility.yul\":3618:3840   */\n    tag_38:\n        /* \"#utility.yul\":3711:3715   */\n      0x00\n        /* \"#utility.yul\":3749:3751   */\n      0x20\n        /* \"#utility.yul\":3738:3747   */\n      dup3\n        /* \"#utility.yul\":3734:3752   */\n      add\n        /* \"#utility.yul\":3726:3752   */\n      swap1\n      pop\n        /* \"#utility.yul\":3762:3833   */\n      tag_399\n        /* \"#utility.yul\":3830:3831   */\n      0x00\n        /* \"#utility.yul\":3819:3828   */\n      dup4\n        /* \"#utility.yul\":3815:3832   */\n      add\n        /* \"#utility.yul\":3806:3812   */\n      dup5\n        /* \"#utility.yul\":3762:3833   */\n      tag_306\n      jump\t// in\n    tag_399:\n        /* \"#utility.yul\":3618:3840   */\n      swap3\n      swap2\n      pop\n      pop\n      jump\t// out\n        /* \"#utility.yul\":3846:4465   */\n    tag_41:\n        /* \"#utility.yul\":3923:3929   */\n      0x00\n        /* \"#utility.yul\":3931:3937   */\n      dup1\n        /* \"#utility.yul\":3939:3945   */\n      0x00\n        /* \"#utility.yul\":3988:3990   */\n      0x60\n        /* \"#utility.yul\":3976:3985   */\n      dup5\n        /* \"#utility.yul\":3967:3974   */\n      dup7\n        /* \"#utility.yul\":3963:3986   */\n      sub\n        /* \"#utility.yul\":3959:3991   */\n      slt\n        /* \"#utility.yul\":3956:4075   */\n      iszero\n      tag_401\n      jumpi\n        /* \"#utility.yul\":3994:4073   */\n      tag_402\n      tag_295\n      jump\t// in\n    tag_402:\n        /* \"#utility.yul\":3956:4075   */\n    tag_401:\n        /* \"#utility.yul\":4114:4115   */\n      0x00\n        /* \"#utility.yul\":4139:4192   */\n      tag_403\n        /* \"#utility.yul\":4184:4191   */\n      dup7\n        /* \"#utility.yul\":4175:4181   */\n      dup3\n        /* \"#utility.yul\":4164:4173   */\n      dup8\n        /* \"#utility.yul\":4160:4182   */\n      add\n        /* \"#utility.yul\":4139:4192   */\n      tag_300\n      jump\t// in\n    tag_403:\n        /* \"#utility.yul\":4129:4192   */\n      swap4\n      pop\n        /* \"#utility.yul\":4085:4202   */\n      pop\n        /* \"#utility.yul\":4241:4243   */\n      0x20\n        /* \"#utility.yul\":4267:4320   */\n      tag_404\n        /* \"#utility.yul\":4312:4319   */\n      dup7\n        /* \"#utility.yul\":4303:4309   */\n      dup3\n        /* \"#utility.yul\":4292:4301   */\n      dup8\n        /* \"#utility.yul\":4288:4310   */\n      add\n        /* \"#utility.yul\":4267:4320   */\n      tag_300\n      jump\t// in\n    tag_404:\n        /* \"#utility.yul\":4257:4320   */\n      swap3\n      pop\n        /* \"#utility.yul\":4212:4330   */\n      pop\n        /* \"#utility.yul\":4369:4371   */\n      0x40\n        /* \"#utility.yul\":4395:4448   */\n      tag_405\n        /* \"#utility.yul\":4440:4447   */\n      dup7\n        /* \"#utility.yul\":4431:4437   */\n      dup3\n        /* \"#utility.yul\":4420:4429   */\n      dup8\n        /* \"#utility.yul\":4416:4438   */\n      add\n        /* \"#utility.yul\":4395:4448   */\n      tag_303\n      jump\t// in\n    tag_405:\n        /* \"#utility.yul\":4385:4448   */\n      swap2\n      pop\n        /* \"#utility.yul\":4340:4458   */\n      pop\n        /* \"#utility.yul\":3846:4465   */\n      swap3\n      pop\n      swap3\n      pop\n      swap3\n      jump\t// out\n        /* \"#utility.yul\":4471:5090   */\n    tag_46:\n        /* \"#utility.yul\":4548:4554   */\n      0x00\n        /* \"#utility.yul\":4556:4562   */\n      dup1\n        /* \"#utility.yul\":4564:4570   */\n      0x00\n        /* \"#utility.yul\":4613:4615   */\n      0x60\n        /* \"#utility.yul\":4601:4610   */\n      dup5\n        /* \"#utility.yul\":4592:4599   */\n      dup7\n        /* \"#utility.yul\":4588:4611   */\n      sub\n        /* \"#utility.yul\":4584:4616   */\n      slt\n        /* \"#utility.yul\":4581:4700   */\n      iszero\n      tag_407\n      jumpi\n        /* \"#utility.yul\":4619:4698   */\n      tag_408\n      tag_295\n      jump\t// in\n    tag_408:\n        /* \"#utility.yul\":4581:4700   */\n    tag_407:\n        /* \"#utility.yul\":4739:4740   */\n      0x00\n        /* \"#utility.yul\":4764:4817   */\n      tag_409\n        /* \"#utility.yul\":4809:4816   */\n      dup7\n        /* \"#utility.yul\":4800:4806   */\n      dup3\n        /* \"#utility.yul\":4789:4798   */\n      dup8\n        /* \"#utility.yul\":4785:4807   */\n      add\n        /* \"#utility.yul\":4764:4817   */\n      tag_303\n      jump\t// in\n    tag_409:\n        /* \"#utility.yul\":4754:4817   */\n      swap4\n      pop\n        /* \"#utility.yul\":4710:4827   */\n      pop\n        /* \"#utility.yul\":4866:4868   */\n      0x20\n        /* \"#utility.yul\":4892:4945   */\n      tag_410\n        /* \"#utility.yul\":4937:4944   */\n      dup7\n        /* \"#utility.yul\":4928:4934   */\n      dup3\n        /* \"#utility.yul\":4917:4926   */\n      dup8\n        /* \"#utility.yul\":4913:4935   */\n      add\n        /* \"#utility.yul\":4892:4945   */\n      tag_303\n      jump\t// in\n    tag_410:\n        /* \"#utility.yul\":4882:4945   */\n      swap3\n      pop\n        /* \"#utility.yul\":4837:4955   */\n      pop\n        /* \"#utility.yul\":4994:4996   */\n      0x40\n        /* \"#utility.yul\":5020:5073   */\n      tag_411\n        /* \"#utility.yul\":5065:5072   */\n      dup7\n        /* \"#utility.yul\":5056:5062   */\n      dup3\n        /* \"#utility.yul\":5045:5054   */\n      dup8\n        /* \"#utility.yul\":5041:5063   */\n      add\n        /* \"#utility.yul\":5020:5073   */\n      tag_303\n      jump\t// in\n    tag_411:\n        /* \"#utility.yul\":5010:5073   */\n      swap2\n      pop\n        /* \"#utility.yul\":4965:5083   */\n      pop\n        /* \"#utility.yul\":4471:5090   */\n      swap3\n      pop\n      swap3\n      pop\n      swap3\n      jump\t// out\n        /* \"#utility.yul\":5096:5182   */\n    tag_307:\n        /* \"#utility.yul\":5131:5138   */\n      0x00\n        /* \"#utility.yul\":5171:5175   */\n      0xff\n        /* \"#utility.yul\":5164:5169   */\n      dup3\n        /* \"#utility.yul\":5160:5176   */\n      and\n        /* \"#utility.yul\":5149:5176   */\n      swap1\n      pop\n        /* \"#utility.yul\":5096:5182   */\n      swap2\n      swap1\n      pop\n      jump\t// out\n        /* \"#utility.yul\":5188:5300   */\n    tag_308:\n        /* \"#utility.yul\":5271:5293   */\n      tag_414\n        /* \"#utility.yul\":5287:5292   */\n      dup2\n        /* \"#utility.yul\":5271:5293   */\n      tag_307\n      jump\t// in\n    tag_414:\n        /* \"#utility.yul\":5266:5269   */\n      dup3\n        /* \"#utility.yul\":5259:5294   */\n      mstore\n        /* \"#utility.yul\":5188:5300   */\n      pop\n      pop\n      jump\t// out\n        /* \"#utility.yul\":5306:5520   */\n    tag_51:\n        /* \"#utility.yul\":5395:5399   */\n      0x00\n        /* \"#utility.yul\":5433:5435   */\n      0x20\n        /* \"#utility.yul\":5422:5431   */\n      dup3\n        /* \"#utility.yul\":5418:5436   */\n      add\n        /* \"#utility.yul\":5410:5436   */\n      swap1\n      pop\n        /* \"#utility.yul\":5446:5513   */\n      tag_416\n        /* \"#utility.yul\":5510:5511   */\n      0x00\n        /* \"#utility.yul\":5499:5508   */\n      dup4\n        /* \"#utility.yul\":5495:5512   */\n      add\n        /* \"#utility.yul\":5486:5492   */\n      dup5\n        /* \"#utility.yul\":5446:5513   */\n      tag_308\n      jump\t// in\n    tag_416:\n        /* \"#utility.yul\":5306:5520   */\n      swap3\n      swap2\n      pop\n      pop\n      jump\t// out\n        /* \"#utility.yul\":5526:5855   */\n    tag_58:\n        /* \"#utility.yul\":5585:5591   */\n      0x00\n        /* \"#utility.yul\":5634:5636   */\n      0x20\n        /* \"#utility.yul\":5622:5631   */\n      dup3\n        /* \"#utility.yul\":5613:5620   */\n      dup5\n        /* \"#utility.yul\":5609:5632   */\n      sub\n        /* \"#utility.yul\":5605:5637   */\n      slt\n        /* \"#utility.yul\":5602:5721   */\n      iszero\n      tag_418\n      jumpi\n        /* \"#utility.yul\":5640:5719   */\n      tag_419\n      tag_295\n      jump\t// in\n    tag_419:\n        /* \"#utility.yul\":5602:5721   */\n    tag_418:\n        /* \"#utility.yul\":5760:5761   */\n      0x00\n        /* \"#utility.yul\":5785:5838   */\n      tag_420\n        /* \"#utility.yul\":5830:5837   */\n      dup5\n        /* \"#utility.yul\":5821:5827   */\n      dup3\n        /* \"#utility.yul\":5810:5819   */\n      dup6\n        /* \"#utility.yul\":5806:5828   */\n      add\n        /* \"#utility.yul\":5785:5838   */\n      tag_300\n      jump\t// in\n    tag_420:\n        /* \"#utility.yul\":5775:5838   */\n      swap2\n      pop\n        /* \"#utility.yul\":5731:5848   */\n      pop\n        /* \"#utility.yul\":5526:5855   */\n      swap3\n      swap2\n      pop\n      pop\n      jump\t// out\n        /* \"#utility.yul\":5861:5979   */\n    tag_309:\n        /* \"#utility.yul\":5948:5972   */\n      tag_422\n        /* \"#utility.yul\":5966:5971   */\n      dup2\n        /* \"#utility.yul\":5948:5972   */\n      tag_298\n      jump\t// in\n    tag_422:\n        /* \"#utility.yul\":5943:5946   */\n      dup3\n        /* \"#utility.yul\":5936:5973   */\n      mstore\n        /* \"#utility.yul\":5861:5979   */\n      pop\n      pop\n      jump\t// out\n        /* \"#utility.yul\":5985:6207   */\n    tag_66:\n        /* \"#utility.yul\":6078:6082   */\n      0x00\n        /* \"#utility.yul\":6116:6118   */\n      0x20\n        /* \"#utility.yul\":6105:6114   */\n      dup3\n        /* \"#utility.yul\":6101:6119   */\n      add\n        /* \"#utility.yul\":6093:6119   */\n      swap1\n      pop\n        /* \"#utility.yul\":6129:6200   */\n      tag_424\n        /* \"#utility.yul\":6197:6198   */\n      0x00\n        /* \"#utility.yul\":6186:6195   */\n      dup4\n        /* \"#utility.yul\":6182:6199   */\n      add\n        /* \"#utility.yul\":6173:6179   */\n      dup5\n        /* \"#utility.yul\":6129:6200   */\n      tag_309\n      jump\t// in\n    tag_424:\n        /* \"#utility.yul\":5985:6207   */\n      swap3\n      swap2\n      pop\n      pop\n      jump\t// out\n        /* \"#utility.yul\":6213:6542   */\n    tag_83:\n        /* \"#utility.yul\":6272:6278   */\n      0x00\n        /* \"#utility.yul\":6321:6323   */\n      0x20\n        /* \"#utility.yul\":6309:6318   */\n      dup3\n        /* \"#utility.yul\":6300:6307   */\n      dup5\n        /* \"#utility.yul\":6296:6319   */\n      sub\n        /* \"#utility.yul\":6292:6324   */\n      slt\n        /* \"#utility.yul\":6289:6408   */\n      iszero\n      tag_426\n      jumpi\n        /* \"#utility.yul\":6327:6406   */\n      tag_427\n      tag_295\n      jump\t// in\n    tag_427:\n        /* \"#utility.yul\":6289:6408   */\n    tag_426:\n        /* \"#utility.yul\":6447:6448   */\n      0x00\n        /* \"#utility.yul\":6472:6525   */\n      tag_428\n        /* \"#utility.yul\":6517:6524   */\n      dup5\n        /* \"#utility.yul\":6508:6514   */\n      dup3\n        /* \"#utility.yul\":6497:6506   */\n      dup6\n        /* \"#utility.yul\":6493:6515   */\n      add\n        /* \"#utility.yul\":6472:6525   */\n      tag_303\n      jump\t// in\n    tag_428:\n        /* \"#utility.yul\":6462:6525   */\n      swap2\n      pop\n        /* \"#utility.yul\":6418:6535   */\n      pop\n        /* \"#utility.yul\":6213:6542   */\n      swap3\n      swap2\n      pop\n      pop\n      jump\t// out\n        /* \"#utility.yul\":6548:7022   */\n    tag_91:\n        /* \"#utility.yul\":6616:6622   */\n      0x00\n        /* \"#utility.yul\":6624:6630   */\n      dup1\n        /* \"#utility.yul\":6673:6675   */\n      0x40\n        /* \"#utility.yul\":6661:6670   */\n      dup4\n        /* \"#utility.yul\":6652:6659   */\n      dup6\n        /* \"#utility.yul\":6648:6671   */\n      sub\n        /* \"#utility.yul\":6644:6676   */\n      slt\n        /* \"#utility.yul\":6641:6760   */\n      iszero\n      tag_430\n      jumpi\n        /* \"#utility.yul\":6679:6758   */\n      tag_431\n      tag_295\n      jump\t// in\n    tag_431:\n        /* \"#utility.yul\":6641:6760   */\n    tag_430:\n        /* \"#utility.yul\":6799:6800   */\n      0x00\n        /* \"#utility.yul\":6824:6877   */\n      tag_432\n        /* \"#utility.yul\":6869:6876   */\n      dup6\n        /* \"#utility.yul\":6860:6866   */\n      dup3\n        /* \"#utility.yul\":6849:6858   */\n      dup7\n        /* \"#utility.yul\":6845:6867   */\n      add\n        /* \"#utility.yul\":6824:6877   */\n      tag_300\n      jump\t// in\n    tag_432:\n        /* \"#utility.yul\":6814:6877   */\n      swap3\n      pop\n        /* \"#utility.yul\":6770:6887   */\n      pop\n        /* \"#utility.yul\":6926:6928   */\n      0x20\n        /* \"#utility.yul\":6952:7005   */\n      tag_433\n        /* \"#utility.yul\":6997:7004   */\n      dup6\n        /* \"#utility.yul\":6988:6994   */\n      dup3\n        /* \"#utility.yul\":6977:6986   */\n      dup7\n        /* \"#utility.yul\":6973:6995   */\n      add\n        /* \"#utility.yul\":6952:7005   */\n      tag_300\n      jump\t// in\n    tag_433:\n        /* \"#utility.yul\":6942:7005   */\n      swap2\n      pop\n        /* \"#utility.yul\":6897:7015   */\n      pop\n        /* \"#utility.yul\":6548:7022   */\n      swap3\n      pop\n      swap3\n      swap1\n      pop\n      jump\t// out\n        /* \"#utility.yul\":7028:7136   */\n    tag_310:\n        /* \"#utility.yul\":7105:7129   */\n      tag_435\n        /* \"#utility.yul\":7123:7128   */\n      dup2\n        /* \"#utility.yul\":7105:7129   */\n      tag_301\n      jump\t// in\n    tag_435:\n        /* \"#utility.yul\":7100:7103   */\n      dup3\n        /* \"#utility.yul\":7093:7130   */\n      mstore\n        /* \"#utility.yul\":7028:7136   */\n      pop\n      pop\n      jump\t// out\n        /* \"#utility.yul\":7142:7278   */\n    tag_311:\n        /* \"#utility.yul\":7231:7237   */\n      0x00\n        /* \"#utility.yul\":7265:7270   */\n      dup2\n        /* \"#utility.yul\":7259:7271   */\n      mload\n        /* \"#utility.yul\":7249:7271   */\n      swap1\n      pop\n        /* \"#utility.yul\":7142:7278   */\n      swap2\n      swap1\n      pop\n      jump\t// out\n        /* \"#utility.yul\":7284:7480   */\n    tag_312:\n        /* \"#utility.yul\":7395:7406   */\n      0x00\n        /* \"#utility.yul\":7429:7435   */\n      dup3\n        /* \"#utility.yul\":7424:7427   */\n      dup3\n        /* \"#utility.yul\":7417:7436   */\n      mstore\n        /* \"#utility.yul\":7469:7473   */\n      0x20\n        /* \"#utility.yul\":7464:7467   */\n      dup3\n        /* \"#utility.yul\":7460:7474   */\n      add\n        /* \"#utility.yul\":7445:7474   */\n      swap1\n      pop\n        /* \"#utility.yul\":7284:7480   */\n      swap3\n      swap2\n      pop\n      pop\n      jump\t// out\n        /* \"#utility.yul\":7486:7640   */\n    tag_313:\n        /* \"#utility.yul\":7575:7579   */\n      0x00\n        /* \"#utility.yul\":7598:7601   */\n      dup2\n        /* \"#utility.yul\":7590:7601   */\n      swap1\n      pop\n        /* \"#utility.yul\":7628:7632   */\n      0x20\n        /* \"#utility.yul\":7623:7626   */\n      dup3\n        /* \"#utility.yul\":7619:7633   */\n      add\n        /* \"#utility.yul\":7611:7633   */\n      swap1\n      pop\n        /* \"#utility.yul\":7486:7640   */\n      swap2\n      swap1\n      pop\n      jump\t// out\n        /* \"#utility.yul\":7646:7754   */\n    tag_314:\n        /* \"#utility.yul\":7723:7747   */\n      tag_440\n        /* \"#utility.yul\":7741:7746   */\n      dup2\n        /* \"#utility.yul\":7723:7747   */\n      tag_298\n      jump\t// in\n    tag_440:\n        /* \"#utility.yul\":7718:7721   */\n      dup3\n        /* \"#utility.yul\":7711:7748   */\n      mstore\n        /* \"#utility.yul\":7646:7754   */\n      pop\n      pop\n      jump\t// out\n        /* \"#utility.yul\":7816:8663   */\n    tag_315:\n        /* \"#utility.yul\":7947:7951   */\n      0x80\n        /* \"#utility.yul\":7942:7945   */\n      dup3\n        /* \"#utility.yul\":7938:7952   */\n      add\n        /* \"#utility.yul\":8034:8038   */\n      0x00\n        /* \"#utility.yul\":8027:8032   */\n      dup3\n        /* \"#utility.yul\":8023:8039   */\n      add\n        /* \"#utility.yul\":8017:8040   */\n      mload\n        /* \"#utility.yul\":8053:8116   */\n      tag_442\n        /* \"#utility.yul\":8110:8114   */\n      0x00\n        /* \"#utility.yul\":8105:8108   */\n      dup6\n        /* \"#utility.yul\":8101:8115   */\n      add\n        /* \"#utility.yul\":8087:8099   */\n      dup3\n        /* \"#utility.yul\":8053:8116   */\n      tag_314\n      jump\t// in\n    tag_442:\n        /* \"#utility.yul\":7962:8126   */\n      pop\n        /* \"#utility.yul\":8210:8214   */\n      0x20\n        /* \"#utility.yul\":8203:8208   */\n      dup3\n        /* \"#utility.yul\":8199:8215   */\n      add\n        /* \"#utility.yul\":8193:8216   */\n      mload\n        /* \"#utility.yul\":8229:8292   */\n      tag_443\n        /* \"#utility.yul\":8286:8290   */\n      0x20\n        /* \"#utility.yul\":8281:8284   */\n      dup6\n        /* \"#utility.yul\":8277:8291   */\n      add\n        /* \"#utility.yul\":8263:8275   */\n      dup3\n        /* \"#utility.yul\":8229:8292   */\n      tag_310\n      jump\t// in\n    tag_443:\n        /* \"#utility.yul\":8136:8302   */\n      pop\n        /* \"#utility.yul\":8385:8389   */\n      0x40\n        /* \"#utility.yul\":8378:8383   */\n      dup3\n        /* \"#utility.yul\":8374:8390   */\n      add\n        /* \"#utility.yul\":8368:8391   */\n      mload\n        /* \"#utility.yul\":8404:8467   */\n      tag_444\n        /* \"#utility.yul\":8461:8465   */\n      0x40\n        /* \"#utility.yul\":8456:8459   */\n      dup6\n        /* \"#utility.yul\":8452:8466   */\n      add\n        /* \"#utility.yul\":8438:8450   */\n      dup3\n        /* \"#utility.yul\":8404:8467   */\n      tag_310\n      jump\t// in\n    tag_444:\n        /* \"#utility.yul\":8312:8477   */\n      pop\n        /* \"#utility.yul\":8564:8568   */\n      0x60\n        /* \"#utility.yul\":8557:8562   */\n      dup3\n        /* \"#utility.yul\":8553:8569   */\n      add\n        /* \"#utility.yul\":8547:8570   */\n      mload\n        /* \"#utility.yul\":8583:8646   */\n      tag_445\n        /* \"#utility.yul\":8640:8644   */\n      0x60\n        /* \"#utility.yul\":8635:8638   */\n      dup6\n        /* \"#utility.yul\":8631:8645   */\n      add\n        /* \"#utility.yul\":8617:8629   */\n      dup3\n        /* \"#utility.yul\":8583:8646   */\n      tag_310\n      jump\t// in\n    tag_445:\n        /* \"#utility.yul\":8487:8656   */\n      pop\n        /* \"#utility.yul\":7916:8663   */\n      pop\n        /* \"#utility.yul\":7816:8663   */\n      pop\n      pop\n      jump\t// out\n        /* \"#utility.yul\":8669:8936   */\n    tag_316:\n        /* \"#utility.yul\":8782:8792   */\n      0x00\n        /* \"#utility.yul\":8803:8893   */\n      tag_447\n        /* \"#utility.yul\":8889:8892   */\n      dup4\n        /* \"#utility.yul\":8881:8887   */\n      dup4\n        /* \"#utility.yul\":8803:8893   */\n      tag_315\n      jump\t// in\n    tag_447:\n        /* \"#utility.yul\":8925:8929   */\n      0x80\n        /* \"#utility.yul\":8920:8923   */\n      dup4\n        /* \"#utility.yul\":8916:8930   */\n      add\n        /* \"#utility.yul\":8902:8930   */\n      swap1\n      pop\n        /* \"#utility.yul\":8669:8936   */\n      swap3\n      swap2\n      pop\n      pop\n      jump\t// out\n        /* \"#utility.yul\":8942:9077   */\n    tag_317:\n        /* \"#utility.yul\":9034:9038   */\n      0x00\n        /* \"#utility.yul\":9066:9070   */\n      0x20\n        /* \"#utility.yul\":9061:9064   */\n      dup3\n        /* \"#utility.yul\":9057:9071   */\n      add\n        /* \"#utility.yul\":9049:9071   */\n      swap1\n      pop\n        /* \"#utility.yul\":8942:9077   */\n      swap2\n      swap1\n      pop\n      jump\t// out\n        /* \"#utility.yul\":9143:10031   */\n    tag_318:\n        /* \"#utility.yul\":9296:9299   */\n      0x00\n        /* \"#utility.yul\":9325:9401   */\n      tag_450\n        /* \"#utility.yul\":9395:9400   */\n      dup3\n        /* \"#utility.yul\":9325:9401   */\n      tag_311\n      jump\t// in\n    tag_450:\n        /* \"#utility.yul\":9417:9515   */\n      tag_451\n        /* \"#utility.yul\":9508:9514   */\n      dup2\n        /* \"#utility.yul\":9503:9506   */\n      dup6\n        /* \"#utility.yul\":9417:9515   */\n      tag_312\n      jump\t// in\n    tag_451:\n        /* \"#utility.yul\":9410:9515   */\n      swap4\n      pop\n        /* \"#utility.yul\":9539:9617   */\n      tag_452\n        /* \"#utility.yul\":9611:9616   */\n      dup4\n        /* \"#utility.yul\":9539:9617   */\n      tag_313\n      jump\t// in\n    tag_452:\n        /* \"#utility.yul\":9640:9647   */\n      dup1\n        /* \"#utility.yul\":9671:9672   */\n      0x00\n        /* \"#utility.yul\":9656:10006   */\n    tag_453:\n        /* \"#utility.yul\":9681:9687   */\n      dup4\n        /* \"#utility.yul\":9678:9679   */\n      dup2\n        /* \"#utility.yul\":9675:9688   */\n      lt\n        /* \"#utility.yul\":9656:10006   */\n      iszero\n      tag_455\n      jumpi\n        /* \"#utility.yul\":9757:9763   */\n      dup2\n        /* \"#utility.yul\":9751:9764   */\n      mload\n        /* \"#utility.yul\":9784:9891   */\n      tag_456\n        /* \"#utility.yul\":9887:9890   */\n      dup9\n        /* \"#utility.yul\":9872:9885   */\n      dup3\n        /* \"#utility.yul\":9784:9891   */\n      tag_316\n      jump\t// in\n    tag_456:\n        /* \"#utility.yul\":9777:9891   */\n      swap8\n      pop\n        /* \"#utility.yul\":9914:9996   */\n      tag_457\n        /* \"#utility.yul\":9989:9995   */\n      dup4\n        /* \"#utility.yul\":9914:9996   */\n      tag_317\n      jump\t// in\n    tag_457:\n        /* \"#utility.yul\":9904:9996   */\n      swap3\n      pop\n        /* \"#utility.yul\":9716:10006   */\n      pop\n        /* \"#utility.yul\":9703:9704   */\n      0x01\n        /* \"#utility.yul\":9700:9701   */\n      dup2\n        /* \"#utility.yul\":9696:9705   */\n      add\n        /* \"#utility.yul\":9691:9705   */\n      swap1\n      pop\n        /* \"#utility.yul\":9656:10006   */\n      jump(tag_453)\n    tag_455:\n        /* \"#utility.yul\":9660:9674   */\n      pop\n        /* \"#utility.yul\":10022:10025   */\n      dup6\n        /* \"#utility.yul\":10015:10025   */\n      swap4\n      pop\n        /* \"#utility.yul\":9301:10031   */\n      pop\n      pop\n      pop\n        /* \"#utility.yul\":9143:10031   */\n      swap3\n      swap2\n      pop\n      pop\n      jump\t// out\n        /* \"#utility.yul\":10111:10813   */\n    tag_319:\n        /* \"#utility.yul\":10242:10245   */\n      0x00\n        /* \"#utility.yul\":10278:10282   */\n      0x40\n        /* \"#utility.yul\":10273:10276   */\n      dup4\n        /* \"#utility.yul\":10269:10283   */\n      add\n        /* \"#utility.yul\":10373:10377   */\n      0x00\n        /* \"#utility.yul\":10366:10371   */\n      dup4\n        /* \"#utility.yul\":10362:10378   */\n      add\n        /* \"#utility.yul\":10356:10379   */\n      mload\n        /* \"#utility.yul\":10392:10455   */\n      tag_459\n        /* \"#utility.yul\":10449:10453   */\n      0x00\n        /* \"#utility.yul\":10444:10447   */\n      dup7\n        /* \"#utility.yul\":10440:10454   */\n      add\n        /* \"#utility.yul\":10426:10438   */\n      dup3\n        /* \"#utility.yul\":10392:10455   */\n      tag_310\n      jump\t// in\n    tag_459:\n        /* \"#utility.yul\":10293:10465   */\n      pop\n        /* \"#utility.yul\":10549:10553   */\n      0x20\n        /* \"#utility.yul\":10542:10547   */\n      dup4\n        /* \"#utility.yul\":10538:10554   */\n      add\n        /* \"#utility.yul\":10532:10555   */\n      mload\n        /* \"#utility.yul\":10602:10605   */\n      dup5\n        /* \"#utility.yul\":10596:10600   */\n      dup3\n        /* \"#utility.yul\":10592:10606   */\n      sub\n        /* \"#utility.yul\":10585:10589   */\n      0x20\n        /* \"#utility.yul\":10580:10583   */\n      dup7\n        /* \"#utility.yul\":10576:10590   */\n      add\n        /* \"#utility.yul\":10569:10607   */\n      mstore\n        /* \"#utility.yul\":10628:10775   */\n      tag_460\n        /* \"#utility.yul\":10770:10774   */\n      dup3\n        /* \"#utility.yul\":10756:10768   */\n      dup3\n        /* \"#utility.yul\":10628:10775   */\n      tag_318\n      jump\t// in\n    tag_460:\n        /* \"#utility.yul\":10620:10775   */\n      swap2\n      pop\n        /* \"#utility.yul\":10475:10786   */\n      pop\n        /* \"#utility.yul\":10803:10807   */\n      dup1\n        /* \"#utility.yul\":10796:10807   */\n      swap2\n      pop\n        /* \"#utility.yul\":10247:10813   */\n      pop\n        /* \"#utility.yul\":10111:10813   */\n      swap3\n      swap2\n      pop\n      pop\n      jump\t// out\n        /* \"#utility.yul\":10819:11216   */\n    tag_98:\n        /* \"#utility.yul\":10974:10978   */\n      0x00\n        /* \"#utility.yul\":11012:11014   */\n      0x20\n        /* \"#utility.yul\":11001:11010   */\n      dup3\n        /* \"#utility.yul\":10997:11015   */\n      add\n        /* \"#utility.yul\":10989:11015   */\n      swap1\n      pop\n        /* \"#utility.yul\":11061:11070   */\n      dup2\n        /* \"#utility.yul\":11055:11059   */\n      dup2\n        /* \"#utility.yul\":11051:11071   */\n      sub\n        /* \"#utility.yul\":11047:11048   */\n      0x00\n        /* \"#utility.yul\":11036:11045   */\n      dup4\n        /* \"#utility.yul\":11032:11049   */\n      add\n        /* \"#utility.yul\":11025:11072   */\n      mstore\n        /* \"#utility.yul\":11089:11209   */\n      tag_462\n        /* \"#utility.yul\":11204:11208   */\n      dup2\n        /* \"#utility.yul\":11195:11201   */\n      dup5\n        /* \"#utility.yul\":11089:11209   */\n      tag_319\n      jump\t// in\n    tag_462:\n        /* \"#utility.yul\":11081:11209   */\n      swap1\n      pop\n        /* \"#utility.yul\":10819:11216   */\n      swap3\n      swap2\n      pop\n      pop\n      jump\t// out\n        /* \"#utility.yul\":11222:11402   */\n    tag_320:\n        /* \"#utility.yul\":11270:11347   */\n      0x4e487b7100000000000000000000000000000000000000000000000000000000\n        /* \"#utility.yul\":11267:11268   */\n      0x00\n        /* \"#utility.yul\":11260:11348   */\n      mstore\n        /* \"#utility.yul\":11367:11371   */\n      0x11\n        /* \"#utility.yul\":11364:11365   */\n      0x04\n        /* \"#utility.yul\":11357:11372   */\n      mstore\n        /* \"#utility.yul\":11391:11395   */\n      0x24\n        /* \"#utility.yul\":11388:11389   */\n      0x00\n        /* \"#utility.yul\":11381:11396   */\n      revert\n        /* \"#utility.yul\":11408:11510   */\n    tag_321:\n        /* \"#utility.yul\":11450:11458   */\n      0x00\n        /* \"#utility.yul\":11497:11502   */\n      dup2\n        /* \"#utility.yul\":11494:11495   */\n      0x01\n        /* \"#utility.yul\":11490:11503   */\n      shr\n        /* \"#utility.yul\":11469:11503   */\n      swap1\n      pop\n        /* \"#utility.yul\":11408:11510   */\n      swap2\n      swap1\n      pop\n      jump\t// out\n        /* \"#utility.yul\":11516:12364   */\n    tag_322:\n        /* \"#utility.yul\":11577:11582   */\n      0x00\n        /* \"#utility.yul\":11584:11588   */\n      dup1\n        /* \"#utility.yul\":11608:11614   */\n      dup3\n        /* \"#utility.yul\":11599:11614   */\n      swap2\n      pop\n        /* \"#utility.yul\":11632:11637   */\n      dup4\n        /* \"#utility.yul\":11623:11637   */\n      swap1\n      pop\n        /* \"#utility.yul\":11646:12358   */\n    tag_466:\n        /* \"#utility.yul\":11667:11668   */\n      0x01\n        /* \"#utility.yul\":11657:11665   */\n      dup6\n        /* \"#utility.yul\":11654:11669   */\n      gt\n        /* \"#utility.yul\":11646:12358   */\n      iszero\n      tag_468\n      jumpi\n        /* \"#utility.yul\":11762:11766   */\n      dup1\n        /* \"#utility.yul\":11757:11760   */\n      dup7\n        /* \"#utility.yul\":11753:11767   */\n      div\n        /* \"#utility.yul\":11747:11751   */\n      dup2\n        /* \"#utility.yul\":11744:11768   */\n      gt\n        /* \"#utility.yul\":11741:11791   */\n      iszero\n      tag_469\n      jumpi\n        /* \"#utility.yul\":11771:11789   */\n      tag_470\n      tag_320\n      jump\t// in\n    tag_470:\n        /* \"#utility.yul\":11741:11791   */\n    tag_469:\n        /* \"#utility.yul\":11821:11822   */\n      0x01\n        /* \"#utility.yul\":11811:11819   */\n      dup6\n        /* \"#utility.yul\":11807:11823   */\n      and\n        /* \"#utility.yul\":11804:12255   */\n      iszero\n      tag_471\n      jumpi\n        /* \"#utility.yul\":12236:12240   */\n      dup1\n        /* \"#utility.yul\":12229:12234   */\n      dup3\n        /* \"#utility.yul\":12225:12241   */\n      mul\n        /* \"#utility.yul\":12216:12241   */\n      swap2\n      pop\n        /* \"#utility.yul\":11804:12255   */\n    tag_471:\n        /* \"#utility.yul\":12286:12290   */\n      dup1\n        /* \"#utility.yul\":12280:12284   */\n      dup2\n        /* \"#utility.yul\":12276:12291   */\n      mul\n        /* \"#utility.yul\":12268:12291   */\n      swap1\n      pop\n        /* \"#utility.yul\":12316:12348   */\n      tag_472\n        /* \"#utility.yul\":12339:12347   */\n      dup6\n        /* \"#utility.yul\":12316:12348   */\n      tag_321\n      jump\t// in\n    tag_472:\n        /* \"#utility.yul\":12304:12348   */\n      swap5\n      pop\n        /* \"#utility.yul\":11646:12358   */\n      jump(tag_466)\n    tag_468:\n        /* \"#utility.yul\":11516:12364   */\n      swap5\n      pop\n      swap5\n      swap3\n      pop\n      pop\n      pop\n      jump\t// out\n        /* \"#utility.yul\":12370:13443   */\n    tag_323:\n        /* \"#utility.yul\":12424:12429   */\n      0x00\n        /* \"#utility.yul\":12615:12623   */\n      dup3\n        /* \"#utility.yul\":12605:12645   */\n      tag_474\n      jumpi\n        /* \"#utility.yul\":12636:12637   */\n      0x01\n        /* \"#utility.yul\":12627:12637   */\n      swap1\n      pop\n        /* \"#utility.yul\":12638:12643   */\n      jump(tag_473)\n        /* \"#utility.yul\":12605:12645   */\n    tag_474:\n        /* \"#utility.yul\":12664:12668   */\n      dup2\n        /* \"#utility.yul\":12654:12690   */\n      tag_475\n      jumpi\n        /* \"#utility.yul\":12681:12682   */\n      0x00\n        /* \"#utility.yul\":12672:12682   */\n      swap1\n      pop\n        /* \"#utility.yul\":12683:12688   */\n      jump(tag_473)\n        /* \"#utility.yul\":12654:12690   */\n    tag_475:\n        /* \"#utility.yul\":12750:12754   */\n      dup2\n        /* \"#utility.yul\":12798:12799   */\n      0x01\n        /* \"#utility.yul\":12793:12820   */\n      dup2\n      eq\n      tag_477\n      jumpi\n        /* \"#utility.yul\":12834:12835   */\n      0x02\n        /* \"#utility.yul\":12829:13020   */\n      dup2\n      eq\n      tag_478\n      jumpi\n        /* \"#utility.yul\":12743:13020   */\n      jump(tag_476)\n        /* \"#utility.yul\":12793:12820   */\n    tag_477:\n        /* \"#utility.yul\":12811:12812   */\n      0x01\n        /* \"#utility.yul\":12802:12812   */\n      swap2\n      pop\n        /* \"#utility.yul\":12813:12818   */\n      pop\n      jump(tag_473)\n        /* \"#utility.yul\":12829:13020   */\n    tag_478:\n        /* \"#utility.yul\":12874:12877   */\n      0xff\n        /* \"#utility.yul\":12864:12872   */\n      dup5\n        /* \"#utility.yul\":12861:12878   */\n      gt\n        /* \"#utility.yul\":12858:12901   */\n      iszero\n      tag_479\n      jumpi\n        /* \"#utility.yul\":12881:12899   */\n      tag_480\n      tag_320\n      jump\t// in\n    tag_480:\n        /* \"#utility.yul\":12858:12901   */\n    tag_479:\n        /* \"#utility.yul\":12930:12938   */\n      dup4\n        /* \"#utility.yul\":12927:12928   */\n      0x02\n        /* \"#utility.yul\":12923:12939   */\n      exp\n        /* \"#utility.yul\":12914:12939   */\n      swap2\n      pop\n        /* \"#utility.yul\":12965:12968   */\n      dup5\n        /* \"#utility.yul\":12958:12963   */\n      dup3\n        /* \"#utility.yul\":12955:12969   */\n      gt\n        /* \"#utility.yul\":12952:12992   */\n      iszero\n      tag_481\n      jumpi\n        /* \"#utility.yul\":12972:12990   */\n      tag_482\n      tag_320\n      jump\t// in\n    tag_482:\n        /* \"#utility.yul\":12952:12992   */\n    tag_481:\n        /* \"#utility.yul\":13005:13010   */\n      pop\n      jump(tag_473)\n        /* \"#utility.yul\":12743:13020   */\n    tag_476:\n      pop\n        /* \"#utility.yul\":13129:13131   */\n      0x20\n        /* \"#utility.yul\":13119:13127   */\n      dup4\n        /* \"#utility.yul\":13116:13132   */\n      lt\n        /* \"#utility.yul\":13110:13113   */\n      0x0133\n        /* \"#utility.yul\":13104:13108   */\n      dup4\n        /* \"#utility.yul\":13101:13114   */\n      lt\n        /* \"#utility.yul\":13097:13133   */\n      and\n        /* \"#utility.yul\":13079:13081   */\n      0x4e\n        /* \"#utility.yul\":13069:13077   */\n      dup5\n        /* \"#utility.yul\":13066:13082   */\n      lt\n        /* \"#utility.yul\":13061:13063   */\n      0x0b\n        /* \"#utility.yul\":13055:13059   */\n      dup5\n        /* \"#utility.yul\":13052:13064   */\n      lt\n        /* \"#utility.yul\":13048:13083   */\n      and\n        /* \"#utility.yul\":13032:13143   */\n      or\n        /* \"#utility.yul\":13029:13275   */\n      iszero\n      tag_483\n      jumpi\n        /* \"#utility.yul\":13185:13193   */\n      dup3\n        /* \"#utility.yul\":13179:13183   */\n      dup3\n        /* \"#utility.yul\":13175:13194   */\n      exp\n        /* \"#utility.yul\":13166:13194   */\n      swap1\n      pop\n        /* \"#utility.yul\":13220:13223   */\n      dup4\n        /* \"#utility.yul\":13213:13218   */\n      dup2\n        /* \"#utility.yul\":13210:13224   */\n      gt\n        /* \"#utility.yul\":13207:13247   */\n      iszero\n      tag_484\n      jumpi\n        /* \"#utility.yul\":13227:13245   */\n      tag_485\n      tag_320\n      jump\t// in\n    tag_485:\n        /* \"#utility.yul\":13207:13247   */\n    tag_484:\n        /* \"#utility.yul\":13260:13265   */\n      jump(tag_473)\n        /* \"#utility.yul\":13029:13275   */\n    tag_483:\n        /* \"#utility.yul\":13300:13342   */\n      tag_486\n        /* \"#utility.yul\":13338:13341   */\n      dup5\n        /* \"#utility.yul\":13328:13336   */\n      dup5\n        /* \"#utility.yul\":13322:13326   */\n      dup5\n        /* \"#utility.yul\":13319:13320   */\n      0x01\n        /* \"#utility.yul\":13300:13342   */\n      tag_322\n      jump\t// in\n    tag_486:\n        /* \"#utility.yul\":13285:13342   */\n      swap3\n      pop\n      swap1\n      pop\n        /* \"#utility.yul\":13374:13378   */\n      dup2\n        /* \"#utility.yul\":13369:13372   */\n      dup5\n        /* \"#utility.yul\":13365:13379   */\n      div\n        /* \"#utility.yul\":13358:13363   */\n      dup2\n        /* \"#utility.yul\":13355:13380   */\n      gt\n        /* \"#utility.yul\":13352:13403   */\n      iszero\n      tag_487\n      jumpi\n        /* \"#utility.yul\":13383:13401   */\n      tag_488\n      tag_320\n      jump\t// in\n    tag_488:\n        /* \"#utility.yul\":13352:13403   */\n    tag_487:\n        /* \"#utility.yul\":13432:13436   */\n      dup2\n        /* \"#utility.yul\":13425:13430   */\n      dup2\n        /* \"#utility.yul\":13421:13437   */\n      mul\n        /* \"#utility.yul\":13412:13437   */\n      swap1\n      pop\n        /* \"#utility.yul\":12370:13443   */\n    tag_473:\n      swap4\n      swap3\n      pop\n      pop\n      pop\n      jump\t// out\n        /* \"#utility.yul\":13449:13734   */\n    tag_108:\n        /* \"#utility.yul\":13509:13514   */\n      0x00\n        /* \"#utility.yul\":13533:13556   */\n      tag_490\n        /* \"#utility.yul\":13551:13555   */\n      dup3\n        /* \"#utility.yul\":13533:13556   */\n      tag_301\n      jump\t// in\n    tag_490:\n        /* \"#utility.yul\":13525:13556   */\n      swap2\n      pop\n        /* \"#utility.yul\":13577:13604   */\n      tag_491\n        /* \"#utility.yul\":13595:13603   */\n      dup4\n        /* \"#utility.yul\":13577:13604   */\n      tag_301\n      jump\t// in\n    tag_491:\n        /* \"#utility.yul\":13565:13604   */\n      swap3\n      pop\n        /* \"#utility.yul\":13623:13727   */\n      tag_492\n        /* \"#utility.yul\":13660:13726   */\n      0xffffffffffffffffffffffffffffffffffffffffffffffffffffffffffffffff\n        /* \"#utility.yul\":13650:13658   */\n      dup5\n        /* \"#utility.yul\":13644:13648   */\n      dup5\n        /* \"#utility.yul\":13623:13727   */\n      tag_323\n      jump\t// in\n    tag_492:\n        /* \"#utility.yul\":13614:13727   */\n      swap1\n      pop\n        /* \"#utility.yul\":13449:13734   */\n      swap3\n      swap2\n      pop\n      pop\n      jump\t// out\n        /* \"#utility.yul\":13740:14088   */\n    tag_110:\n        /* \"#utility.yul\":13780:13787   */\n      0x00\n        /* \"#utility.yul\":13803:13823   */\n      tag_494\n        /* \"#utility.yul\":13821:13822   */\n      dup3\n        /* \"#utility.yul\":13803:13823   */\n      tag_301\n      jump\t// in\n    tag_494:\n        /* \"#utility.yul\":13798:13823   */\n      swap2\n      pop\n        /* \"#utility.yul\":13837:13857   */\n      tag_495\n        /* \"#utility.yul\":13855:13856   */\n      dup4\n        /* \"#utility.yul\":13837:13857   */\n      tag_301\n      jump\t// in\n    tag_495:\n        /* \"#utility.yul\":13832:13857   */\n      swap3\n      pop\n        /* \"#utility.yul\":14025:14026   */\n      dup2\n        /* \"#utility.yul\":13957:14023   */\n      0xffffffffffffffffffffffffffffffffffffffffffffffffffffffffffffffff\n        /* \"#utility.yul\":13953:14027   */\n      div\n        /* \"#utility.yul\":13950:13951   */\n      dup4\n        /* \"#utility.yul\":13947:14028   */\n      gt\n        /* \"#utility.yul\":13942:13943   */\n      dup3\n        /* \"#utility.yul\":13935:13944   */\n      iszero\n        /* \"#utility.yul\":13928:13945   */\n      iszero\n        /* \"#utility.yul\":13924:14029   */\n      and\n        /* \"#utility.yul\":13921:14052   */\n      iszero\n      tag_496\n      jumpi\n        /* \"#utility.yul\":14032:14050   */\n      tag_497\n      tag_320\n      jump\t// in\n    tag_497:\n        /* \"#utility.yul\":13921:14052   */\n    tag_496:\n        /* \"#utility.yul\":14080:14081   */\n      dup3\n        /* \"#utility.yul\":14077:14078   */\n      dup3\n        /* \"#utility.yul\":14073:14082   */\n      mul\n        /* \"#utility.yul\":14062:14082   */\n      swap1\n      pop\n        /* \"#utility.yul\":13740:14088   */\n      swap3\n      swap2\n      pop\n      pop\n      jump\t// out\n        /* \"#utility.yul\":14094:14330   */\n    tag_324:\n        /* \"#utility.yul\":14234:14268   */\n      0x4d657472613a20596f752063616e6e6f74207370656e642074686174206d7563\n        /* \"#utility.yul\":14230:14231   */\n      0x00\n        /* \"#utility.yul\":14222:14228   */\n      dup3\n        /* \"#utility.yul\":14218:14232   */\n      add\n        /* \"#utility.yul\":14211:14269   */\n      mstore\n        /* \"#utility.yul\":14303:14322   */\n      0x68206f6e2074686973206163636f756e74000000000000000000000000000000\n        /* \"#utility.yul\":14298:14300   */\n      0x20\n        /* \"#utility.yul\":14290:14296   */\n      dup3\n        /* \"#utility.yul\":14286:14301   */\n      add\n        /* \"#utility.yul\":14279:14323   */\n      mstore\n        /* \"#utility.yul\":14094:14330   */\n      pop\n      jump\t// out\n        /* \"#utility.yul\":14336:14702   */\n    tag_325:\n        /* \"#utility.yul\":14478:14481   */\n      0x00\n        /* \"#utility.yul\":14499:14566   */\n      tag_500\n        /* \"#utility.yul\":14563:14565   */\n      0x31\n        /* \"#utility.yul\":14558:14561   */\n      dup4\n        /* \"#utility.yul\":14499:14566   */\n      tag_290\n      jump\t// in\n    tag_500:\n        /* \"#utility.yul\":14492:14566   */\n      swap2\n      pop\n        /* \"#utility.yul\":14575:14668   */\n      tag_501\n        /* \"#utility.yul\":14664:14667   */\n      dup3\n        /* \"#utility.yul\":14575:14668   */\n      tag_324\n      jump\t// in\n    tag_501:\n        /* \"#utility.yul\":14693:14695   */\n      0x40\n        /* \"#utility.yul\":14688:14691   */\n      dup3\n        /* \"#utility.yul\":14684:14696   */\n      add\n        /* \"#utility.yul\":14677:14696   */\n      swap1\n      pop\n        /* \"#utility.yul\":14336:14702   */\n      swap2\n      swap1\n      pop\n      jump\t// out\n        /* \"#utility.yul\":14708:15127   */\n    tag_114:\n        /* \"#utility.yul\":14874:14878   */\n      0x00\n        /* \"#utility.yul\":14912:14914   */\n      0x20\n        /* \"#utility.yul\":14901:14910   */\n      dup3\n        /* \"#utility.yul\":14897:14915   */\n      add\n        /* \"#utility.yul\":14889:14915   */\n      swap1\n      pop\n        /* \"#utility.yul\":14961:14970   */\n      dup2\n        /* \"#utility.yul\":14955:14959   */\n      dup2\n        /* \"#utility.yul\":14951:14971   */\n      sub\n        /* \"#utility.yul\":14947:14948   */\n      0x00\n        /* \"#utility.yul\":14936:14945   */\n      dup4\n        /* \"#utility.yul\":14932:14949   */\n      add\n        /* \"#utility.yul\":14925:14972   */\n      mstore\n        /* \"#utility.yul\":14989:15120   */\n      tag_503\n        /* \"#utility.yul\":15115:15119   */\n      dup2\n        /* \"#utility.yul\":14989:15120   */\n      tag_325\n      jump\t// in\n    tag_503:\n        /* \"#utility.yul\":14981:15120   */\n      swap1\n      pop\n        /* \"#utility.yul\":14708:15127   */\n      swap2\n      swap1\n      pop\n      jump\t// out\n        /* \"#utility.yul\":15133:15324   */\n    tag_119:\n        /* \"#utility.yul\":15173:15177   */\n      0x00\n        /* \"#utility.yul\":15193:15213   */\n      tag_505\n        /* \"#utility.yul\":15211:15212   */\n      dup3\n        /* \"#utility.yul\":15193:15213   */\n      tag_301\n      jump\t// in\n    tag_505:\n        /* \"#utility.yul\":15188:15213   */\n      swap2\n      pop\n        /* \"#utility.yul\":15227:15247   */\n      tag_506\n        /* \"#utility.yul\":15245:15246   */\n      dup4\n        /* \"#utility.yul\":15227:15247   */\n      tag_301\n      jump\t// in\n    tag_506:\n        /* \"#utility.yul\":15222:15247   */\n      swap3\n      pop\n        /* \"#utility.yul\":15266:15267   */\n      dup3\n        /* \"#utility.yul\":15263:15264   */\n      dup3\n        /* \"#utility.yul\":15260:15268   */\n      lt\n        /* \"#utility.yul\":15257:15291   */\n      iszero\n      tag_507\n      jumpi\n        /* \"#utility.yul\":15271:15289   */\n      tag_508\n      tag_320\n      jump\t// in\n    tag_508:\n        /* \"#utility.yul\":15257:15291   */\n    tag_507:\n        /* \"#utility.yul\":15316:15317   */\n      dup3\n        /* \"#utility.yul\":15313:15314   */\n      dup3\n        /* \"#utility.yul\":15309:15318   */\n      sub\n        /* \"#utility.yul\":15301:15318   */\n      swap1\n      pop\n        /* \"#utility.yul\":15133:15324   */\n      swap3\n      swap2\n      pop\n      pop\n      jump\t// out\n        /* \"#utility.yul\":15330:15635   */\n    tag_123:\n        /* \"#utility.yul\":15370:15373   */\n      0x00\n        /* \"#utility.yul\":15389:15409   */\n      tag_510\n        /* \"#utility.yul\":15407:15408   */\n      dup3\n        /* \"#utility.yul\":15389:15409   */\n      tag_301\n      jump\t// in\n    tag_510:\n        /* \"#utility.yul\":15384:15409   */\n      swap2\n      pop\n        /* \"#utility.yul\":15423:15443   */\n      tag_511\n        /* \"#utility.yul\":15441:15442   */\n      dup4\n        /* \"#utility.yul\":15423:15443   */\n      tag_301\n      jump\t// in\n    tag_511:\n        /* \"#utility.yul\":15418:15443   */\n      swap3\n      pop\n        /* \"#utility.yul\":15577:15578   */\n      dup3\n        /* \"#utility.yul\":15509:15575   */\n      0xffffffffffffffffffffffffffffffffffffffffffffffffffffffffffffffff\n        /* \"#utility.yul\":15505:15579   */\n      sub\n        /* \"#utility.yul\":15502:15503   */\n      dup3\n        /* \"#utility.yul\":15499:15580   */\n      gt\n        /* \"#utility.yul\":15496:15603   */\n      iszero\n      tag_512\n      jumpi\n        /* \"#utility.yul\":15583:15601   */\n      tag_513\n      tag_320\n      jump\t// in\n    tag_513:\n        /* \"#utility.yul\":15496:15603   */\n    tag_512:\n        /* \"#utility.yul\":15627:15628   */\n      dup3\n        /* \"#utility.yul\":15624:15625   */\n      dup3\n        /* \"#utility.yul\":15620:15629   */\n      add\n        /* \"#utility.yul\":15613:15629   */\n      swap1\n      pop\n        /* \"#utility.yul\":15330:15635   */\n      swap3\n      swap2\n      pop\n      pop\n      jump\t// out\n        /* \"#utility.yul\":15641:15870   */\n    tag_326:\n        /* \"#utility.yul\":15781:15815   */\n      0x4f776e61626c653a206f6e6c79206f776e65722063616e2063616c6c20746869\n        /* \"#utility.yul\":15777:15778   */\n      0x00\n        /* \"#utility.yul\":15769:15775   */\n      dup3\n        /* \"#utility.yul\":15765:15779   */\n      add\n        /* \"#utility.yul\":15758:15816   */\n      mstore\n        /* \"#utility.yul\":15850:15862   */\n      0x732066756e6374696f6e00000000000000000000000000000000000000000000\n        /* \"#utility.yul\":15845:15847   */\n      0x20\n        /* \"#utility.yul\":15837:15843   */\n      dup3\n        /* \"#utility.yul\":15833:15848   */\n      add\n        /* \"#utility.yul\":15826:15863   */\n      mstore\n        /* \"#utility.yul\":15641:15870   */\n      pop\n      jump\t// out\n        /* \"#utility.yul\":15876:16242   */\n    tag_327:\n        /* \"#utility.yul\":16018:16021   */\n      0x00\n        /* \"#utility.yul\":16039:16106   */\n      tag_516\n        /* \"#utility.yul\":16103:16105   */\n      0x2a\n        /* \"#utility.yul\":16098:16101   */\n      dup4\n        /* \"#utility.yul\":16039:16106   */\n      tag_290\n      jump\t// in\n    tag_516:\n        /* \"#utility.yul\":16032:16106   */\n      swap2\n      pop\n        /* \"#utility.yul\":16115:16208   */\n      tag_517\n        /* \"#utility.yul\":16204:16207   */\n      dup3\n        /* \"#utility.yul\":16115:16208   */\n      tag_326\n      jump\t// in\n    tag_517:\n        /* \"#utility.yul\":16233:16235   */\n      0x40\n        /* \"#utility.yul\":16228:16231   */\n      dup3\n        /* \"#utility.yul\":16224:16236   */\n      add\n        /* \"#utility.yul\":16217:16236   */\n      swap1\n      pop\n        /* \"#utility.yul\":15876:16242   */\n      swap2\n      swap1\n      pop\n      jump\t// out\n        /* \"#utility.yul\":16248:16667   */\n    tag_135:\n        /* \"#utility.yul\":16414:16418   */\n      0x00\n        /* \"#utility.yul\":16452:16454   */\n      0x20\n        /* \"#utility.yul\":16441:16450   */\n      dup3\n        /* \"#utility.yul\":16437:16455   */\n      add\n        /* \"#utility.yul\":16429:16455   */\n      swap1\n      pop\n        /* \"#utility.yul\":16501:16510   */\n      dup2\n        /* \"#utility.yul\":16495:16499   */\n      dup2\n        /* \"#utility.yul\":16491:16511   */\n      sub\n        /* \"#utility.yul\":16487:16488   */\n      0x00\n        /* \"#utility.yul\":16476:16485   */\n      dup4\n        /* \"#utility.yul\":16472:16489   */\n      add\n        /* \"#utility.yul\":16465:16512   */\n      mstore\n        /* \"#utility.yul\":16529:16660   */\n      tag_519\n        /* \"#utility.yul\":16655:16659   */\n      dup2\n        /* \"#utility.yul\":16529:16660   */\n      tag_327\n      jump\t// in\n    tag_519:\n        /* \"#utility.yul\":16521:16660   */\n      swap1\n      pop\n        /* \"#utility.yul\":16248:16667   */\n      swap2\n      swap1\n      pop\n      jump\t// out\n        /* \"#utility.yul\":16673:16897   */\n    tag_328:\n        /* \"#utility.yul\":16813:16847   */\n      0x4d657472613a2043616e6e6f74207374616b65206d6f7265207468616e20796f\n        /* \"#utility.yul\":16809:16810   */\n      0x00\n        /* \"#utility.yul\":16801:16807   */\n      dup3\n        /* \"#utility.yul\":16797:16811   */\n      add\n        /* \"#utility.yul\":16790:16848   */\n      mstore\n        /* \"#utility.yul\":16882:16889   */\n      0x75206f776e000000000000000000000000000000000000000000000000000000\n        /* \"#utility.yul\":16877:16879   */\n      0x20\n        /* \"#utility.yul\":16869:16875   */\n      dup3\n        /* \"#utility.yul\":16865:16880   */\n      add\n        /* \"#utility.yul\":16858:16890   */\n      mstore\n        /* \"#utility.yul\":16673:16897   */\n      pop\n      jump\t// out\n        /* \"#utility.yul\":16903:17269   */\n    tag_329:\n        /* \"#utility.yul\":17045:17048   */\n      0x00\n        /* \"#utility.yul\":17066:17133   */\n      tag_522\n        /* \"#utility.yul\":17130:17132   */\n      0x25\n        /* \"#utility.yul\":17125:17128   */\n      dup4\n        /* \"#utility.yul\":17066:17133   */\n      tag_290\n      jump\t// in\n    tag_522:\n        /* \"#utility.yul\":17059:17133   */\n      swap2\n      pop\n        /* \"#utility.yul\":17142:17235   */\n      tag_523\n        /* \"#utility.yul\":17231:17234   */\n      dup3\n        /* \"#utility.yul\":17142:17235   */\n      tag_328\n      jump\t// in\n    tag_523:\n        /* \"#utility.yul\":17260:17262   */\n      0x40\n        /* \"#utility.yul\":17255:17258   */\n      dup3\n        /* \"#utility.yul\":17251:17263   */\n      add\n        /* \"#utility.yul\":17244:17263   */\n      swap1\n      pop\n        /* \"#utility.yul\":16903:17269   */\n      swap2\n      swap1\n      pop\n      jump\t// out\n        /* \"#utility.yul\":17275:17694   */\n    tag_153:\n        /* \"#utility.yul\":17441:17445   */\n      0x00\n        /* \"#utility.yul\":17479:17481   */\n      0x20\n        /* \"#utility.yul\":17468:17477   */\n      dup3\n        /* \"#utility.yul\":17464:17482   */\n      add\n        /* \"#utility.yul\":17456:17482   */\n      swap1\n      pop\n        /* \"#utility.yul\":17528:17537   */\n      dup2\n        /* \"#utility.yul\":17522:17526   */\n      dup2\n        /* \"#utility.yul\":17518:17538   */\n      sub\n        /* \"#utility.yul\":17514:17515   */\n      0x00\n        /* \"#utility.yul\":17503:17512   */\n      dup4\n        /* \"#utility.yul\":17499:17516   */\n      add\n        /* \"#utility.yul\":17492:17539   */\n      mstore\n        /* \"#utility.yul\":17556:17687   */\n      tag_525\n        /* \"#utility.yul\":17682:17686   */\n      dup2\n        /* \"#utility.yul\":17556:17687   */\n      tag_329\n      jump\t// in\n    tag_525:\n        /* \"#utility.yul\":17548:17687   */\n      swap1\n      pop\n        /* \"#utility.yul\":17275:17694   */\n      swap2\n      swap1\n      pop\n      jump\t// out\n        /* \"#utility.yul\":17700:17880   */\n    tag_165:\n        /* \"#utility.yul\":17748:17825   */\n      0x4e487b7100000000000000000000000000000000000000000000000000000000\n        /* \"#utility.yul\":17745:17746   */\n      0x00\n        /* \"#utility.yul\":17738:17826   */\n      mstore\n        /* \"#utility.yul\":17845:17849   */\n      0x32\n        /* \"#utility.yul\":17842:17843   */\n      0x04\n        /* \"#utility.yul\":17835:17850   */\n      mstore\n        /* \"#utility.yul\":17869:17873   */\n      0x24\n        /* \"#utility.yul\":17866:17867   */\n      0x00\n        /* \"#utility.yul\":17859:17874   */\n      revert\n        /* \"#utility.yul\":17886:18120   */\n    tag_330:\n        /* \"#utility.yul\":18026:18060   */\n      0x4d657472613a20617070726f76652063616e6e6f7420626520646f6e65206672\n        /* \"#utility.yul\":18022:18023   */\n      0x00\n        /* \"#utility.yul\":18014:18020   */\n      dup3\n        /* \"#utility.yul\":18010:18024   */\n      add\n        /* \"#utility.yul\":18003:18061   */\n      mstore\n        /* \"#utility.yul\":18095:18112   */\n      0x6f6d207a65726f20616464726573730000000000000000000000000000000000\n        /* \"#utility.yul\":18090:18092   */\n      0x20\n        /* \"#utility.yul\":18082:18088   */\n      dup3\n        /* \"#utility.yul\":18078:18093   */\n      add\n        /* \"#utility.yul\":18071:18113   */\n      mstore\n        /* \"#utility.yul\":17886:18120   */\n      pop\n      jump\t// out\n        /* \"#utility.yul\":18126:18492   */\n    tag_331:\n        /* \"#utility.yul\":18268:18271   */\n      0x00\n        /* \"#utility.yul\":18289:18356   */\n      tag_529\n        /* \"#utility.yul\":18353:18355   */\n      0x2f\n        /* \"#utility.yul\":18348:18351   */\n      dup4\n        /* \"#utility.yul\":18289:18356   */\n      tag_290\n      jump\t// in\n    tag_529:\n        /* \"#utility.yul\":18282:18356   */\n      swap2\n      pop\n        /* \"#utility.yul\":18365:18458   */\n      tag_530\n        /* \"#utility.yul\":18454:18457   */\n      dup3\n        /* \"#utility.yul\":18365:18458   */\n      tag_330\n      jump\t// in\n    tag_530:\n        /* \"#utility.yul\":18483:18485   */\n      0x40\n        /* \"#utility.yul\":18478:18481   */\n      dup3\n        /* \"#utility.yul\":18474:18486   */\n      add\n        /* \"#utility.yul\":18467:18486   */\n      swap1\n      pop\n        /* \"#utility.yul\":18126:18492   */\n      swap2\n      swap1\n      pop\n      jump\t// out\n        /* \"#utility.yul\":18498:18917   */\n    tag_192:\n        /* \"#utility.yul\":18664:18668   */\n      0x00\n        /* \"#utility.yul\":18702:18704   */\n      0x20\n        /* \"#utility.yul\":18691:18700   */\n      dup3\n        /* \"#utility.yul\":18687:18705   */\n      add\n        /* \"#utility.yul\":18679:18705   */\n      swap1\n      pop\n        /* \"#utility.yul\":18751:18760   */\n      dup2\n        /* \"#utility.yul\":18745:18749   */\n      dup2\n        /* \"#utility.yul\":18741:18761   */\n      sub\n        /* \"#utility.yul\":18737:18738   */\n      0x00\n        /* \"#utility.yul\":18726:18735   */\n      dup4\n        /* \"#utility.yul\":18722:18739   */\n      add\n        /* \"#utility.yul\":18715:18762   */\n      mstore\n        /* \"#utility.yul\":18779:18910   */\n      tag_532\n        /* \"#utility.yul\":18905:18909   */\n      dup2\n        /* \"#utility.yul\":18779:18910   */\n      tag_331\n      jump\t// in\n    tag_532:\n        /* \"#utility.yul\":18771:18910   */\n      swap1\n      pop\n        /* \"#utility.yul\":18498:18917   */\n      swap2\n      swap1\n      pop\n      jump\t// out\n        /* \"#utility.yul\":18923:19150   */\n    tag_332:\n        /* \"#utility.yul\":19063:19097   */\n      0x4d657472613a20617070726f76652063616e6e6f7420626520746f207a65726f\n        /* \"#utility.yul\":19059:19060   */\n      0x00\n        /* \"#utility.yul\":19051:19057   */\n      dup3\n        /* \"#utility.yul\":19047:19061   */\n      add\n        /* \"#utility.yul\":19040:19098   */\n      mstore\n        /* \"#utility.yul\":19132:19142   */\n      0x2061646472657373000000000000000000000000000000000000000000000000\n        /* \"#utility.yul\":19127:19129   */\n      0x20\n        /* \"#utility.yul\":19119:19125   */\n      dup3\n        /* \"#utility.yul\":19115:19130   */\n      add\n        /* \"#utility.yul\":19108:19143   */\n      mstore\n        /* \"#utility.yul\":18923:19150   */\n      pop\n      jump\t// out\n        /* \"#utility.yul\":19156:19522   */\n    tag_333:\n        /* \"#utility.yul\":19298:19301   */\n      0x00\n        /* \"#utility.yul\":19319:19386   */\n      tag_535\n        /* \"#utility.yul\":19383:19385   */\n      0x28\n        /* \"#utility.yul\":19378:19381   */\n      dup4\n        /* \"#utility.yul\":19319:19386   */\n      tag_290\n      jump\t// in\n    tag_535:\n        /* \"#utility.yul\":19312:19386   */\n      swap2\n      pop\n        /* \"#utility.yul\":19395:19488   */\n      tag_536\n        /* \"#utility.yul\":19484:19487   */\n      dup3\n        /* \"#utility.yul\":19395:19488   */\n      tag_332\n      jump\t// in\n    tag_536:\n        /* \"#utility.yul\":19513:19515   */\n      0x40\n        /* \"#utility.yul\":19508:19511   */\n      dup3\n        /* \"#utility.yul\":19504:19516   */\n      add\n        /* \"#utility.yul\":19497:19516   */\n      swap1\n      pop\n        /* \"#utility.yul\":19156:19522   */\n      swap2\n      swap1\n      pop\n      jump\t// out\n        /* \"#utility.yul\":19528:19947   */\n    tag_195:\n        /* \"#utility.yul\":19694:19698   */\n      0x00\n        /* \"#utility.yul\":19732:19734   */\n      0x20\n        /* \"#utility.yul\":19721:19730   */\n      dup3\n        /* \"#utility.yul\":19717:19735   */\n      add\n        /* \"#utility.yul\":19709:19735   */\n      swap1\n      pop\n        /* \"#utility.yul\":19781:19790   */\n      dup2\n        /* \"#utility.yul\":19775:19779   */\n      dup2\n        /* \"#utility.yul\":19771:19791   */\n      sub\n        /* \"#utility.yul\":19767:19768   */\n      0x00\n        /* \"#utility.yul\":19756:19765   */\n      dup4\n        /* \"#utility.yul\":19752:19769   */\n      add\n        /* \"#utility.yul\":19745:19792   */\n      mstore\n        /* \"#utility.yul\":19809:19940   */\n      tag_538\n        /* \"#utility.yul\":19935:19939   */\n      dup2\n        /* \"#utility.yul\":19809:19940   */\n      tag_333\n      jump\t// in\n    tag_538:\n        /* \"#utility.yul\":19801:19940   */\n      swap1\n      pop\n        /* \"#utility.yul\":19528:19947   */\n      swap2\n      swap1\n      pop\n      jump\t// out\n        /* \"#utility.yul\":19953:20173   */\n    tag_334:\n        /* \"#utility.yul\":20093:20127   */\n      0x4d657472613a207472616e736665722066726f6d207a65726f20616464726573\n        /* \"#utility.yul\":20089:20090   */\n      0x00\n        /* \"#utility.yul\":20081:20087   */\n      dup3\n        /* \"#utility.yul\":20077:20091   */\n      add\n        /* \"#utility.yul\":20070:20128   */\n      mstore\n        /* \"#utility.yul\":20162:20165   */\n      0x7300000000000000000000000000000000000000000000000000000000000000\n        /* \"#utility.yul\":20157:20159   */\n      0x20\n        /* \"#utility.yul\":20149:20155   */\n      dup3\n        /* \"#utility.yul\":20145:20160   */\n      add\n        /* \"#utility.yul\":20138:20166   */\n      mstore\n        /* \"#utility.yul\":19953:20173   */\n      pop\n      jump\t// out\n        /* \"#utility.yul\":20179:20545   */\n    tag_335:\n        /* \"#utility.yul\":20321:20324   */\n      0x00\n        /* \"#utility.yul\":20342:20409   */\n      tag_541\n        /* \"#utility.yul\":20406:20408   */\n      0x21\n        /* \"#utility.yul\":20401:20404   */\n      dup4\n        /* \"#utility.yul\":20342:20409   */\n      tag_290\n      jump\t// in\n    tag_541:\n        /* \"#utility.yul\":20335:20409   */\n      swap2\n      pop\n        /* \"#utility.yul\":20418:20511   */\n      tag_542\n        /* \"#utility.yul\":20507:20510   */\n      dup3\n        /* \"#utility.yul\":20418:20511   */\n      tag_334\n      jump\t// in\n    tag_542:\n        /* \"#utility.yul\":20536:20538   */\n      0x40\n        /* \"#utility.yul\":20531:20534   */\n      dup3\n        /* \"#utility.yul\":20527:20539   */\n      add\n        /* \"#utility.yul\":20520:20539   */\n      swap1\n      pop\n        /* \"#utility.yul\":20179:20545   */\n      swap2\n      swap1\n      pop\n      jump\t// out\n        /* \"#utility.yul\":20551:20970   */\n    tag_200:\n        /* \"#utility.yul\":20717:20721   */\n      0x00\n        /* \"#utility.yul\":20755:20757   */\n      0x20\n        /* \"#utility.yul\":20744:20753   */\n      dup3\n        /* \"#utility.yul\":20740:20758   */\n      add\n        /* \"#utility.yul\":20732:20758   */\n      swap1\n      pop\n        /* \"#utility.yul\":20804:20813   */\n      dup2\n        /* \"#utility.yul\":20798:20802   */\n      dup2\n        /* \"#utility.yul\":20794:20814   */\n      sub\n        /* \"#utility.yul\":20790:20791   */\n      0x00\n        /* \"#utility.yul\":20779:20788   */\n      dup4\n        /* \"#utility.yul\":20775:20792   */\n      add\n        /* \"#utility.yul\":20768:20815   */\n      mstore\n        /* \"#utility.yul\":20832:20963   */\n      tag_544\n        /* \"#utility.yul\":20958:20962   */\n      dup2\n        /* \"#utility.yul\":20832:20963   */\n      tag_335\n      jump\t// in\n    tag_544:\n        /* \"#utility.yul\":20824:20963   */\n      swap1\n      pop\n        /* \"#utility.yul\":20551:20970   */\n      swap2\n      swap1\n      pop\n      jump\t// out\n        /* \"#utility.yul\":20976:21157   */\n    tag_336:\n        /* \"#utility.yul\":21116:21149   */\n      0x4d657472613a207472616e7366657220746f207a65726f206164647265737300\n        /* \"#utility.yul\":21112:21113   */\n      0x00\n        /* \"#utility.yul\":21104:21110   */\n      dup3\n        /* \"#utility.yul\":21100:21114   */\n      add\n        /* \"#utility.yul\":21093:21150   */\n      mstore\n        /* \"#utility.yul\":20976:21157   */\n      pop\n      jump\t// out\n        /* \"#utility.yul\":21163:21529   */\n    tag_337:\n        /* \"#utility.yul\":21305:21308   */\n      0x00\n        /* \"#utility.yul\":21326:21393   */\n      tag_547\n        /* \"#utility.yul\":21390:21392   */\n      0x1f\n        /* \"#utility.yul\":21385:21388   */\n      dup4\n        /* \"#utility.yul\":21326:21393   */\n      tag_290\n      jump\t// in\n    tag_547:\n        /* \"#utility.yul\":21319:21393   */\n      swap2\n      pop\n        /* \"#utility.yul\":21402:21495   */\n      tag_548\n        /* \"#utility.yul\":21491:21494   */\n      dup3\n        /* \"#utility.yul\":21402:21495   */\n      tag_336\n      jump\t// in\n    tag_548:\n        /* \"#utility.yul\":21520:21522   */\n      0x20\n        /* \"#utility.yul\":21515:21518   */\n      dup3\n        /* \"#utility.yul\":21511:21523   */\n      add\n        /* \"#utility.yul\":21504:21523   */\n      swap1\n      pop\n        /* \"#utility.yul\":21163:21529   */\n      swap2\n      swap1\n      pop\n      jump\t// out\n        /* \"#utility.yul\":21535:21954   */\n    tag_203:\n        /* \"#utility.yul\":21701:21705   */\n      0x00\n        /* \"#utility.yul\":21739:21741   */\n      0x20\n        /* \"#utility.yul\":21728:21737   */\n      dup3\n        /* \"#utility.yul\":21724:21742   */\n      add\n        /* \"#utility.yul\":21716:21742   */\n      swap1\n      pop\n        /* \"#utility.yul\":21788:21797   */\n      dup2\n        /* \"#utility.yul\":21782:21786   */\n      dup2\n        /* \"#utility.yul\":21778:21798   */\n      sub\n        /* \"#utility.yul\":21774:21775   */\n      0x00\n        /* \"#utility.yul\":21763:21772   */\n      dup4\n        /* \"#utility.yul\":21759:21776   */\n      add\n        /* \"#utility.yul\":21752:21799   */\n      mstore\n        /* \"#utility.yul\":21816:21947   */\n      tag_550\n        /* \"#utility.yul\":21942:21946   */\n      dup2\n        /* \"#utility.yul\":21816:21947   */\n      tag_337\n      jump\t// in\n    tag_550:\n        /* \"#utility.yul\":21808:21947   */\n      swap1\n      pop\n        /* \"#utility.yul\":21535:21954   */\n      swap2\n      swap1\n      pop\n      jump\t// out\n        /* \"#utility.yul\":21960:22196   */\n    tag_338:\n        /* \"#utility.yul\":22100:22134   */\n      0x4d657472613a2063616e74207472616e73666572206d6f7265207468616e2079\n        /* \"#utility.yul\":22096:22097   */\n      0x00\n        /* \"#utility.yul\":22088:22094   */\n      dup3\n        /* \"#utility.yul\":22084:22098   */\n      add\n        /* \"#utility.yul\":22077:22135   */\n      mstore\n        /* \"#utility.yul\":22169:22188   */\n      0x6f7572206163636f756e7420686f6c6473000000000000000000000000000000\n        /* \"#utility.yul\":22164:22166   */\n      0x20\n        /* \"#utility.yul\":22156:22162   */\n      dup3\n        /* \"#utility.yul\":22152:22167   */\n      add\n        /* \"#utility.yul\":22145:22189   */\n      mstore\n        /* \"#utility.yul\":21960:22196   */\n      pop\n      jump\t// out\n        /* \"#utility.yul\":22202:22568   */\n    tag_339:\n        /* \"#utility.yul\":22344:22347   */\n      0x00\n        /* \"#utility.yul\":22365:22432   */\n      tag_553\n        /* \"#utility.yul\":22429:22431   */\n      0x31\n        /* \"#utility.yul\":22424:22427   */\n      dup4\n        /* \"#utility.yul\":22365:22432   */\n      tag_290\n      jump\t// in\n    tag_553:\n        /* \"#utility.yul\":22358:22432   */\n      swap2\n      pop\n        /* \"#utility.yul\":22441:22534   */\n      tag_554\n        /* \"#utility.yul\":22530:22533   */\n      dup3\n        /* \"#utility.yul\":22441:22534   */\n      tag_338\n      jump\t// in\n    tag_554:\n        /* \"#utility.yul\":22559:22561   */\n      0x40\n        /* \"#utility.yul\":22554:22557   */\n      dup3\n        /* \"#utility.yul\":22550:22562   */\n      add\n        /* \"#utility.yul\":22543:22562   */\n      swap1\n      pop\n        /* \"#utility.yul\":22202:22568   */\n      swap2\n      swap1\n      pop\n      jump\t// out\n        /* \"#utility.yul\":22574:22993   */\n    tag_206:\n        /* \"#utility.yul\":22740:22744   */\n      0x00\n        /* \"#utility.yul\":22778:22780   */\n      0x20\n        /* \"#utility.yul\":22767:22776   */\n      dup3\n        /* \"#utility.yul\":22763:22781   */\n      add\n        /* \"#utility.yul\":22755:22781   */\n      swap1\n      pop\n        /* \"#utility.yul\":22827:22836   */\n      dup2\n        /* \"#utility.yul\":22821:22825   */\n      dup2\n        /* \"#utility.yul\":22817:22837   */\n      sub\n        /* \"#utility.yul\":22813:22814   */\n      0x00\n        /* \"#utility.yul\":22802:22811   */\n      dup4\n        /* \"#utility.yul\":22798:22815   */\n      add\n        /* \"#utility.yul\":22791:22838   */\n      mstore\n        /* \"#utility.yul\":22855:22986   */\n      tag_556\n        /* \"#utility.yul\":22981:22985   */\n      dup2\n        /* \"#utility.yul\":22855:22986   */\n      tag_339\n      jump\t// in\n    tag_556:\n        /* \"#utility.yul\":22847:22986   */\n      swap1\n      pop\n        /* \"#utility.yul\":22574:22993   */\n      swap2\n      swap1\n      pop\n      jump\t// out\n        /* \"#utility.yul\":22999:23236   */\n    tag_340:\n        /* \"#utility.yul\":23139:23173   */\n      0x5374616b696e673a2043616e6e6f74207769746864726177206d6f7265207468\n        /* \"#utility.yul\":23135:23136   */\n      0x00\n        /* \"#utility.yul\":23127:23133   */\n      dup3\n        /* \"#utility.yul\":23123:23137   */\n      add\n        /* \"#utility.yul\":23116:23174   */\n      mstore\n        /* \"#utility.yul\":23208:23228   */\n      0x616e20796f752068617665207374616b65640000000000000000000000000000\n        /* \"#utility.yul\":23203:23205   */\n      0x20\n        /* \"#utility.yul\":23195:23201   */\n      dup3\n        /* \"#utility.yul\":23191:23206   */\n      add\n        /* \"#utility.yul\":23184:23229   */\n      mstore\n        /* \"#utility.yul\":22999:23236   */\n      pop\n      jump\t// out\n        /* \"#utility.yul\":23242:23608   */\n    tag_341:\n        /* \"#utility.yul\":23384:23387   */\n      0x00\n        /* \"#utility.yul\":23405:23472   */\n      tag_559\n        /* \"#utility.yul\":23469:23471   */\n      0x32\n        /* \"#utility.yul\":23464:23467   */\n      dup4\n        /* \"#utility.yul\":23405:23472   */\n      tag_290\n      jump\t// in\n    tag_559:\n        /* \"#utility.yul\":23398:23472   */\n      swap2\n      pop\n        /* \"#utility.yul\":23481:23574   */\n      tag_560\n        /* \"#utility.yul\":23570:23573   */\n      dup3\n        /* \"#utility.yul\":23481:23574   */\n      tag_340\n      jump\t// in\n    tag_560:\n        /* \"#utility.yul\":23599:23601   */\n      0x40\n        /* \"#utility.yul\":23594:23597   */\n      dup3\n        /* \"#utility.yul\":23590:23602   */\n      add\n        /* \"#utility.yul\":23583:23602   */\n      swap1\n      pop\n        /* \"#utility.yul\":23242:23608   */\n      swap2\n      swap1\n      pop\n      jump\t// out\n        /* \"#utility.yul\":23614:24033   */\n    tag_219:\n        /* \"#utility.yul\":23780:23784   */\n      0x00\n        /* \"#utility.yul\":23818:23820   */\n      0x20\n        /* \"#utility.yul\":23807:23816   */\n      dup3\n        /* \"#utility.yul\":23803:23821   */\n      add\n        /* \"#utility.yul\":23795:23821   */\n      swap1\n      pop\n        /* \"#utility.yul\":23867:23876   */\n      dup2\n        /* \"#utility.yul\":23861:23865   */\n      dup2\n        /* \"#utility.yul\":23857:23877   */\n      sub\n        /* \"#utility.yul\":23853:23854   */\n      0x00\n        /* \"#utility.yul\":23842:23851   */\n      dup4\n        /* \"#utility.yul\":23838:23855   */\n      add\n        /* \"#utility.yul\":23831:23878   */\n      mstore\n        /* \"#utility.yul\":23895:24026   */\n      tag_562\n        /* \"#utility.yul\":24021:24025   */\n      dup2\n        /* \"#utility.yul\":23895:24026   */\n      tag_341\n      jump\t// in\n    tag_562:\n        /* \"#utility.yul\":23887:24026   */\n      swap1\n      pop\n        /* \"#utility.yul\":23614:24033   */\n      swap2\n      swap1\n      pop\n      jump\t// out\n        /* \"#utility.yul\":24039:24260   */\n    tag_342:\n        /* \"#utility.yul\":24179:24213   */\n      0x4d657472613a2063616e6e6f74206d696e7420746f207a65726f206164647265\n        /* \"#utility.yul\":24175:24176   */\n      0x00\n        /* \"#utility.yul\":24167:24173   */\n      dup3\n        /* \"#utility.yul\":24163:24177   */\n      add\n        /* \"#utility.yul\":24156:24214   */\n      mstore\n        /* \"#utility.yul\":24248:24252   */\n      0x7373000000000000000000000000000000000000000000000000000000000000\n        /* \"#utility.yul\":24243:24245   */\n      0x20\n        /* \"#utility.yul\":24235:24241   */\n      dup3\n        /* \"#utility.yul\":24231:24246   */\n      add\n        /* \"#utility.yul\":24224:24253   */\n      mstore\n        /* \"#utility.yul\":24039:24260   */\n      pop\n      jump\t// out\n        /* \"#utility.yul\":24266:24632   */\n    tag_343:\n        /* \"#utility.yul\":24408:24411   */\n      0x00\n        /* \"#utility.yul\":24429:24496   */\n      tag_565\n        /* \"#utility.yul\":24493:24495   */\n      0x22\n        /* \"#utility.yul\":24488:24491   */\n      dup4\n        /* \"#utility.yul\":24429:24496   */\n      tag_290\n      jump\t// in\n    tag_565:\n        /* \"#utility.yul\":24422:24496   */\n      swap2\n      pop\n        /* \"#utility.yul\":24505:24598   */\n      tag_566\n        /* \"#utility.yul\":24594:24597   */\n      dup3\n        /* \"#utility.yul\":24505:24598   */\n      tag_342\n      jump\t// in\n    tag_566:\n        /* \"#utility.yul\":24623:24625   */\n      0x40\n        /* \"#utility.yul\":24618:24621   */\n      dup3\n        /* \"#utility.yul\":24614:24626   */\n      add\n        /* \"#utility.yul\":24607:24626   */\n      swap1\n      pop\n        /* \"#utility.yul\":24266:24632   */\n      swap2\n      swap1\n      pop\n      jump\t// out\n        /* \"#utility.yul\":24638:25057   */\n    tag_246:\n        /* \"#utility.yul\":24804:24808   */\n      0x00\n        /* \"#utility.yul\":24842:24844   */\n      0x20\n        /* \"#utility.yul\":24831:24840   */\n      dup3\n        /* \"#utility.yul\":24827:24845   */\n      add\n        /* \"#utility.yul\":24819:24845   */\n      swap1\n      pop\n        /* \"#utility.yul\":24891:24900   */\n      dup2\n        /* \"#utility.yul\":24885:24889   */\n      dup2\n        /* \"#utility.yul\":24881:24901   */\n      sub\n        /* \"#utility.yul\":24877:24878   */\n      0x00\n        /* \"#utility.yul\":24866:24875   */\n      dup4\n        /* \"#utility.yul\":24862:24879   */\n      add\n        /* \"#utility.yul\":24855:24902   */\n      mstore\n        /* \"#utility.yul\":24919:25050   */\n      tag_568\n        /* \"#utility.yul\":25045:25049   */\n      dup2\n        /* \"#utility.yul\":24919:25050   */\n      tag_343\n      jump\t// in\n    tag_568:\n        /* \"#utility.yul\":24911:25050   */\n      swap1\n      pop\n        /* \"#utility.yul\":24638:25057   */\n      swap2\n      swap1\n      pop\n      jump\t// out\n        /* \"#utility.yul\":25063:25286   */\n    tag_344:\n        /* \"#utility.yul\":25203:25237   */\n      0x4d657472613a2063616e6e6f74206275726e2066726f6d207a65726f20616464\n        /* \"#utility.yul\":25199:25200   */\n      0x00\n        /* \"#utility.yul\":25191:25197   */\n      dup3\n        /* \"#utility.yul\":25187:25201   */\n      add\n        /* \"#utility.yul\":25180:25238   */\n      mstore\n        /* \"#utility.yul\":25272:25278   */\n      0x7265737300000000000000000000000000000000000000000000000000000000\n        /* \"#utility.yul\":25267:25269   */\n      0x20\n        /* \"#utility.yul\":25259:25265   */\n      dup3\n        /* \"#utility.yul\":25255:25270   */\n      add\n        /* \"#utility.yul\":25248:25279   */\n      mstore\n        /* \"#utility.yul\":25063:25286   */\n      pop\n      jump\t// out\n        /* \"#utility.yul\":25292:25658   */\n    tag_345:\n        /* \"#utility.yul\":25434:25437   */\n      0x00\n        /* \"#utility.yul\":25455:25522   */\n      tag_571\n        /* \"#utility.yul\":25519:25521   */\n      0x24\n        /* \"#utility.yul\":25514:25517   */\n      dup4\n        /* \"#utility.yul\":25455:25522   */\n      tag_290\n      jump\t// in\n    tag_571:\n        /* \"#utility.yul\":25448:25522   */\n      swap2\n      pop\n        /* \"#utility.yul\":25531:25624   */\n      tag_572\n        /* \"#utility.yul\":25620:25623   */\n      dup3\n        /* \"#utility.yul\":25531:25624   */\n      tag_344\n      jump\t// in\n    tag_572:\n        /* \"#utility.yul\":25649:25651   */\n      0x40\n        /* \"#utility.yul\":25644:25647   */\n      dup3\n        /* \"#utility.yul\":25640:25652   */\n      add\n        /* \"#utility.yul\":25633:25652   */\n      swap1\n      pop\n        /* \"#utility.yul\":25292:25658   */\n      swap2\n      swap1\n      pop\n      jump\t// out\n        /* \"#utility.yul\":25664:26083   */\n    tag_253:\n        /* \"#utility.yul\":25830:25834   */\n      0x00\n        /* \"#utility.yul\":25868:25870   */\n      0x20\n        /* \"#utility.yul\":25857:25866   */\n      dup3\n        /* \"#utility.yul\":25853:25871   */\n      add\n        /* \"#utility.yul\":25845:25871   */\n      swap1\n      pop\n        /* \"#utility.yul\":25917:25926   */\n      dup2\n        /* \"#utility.yul\":25911:25915   */\n      dup2\n        /* \"#utility.yul\":25907:25927   */\n      sub\n        /* \"#utility.yul\":25903:25904   */\n      0x00\n        /* \"#utility.yul\":25892:25901   */\n      dup4\n        /* \"#utility.yul\":25888:25905   */\n      add\n        /* \"#utility.yul\":25881:25928   */\n      mstore\n        /* \"#utility.yul\":25945:26076   */\n      tag_574\n        /* \"#utility.yul\":26071:26075   */\n      dup2\n        /* \"#utility.yul\":25945:26076   */\n      tag_345\n      jump\t// in\n    tag_574:\n        /* \"#utility.yul\":25937:26076   */\n      swap1\n      pop\n        /* \"#utility.yul\":25664:26083   */\n      swap2\n      swap1\n      pop\n      jump\t// out\n        /* \"#utility.yul\":26089:26321   */\n    tag_346:\n        /* \"#utility.yul\":26229:26263   */\n      0x4d657472613a2043616e6e6f74206275726e206d6f7265207468616e20746865\n        /* \"#utility.yul\":26225:26226   */\n      0x00\n        /* \"#utility.yul\":26217:26223   */\n      dup3\n        /* \"#utility.yul\":26213:26227   */\n      add\n        /* \"#utility.yul\":26206:26264   */\n      mstore\n        /* \"#utility.yul\":26298:26313   */\n      0x206163636f756e74206f776e7300000000000000000000000000000000000000\n        /* \"#utility.yul\":26293:26295   */\n      0x20\n        /* \"#utility.yul\":26285:26291   */\n      dup3\n        /* \"#utility.yul\":26281:26296   */\n      add\n        /* \"#utility.yul\":26274:26314   */\n      mstore\n        /* \"#utility.yul\":26089:26321   */\n      pop\n      jump\t// out\n        /* \"#utility.yul\":26327:26693   */\n    tag_347:\n        /* \"#utility.yul\":26469:26472   */\n      0x00\n        /* \"#utility.yul\":26490:26557   */\n      tag_577\n        /* \"#utility.yul\":26554:26556   */\n      0x2d\n        /* \"#utility.yul\":26549:26552   */\n      dup4\n        /* \"#utility.yul\":26490:26557   */\n      tag_290\n      jump\t// in\n    tag_577:\n        /* \"#utility.yul\":26483:26557   */\n      swap2\n      pop\n        /* \"#utility.yul\":26566:26659   */\n      tag_578\n        /* \"#utility.yul\":26655:26658   */\n      dup3\n        /* \"#utility.yul\":26566:26659   */\n      tag_346\n      jump\t// in\n    tag_578:\n        /* \"#utility.yul\":26684:26686   */\n      0x40\n        /* \"#utility.yul\":26679:26682   */\n      dup3\n        /* \"#utility.yul\":26675:26687   */\n      add\n        /* \"#utility.yul\":26668:26687   */\n      swap1\n      pop\n        /* \"#utility.yul\":26327:26693   */\n      swap2\n      swap1\n      pop\n      jump\t// out\n        /* \"#utility.yul\":26699:27118   */\n    tag_256:\n        /* \"#utility.yul\":26865:26869   */\n      0x00\n        /* \"#utility.yul\":26903:26905   */\n      0x20\n        /* \"#utility.yul\":26892:26901   */\n      dup3\n        /* \"#utility.yul\":26888:26906   */\n      add\n        /* \"#utility.yul\":26880:26906   */\n      swap1\n      pop\n        /* \"#utility.yul\":26952:26961   */\n      dup2\n        /* \"#utility.yul\":26946:26950   */\n      dup2\n        /* \"#utility.yul\":26942:26962   */\n      sub\n        /* \"#utility.yul\":26938:26939   */\n      0x00\n        /* \"#utility.yul\":26927:26936   */\n      dup4\n        /* \"#utility.yul\":26923:26940   */\n      add\n        /* \"#utility.yul\":26916:26963   */\n      mstore\n        /* \"#utility.yul\":26980:27111   */\n      tag_580\n        /* \"#utility.yul\":27106:27110   */\n      dup2\n        /* \"#utility.yul\":26980:27111   */\n      tag_347\n      jump\t// in\n    tag_580:\n        /* \"#utility.yul\":26972:27111   */\n      swap1\n      pop\n        /* \"#utility.yul\":26699:27118   */\n      swap2\n      swap1\n      pop\n      jump\t// out\n        /* \"#utility.yul\":27124:27294   */\n    tag_348:\n        /* \"#utility.yul\":27264:27286   */\n      0x43616e6e6f74207374616b65206e6f7468696e67000000000000000000000000\n        /* \"#utility.yul\":27260:27261   */\n      0x00\n        /* \"#utility.yul\":27252:27258   */\n      dup3\n        /* \"#utility.yul\":27248:27262   */\n      add\n        /* \"#utility.yul\":27241:27287   */\n      mstore\n        /* \"#utility.yul\":27124:27294   */\n      pop\n      jump\t// out\n        /* \"#utility.yul\":27300:27666   */\n    tag_349:\n        /* \"#utility.yul\":27442:27445   */\n      0x00\n        /* \"#utility.yul\":27463:27530   */\n      tag_583\n        /* \"#utility.yul\":27527:27529   */\n      0x14\n        /* \"#utility.yul\":27522:27525   */\n      dup4\n        /* \"#utility.yul\":27463:27530   */\n      tag_290\n      jump\t// in\n    tag_583:\n        /* \"#utility.yul\":27456:27530   */\n      swap2\n      pop\n        /* \"#utility.yul\":27539:27632   */\n      tag_584\n        /* \"#utility.yul\":27628:27631   */\n      dup3\n        /* \"#utility.yul\":27539:27632   */\n      tag_348\n      jump\t// in\n    tag_584:\n        /* \"#utility.yul\":27657:27659   */\n      0x20\n        /* \"#utility.yul\":27652:27655   */\n      dup3\n        /* \"#utility.yul\":27648:27660   */\n      add\n        /* \"#utility.yul\":27641:27660   */\n      swap1\n      pop\n        /* \"#utility.yul\":27300:27666   */\n      swap2\n      swap1\n      pop\n      jump\t// out\n        /* \"#utility.yul\":27672:28091   */\n    tag_263:\n        /* \"#utility.yul\":27838:27842   */\n      0x00\n        /* \"#utility.yul\":27876:27878   */\n      0x20\n        /* \"#utility.yul\":27865:27874   */\n      dup3\n        /* \"#utility.yul\":27861:27879   */\n      add\n        /* \"#utility.yul\":27853:27879   */\n      swap1\n      pop\n        /* \"#utility.yul\":27925:27934   */\n      dup2\n        /* \"#utility.yul\":27919:27923   */\n      dup2\n        /* \"#utility.yul\":27915:27935   */\n      sub\n        /* \"#utility.yul\":27911:27912   */\n      0x00\n        /* \"#utility.yul\":27900:27909   */\n      dup4\n        /* \"#utility.yul\":27896:27913   */\n      add\n        /* \"#utility.yul\":27889:27936   */\n      mstore\n        /* \"#utility.yul\":27953:28084   */\n      tag_586\n        /* \"#utility.yul\":28079:28083   */\n      dup2\n        /* \"#utility.yul\":27953:28084   */\n      tag_349\n      jump\t// in\n    tag_586:\n        /* \"#utility.yul\":27945:28084   */\n      swap1\n      pop\n        /* \"#utility.yul\":27672:28091   */\n      swap2\n      swap1\n      pop\n      jump\t// out\n        /* \"#utility.yul\":28097:28539   */\n    tag_272:\n        /* \"#utility.yul\":28246:28250   */\n      0x00\n        /* \"#utility.yul\":28284:28286   */\n      0x60\n        /* \"#utility.yul\":28273:28282   */\n      dup3\n        /* \"#utility.yul\":28269:28287   */\n      add\n        /* \"#utility.yul\":28261:28287   */\n      swap1\n      pop\n        /* \"#utility.yul\":28297:28368   */\n      tag_588\n        /* \"#utility.yul\":28365:28366   */\n      0x00\n        /* \"#utility.yul\":28354:28363   */\n      dup4\n        /* \"#utility.yul\":28350:28367   */\n      add\n        /* \"#utility.yul\":28341:28347   */\n      dup7\n        /* \"#utility.yul\":28297:28368   */\n      tag_306\n      jump\t// in\n    tag_588:\n        /* \"#utility.yul\":28378:28450   */\n      tag_589\n        /* \"#utility.yul\":28446:28448   */\n      0x20\n        /* \"#utility.yul\":28435:28444   */\n      dup4\n        /* \"#utility.yul\":28431:28449   */\n      add\n        /* \"#utility.yul\":28422:28428   */\n      dup6\n        /* \"#utility.yul\":28378:28450   */\n      tag_306\n      jump\t// in\n    tag_589:\n        /* \"#utility.yul\":28460:28532   */\n      tag_590\n        /* \"#utility.yul\":28528:28530   */\n      0x40\n        /* \"#utility.yul\":28517:28526   */\n      dup4\n        /* \"#utility.yul\":28513:28531   */\n      add\n        /* \"#utility.yul\":28504:28510   */\n      dup5\n        /* \"#utility.yul\":28460:28532   */\n      tag_306\n      jump\t// in\n    tag_590:\n        /* \"#utility.yul\":28097:28539   */\n      swap5\n      swap4\n      pop\n      pop\n      pop\n      pop\n      jump\t// out\n        /* \"#utility.yul\":28545:28725   */\n    tag_350:\n        /* \"#utility.yul\":28593:28670   */\n      0x4e487b7100000000000000000000000000000000000000000000000000000000\n        /* \"#utility.yul\":28590:28591   */\n      0x00\n        /* \"#utility.yul\":28583:28671   */\n      mstore\n        /* \"#utility.yul\":28690:28694   */\n      0x12\n        /* \"#utility.yul\":28687:28688   */\n      0x04\n        /* \"#utility.yul\":28680:28695   */\n      mstore\n        /* \"#utility.yul\":28714:28718   */\n      0x24\n        /* \"#utility.yul\":28711:28712   */\n      0x00\n        /* \"#utility.yul\":28704:28719   */\n      revert\n        /* \"#utility.yul\":28731:28916   */\n    tag_276:\n        /* \"#utility.yul\":28771:28772   */\n      0x00\n        /* \"#utility.yul\":28788:28808   */\n      tag_593\n        /* \"#utility.yul\":28806:28807   */\n      dup3\n        /* \"#utility.yul\":28788:28808   */\n      tag_301\n      jump\t// in\n    tag_593:\n        /* \"#utility.yul\":28783:28808   */\n      swap2\n      pop\n        /* \"#utility.yul\":28822:28842   */\n      tag_594\n        /* \"#utility.yul\":28840:28841   */\n      dup4\n        /* \"#utility.yul\":28822:28842   */\n      tag_301\n      jump\t// in\n    tag_594:\n        /* \"#utility.yul\":28817:28842   */\n      swap3\n      pop\n        /* \"#utility.yul\":28861:28862   */\n      dup3\n        /* \"#utility.yul\":28851:28886   */\n      tag_595\n      jumpi\n        /* \"#utility.yul\":28866:28884   */\n      tag_596\n      tag_350\n      jump\t// in\n    tag_596:\n        /* \"#utility.yul\":28851:28886   */\n    tag_595:\n        /* \"#utility.yul\":28908:28909   */\n      dup3\n        /* \"#utility.yul\":28905:28906   */\n      dup3\n        /* \"#utility.yul\":28901:28910   */\n      div\n        /* \"#utility.yul\":28896:28910   */\n      swap1\n      pop\n        /* \"#utility.yul\":28731:28916   */\n      swap3\n      swap2\n      pop\n      pop\n      jump\t// out\n        /* \"#utility.yul\":28922:29147   */\n    tag_351:\n        /* \"#utility.yul\":29062:29096   */\n      0x4f776e61626c653a206e6577206f776e657220697320746865207a65726f2061\n        /* \"#utility.yul\":29058:29059   */\n      0x00\n        /* \"#utility.yul\":29050:29056   */\n      dup3\n        /* \"#utility.yul\":29046:29060   */\n      add\n        /* \"#utility.yul\":29039:29097   */\n      mstore\n        /* \"#utility.yul\":29131:29139   */\n      0x6464726573730000000000000000000000000000000000000000000000000000\n        /* \"#utility.yul\":29126:29128   */\n      0x20\n        /* \"#utility.yul\":29118:29124   */\n      dup3\n        /* \"#utility.yul\":29114:29129   */\n      add\n        /* \"#utility.yul\":29107:29140   */\n      mstore\n        /* \"#utility.yul\":28922:29147   */\n      pop\n      jump\t// out\n        /* \"#utility.yul\":29153:29519   */\n    tag_352:\n        /* \"#utility.yul\":29295:29298   */\n      0x00\n        /* \"#utility.yul\":29316:29383   */\n      tag_599\n        /* \"#utility.yul\":29380:29382   */\n      0x26\n        /* \"#utility.yul\":29375:29378   */\n      dup4\n        /* \"#utility.yul\":29316:29383   */\n      tag_290\n      jump\t// in\n    tag_599:\n        /* \"#utility.yul\":29309:29383   */\n      swap2\n      pop\n        /* \"#utility.yul\":29392:29485   */\n      tag_600\n        /* \"#utility.yul\":29481:29484   */\n      dup3\n        /* \"#utility.yul\":29392:29485   */\n      tag_351\n      jump\t// in\n    tag_600:\n        /* \"#utility.yul\":29510:29512   */\n      0x40\n        /* \"#utility.yul\":29505:29508   */\n      dup3\n        /* \"#utility.yul\":29501:29513   */\n      add\n        /* \"#utility.yul\":29494:29513   */\n      swap1\n      pop\n        /* \"#utility.yul\":29153:29519   */\n      swap2\n      swap1\n      pop\n      jump\t// out\n        /* \"#utility.yul\":29525:29944   */\n    tag_282:\n        /* \"#utility.yul\":29691:29695   */\n      0x00\n        /* \"#utility.yul\":29729:29731   */\n      0x20\n        /* \"#utility.yul\":29718:29727   */\n      dup3\n        /* \"#utility.yul\":29714:29732   */\n      add\n        /* \"#utility.yul\":29706:29732   */\n      swap1\n      pop\n        /* \"#utility.yul\":29778:29787   */\n      dup2\n        /* \"#utility.yul\":29772:29776   */\n      dup2\n        /* \"#utility.yul\":29768:29788   */\n      sub\n        /* \"#utility.yul\":29764:29765   */\n      0x00\n        /* \"#utility.yul\":29753:29762   */\n      dup4\n        /* \"#utility.yul\":29749:29766   */\n      add\n        /* \"#utility.yul\":29742:29789   */\n      mstore\n        /* \"#utility.yul\":29806:29937   */\n      tag_602\n        /* \"#utility.yul\":29932:29936   */\n      dup2\n        /* \"#utility.yul\":29806:29937   */\n      tag_352\n      jump\t// in\n    tag_602:\n        /* \"#utility.yul\":29798:29937   */\n      swap1\n      pop\n        /* \"#utility.yul\":29525:29944   */\n      swap2\n      swap1\n      pop\n      jump\t// out\n\n    auxdata: 0xa2646970667358221220617a1e2191d762fe5e171f7c8efd36fc8268cb879b7843510ee6c21c52c4f60f64736f6c634300080f0033\n}\n",
				"bytecode": {
					"linkReferences": {},
					"object": "60806040526305f5e1006003553480156200001957600080fd5b506040516200322d3803806200322d83398181016040528101906200003f9190620003e7565b336000806101000a81548173ffffffffffffffffffffffffffffffffffffffff021916908373ffffffffffffffffffffffffffffffffffffffff16021790555060008054906101000a900473ffffffffffffffffffffffffffffffffffffffff1673ffffffffffffffffffffffffffffffffffffffff16600073ffffffffffffffffffffffffffffffffffffffff167f8be0079c531659141344cd1fd0a4f28419497f9722a3daafe3b4186f6b6457e060405160405180910390a36001808160018154018082558091505003906000526020600020905050600454600860003373ffffffffffffffffffffffffffffffffffffffff1673ffffffffffffffffffffffffffffffffffffffff168152602001908152602001600020819055503373ffffffffffffffffffffffffffffffffffffffff16600073ffffffffffffffffffffffffffffffffffffffff167fddf252ad1be2c89b69c2b068fc378daa952ba7f163c4a11628f55a4df523b3ef600454604051620001bf9190620004a8565b60405180910390a350505050620004c5565b6000604051905090565b600080fd5b600080fd5b600080fd5b600080fd5b6000601f19601f8301169050919050565b7f4e487b7100000000000000000000000000000000000000000000000000000000600052604160045260246000fd5b6200023a82620001ef565b810181811067ffffffffffffffff821117156200025c576200025b62000200565b5b80604052505050565b600062000271620001d1565b90506200027f82826200022f565b919050565b600067ffffffffffffffff821115620002a257620002a162000200565b5b620002ad82620001ef565b9050602081019050919050565b60005b83811015620002da578082015181840152602081019050620002bd565b83811115620002ea576000848401525b50505050565b600062000307620003018462000284565b62000265565b905082815260208101848484011115620003265762000325620001ea565b5b62000333848285620002ba565b509392505050565b600082601f830112620003535762000352620001e5565b5b815162000365848260208601620002f0565b91505092915050565b600060ff82169050919050565b62000386816200036e565b81146200039257600080fd5b50565b600081519050620003a6816200037b565b92915050565b6000819050919050565b620003c181620003ac565b8114620003cd57600080fd5b50565b600081519050620003e181620003b6565b92915050565b60008060008060808587031215620004045762000403620001db565b5b600085015167ffffffffffffffff811115620004255762000424620001e0565b5b62000433878288016200033b565b945050602085015167ffffffffffffffff811115620004575762000456620001e0565b5b62000465878288016200033b565b9350506040620004788782880162000395565b92505060606200048b87828801620003d0565b91505092959194509250565b620004a281620003ac565b82525050565b6000602082019050620004bf600083018462000497565b92915050565b612d5880620004d56000396000f3fe608060405234801561001057600080fd5b50600436106101215760003560e01c8063893d20e8116100ad578063a694fc3a11610071578063a694fc3a14610320578063a9059cbb1461033c578063dd62ed3e1461036c578063e73e14bf1461039c578063f2fde38b146103cc57610121565b8063893d20e8146102665780638da5cb5b1461028457806395d89b41146102a25780639dc29fac146102c0578063a457c2d7146102f057610121565b8063279f9b11116100f4578063279f9b11146101c2578063313ce567146101de57806339509351146101fc57806370a082311461022c578063715018a61461025c57610121565b806306fdde0314610126578063095ea7b31461014457806318160ddd1461017457806323b872dd14610192575b600080fd5b61012e6103e8565b60405161013b9190611d9e565b60405180910390f35b61015e60048036038101906101599190611e59565b610425565b60405161016b9190611eb4565b60405180910390f35b61017c61043c565b6040516101899190611ede565b60405180910390f35b6101ac60048036038101906101a79190611ef9565b610464565b6040516101b99190611eb4565b60405180910390f35b6101dc60048036038101906101d79190611f4c565b6105cd565b005b6101e66105f6565b6040516101f39190611fbb565b60405180910390f35b61021660048036038101906102119190611e59565b6105ff565b6040516102239190611eb4565b60405180910390f35b61024660048036038101906102419190611fd6565b61069d565b6040516102539190611ede565b60405180910390f35b6102646106e6565b005b61026e610832565b60405161027b9190612012565b60405180910390f35b61028c610841565b6040516102999190612012565b60405180910390f35b6102aa61086a565b6040516102b79190611d9e565b60405180910390f35b6102da60048036038101906102d59190611e59565b6108a7565b6040516102e79190611eb4565b60405180910390f35b61030a60048036038101906103059190611e59565b61094b565b6040516103179190611eb4565b60405180910390f35b61033a6004803603810190610335919061202d565b6109e9565b005b61035660048036038101906103519190611e59565b610a80565b6040516103639190611eb4565b60405180910390f35b6103866004803603810190610381919061205a565b610a97565b6040516103939190611ede565b60405180910390f35b6103b660048036038101906103b19190611fd6565b610b1e565b6040516103c391906121f9565b60405180910390f35b6103e660048036038101906103e19190611fd6565b610d2b565b005b60606040518060400160405280600b81526020017f4d6174696320546f6b656e000000000000000000000000000000000000000000815250905090565b6000610432338484610dc5565b6001905092915050565b6000601260ff16600a61044f919061237d565b6402540be40061045f91906123c8565b905090565b600081600960008673ffffffffffffffffffffffffffffffffffffffff1673ffffffffffffffffffffffffffffffffffffffff16815260200190815260200160002060003373ffffffffffffffffffffffffffffffffffffffff1673ffffffffffffffffffffffffffffffffffffffff168152602001908152602001600020541015610525576040517f08c379a000000000000000000000000000000000000000000000000000000000815260040161051c90612494565b60405180910390fd5b610530848484610f8e565b6105c2843384600960008973ffffffffffffffffffffffffffffffffffffffff1673ffffffffffffffffffffffffffffffffffffffff16815260200190815260200160002060003373ffffffffffffffffffffffffffffffffffffffff1673ffffffffffffffffffffffffffffffffffffffff168152602001908152602001600020546105bd91906124b4565b610dc5565b600190509392505050565b60006105e482856105de91906124e8565b84611274565b90506105f0338261153c565b50505050565b60006012905090565b6000610693338484600960003373ffffffffffffffffffffffffffffffffffffffff1673ffffffffffffffffffffffffffffffffffffffff16815260200190815260200160002060008873ffffffffffffffffffffffffffffffffffffffff1673ffffffffffffffffffffffffffffffffffffffff1681526020019081526020016000205461068e91906124e8565b610dc5565b6001905092915050565b6000600860008373ffffffffffffffffffffffffffffffffffffffff1673ffffffffffffffffffffffffffffffffffffffff168152602001908152602001600020549050919050565b3373ffffffffffffffffffffffffffffffffffffffff1660008054906101000a900473ffffffffffffffffffffffffffffffffffffffff1673ffffffffffffffffffffffffffffffffffffffff1614610774576040517f08c379a000000000000000000000000000000000000000000000000000000000815260040161076b906125b0565b60405180910390fd5b600073ffffffffffffffffffffffffffffffffffffffff1660008054906101000a900473ffffffffffffffffffffffffffffffffffffffff1673ffffffffffffffffffffffffffffffffffffffff167f8be0079c531659141344cd1fd0a4f28419497f9722a3daafe3b4186f6b6457e060405160405180910390a360008060006101000a81548173ffffffffffffffffffffffffffffffffffffffff021916908373ffffffffffffffffffffffffffffffffffffffff160217905550565b600061083c610841565b905090565b60008060009054906101000a900473ffffffffffffffffffffffffffffffffffffffff16905090565b60606040518060400160405280600581526020017f4d41544943000000000000000000000000000000000000000000000000000000815250905090565b60003373ffffffffffffffffffffffffffffffffffffffff1660008054906101000a900473ffffffffffffffffffffffffffffffffffffffff1673ffffffffffffffffffffffffffffffffffffffff1614610937576040517f08c379a000000000000000000000000000000000000000000000000000000000815260040161092e906125b0565b60405180910390fd5b61094183836116b7565b6001905092915050565b60006109df338484600960003373ffffffffffffffffffffffffffffffffffffffff1673ffffffffffffffffffffffffffffffffffffffff16815260200190815260200160002060008873ffffffffffffffffffffffffffffffffffffffff1673ffffffffffffffffffffffffffffffffffffffff168152602001908152602001600020546109da91906124b4565b610dc5565b6001905092915050565b600860003373ffffffffffffffffffffffffffffffffffffffff1673ffffffffffffffffffffffffffffffffffffffff168152602001908152602001600020548110610a6a576040517f08c379a0000000000000000000000000000000000000000000000000000000008152600401610a6190612642565b60405180910390fd5b610a73816118b4565b610a7d33826116b7565b50565b6000610a8d338484610f8e565b6001905092915050565b6000600960008473ffffffffffffffffffffffffffffffffffffffff1673ffffffffffffffffffffffffffffffffffffffff16815260200190815260200160002060008373ffffffffffffffffffffffffffffffffffffffff1673ffffffffffffffffffffffffffffffffffffffff16815260200190815260200160002054905092915050565b610b26611ceb565b6000806040518060400160405280600081526020016001600260008873ffffffffffffffffffffffffffffffffffffffff1673ffffffffffffffffffffffffffffffffffffffff1681526020019081526020016000205481548110610b8e57610b8d612662565b5b9060005260206000209060020201600101805480602002602001604051908101604052809291908181526020016000905b82821015610c6557838290600052602060002090600402016040518060800160405290816000820160009054906101000a900473ffffffffffffffffffffffffffffffffffffffff1673ffffffffffffffffffffffffffffffffffffffff1673ffffffffffffffffffffffffffffffffffffffff168152602001600182015481526020016002820154815260200160038201548152505081526020019060010190610bbf565b50505050815250905060005b816020015151811015610d16576000610ca783602001518381518110610c9a57610c99612662565b5b6020026020010151611a98565b90508083602001518381518110610cc157610cc0612662565b5b6020026020010151606001818152505082602001518281518110610ce857610ce7612662565b5b60200260200101516020015184610cff91906124e8565b935050600181610d0f91906124e8565b9050610c71565b50818160000181815250508092505050919050565b3373ffffffffffffffffffffffffffffffffffffffff1660008054906101000a900473ffffffffffffffffffffffffffffffffffffffff1673ffffffffffffffffffffffffffffffffffffffff1614610db9576040517f08c379a0000000000000000000000000000000000000000000000000000000008152600401610db0906125b0565b60405180910390fd5b610dc281611ada565b50565b600073ffffffffffffffffffffffffffffffffffffffff168373ffffffffffffffffffffffffffffffffffffffff1603610e34576040517f08c379a0000000000000000000000000000000000000000000000000000000008152600401610e2b90612703565b60405180910390fd5b600073ffffffffffffffffffffffffffffffffffffffff168273ffffffffffffffffffffffffffffffffffffffff1603610ea3576040517f08c379a0000000000000000000000000000000000000000000000000000000008152600401610e9a90612795565b60405180910390fd5b80600960008573ffffffffffffffffffffffffffffffffffffffff1673ffffffffffffffffffffffffffffffffffffffff16815260200190815260200160002060008473ffffffffffffffffffffffffffffffffffffffff1673ffffffffffffffffffffffffffffffffffffffff168152602001908152602001600020819055508173ffffffffffffffffffffffffffffffffffffffff168373ffffffffffffffffffffffffffffffffffffffff167f8c5be1e5ebec7d5bd14f71427d1e84f3dd0314c0f7b2291e5b200ac8c7c3b92583604051610f819190611ede565b60405180910390a3505050565b600073ffffffffffffffffffffffffffffffffffffffff168373ffffffffffffffffffffffffffffffffffffffff1603610ffd576040517f08c379a0000000000000000000000000000000000000000000000000000000008152600401610ff490612827565b60405180910390fd5b600073ffffffffffffffffffffffffffffffffffffffff168273ffffffffffffffffffffffffffffffffffffffff160361106c576040517f08c379a000000000000000000000000000000000000000000000000000000000815260040161106390612893565b60405180910390fd5b80600860008573ffffffffffffffffffffffffffffffffffffffff1673ffffffffffffffffffffffffffffffffffffffff1681526020019081526020016000205410156110ee576040517f08c379a00000000000000000000000000000000000000000000000000000000081526004016110e590612925565b60405180910390fd5b80600860008573ffffffffffffffffffffffffffffffffffffffff1673ffffffffffffffffffffffffffffffffffffffff1681526020019081526020016000205461113991906124b4565b600860008573ffffffffffffffffffffffffffffffffffffffff1673ffffffffffffffffffffffffffffffffffffffff1681526020019081526020016000208190555080600860008473ffffffffffffffffffffffffffffffffffffffff1673ffffffffffffffffffffffffffffffffffffffff168152602001908152602001600020546111c791906124e8565b600860008473ffffffffffffffffffffffffffffffffffffffff1673ffffffffffffffffffffffffffffffffffffffff168152602001908152602001600020819055508173ffffffffffffffffffffffffffffffffffffffff168373ffffffffffffffffffffffffffffffffffffffff167fddf252ad1be2c89b69c2b068fc378daa952ba7f163c4a11628f55a4df523b3ef836040516112679190611ede565b60405180910390a3505050565b600080600260003373ffffffffffffffffffffffffffffffffffffffff1673ffffffffffffffffffffffffffffffffffffffff1681526020019081526020016000205490506000600182815481106112cf576112ce612662565b5b906000526020600020906002020160010184815481106112f2576112f1612662565b5b90600052602060002090600402016040518060800160405290816000820160009054906101000a900473ffffffffffffffffffffffffffffffffffffffff1673ffffffffffffffffffffffffffffffffffffffff1673ffffffffffffffffffffffffffffffffffffffff1681526020016001820154815260200160028201548152602001600382015481525050905084816020015110156113c8576040517f08c379a00000000000000000000000000000000000000000000000000000000081526004016113bf906129b7565b60405180910390fd5b60006113d382611a98565b90508582602001516113e591906124b4565b8260200181815250506000826020015103611486576001838154811061140e5761140d612662565b5b9060005260206000209060020201600101858154811061143157611430612662565b5b9060005260206000209060040201600080820160006101000a81549073ffffffffffffffffffffffffffffffffffffffff02191690556001820160009055600282016000905560038201600090555050611525565b81602001516001848154811061149f5761149e612662565b5b906000526020600020906002020160010186815481106114c2576114c1612662565b5b90600052602060002090600402016001018190555042600184815481106114ec576114eb612662565b5b9060005260206000209060020201600101868154811061150f5761150e612662565b5b9060005260206000209060040201600201819055505b808661153191906124e8565b935050505092915050565b600073ffffffffffffffffffffffffffffffffffffffff168273ffffffffffffffffffffffffffffffffffffffff16036115ab576040517f08c379a00000000000000000000000000000000000000000000000000000000081526004016115a290612a49565b60405180910390fd5b806004546115b991906124e8565b60048190555080600860008473ffffffffffffffffffffffffffffffffffffffff1673ffffffffffffffffffffffffffffffffffffffff1681526020019081526020016000205461160a91906124e8565b600860008473ffffffffffffffffffffffffffffffffffffffff1673ffffffffffffffffffffffffffffffffffffffff168152602001908152602001600020819055508173ffffffffffffffffffffffffffffffffffffffff16600073ffffffffffffffffffffffffffffffffffffffff167fddf252ad1be2c89b69c2b068fc378daa952ba7f163c4a11628f55a4df523b3ef836040516116ab9190611ede565b60405180910390a35050565b600073ffffffffffffffffffffffffffffffffffffffff168273ffffffffffffffffffffffffffffffffffffffff1603611726576040517f08c379a000000000000000000000000000000000000000000000000000000000815260040161171d90612adb565b60405180910390fd5b80600860008473ffffffffffffffffffffffffffffffffffffffff1673ffffffffffffffffffffffffffffffffffffffff1681526020019081526020016000205410156117a8576040517f08c379a000000000000000000000000000000000000000000000000000000000815260040161179f90612b6d565b60405180910390fd5b80600860008473ffffffffffffffffffffffffffffffffffffffff1673ffffffffffffffffffffffffffffffffffffffff168152602001908152602001600020546117f391906124b4565b600860008473ffffffffffffffffffffffffffffffffffffffff1673ffffffffffffffffffffffffffffffffffffffff168152602001908152602001600020819055508060045461184491906124b4565b600481905550600073ffffffffffffffffffffffffffffffffffffffff168273ffffffffffffffffffffffffffffffffffffffff167fddf252ad1be2c89b69c2b068fc378daa952ba7f163c4a11628f55a4df523b3ef836040516118a89190611ede565b60405180910390a35050565b600081116118f7576040517f08c379a00000000000000000000000000000000000000000000000000000000081526004016118ee90612bd9565b60405180910390fd5b6000600260003373ffffffffffffffffffffffffffffffffffffffff1673ffffffffffffffffffffffffffffffffffffffff1681526020019081526020016000205490506000429050600082036119545761195133611c06565b91505b6001828154811061196857611967612662565b5b906000526020600020906002020160010160405180608001604052803373ffffffffffffffffffffffffffffffffffffffff1681526020018581526020018381526020016000815250908060018154018082558091505060019003906000526020600020906004020160009091909190915060008201518160000160006101000a81548173ffffffffffffffffffffffffffffffffffffffff021916908373ffffffffffffffffffffffffffffffffffffffff16021790555060208201518160010155604082015181600201556060820151816003015550503373ffffffffffffffffffffffffffffffffffffffff167fb4caaf29adda3eefee3ad552a8e85058589bf834c7466cae4ee58787f70589ed848484604051611a8b93929190612bf9565b60405180910390a2505050565b60006003548260200151610e10846040015142611ab591906124b4565b611abf9190612c5f565b611ac991906123c8565b611ad39190612c5f565b9050919050565b600073ffffffffffffffffffffffffffffffffffffffff168173ffffffffffffffffffffffffffffffffffffffff1603611b49576040517f08c379a0000000000000000000000000000000000000000000000000000000008152600401611b4090612d02565b60405180910390fd5b8073ffffffffffffffffffffffffffffffffffffffff1660008054906101000a900473ffffffffffffffffffffffffffffffffffffffff1673ffffffffffffffffffffffffffffffffffffffff167f8be0079c531659141344cd1fd0a4f28419497f9722a3daafe3b4186f6b6457e060405160405180910390a3806000806101000a81548173ffffffffffffffffffffffffffffffffffffffff021916908373ffffffffffffffffffffffffffffffffffffffff16021790555050565b60006001808160018154018082558091505003906000526020600020905050600060018080549050611c3891906124b4565b90508260018281548110611c4f57611c4e612662565b5b906000526020600020906002020160000160006101000a81548173ffffffffffffffffffffffffffffffffffffffff021916908373ffffffffffffffffffffffffffffffffffffffff16021790555080600260008573ffffffffffffffffffffffffffffffffffffffff1673ffffffffffffffffffffffffffffffffffffffff1681526020019081526020016000208190555080915050919050565b604051806040016040528060008152602001606081525090565b600081519050919050565b600082825260208201905092915050565b60005b83811015611d3f578082015181840152602081019050611d24565b83811115611d4e576000848401525b50505050565b6000601f19601f8301169050919050565b6000611d7082611d05565b611d7a8185611d10565b9350611d8a818560208601611d21565b611d9381611d54565b840191505092915050565b60006020820190508181036000830152611db88184611d65565b905092915050565b600080fd5b600073ffffffffffffffffffffffffffffffffffffffff82169050919050565b6000611df082611dc5565b9050919050565b611e0081611de5565b8114611e0b57600080fd5b50565b600081359050611e1d81611df7565b92915050565b6000819050919050565b611e3681611e23565b8114611e4157600080fd5b50565b600081359050611e5381611e2d565b92915050565b60008060408385031215611e7057611e6f611dc0565b5b6000611e7e85828601611e0e565b9250506020611e8f85828601611e44565b9150509250929050565b60008115159050919050565b611eae81611e99565b82525050565b6000602082019050611ec96000830184611ea5565b92915050565b611ed881611e23565b82525050565b6000602082019050611ef36000830184611ecf565b92915050565b600080600060608486031215611f1257611f11611dc0565b5b6000611f2086828701611e0e565b9350506020611f3186828701611e0e565b9250506040611f4286828701611e44565b9150509250925092565b600080600060608486031215611f6557611f64611dc0565b5b6000611f7386828701611e44565b9350506020611f8486828701611e44565b9250506040611f9586828701611e44565b9150509250925092565b600060ff82169050919050565b611fb581611f9f565b82525050565b6000602082019050611fd06000830184611fac565b92915050565b600060208284031215611fec57611feb611dc0565b5b6000611ffa84828501611e0e565b91505092915050565b61200c81611de5565b82525050565b60006020820190506120276000830184612003565b92915050565b60006020828403121561204357612042611dc0565b5b600061205184828501611e44565b91505092915050565b6000806040838503121561207157612070611dc0565b5b600061207f85828601611e0e565b925050602061209085828601611e0e565b9150509250929050565b6120a381611e23565b82525050565b600081519050919050565b600082825260208201905092915050565b6000819050602082019050919050565b6120de81611de5565b82525050565b6080820160008201516120fa60008501826120d5565b50602082015161210d602085018261209a565b506040820151612120604085018261209a565b506060820151612133606085018261209a565b50505050565b600061214583836120e4565b60808301905092915050565b6000602082019050919050565b6000612169826120a9565b61217381856120b4565b935061217e836120c5565b8060005b838110156121af5781516121968882612139565b97506121a183612151565b925050600181019050612182565b5085935050505092915050565b60006040830160008301516121d4600086018261209a565b50602083015184820360208601526121ec828261215e565b9150508091505092915050565b6000602082019050818103600083015261221381846121bc565b905092915050565b7f4e487b7100000000000000000000000000000000000000000000000000000000600052601160045260246000fd5b60008160011c9050919050565b6000808291508390505b60018511156122a15780860481111561227d5761227c61221b565b5b600185161561228c5780820291505b808102905061229a8561224a565b9450612261565b94509492505050565b6000826122ba5760019050612376565b816122c85760009050612376565b81600181146122de57600281146122e857612317565b6001915050612376565b60ff8411156122fa576122f961221b565b5b8360020a9150848211156123115761231061221b565b5b50612376565b5060208310610133831016604e8410600b841016171561234c5782820a9050838111156123475761234661221b565b5b612376565b6123598484846001612257565b925090508184048111156123705761236f61221b565b5b81810290505b9392505050565b600061238882611e23565b915061239383611e23565b92506123c07fffffffffffffffffffffffffffffffffffffffffffffffffffffffffffffffff84846122aa565b905092915050565b60006123d382611e23565b91506123de83611e23565b9250817fffffffffffffffffffffffffffffffffffffffffffffffffffffffffffffffff04831182151516156124175761241661221b565b5b828202905092915050565b7f4d657472613a20596f752063616e6e6f74207370656e642074686174206d756360008201527f68206f6e2074686973206163636f756e74000000000000000000000000000000602082015250565b600061247e603183611d10565b915061248982612422565b604082019050919050565b600060208201905081810360008301526124ad81612471565b9050919050565b60006124bf82611e23565b91506124ca83611e23565b9250828210156124dd576124dc61221b565b5b828203905092915050565b60006124f382611e23565b91506124fe83611e23565b9250827fffffffffffffffffffffffffffffffffffffffffffffffffffffffffffffffff038211156125335761253261221b565b5b828201905092915050565b7f4f776e61626c653a206f6e6c79206f776e65722063616e2063616c6c2074686960008201527f732066756e6374696f6e00000000000000000000000000000000000000000000602082015250565b600061259a602a83611d10565b91506125a58261253e565b604082019050919050565b600060208201905081810360008301526125c98161258d565b9050919050565b7f4d657472613a2043616e6e6f74207374616b65206d6f7265207468616e20796f60008201527f75206f776e000000000000000000000000000000000000000000000000000000602082015250565b600061262c602583611d10565b9150612637826125d0565b604082019050919050565b6000602082019050818103600083015261265b8161261f565b9050919050565b7f4e487b7100000000000000000000000000000000000000000000000000000000600052603260045260246000fd5b7f4d657472613a20617070726f76652063616e6e6f7420626520646f6e6520667260008201527f6f6d207a65726f20616464726573730000000000000000000000000000000000602082015250565b60006126ed602f83611d10565b91506126f882612691565b604082019050919050565b6000602082019050818103600083015261271c816126e0565b9050919050565b7f4d657472613a20617070726f76652063616e6e6f7420626520746f207a65726f60008201527f2061646472657373000000000000000000000000000000000000000000000000602082015250565b600061277f602883611d10565b915061278a82612723565b604082019050919050565b600060208201905081810360008301526127ae81612772565b9050919050565b7f4d657472613a207472616e736665722066726f6d207a65726f2061646472657360008201527f7300000000000000000000000000000000000000000000000000000000000000602082015250565b6000612811602183611d10565b915061281c826127b5565b604082019050919050565b6000602082019050818103600083015261284081612804565b9050919050565b7f4d657472613a207472616e7366657220746f207a65726f206164647265737300600082015250565b600061287d601f83611d10565b915061288882612847565b602082019050919050565b600060208201905081810360008301526128ac81612870565b9050919050565b7f4d657472613a2063616e74207472616e73666572206d6f7265207468616e207960008201527f6f7572206163636f756e7420686f6c6473000000000000000000000000000000602082015250565b600061290f603183611d10565b915061291a826128b3565b604082019050919050565b6000602082019050818103600083015261293e81612902565b9050919050565b7f5374616b696e673a2043616e6e6f74207769746864726177206d6f726520746860008201527f616e20796f752068617665207374616b65640000000000000000000000000000602082015250565b60006129a1603283611d10565b91506129ac82612945565b604082019050919050565b600060208201905081810360008301526129d081612994565b9050919050565b7f4d657472613a2063616e6e6f74206d696e7420746f207a65726f20616464726560008201527f7373000000000000000000000000000000000000000000000000000000000000602082015250565b6000612a33602283611d10565b9150612a3e826129d7565b604082019050919050565b60006020820190508181036000830152612a6281612a26565b9050919050565b7f4d657472613a2063616e6e6f74206275726e2066726f6d207a65726f2061646460008201527f7265737300000000000000000000000000000000000000000000000000000000602082015250565b6000612ac5602483611d10565b9150612ad082612a69565b604082019050919050565b60006020820190508181036000830152612af481612ab8565b9050919050565b7f4d657472613a2043616e6e6f74206275726e206d6f7265207468616e2074686560008201527f206163636f756e74206f776e7300000000000000000000000000000000000000602082015250565b6000612b57602d83611d10565b9150612b6282612afb565b604082019050919050565b60006020820190508181036000830152612b8681612b4a565b9050919050565b7f43616e6e6f74207374616b65206e6f7468696e67000000000000000000000000600082015250565b6000612bc3601483611d10565b9150612bce82612b8d565b602082019050919050565b60006020820190508181036000830152612bf281612bb6565b9050919050565b6000606082019050612c0e6000830186611ecf565b612c1b6020830185611ecf565b612c286040830184611ecf565b949350505050565b7f4e487b7100000000000000000000000000000000000000000000000000000000600052601260045260246000fd5b6000612c6a82611e23565b9150612c7583611e23565b925082612c8557612c84612c30565b5b828204905092915050565b7f4f776e61626c653a206e6577206f776e657220697320746865207a65726f206160008201527f6464726573730000000000000000000000000000000000000000000000000000602082015250565b6000612cec602683611d10565b9150612cf782612c90565b604082019050919050565b60006020820190508181036000830152612d1b81612cdf565b905091905056fea2646970667358221220617a1e2191d762fe5e171f7c8efd36fc8268cb879b7843510ee6c21c52c4f60f64736f6c634300080f0033",
					"opcodes": "PUSH1 0x80 PUSH1 0x40 MSTORE PUSH4 0x5F5E100 PUSH1 0x3 SSTORE CALLVALUE DUP1 ISZERO PUSH3 0x19 JUMPI PUSH1 0x0 DUP1 REVERT JUMPDEST POP PUSH1 0x40 MLOAD PUSH3 0x322D CODESIZE SUB DUP1 PUSH3 0x322D DUP4 CODECOPY DUP2 DUP2 ADD PUSH1 0x40 MSTORE DUP2 ADD SWAP1 PUSH3 0x3F SWAP2 SWAP1 PUSH3 0x3E7 JUMP JUMPDEST CALLER PUSH1 0x0 DUP1 PUSH2 0x100 EXP DUP2 SLOAD DUP2 PUSH20 0xFFFFFFFFFFFFFFFFFFFFFFFFFFFFFFFFFFFFFFFF MUL NOT AND SWAP1 DUP4 PUSH20 0xFFFFFFFFFFFFFFFFFFFFFFFFFFFFFFFFFFFFFFFF AND MUL OR SWAP1 SSTORE POP PUSH1 0x0 DUP1 SLOAD SWAP1 PUSH2 0x100 EXP SWAP1 DIV PUSH20 0xFFFFFFFFFFFFFFFFFFFFFFFFFFFFFFFFFFFFFFFF AND PUSH20 0xFFFFFFFFFFFFFFFFFFFFFFFFFFFFFFFFFFFFFFFF AND PUSH1 0x0 PUSH20 0xFFFFFFFFFFFFFFFFFFFFFFFFFFFFFFFFFFFFFFFF AND PUSH32 0x8BE0079C531659141344CD1FD0A4F28419497F9722A3DAAFE3B4186F6B6457E0 PUSH1 0x40 MLOAD PUSH1 0x40 MLOAD DUP1 SWAP2 SUB SWAP1 LOG3 PUSH1 0x1 DUP1 DUP2 PUSH1 0x1 DUP2 SLOAD ADD DUP1 DUP3 SSTORE DUP1 SWAP2 POP POP SUB SWAP1 PUSH1 0x0 MSTORE PUSH1 0x20 PUSH1 0x0 KECCAK256 SWAP1 POP POP PUSH1 0x4 SLOAD PUSH1 0x8 PUSH1 0x0 CALLER PUSH20 0xFFFFFFFFFFFFFFFFFFFFFFFFFFFFFFFFFFFFFFFF AND PUSH20 0xFFFFFFFFFFFFFFFFFFFFFFFFFFFFFFFFFFFFFFFF AND DUP2 MSTORE PUSH1 0x20 ADD SWAP1 DUP2 MSTORE PUSH1 0x20 ADD PUSH1 0x0 KECCAK256 DUP2 SWAP1 SSTORE POP CALLER PUSH20 0xFFFFFFFFFFFFFFFFFFFFFFFFFFFFFFFFFFFFFFFF AND PUSH1 0x0 PUSH20 0xFFFFFFFFFFFFFFFFFFFFFFFFFFFFFFFFFFFFFFFF AND PUSH32 0xDDF252AD1BE2C89B69C2B068FC378DAA952BA7F163C4A11628F55A4DF523B3EF PUSH1 0x4 SLOAD PUSH1 0x40 MLOAD PUSH3 0x1BF SWAP2 SWAP1 PUSH3 0x4A8 JUMP JUMPDEST PUSH1 0x40 MLOAD DUP1 SWAP2 SUB SWAP1 LOG3 POP POP POP POP PUSH3 0x4C5 JUMP JUMPDEST PUSH1 0x0 PUSH1 0x40 MLOAD SWAP1 POP SWAP1 JUMP JUMPDEST PUSH1 0x0 DUP1 REVERT JUMPDEST PUSH1 0x0 DUP1 REVERT JUMPDEST PUSH1 0x0 DUP1 REVERT JUMPDEST PUSH1 0x0 DUP1 REVERT JUMPDEST PUSH1 0x0 PUSH1 0x1F NOT PUSH1 0x1F DUP4 ADD AND SWAP1 POP SWAP2 SWAP1 POP JUMP JUMPDEST PUSH32 0x4E487B7100000000000000000000000000000000000000000000000000000000 PUSH1 0x0 MSTORE PUSH1 0x41 PUSH1 0x4 MSTORE PUSH1 0x24 PUSH1 0x0 REVERT JUMPDEST PUSH3 0x23A DUP3 PUSH3 0x1EF JUMP JUMPDEST DUP2 ADD DUP2 DUP2 LT PUSH8 0xFFFFFFFFFFFFFFFF DUP3 GT OR ISZERO PUSH3 0x25C JUMPI PUSH3 0x25B PUSH3 0x200 JUMP JUMPDEST JUMPDEST DUP1 PUSH1 0x40 MSTORE POP POP POP JUMP JUMPDEST PUSH1 0x0 PUSH3 0x271 PUSH3 0x1D1 JUMP JUMPDEST SWAP1 POP PUSH3 0x27F DUP3 DUP3 PUSH3 0x22F JUMP JUMPDEST SWAP2 SWAP1 POP JUMP JUMPDEST PUSH1 0x0 PUSH8 0xFFFFFFFFFFFFFFFF DUP3 GT ISZERO PUSH3 0x2A2 JUMPI PUSH3 0x2A1 PUSH3 0x200 JUMP JUMPDEST JUMPDEST PUSH3 0x2AD DUP3 PUSH3 0x1EF JUMP JUMPDEST SWAP1 POP PUSH1 0x20 DUP2 ADD SWAP1 POP SWAP2 SWAP1 POP JUMP JUMPDEST PUSH1 0x0 JUMPDEST DUP4 DUP2 LT ISZERO PUSH3 0x2DA JUMPI DUP1 DUP3 ADD MLOAD DUP2 DUP5 ADD MSTORE PUSH1 0x20 DUP2 ADD SWAP1 POP PUSH3 0x2BD JUMP JUMPDEST DUP4 DUP2 GT ISZERO PUSH3 0x2EA JUMPI PUSH1 0x0 DUP5 DUP5 ADD MSTORE JUMPDEST POP POP POP POP JUMP JUMPDEST PUSH1 0x0 PUSH3 0x307 PUSH3 0x301 DUP5 PUSH3 0x284 JUMP JUMPDEST PUSH3 0x265 JUMP JUMPDEST SWAP1 POP DUP3 DUP2 MSTORE PUSH1 0x20 DUP2 ADD DUP5 DUP5 DUP5 ADD GT ISZERO PUSH3 0x326 JUMPI PUSH3 0x325 PUSH3 0x1EA JUMP JUMPDEST JUMPDEST PUSH3 0x333 DUP5 DUP3 DUP6 PUSH3 0x2BA JUMP JUMPDEST POP SWAP4 SWAP3 POP POP POP JUMP JUMPDEST PUSH1 0x0 DUP3 PUSH1 0x1F DUP4 ADD SLT PUSH3 0x353 JUMPI PUSH3 0x352 PUSH3 0x1E5 JUMP JUMPDEST JUMPDEST DUP2 MLOAD PUSH3 0x365 DUP5 DUP3 PUSH1 0x20 DUP7 ADD PUSH3 0x2F0 JUMP JUMPDEST SWAP2 POP POP SWAP3 SWAP2 POP POP JUMP JUMPDEST PUSH1 0x0 PUSH1 0xFF DUP3 AND SWAP1 POP SWAP2 SWAP1 POP JUMP JUMPDEST PUSH3 0x386 DUP2 PUSH3 0x36E JUMP JUMPDEST DUP2 EQ PUSH3 0x392 JUMPI PUSH1 0x0 DUP1 REVERT JUMPDEST POP JUMP JUMPDEST PUSH1 0x0 DUP2 MLOAD SWAP1 POP PUSH3 0x3A6 DUP2 PUSH3 0x37B JUMP JUMPDEST SWAP3 SWAP2 POP POP JUMP JUMPDEST PUSH1 0x0 DUP2 SWAP1 POP SWAP2 SWAP1 POP JUMP JUMPDEST PUSH3 0x3C1 DUP2 PUSH3 0x3AC JUMP JUMPDEST DUP2 EQ PUSH3 0x3CD JUMPI PUSH1 0x0 DUP1 REVERT JUMPDEST POP JUMP JUMPDEST PUSH1 0x0 DUP2 MLOAD SWAP1 POP PUSH3 0x3E1 DUP2 PUSH3 0x3B6 JUMP JUMPDEST SWAP3 SWAP2 POP POP JUMP JUMPDEST PUSH1 0x0 DUP1 PUSH1 0x0 DUP1 PUSH1 0x80 DUP6 DUP8 SUB SLT ISZERO PUSH3 0x404 JUMPI PUSH3 0x403 PUSH3 0x1DB JUMP JUMPDEST JUMPDEST PUSH1 0x0 DUP6 ADD MLOAD PUSH8 0xFFFFFFFFFFFFFFFF DUP2 GT ISZERO PUSH3 0x425 JUMPI PUSH3 0x424 PUSH3 0x1E0 JUMP JUMPDEST JUMPDEST PUSH3 0x433 DUP8 DUP3 DUP9 ADD PUSH3 0x33B JUMP JUMPDEST SWAP5 POP POP PUSH1 0x20 DUP6 ADD MLOAD PUSH8 0xFFFFFFFFFFFFFFFF DUP2 GT ISZERO PUSH3 0x457 JUMPI PUSH3 0x456 PUSH3 0x1E0 JUMP JUMPDEST JUMPDEST PUSH3 0x465 DUP8 DUP3 DUP9 ADD PUSH3 0x33B JUMP JUMPDEST SWAP4 POP POP PUSH1 0x40 PUSH3 0x478 DUP8 DUP3 DUP9 ADD PUSH3 0x395 JUMP JUMPDEST SWAP3 POP POP PUSH1 0x60 PUSH3 0x48B DUP8 DUP3 DUP9 ADD PUSH3 0x3D0 JUMP JUMPDEST SWAP2 POP POP SWAP3 SWAP6 SWAP2 SWAP5 POP SWAP3 POP JUMP JUMPDEST PUSH3 0x4A2 DUP2 PUSH3 0x3AC JUMP JUMPDEST DUP3 MSTORE POP POP JUMP JUMPDEST PUSH1 0x0 PUSH1 0x20 DUP3 ADD SWAP1 POP PUSH3 0x4BF PUSH1 0x0 DUP4 ADD DUP5 PUSH3 0x497 JUMP JUMPDEST SWAP3 SWAP2 POP POP JUMP JUMPDEST PUSH2 0x2D58 DUP1 PUSH3 0x4D5 PUSH1 0x0 CODECOPY PUSH1 0x0 RETURN INVALID PUSH1 0x80 PUSH1 0x40 MSTORE CALLVALUE DUP1 ISZERO PUSH2 0x10 JUMPI PUSH1 0x0 DUP1 REVERT JUMPDEST POP PUSH1 0x4 CALLDATASIZE LT PUSH2 0x121 JUMPI PUSH1 0x0 CALLDATALOAD PUSH1 0xE0 SHR DUP1 PUSH4 0x893D20E8 GT PUSH2 0xAD JUMPI DUP1 PUSH4 0xA694FC3A GT PUSH2 0x71 JUMPI DUP1 PUSH4 0xA694FC3A EQ PUSH2 0x320 JUMPI DUP1 PUSH4 0xA9059CBB EQ PUSH2 0x33C JUMPI DUP1 PUSH4 0xDD62ED3E EQ PUSH2 0x36C JUMPI DUP1 PUSH4 0xE73E14BF EQ PUSH2 0x39C JUMPI DUP1 PUSH4 0xF2FDE38B EQ PUSH2 0x3CC JUMPI PUSH2 0x121 JUMP JUMPDEST DUP1 PUSH4 0x893D20E8 EQ PUSH2 0x266 JUMPI DUP1 PUSH4 0x8DA5CB5B EQ PUSH2 0x284 JUMPI DUP1 PUSH4 0x95D89B41 EQ PUSH2 0x2A2 JUMPI DUP1 PUSH4 0x9DC29FAC EQ PUSH2 0x2C0 JUMPI DUP1 PUSH4 0xA457C2D7 EQ PUSH2 0x2F0 JUMPI PUSH2 0x121 JUMP JUMPDEST DUP1 PUSH4 0x279F9B11 GT PUSH2 0xF4 JUMPI DUP1 PUSH4 0x279F9B11 EQ PUSH2 0x1C2 JUMPI DUP1 PUSH4 0x313CE567 EQ PUSH2 0x1DE JUMPI DUP1 PUSH4 0x39509351 EQ PUSH2 0x1FC JUMPI DUP1 PUSH4 0x70A08231 EQ PUSH2 0x22C JUMPI DUP1 PUSH4 0x715018A6 EQ PUSH2 0x25C JUMPI PUSH2 0x121 JUMP JUMPDEST DUP1 PUSH4 0x6FDDE03 EQ PUSH2 0x126 JUMPI DUP1 PUSH4 0x95EA7B3 EQ PUSH2 0x144 JUMPI DUP1 PUSH4 0x18160DDD EQ PUSH2 0x174 JUMPI DUP1 PUSH4 0x23B872DD EQ PUSH2 0x192 JUMPI JUMPDEST PUSH1 0x0 DUP1 REVERT JUMPDEST PUSH2 0x12E PUSH2 0x3E8 JUMP JUMPDEST PUSH1 0x40 MLOAD PUSH2 0x13B SWAP2 SWAP1 PUSH2 0x1D9E JUMP JUMPDEST PUSH1 0x40 MLOAD DUP1 SWAP2 SUB SWAP1 RETURN JUMPDEST PUSH2 0x15E PUSH1 0x4 DUP1 CALLDATASIZE SUB DUP2 ADD SWAP1 PUSH2 0x159 SWAP2 SWAP1 PUSH2 0x1E59 JUMP JUMPDEST PUSH2 0x425 JUMP JUMPDEST PUSH1 0x40 MLOAD PUSH2 0x16B SWAP2 SWAP1 PUSH2 0x1EB4 JUMP JUMPDEST PUSH1 0x40 MLOAD DUP1 SWAP2 SUB SWAP1 RETURN JUMPDEST PUSH2 0x17C PUSH2 0x43C JUMP JUMPDEST PUSH1 0x40 MLOAD PUSH2 0x189 SWAP2 SWAP1 PUSH2 0x1EDE JUMP JUMPDEST PUSH1 0x40 MLOAD DUP1 SWAP2 SUB SWAP1 RETURN JUMPDEST PUSH2 0x1AC PUSH1 0x4 DUP1 CALLDATASIZE SUB DUP2 ADD SWAP1 PUSH2 0x1A7 SWAP2 SWAP1 PUSH2 0x1EF9 JUMP JUMPDEST PUSH2 0x464 JUMP JUMPDEST PUSH1 0x40 MLOAD PUSH2 0x1B9 SWAP2 SWAP1 PUSH2 0x1EB4 JUMP JUMPDEST PUSH1 0x40 MLOAD DUP1 SWAP2 SUB SWAP1 RETURN JUMPDEST PUSH2 0x1DC PUSH1 0x4 DUP1 CALLDATASIZE SUB DUP2 ADD SWAP1 PUSH2 0x1D7 SWAP2 SWAP1 PUSH2 0x1F4C JUMP JUMPDEST PUSH2 0x5CD JUMP JUMPDEST STOP JUMPDEST PUSH2 0x1E6 PUSH2 0x5F6 JUMP JUMPDEST PUSH1 0x40 MLOAD PUSH2 0x1F3 SWAP2 SWAP1 PUSH2 0x1FBB JUMP JUMPDEST PUSH1 0x40 MLOAD DUP1 SWAP2 SUB SWAP1 RETURN JUMPDEST PUSH2 0x216 PUSH1 0x4 DUP1 CALLDATASIZE SUB DUP2 ADD SWAP1 PUSH2 0x211 SWAP2 SWAP1 PUSH2 0x1E59 JUMP JUMPDEST PUSH2 0x5FF JUMP JUMPDEST PUSH1 0x40 MLOAD PUSH2 0x223 SWAP2 SWAP1 PUSH2 0x1EB4 JUMP JUMPDEST PUSH1 0x40 MLOAD DUP1 SWAP2 SUB SWAP1 RETURN JUMPDEST PUSH2 0x246 PUSH1 0x4 DUP1 CALLDATASIZE SUB DUP2 ADD SWAP1 PUSH2 0x241 SWAP2 SWAP1 PUSH2 0x1FD6 JUMP JUMPDEST PUSH2 0x69D JUMP JUMPDEST PUSH1 0x40 MLOAD PUSH2 0x253 SWAP2 SWAP1 PUSH2 0x1EDE JUMP JUMPDEST PUSH1 0x40 MLOAD DUP1 SWAP2 SUB SWAP1 RETURN JUMPDEST PUSH2 0x264 PUSH2 0x6E6 JUMP JUMPDEST STOP JUMPDEST PUSH2 0x26E PUSH2 0x832 JUMP JUMPDEST PUSH1 0x40 MLOAD PUSH2 0x27B SWAP2 SWAP1 PUSH2 0x2012 JUMP JUMPDEST PUSH1 0x40 MLOAD DUP1 SWAP2 SUB SWAP1 RETURN JUMPDEST PUSH2 0x28C PUSH2 0x841 JUMP JUMPDEST PUSH1 0x40 MLOAD PUSH2 0x299 SWAP2 SWAP1 PUSH2 0x2012 JUMP JUMPDEST PUSH1 0x40 MLOAD DUP1 SWAP2 SUB SWAP1 RETURN JUMPDEST PUSH2 0x2AA PUSH2 0x86A JUMP JUMPDEST PUSH1 0x40 MLOAD PUSH2 0x2B7 SWAP2 SWAP1 PUSH2 0x1D9E JUMP JUMPDEST PUSH1 0x40 MLOAD DUP1 SWAP2 SUB SWAP1 RETURN JUMPDEST PUSH2 0x2DA PUSH1 0x4 DUP1 CALLDATASIZE SUB DUP2 ADD SWAP1 PUSH2 0x2D5 SWAP2 SWAP1 PUSH2 0x1E59 JUMP JUMPDEST PUSH2 0x8A7 JUMP JUMPDEST PUSH1 0x40 MLOAD PUSH2 0x2E7 SWAP2 SWAP1 PUSH2 0x1EB4 JUMP JUMPDEST PUSH1 0x40 MLOAD DUP1 SWAP2 SUB SWAP1 RETURN JUMPDEST PUSH2 0x30A PUSH1 0x4 DUP1 CALLDATASIZE SUB DUP2 ADD SWAP1 PUSH2 0x305 SWAP2 SWAP1 PUSH2 0x1E59 JUMP JUMPDEST PUSH2 0x94B JUMP JUMPDEST PUSH1 0x40 MLOAD PUSH2 0x317 SWAP2 SWAP1 PUSH2 0x1EB4 JUMP JUMPDEST PUSH1 0x40 MLOAD DUP1 SWAP2 SUB SWAP1 RETURN JUMPDEST PUSH2 0x33A PUSH1 0x4 DUP1 CALLDATASIZE SUB DUP2 ADD SWAP1 PUSH2 0x335 SWAP2 SWAP1 PUSH2 0x202D JUMP JUMPDEST PUSH2 0x9E9 JUMP JUMPDEST STOP JUMPDEST PUSH2 0x356 PUSH1 0x4 DUP1 CALLDATASIZE SUB DUP2 ADD SWAP1 PUSH2 0x351 SWAP2 SWAP1 PUSH2 0x1E59 JUMP JUMPDEST PUSH2 0xA80 JUMP JUMPDEST PUSH1 0x40 MLOAD PUSH2 0x363 SWAP2 SWAP1 PUSH2 0x1EB4 JUMP JUMPDEST PUSH1 0x40 MLOAD DUP1 SWAP2 SUB SWAP1 RETURN JUMPDEST PUSH2 0x386 PUSH1 0x4 DUP1 CALLDATASIZE SUB DUP2 ADD SWAP1 PUSH2 0x381 SWAP2 SWAP1 PUSH2 0x205A JUMP JUMPDEST PUSH2 0xA97 JUMP JUMPDEST PUSH1 0x40 MLOAD PUSH2 0x393 SWAP2 SWAP1 PUSH2 0x1EDE JUMP JUMPDEST PUSH1 0x40 MLOAD DUP1 SWAP2 SUB SWAP1 RETURN JUMPDEST PUSH2 0x3B6 PUSH1 0x4 DUP1 CALLDATASIZE SUB DUP2 ADD SWAP1 PUSH2 0x3B1 SWAP2 SWAP1 PUSH2 0x1FD6 JUMP JUMPDEST PUSH2 0xB1E JUMP JUMPDEST PUSH1 0x40 MLOAD PUSH2 0x3C3 SWAP2 SWAP1 PUSH2 0x21F9 JUMP JUMPDEST PUSH1 0x40 MLOAD DUP1 SWAP2 SUB SWAP1 RETURN JUMPDEST PUSH2 0x3E6 PUSH1 0x4 DUP1 CALLDATASIZE SUB DUP2 ADD SWAP1 PUSH2 0x3E1 SWAP2 SWAP1 PUSH2 0x1FD6 JUMP JUMPDEST PUSH2 0xD2B JUMP JUMPDEST STOP JUMPDEST PUSH1 0x60 PUSH1 0x40 MLOAD DUP1 PUSH1 0x40 ADD PUSH1 0x40 MSTORE DUP1 PUSH1 0xB DUP2 MSTORE PUSH1 0x20 ADD PUSH32 0x4D6174696320546F6B656E000000000000000000000000000000000000000000 DUP2 MSTORE POP SWAP1 POP SWAP1 JUMP JUMPDEST PUSH1 0x0 PUSH2 0x432 CALLER DUP5 DUP5 PUSH2 0xDC5 JUMP JUMPDEST PUSH1 0x1 SWAP1 POP SWAP3 SWAP2 POP POP JUMP JUMPDEST PUSH1 0x0 PUSH1 0x12 PUSH1 0xFF AND PUSH1 0xA PUSH2 0x44F SWAP2 SWAP1 PUSH2 0x237D JUMP JUMPDEST PUSH5 0x2540BE400 PUSH2 0x45F SWAP2 SWAP1 PUSH2 0x23C8 JUMP JUMPDEST SWAP1 POP SWAP1 JUMP JUMPDEST PUSH1 0x0 DUP2 PUSH1 0x9 PUSH1 0x0 DUP7 PUSH20 0xFFFFFFFFFFFFFFFFFFFFFFFFFFFFFFFFFFFFFFFF AND PUSH20 0xFFFFFFFFFFFFFFFFFFFFFFFFFFFFFFFFFFFFFFFF AND DUP2 MSTORE PUSH1 0x20 ADD SWAP1 DUP2 MSTORE PUSH1 0x20 ADD PUSH1 0x0 KECCAK256 PUSH1 0x0 CALLER PUSH20 0xFFFFFFFFFFFFFFFFFFFFFFFFFFFFFFFFFFFFFFFF AND PUSH20 0xFFFFFFFFFFFFFFFFFFFFFFFFFFFFFFFFFFFFFFFF AND DUP2 MSTORE PUSH1 0x20 ADD SWAP1 DUP2 MSTORE PUSH1 0x20 ADD PUSH1 0x0 KECCAK256 SLOAD LT ISZERO PUSH2 0x525 JUMPI PUSH1 0x40 MLOAD PUSH32 0x8C379A000000000000000000000000000000000000000000000000000000000 DUP2 MSTORE PUSH1 0x4 ADD PUSH2 0x51C SWAP1 PUSH2 0x2494 JUMP JUMPDEST PUSH1 0x40 MLOAD DUP1 SWAP2 SUB SWAP1 REVERT JUMPDEST PUSH2 0x530 DUP5 DUP5 DUP5 PUSH2 0xF8E JUMP JUMPDEST PUSH2 0x5C2 DUP5 CALLER DUP5 PUSH1 0x9 PUSH1 0x0 DUP10 PUSH20 0xFFFFFFFFFFFFFFFFFFFFFFFFFFFFFFFFFFFFFFFF AND PUSH20 0xFFFFFFFFFFFFFFFFFFFFFFFFFFFFFFFFFFFFFFFF AND DUP2 MSTORE PUSH1 0x20 ADD SWAP1 DUP2 MSTORE PUSH1 0x20 ADD PUSH1 0x0 KECCAK256 PUSH1 0x0 CALLER PUSH20 0xFFFFFFFFFFFFFFFFFFFFFFFFFFFFFFFFFFFFFFFF AND PUSH20 0xFFFFFFFFFFFFFFFFFFFFFFFFFFFFFFFFFFFFFFFF AND DUP2 MSTORE PUSH1 0x20 ADD SWAP1 DUP2 MSTORE PUSH1 0x20 ADD PUSH1 0x0 KECCAK256 SLOAD PUSH2 0x5BD SWAP2 SWAP1 PUSH2 0x24B4 JUMP JUMPDEST PUSH2 0xDC5 JUMP JUMPDEST PUSH1 0x1 SWAP1 POP SWAP4 SWAP3 POP POP POP JUMP JUMPDEST PUSH1 0x0 PUSH2 0x5E4 DUP3 DUP6 PUSH2 0x5DE SWAP2 SWAP1 PUSH2 0x24E8 JUMP JUMPDEST DUP5 PUSH2 0x1274 JUMP JUMPDEST SWAP1 POP PUSH2 0x5F0 CALLER DUP3 PUSH2 0x153C JUMP JUMPDEST POP POP POP POP JUMP JUMPDEST PUSH1 0x0 PUSH1 0x12 SWAP1 POP SWAP1 JUMP JUMPDEST PUSH1 0x0 PUSH2 0x693 CALLER DUP5 DUP5 PUSH1 0x9 PUSH1 0x0 CALLER PUSH20 0xFFFFFFFFFFFFFFFFFFFFFFFFFFFFFFFFFFFFFFFF AND PUSH20 0xFFFFFFFFFFFFFFFFFFFFFFFFFFFFFFFFFFFFFFFF AND DUP2 MSTORE PUSH1 0x20 ADD SWAP1 DUP2 MSTORE PUSH1 0x20 ADD PUSH1 0x0 KECCAK256 PUSH1 0x0 DUP9 PUSH20 0xFFFFFFFFFFFFFFFFFFFFFFFFFFFFFFFFFFFFFFFF AND PUSH20 0xFFFFFFFFFFFFFFFFFFFFFFFFFFFFFFFFFFFFFFFF AND DUP2 MSTORE PUSH1 0x20 ADD SWAP1 DUP2 MSTORE PUSH1 0x20 ADD PUSH1 0x0 KECCAK256 SLOAD PUSH2 0x68E SWAP2 SWAP1 PUSH2 0x24E8 JUMP JUMPDEST PUSH2 0xDC5 JUMP JUMPDEST PUSH1 0x1 SWAP1 POP SWAP3 SWAP2 POP POP JUMP JUMPDEST PUSH1 0x0 PUSH1 0x8 PUSH1 0x0 DUP4 PUSH20 0xFFFFFFFFFFFFFFFFFFFFFFFFFFFFFFFFFFFFFFFF AND PUSH20 0xFFFFFFFFFFFFFFFFFFFFFFFFFFFFFFFFFFFFFFFF AND DUP2 MSTORE PUSH1 0x20 ADD SWAP1 DUP2 MSTORE PUSH1 0x20 ADD PUSH1 0x0 KECCAK256 SLOAD SWAP1 POP SWAP2 SWAP1 POP JUMP JUMPDEST CALLER PUSH20 0xFFFFFFFFFFFFFFFFFFFFFFFFFFFFFFFFFFFFFFFF AND PUSH1 0x0 DUP1 SLOAD SWAP1 PUSH2 0x100 EXP SWAP1 DIV PUSH20 0xFFFFFFFFFFFFFFFFFFFFFFFFFFFFFFFFFFFFFFFF AND PUSH20 0xFFFFFFFFFFFFFFFFFFFFFFFFFFFFFFFFFFFFFFFF AND EQ PUSH2 0x774 JUMPI PUSH1 0x40 MLOAD PUSH32 0x8C379A000000000000000000000000000000000000000000000000000000000 DUP2 MSTORE PUSH1 0x4 ADD PUSH2 0x76B SWAP1 PUSH2 0x25B0 JUMP JUMPDEST PUSH1 0x40 MLOAD DUP1 SWAP2 SUB SWAP1 REVERT JUMPDEST PUSH1 0x0 PUSH20 0xFFFFFFFFFFFFFFFFFFFFFFFFFFFFFFFFFFFFFFFF AND PUSH1 0x0 DUP1 SLOAD SWAP1 PUSH2 0x100 EXP SWAP1 DIV PUSH20 0xFFFFFFFFFFFFFFFFFFFFFFFFFFFFFFFFFFFFFFFF AND PUSH20 0xFFFFFFFFFFFFFFFFFFFFFFFFFFFFFFFFFFFFFFFF AND PUSH32 0x8BE0079C531659141344CD1FD0A4F28419497F9722A3DAAFE3B4186F6B6457E0 PUSH1 0x40 MLOAD PUSH1 0x40 MLOAD DUP1 SWAP2 SUB SWAP1 LOG3 PUSH1 0x0 DUP1 PUSH1 0x0 PUSH2 0x100 EXP DUP2 SLOAD DUP2 PUSH20 0xFFFFFFFFFFFFFFFFFFFFFFFFFFFFFFFFFFFFFFFF MUL NOT AND SWAP1 DUP4 PUSH20 0xFFFFFFFFFFFFFFFFFFFFFFFFFFFFFFFFFFFFFFFF AND MUL OR SWAP1 SSTORE POP JUMP JUMPDEST PUSH1 0x0 PUSH2 0x83C PUSH2 0x841 JUMP JUMPDEST SWAP1 POP SWAP1 JUMP JUMPDEST PUSH1 0x0 DUP1 PUSH1 0x0 SWAP1 SLOAD SWAP1 PUSH2 0x100 EXP SWAP1 DIV PUSH20 0xFFFFFFFFFFFFFFFFFFFFFFFFFFFFFFFFFFFFFFFF AND SWAP1 POP SWAP1 JUMP JUMPDEST PUSH1 0x60 PUSH1 0x40 MLOAD DUP1 PUSH1 0x40 ADD PUSH1 0x40 MSTORE DUP1 PUSH1 0x5 DUP2 MSTORE PUSH1 0x20 ADD PUSH32 0x4D41544943000000000000000000000000000000000000000000000000000000 DUP2 MSTORE POP SWAP1 POP SWAP1 JUMP JUMPDEST PUSH1 0x0 CALLER PUSH20 0xFFFFFFFFFFFFFFFFFFFFFFFFFFFFFFFFFFFFFFFF AND PUSH1 0x0 DUP1 SLOAD SWAP1 PUSH2 0x100 EXP SWAP1 DIV PUSH20 0xFFFFFFFFFFFFFFFFFFFFFFFFFFFFFFFFFFFFFFFF AND PUSH20 0xFFFFFFFFFFFFFFFFFFFFFFFFFFFFFFFFFFFFFFFF AND EQ PUSH2 0x937 JUMPI PUSH1 0x40 MLOAD PUSH32 0x8C379A000000000000000000000000000000000000000000000000000000000 DUP2 MSTORE PUSH1 0x4 ADD PUSH2 0x92E SWAP1 PUSH2 0x25B0 JUMP JUMPDEST PUSH1 0x40 MLOAD DUP1 SWAP2 SUB SWAP1 REVERT JUMPDEST PUSH2 0x941 DUP4 DUP4 PUSH2 0x16B7 JUMP JUMPDEST PUSH1 0x1 SWAP1 POP SWAP3 SWAP2 POP POP JUMP JUMPDEST PUSH1 0x0 PUSH2 0x9DF CALLER DUP5 DUP5 PUSH1 0x9 PUSH1 0x0 CALLER PUSH20 0xFFFFFFFFFFFFFFFFFFFFFFFFFFFFFFFFFFFFFFFF AND PUSH20 0xFFFFFFFFFFFFFFFFFFFFFFFFFFFFFFFFFFFFFFFF AND DUP2 MSTORE PUSH1 0x20 ADD SWAP1 DUP2 MSTORE PUSH1 0x20 ADD PUSH1 0x0 KECCAK256 PUSH1 0x0 DUP9 PUSH20 0xFFFFFFFFFFFFFFFFFFFFFFFFFFFFFFFFFFFFFFFF AND PUSH20 0xFFFFFFFFFFFFFFFFFFFFFFFFFFFFFFFFFFFFFFFF AND DUP2 MSTORE PUSH1 0x20 ADD SWAP1 DUP2 MSTORE PUSH1 0x20 ADD PUSH1 0x0 KECCAK256 SLOAD PUSH2 0x9DA SWAP2 SWAP1 PUSH2 0x24B4 JUMP JUMPDEST PUSH2 0xDC5 JUMP JUMPDEST PUSH1 0x1 SWAP1 POP SWAP3 SWAP2 POP POP JUMP JUMPDEST PUSH1 0x8 PUSH1 0x0 CALLER PUSH20 0xFFFFFFFFFFFFFFFFFFFFFFFFFFFFFFFFFFFFFFFF AND PUSH20 0xFFFFFFFFFFFFFFFFFFFFFFFFFFFFFFFFFFFFFFFF AND DUP2 MSTORE PUSH1 0x20 ADD SWAP1 DUP2 MSTORE PUSH1 0x20 ADD PUSH1 0x0 KECCAK256 SLOAD DUP2 LT PUSH2 0xA6A JUMPI PUSH1 0x40 MLOAD PUSH32 0x8C379A000000000000000000000000000000000000000000000000000000000 DUP2 MSTORE PUSH1 0x4 ADD PUSH2 0xA61 SWAP1 PUSH2 0x2642 JUMP JUMPDEST PUSH1 0x40 MLOAD DUP1 SWAP2 SUB SWAP1 REVERT JUMPDEST PUSH2 0xA73 DUP2 PUSH2 0x18B4 JUMP JUMPDEST PUSH2 0xA7D CALLER DUP3 PUSH2 0x16B7 JUMP JUMPDEST POP JUMP JUMPDEST PUSH1 0x0 PUSH2 0xA8D CALLER DUP5 DUP5 PUSH2 0xF8E JUMP JUMPDEST PUSH1 0x1 SWAP1 POP SWAP3 SWAP2 POP POP JUMP JUMPDEST PUSH1 0x0 PUSH1 0x9 PUSH1 0x0 DUP5 PUSH20 0xFFFFFFFFFFFFFFFFFFFFFFFFFFFFFFFFFFFFFFFF AND PUSH20 0xFFFFFFFFFFFFFFFFFFFFFFFFFFFFFFFFFFFFFFFF AND DUP2 MSTORE PUSH1 0x20 ADD SWAP1 DUP2 MSTORE PUSH1 0x20 ADD PUSH1 0x0 KECCAK256 PUSH1 0x0 DUP4 PUSH20 0xFFFFFFFFFFFFFFFFFFFFFFFFFFFFFFFFFFFFFFFF AND PUSH20 0xFFFFFFFFFFFFFFFFFFFFFFFFFFFFFFFFFFFFFFFF AND DUP2 MSTORE PUSH1 0x20 ADD SWAP1 DUP2 MSTORE PUSH1 0x20 ADD PUSH1 0x0 KECCAK256 SLOAD SWAP1 POP SWAP3 SWAP2 POP POP JUMP JUMPDEST PUSH2 0xB26 PUSH2 0x1CEB JUMP JUMPDEST PUSH1 0x0 DUP1 PUSH1 0x40 MLOAD DUP1 PUSH1 0x40 ADD PUSH1 0x40 MSTORE DUP1 PUSH1 0x0 DUP2 MSTORE PUSH1 0x20 ADD PUSH1 0x1 PUSH1 0x2 PUSH1 0x0 DUP9 PUSH20 0xFFFFFFFFFFFFFFFFFFFFFFFFFFFFFFFFFFFFFFFF AND PUSH20 0xFFFFFFFFFFFFFFFFFFFFFFFFFFFFFFFFFFFFFFFF AND DUP2 MSTORE PUSH1 0x20 ADD SWAP1 DUP2 MSTORE PUSH1 0x20 ADD PUSH1 0x0 KECCAK256 SLOAD DUP2 SLOAD DUP2 LT PUSH2 0xB8E JUMPI PUSH2 0xB8D PUSH2 0x2662 JUMP JUMPDEST JUMPDEST SWAP1 PUSH1 0x0 MSTORE PUSH1 0x20 PUSH1 0x0 KECCAK256 SWAP1 PUSH1 0x2 MUL ADD PUSH1 0x1 ADD DUP1 SLOAD DUP1 PUSH1 0x20 MUL PUSH1 0x20 ADD PUSH1 0x40 MLOAD SWAP1 DUP2 ADD PUSH1 0x40 MSTORE DUP1 SWAP3 SWAP2 SWAP1 DUP2 DUP2 MSTORE PUSH1 0x20 ADD PUSH1 0x0 SWAP1 JUMPDEST DUP3 DUP3 LT ISZERO PUSH2 0xC65 JUMPI DUP4 DUP3 SWAP1 PUSH1 0x0 MSTORE PUSH1 0x20 PUSH1 0x0 KECCAK256 SWAP1 PUSH1 0x4 MUL ADD PUSH1 0x40 MLOAD DUP1 PUSH1 0x80 ADD PUSH1 0x40 MSTORE SWAP1 DUP2 PUSH1 0x0 DUP3 ADD PUSH1 0x0 SWAP1 SLOAD SWAP1 PUSH2 0x100 EXP SWAP1 DIV PUSH20 0xFFFFFFFFFFFFFFFFFFFFFFFFFFFFFFFFFFFFFFFF AND PUSH20 0xFFFFFFFFFFFFFFFFFFFFFFFFFFFFFFFFFFFFFFFF AND PUSH20 0xFFFFFFFFFFFFFFFFFFFFFFFFFFFFFFFFFFFFFFFF AND DUP2 MSTORE PUSH1 0x20 ADD PUSH1 0x1 DUP3 ADD SLOAD DUP2 MSTORE PUSH1 0x20 ADD PUSH1 0x2 DUP3 ADD SLOAD DUP2 MSTORE PUSH1 0x20 ADD PUSH1 0x3 DUP3 ADD SLOAD DUP2 MSTORE POP POP DUP2 MSTORE PUSH1 0x20 ADD SWAP1 PUSH1 0x1 ADD SWAP1 PUSH2 0xBBF JUMP JUMPDEST POP POP POP POP DUP2 MSTORE POP SWAP1 POP PUSH1 0x0 JUMPDEST DUP2 PUSH1 0x20 ADD MLOAD MLOAD DUP2 LT ISZERO PUSH2 0xD16 JUMPI PUSH1 0x0 PUSH2 0xCA7 DUP4 PUSH1 0x20 ADD MLOAD DUP4 DUP2 MLOAD DUP2 LT PUSH2 0xC9A JUMPI PUSH2 0xC99 PUSH2 0x2662 JUMP JUMPDEST JUMPDEST PUSH1 0x20 MUL PUSH1 0x20 ADD ADD MLOAD PUSH2 0x1A98 JUMP JUMPDEST SWAP1 POP DUP1 DUP4 PUSH1 0x20 ADD MLOAD DUP4 DUP2 MLOAD DUP2 LT PUSH2 0xCC1 JUMPI PUSH2 0xCC0 PUSH2 0x2662 JUMP JUMPDEST JUMPDEST PUSH1 0x20 MUL PUSH1 0x20 ADD ADD MLOAD PUSH1 0x60 ADD DUP2 DUP2 MSTORE POP POP DUP3 PUSH1 0x20 ADD MLOAD DUP3 DUP2 MLOAD DUP2 LT PUSH2 0xCE8 JUMPI PUSH2 0xCE7 PUSH2 0x2662 JUMP JUMPDEST JUMPDEST PUSH1 0x20 MUL PUSH1 0x20 ADD ADD MLOAD PUSH1 0x20 ADD MLOAD DUP5 PUSH2 0xCFF SWAP2 SWAP1 PUSH2 0x24E8 JUMP JUMPDEST SWAP4 POP POP PUSH1 0x1 DUP2 PUSH2 0xD0F SWAP2 SWAP1 PUSH2 0x24E8 JUMP JUMPDEST SWAP1 POP PUSH2 0xC71 JUMP JUMPDEST POP DUP2 DUP2 PUSH1 0x0 ADD DUP2 DUP2 MSTORE POP POP DUP1 SWAP3 POP POP POP SWAP2 SWAP1 POP JUMP JUMPDEST CALLER PUSH20 0xFFFFFFFFFFFFFFFFFFFFFFFFFFFFFFFFFFFFFFFF AND PUSH1 0x0 DUP1 SLOAD SWAP1 PUSH2 0x100 EXP SWAP1 DIV PUSH20 0xFFFFFFFFFFFFFFFFFFFFFFFFFFFFFFFFFFFFFFFF AND PUSH20 0xFFFFFFFFFFFFFFFFFFFFFFFFFFFFFFFFFFFFFFFF AND EQ PUSH2 0xDB9 JUMPI PUSH1 0x40 MLOAD PUSH32 0x8C379A000000000000000000000000000000000000000000000000000000000 DUP2 MSTORE PUSH1 0x4 ADD PUSH2 0xDB0 SWAP1 PUSH2 0x25B0 JUMP JUMPDEST PUSH1 0x40 MLOAD DUP1 SWAP2 SUB SWAP1 REVERT JUMPDEST PUSH2 0xDC2 DUP2 PUSH2 0x1ADA JUMP JUMPDEST POP JUMP JUMPDEST PUSH1 0x0 PUSH20 0xFFFFFFFFFFFFFFFFFFFFFFFFFFFFFFFFFFFFFFFF AND DUP4 PUSH20 0xFFFFFFFFFFFFFFFFFFFFFFFFFFFFFFFFFFFFFFFF AND SUB PUSH2 0xE34 JUMPI PUSH1 0x40 MLOAD PUSH32 0x8C379A000000000000000000000000000000000000000000000000000000000 DUP2 MSTORE PUSH1 0x4 ADD PUSH2 0xE2B SWAP1 PUSH2 0x2703 JUMP JUMPDEST PUSH1 0x40 MLOAD DUP1 SWAP2 SUB SWAP1 REVERT JUMPDEST PUSH1 0x0 PUSH20 0xFFFFFFFFFFFFFFFFFFFFFFFFFFFFFFFFFFFFFFFF AND DUP3 PUSH20 0xFFFFFFFFFFFFFFFFFFFFFFFFFFFFFFFFFFFFFFFF AND SUB PUSH2 0xEA3 JUMPI PUSH1 0x40 MLOAD PUSH32 0x8C379A000000000000000000000000000000000000000000000000000000000 DUP2 MSTORE PUSH1 0x4 ADD PUSH2 0xE9A SWAP1 PUSH2 0x2795 JUMP JUMPDEST PUSH1 0x40 MLOAD DUP1 SWAP2 SUB SWAP1 REVERT JUMPDEST DUP1 PUSH1 0x9 PUSH1 0x0 DUP6 PUSH20 0xFFFFFFFFFFFFFFFFFFFFFFFFFFFFFFFFFFFFFFFF AND PUSH20 0xFFFFFFFFFFFFFFFFFFFFFFFFFFFFFFFFFFFFFFFF AND DUP2 MSTORE PUSH1 0x20 ADD SWAP1 DUP2 MSTORE PUSH1 0x20 ADD PUSH1 0x0 KECCAK256 PUSH1 0x0 DUP5 PUSH20 0xFFFFFFFFFFFFFFFFFFFFFFFFFFFFFFFFFFFFFFFF AND PUSH20 0xFFFFFFFFFFFFFFFFFFFFFFFFFFFFFFFFFFFFFFFF AND DUP2 MSTORE PUSH1 0x20 ADD SWAP1 DUP2 MSTORE PUSH1 0x20 ADD PUSH1 0x0 KECCAK256 DUP2 SWAP1 SSTORE POP DUP2 PUSH20 0xFFFFFFFFFFFFFFFFFFFFFFFFFFFFFFFFFFFFFFFF AND DUP4 PUSH20 0xFFFFFFFFFFFFFFFFFFFFFFFFFFFFFFFFFFFFFFFF AND PUSH32 0x8C5BE1E5EBEC7D5BD14F71427D1E84F3DD0314C0F7B2291E5B200AC8C7C3B925 DUP4 PUSH1 0x40 MLOAD PUSH2 0xF81 SWAP2 SWAP1 PUSH2 0x1EDE JUMP JUMPDEST PUSH1 0x40 MLOAD DUP1 SWAP2 SUB SWAP1 LOG3 POP POP POP JUMP JUMPDEST PUSH1 0x0 PUSH20 0xFFFFFFFFFFFFFFFFFFFFFFFFFFFFFFFFFFFFFFFF AND DUP4 PUSH20 0xFFFFFFFFFFFFFFFFFFFFFFFFFFFFFFFFFFFFFFFF AND SUB PUSH2 0xFFD JUMPI PUSH1 0x40 MLOAD PUSH32 0x8C379A000000000000000000000000000000000000000000000000000000000 DUP2 MSTORE PUSH1 0x4 ADD PUSH2 0xFF4 SWAP1 PUSH2 0x2827 JUMP JUMPDEST PUSH1 0x40 MLOAD DUP1 SWAP2 SUB SWAP1 REVERT JUMPDEST PUSH1 0x0 PUSH20 0xFFFFFFFFFFFFFFFFFFFFFFFFFFFFFFFFFFFFFFFF AND DUP3 PUSH20 0xFFFFFFFFFFFFFFFFFFFFFFFFFFFFFFFFFFFFFFFF AND SUB PUSH2 0x106C JUMPI PUSH1 0x40 MLOAD PUSH32 0x8C379A000000000000000000000000000000000000000000000000000000000 DUP2 MSTORE PUSH1 0x4 ADD PUSH2 0x1063 SWAP1 PUSH2 0x2893 JUMP JUMPDEST PUSH1 0x40 MLOAD DUP1 SWAP2 SUB SWAP1 REVERT JUMPDEST DUP1 PUSH1 0x8 PUSH1 0x0 DUP6 PUSH20 0xFFFFFFFFFFFFFFFFFFFFFFFFFFFFFFFFFFFFFFFF AND PUSH20 0xFFFFFFFFFFFFFFFFFFFFFFFFFFFFFFFFFFFFFFFF AND DUP2 MSTORE PUSH1 0x20 ADD SWAP1 DUP2 MSTORE PUSH1 0x20 ADD PUSH1 0x0 KECCAK256 SLOAD LT ISZERO PUSH2 0x10EE JUMPI PUSH1 0x40 MLOAD PUSH32 0x8C379A000000000000000000000000000000000000000000000000000000000 DUP2 MSTORE PUSH1 0x4 ADD PUSH2 0x10E5 SWAP1 PUSH2 0x2925 JUMP JUMPDEST PUSH1 0x40 MLOAD DUP1 SWAP2 SUB SWAP1 REVERT JUMPDEST DUP1 PUSH1 0x8 PUSH1 0x0 DUP6 PUSH20 0xFFFFFFFFFFFFFFFFFFFFFFFFFFFFFFFFFFFFFFFF AND PUSH20 0xFFFFFFFFFFFFFFFFFFFFFFFFFFFFFFFFFFFFFFFF AND DUP2 MSTORE PUSH1 0x20 ADD SWAP1 DUP2 MSTORE PUSH1 0x20 ADD PUSH1 0x0 KECCAK256 SLOAD PUSH2 0x1139 SWAP2 SWAP1 PUSH2 0x24B4 JUMP JUMPDEST PUSH1 0x8 PUSH1 0x0 DUP6 PUSH20 0xFFFFFFFFFFFFFFFFFFFFFFFFFFFFFFFFFFFFFFFF AND PUSH20 0xFFFFFFFFFFFFFFFFFFFFFFFFFFFFFFFFFFFFFFFF AND DUP2 MSTORE PUSH1 0x20 ADD SWAP1 DUP2 MSTORE PUSH1 0x20 ADD PUSH1 0x0 KECCAK256 DUP2 SWAP1 SSTORE POP DUP1 PUSH1 0x8 PUSH1 0x0 DUP5 PUSH20 0xFFFFFFFFFFFFFFFFFFFFFFFFFFFFFFFFFFFFFFFF AND PUSH20 0xFFFFFFFFFFFFFFFFFFFFFFFFFFFFFFFFFFFFFFFF AND DUP2 MSTORE PUSH1 0x20 ADD SWAP1 DUP2 MSTORE PUSH1 0x20 ADD PUSH1 0x0 KECCAK256 SLOAD PUSH2 0x11C7 SWAP2 SWAP1 PUSH2 0x24E8 JUMP JUMPDEST PUSH1 0x8 PUSH1 0x0 DUP5 PUSH20 0xFFFFFFFFFFFFFFFFFFFFFFFFFFFFFFFFFFFFFFFF AND PUSH20 0xFFFFFFFFFFFFFFFFFFFFFFFFFFFFFFFFFFFFFFFF AND DUP2 MSTORE PUSH1 0x20 ADD SWAP1 DUP2 MSTORE PUSH1 0x20 ADD PUSH1 0x0 KECCAK256 DUP2 SWAP1 SSTORE POP DUP2 PUSH20 0xFFFFFFFFFFFFFFFFFFFFFFFFFFFFFFFFFFFFFFFF AND DUP4 PUSH20 0xFFFFFFFFFFFFFFFFFFFFFFFFFFFFFFFFFFFFFFFF AND PUSH32 0xDDF252AD1BE2C89B69C2B068FC378DAA952BA7F163C4A11628F55A4DF523B3EF DUP4 PUSH1 0x40 MLOAD PUSH2 0x1267 SWAP2 SWAP1 PUSH2 0x1EDE JUMP JUMPDEST PUSH1 0x40 MLOAD DUP1 SWAP2 SUB SWAP1 LOG3 POP POP POP JUMP JUMPDEST PUSH1 0x0 DUP1 PUSH1 0x2 PUSH1 0x0 CALLER PUSH20 0xFFFFFFFFFFFFFFFFFFFFFFFFFFFFFFFFFFFFFFFF AND PUSH20 0xFFFFFFFFFFFFFFFFFFFFFFFFFFFFFFFFFFFFFFFF AND DUP2 MSTORE PUSH1 0x20 ADD SWAP1 DUP2 MSTORE PUSH1 0x20 ADD PUSH1 0x0 KECCAK256 SLOAD SWAP1 POP PUSH1 0x0 PUSH1 0x1 DUP3 DUP2 SLOAD DUP2 LT PUSH2 0x12CF JUMPI PUSH2 0x12CE PUSH2 0x2662 JUMP JUMPDEST JUMPDEST SWAP1 PUSH1 0x0 MSTORE PUSH1 0x20 PUSH1 0x0 KECCAK256 SWAP1 PUSH1 0x2 MUL ADD PUSH1 0x1 ADD DUP5 DUP2 SLOAD DUP2 LT PUSH2 0x12F2 JUMPI PUSH2 0x12F1 PUSH2 0x2662 JUMP JUMPDEST JUMPDEST SWAP1 PUSH1 0x0 MSTORE PUSH1 0x20 PUSH1 0x0 KECCAK256 SWAP1 PUSH1 0x4 MUL ADD PUSH1 0x40 MLOAD DUP1 PUSH1 0x80 ADD PUSH1 0x40 MSTORE SWAP1 DUP2 PUSH1 0x0 DUP3 ADD PUSH1 0x0 SWAP1 SLOAD SWAP1 PUSH2 0x100 EXP SWAP1 DIV PUSH20 0xFFFFFFFFFFFFFFFFFFFFFFFFFFFFFFFFFFFFFFFF AND PUSH20 0xFFFFFFFFFFFFFFFFFFFFFFFFFFFFFFFFFFFFFFFF AND PUSH20 0xFFFFFFFFFFFFFFFFFFFFFFFFFFFFFFFFFFFFFFFF AND DUP2 MSTORE PUSH1 0x20 ADD PUSH1 0x1 DUP3 ADD SLOAD DUP2 MSTORE PUSH1 0x20 ADD PUSH1 0x2 DUP3 ADD SLOAD DUP2 MSTORE PUSH1 0x20 ADD PUSH1 0x3 DUP3 ADD SLOAD DUP2 MSTORE POP POP SWAP1 POP DUP5 DUP2 PUSH1 0x20 ADD MLOAD LT ISZERO PUSH2 0x13C8 JUMPI PUSH1 0x40 MLOAD PUSH32 0x8C379A000000000000000000000000000000000000000000000000000000000 DUP2 MSTORE PUSH1 0x4 ADD PUSH2 0x13BF SWAP1 PUSH2 0x29B7 JUMP JUMPDEST PUSH1 0x40 MLOAD DUP1 SWAP2 SUB SWAP1 REVERT JUMPDEST PUSH1 0x0 PUSH2 0x13D3 DUP3 PUSH2 0x1A98 JUMP JUMPDEST SWAP1 POP DUP6 DUP3 PUSH1 0x20 ADD MLOAD PUSH2 0x13E5 SWAP2 SWAP1 PUSH2 0x24B4 JUMP JUMPDEST DUP3 PUSH1 0x20 ADD DUP2 DUP2 MSTORE POP POP PUSH1 0x0 DUP3 PUSH1 0x20 ADD MLOAD SUB PUSH2 0x1486 JUMPI PUSH1 0x1 DUP4 DUP2 SLOAD DUP2 LT PUSH2 0x140E JUMPI PUSH2 0x140D PUSH2 0x2662 JUMP JUMPDEST JUMPDEST SWAP1 PUSH1 0x0 MSTORE PUSH1 0x20 PUSH1 0x0 KECCAK256 SWAP1 PUSH1 0x2 MUL ADD PUSH1 0x1 ADD DUP6 DUP2 SLOAD DUP2 LT PUSH2 0x1431 JUMPI PUSH2 0x1430 PUSH2 0x2662 JUMP JUMPDEST JUMPDEST SWAP1 PUSH1 0x0 MSTORE PUSH1 0x20 PUSH1 0x0 KECCAK256 SWAP1 PUSH1 0x4 MUL ADD PUSH1 0x0 DUP1 DUP3 ADD PUSH1 0x0 PUSH2 0x100 EXP DUP2 SLOAD SWAP1 PUSH20 0xFFFFFFFFFFFFFFFFFFFFFFFFFFFFFFFFFFFFFFFF MUL NOT AND SWAP1 SSTORE PUSH1 0x1 DUP3 ADD PUSH1 0x0 SWAP1 SSTORE PUSH1 0x2 DUP3 ADD PUSH1 0x0 SWAP1 SSTORE PUSH1 0x3 DUP3 ADD PUSH1 0x0 SWAP1 SSTORE POP POP PUSH2 0x1525 JUMP JUMPDEST DUP2 PUSH1 0x20 ADD MLOAD PUSH1 0x1 DUP5 DUP2 SLOAD DUP2 LT PUSH2 0x149F JUMPI PUSH2 0x149E PUSH2 0x2662 JUMP JUMPDEST JUMPDEST SWAP1 PUSH1 0x0 MSTORE PUSH1 0x20 PUSH1 0x0 KECCAK256 SWAP1 PUSH1 0x2 MUL ADD PUSH1 0x1 ADD DUP7 DUP2 SLOAD DUP2 LT PUSH2 0x14C2 JUMPI PUSH2 0x14C1 PUSH2 0x2662 JUMP JUMPDEST JUMPDEST SWAP1 PUSH1 0x0 MSTORE PUSH1 0x20 PUSH1 0x0 KECCAK256 SWAP1 PUSH1 0x4 MUL ADD PUSH1 0x1 ADD DUP2 SWAP1 SSTORE POP TIMESTAMP PUSH1 0x1 DUP5 DUP2 SLOAD DUP2 LT PUSH2 0x14EC JUMPI PUSH2 0x14EB PUSH2 0x2662 JUMP JUMPDEST JUMPDEST SWAP1 PUSH1 0x0 MSTORE PUSH1 0x20 PUSH1 0x0 KECCAK256 SWAP1 PUSH1 0x2 MUL ADD PUSH1 0x1 ADD DUP7 DUP2 SLOAD DUP2 LT PUSH2 0x150F JUMPI PUSH2 0x150E PUSH2 0x2662 JUMP JUMPDEST JUMPDEST SWAP1 PUSH1 0x0 MSTORE PUSH1 0x20 PUSH1 0x0 KECCAK256 SWAP1 PUSH1 0x4 MUL ADD PUSH1 0x2 ADD DUP2 SWAP1 SSTORE POP JUMPDEST DUP1 DUP7 PUSH2 0x1531 SWAP2 SWAP1 PUSH2 0x24E8 JUMP JUMPDEST SWAP4 POP POP POP POP SWAP3 SWAP2 POP POP JUMP JUMPDEST PUSH1 0x0 PUSH20 0xFFFFFFFFFFFFFFFFFFFFFFFFFFFFFFFFFFFFFFFF AND DUP3 PUSH20 0xFFFFFFFFFFFFFFFFFFFFFFFFFFFFFFFFFFFFFFFF AND SUB PUSH2 0x15AB JUMPI PUSH1 0x40 MLOAD PUSH32 0x8C379A000000000000000000000000000000000000000000000000000000000 DUP2 MSTORE PUSH1 0x4 ADD PUSH2 0x15A2 SWAP1 PUSH2 0x2A49 JUMP JUMPDEST PUSH1 0x40 MLOAD DUP1 SWAP2 SUB SWAP1 REVERT JUMPDEST DUP1 PUSH1 0x4 SLOAD PUSH2 0x15B9 SWAP2 SWAP1 PUSH2 0x24E8 JUMP JUMPDEST PUSH1 0x4 DUP2 SWAP1 SSTORE POP DUP1 PUSH1 0x8 PUSH1 0x0 DUP5 PUSH20 0xFFFFFFFFFFFFFFFFFFFFFFFFFFFFFFFFFFFFFFFF AND PUSH20 0xFFFFFFFFFFFFFFFFFFFFFFFFFFFFFFFFFFFFFFFF AND DUP2 MSTORE PUSH1 0x20 ADD SWAP1 DUP2 MSTORE PUSH1 0x20 ADD PUSH1 0x0 KECCAK256 SLOAD PUSH2 0x160A SWAP2 SWAP1 PUSH2 0x24E8 JUMP JUMPDEST PUSH1 0x8 PUSH1 0x0 DUP5 PUSH20 0xFFFFFFFFFFFFFFFFFFFFFFFFFFFFFFFFFFFFFFFF AND PUSH20 0xFFFFFFFFFFFFFFFFFFFFFFFFFFFFFFFFFFFFFFFF AND DUP2 MSTORE PUSH1 0x20 ADD SWAP1 DUP2 MSTORE PUSH1 0x20 ADD PUSH1 0x0 KECCAK256 DUP2 SWAP1 SSTORE POP DUP2 PUSH20 0xFFFFFFFFFFFFFFFFFFFFFFFFFFFFFFFFFFFFFFFF AND PUSH1 0x0 PUSH20 0xFFFFFFFFFFFFFFFFFFFFFFFFFFFFFFFFFFFFFFFF AND PUSH32 0xDDF252AD1BE2C89B69C2B068FC378DAA952BA7F163C4A11628F55A4DF523B3EF DUP4 PUSH1 0x40 MLOAD PUSH2 0x16AB SWAP2 SWAP1 PUSH2 0x1EDE JUMP JUMPDEST PUSH1 0x40 MLOAD DUP1 SWAP2 SUB SWAP1 LOG3 POP POP JUMP JUMPDEST PUSH1 0x0 PUSH20 0xFFFFFFFFFFFFFFFFFFFFFFFFFFFFFFFFFFFFFFFF AND DUP3 PUSH20 0xFFFFFFFFFFFFFFFFFFFFFFFFFFFFFFFFFFFFFFFF AND SUB PUSH2 0x1726 JUMPI PUSH1 0x40 MLOAD PUSH32 0x8C379A000000000000000000000000000000000000000000000000000000000 DUP2 MSTORE PUSH1 0x4 ADD PUSH2 0x171D SWAP1 PUSH2 0x2ADB JUMP JUMPDEST PUSH1 0x40 MLOAD DUP1 SWAP2 SUB SWAP1 REVERT JUMPDEST DUP1 PUSH1 0x8 PUSH1 0x0 DUP5 PUSH20 0xFFFFFFFFFFFFFFFFFFFFFFFFFFFFFFFFFFFFFFFF AND PUSH20 0xFFFFFFFFFFFFFFFFFFFFFFFFFFFFFFFFFFFFFFFF AND DUP2 MSTORE PUSH1 0x20 ADD SWAP1 DUP2 MSTORE PUSH1 0x20 ADD PUSH1 0x0 KECCAK256 SLOAD LT ISZERO PUSH2 0x17A8 JUMPI PUSH1 0x40 MLOAD PUSH32 0x8C379A000000000000000000000000000000000000000000000000000000000 DUP2 MSTORE PUSH1 0x4 ADD PUSH2 0x179F SWAP1 PUSH2 0x2B6D JUMP JUMPDEST PUSH1 0x40 MLOAD DUP1 SWAP2 SUB SWAP1 REVERT JUMPDEST DUP1 PUSH1 0x8 PUSH1 0x0 DUP5 PUSH20 0xFFFFFFFFFFFFFFFFFFFFFFFFFFFFFFFFFFFFFFFF AND PUSH20 0xFFFFFFFFFFFFFFFFFFFFFFFFFFFFFFFFFFFFFFFF AND DUP2 MSTORE PUSH1 0x20 ADD SWAP1 DUP2 MSTORE PUSH1 0x20 ADD PUSH1 0x0 KECCAK256 SLOAD PUSH2 0x17F3 SWAP2 SWAP1 PUSH2 0x24B4 JUMP JUMPDEST PUSH1 0x8 PUSH1 0x0 DUP5 PUSH20 0xFFFFFFFFFFFFFFFFFFFFFFFFFFFFFFFFFFFFFFFF AND PUSH20 0xFFFFFFFFFFFFFFFFFFFFFFFFFFFFFFFFFFFFFFFF AND DUP2 MSTORE PUSH1 0x20 ADD SWAP1 DUP2 MSTORE PUSH1 0x20 ADD PUSH1 0x0 KECCAK256 DUP2 SWAP1 SSTORE POP DUP1 PUSH1 0x4 SLOAD PUSH2 0x1844 SWAP2 SWAP1 PUSH2 0x24B4 JUMP JUMPDEST PUSH1 0x4 DUP2 SWAP1 SSTORE POP PUSH1 0x0 PUSH20 0xFFFFFFFFFFFFFFFFFFFFFFFFFFFFFFFFFFFFFFFF AND DUP3 PUSH20 0xFFFFFFFFFFFFFFFFFFFFFFFFFFFFFFFFFFFFFFFF AND PUSH32 0xDDF252AD1BE2C89B69C2B068FC378DAA952BA7F163C4A11628F55A4DF523B3EF DUP4 PUSH1 0x40 MLOAD PUSH2 0x18A8 SWAP2 SWAP1 PUSH2 0x1EDE JUMP JUMPDEST PUSH1 0x40 MLOAD DUP1 SWAP2 SUB SWAP1 LOG3 POP POP JUMP JUMPDEST PUSH1 0x0 DUP2 GT PUSH2 0x18F7 JUMPI PUSH1 0x40 MLOAD PUSH32 0x8C379A000000000000000000000000000000000000000000000000000000000 DUP2 MSTORE PUSH1 0x4 ADD PUSH2 0x18EE SWAP1 PUSH2 0x2BD9 JUMP JUMPDEST PUSH1 0x40 MLOAD DUP1 SWAP2 SUB SWAP1 REVERT JUMPDEST PUSH1 0x0 PUSH1 0x2 PUSH1 0x0 CALLER PUSH20 0xFFFFFFFFFFFFFFFFFFFFFFFFFFFFFFFFFFFFFFFF AND PUSH20 0xFFFFFFFFFFFFFFFFFFFFFFFFFFFFFFFFFFFFFFFF AND DUP2 MSTORE PUSH1 0x20 ADD SWAP1 DUP2 MSTORE PUSH1 0x20 ADD PUSH1 0x0 KECCAK256 SLOAD SWAP1 POP PUSH1 0x0 TIMESTAMP SWAP1 POP PUSH1 0x0 DUP3 SUB PUSH2 0x1954 JUMPI PUSH2 0x1951 CALLER PUSH2 0x1C06 JUMP JUMPDEST SWAP2 POP JUMPDEST PUSH1 0x1 DUP3 DUP2 SLOAD DUP2 LT PUSH2 0x1968 JUMPI PUSH2 0x1967 PUSH2 0x2662 JUMP JUMPDEST JUMPDEST SWAP1 PUSH1 0x0 MSTORE PUSH1 0x20 PUSH1 0x0 KECCAK256 SWAP1 PUSH1 0x2 MUL ADD PUSH1 0x1 ADD PUSH1 0x40 MLOAD DUP1 PUSH1 0x80 ADD PUSH1 0x40 MSTORE DUP1 CALLER PUSH20 0xFFFFFFFFFFFFFFFFFFFFFFFFFFFFFFFFFFFFFFFF AND DUP2 MSTORE PUSH1 0x20 ADD DUP6 DUP2 MSTORE PUSH1 0x20 ADD DUP4 DUP2 MSTORE PUSH1 0x20 ADD PUSH1 0x0 DUP2 MSTORE POP SWAP1 DUP1 PUSH1 0x1 DUP2 SLOAD ADD DUP1 DUP3 SSTORE DUP1 SWAP2 POP POP PUSH1 0x1 SWAP1 SUB SWAP1 PUSH1 0x0 MSTORE PUSH1 0x20 PUSH1 0x0 KECCAK256 SWAP1 PUSH1 0x4 MUL ADD PUSH1 0x0 SWAP1 SWAP2 SWAP1 SWAP2 SWAP1 SWAP2 POP PUSH1 0x0 DUP3 ADD MLOAD DUP2 PUSH1 0x0 ADD PUSH1 0x0 PUSH2 0x100 EXP DUP2 SLOAD DUP2 PUSH20 0xFFFFFFFFFFFFFFFFFFFFFFFFFFFFFFFFFFFFFFFF MUL NOT AND SWAP1 DUP4 PUSH20 0xFFFFFFFFFFFFFFFFFFFFFFFFFFFFFFFFFFFFFFFF AND MUL OR SWAP1 SSTORE POP PUSH1 0x20 DUP3 ADD MLOAD DUP2 PUSH1 0x1 ADD SSTORE PUSH1 0x40 DUP3 ADD MLOAD DUP2 PUSH1 0x2 ADD SSTORE PUSH1 0x60 DUP3 ADD MLOAD DUP2 PUSH1 0x3 ADD SSTORE POP POP CALLER PUSH20 0xFFFFFFFFFFFFFFFFFFFFFFFFFFFFFFFFFFFFFFFF AND PUSH32 0xB4CAAF29ADDA3EEFEE3AD552A8E85058589BF834C7466CAE4EE58787F70589ED DUP5 DUP5 DUP5 PUSH1 0x40 MLOAD PUSH2 0x1A8B SWAP4 SWAP3 SWAP2 SWAP1 PUSH2 0x2BF9 JUMP JUMPDEST PUSH1 0x40 MLOAD DUP1 SWAP2 SUB SWAP1 LOG2 POP POP POP JUMP JUMPDEST PUSH1 0x0 PUSH1 0x3 SLOAD DUP3 PUSH1 0x20 ADD MLOAD PUSH2 0xE10 DUP5 PUSH1 0x40 ADD MLOAD TIMESTAMP PUSH2 0x1AB5 SWAP2 SWAP1 PUSH2 0x24B4 JUMP JUMPDEST PUSH2 0x1ABF SWAP2 SWAP1 PUSH2 0x2C5F JUMP JUMPDEST PUSH2 0x1AC9 SWAP2 SWAP1 PUSH2 0x23C8 JUMP JUMPDEST PUSH2 0x1AD3 SWAP2 SWAP1 PUSH2 0x2C5F JUMP JUMPDEST SWAP1 POP SWAP2 SWAP1 POP JUMP JUMPDEST PUSH1 0x0 PUSH20 0xFFFFFFFFFFFFFFFFFFFFFFFFFFFFFFFFFFFFFFFF AND DUP2 PUSH20 0xFFFFFFFFFFFFFFFFFFFFFFFFFFFFFFFFFFFFFFFF AND SUB PUSH2 0x1B49 JUMPI PUSH1 0x40 MLOAD PUSH32 0x8C379A000000000000000000000000000000000000000000000000000000000 DUP2 MSTORE PUSH1 0x4 ADD PUSH2 0x1B40 SWAP1 PUSH2 0x2D02 JUMP JUMPDEST PUSH1 0x40 MLOAD DUP1 SWAP2 SUB SWAP1 REVERT JUMPDEST DUP1 PUSH20 0xFFFFFFFFFFFFFFFFFFFFFFFFFFFFFFFFFFFFFFFF AND PUSH1 0x0 DUP1 SLOAD SWAP1 PUSH2 0x100 EXP SWAP1 DIV PUSH20 0xFFFFFFFFFFFFFFFFFFFFFFFFFFFFFFFFFFFFFFFF AND PUSH20 0xFFFFFFFFFFFFFFFFFFFFFFFFFFFFFFFFFFFFFFFF AND PUSH32 0x8BE0079C531659141344CD1FD0A4F28419497F9722A3DAAFE3B4186F6B6457E0 PUSH1 0x40 MLOAD PUSH1 0x40 MLOAD DUP1 SWAP2 SUB SWAP1 LOG3 DUP1 PUSH1 0x0 DUP1 PUSH2 0x100 EXP DUP2 SLOAD DUP2 PUSH20 0xFFFFFFFFFFFFFFFFFFFFFFFFFFFFFFFFFFFFFFFF MUL NOT AND SWAP1 DUP4 PUSH20 0xFFFFFFFFFFFFFFFFFFFFFFFFFFFFFFFFFFFFFFFF AND MUL OR SWAP1 SSTORE POP POP JUMP JUMPDEST PUSH1 0x0 PUSH1 0x1 DUP1 DUP2 PUSH1 0x1 DUP2 SLOAD ADD DUP1 DUP3 SSTORE DUP1 SWAP2 POP POP SUB SWAP1 PUSH1 0x0 MSTORE PUSH1 0x20 PUSH1 0x0 KECCAK256 SWAP1 POP POP PUSH1 0x0 PUSH1 0x1 DUP1 DUP1 SLOAD SWAP1 POP PUSH2 0x1C38 SWAP2 SWAP1 PUSH2 0x24B4 JUMP JUMPDEST SWAP1 POP DUP3 PUSH1 0x1 DUP3 DUP2 SLOAD DUP2 LT PUSH2 0x1C4F JUMPI PUSH2 0x1C4E PUSH2 0x2662 JUMP JUMPDEST JUMPDEST SWAP1 PUSH1 0x0 MSTORE PUSH1 0x20 PUSH1 0x0 KECCAK256 SWAP1 PUSH1 0x2 MUL ADD PUSH1 0x0 ADD PUSH1 0x0 PUSH2 0x100 EXP DUP2 SLOAD DUP2 PUSH20 0xFFFFFFFFFFFFFFFFFFFFFFFFFFFFFFFFFFFFFFFF MUL NOT AND SWAP1 DUP4 PUSH20 0xFFFFFFFFFFFFFFFFFFFFFFFFFFFFFFFFFFFFFFFF AND MUL OR SWAP1 SSTORE POP DUP1 PUSH1 0x2 PUSH1 0x0 DUP6 PUSH20 0xFFFFFFFFFFFFFFFFFFFFFFFFFFFFFFFFFFFFFFFF AND PUSH20 0xFFFFFFFFFFFFFFFFFFFFFFFFFFFFFFFFFFFFFFFF AND DUP2 MSTORE PUSH1 0x20 ADD SWAP1 DUP2 MSTORE PUSH1 0x20 ADD PUSH1 0x0 KECCAK256 DUP2 SWAP1 SSTORE POP DUP1 SWAP2 POP POP SWAP2 SWAP1 POP JUMP JUMPDEST PUSH1 0x40 MLOAD DUP1 PUSH1 0x40 ADD PUSH1 0x40 MSTORE DUP1 PUSH1 0x0 DUP2 MSTORE PUSH1 0x20 ADD PUSH1 0x60 DUP2 MSTORE POP SWAP1 JUMP JUMPDEST PUSH1 0x0 DUP2 MLOAD SWAP1 POP SWAP2 SWAP1 POP JUMP JUMPDEST PUSH1 0x0 DUP3 DUP3 MSTORE PUSH1 0x20 DUP3 ADD SWAP1 POP SWAP3 SWAP2 POP POP JUMP JUMPDEST PUSH1 0x0 JUMPDEST DUP4 DUP2 LT ISZERO PUSH2 0x1D3F JUMPI DUP1 DUP3 ADD MLOAD DUP2 DUP5 ADD MSTORE PUSH1 0x20 DUP2 ADD SWAP1 POP PUSH2 0x1D24 JUMP JUMPDEST DUP4 DUP2 GT ISZERO PUSH2 0x1D4E JUMPI PUSH1 0x0 DUP5 DUP5 ADD MSTORE JUMPDEST POP POP POP POP JUMP JUMPDEST PUSH1 0x0 PUSH1 0x1F NOT PUSH1 0x1F DUP4 ADD AND SWAP1 POP SWAP2 SWAP1 POP JUMP JUMPDEST PUSH1 0x0 PUSH2 0x1D70 DUP3 PUSH2 0x1D05 JUMP JUMPDEST PUSH2 0x1D7A DUP2 DUP6 PUSH2 0x1D10 JUMP JUMPDEST SWAP4 POP PUSH2 0x1D8A DUP2 DUP6 PUSH1 0x20 DUP7 ADD PUSH2 0x1D21 JUMP JUMPDEST PUSH2 0x1D93 DUP2 PUSH2 0x1D54 JUMP JUMPDEST DUP5 ADD SWAP2 POP POP SWAP3 SWAP2 POP POP JUMP JUMPDEST PUSH1 0x0 PUSH1 0x20 DUP3 ADD SWAP1 POP DUP2 DUP2 SUB PUSH1 0x0 DUP4 ADD MSTORE PUSH2 0x1DB8 DUP2 DUP5 PUSH2 0x1D65 JUMP JUMPDEST SWAP1 POP SWAP3 SWAP2 POP POP JUMP JUMPDEST PUSH1 0x0 DUP1 REVERT JUMPDEST PUSH1 0x0 PUSH20 0xFFFFFFFFFFFFFFFFFFFFFFFFFFFFFFFFFFFFFFFF DUP3 AND SWAP1 POP SWAP2 SWAP1 POP JUMP JUMPDEST PUSH1 0x0 PUSH2 0x1DF0 DUP3 PUSH2 0x1DC5 JUMP JUMPDEST SWAP1 POP SWAP2 SWAP1 POP JUMP JUMPDEST PUSH2 0x1E00 DUP2 PUSH2 0x1DE5 JUMP JUMPDEST DUP2 EQ PUSH2 0x1E0B JUMPI PUSH1 0x0 DUP1 REVERT JUMPDEST POP JUMP JUMPDEST PUSH1 0x0 DUP2 CALLDATALOAD SWAP1 POP PUSH2 0x1E1D DUP2 PUSH2 0x1DF7 JUMP JUMPDEST SWAP3 SWAP2 POP POP JUMP JUMPDEST PUSH1 0x0 DUP2 SWAP1 POP SWAP2 SWAP1 POP JUMP JUMPDEST PUSH2 0x1E36 DUP2 PUSH2 0x1E23 JUMP JUMPDEST DUP2 EQ PUSH2 0x1E41 JUMPI PUSH1 0x0 DUP1 REVERT JUMPDEST POP JUMP JUMPDEST PUSH1 0x0 DUP2 CALLDATALOAD SWAP1 POP PUSH2 0x1E53 DUP2 PUSH2 0x1E2D JUMP JUMPDEST SWAP3 SWAP2 POP POP JUMP JUMPDEST PUSH1 0x0 DUP1 PUSH1 0x40 DUP4 DUP6 SUB SLT ISZERO PUSH2 0x1E70 JUMPI PUSH2 0x1E6F PUSH2 0x1DC0 JUMP JUMPDEST JUMPDEST PUSH1 0x0 PUSH2 0x1E7E DUP6 DUP3 DUP7 ADD PUSH2 0x1E0E JUMP JUMPDEST SWAP3 POP POP PUSH1 0x20 PUSH2 0x1E8F DUP6 DUP3 DUP7 ADD PUSH2 0x1E44 JUMP JUMPDEST SWAP2 POP POP SWAP3 POP SWAP3 SWAP1 POP JUMP JUMPDEST PUSH1 0x0 DUP2 ISZERO ISZERO SWAP1 POP SWAP2 SWAP1 POP JUMP JUMPDEST PUSH2 0x1EAE DUP2 PUSH2 0x1E99 JUMP JUMPDEST DUP3 MSTORE POP POP JUMP JUMPDEST PUSH1 0x0 PUSH1 0x20 DUP3 ADD SWAP1 POP PUSH2 0x1EC9 PUSH1 0x0 DUP4 ADD DUP5 PUSH2 0x1EA5 JUMP JUMPDEST SWAP3 SWAP2 POP POP JUMP JUMPDEST PUSH2 0x1ED8 DUP2 PUSH2 0x1E23 JUMP JUMPDEST DUP3 MSTORE POP POP JUMP JUMPDEST PUSH1 0x0 PUSH1 0x20 DUP3 ADD SWAP1 POP PUSH2 0x1EF3 PUSH1 0x0 DUP4 ADD DUP5 PUSH2 0x1ECF JUMP JUMPDEST SWAP3 SWAP2 POP POP JUMP JUMPDEST PUSH1 0x0 DUP1 PUSH1 0x0 PUSH1 0x60 DUP5 DUP7 SUB SLT ISZERO PUSH2 0x1F12 JUMPI PUSH2 0x1F11 PUSH2 0x1DC0 JUMP JUMPDEST JUMPDEST PUSH1 0x0 PUSH2 0x1F20 DUP7 DUP3 DUP8 ADD PUSH2 0x1E0E JUMP JUMPDEST SWAP4 POP POP PUSH1 0x20 PUSH2 0x1F31 DUP7 DUP3 DUP8 ADD PUSH2 0x1E0E JUMP JUMPDEST SWAP3 POP POP PUSH1 0x40 PUSH2 0x1F42 DUP7 DUP3 DUP8 ADD PUSH2 0x1E44 JUMP JUMPDEST SWAP2 POP POP SWAP3 POP SWAP3 POP SWAP3 JUMP JUMPDEST PUSH1 0x0 DUP1 PUSH1 0x0 PUSH1 0x60 DUP5 DUP7 SUB SLT ISZERO PUSH2 0x1F65 JUMPI PUSH2 0x1F64 PUSH2 0x1DC0 JUMP JUMPDEST JUMPDEST PUSH1 0x0 PUSH2 0x1F73 DUP7 DUP3 DUP8 ADD PUSH2 0x1E44 JUMP JUMPDEST SWAP4 POP POP PUSH1 0x20 PUSH2 0x1F84 DUP7 DUP3 DUP8 ADD PUSH2 0x1E44 JUMP JUMPDEST SWAP3 POP POP PUSH1 0x40 PUSH2 0x1F95 DUP7 DUP3 DUP8 ADD PUSH2 0x1E44 JUMP JUMPDEST SWAP2 POP POP SWAP3 POP SWAP3 POP SWAP3 JUMP JUMPDEST PUSH1 0x0 PUSH1 0xFF DUP3 AND SWAP1 POP SWAP2 SWAP1 POP JUMP JUMPDEST PUSH2 0x1FB5 DUP2 PUSH2 0x1F9F JUMP JUMPDEST DUP3 MSTORE POP POP JUMP JUMPDEST PUSH1 0x0 PUSH1 0x20 DUP3 ADD SWAP1 POP PUSH2 0x1FD0 PUSH1 0x0 DUP4 ADD DUP5 PUSH2 0x1FAC JUMP JUMPDEST SWAP3 SWAP2 POP POP JUMP JUMPDEST PUSH1 0x0 PUSH1 0x20 DUP3 DUP5 SUB SLT ISZERO PUSH2 0x1FEC JUMPI PUSH2 0x1FEB PUSH2 0x1DC0 JUMP JUMPDEST JUMPDEST PUSH1 0x0 PUSH2 0x1FFA DUP5 DUP3 DUP6 ADD PUSH2 0x1E0E JUMP JUMPDEST SWAP2 POP POP SWAP3 SWAP2 POP POP JUMP JUMPDEST PUSH2 0x200C DUP2 PUSH2 0x1DE5 JUMP JUMPDEST DUP3 MSTORE POP POP JUMP JUMPDEST PUSH1 0x0 PUSH1 0x20 DUP3 ADD SWAP1 POP PUSH2 0x2027 PUSH1 0x0 DUP4 ADD DUP5 PUSH2 0x2003 JUMP JUMPDEST SWAP3 SWAP2 POP POP JUMP JUMPDEST PUSH1 0x0 PUSH1 0x20 DUP3 DUP5 SUB SLT ISZERO PUSH2 0x2043 JUMPI PUSH2 0x2042 PUSH2 0x1DC0 JUMP JUMPDEST JUMPDEST PUSH1 0x0 PUSH2 0x2051 DUP5 DUP3 DUP6 ADD PUSH2 0x1E44 JUMP JUMPDEST SWAP2 POP POP SWAP3 SWAP2 POP POP JUMP JUMPDEST PUSH1 0x0 DUP1 PUSH1 0x40 DUP4 DUP6 SUB SLT ISZERO PUSH2 0x2071 JUMPI PUSH2 0x2070 PUSH2 0x1DC0 JUMP JUMPDEST JUMPDEST PUSH1 0x0 PUSH2 0x207F DUP6 DUP3 DUP7 ADD PUSH2 0x1E0E JUMP JUMPDEST SWAP3 POP POP PUSH1 0x20 PUSH2 0x2090 DUP6 DUP3 DUP7 ADD PUSH2 0x1E0E JUMP JUMPDEST SWAP2 POP POP SWAP3 POP SWAP3 SWAP1 POP JUMP JUMPDEST PUSH2 0x20A3 DUP2 PUSH2 0x1E23 JUMP JUMPDEST DUP3 MSTORE POP POP JUMP JUMPDEST PUSH1 0x0 DUP2 MLOAD SWAP1 POP SWAP2 SWAP1 POP JUMP JUMPDEST PUSH1 0x0 DUP3 DUP3 MSTORE PUSH1 0x20 DUP3 ADD SWAP1 POP SWAP3 SWAP2 POP POP JUMP JUMPDEST PUSH1 0x0 DUP2 SWAP1 POP PUSH1 0x20 DUP3 ADD SWAP1 POP SWAP2 SWAP1 POP JUMP JUMPDEST PUSH2 0x20DE DUP2 PUSH2 0x1DE5 JUMP JUMPDEST DUP3 MSTORE POP POP JUMP JUMPDEST PUSH1 0x80 DUP3 ADD PUSH1 0x0 DUP3 ADD MLOAD PUSH2 0x20FA PUSH1 0x0 DUP6 ADD DUP3 PUSH2 0x20D5 JUMP JUMPDEST POP PUSH1 0x20 DUP3 ADD MLOAD PUSH2 0x210D PUSH1 0x20 DUP6 ADD DUP3 PUSH2 0x209A JUMP JUMPDEST POP PUSH1 0x40 DUP3 ADD MLOAD PUSH2 0x2120 PUSH1 0x40 DUP6 ADD DUP3 PUSH2 0x209A JUMP JUMPDEST POP PUSH1 0x60 DUP3 ADD MLOAD PUSH2 0x2133 PUSH1 0x60 DUP6 ADD DUP3 PUSH2 0x209A JUMP JUMPDEST POP POP POP POP JUMP JUMPDEST PUSH1 0x0 PUSH2 0x2145 DUP4 DUP4 PUSH2 0x20E4 JUMP JUMPDEST PUSH1 0x80 DUP4 ADD SWAP1 POP SWAP3 SWAP2 POP POP JUMP JUMPDEST PUSH1 0x0 PUSH1 0x20 DUP3 ADD SWAP1 POP SWAP2 SWAP1 POP JUMP JUMPDEST PUSH1 0x0 PUSH2 0x2169 DUP3 PUSH2 0x20A9 JUMP JUMPDEST PUSH2 0x2173 DUP2 DUP6 PUSH2 0x20B4 JUMP JUMPDEST SWAP4 POP PUSH2 0x217E DUP4 PUSH2 0x20C5 JUMP JUMPDEST DUP1 PUSH1 0x0 JUMPDEST DUP4 DUP2 LT ISZERO PUSH2 0x21AF JUMPI DUP2 MLOAD PUSH2 0x2196 DUP9 DUP3 PUSH2 0x2139 JUMP JUMPDEST SWAP8 POP PUSH2 0x21A1 DUP4 PUSH2 0x2151 JUMP JUMPDEST SWAP3 POP POP PUSH1 0x1 DUP2 ADD SWAP1 POP PUSH2 0x2182 JUMP JUMPDEST POP DUP6 SWAP4 POP POP POP POP SWAP3 SWAP2 POP POP JUMP JUMPDEST PUSH1 0x0 PUSH1 0x40 DUP4 ADD PUSH1 0x0 DUP4 ADD MLOAD PUSH2 0x21D4 PUSH1 0x0 DUP7 ADD DUP3 PUSH2 0x209A JUMP JUMPDEST POP PUSH1 0x20 DUP4 ADD MLOAD DUP5 DUP3 SUB PUSH1 0x20 DUP7 ADD MSTORE PUSH2 0x21EC DUP3 DUP3 PUSH2 0x215E JUMP JUMPDEST SWAP2 POP POP DUP1 SWAP2 POP POP SWAP3 SWAP2 POP POP JUMP JUMPDEST PUSH1 0x0 PUSH1 0x20 DUP3 ADD SWAP1 POP DUP2 DUP2 SUB PUSH1 0x0 DUP4 ADD MSTORE PUSH2 0x2213 DUP2 DUP5 PUSH2 0x21BC JUMP JUMPDEST SWAP1 POP SWAP3 SWAP2 POP POP JUMP JUMPDEST PUSH32 0x4E487B7100000000000000000000000000000000000000000000000000000000 PUSH1 0x0 MSTORE PUSH1 0x11 PUSH1 0x4 MSTORE PUSH1 0x24 PUSH1 0x0 REVERT JUMPDEST PUSH1 0x0 DUP2 PUSH1 0x1 SHR SWAP1 POP SWAP2 SWAP1 POP JUMP JUMPDEST PUSH1 0x0 DUP1 DUP3 SWAP2 POP DUP4 SWAP1 POP JUMPDEST PUSH1 0x1 DUP6 GT ISZERO PUSH2 0x22A1 JUMPI DUP1 DUP7 DIV DUP2 GT ISZERO PUSH2 0x227D JUMPI PUSH2 0x227C PUSH2 0x221B JUMP JUMPDEST JUMPDEST PUSH1 0x1 DUP6 AND ISZERO PUSH2 0x228C JUMPI DUP1 DUP3 MUL SWAP2 POP JUMPDEST DUP1 DUP2 MUL SWAP1 POP PUSH2 0x229A DUP6 PUSH2 0x224A JUMP JUMPDEST SWAP5 POP PUSH2 0x2261 JUMP JUMPDEST SWAP5 POP SWAP5 SWAP3 POP POP POP JUMP JUMPDEST PUSH1 0x0 DUP3 PUSH2 0x22BA JUMPI PUSH1 0x1 SWAP1 POP PUSH2 0x2376 JUMP JUMPDEST DUP2 PUSH2 0x22C8 JUMPI PUSH1 0x0 SWAP1 POP PUSH2 0x2376 JUMP JUMPDEST DUP2 PUSH1 0x1 DUP2 EQ PUSH2 0x22DE JUMPI PUSH1 0x2 DUP2 EQ PUSH2 0x22E8 JUMPI PUSH2 0x2317 JUMP JUMPDEST PUSH1 0x1 SWAP2 POP POP PUSH2 0x2376 JUMP JUMPDEST PUSH1 0xFF DUP5 GT ISZERO PUSH2 0x22FA JUMPI PUSH2 0x22F9 PUSH2 0x221B JUMP JUMPDEST JUMPDEST DUP4 PUSH1 0x2 EXP SWAP2 POP DUP5 DUP3 GT ISZERO PUSH2 0x2311 JUMPI PUSH2 0x2310 PUSH2 0x221B JUMP JUMPDEST JUMPDEST POP PUSH2 0x2376 JUMP JUMPDEST POP PUSH1 0x20 DUP4 LT PUSH2 0x133 DUP4 LT AND PUSH1 0x4E DUP5 LT PUSH1 0xB DUP5 LT AND OR ISZERO PUSH2 0x234C JUMPI DUP3 DUP3 EXP SWAP1 POP DUP4 DUP2 GT ISZERO PUSH2 0x2347 JUMPI PUSH2 0x2346 PUSH2 0x221B JUMP JUMPDEST JUMPDEST PUSH2 0x2376 JUMP JUMPDEST PUSH2 0x2359 DUP5 DUP5 DUP5 PUSH1 0x1 PUSH2 0x2257 JUMP JUMPDEST SWAP3 POP SWAP1 POP DUP2 DUP5 DIV DUP2 GT ISZERO PUSH2 0x2370 JUMPI PUSH2 0x236F PUSH2 0x221B JUMP JUMPDEST JUMPDEST DUP2 DUP2 MUL SWAP1 POP JUMPDEST SWAP4 SWAP3 POP POP POP JUMP JUMPDEST PUSH1 0x0 PUSH2 0x2388 DUP3 PUSH2 0x1E23 JUMP JUMPDEST SWAP2 POP PUSH2 0x2393 DUP4 PUSH2 0x1E23 JUMP JUMPDEST SWAP3 POP PUSH2 0x23C0 PUSH32 0xFFFFFFFFFFFFFFFFFFFFFFFFFFFFFFFFFFFFFFFFFFFFFFFFFFFFFFFFFFFFFFFF DUP5 DUP5 PUSH2 0x22AA JUMP JUMPDEST SWAP1 POP SWAP3 SWAP2 POP POP JUMP JUMPDEST PUSH1 0x0 PUSH2 0x23D3 DUP3 PUSH2 0x1E23 JUMP JUMPDEST SWAP2 POP PUSH2 0x23DE DUP4 PUSH2 0x1E23 JUMP JUMPDEST SWAP3 POP DUP2 PUSH32 0xFFFFFFFFFFFFFFFFFFFFFFFFFFFFFFFFFFFFFFFFFFFFFFFFFFFFFFFFFFFFFFFF DIV DUP4 GT DUP3 ISZERO ISZERO AND ISZERO PUSH2 0x2417 JUMPI PUSH2 0x2416 PUSH2 0x221B JUMP JUMPDEST JUMPDEST DUP3 DUP3 MUL SWAP1 POP SWAP3 SWAP2 POP POP JUMP JUMPDEST PUSH32 0x4D657472613A20596F752063616E6E6F74207370656E642074686174206D7563 PUSH1 0x0 DUP3 ADD MSTORE PUSH32 0x68206F6E2074686973206163636F756E74000000000000000000000000000000 PUSH1 0x20 DUP3 ADD MSTORE POP JUMP JUMPDEST PUSH1 0x0 PUSH2 0x247E PUSH1 0x31 DUP4 PUSH2 0x1D10 JUMP JUMPDEST SWAP2 POP PUSH2 0x2489 DUP3 PUSH2 0x2422 JUMP JUMPDEST PUSH1 0x40 DUP3 ADD SWAP1 POP SWAP2 SWAP1 POP JUMP JUMPDEST PUSH1 0x0 PUSH1 0x20 DUP3 ADD SWAP1 POP DUP2 DUP2 SUB PUSH1 0x0 DUP4 ADD MSTORE PUSH2 0x24AD DUP2 PUSH2 0x2471 JUMP JUMPDEST SWAP1 POP SWAP2 SWAP1 POP JUMP JUMPDEST PUSH1 0x0 PUSH2 0x24BF DUP3 PUSH2 0x1E23 JUMP JUMPDEST SWAP2 POP PUSH2 0x24CA DUP4 PUSH2 0x1E23 JUMP JUMPDEST SWAP3 POP DUP3 DUP3 LT ISZERO PUSH2 0x24DD JUMPI PUSH2 0x24DC PUSH2 0x221B JUMP JUMPDEST JUMPDEST DUP3 DUP3 SUB SWAP1 POP SWAP3 SWAP2 POP POP JUMP JUMPDEST PUSH1 0x0 PUSH2 0x24F3 DUP3 PUSH2 0x1E23 JUMP JUMPDEST SWAP2 POP PUSH2 0x24FE DUP4 PUSH2 0x1E23 JUMP JUMPDEST SWAP3 POP DUP3 PUSH32 0xFFFFFFFFFFFFFFFFFFFFFFFFFFFFFFFFFFFFFFFFFFFFFFFFFFFFFFFFFFFFFFFF SUB DUP3 GT ISZERO PUSH2 0x2533 JUMPI PUSH2 0x2532 PUSH2 0x221B JUMP JUMPDEST JUMPDEST DUP3 DUP3 ADD SWAP1 POP SWAP3 SWAP2 POP POP JUMP JUMPDEST PUSH32 0x4F776E61626C653A206F6E6C79206F776E65722063616E2063616C6C20746869 PUSH1 0x0 DUP3 ADD MSTORE PUSH32 0x732066756E6374696F6E00000000000000000000000000000000000000000000 PUSH1 0x20 DUP3 ADD MSTORE POP JUMP JUMPDEST PUSH1 0x0 PUSH2 0x259A PUSH1 0x2A DUP4 PUSH2 0x1D10 JUMP JUMPDEST SWAP2 POP PUSH2 0x25A5 DUP3 PUSH2 0x253E JUMP JUMPDEST PUSH1 0x40 DUP3 ADD SWAP1 POP SWAP2 SWAP1 POP JUMP JUMPDEST PUSH1 0x0 PUSH1 0x20 DUP3 ADD SWAP1 POP DUP2 DUP2 SUB PUSH1 0x0 DUP4 ADD MSTORE PUSH2 0x25C9 DUP2 PUSH2 0x258D JUMP JUMPDEST SWAP1 POP SWAP2 SWAP1 POP JUMP JUMPDEST PUSH32 0x4D657472613A2043616E6E6F74207374616B65206D6F7265207468616E20796F PUSH1 0x0 DUP3 ADD MSTORE PUSH32 0x75206F776E000000000000000000000000000000000000000000000000000000 PUSH1 0x20 DUP3 ADD MSTORE POP JUMP JUMPDEST PUSH1 0x0 PUSH2 0x262C PUSH1 0x25 DUP4 PUSH2 0x1D10 JUMP JUMPDEST SWAP2 POP PUSH2 0x2637 DUP3 PUSH2 0x25D0 JUMP JUMPDEST PUSH1 0x40 DUP3 ADD SWAP1 POP SWAP2 SWAP1 POP JUMP JUMPDEST PUSH1 0x0 PUSH1 0x20 DUP3 ADD SWAP1 POP DUP2 DUP2 SUB PUSH1 0x0 DUP4 ADD MSTORE PUSH2 0x265B DUP2 PUSH2 0x261F JUMP JUMPDEST SWAP1 POP SWAP2 SWAP1 POP JUMP JUMPDEST PUSH32 0x4E487B7100000000000000000000000000000000000000000000000000000000 PUSH1 0x0 MSTORE PUSH1 0x32 PUSH1 0x4 MSTORE PUSH1 0x24 PUSH1 0x0 REVERT JUMPDEST PUSH32 0x4D657472613A20617070726F76652063616E6E6F7420626520646F6E65206672 PUSH1 0x0 DUP3 ADD MSTORE PUSH32 0x6F6D207A65726F20616464726573730000000000000000000000000000000000 PUSH1 0x20 DUP3 ADD MSTORE POP JUMP JUMPDEST PUSH1 0x0 PUSH2 0x26ED PUSH1 0x2F DUP4 PUSH2 0x1D10 JUMP JUMPDEST SWAP2 POP PUSH2 0x26F8 DUP3 PUSH2 0x2691 JUMP JUMPDEST PUSH1 0x40 DUP3 ADD SWAP1 POP SWAP2 SWAP1 POP JUMP JUMPDEST PUSH1 0x0 PUSH1 0x20 DUP3 ADD SWAP1 POP DUP2 DUP2 SUB PUSH1 0x0 DUP4 ADD MSTORE PUSH2 0x271C DUP2 PUSH2 0x26E0 JUMP JUMPDEST SWAP1 POP SWAP2 SWAP1 POP JUMP JUMPDEST PUSH32 0x4D657472613A20617070726F76652063616E6E6F7420626520746F207A65726F PUSH1 0x0 DUP3 ADD MSTORE PUSH32 0x2061646472657373000000000000000000000000000000000000000000000000 PUSH1 0x20 DUP3 ADD MSTORE POP JUMP JUMPDEST PUSH1 0x0 PUSH2 0x277F PUSH1 0x28 DUP4 PUSH2 0x1D10 JUMP JUMPDEST SWAP2 POP PUSH2 0x278A DUP3 PUSH2 0x2723 JUMP JUMPDEST PUSH1 0x40 DUP3 ADD SWAP1 POP SWAP2 SWAP1 POP JUMP JUMPDEST PUSH1 0x0 PUSH1 0x20 DUP3 ADD SWAP1 POP DUP2 DUP2 SUB PUSH1 0x0 DUP4 ADD MSTORE PUSH2 0x27AE DUP2 PUSH2 0x2772 JUMP JUMPDEST SWAP1 POP SWAP2 SWAP1 POP JUMP JUMPDEST PUSH32 0x4D657472613A207472616E736665722066726F6D207A65726F20616464726573 PUSH1 0x0 DUP3 ADD MSTORE PUSH32 0x7300000000000000000000000000000000000000000000000000000000000000 PUSH1 0x20 DUP3 ADD MSTORE POP JUMP JUMPDEST PUSH1 0x0 PUSH2 0x2811 PUSH1 0x21 DUP4 PUSH2 0x1D10 JUMP JUMPDEST SWAP2 POP PUSH2 0x281C DUP3 PUSH2 0x27B5 JUMP JUMPDEST PUSH1 0x40 DUP3 ADD SWAP1 POP SWAP2 SWAP1 POP JUMP JUMPDEST PUSH1 0x0 PUSH1 0x20 DUP3 ADD SWAP1 POP DUP2 DUP2 SUB PUSH1 0x0 DUP4 ADD MSTORE PUSH2 0x2840 DUP2 PUSH2 0x2804 JUMP JUMPDEST SWAP1 POP SWAP2 SWAP1 POP JUMP JUMPDEST PUSH32 0x4D657472613A207472616E7366657220746F207A65726F206164647265737300 PUSH1 0x0 DUP3 ADD MSTORE POP JUMP JUMPDEST PUSH1 0x0 PUSH2 0x287D PUSH1 0x1F DUP4 PUSH2 0x1D10 JUMP JUMPDEST SWAP2 POP PUSH2 0x2888 DUP3 PUSH2 0x2847 JUMP JUMPDEST PUSH1 0x20 DUP3 ADD SWAP1 POP SWAP2 SWAP1 POP JUMP JUMPDEST PUSH1 0x0 PUSH1 0x20 DUP3 ADD SWAP1 POP DUP2 DUP2 SUB PUSH1 0x0 DUP4 ADD MSTORE PUSH2 0x28AC DUP2 PUSH2 0x2870 JUMP JUMPDEST SWAP1 POP SWAP2 SWAP1 POP JUMP JUMPDEST PUSH32 0x4D657472613A2063616E74207472616E73666572206D6F7265207468616E2079 PUSH1 0x0 DUP3 ADD MSTORE PUSH32 0x6F7572206163636F756E7420686F6C6473000000000000000000000000000000 PUSH1 0x20 DUP3 ADD MSTORE POP JUMP JUMPDEST PUSH1 0x0 PUSH2 0x290F PUSH1 0x31 DUP4 PUSH2 0x1D10 JUMP JUMPDEST SWAP2 POP PUSH2 0x291A DUP3 PUSH2 0x28B3 JUMP JUMPDEST PUSH1 0x40 DUP3 ADD SWAP1 POP SWAP2 SWAP1 POP JUMP JUMPDEST PUSH1 0x0 PUSH1 0x20 DUP3 ADD SWAP1 POP DUP2 DUP2 SUB PUSH1 0x0 DUP4 ADD MSTORE PUSH2 0x293E DUP2 PUSH2 0x2902 JUMP JUMPDEST SWAP1 POP SWAP2 SWAP1 POP JUMP JUMPDEST PUSH32 0x5374616B696E673A2043616E6E6F74207769746864726177206D6F7265207468 PUSH1 0x0 DUP3 ADD MSTORE PUSH32 0x616E20796F752068617665207374616B65640000000000000000000000000000 PUSH1 0x20 DUP3 ADD MSTORE POP JUMP JUMPDEST PUSH1 0x0 PUSH2 0x29A1 PUSH1 0x32 DUP4 PUSH2 0x1D10 JUMP JUMPDEST SWAP2 POP PUSH2 0x29AC DUP3 PUSH2 0x2945 JUMP JUMPDEST PUSH1 0x40 DUP3 ADD SWAP1 POP SWAP2 SWAP1 POP JUMP JUMPDEST PUSH1 0x0 PUSH1 0x20 DUP3 ADD SWAP1 POP DUP2 DUP2 SUB PUSH1 0x0 DUP4 ADD MSTORE PUSH2 0x29D0 DUP2 PUSH2 0x2994 JUMP JUMPDEST SWAP1 POP SWAP2 SWAP1 POP JUMP JUMPDEST PUSH32 0x4D657472613A2063616E6E6F74206D696E7420746F207A65726F206164647265 PUSH1 0x0 DUP3 ADD MSTORE PUSH32 0x7373000000000000000000000000000000000000000000000000000000000000 PUSH1 0x20 DUP3 ADD MSTORE POP JUMP JUMPDEST PUSH1 0x0 PUSH2 0x2A33 PUSH1 0x22 DUP4 PUSH2 0x1D10 JUMP JUMPDEST SWAP2 POP PUSH2 0x2A3E DUP3 PUSH2 0x29D7 JUMP JUMPDEST PUSH1 0x40 DUP3 ADD SWAP1 POP SWAP2 SWAP1 POP JUMP JUMPDEST PUSH1 0x0 PUSH1 0x20 DUP3 ADD SWAP1 POP DUP2 DUP2 SUB PUSH1 0x0 DUP4 ADD MSTORE PUSH2 0x2A62 DUP2 PUSH2 0x2A26 JUMP JUMPDEST SWAP1 POP SWAP2 SWAP1 POP JUMP JUMPDEST PUSH32 0x4D657472613A2063616E6E6F74206275726E2066726F6D207A65726F20616464 PUSH1 0x0 DUP3 ADD MSTORE PUSH32 0x7265737300000000000000000000000000000000000000000000000000000000 PUSH1 0x20 DUP3 ADD MSTORE POP JUMP JUMPDEST PUSH1 0x0 PUSH2 0x2AC5 PUSH1 0x24 DUP4 PUSH2 0x1D10 JUMP JUMPDEST SWAP2 POP PUSH2 0x2AD0 DUP3 PUSH2 0x2A69 JUMP JUMPDEST PUSH1 0x40 DUP3 ADD SWAP1 POP SWAP2 SWAP1 POP JUMP JUMPDEST PUSH1 0x0 PUSH1 0x20 DUP3 ADD SWAP1 POP DUP2 DUP2 SUB PUSH1 0x0 DUP4 ADD MSTORE PUSH2 0x2AF4 DUP2 PUSH2 0x2AB8 JUMP JUMPDEST SWAP1 POP SWAP2 SWAP1 POP JUMP JUMPDEST PUSH32 0x4D657472613A2043616E6E6F74206275726E206D6F7265207468616E20746865 PUSH1 0x0 DUP3 ADD MSTORE PUSH32 0x206163636F756E74206F776E7300000000000000000000000000000000000000 PUSH1 0x20 DUP3 ADD MSTORE POP JUMP JUMPDEST PUSH1 0x0 PUSH2 0x2B57 PUSH1 0x2D DUP4 PUSH2 0x1D10 JUMP JUMPDEST SWAP2 POP PUSH2 0x2B62 DUP3 PUSH2 0x2AFB JUMP JUMPDEST PUSH1 0x40 DUP3 ADD SWAP1 POP SWAP2 SWAP1 POP JUMP JUMPDEST PUSH1 0x0 PUSH1 0x20 DUP3 ADD SWAP1 POP DUP2 DUP2 SUB PUSH1 0x0 DUP4 ADD MSTORE PUSH2 0x2B86 DUP2 PUSH2 0x2B4A JUMP JUMPDEST SWAP1 POP SWAP2 SWAP1 POP JUMP JUMPDEST PUSH32 0x43616E6E6F74207374616B65206E6F7468696E67000000000000000000000000 PUSH1 0x0 DUP3 ADD MSTORE POP JUMP JUMPDEST PUSH1 0x0 PUSH2 0x2BC3 PUSH1 0x14 DUP4 PUSH2 0x1D10 JUMP JUMPDEST SWAP2 POP PUSH2 0x2BCE DUP3 PUSH2 0x2B8D JUMP JUMPDEST PUSH1 0x20 DUP3 ADD SWAP1 POP SWAP2 SWAP1 POP JUMP JUMPDEST PUSH1 0x0 PUSH1 0x20 DUP3 ADD SWAP1 POP DUP2 DUP2 SUB PUSH1 0x0 DUP4 ADD MSTORE PUSH2 0x2BF2 DUP2 PUSH2 0x2BB6 JUMP JUMPDEST SWAP1 POP SWAP2 SWAP1 POP JUMP JUMPDEST PUSH1 0x0 PUSH1 0x60 DUP3 ADD SWAP1 POP PUSH2 0x2C0E PUSH1 0x0 DUP4 ADD DUP7 PUSH2 0x1ECF JUMP JUMPDEST PUSH2 0x2C1B PUSH1 0x20 DUP4 ADD DUP6 PUSH2 0x1ECF JUMP JUMPDEST PUSH2 0x2C28 PUSH1 0x40 DUP4 ADD DUP5 PUSH2 0x1ECF JUMP JUMPDEST SWAP5 SWAP4 POP POP POP POP JUMP JUMPDEST PUSH32 0x4E487B7100000000000000000000000000000000000000000000000000000000 PUSH1 0x0 MSTORE PUSH1 0x12 PUSH1 0x4 MSTORE PUSH1 0x24 PUSH1 0x0 REVERT JUMPDEST PUSH1 0x0 PUSH2 0x2C6A DUP3 PUSH2 0x1E23 JUMP JUMPDEST SWAP2 POP PUSH2 0x2C75 DUP4 PUSH2 0x1E23 JUMP JUMPDEST SWAP3 POP DUP3 PUSH2 0x2C85 JUMPI PUSH2 0x2C84 PUSH2 0x2C30 JUMP JUMPDEST JUMPDEST DUP3 DUP3 DIV SWAP1 POP SWAP3 SWAP2 POP POP JUMP JUMPDEST PUSH32 0x4F776E61626C653A206E6577206F776E657220697320746865207A65726F2061 PUSH1 0x0 DUP3 ADD MSTORE PUSH32 0x6464726573730000000000000000000000000000000000000000000000000000 PUSH1 0x20 DUP3 ADD MSTORE POP JUMP JUMPDEST PUSH1 0x0 PUSH2 0x2CEC PUSH1 0x26 DUP4 PUSH2 0x1D10 JUMP JUMPDEST SWAP2 POP PUSH2 0x2CF7 DUP3 PUSH2 0x2C90 JUMP JUMPDEST PUSH1 0x40 DUP3 ADD SWAP1 POP SWAP2 SWAP1 POP JUMP JUMPDEST PUSH1 0x0 PUSH1 0x20 DUP3 ADD SWAP1 POP DUP2 DUP2 SUB PUSH1 0x0 DUP4 ADD MSTORE PUSH2 0x2D1B DUP2 PUSH2 0x2CDF JUMP JUMPDEST SWAP1 POP SWAP2 SWAP1 POP JUMP INVALID LOG2 PUSH5 0x6970667358 0x22 SLT KECCAK256 PUSH2 0x7A1E 0x21 SWAP2 0xD7 PUSH3 0xFE5E17 0x1F PUSH29 0x8EFD36FC8268CB879B7843510EE6C21C52C4F60F64736F6C634300080F STOP CALLER "
				},
				"gasEstimates": {
					"creation": {
						"codeDepositCost": "2321600",
						"executionCost": "infinite",
						"totalCost": "infinite"
					},
					"external": {
						"allowance(address,address)": "infinite",
						"approve(address,uint256)": "infinite",
						"balanceOf(address)": "2930",
						"burn(address,uint256)": "infinite",
						"decimals()": "388",
						"decreaseAllowance(address,uint256)": "infinite",
						"getOwner()": "2580",
						"hasStake(address)": "infinite",
						"increaseAllowance(address,uint256)": "infinite",
						"name()": "infinite",
						"owner()": "2567",
						"renounceOwnership()": "30367",
						"stake(uint256)": "infinite",
						"symbol()": "infinite",
						"totalSupply()": "infinite",
						"transfer(address,uint256)": "infinite",
						"transferFrom(address,address,uint256)": "infinite",
						"transferOwnership(address)": "30741",
						"withdrawStake(uint256,uint256,uint256)": "infinite"
					},
					"internal": {
						"_approve(address,address,uint256)": "infinite",
						"_burn(address,uint256)": "infinite",
						"_mint(address,uint256)": "infinite",
						"_transfer(address,address,uint256)": "infinite"
					}
				},
				"methodIdentifiers": {
					"allowance(address,address)": "dd62ed3e",
					"approve(address,uint256)": "095ea7b3",
					"balanceOf(address)": "70a08231",
					"burn(address,uint256)": "9dc29fac",
					"decimals()": "313ce567",
					"decreaseAllowance(address,uint256)": "a457c2d7",
					"getOwner()": "893d20e8",
					"hasStake(address)": "e73e14bf",
					"increaseAllowance(address,uint256)": "39509351",
					"name()": "06fdde03",
					"owner()": "8da5cb5b",
					"renounceOwnership()": "715018a6",
					"stake(uint256)": "a694fc3a",
					"symbol()": "95d89b41",
					"totalSupply()": "18160ddd",
					"transfer(address,uint256)": "a9059cbb",
					"transferFrom(address,address,uint256)": "23b872dd",
					"transferOwnership(address)": "f2fde38b",
					"withdrawStake(uint256,uint256,uint256)": "279f9b11"
				}
			},
			"storageLayout": {
				"storage": [
					{
						"astId": 589,
						"contract": "contracts/MetraToken.sol:Metra",
						"label": "_owner",
						"offset": 0,
						"slot": "0",
						"type": "t_address"
					},
					{
						"astId": 738,
						"contract": "contracts/MetraToken.sol:Metra",
						"label": "stakeholders",
						"offset": 0,
						"slot": "1",
						"type": "t_array(t_struct(Stakeholder)726_storage)dyn_storage"
					},
					{
						"astId": 743,
						"contract": "contracts/MetraToken.sol:Metra",
						"label": "stakes",
						"offset": 0,
						"slot": "2",
						"type": "t_mapping(t_address,t_uint256)"
					},
					{
						"astId": 758,
						"contract": "contracts/MetraToken.sol:Metra",
						"label": "rewardPerHour",
						"offset": 0,
						"slot": "3",
						"type": "t_uint256"
					},
					{
						"astId": 11,
						"contract": "contracts/MetraToken.sol:Metra",
						"label": "_totalSupply",
						"offset": 0,
						"slot": "4",
						"type": "t_uint256"
					},
					{
						"astId": 13,
						"contract": "contracts/MetraToken.sol:Metra",
						"label": "_decimals",
						"offset": 0,
						"slot": "5",
						"type": "t_uint8"
					},
					{
						"astId": 15,
						"contract": "contracts/MetraToken.sol:Metra",
						"label": "_symbol",
						"offset": 0,
						"slot": "6",
						"type": "t_string_storage"
					},
					{
						"astId": 17,
						"contract": "contracts/MetraToken.sol:Metra",
						"label": "_name",
						"offset": 0,
						"slot": "7",
						"type": "t_string_storage"
					},
					{
						"astId": 25,
						"contract": "contracts/MetraToken.sol:Metra",
						"label": "_balances",
						"offset": 0,
						"slot": "8",
						"type": "t_mapping(t_address,t_uint256)"
					},
					{
						"astId": 32,
						"contract": "contracts/MetraToken.sol:Metra",
						"label": "_allowances",
						"offset": 0,
						"slot": "9",
						"type": "t_mapping(t_address,t_mapping(t_address,t_uint256))"
					}
				],
				"types": {
					"t_address": {
						"encoding": "inplace",
						"label": "address",
						"numberOfBytes": "20"
					},
					"t_array(t_struct(Stake)719_storage)dyn_storage": {
						"base": "t_struct(Stake)719_storage",
						"encoding": "dynamic_array",
						"label": "struct Stakeable.Stake[]",
						"numberOfBytes": "32"
					},
					"t_array(t_struct(Stakeholder)726_storage)dyn_storage": {
						"base": "t_struct(Stakeholder)726_storage",
						"encoding": "dynamic_array",
						"label": "struct Stakeable.Stakeholder[]",
						"numberOfBytes": "32"
					},
					"t_mapping(t_address,t_mapping(t_address,t_uint256))": {
						"encoding": "mapping",
						"key": "t_address",
						"label": "mapping(address => mapping(address => uint256))",
						"numberOfBytes": "32",
						"value": "t_mapping(t_address,t_uint256)"
					},
					"t_mapping(t_address,t_uint256)": {
						"encoding": "mapping",
						"key": "t_address",
						"label": "mapping(address => uint256)",
						"numberOfBytes": "32",
						"value": "t_uint256"
					},
					"t_string_storage": {
						"encoding": "bytes",
						"label": "string",
						"numberOfBytes": "32"
					},
					"t_struct(Stake)719_storage": {
						"encoding": "inplace",
						"label": "struct Stakeable.Stake",
						"members": [
							{
								"astId": 712,
								"contract": "contracts/MetraToken.sol:Metra",
								"label": "user",
								"offset": 0,
								"slot": "0",
								"type": "t_address"
							},
							{
								"astId": 714,
								"contract": "contracts/MetraToken.sol:Metra",
								"label": "amount",
								"offset": 0,
								"slot": "1",
								"type": "t_uint256"
							},
							{
								"astId": 716,
								"contract": "contracts/MetraToken.sol:Metra",
								"label": "since",
								"offset": 0,
								"slot": "2",
								"type": "t_uint256"
							},
							{
								"astId": 718,
								"contract": "contracts/MetraToken.sol:Metra",
								"label": "claimable",
								"offset": 0,
								"slot": "3",
								"type": "t_uint256"
							}
						],
						"numberOfBytes": "128"
					},
					"t_struct(Stakeholder)726_storage": {
						"encoding": "inplace",
						"label": "struct Stakeable.Stakeholder",
						"members": [
							{
								"astId": 721,
								"contract": "contracts/MetraToken.sol:Metra",
								"label": "user",
								"offset": 0,
								"slot": "0",
								"type": "t_address"
							},
							{
								"astId": 725,
								"contract": "contracts/MetraToken.sol:Metra",
								"label": "address_stakes",
								"offset": 0,
								"slot": "1",
								"type": "t_array(t_struct(Stake)719_storage)dyn_storage"
							}
						],
						"numberOfBytes": "64"
					},
					"t_uint256": {
						"encoding": "inplace",
						"label": "uint256",
						"numberOfBytes": "32"
					},
					"t_uint8": {
						"encoding": "inplace",
						"label": "uint8",
						"numberOfBytes": "1"
					}
				}
			},
			"userdoc": {
				"events": {
					"Approval(address,address,uint256)": {
						"notice": "Approval is emitted when a new Spender is approved to spend Tokens on the Owners account"
					},
					"OwnershipTransferred(address,address)": {
						"notice": "Event OwnershipTransferred is used to log that a ownership change of the token has occured"
					},
					"Staked(address,uint256,uint256,uint256)": {
						"notice": "Staked event is triggered whenever a user stakes tokens, address is indexed to make it filterable"
					},
					"Transfer(address,address,uint256)": {
						"notice": "Events are created below. Transfer event is a event that notify the blockchain that a transfer of assets has taken place"
					}
				},
				"kind": "user",
				"methods": {
					"allowance(address,address)": {
						"notice": "allowance is used view how much allowance an spender has"
					},
					"approve(address,uint256)": {
						"notice": "approve will use the senders address and allow the spender to use X amount of tokens on his behalf"
					},
					"balanceOf(address)": {
						"notice": "balanceOf will return the account balance for the given account"
					},
					"burn(address,uint256)": {
						"notice": "burn is used to destroy tokens on an address  See {_burn} Requires   - msg.sender must be the token owner"
					},
					"constructor": {
						"notice": "constructor will be triggered when we create the Smart contract _name = name of the token _short_symbol = Short Symbol name for the token token_decimals = The decimal precision of the Token, defaults 18 _totalSupply is how much Tokens there are totally "
					},
					"decreaseAllowance(address,uint256)": {
						"notice": "decreaseAllowance Decrease the allowance on the account inputted from the caller address"
					},
					"getOwner()": {
						"notice": "getOwner just calls Ownables owner function.  returns owner of the token "
					},
					"hasStake(address)": {
						"notice": "hasStake is used to check if a account has stakes and the total amount along with all the seperate stakes"
					},
					"increaseAllowance(address,uint256)": {
						"notice": "increaseAllowance Adds allowance to a account from the function caller address"
					},
					"name()": {
						"notice": "decimals will return the number of decimal precision the Token is deployed with"
					},
					"owner()": {
						"notice": "owner() returns the currently assigned owner of the Token "
					},
					"renounceOwnership()": {
						"notice": "renounceOwnership will set the owner to zero address This will make the contract owner less, It will make ALL functions with onlyOwner no longer callable. There is no way of restoring the owner"
					},
					"stake(uint256)": {
						"notice": "Add functionality like burn to the _stake afunction"
					},
					"transfer(address,uint256)": {
						"notice": "transfer is used to transfer funds from the sender to the recipient This function is only callable from outside the contract. For internal usage see  _transfer Requires - Caller cannot be zero - Caller must have a balance = or bigger than amount"
					},
					"transferFrom(address,address,uint256)": {
						"notice": "transferFrom is uesd to transfer Tokens from a Accounts allowance Spender address should be the token holder Requires   - The caller must have a allowance = or bigger than the amount spending"
					},
					"transferOwnership(address)": {
						"notice": "transferOwnership will assign the {newOwner} as owner"
					},
					"withdrawStake(uint256,uint256,uint256)": {
						"notice": "withdrawStake is used to withdraw stakes from the account holder"
					}
				},
				"notice": "Metra Token Contract Code",
				"version": 1
			}
		}
	}
}