{
	"contracts/Stakeable.sol": {
		"Stakeable": {
			"abi": [
				{
					"inputs": [],
					"stateMutability": "nonpayable",
					"type": "constructor"
				},
				{
					"anonymous": false,
					"inputs": [
						{
							"indexed": true,
							"internalType": "address",
							"name": "user",
							"type": "address"
						},
						{
							"indexed": false,
							"internalType": "uint256",
							"name": "amount",
							"type": "uint256"
						},
						{
							"indexed": false,
							"internalType": "uint256",
							"name": "index",
							"type": "uint256"
						},
						{
							"indexed": false,
							"internalType": "uint256",
							"name": "timestamp",
							"type": "uint256"
						}
					],
					"name": "Staked",
					"type": "event"
				},
				{
					"inputs": [
						{
							"internalType": "address",
							"name": "_staker",
							"type": "address"
						}
					],
					"name": "hasStake",
					"outputs": [
						{
							"components": [
								{
									"internalType": "uint256",
									"name": "total_amount",
									"type": "uint256"
								},
								{
									"components": [
										{
											"internalType": "address",
											"name": "user",
											"type": "address"
										},
										{
											"internalType": "uint256",
											"name": "amount",
											"type": "uint256"
										},
										{
											"internalType": "uint256",
											"name": "since",
											"type": "uint256"
										},
										{
											"internalType": "uint256",
											"name": "claimable",
											"type": "uint256"
										}
									],
									"internalType": "struct Stakeable.Stake[]",
									"name": "stakes",
									"type": "tuple[]"
								}
							],
							"internalType": "struct Stakeable.StakingSummary",
							"name": "",
							"type": "tuple"
						}
					],
					"stateMutability": "view",
					"type": "function"
				}
			],
			"devdoc": {
				"kind": "dev",
				"methods": {},
				"version": 1
			},
			"evm": {
				"assembly": "    /* \"contracts/Stakeable.sol\":176:7730  contract Stakeable {... */\n  mstore(0x40, 0x80)\n    /* \"contracts/Stakeable.sol\":2222:2231  100000000 */\n  0x05f5e100\n    /* \"contracts/Stakeable.sol\":2189:2231  uint256 internal rewardPerHour = 100000000 */\n  0x02\n  sstore\n    /* \"contracts/Stakeable.sol\":365:489  constructor() {... */\n  callvalue\n  dup1\n  iszero\n  tag_1\n  jumpi\n  0x00\n  dup1\n  revert\ntag_1:\n  pop\n    /* \"contracts/Stakeable.sol\":463:475  stakeholders */\n  0x00\n    /* \"contracts/Stakeable.sol\":463:482  stakeholders.push() */\n  0x01\n  dup2\n  0x01\n  dup2\n  sload\n  add\n  dup1\n  dup3\n  sstore\n  dup1\n  swap2\n  pop\n  pop\n  sub\n  swap1\n  0x00\n  mstore\n  keccak256(0x00, 0x20)\n  swap1\n  pop\n  pop\n    /* \"contracts/Stakeable.sol\":176:7730  contract Stakeable {... */\n  dataSize(sub_0)\n  dup1\n  dataOffset(sub_0)\n  0x00\n  codecopy\n  0x00\n  return\nstop\n\nsub_0: assembly {\n        /* \"contracts/Stakeable.sol\":176:7730  contract Stakeable {... */\n      mstore(0x40, 0x80)\n      callvalue\n      dup1\n      iszero\n      tag_1\n      jumpi\n      0x00\n      dup1\n      revert\n    tag_1:\n      pop\n      jumpi(tag_2, lt(calldatasize, 0x04))\n      shr(0xe0, calldataload(0x00))\n      dup1\n      0xe73e14bf\n      eq\n      tag_3\n      jumpi\n    tag_2:\n      0x00\n      dup1\n      revert\n        /* \"contracts/Stakeable.sol\":6899:7727  function hasStake(address _staker) public view returns(StakingSummary memory){... */\n    tag_3:\n      tag_4\n      0x04\n      dup1\n      calldatasize\n      sub\n      dup2\n      add\n      swap1\n      tag_5\n      swap2\n      swap1\n      tag_6\n      jump\t// in\n    tag_5:\n      tag_7\n      jump\t// in\n    tag_4:\n      mload(0x40)\n      tag_8\n      swap2\n      swap1\n      tag_9\n      jump\t// in\n    tag_8:\n      mload(0x40)\n      dup1\n      swap2\n      sub\n      swap1\n      return\n    tag_7:\n        /* \"contracts/Stakeable.sol\":6954:6975  StakingSummary memory */\n      tag_10\n      tag_11\n      jump\t// in\n    tag_10:\n        /* \"contracts/Stakeable.sol\":7066:7090  uint256 totalStakeAmount */\n      0x00\n        /* \"contracts/Stakeable.sol\":7169:7198  StakingSummary memory summary */\n      dup1\n        /* \"contracts/Stakeable.sol\":7201:7264  StakingSummary(0, stakeholders[stakes[_staker]].address_stakes) */\n      mload(0x40)\n      dup1\n      0x40\n      add\n      0x40\n      mstore\n      dup1\n        /* \"contracts/Stakeable.sol\":7216:7217  0 */\n      0x00\n        /* \"contracts/Stakeable.sol\":7201:7264  StakingSummary(0, stakeholders[stakes[_staker]].address_stakes) */\n      dup2\n      mstore\n      0x20\n      add\n        /* \"contracts/Stakeable.sol\":7219:7231  stakeholders */\n      0x00\n        /* \"contracts/Stakeable.sol\":7232:7238  stakes */\n      0x01\n        /* \"contracts/Stakeable.sol\":7232:7247  stakes[_staker] */\n      0x00\n        /* \"contracts/Stakeable.sol\":7239:7246  _staker */\n      dup9\n        /* \"contracts/Stakeable.sol\":7232:7247  stakes[_staker] */\n      0xffffffffffffffffffffffffffffffffffffffff\n      and\n      0xffffffffffffffffffffffffffffffffffffffff\n      and\n      dup2\n      mstore\n      0x20\n      add\n      swap1\n      dup2\n      mstore\n      0x20\n      add\n      0x00\n      keccak256\n      sload\n        /* \"contracts/Stakeable.sol\":7219:7248  stakeholders[stakes[_staker]] */\n      dup2\n      sload\n      dup2\n      lt\n      tag_13\n      jumpi\n      tag_14\n      tag_15\n      jump\t// in\n    tag_14:\n    tag_13:\n      swap1\n      0x00\n      mstore\n      keccak256(0x00, 0x20)\n      swap1\n      0x02\n      mul\n      add\n        /* \"contracts/Stakeable.sol\":7219:7263  stakeholders[stakes[_staker]].address_stakes */\n      0x01\n      add\n        /* \"contracts/Stakeable.sol\":7201:7264  StakingSummary(0, stakeholders[stakes[_staker]].address_stakes) */\n      dup1\n      sload\n      dup1\n      0x20\n      mul\n      0x20\n      add\n      mload(0x40)\n      swap1\n      dup2\n      add\n      0x40\n      mstore\n      dup1\n      swap3\n      swap2\n      swap1\n      dup2\n      dup2\n      mstore\n      0x20\n      add\n      0x00\n      swap1\n    tag_17:\n      dup3\n      dup3\n      lt\n      iszero\n      tag_18\n      jumpi\n      dup4\n      dup3\n      swap1\n      0x00\n      mstore\n      keccak256(0x00, 0x20)\n      swap1\n      0x04\n      mul\n      add\n      mload(0x40)\n      dup1\n      0x80\n      add\n      0x40\n      mstore\n      swap1\n      dup2\n      0x00\n      dup3\n      add\n      0x00\n      swap1\n      sload\n      swap1\n      0x0100\n      exp\n      swap1\n      div\n      0xffffffffffffffffffffffffffffffffffffffff\n      and\n      0xffffffffffffffffffffffffffffffffffffffff\n      and\n      0xffffffffffffffffffffffffffffffffffffffff\n      and\n      dup2\n      mstore\n      0x20\n      add\n      0x01\n      dup3\n      add\n      sload\n      dup2\n      mstore\n      0x20\n      add\n      0x02\n      dup3\n      add\n      sload\n      dup2\n      mstore\n      0x20\n      add\n      0x03\n      dup3\n      add\n      sload\n      dup2\n      mstore\n      pop\n      pop\n      dup2\n      mstore\n      0x20\n      add\n      swap1\n      0x01\n      add\n      swap1\n      jump(tag_17)\n    tag_18:\n      pop\n      pop\n      pop\n      pop\n      dup2\n      mstore\n      pop\n        /* \"contracts/Stakeable.sol\":7169:7264  StakingSummary memory summary = StakingSummary(0, stakeholders[stakes[_staker]].address_stakes) */\n      swap1\n      pop\n        /* \"contracts/Stakeable.sol\":7336:7345  uint256 s */\n      0x00\n        /* \"contracts/Stakeable.sol\":7331:7604  for (uint256 s = 0; s < summary.stakes.length; s += 1){... */\n    tag_20:\n        /* \"contracts/Stakeable.sol\":7355:7362  summary */\n      dup2\n        /* \"contracts/Stakeable.sol\":7355:7369  summary.stakes */\n      0x20\n      add\n      mload\n        /* \"contracts/Stakeable.sol\":7355:7376  summary.stakes.length */\n      mload\n        /* \"contracts/Stakeable.sol\":7351:7352  s */\n      dup2\n        /* \"contracts/Stakeable.sol\":7351:7376  s < summary.stakes.length */\n      lt\n        /* \"contracts/Stakeable.sol\":7331:7604  for (uint256 s = 0; s < summary.stakes.length; s += 1){... */\n      iszero\n      tag_21\n      jumpi\n        /* \"contracts/Stakeable.sol\":7398:7421  uint256 availableReward */\n      0x00\n        /* \"contracts/Stakeable.sol\":7424:7463  calculateStakeReward(summary.stakes[s]) */\n      tag_23\n        /* \"contracts/Stakeable.sol\":7445:7452  summary */\n      dup4\n        /* \"contracts/Stakeable.sol\":7445:7459  summary.stakes */\n      0x20\n      add\n      mload\n        /* \"contracts/Stakeable.sol\":7460:7461  s */\n      dup4\n        /* \"contracts/Stakeable.sol\":7445:7462  summary.stakes[s] */\n      dup2\n      mload\n      dup2\n      lt\n      tag_24\n      jumpi\n      tag_25\n      tag_15\n      jump\t// in\n    tag_25:\n    tag_24:\n      0x20\n      mul\n      0x20\n      add\n      add\n      mload\n        /* \"contracts/Stakeable.sol\":7424:7444  calculateStakeReward */\n      tag_26\n        /* \"contracts/Stakeable.sol\":7424:7463  calculateStakeReward(summary.stakes[s]) */\n      jump\t// in\n    tag_23:\n        /* \"contracts/Stakeable.sol\":7398:7463  uint256 availableReward = calculateStakeReward(summary.stakes[s]) */\n      swap1\n      pop\n        /* \"contracts/Stakeable.sol\":7506:7521  availableReward */\n      dup1\n        /* \"contracts/Stakeable.sol\":7476:7483  summary */\n      dup4\n        /* \"contracts/Stakeable.sol\":7476:7490  summary.stakes */\n      0x20\n      add\n      mload\n        /* \"contracts/Stakeable.sol\":7491:7492  s */\n      dup4\n        /* \"contracts/Stakeable.sol\":7476:7493  summary.stakes[s] */\n      dup2\n      mload\n      dup2\n      lt\n      tag_27\n      jumpi\n      tag_28\n      tag_15\n      jump\t// in\n    tag_28:\n    tag_27:\n      0x20\n      mul\n      0x20\n      add\n      add\n      mload\n        /* \"contracts/Stakeable.sol\":7476:7503  summary.stakes[s].claimable */\n      0x60\n      add\n        /* \"contracts/Stakeable.sol\":7476:7521  summary.stakes[s].claimable = availableReward */\n      dup2\n      dup2\n      mstore\n      pop\n      pop\n        /* \"contracts/Stakeable.sol\":7570:7577  summary */\n      dup3\n        /* \"contracts/Stakeable.sol\":7570:7584  summary.stakes */\n      0x20\n      add\n      mload\n        /* \"contracts/Stakeable.sol\":7585:7586  s */\n      dup3\n        /* \"contracts/Stakeable.sol\":7570:7587  summary.stakes[s] */\n      dup2\n      mload\n      dup2\n      lt\n      tag_29\n      jumpi\n      tag_30\n      tag_15\n      jump\t// in\n    tag_30:\n    tag_29:\n      0x20\n      mul\n      0x20\n      add\n      add\n      mload\n        /* \"contracts/Stakeable.sol\":7570:7594  summary.stakes[s].amount */\n      0x20\n      add\n      mload\n        /* \"contracts/Stakeable.sol\":7553:7569  totalStakeAmount */\n      dup5\n        /* \"contracts/Stakeable.sol\":7553:7594  totalStakeAmount+summary.stakes[s].amount */\n      tag_31\n      swap2\n      swap1\n      tag_32\n      jump\t// in\n    tag_31:\n        /* \"contracts/Stakeable.sol\":7534:7594  totalStakeAmount = totalStakeAmount+summary.stakes[s].amount */\n      swap4\n      pop\n        /* \"contracts/Stakeable.sol\":7385:7604  {... */\n      pop\n        /* \"contracts/Stakeable.sol\":7383:7384  1 */\n      0x01\n        /* \"contracts/Stakeable.sol\":7378:7384  s += 1 */\n      dup2\n      tag_33\n      swap2\n      swap1\n      tag_32\n      jump\t// in\n    tag_33:\n      swap1\n      pop\n        /* \"contracts/Stakeable.sol\":7331:7604  for (uint256 s = 0; s < summary.stakes.length; s += 1){... */\n      jump(tag_20)\n    tag_21:\n      pop\n        /* \"contracts/Stakeable.sol\":7680:7696  totalStakeAmount */\n      dup2\n        /* \"contracts/Stakeable.sol\":7657:7664  summary */\n      dup2\n        /* \"contracts/Stakeable.sol\":7657:7677  summary.total_amount */\n      0x00\n      add\n        /* \"contracts/Stakeable.sol\":7657:7696  summary.total_amount = totalStakeAmount */\n      dup2\n      dup2\n      mstore\n      pop\n      pop\n        /* \"contracts/Stakeable.sol\":7713:7720  summary */\n      dup1\n        /* \"contracts/Stakeable.sol\":7706:7720  return summary */\n      swap3\n      pop\n      pop\n      pop\n        /* \"contracts/Stakeable.sol\":6899:7727  function hasStake(address _staker) public view returns(StakingSummary memory){... */\n      swap2\n      swap1\n      pop\n      jump\t// out\n        /* \"contracts/Stakeable.sol\":4426:5230  function calculateStakeReward(Stake memory _current_stake) internal view returns(uint256){... */\n    tag_26:\n        /* \"contracts/Stakeable.sol\":4507:4514  uint256 */\n      0x00\n        /* \"contracts/Stakeable.sol\":5208:5221  rewardPerHour */\n      sload(0x02)\n        /* \"contracts/Stakeable.sol\":5183:5197  _current_stake */\n      dup3\n        /* \"contracts/Stakeable.sol\":5183:5204  _current_stake.amount */\n      0x20\n      add\n      mload\n        /* \"contracts/Stakeable.sol\":5172:5179  1 hours */\n      0x0e10\n        /* \"contracts/Stakeable.sol\":5148:5162  _current_stake */\n      dup5\n        /* \"contracts/Stakeable.sol\":5148:5168  _current_stake.since */\n      0x40\n      add\n      mload\n        /* \"contracts/Stakeable.sol\":5130:5145  block.timestamp */\n      timestamp\n        /* \"contracts/Stakeable.sol\":5130:5168  block.timestamp - _current_stake.since */\n      tag_35\n      swap2\n      swap1\n      tag_36\n      jump\t// in\n    tag_35:\n        /* \"contracts/Stakeable.sol\":5129:5179  (block.timestamp - _current_stake.since) / 1 hours */\n      tag_37\n      swap2\n      swap1\n      tag_38\n      jump\t// in\n    tag_37:\n        /* \"contracts/Stakeable.sol\":5128:5204  ((block.timestamp - _current_stake.since) / 1 hours) * _current_stake.amount */\n      tag_39\n      swap2\n      swap1\n      tag_40\n      jump\t// in\n    tag_39:\n        /* \"contracts/Stakeable.sol\":5127:5221  (((block.timestamp - _current_stake.since) / 1 hours) * _current_stake.amount) / rewardPerHour */\n      tag_41\n      swap2\n      swap1\n      tag_38\n      jump\t// in\n    tag_41:\n        /* \"contracts/Stakeable.sol\":5120:5221  return (((block.timestamp - _current_stake.since) / 1 hours) * _current_stake.amount) / rewardPerHour */\n      swap1\n      pop\n        /* \"contracts/Stakeable.sol\":4426:5230  function calculateStakeReward(Stake memory _current_stake) internal view returns(uint256){... */\n      swap2\n      swap1\n      pop\n      jump\t// out\n    tag_11:\n      mload(0x40)\n      dup1\n      0x40\n      add\n      0x40\n      mstore\n      dup1\n      0x00\n      dup2\n      mstore\n      0x20\n      add\n      0x60\n      dup2\n      mstore\n      pop\n      swap1\n      jump\t// out\n        /* \"#utility.yul\":7:146   */\n    tag_43:\n        /* \"#utility.yul\":53:58   */\n      0x00\n        /* \"#utility.yul\":91:97   */\n      dup2\n        /* \"#utility.yul\":78:98   */\n      calldataload\n        /* \"#utility.yul\":69:98   */\n      swap1\n      pop\n        /* \"#utility.yul\":107:140   */\n      tag_45\n        /* \"#utility.yul\":134:139   */\n      dup2\n        /* \"#utility.yul\":107:140   */\n      tag_46\n      jump\t// in\n    tag_45:\n        /* \"#utility.yul\":7:146   */\n      swap3\n      swap2\n      pop\n      pop\n      jump\t// out\n        /* \"#utility.yul\":152:481   */\n    tag_6:\n        /* \"#utility.yul\":211:217   */\n      0x00\n        /* \"#utility.yul\":260:262   */\n      0x20\n        /* \"#utility.yul\":248:257   */\n      dup3\n        /* \"#utility.yul\":239:246   */\n      dup5\n        /* \"#utility.yul\":235:258   */\n      sub\n        /* \"#utility.yul\":231:263   */\n      slt\n        /* \"#utility.yul\":228:347   */\n      iszero\n      tag_48\n      jumpi\n        /* \"#utility.yul\":266:345   */\n      tag_49\n      tag_50\n      jump\t// in\n    tag_49:\n        /* \"#utility.yul\":228:347   */\n    tag_48:\n        /* \"#utility.yul\":386:387   */\n      0x00\n        /* \"#utility.yul\":411:464   */\n      tag_51\n        /* \"#utility.yul\":456:463   */\n      dup5\n        /* \"#utility.yul\":447:453   */\n      dup3\n        /* \"#utility.yul\":436:445   */\n      dup6\n        /* \"#utility.yul\":432:454   */\n      add\n        /* \"#utility.yul\":411:464   */\n      tag_43\n      jump\t// in\n    tag_51:\n        /* \"#utility.yul\":401:464   */\n      swap2\n      pop\n        /* \"#utility.yul\":357:474   */\n      pop\n        /* \"#utility.yul\":152:481   */\n      swap3\n      swap2\n      pop\n      pop\n      jump\t// out\n        /* \"#utility.yul\":487:754   */\n    tag_52:\n        /* \"#utility.yul\":600:610   */\n      0x00\n        /* \"#utility.yul\":621:711   */\n      tag_54\n        /* \"#utility.yul\":707:710   */\n      dup4\n        /* \"#utility.yul\":699:705   */\n      dup4\n        /* \"#utility.yul\":621:711   */\n      tag_55\n      jump\t// in\n    tag_54:\n        /* \"#utility.yul\":743:747   */\n      0x80\n        /* \"#utility.yul\":738:741   */\n      dup4\n        /* \"#utility.yul\":734:748   */\n      add\n        /* \"#utility.yul\":720:748   */\n      swap1\n      pop\n        /* \"#utility.yul\":487:754   */\n      swap3\n      swap2\n      pop\n      pop\n      jump\t// out\n        /* \"#utility.yul\":760:868   */\n    tag_56:\n        /* \"#utility.yul\":837:861   */\n      tag_58\n        /* \"#utility.yul\":855:860   */\n      dup2\n        /* \"#utility.yul\":837:861   */\n      tag_59\n      jump\t// in\n    tag_58:\n        /* \"#utility.yul\":832:835   */\n      dup3\n        /* \"#utility.yul\":825:862   */\n      mstore\n        /* \"#utility.yul\":760:868   */\n      pop\n      pop\n      jump\t// out\n        /* \"#utility.yul\":934:1822   */\n    tag_60:\n        /* \"#utility.yul\":1087:1090   */\n      0x00\n        /* \"#utility.yul\":1116:1192   */\n      tag_62\n        /* \"#utility.yul\":1186:1191   */\n      dup3\n        /* \"#utility.yul\":1116:1192   */\n      tag_63\n      jump\t// in\n    tag_62:\n        /* \"#utility.yul\":1208:1306   */\n      tag_64\n        /* \"#utility.yul\":1299:1305   */\n      dup2\n        /* \"#utility.yul\":1294:1297   */\n      dup6\n        /* \"#utility.yul\":1208:1306   */\n      tag_65\n      jump\t// in\n    tag_64:\n        /* \"#utility.yul\":1201:1306   */\n      swap4\n      pop\n        /* \"#utility.yul\":1330:1408   */\n      tag_66\n        /* \"#utility.yul\":1402:1407   */\n      dup4\n        /* \"#utility.yul\":1330:1408   */\n      tag_67\n      jump\t// in\n    tag_66:\n        /* \"#utility.yul\":1431:1438   */\n      dup1\n        /* \"#utility.yul\":1462:1463   */\n      0x00\n        /* \"#utility.yul\":1447:1797   */\n    tag_68:\n        /* \"#utility.yul\":1472:1478   */\n      dup4\n        /* \"#utility.yul\":1469:1470   */\n      dup2\n        /* \"#utility.yul\":1466:1479   */\n      lt\n        /* \"#utility.yul\":1447:1797   */\n      iszero\n      tag_70\n      jumpi\n        /* \"#utility.yul\":1548:1554   */\n      dup2\n        /* \"#utility.yul\":1542:1555   */\n      mload\n        /* \"#utility.yul\":1575:1682   */\n      tag_71\n        /* \"#utility.yul\":1678:1681   */\n      dup9\n        /* \"#utility.yul\":1663:1676   */\n      dup3\n        /* \"#utility.yul\":1575:1682   */\n      tag_52\n      jump\t// in\n    tag_71:\n        /* \"#utility.yul\":1568:1682   */\n      swap8\n      pop\n        /* \"#utility.yul\":1705:1787   */\n      tag_72\n        /* \"#utility.yul\":1780:1786   */\n      dup4\n        /* \"#utility.yul\":1705:1787   */\n      tag_73\n      jump\t// in\n    tag_72:\n        /* \"#utility.yul\":1695:1787   */\n      swap3\n      pop\n        /* \"#utility.yul\":1507:1797   */\n      pop\n        /* \"#utility.yul\":1494:1495   */\n      0x01\n        /* \"#utility.yul\":1491:1492   */\n      dup2\n        /* \"#utility.yul\":1487:1496   */\n      add\n        /* \"#utility.yul\":1482:1496   */\n      swap1\n      pop\n        /* \"#utility.yul\":1447:1797   */\n      jump(tag_68)\n    tag_70:\n        /* \"#utility.yul\":1451:1465   */\n      pop\n        /* \"#utility.yul\":1813:1816   */\n      dup6\n        /* \"#utility.yul\":1806:1816   */\n      swap4\n      pop\n        /* \"#utility.yul\":1092:1822   */\n      pop\n      pop\n      pop\n        /* \"#utility.yul\":934:1822   */\n      swap3\n      swap2\n      pop\n      pop\n      jump\t// out\n        /* \"#utility.yul\":1884:2731   */\n    tag_55:\n        /* \"#utility.yul\":2015:2019   */\n      0x80\n        /* \"#utility.yul\":2010:2013   */\n      dup3\n        /* \"#utility.yul\":2006:2020   */\n      add\n        /* \"#utility.yul\":2102:2106   */\n      0x00\n        /* \"#utility.yul\":2095:2100   */\n      dup3\n        /* \"#utility.yul\":2091:2107   */\n      add\n        /* \"#utility.yul\":2085:2108   */\n      mload\n        /* \"#utility.yul\":2121:2184   */\n      tag_75\n        /* \"#utility.yul\":2178:2182   */\n      0x00\n        /* \"#utility.yul\":2173:2176   */\n      dup6\n        /* \"#utility.yul\":2169:2183   */\n      add\n        /* \"#utility.yul\":2155:2167   */\n      dup3\n        /* \"#utility.yul\":2121:2184   */\n      tag_56\n      jump\t// in\n    tag_75:\n        /* \"#utility.yul\":2030:2194   */\n      pop\n        /* \"#utility.yul\":2278:2282   */\n      0x20\n        /* \"#utility.yul\":2271:2276   */\n      dup3\n        /* \"#utility.yul\":2267:2283   */\n      add\n        /* \"#utility.yul\":2261:2284   */\n      mload\n        /* \"#utility.yul\":2297:2360   */\n      tag_76\n        /* \"#utility.yul\":2354:2358   */\n      0x20\n        /* \"#utility.yul\":2349:2352   */\n      dup6\n        /* \"#utility.yul\":2345:2359   */\n      add\n        /* \"#utility.yul\":2331:2343   */\n      dup3\n        /* \"#utility.yul\":2297:2360   */\n      tag_77\n      jump\t// in\n    tag_76:\n        /* \"#utility.yul\":2204:2370   */\n      pop\n        /* \"#utility.yul\":2453:2457   */\n      0x40\n        /* \"#utility.yul\":2446:2451   */\n      dup3\n        /* \"#utility.yul\":2442:2458   */\n      add\n        /* \"#utility.yul\":2436:2459   */\n      mload\n        /* \"#utility.yul\":2472:2535   */\n      tag_78\n        /* \"#utility.yul\":2529:2533   */\n      0x40\n        /* \"#utility.yul\":2524:2527   */\n      dup6\n        /* \"#utility.yul\":2520:2534   */\n      add\n        /* \"#utility.yul\":2506:2518   */\n      dup3\n        /* \"#utility.yul\":2472:2535   */\n      tag_77\n      jump\t// in\n    tag_78:\n        /* \"#utility.yul\":2380:2545   */\n      pop\n        /* \"#utility.yul\":2632:2636   */\n      0x60\n        /* \"#utility.yul\":2625:2630   */\n      dup3\n        /* \"#utility.yul\":2621:2637   */\n      add\n        /* \"#utility.yul\":2615:2638   */\n      mload\n        /* \"#utility.yul\":2651:2714   */\n      tag_79\n        /* \"#utility.yul\":2708:2712   */\n      0x60\n        /* \"#utility.yul\":2703:2706   */\n      dup6\n        /* \"#utility.yul\":2699:2713   */\n      add\n        /* \"#utility.yul\":2685:2697   */\n      dup3\n        /* \"#utility.yul\":2651:2714   */\n      tag_77\n      jump\t// in\n    tag_79:\n        /* \"#utility.yul\":2555:2724   */\n      pop\n        /* \"#utility.yul\":1984:2731   */\n      pop\n        /* \"#utility.yul\":1884:2731   */\n      pop\n      pop\n      jump\t// out\n        /* \"#utility.yul\":2811:3513   */\n    tag_80:\n        /* \"#utility.yul\":2942:2945   */\n      0x00\n        /* \"#utility.yul\":2978:2982   */\n      0x40\n        /* \"#utility.yul\":2973:2976   */\n      dup4\n        /* \"#utility.yul\":2969:2983   */\n      add\n        /* \"#utility.yul\":3073:3077   */\n      0x00\n        /* \"#utility.yul\":3066:3071   */\n      dup4\n        /* \"#utility.yul\":3062:3078   */\n      add\n        /* \"#utility.yul\":3056:3079   */\n      mload\n        /* \"#utility.yul\":3092:3155   */\n      tag_82\n        /* \"#utility.yul\":3149:3153   */\n      0x00\n        /* \"#utility.yul\":3144:3147   */\n      dup7\n        /* \"#utility.yul\":3140:3154   */\n      add\n        /* \"#utility.yul\":3126:3138   */\n      dup3\n        /* \"#utility.yul\":3092:3155   */\n      tag_77\n      jump\t// in\n    tag_82:\n        /* \"#utility.yul\":2993:3165   */\n      pop\n        /* \"#utility.yul\":3249:3253   */\n      0x20\n        /* \"#utility.yul\":3242:3247   */\n      dup4\n        /* \"#utility.yul\":3238:3254   */\n      add\n        /* \"#utility.yul\":3232:3255   */\n      mload\n        /* \"#utility.yul\":3302:3305   */\n      dup5\n        /* \"#utility.yul\":3296:3300   */\n      dup3\n        /* \"#utility.yul\":3292:3306   */\n      sub\n        /* \"#utility.yul\":3285:3289   */\n      0x20\n        /* \"#utility.yul\":3280:3283   */\n      dup7\n        /* \"#utility.yul\":3276:3290   */\n      add\n        /* \"#utility.yul\":3269:3307   */\n      mstore\n        /* \"#utility.yul\":3328:3475   */\n      tag_83\n        /* \"#utility.yul\":3470:3474   */\n      dup3\n        /* \"#utility.yul\":3456:3468   */\n      dup3\n        /* \"#utility.yul\":3328:3475   */\n      tag_60\n      jump\t// in\n    tag_83:\n        /* \"#utility.yul\":3320:3475   */\n      swap2\n      pop\n        /* \"#utility.yul\":3175:3486   */\n      pop\n        /* \"#utility.yul\":3503:3507   */\n      dup1\n        /* \"#utility.yul\":3496:3507   */\n      swap2\n      pop\n        /* \"#utility.yul\":2947:3513   */\n      pop\n        /* \"#utility.yul\":2811:3513   */\n      swap3\n      swap2\n      pop\n      pop\n      jump\t// out\n        /* \"#utility.yul\":3519:3627   */\n    tag_77:\n        /* \"#utility.yul\":3596:3620   */\n      tag_85\n        /* \"#utility.yul\":3614:3619   */\n      dup2\n        /* \"#utility.yul\":3596:3620   */\n      tag_86\n      jump\t// in\n    tag_85:\n        /* \"#utility.yul\":3591:3594   */\n      dup3\n        /* \"#utility.yul\":3584:3621   */\n      mstore\n        /* \"#utility.yul\":3519:3627   */\n      pop\n      pop\n      jump\t// out\n        /* \"#utility.yul\":3633:4030   */\n    tag_9:\n        /* \"#utility.yul\":3788:3792   */\n      0x00\n        /* \"#utility.yul\":3826:3828   */\n      0x20\n        /* \"#utility.yul\":3815:3824   */\n      dup3\n        /* \"#utility.yul\":3811:3829   */\n      add\n        /* \"#utility.yul\":3803:3829   */\n      swap1\n      pop\n        /* \"#utility.yul\":3875:3884   */\n      dup2\n        /* \"#utility.yul\":3869:3873   */\n      dup2\n        /* \"#utility.yul\":3865:3885   */\n      sub\n        /* \"#utility.yul\":3861:3862   */\n      0x00\n        /* \"#utility.yul\":3850:3859   */\n      dup4\n        /* \"#utility.yul\":3846:3863   */\n      add\n        /* \"#utility.yul\":3839:3886   */\n      mstore\n        /* \"#utility.yul\":3903:4023   */\n      tag_88\n        /* \"#utility.yul\":4018:4022   */\n      dup2\n        /* \"#utility.yul\":4009:4015   */\n      dup5\n        /* \"#utility.yul\":3903:4023   */\n      tag_80\n      jump\t// in\n    tag_88:\n        /* \"#utility.yul\":3895:4023   */\n      swap1\n      pop\n        /* \"#utility.yul\":3633:4030   */\n      swap3\n      swap2\n      pop\n      pop\n      jump\t// out\n        /* \"#utility.yul\":4117:4271   */\n    tag_67:\n        /* \"#utility.yul\":4206:4210   */\n      0x00\n        /* \"#utility.yul\":4229:4232   */\n      dup2\n        /* \"#utility.yul\":4221:4232   */\n      swap1\n      pop\n        /* \"#utility.yul\":4259:4263   */\n      0x20\n        /* \"#utility.yul\":4254:4257   */\n      dup3\n        /* \"#utility.yul\":4250:4264   */\n      add\n        /* \"#utility.yul\":4242:4264   */\n      swap1\n      pop\n        /* \"#utility.yul\":4117:4271   */\n      swap2\n      swap1\n      pop\n      jump\t// out\n        /* \"#utility.yul\":4277:4413   */\n    tag_63:\n        /* \"#utility.yul\":4366:4372   */\n      0x00\n        /* \"#utility.yul\":4400:4405   */\n      dup2\n        /* \"#utility.yul\":4394:4406   */\n      mload\n        /* \"#utility.yul\":4384:4406   */\n      swap1\n      pop\n        /* \"#utility.yul\":4277:4413   */\n      swap2\n      swap1\n      pop\n      jump\t// out\n        /* \"#utility.yul\":4419:4554   */\n    tag_73:\n        /* \"#utility.yul\":4511:4515   */\n      0x00\n        /* \"#utility.yul\":4543:4547   */\n      0x20\n        /* \"#utility.yul\":4538:4541   */\n      dup3\n        /* \"#utility.yul\":4534:4548   */\n      add\n        /* \"#utility.yul\":4526:4548   */\n      swap1\n      pop\n        /* \"#utility.yul\":4419:4554   */\n      swap2\n      swap1\n      pop\n      jump\t// out\n        /* \"#utility.yul\":4560:4756   */\n    tag_65:\n        /* \"#utility.yul\":4671:4682   */\n      0x00\n        /* \"#utility.yul\":4705:4711   */\n      dup3\n        /* \"#utility.yul\":4700:4703   */\n      dup3\n        /* \"#utility.yul\":4693:4712   */\n      mstore\n        /* \"#utility.yul\":4745:4749   */\n      0x20\n        /* \"#utility.yul\":4740:4743   */\n      dup3\n        /* \"#utility.yul\":4736:4750   */\n      add\n        /* \"#utility.yul\":4721:4750   */\n      swap1\n      pop\n        /* \"#utility.yul\":4560:4756   */\n      swap3\n      swap2\n      pop\n      pop\n      jump\t// out\n        /* \"#utility.yul\":4762:5067   */\n    tag_32:\n        /* \"#utility.yul\":4802:4805   */\n      0x00\n        /* \"#utility.yul\":4821:4841   */\n      tag_96\n        /* \"#utility.yul\":4839:4840   */\n      dup3\n        /* \"#utility.yul\":4821:4841   */\n      tag_86\n      jump\t// in\n    tag_96:\n        /* \"#utility.yul\":4816:4841   */\n      swap2\n      pop\n        /* \"#utility.yul\":4855:4875   */\n      tag_97\n        /* \"#utility.yul\":4873:4874   */\n      dup4\n        /* \"#utility.yul\":4855:4875   */\n      tag_86\n      jump\t// in\n    tag_97:\n        /* \"#utility.yul\":4850:4875   */\n      swap3\n      pop\n        /* \"#utility.yul\":5009:5010   */\n      dup3\n        /* \"#utility.yul\":4941:5007   */\n      0xffffffffffffffffffffffffffffffffffffffffffffffffffffffffffffffff\n        /* \"#utility.yul\":4937:5011   */\n      sub\n        /* \"#utility.yul\":4934:4935   */\n      dup3\n        /* \"#utility.yul\":4931:5012   */\n      gt\n        /* \"#utility.yul\":4928:5035   */\n      iszero\n      tag_98\n      jumpi\n        /* \"#utility.yul\":5015:5033   */\n      tag_99\n      tag_100\n      jump\t// in\n    tag_99:\n        /* \"#utility.yul\":4928:5035   */\n    tag_98:\n        /* \"#utility.yul\":5059:5060   */\n      dup3\n        /* \"#utility.yul\":5056:5057   */\n      dup3\n        /* \"#utility.yul\":5052:5061   */\n      add\n        /* \"#utility.yul\":5045:5061   */\n      swap1\n      pop\n        /* \"#utility.yul\":4762:5067   */\n      swap3\n      swap2\n      pop\n      pop\n      jump\t// out\n        /* \"#utility.yul\":5073:5258   */\n    tag_38:\n        /* \"#utility.yul\":5113:5114   */\n      0x00\n        /* \"#utility.yul\":5130:5150   */\n      tag_102\n        /* \"#utility.yul\":5148:5149   */\n      dup3\n        /* \"#utility.yul\":5130:5150   */\n      tag_86\n      jump\t// in\n    tag_102:\n        /* \"#utility.yul\":5125:5150   */\n      swap2\n      pop\n        /* \"#utility.yul\":5164:5184   */\n      tag_103\n        /* \"#utility.yul\":5182:5183   */\n      dup4\n        /* \"#utility.yul\":5164:5184   */\n      tag_86\n      jump\t// in\n    tag_103:\n        /* \"#utility.yul\":5159:5184   */\n      swap3\n      pop\n        /* \"#utility.yul\":5203:5204   */\n      dup3\n        /* \"#utility.yul\":5193:5228   */\n      tag_104\n      jumpi\n        /* \"#utility.yul\":5208:5226   */\n      tag_105\n      tag_106\n      jump\t// in\n    tag_105:\n        /* \"#utility.yul\":5193:5228   */\n    tag_104:\n        /* \"#utility.yul\":5250:5251   */\n      dup3\n        /* \"#utility.yul\":5247:5248   */\n      dup3\n        /* \"#utility.yul\":5243:5252   */\n      div\n        /* \"#utility.yul\":5238:5252   */\n      swap1\n      pop\n        /* \"#utility.yul\":5073:5258   */\n      swap3\n      swap2\n      pop\n      pop\n      jump\t// out\n        /* \"#utility.yul\":5264:5612   */\n    tag_40:\n        /* \"#utility.yul\":5304:5311   */\n      0x00\n        /* \"#utility.yul\":5327:5347   */\n      tag_108\n        /* \"#utility.yul\":5345:5346   */\n      dup3\n        /* \"#utility.yul\":5327:5347   */\n      tag_86\n      jump\t// in\n    tag_108:\n        /* \"#utility.yul\":5322:5347   */\n      swap2\n      pop\n        /* \"#utility.yul\":5361:5381   */\n      tag_109\n        /* \"#utility.yul\":5379:5380   */\n      dup4\n        /* \"#utility.yul\":5361:5381   */\n      tag_86\n      jump\t// in\n    tag_109:\n        /* \"#utility.yul\":5356:5381   */\n      swap3\n      pop\n        /* \"#utility.yul\":5549:5550   */\n      dup2\n        /* \"#utility.yul\":5481:5547   */\n      0xffffffffffffffffffffffffffffffffffffffffffffffffffffffffffffffff\n        /* \"#utility.yul\":5477:5551   */\n      div\n        /* \"#utility.yul\":5474:5475   */\n      dup4\n        /* \"#utility.yul\":5471:5552   */\n      gt\n        /* \"#utility.yul\":5466:5467   */\n      dup3\n        /* \"#utility.yul\":5459:5468   */\n      iszero\n        /* \"#utility.yul\":5452:5469   */\n      iszero\n        /* \"#utility.yul\":5448:5553   */\n      and\n        /* \"#utility.yul\":5445:5576   */\n      iszero\n      tag_110\n      jumpi\n        /* \"#utility.yul\":5556:5574   */\n      tag_111\n      tag_100\n      jump\t// in\n    tag_111:\n        /* \"#utility.yul\":5445:5576   */\n    tag_110:\n        /* \"#utility.yul\":5604:5605   */\n      dup3\n        /* \"#utility.yul\":5601:5602   */\n      dup3\n        /* \"#utility.yul\":5597:5606   */\n      mul\n        /* \"#utility.yul\":5586:5606   */\n      swap1\n      pop\n        /* \"#utility.yul\":5264:5612   */\n      swap3\n      swap2\n      pop\n      pop\n      jump\t// out\n        /* \"#utility.yul\":5618:5809   */\n    tag_36:\n        /* \"#utility.yul\":5658:5662   */\n      0x00\n        /* \"#utility.yul\":5678:5698   */\n      tag_113\n        /* \"#utility.yul\":5696:5697   */\n      dup3\n        /* \"#utility.yul\":5678:5698   */\n      tag_86\n      jump\t// in\n    tag_113:\n        /* \"#utility.yul\":5673:5698   */\n      swap2\n      pop\n        /* \"#utility.yul\":5712:5732   */\n      tag_114\n        /* \"#utility.yul\":5730:5731   */\n      dup4\n        /* \"#utility.yul\":5712:5732   */\n      tag_86\n      jump\t// in\n    tag_114:\n        /* \"#utility.yul\":5707:5732   */\n      swap3\n      pop\n        /* \"#utility.yul\":5751:5752   */\n      dup3\n        /* \"#utility.yul\":5748:5749   */\n      dup3\n        /* \"#utility.yul\":5745:5753   */\n      lt\n        /* \"#utility.yul\":5742:5776   */\n      iszero\n      tag_115\n      jumpi\n        /* \"#utility.yul\":5756:5774   */\n      tag_116\n      tag_100\n      jump\t// in\n    tag_116:\n        /* \"#utility.yul\":5742:5776   */\n    tag_115:\n        /* \"#utility.yul\":5801:5802   */\n      dup3\n        /* \"#utility.yul\":5798:5799   */\n      dup3\n        /* \"#utility.yul\":5794:5803   */\n      sub\n        /* \"#utility.yul\":5786:5803   */\n      swap1\n      pop\n        /* \"#utility.yul\":5618:5809   */\n      swap3\n      swap2\n      pop\n      pop\n      jump\t// out\n        /* \"#utility.yul\":5815:5911   */\n    tag_59:\n        /* \"#utility.yul\":5852:5859   */\n      0x00\n        /* \"#utility.yul\":5881:5905   */\n      tag_118\n        /* \"#utility.yul\":5899:5904   */\n      dup3\n        /* \"#utility.yul\":5881:5905   */\n      tag_119\n      jump\t// in\n    tag_118:\n        /* \"#utility.yul\":5870:5905   */\n      swap1\n      pop\n        /* \"#utility.yul\":5815:5911   */\n      swap2\n      swap1\n      pop\n      jump\t// out\n        /* \"#utility.yul\":5917:6043   */\n    tag_119:\n        /* \"#utility.yul\":5954:5961   */\n      0x00\n        /* \"#utility.yul\":5994:6036   */\n      0xffffffffffffffffffffffffffffffffffffffff\n        /* \"#utility.yul\":5987:5992   */\n      dup3\n        /* \"#utility.yul\":5983:6037   */\n      and\n        /* \"#utility.yul\":5972:6037   */\n      swap1\n      pop\n        /* \"#utility.yul\":5917:6043   */\n      swap2\n      swap1\n      pop\n      jump\t// out\n        /* \"#utility.yul\":6049:6126   */\n    tag_86:\n        /* \"#utility.yul\":6086:6093   */\n      0x00\n        /* \"#utility.yul\":6115:6120   */\n      dup2\n        /* \"#utility.yul\":6104:6120   */\n      swap1\n      pop\n        /* \"#utility.yul\":6049:6126   */\n      swap2\n      swap1\n      pop\n      jump\t// out\n        /* \"#utility.yul\":6132:6312   */\n    tag_100:\n        /* \"#utility.yul\":6180:6257   */\n      0x4e487b7100000000000000000000000000000000000000000000000000000000\n        /* \"#utility.yul\":6177:6178   */\n      0x00\n        /* \"#utility.yul\":6170:6258   */\n      mstore\n        /* \"#utility.yul\":6277:6281   */\n      0x11\n        /* \"#utility.yul\":6274:6275   */\n      0x04\n        /* \"#utility.yul\":6267:6282   */\n      mstore\n        /* \"#utility.yul\":6301:6305   */\n      0x24\n        /* \"#utility.yul\":6298:6299   */\n      0x00\n        /* \"#utility.yul\":6291:6306   */\n      revert\n        /* \"#utility.yul\":6318:6498   */\n    tag_106:\n        /* \"#utility.yul\":6366:6443   */\n      0x4e487b7100000000000000000000000000000000000000000000000000000000\n        /* \"#utility.yul\":6363:6364   */\n      0x00\n        /* \"#utility.yul\":6356:6444   */\n      mstore\n        /* \"#utility.yul\":6463:6467   */\n      0x12\n        /* \"#utility.yul\":6460:6461   */\n      0x04\n        /* \"#utility.yul\":6453:6468   */\n      mstore\n        /* \"#utility.yul\":6487:6491   */\n      0x24\n        /* \"#utility.yul\":6484:6485   */\n      0x00\n        /* \"#utility.yul\":6477:6492   */\n      revert\n        /* \"#utility.yul\":6504:6684   */\n    tag_15:\n        /* \"#utility.yul\":6552:6629   */\n      0x4e487b7100000000000000000000000000000000000000000000000000000000\n        /* \"#utility.yul\":6549:6550   */\n      0x00\n        /* \"#utility.yul\":6542:6630   */\n      mstore\n        /* \"#utility.yul\":6649:6653   */\n      0x32\n        /* \"#utility.yul\":6646:6647   */\n      0x04\n        /* \"#utility.yul\":6639:6654   */\n      mstore\n        /* \"#utility.yul\":6673:6677   */\n      0x24\n        /* \"#utility.yul\":6670:6671   */\n      0x00\n        /* \"#utility.yul\":6663:6678   */\n      revert\n        /* \"#utility.yul\":6813:6930   */\n    tag_50:\n        /* \"#utility.yul\":6922:6923   */\n      0x00\n        /* \"#utility.yul\":6919:6920   */\n      dup1\n        /* \"#utility.yul\":6912:6924   */\n      revert\n        /* \"#utility.yul\":6936:7058   */\n    tag_46:\n        /* \"#utility.yul\":7009:7033   */\n      tag_129\n        /* \"#utility.yul\":7027:7032   */\n      dup2\n        /* \"#utility.yul\":7009:7033   */\n      tag_59\n      jump\t// in\n    tag_129:\n        /* \"#utility.yul\":7002:7007   */\n      dup2\n        /* \"#utility.yul\":6999:7034   */\n      eq\n        /* \"#utility.yul\":6989:7052   */\n      tag_130\n      jumpi\n        /* \"#utility.yul\":7048:7049   */\n      0x00\n        /* \"#utility.yul\":7045:7046   */\n      dup1\n        /* \"#utility.yul\":7038:7050   */\n      revert\n        /* \"#utility.yul\":6989:7052   */\n    tag_130:\n        /* \"#utility.yul\":6936:7058   */\n      pop\n      jump\t// out\n\n    auxdata: 0xa2646970667358221220e2dabfb49be660e920d8af913ae79c0c57565b6444662fbf60818414364455fb64736f6c63430008070033\n}\n",
				"bytecode": {
					"linkReferences": {},
					"object": "60806040526305f5e10060025534801561001857600080fd5b506000600181600181540180825580915050039060005260206000209050506106bc806100466000396000f3fe608060405234801561001057600080fd5b506004361061002b5760003560e01c8063e73e14bf14610030575b600080fd5b61004a600480360381019061004591906102de565b610060565b6040516100579190610431565b60405180910390f35b6100686102af565b6000806040518060400160405280600081526020016000600160008873ffffffffffffffffffffffffffffffffffffffff1673ffffffffffffffffffffffffffffffffffffffff16815260200190815260200160002054815481106100d0576100cf61063b565b5b9060005260206000209060020201600101805480602002602001604051908101604052809291908181526020016000905b828210156101a757838290600052602060002090600402016040518060800160405290816000820160009054906101000a900473ffffffffffffffffffffffffffffffffffffffff1673ffffffffffffffffffffffffffffffffffffffff1673ffffffffffffffffffffffffffffffffffffffff168152602001600182015481526020016002820154815260200160038201548152505081526020019060010190610101565b50505050815250905060005b8160200151518110156102585760006101e9836020015183815181106101dc576101db61063b565b5b602002602001015161026d565b905080836020015183815181106102035761020261063b565b5b602002602001015160600181815250508260200151828151811061022a5761022961063b565b5b60200260200101516020015184610241919061048c565b935050600181610251919061048c565b90506101b3565b50818160000181815250508092505050919050565b60006002548260200151610e1084604001514261028a919061056d565b61029491906104e2565b61029e9190610513565b6102a891906104e2565b9050919050565b604051806040016040528060008152602001606081525090565b6000813590506102d88161066f565b92915050565b6000602082840312156102f4576102f361066a565b5b6000610302848285016102c9565b91505092915050565b60006103178383610390565b60808301905092915050565b61032c816105a1565b82525050565b600061033d82610463565b610347818561047b565b935061035283610453565b8060005b8381101561038357815161036a888261030b565b97506103758361046e565b925050600181019050610356565b5085935050505092915050565b6080820160008201516103a66000850182610323565b5060208201516103b96020850182610422565b5060408201516103cc6040850182610422565b5060608201516103df6060850182610422565b50505050565b60006040830160008301516103fd6000860182610422565b50602083015184820360208601526104158282610332565b9150508091505092915050565b61042b816105d3565b82525050565b6000602082019050818103600083015261044b81846103e5565b905092915050565b6000819050602082019050919050565b600081519050919050565b6000602082019050919050565b600082825260208201905092915050565b6000610497826105d3565b91506104a2836105d3565b9250827fffffffffffffffffffffffffffffffffffffffffffffffffffffffffffffffff038211156104d7576104d66105dd565b5b828201905092915050565b60006104ed826105d3565b91506104f8836105d3565b9250826105085761050761060c565b5b828204905092915050565b600061051e826105d3565b9150610529836105d3565b9250817fffffffffffffffffffffffffffffffffffffffffffffffffffffffffffffffff0483118215151615610562576105616105dd565b5b828202905092915050565b6000610578826105d3565b9150610583836105d3565b925082821015610596576105956105dd565b5b828203905092915050565b60006105ac826105b3565b9050919050565b600073ffffffffffffffffffffffffffffffffffffffff82169050919050565b6000819050919050565b7f4e487b7100000000000000000000000000000000000000000000000000000000600052601160045260246000fd5b7f4e487b7100000000000000000000000000000000000000000000000000000000600052601260045260246000fd5b7f4e487b7100000000000000000000000000000000000000000000000000000000600052603260045260246000fd5b600080fd5b610678816105a1565b811461068357600080fd5b5056fea2646970667358221220e2dabfb49be660e920d8af913ae79c0c57565b6444662fbf60818414364455fb64736f6c63430008070033",
					"opcodes": "PUSH1 0x80 PUSH1 0x40 MSTORE PUSH4 0x5F5E100 PUSH1 0x2 SSTORE CALLVALUE DUP1 ISZERO PUSH2 0x18 JUMPI PUSH1 0x0 DUP1 REVERT JUMPDEST POP PUSH1 0x0 PUSH1 0x1 DUP2 PUSH1 0x1 DUP2 SLOAD ADD DUP1 DUP3 SSTORE DUP1 SWAP2 POP POP SUB SWAP1 PUSH1 0x0 MSTORE PUSH1 0x20 PUSH1 0x0 KECCAK256 SWAP1 POP POP PUSH2 0x6BC DUP1 PUSH2 0x46 PUSH1 0x0 CODECOPY PUSH1 0x0 RETURN INVALID PUSH1 0x80 PUSH1 0x40 MSTORE CALLVALUE DUP1 ISZERO PUSH2 0x10 JUMPI PUSH1 0x0 DUP1 REVERT JUMPDEST POP PUSH1 0x4 CALLDATASIZE LT PUSH2 0x2B JUMPI PUSH1 0x0 CALLDATALOAD PUSH1 0xE0 SHR DUP1 PUSH4 0xE73E14BF EQ PUSH2 0x30 JUMPI JUMPDEST PUSH1 0x0 DUP1 REVERT JUMPDEST PUSH2 0x4A PUSH1 0x4 DUP1 CALLDATASIZE SUB DUP2 ADD SWAP1 PUSH2 0x45 SWAP2 SWAP1 PUSH2 0x2DE JUMP JUMPDEST PUSH2 0x60 JUMP JUMPDEST PUSH1 0x40 MLOAD PUSH2 0x57 SWAP2 SWAP1 PUSH2 0x431 JUMP JUMPDEST PUSH1 0x40 MLOAD DUP1 SWAP2 SUB SWAP1 RETURN JUMPDEST PUSH2 0x68 PUSH2 0x2AF JUMP JUMPDEST PUSH1 0x0 DUP1 PUSH1 0x40 MLOAD DUP1 PUSH1 0x40 ADD PUSH1 0x40 MSTORE DUP1 PUSH1 0x0 DUP2 MSTORE PUSH1 0x20 ADD PUSH1 0x0 PUSH1 0x1 PUSH1 0x0 DUP9 PUSH20 0xFFFFFFFFFFFFFFFFFFFFFFFFFFFFFFFFFFFFFFFF AND PUSH20 0xFFFFFFFFFFFFFFFFFFFFFFFFFFFFFFFFFFFFFFFF AND DUP2 MSTORE PUSH1 0x20 ADD SWAP1 DUP2 MSTORE PUSH1 0x20 ADD PUSH1 0x0 KECCAK256 SLOAD DUP2 SLOAD DUP2 LT PUSH2 0xD0 JUMPI PUSH2 0xCF PUSH2 0x63B JUMP JUMPDEST JUMPDEST SWAP1 PUSH1 0x0 MSTORE PUSH1 0x20 PUSH1 0x0 KECCAK256 SWAP1 PUSH1 0x2 MUL ADD PUSH1 0x1 ADD DUP1 SLOAD DUP1 PUSH1 0x20 MUL PUSH1 0x20 ADD PUSH1 0x40 MLOAD SWAP1 DUP2 ADD PUSH1 0x40 MSTORE DUP1 SWAP3 SWAP2 SWAP1 DUP2 DUP2 MSTORE PUSH1 0x20 ADD PUSH1 0x0 SWAP1 JUMPDEST DUP3 DUP3 LT ISZERO PUSH2 0x1A7 JUMPI DUP4 DUP3 SWAP1 PUSH1 0x0 MSTORE PUSH1 0x20 PUSH1 0x0 KECCAK256 SWAP1 PUSH1 0x4 MUL ADD PUSH1 0x40 MLOAD DUP1 PUSH1 0x80 ADD PUSH1 0x40 MSTORE SWAP1 DUP2 PUSH1 0x0 DUP3 ADD PUSH1 0x0 SWAP1 SLOAD SWAP1 PUSH2 0x100 EXP SWAP1 DIV PUSH20 0xFFFFFFFFFFFFFFFFFFFFFFFFFFFFFFFFFFFFFFFF AND PUSH20 0xFFFFFFFFFFFFFFFFFFFFFFFFFFFFFFFFFFFFFFFF AND PUSH20 0xFFFFFFFFFFFFFFFFFFFFFFFFFFFFFFFFFFFFFFFF AND DUP2 MSTORE PUSH1 0x20 ADD PUSH1 0x1 DUP3 ADD SLOAD DUP2 MSTORE PUSH1 0x20 ADD PUSH1 0x2 DUP3 ADD SLOAD DUP2 MSTORE PUSH1 0x20 ADD PUSH1 0x3 DUP3 ADD SLOAD DUP2 MSTORE POP POP DUP2 MSTORE PUSH1 0x20 ADD SWAP1 PUSH1 0x1 ADD SWAP1 PUSH2 0x101 JUMP JUMPDEST POP POP POP POP DUP2 MSTORE POP SWAP1 POP PUSH1 0x0 JUMPDEST DUP2 PUSH1 0x20 ADD MLOAD MLOAD DUP2 LT ISZERO PUSH2 0x258 JUMPI PUSH1 0x0 PUSH2 0x1E9 DUP4 PUSH1 0x20 ADD MLOAD DUP4 DUP2 MLOAD DUP2 LT PUSH2 0x1DC JUMPI PUSH2 0x1DB PUSH2 0x63B JUMP JUMPDEST JUMPDEST PUSH1 0x20 MUL PUSH1 0x20 ADD ADD MLOAD PUSH2 0x26D JUMP JUMPDEST SWAP1 POP DUP1 DUP4 PUSH1 0x20 ADD MLOAD DUP4 DUP2 MLOAD DUP2 LT PUSH2 0x203 JUMPI PUSH2 0x202 PUSH2 0x63B JUMP JUMPDEST JUMPDEST PUSH1 0x20 MUL PUSH1 0x20 ADD ADD MLOAD PUSH1 0x60 ADD DUP2 DUP2 MSTORE POP POP DUP3 PUSH1 0x20 ADD MLOAD DUP3 DUP2 MLOAD DUP2 LT PUSH2 0x22A JUMPI PUSH2 0x229 PUSH2 0x63B JUMP JUMPDEST JUMPDEST PUSH1 0x20 MUL PUSH1 0x20 ADD ADD MLOAD PUSH1 0x20 ADD MLOAD DUP5 PUSH2 0x241 SWAP2 SWAP1 PUSH2 0x48C JUMP JUMPDEST SWAP4 POP POP PUSH1 0x1 DUP2 PUSH2 0x251 SWAP2 SWAP1 PUSH2 0x48C JUMP JUMPDEST SWAP1 POP PUSH2 0x1B3 JUMP JUMPDEST POP DUP2 DUP2 PUSH1 0x0 ADD DUP2 DUP2 MSTORE POP POP DUP1 SWAP3 POP POP POP SWAP2 SWAP1 POP JUMP JUMPDEST PUSH1 0x0 PUSH1 0x2 SLOAD DUP3 PUSH1 0x20 ADD MLOAD PUSH2 0xE10 DUP5 PUSH1 0x40 ADD MLOAD TIMESTAMP PUSH2 0x28A SWAP2 SWAP1 PUSH2 0x56D JUMP JUMPDEST PUSH2 0x294 SWAP2 SWAP1 PUSH2 0x4E2 JUMP JUMPDEST PUSH2 0x29E SWAP2 SWAP1 PUSH2 0x513 JUMP JUMPDEST PUSH2 0x2A8 SWAP2 SWAP1 PUSH2 0x4E2 JUMP JUMPDEST SWAP1 POP SWAP2 SWAP1 POP JUMP JUMPDEST PUSH1 0x40 MLOAD DUP1 PUSH1 0x40 ADD PUSH1 0x40 MSTORE DUP1 PUSH1 0x0 DUP2 MSTORE PUSH1 0x20 ADD PUSH1 0x60 DUP2 MSTORE POP SWAP1 JUMP JUMPDEST PUSH1 0x0 DUP2 CALLDATALOAD SWAP1 POP PUSH2 0x2D8 DUP2 PUSH2 0x66F JUMP JUMPDEST SWAP3 SWAP2 POP POP JUMP JUMPDEST PUSH1 0x0 PUSH1 0x20 DUP3 DUP5 SUB SLT ISZERO PUSH2 0x2F4 JUMPI PUSH2 0x2F3 PUSH2 0x66A JUMP JUMPDEST JUMPDEST PUSH1 0x0 PUSH2 0x302 DUP5 DUP3 DUP6 ADD PUSH2 0x2C9 JUMP JUMPDEST SWAP2 POP POP SWAP3 SWAP2 POP POP JUMP JUMPDEST PUSH1 0x0 PUSH2 0x317 DUP4 DUP4 PUSH2 0x390 JUMP JUMPDEST PUSH1 0x80 DUP4 ADD SWAP1 POP SWAP3 SWAP2 POP POP JUMP JUMPDEST PUSH2 0x32C DUP2 PUSH2 0x5A1 JUMP JUMPDEST DUP3 MSTORE POP POP JUMP JUMPDEST PUSH1 0x0 PUSH2 0x33D DUP3 PUSH2 0x463 JUMP JUMPDEST PUSH2 0x347 DUP2 DUP6 PUSH2 0x47B JUMP JUMPDEST SWAP4 POP PUSH2 0x352 DUP4 PUSH2 0x453 JUMP JUMPDEST DUP1 PUSH1 0x0 JUMPDEST DUP4 DUP2 LT ISZERO PUSH2 0x383 JUMPI DUP2 MLOAD PUSH2 0x36A DUP9 DUP3 PUSH2 0x30B JUMP JUMPDEST SWAP8 POP PUSH2 0x375 DUP4 PUSH2 0x46E JUMP JUMPDEST SWAP3 POP POP PUSH1 0x1 DUP2 ADD SWAP1 POP PUSH2 0x356 JUMP JUMPDEST POP DUP6 SWAP4 POP POP POP POP SWAP3 SWAP2 POP POP JUMP JUMPDEST PUSH1 0x80 DUP3 ADD PUSH1 0x0 DUP3 ADD MLOAD PUSH2 0x3A6 PUSH1 0x0 DUP6 ADD DUP3 PUSH2 0x323 JUMP JUMPDEST POP PUSH1 0x20 DUP3 ADD MLOAD PUSH2 0x3B9 PUSH1 0x20 DUP6 ADD DUP3 PUSH2 0x422 JUMP JUMPDEST POP PUSH1 0x40 DUP3 ADD MLOAD PUSH2 0x3CC PUSH1 0x40 DUP6 ADD DUP3 PUSH2 0x422 JUMP JUMPDEST POP PUSH1 0x60 DUP3 ADD MLOAD PUSH2 0x3DF PUSH1 0x60 DUP6 ADD DUP3 PUSH2 0x422 JUMP JUMPDEST POP POP POP POP JUMP JUMPDEST PUSH1 0x0 PUSH1 0x40 DUP4 ADD PUSH1 0x0 DUP4 ADD MLOAD PUSH2 0x3FD PUSH1 0x0 DUP7 ADD DUP3 PUSH2 0x422 JUMP JUMPDEST POP PUSH1 0x20 DUP4 ADD MLOAD DUP5 DUP3 SUB PUSH1 0x20 DUP7 ADD MSTORE PUSH2 0x415 DUP3 DUP3 PUSH2 0x332 JUMP JUMPDEST SWAP2 POP POP DUP1 SWAP2 POP POP SWAP3 SWAP2 POP POP JUMP JUMPDEST PUSH2 0x42B DUP2 PUSH2 0x5D3 JUMP JUMPDEST DUP3 MSTORE POP POP JUMP JUMPDEST PUSH1 0x0 PUSH1 0x20 DUP3 ADD SWAP1 POP DUP2 DUP2 SUB PUSH1 0x0 DUP4 ADD MSTORE PUSH2 0x44B DUP2 DUP5 PUSH2 0x3E5 JUMP JUMPDEST SWAP1 POP SWAP3 SWAP2 POP POP JUMP JUMPDEST PUSH1 0x0 DUP2 SWAP1 POP PUSH1 0x20 DUP3 ADD SWAP1 POP SWAP2 SWAP1 POP JUMP JUMPDEST PUSH1 0x0 DUP2 MLOAD SWAP1 POP SWAP2 SWAP1 POP JUMP JUMPDEST PUSH1 0x0 PUSH1 0x20 DUP3 ADD SWAP1 POP SWAP2 SWAP1 POP JUMP JUMPDEST PUSH1 0x0 DUP3 DUP3 MSTORE PUSH1 0x20 DUP3 ADD SWAP1 POP SWAP3 SWAP2 POP POP JUMP JUMPDEST PUSH1 0x0 PUSH2 0x497 DUP3 PUSH2 0x5D3 JUMP JUMPDEST SWAP2 POP PUSH2 0x4A2 DUP4 PUSH2 0x5D3 JUMP JUMPDEST SWAP3 POP DUP3 PUSH32 0xFFFFFFFFFFFFFFFFFFFFFFFFFFFFFFFFFFFFFFFFFFFFFFFFFFFFFFFFFFFFFFFF SUB DUP3 GT ISZERO PUSH2 0x4D7 JUMPI PUSH2 0x4D6 PUSH2 0x5DD JUMP JUMPDEST JUMPDEST DUP3 DUP3 ADD SWAP1 POP SWAP3 SWAP2 POP POP JUMP JUMPDEST PUSH1 0x0 PUSH2 0x4ED DUP3 PUSH2 0x5D3 JUMP JUMPDEST SWAP2 POP PUSH2 0x4F8 DUP4 PUSH2 0x5D3 JUMP JUMPDEST SWAP3 POP DUP3 PUSH2 0x508 JUMPI PUSH2 0x507 PUSH2 0x60C JUMP JUMPDEST JUMPDEST DUP3 DUP3 DIV SWAP1 POP SWAP3 SWAP2 POP POP JUMP JUMPDEST PUSH1 0x0 PUSH2 0x51E DUP3 PUSH2 0x5D3 JUMP JUMPDEST SWAP2 POP PUSH2 0x529 DUP4 PUSH2 0x5D3 JUMP JUMPDEST SWAP3 POP DUP2 PUSH32 0xFFFFFFFFFFFFFFFFFFFFFFFFFFFFFFFFFFFFFFFFFFFFFFFFFFFFFFFFFFFFFFFF DIV DUP4 GT DUP3 ISZERO ISZERO AND ISZERO PUSH2 0x562 JUMPI PUSH2 0x561 PUSH2 0x5DD JUMP JUMPDEST JUMPDEST DUP3 DUP3 MUL SWAP1 POP SWAP3 SWAP2 POP POP JUMP JUMPDEST PUSH1 0x0 PUSH2 0x578 DUP3 PUSH2 0x5D3 JUMP JUMPDEST SWAP2 POP PUSH2 0x583 DUP4 PUSH2 0x5D3 JUMP JUMPDEST SWAP3 POP DUP3 DUP3 LT ISZERO PUSH2 0x596 JUMPI PUSH2 0x595 PUSH2 0x5DD JUMP JUMPDEST JUMPDEST DUP3 DUP3 SUB SWAP1 POP SWAP3 SWAP2 POP POP JUMP JUMPDEST PUSH1 0x0 PUSH2 0x5AC DUP3 PUSH2 0x5B3 JUMP JUMPDEST SWAP1 POP SWAP2 SWAP1 POP JUMP JUMPDEST PUSH1 0x0 PUSH20 0xFFFFFFFFFFFFFFFFFFFFFFFFFFFFFFFFFFFFFFFF DUP3 AND SWAP1 POP SWAP2 SWAP1 POP JUMP JUMPDEST PUSH1 0x0 DUP2 SWAP1 POP SWAP2 SWAP1 POP JUMP JUMPDEST PUSH32 0x4E487B7100000000000000000000000000000000000000000000000000000000 PUSH1 0x0 MSTORE PUSH1 0x11 PUSH1 0x4 MSTORE PUSH1 0x24 PUSH1 0x0 REVERT JUMPDEST PUSH32 0x4E487B7100000000000000000000000000000000000000000000000000000000 PUSH1 0x0 MSTORE PUSH1 0x12 PUSH1 0x4 MSTORE PUSH1 0x24 PUSH1 0x0 REVERT JUMPDEST PUSH32 0x4E487B7100000000000000000000000000000000000000000000000000000000 PUSH1 0x0 MSTORE PUSH1 0x32 PUSH1 0x4 MSTORE PUSH1 0x24 PUSH1 0x0 REVERT JUMPDEST PUSH1 0x0 DUP1 REVERT JUMPDEST PUSH2 0x678 DUP2 PUSH2 0x5A1 JUMP JUMPDEST DUP2 EQ PUSH2 0x683 JUMPI PUSH1 0x0 DUP1 REVERT JUMPDEST POP JUMP INVALID LOG2 PUSH5 0x6970667358 0x22 SLT KECCAK256 0xE2 0xDA 0xBF 0xB4 SWAP12 0xE6 PUSH1 0xE9 KECCAK256 0xD8 0xAF SWAP2 GASPRICE 0xE7 SWAP13 0xC JUMPI JUMP JUMPDEST PUSH5 0x44662FBF60 DUP2 DUP5 EQ CALLDATASIZE DIFFICULTY SSTORE 0xFB PUSH5 0x736F6C6343 STOP ADDMOD SMOD STOP CALLER "
				},
				"gasEstimates": {
					"creation": {
						"codeDepositCost": "344800",
						"executionCost": "46781",
						"totalCost": "391581"
					},
					"external": {
						"hasStake(address)": "infinite"
					},
					"internal": {
						"_addStakeholder(address)": "infinite",
						"_stake(uint256)": "infinite",
						"_withdrawStake(uint256,uint256)": "infinite",
						"calculateStakeReward(struct Stakeable.Stake memory)": "infinite"
					}
				},
				"methodIdentifiers": {
					"hasStake(address)": "e73e14bf"
				}
			},
			"storageLayout": {
				"storage": [
					{
						"astId": 777,
						"contract": "contracts/Stakeable.sol:Stakeable",
						"label": "stakeholders",
						"offset": 0,
						"slot": "0",
						"type": "t_array(t_struct(Stakeholder)765_storage)dyn_storage"
					},
					{
						"astId": 782,
						"contract": "contracts/Stakeable.sol:Stakeable",
						"label": "stakes",
						"offset": 0,
						"slot": "1",
						"type": "t_mapping(t_address,t_uint256)"
					},
					{
						"astId": 797,
						"contract": "contracts/Stakeable.sol:Stakeable",
						"label": "rewardPerHour",
						"offset": 0,
						"slot": "2",
						"type": "t_uint256"
					}
				],
				"types": {
					"t_address": {
						"encoding": "inplace",
						"label": "address",
						"numberOfBytes": "20"
					},
					"t_array(t_struct(Stake)758_storage)dyn_storage": {
						"base": "t_struct(Stake)758_storage",
						"encoding": "dynamic_array",
						"label": "struct Stakeable.Stake[]",
						"numberOfBytes": "32"
					},
					"t_array(t_struct(Stakeholder)765_storage)dyn_storage": {
						"base": "t_struct(Stakeholder)765_storage",
						"encoding": "dynamic_array",
						"label": "struct Stakeable.Stakeholder[]",
						"numberOfBytes": "32"
					},
					"t_mapping(t_address,t_uint256)": {
						"encoding": "mapping",
						"key": "t_address",
						"label": "mapping(address => uint256)",
						"numberOfBytes": "32",
						"value": "t_uint256"
					},
					"t_struct(Stake)758_storage": {
						"encoding": "inplace",
						"label": "struct Stakeable.Stake",
						"members": [
							{
								"astId": 751,
								"contract": "contracts/Stakeable.sol:Stakeable",
								"label": "user",
								"offset": 0,
								"slot": "0",
								"type": "t_address"
							},
							{
								"astId": 753,
								"contract": "contracts/Stakeable.sol:Stakeable",
								"label": "amount",
								"offset": 0,
								"slot": "1",
								"type": "t_uint256"
							},
							{
								"astId": 755,
								"contract": "contracts/Stakeable.sol:Stakeable",
								"label": "since",
								"offset": 0,
								"slot": "2",
								"type": "t_uint256"
							},
							{
								"astId": 757,
								"contract": "contracts/Stakeable.sol:Stakeable",
								"label": "claimable",
								"offset": 0,
								"slot": "3",
								"type": "t_uint256"
							}
						],
						"numberOfBytes": "128"
					},
					"t_struct(Stakeholder)765_storage": {
						"encoding": "inplace",
						"label": "struct Stakeable.Stakeholder",
						"members": [
							{
								"astId": 760,
								"contract": "contracts/Stakeable.sol:Stakeable",
								"label": "user",
								"offset": 0,
								"slot": "0",
								"type": "t_address"
							},
							{
								"astId": 764,
								"contract": "contracts/Stakeable.sol:Stakeable",
								"label": "address_stakes",
								"offset": 0,
								"slot": "1",
								"type": "t_array(t_struct(Stake)758_storage)dyn_storage"
							}
						],
						"numberOfBytes": "64"
					},
					"t_uint256": {
						"encoding": "inplace",
						"label": "uint256",
						"numberOfBytes": "32"
					}
				}
			},
			"userdoc": {
				"events": {
					"Staked(address,uint256,uint256,uint256)": {
						"notice": "Staked event is triggered whenever a user stakes tokens, address is indexed to make it filterable"
					}
				},
				"kind": "user",
				"methods": {
					"constructor": {
						"notice": "Constructor since this contract is not ment to be used without inheritance push once to stakeholders for it to work proplerly"
					},
					"hasStake(address)": {
						"notice": "hasStake is used to check if a account has stakes and the total amount along with all the seperate stakes"
					}
				},
				"notice": "Stakeable is a contract who is ment to be inherited by other contract that wants Staking capabilities",
				"version": 1
			}
		}
	}
}