{
	"contracts/MetraToken.sol": {
		"Metra": {
			"abi": [
				{
					"inputs": [
						{
							"internalType": "string",
							"name": "",
							"type": "string"
						}
					],
					"stateMutability": "nonpayable",
					"type": "constructor"
				},
				{
					"anonymous": false,
					"inputs": [
						{
							"indexed": true,
							"internalType": "address",
							"name": "owner",
							"type": "address"
						},
						{
							"indexed": true,
							"internalType": "address",
							"name": "spender",
							"type": "address"
						},
						{
							"indexed": false,
							"internalType": "uint256",
							"name": "value",
							"type": "uint256"
						}
					],
					"name": "Approval",
					"type": "event"
				},
				{
					"anonymous": false,
					"inputs": [
						{
							"indexed": true,
							"internalType": "address",
							"name": "previousOwner",
							"type": "address"
						},
						{
							"indexed": true,
							"internalType": "address",
							"name": "newOwner",
							"type": "address"
						}
					],
					"name": "OwnershipTransferred",
					"type": "event"
				},
				{
					"anonymous": false,
					"inputs": [
						{
							"indexed": true,
							"internalType": "address",
							"name": "user",
							"type": "address"
						},
						{
							"indexed": false,
							"internalType": "uint256",
							"name": "amount",
							"type": "uint256"
						},
						{
							"indexed": false,
							"internalType": "uint256",
							"name": "index",
							"type": "uint256"
						},
						{
							"indexed": false,
							"internalType": "uint256",
							"name": "timestamp",
							"type": "uint256"
						}
					],
					"name": "Staked",
					"type": "event"
				},
				{
					"anonymous": false,
					"inputs": [
						{
							"indexed": true,
							"internalType": "address",
							"name": "from",
							"type": "address"
						},
						{
							"indexed": true,
							"internalType": "address",
							"name": "to",
							"type": "address"
						},
						{
							"indexed": false,
							"internalType": "uint256",
							"name": "value",
							"type": "uint256"
						}
					],
					"name": "Transfer",
					"type": "event"
				},
				{
					"inputs": [
						{
							"internalType": "address",
							"name": "owner",
							"type": "address"
						},
						{
							"internalType": "address",
							"name": "spender",
							"type": "address"
						}
					],
					"name": "allowance",
					"outputs": [
						{
							"internalType": "uint256",
							"name": "",
							"type": "uint256"
						}
					],
					"stateMutability": "view",
					"type": "function"
				},
				{
					"inputs": [
						{
							"internalType": "address",
							"name": "spender",
							"type": "address"
						},
						{
							"internalType": "uint256",
							"name": "amount",
							"type": "uint256"
						}
					],
					"name": "approve",
					"outputs": [
						{
							"internalType": "bool",
							"name": "",
							"type": "bool"
						}
					],
					"stateMutability": "nonpayable",
					"type": "function"
				},
				{
					"inputs": [
						{
							"internalType": "address",
							"name": "account",
							"type": "address"
						}
					],
					"name": "balanceOf",
					"outputs": [
						{
							"internalType": "uint256",
							"name": "",
							"type": "uint256"
						}
					],
					"stateMutability": "view",
					"type": "function"
				},
				{
					"inputs": [
						{
							"internalType": "address",
							"name": "account",
							"type": "address"
						},
						{
							"internalType": "uint256",
							"name": "amount",
							"type": "uint256"
						}
					],
					"name": "burn",
					"outputs": [
						{
							"internalType": "bool",
							"name": "",
							"type": "bool"
						}
					],
					"stateMutability": "nonpayable",
					"type": "function"
				},
				{
					"inputs": [],
					"name": "decimals",
					"outputs": [
						{
							"internalType": "uint8",
							"name": "",
							"type": "uint8"
						}
					],
					"stateMutability": "view",
					"type": "function"
				},
				{
					"inputs": [
						{
							"internalType": "address",
							"name": "spender",
							"type": "address"
						},
						{
							"internalType": "uint256",
							"name": "amount",
							"type": "uint256"
						}
					],
					"name": "decreaseAllowance",
					"outputs": [
						{
							"internalType": "bool",
							"name": "",
							"type": "bool"
						}
					],
					"stateMutability": "nonpayable",
					"type": "function"
				},
				{
					"inputs": [],
					"name": "getOwner",
					"outputs": [
						{
							"internalType": "address",
							"name": "",
							"type": "address"
						}
					],
					"stateMutability": "view",
					"type": "function"
				},
				{
					"inputs": [
						{
							"internalType": "address",
							"name": "_staker",
							"type": "address"
						}
					],
					"name": "hasStake",
					"outputs": [
						{
							"components": [
								{
									"internalType": "uint256",
									"name": "total_amount",
									"type": "uint256"
								},
								{
									"components": [
										{
											"internalType": "address",
											"name": "user",
											"type": "address"
										},
										{
											"internalType": "uint256",
											"name": "amount",
											"type": "uint256"
										},
										{
											"internalType": "uint256",
											"name": "since",
											"type": "uint256"
										},
										{
											"internalType": "uint256",
											"name": "claimable",
											"type": "uint256"
										}
									],
									"internalType": "struct Stakeable.Stake[]",
									"name": "stakes",
									"type": "tuple[]"
								}
							],
							"internalType": "struct Stakeable.StakingSummary",
							"name": "",
							"type": "tuple"
						}
					],
					"stateMutability": "view",
					"type": "function"
				},
				{
					"inputs": [
						{
							"internalType": "address",
							"name": "spender",
							"type": "address"
						},
						{
							"internalType": "uint256",
							"name": "amount",
							"type": "uint256"
						}
					],
					"name": "increaseAllowance",
					"outputs": [
						{
							"internalType": "bool",
							"name": "",
							"type": "bool"
						}
					],
					"stateMutability": "nonpayable",
					"type": "function"
				},
				{
					"inputs": [
						{
							"internalType": "address",
							"name": "account",
							"type": "address"
						},
						{
							"internalType": "uint256",
							"name": "amount",
							"type": "uint256"
						}
					],
					"name": "mint",
					"outputs": [
						{
							"internalType": "bool",
							"name": "",
							"type": "bool"
						}
					],
					"stateMutability": "nonpayable",
					"type": "function"
				},
				{
					"inputs": [],
					"name": "name",
					"outputs": [
						{
							"internalType": "string",
							"name": "",
							"type": "string"
						}
					],
					"stateMutability": "view",
					"type": "function"
				},
				{
					"inputs": [],
					"name": "owner",
					"outputs": [
						{
							"internalType": "address",
							"name": "",
							"type": "address"
						}
					],
					"stateMutability": "view",
					"type": "function"
				},
				{
					"inputs": [],
					"name": "renounceOwnership",
					"outputs": [],
					"stateMutability": "nonpayable",
					"type": "function"
				},
				{
					"inputs": [
						{
							"internalType": "uint256",
							"name": "_amount",
							"type": "uint256"
						}
					],
					"name": "stake",
					"outputs": [],
					"stateMutability": "nonpayable",
					"type": "function"
				},
				{
					"inputs": [],
					"name": "symbol",
					"outputs": [
						{
							"internalType": "string",
							"name": "",
							"type": "string"
						}
					],
					"stateMutability": "view",
					"type": "function"
				},
				{
					"inputs": [],
					"name": "totalSupply",
					"outputs": [
						{
							"internalType": "uint256",
							"name": "",
							"type": "uint256"
						}
					],
					"stateMutability": "view",
					"type": "function"
				},
				{
					"inputs": [
						{
							"internalType": "address",
							"name": "recipient",
							"type": "address"
						},
						{
							"internalType": "uint256",
							"name": "amount",
							"type": "uint256"
						}
					],
					"name": "transfer",
					"outputs": [
						{
							"internalType": "bool",
							"name": "",
							"type": "bool"
						}
					],
					"stateMutability": "nonpayable",
					"type": "function"
				},
				{
					"inputs": [
						{
							"internalType": "address",
							"name": "spender",
							"type": "address"
						},
						{
							"internalType": "address",
							"name": "recipient",
							"type": "address"
						},
						{
							"internalType": "uint256",
							"name": "amount",
							"type": "uint256"
						}
					],
					"name": "transferFrom",
					"outputs": [
						{
							"internalType": "bool",
							"name": "",
							"type": "bool"
						}
					],
					"stateMutability": "nonpayable",
					"type": "function"
				},
				{
					"inputs": [
						{
							"internalType": "address",
							"name": "newOwner",
							"type": "address"
						}
					],
					"name": "transferOwnership",
					"outputs": [],
					"stateMutability": "nonpayable",
					"type": "function"
				},
				{
					"inputs": [
						{
							"internalType": "uint256",
							"name": "reward",
							"type": "uint256"
						}
					],
					"name": "withdrawReward",
					"outputs": [],
					"stateMutability": "nonpayable",
					"type": "function"
				},
				{
					"inputs": [
						{
							"internalType": "uint256",
							"name": "amount",
							"type": "uint256"
						},
						{
							"internalType": "uint256",
							"name": "stake_index",
							"type": "uint256"
						}
					],
					"name": "withdrawStake",
					"outputs": [],
					"stateMutability": "nonpayable",
					"type": "function"
				}
			],
			"devdoc": {
				"kind": "dev",
				"methods": {},
				"version": 1
			},
			"evm": {
				"assembly": "    /* \"contracts/MetraToken.sol\":130:9511  contract Metra is Ownable, Stakeable{... */\n  mstore(0x40, 0x80)\n    /* \"contracts/Stakeable.sol\":2222:2231  100000000 */\n  0x05f5e100\n    /* \"contracts/Stakeable.sol\":2189:2231  uint256 internal rewardPerHour = 100000000 */\n  0x03\n  sstore\n    /* \"contracts/MetraToken.sol\":1499:1904  constructor(string memory){... */\n  callvalue\n  dup1\n  iszero\n  tag_1\n  jumpi\n  0x00\n  dup1\n  revert\ntag_1:\n  pop\n  mload(0x40)\n  sub(codesize, bytecodeSize)\n  dup1\n  bytecodeSize\n  dup4\n  codecopy\n  dup2\n  dup2\n  add\n  0x40\n  mstore\n  dup2\n  add\n  swap1\n  tag_2\n  swap2\n  swap1\n  tag_3\n  jump\t// in\ntag_2:\n    /* \"contracts/Ownable.sol\":965:975  msg.sender */\n  caller\n    /* \"contracts/Ownable.sol\":956:962  _owner */\n  0x00\n  dup1\n    /* \"contracts/Ownable.sol\":956:975  _owner = msg.sender */\n  0x0100\n  exp\n  dup2\n  sload\n  dup2\n  0xffffffffffffffffffffffffffffffffffffffff\n  mul\n  not\n  and\n  swap1\n  dup4\n  0xffffffffffffffffffffffffffffffffffffffff\n  and\n  mul\n  or\n  swap1\n  sstore\n  pop\n    /* \"contracts/Ownable.sol\":1023:1029  _owner */\n  0x00\n  dup1\n  sload\n  swap1\n  0x0100\n  exp\n  swap1\n  div\n  0xffffffffffffffffffffffffffffffffffffffff\n  and\n    /* \"contracts/Ownable.sol\":990:1030  OwnershipTransferred(address(0), _owner) */\n  0xffffffffffffffffffffffffffffffffffffffff\n  and\n    /* \"contracts/Ownable.sol\":1019:1020  0 */\n  0x00\n    /* \"contracts/Ownable.sol\":990:1030  OwnershipTransferred(address(0), _owner) */\n  0xffffffffffffffffffffffffffffffffffffffff\n  and\n  0x8be0079c531659141344cd1fd0a4f28419497f9722a3daafe3b4186f6b6457e0\n  mload(0x40)\n  mload(0x40)\n  dup1\n  swap2\n  sub\n  swap1\n  log3\n    /* \"contracts/Stakeable.sol\":463:475  stakeholders */\n  0x01\n    /* \"contracts/Stakeable.sol\":463:482  stakeholders.push() */\n  dup1\n  dup2\n  0x01\n  dup2\n  sload\n  add\n  dup1\n  dup3\n  sstore\n  dup1\n  swap2\n  pop\n  pop\n  sub\n  swap1\n  0x00\n  mstore\n  keccak256(0x00, 0x20)\n  swap1\n  pop\n  pop\n    /* \"contracts/MetraToken.sol\":1533:1554  _name = \"Metra Token\" */\n  mload(0x40)\n  dup1\n  0x40\n  add\n  0x40\n  mstore\n  dup1\n  0x0b\n  dup2\n  mstore\n  0x20\n  add\n  0x4d6574726120546f6b656e000000000000000000000000000000000000000000\n  dup2\n  mstore\n  pop\n    /* \"contracts/MetraToken.sol\":1533:1538  _name */\n  0x07\n    /* \"contracts/MetraToken.sol\":1533:1554  _name = \"Metra Token\" */\n  swap1\n  dup1\n  mload\n  swap1\n  0x20\n  add\n  swap1\n  tag_11\n  swap3\n  swap2\n  swap1\n  tag_12\n  jump\t// in\ntag_11:\n  pop\n    /* \"contracts/MetraToken.sol\":1562:1579  _symbol = \"METRA\" */\n  mload(0x40)\n  dup1\n  0x40\n  add\n  0x40\n  mstore\n  dup1\n  0x05\n  dup2\n  mstore\n  0x20\n  add\n  0x4d45545241000000000000000000000000000000000000000000000000000000\n  dup2\n  mstore\n  pop\n    /* \"contracts/MetraToken.sol\":1562:1569  _symbol */\n  0x06\n    /* \"contracts/MetraToken.sol\":1562:1579  _symbol = \"METRA\" */\n  swap1\n  dup1\n  mload\n  swap1\n  0x20\n  add\n  swap1\n  tag_13\n  swap3\n  swap2\n  swap1\n  tag_12\n  jump\t// in\ntag_13:\n  pop\n    /* \"contracts/MetraToken.sol\":1599:1601  18 */\n  0x12\n    /* \"contracts/MetraToken.sol\":1587:1596  _decimals */\n  0x05\n  0x00\n    /* \"contracts/MetraToken.sol\":1587:1601  _decimals = 18 */\n  0x0100\n  exp\n  dup2\n  sload\n  dup2\n  0xff\n  mul\n  not\n  and\n  swap1\n  dup4\n  0xff\n  and\n  mul\n  or\n  swap1\n  sstore\n  pop\n    /* \"contracts/MetraToken.sol\":1624:1644  10000000000 * 10**18 */\n  0x204fce5e3e25026110000000\n    /* \"contracts/MetraToken.sol\":1609:1621  _totalSupply */\n  0x04\n    /* \"contracts/MetraToken.sol\":1609:1644  _totalSupply = 10000000000 * 10**18 */\n  dup2\n  swap1\n  sstore\n  pop\n    /* \"contracts/MetraToken.sol\":1741:1753  _totalSupply */\n  sload(0x04)\n    /* \"contracts/MetraToken.sol\":1717:1726  _balances */\n  0x08\n    /* \"contracts/MetraToken.sol\":1717:1738  _balances[msg.sender] */\n  0x00\n    /* \"contracts/MetraToken.sol\":1727:1737  msg.sender */\n  caller\n    /* \"contracts/MetraToken.sol\":1717:1738  _balances[msg.sender] */\n  0xffffffffffffffffffffffffffffffffffffffff\n  and\n  0xffffffffffffffffffffffffffffffffffffffff\n  and\n  dup2\n  mstore\n  0x20\n  add\n  swap1\n  dup2\n  mstore\n  0x20\n  add\n  0x00\n  keccak256\n    /* \"contracts/MetraToken.sol\":1717:1753  _balances[msg.sender] = _totalSupply */\n  dup2\n  swap1\n  sstore\n  pop\n    /* \"contracts/MetraToken.sol\":1874:1884  msg.sender */\n  caller\n    /* \"contracts/MetraToken.sol\":1853:1899  Transfer(address(0), msg.sender, _totalSupply) */\n  0xffffffffffffffffffffffffffffffffffffffff\n  and\n    /* \"contracts/MetraToken.sol\":1870:1871  0 */\n  0x00\n    /* \"contracts/MetraToken.sol\":1853:1899  Transfer(address(0), msg.sender, _totalSupply) */\n  0xffffffffffffffffffffffffffffffffffffffff\n  and\n  0xddf252ad1be2c89b69c2b068fc378daa952ba7f163c4a11628f55a4df523b3ef\n    /* \"contracts/MetraToken.sol\":1886:1898  _totalSupply */\n  sload(0x04)\n    /* \"contracts/MetraToken.sol\":1853:1899  Transfer(address(0), msg.sender, _totalSupply) */\n  mload(0x40)\n  tag_14\n  swap2\n  swap1\n  tag_15\n  jump\t// in\ntag_14:\n  mload(0x40)\n  dup1\n  swap2\n  sub\n  swap1\n  log3\n    /* \"contracts/MetraToken.sol\":1499:1904  constructor(string memory){... */\n  pop\n    /* \"contracts/MetraToken.sol\":130:9511  contract Metra is Ownable, Stakeable{... */\n  jump(tag_16)\ntag_12:\n  dup3\n  dup1\n  sload\n  tag_17\n  swap1\n  tag_18\n  jump\t// in\ntag_17:\n  swap1\n  0x00\n  mstore\n  keccak256(0x00, 0x20)\n  swap1\n  0x1f\n  add\n  0x20\n  swap1\n  div\n  dup2\n  add\n  swap3\n  dup3\n  tag_20\n  jumpi\n  0x00\n  dup6\n  sstore\n  jump(tag_19)\ntag_20:\n  dup3\n  0x1f\n  lt\n  tag_21\n  jumpi\n  dup1\n  mload\n  not(0xff)\n  and\n  dup4\n  dup1\n  add\n  or\n  dup6\n  sstore\n  jump(tag_19)\ntag_21:\n  dup3\n  dup1\n  add\n  0x01\n  add\n  dup6\n  sstore\n  dup3\n  iszero\n  tag_19\n  jumpi\n  swap2\n  dup3\n  add\ntag_22:\n  dup3\n  dup2\n  gt\n  iszero\n  tag_23\n  jumpi\n  dup3\n  mload\n  dup3\n  sstore\n  swap2\n  0x20\n  add\n  swap2\n  swap1\n  0x01\n  add\n  swap1\n  jump(tag_22)\ntag_23:\ntag_19:\n  pop\n  swap1\n  pop\n  tag_24\n  swap2\n  swap1\n  tag_25\n  jump\t// in\ntag_24:\n  pop\n  swap1\n  jump\t// out\ntag_25:\ntag_26:\n  dup1\n  dup3\n  gt\n  iszero\n  tag_27\n  jumpi\n  0x00\n  dup2\n  0x00\n  swap1\n  sstore\n  pop\n  0x01\n  add\n  jump(tag_26)\ntag_27:\n  pop\n  swap1\n  jump\t// out\n    /* \"#utility.yul\":7:428   */\ntag_29:\n    /* \"#utility.yul\":96:101   */\n  0x00\n    /* \"#utility.yul\":121:187   */\n  tag_31\n    /* \"#utility.yul\":137:186   */\n  tag_32\n    /* \"#utility.yul\":179:185   */\n  dup5\n    /* \"#utility.yul\":137:186   */\n  tag_33\n  jump\t// in\ntag_32:\n    /* \"#utility.yul\":121:187   */\n  tag_34\n  jump\t// in\ntag_31:\n    /* \"#utility.yul\":112:187   */\n  swap1\n  pop\n    /* \"#utility.yul\":210:216   */\n  dup3\n    /* \"#utility.yul\":203:208   */\n  dup2\n    /* \"#utility.yul\":196:217   */\n  mstore\n    /* \"#utility.yul\":248:252   */\n  0x20\n    /* \"#utility.yul\":241:246   */\n  dup2\n    /* \"#utility.yul\":237:253   */\n  add\n    /* \"#utility.yul\":286:289   */\n  dup5\n    /* \"#utility.yul\":277:283   */\n  dup5\n    /* \"#utility.yul\":272:275   */\n  dup5\n    /* \"#utility.yul\":268:284   */\n  add\n    /* \"#utility.yul\":265:290   */\n  gt\n    /* \"#utility.yul\":262:374   */\n  iszero\n  tag_35\n  jumpi\n    /* \"#utility.yul\":293:372   */\n  tag_36\n  tag_37\n  jump\t// in\ntag_36:\n    /* \"#utility.yul\":262:374   */\ntag_35:\n    /* \"#utility.yul\":383:422   */\n  tag_38\n    /* \"#utility.yul\":415:421   */\n  dup5\n    /* \"#utility.yul\":410:413   */\n  dup3\n    /* \"#utility.yul\":405:408   */\n  dup6\n    /* \"#utility.yul\":383:422   */\n  tag_39\n  jump\t// in\ntag_38:\n    /* \"#utility.yul\":102:428   */\n  pop\n    /* \"#utility.yul\":7:428   */\n  swap4\n  swap3\n  pop\n  pop\n  pop\n  jump\t// out\n    /* \"#utility.yul\":448:803   */\ntag_40:\n    /* \"#utility.yul\":515:520   */\n  0x00\n    /* \"#utility.yul\":564:567   */\n  dup3\n    /* \"#utility.yul\":557:561   */\n  0x1f\n    /* \"#utility.yul\":549:555   */\n  dup4\n    /* \"#utility.yul\":545:562   */\n  add\n    /* \"#utility.yul\":541:568   */\n  slt\n    /* \"#utility.yul\":531:653   */\n  tag_42\n  jumpi\n    /* \"#utility.yul\":572:651   */\n  tag_43\n  tag_44\n  jump\t// in\ntag_43:\n    /* \"#utility.yul\":531:653   */\ntag_42:\n    /* \"#utility.yul\":682:688   */\n  dup2\n    /* \"#utility.yul\":676:689   */\n  mload\n    /* \"#utility.yul\":707:797   */\n  tag_45\n    /* \"#utility.yul\":793:796   */\n  dup5\n    /* \"#utility.yul\":785:791   */\n  dup3\n    /* \"#utility.yul\":778:782   */\n  0x20\n    /* \"#utility.yul\":770:776   */\n  dup7\n    /* \"#utility.yul\":766:783   */\n  add\n    /* \"#utility.yul\":707:797   */\n  tag_29\n  jump\t// in\ntag_45:\n    /* \"#utility.yul\":698:797   */\n  swap2\n  pop\n    /* \"#utility.yul\":521:803   */\n  pop\n    /* \"#utility.yul\":448:803   */\n  swap3\n  swap2\n  pop\n  pop\n  jump\t// out\n    /* \"#utility.yul\":809:1333   */\ntag_3:\n    /* \"#utility.yul\":889:895   */\n  0x00\n    /* \"#utility.yul\":938:940   */\n  0x20\n    /* \"#utility.yul\":926:935   */\n  dup3\n    /* \"#utility.yul\":917:924   */\n  dup5\n    /* \"#utility.yul\":913:936   */\n  sub\n    /* \"#utility.yul\":909:941   */\n  slt\n    /* \"#utility.yul\":906:1025   */\n  iszero\n  tag_47\n  jumpi\n    /* \"#utility.yul\":944:1023   */\n  tag_48\n  tag_49\n  jump\t// in\ntag_48:\n    /* \"#utility.yul\":906:1025   */\ntag_47:\n    /* \"#utility.yul\":1085:1086   */\n  0x00\n    /* \"#utility.yul\":1074:1083   */\n  dup3\n    /* \"#utility.yul\":1070:1087   */\n  add\n    /* \"#utility.yul\":1064:1088   */\n  mload\n    /* \"#utility.yul\":1115:1133   */\n  0xffffffffffffffff\n    /* \"#utility.yul\":1107:1113   */\n  dup2\n    /* \"#utility.yul\":1104:1134   */\n  gt\n    /* \"#utility.yul\":1101:1218   */\n  iszero\n  tag_50\n  jumpi\n    /* \"#utility.yul\":1137:1216   */\n  tag_51\n  tag_52\n  jump\t// in\ntag_51:\n    /* \"#utility.yul\":1101:1218   */\ntag_50:\n    /* \"#utility.yul\":1242:1316   */\n  tag_53\n    /* \"#utility.yul\":1308:1315   */\n  dup5\n    /* \"#utility.yul\":1299:1305   */\n  dup3\n    /* \"#utility.yul\":1288:1297   */\n  dup6\n    /* \"#utility.yul\":1284:1306   */\n  add\n    /* \"#utility.yul\":1242:1316   */\n  tag_40\n  jump\t// in\ntag_53:\n    /* \"#utility.yul\":1232:1316   */\n  swap2\n  pop\n    /* \"#utility.yul\":1035:1326   */\n  pop\n    /* \"#utility.yul\":809:1333   */\n  swap3\n  swap2\n  pop\n  pop\n  jump\t// out\n    /* \"#utility.yul\":1339:1457   */\ntag_54:\n    /* \"#utility.yul\":1426:1450   */\n  tag_56\n    /* \"#utility.yul\":1444:1449   */\n  dup2\n    /* \"#utility.yul\":1426:1450   */\n  tag_57\n  jump\t// in\ntag_56:\n    /* \"#utility.yul\":1421:1424   */\n  dup3\n    /* \"#utility.yul\":1414:1451   */\n  mstore\n    /* \"#utility.yul\":1339:1457   */\n  pop\n  pop\n  jump\t// out\n    /* \"#utility.yul\":1463:1685   */\ntag_15:\n    /* \"#utility.yul\":1556:1560   */\n  0x00\n    /* \"#utility.yul\":1594:1596   */\n  0x20\n    /* \"#utility.yul\":1583:1592   */\n  dup3\n    /* \"#utility.yul\":1579:1597   */\n  add\n    /* \"#utility.yul\":1571:1597   */\n  swap1\n  pop\n    /* \"#utility.yul\":1607:1678   */\n  tag_59\n    /* \"#utility.yul\":1675:1676   */\n  0x00\n    /* \"#utility.yul\":1664:1673   */\n  dup4\n    /* \"#utility.yul\":1660:1677   */\n  add\n    /* \"#utility.yul\":1651:1657   */\n  dup5\n    /* \"#utility.yul\":1607:1678   */\n  tag_54\n  jump\t// in\ntag_59:\n    /* \"#utility.yul\":1463:1685   */\n  swap3\n  swap2\n  pop\n  pop\n  jump\t// out\n    /* \"#utility.yul\":1691:1820   */\ntag_34:\n    /* \"#utility.yul\":1725:1731   */\n  0x00\n    /* \"#utility.yul\":1752:1772   */\n  tag_61\n  tag_62\n  jump\t// in\ntag_61:\n    /* \"#utility.yul\":1742:1772   */\n  swap1\n  pop\n    /* \"#utility.yul\":1781:1814   */\n  tag_63\n    /* \"#utility.yul\":1809:1813   */\n  dup3\n    /* \"#utility.yul\":1801:1807   */\n  dup3\n    /* \"#utility.yul\":1781:1814   */\n  tag_64\n  jump\t// in\ntag_63:\n    /* \"#utility.yul\":1691:1820   */\n  swap2\n  swap1\n  pop\n  jump\t// out\n    /* \"#utility.yul\":1826:1901   */\ntag_62:\n    /* \"#utility.yul\":1859:1865   */\n  0x00\n    /* \"#utility.yul\":1892:1894   */\n  0x40\n    /* \"#utility.yul\":1886:1895   */\n  mload\n    /* \"#utility.yul\":1876:1895   */\n  swap1\n  pop\n    /* \"#utility.yul\":1826:1901   */\n  swap1\n  jump\t// out\n    /* \"#utility.yul\":1907:2215   */\ntag_33:\n    /* \"#utility.yul\":1969:1973   */\n  0x00\n    /* \"#utility.yul\":2059:2077   */\n  0xffffffffffffffff\n    /* \"#utility.yul\":2051:2057   */\n  dup3\n    /* \"#utility.yul\":2048:2078   */\n  gt\n    /* \"#utility.yul\":2045:2101   */\n  iszero\n  tag_67\n  jumpi\n    /* \"#utility.yul\":2081:2099   */\n  tag_68\n  tag_69\n  jump\t// in\ntag_68:\n    /* \"#utility.yul\":2045:2101   */\ntag_67:\n    /* \"#utility.yul\":2119:2148   */\n  tag_70\n    /* \"#utility.yul\":2141:2147   */\n  dup3\n    /* \"#utility.yul\":2119:2148   */\n  tag_71\n  jump\t// in\ntag_70:\n    /* \"#utility.yul\":2111:2148   */\n  swap1\n  pop\n    /* \"#utility.yul\":2203:2207   */\n  0x20\n    /* \"#utility.yul\":2197:2201   */\n  dup2\n    /* \"#utility.yul\":2193:2208   */\n  add\n    /* \"#utility.yul\":2185:2208   */\n  swap1\n  pop\n    /* \"#utility.yul\":1907:2215   */\n  swap2\n  swap1\n  pop\n  jump\t// out\n    /* \"#utility.yul\":2221:2298   */\ntag_57:\n    /* \"#utility.yul\":2258:2265   */\n  0x00\n    /* \"#utility.yul\":2287:2292   */\n  dup2\n    /* \"#utility.yul\":2276:2292   */\n  swap1\n  pop\n    /* \"#utility.yul\":2221:2298   */\n  swap2\n  swap1\n  pop\n  jump\t// out\n    /* \"#utility.yul\":2304:2611   */\ntag_39:\n    /* \"#utility.yul\":2372:2373   */\n  0x00\n    /* \"#utility.yul\":2382:2495   */\ntag_74:\n    /* \"#utility.yul\":2396:2402   */\n  dup4\n    /* \"#utility.yul\":2393:2394   */\n  dup2\n    /* \"#utility.yul\":2390:2403   */\n  lt\n    /* \"#utility.yul\":2382:2495   */\n  iszero\n  tag_76\n  jumpi\n    /* \"#utility.yul\":2481:2482   */\n  dup1\n    /* \"#utility.yul\":2476:2479   */\n  dup3\n    /* \"#utility.yul\":2472:2483   */\n  add\n    /* \"#utility.yul\":2466:2484   */\n  mload\n    /* \"#utility.yul\":2462:2463   */\n  dup2\n    /* \"#utility.yul\":2457:2460   */\n  dup5\n    /* \"#utility.yul\":2453:2464   */\n  add\n    /* \"#utility.yul\":2446:2485   */\n  mstore\n    /* \"#utility.yul\":2418:2420   */\n  0x20\n    /* \"#utility.yul\":2415:2416   */\n  dup2\n    /* \"#utility.yul\":2411:2421   */\n  add\n    /* \"#utility.yul\":2406:2421   */\n  swap1\n  pop\n    /* \"#utility.yul\":2382:2495   */\n  jump(tag_74)\ntag_76:\n    /* \"#utility.yul\":2513:2519   */\n  dup4\n    /* \"#utility.yul\":2510:2511   */\n  dup2\n    /* \"#utility.yul\":2507:2520   */\n  gt\n    /* \"#utility.yul\":2504:2605   */\n  iszero\n  tag_77\n  jumpi\n    /* \"#utility.yul\":2593:2594   */\n  0x00\n    /* \"#utility.yul\":2584:2590   */\n  dup5\n    /* \"#utility.yul\":2579:2582   */\n  dup5\n    /* \"#utility.yul\":2575:2591   */\n  add\n    /* \"#utility.yul\":2568:2595   */\n  mstore\n    /* \"#utility.yul\":2504:2605   */\ntag_77:\n    /* \"#utility.yul\":2353:2611   */\n  pop\n    /* \"#utility.yul\":2304:2611   */\n  pop\n  pop\n  pop\n  jump\t// out\n    /* \"#utility.yul\":2617:2937   */\ntag_18:\n    /* \"#utility.yul\":2661:2667   */\n  0x00\n    /* \"#utility.yul\":2698:2699   */\n  0x02\n    /* \"#utility.yul\":2692:2696   */\n  dup3\n    /* \"#utility.yul\":2688:2700   */\n  div\n    /* \"#utility.yul\":2678:2700   */\n  swap1\n  pop\n    /* \"#utility.yul\":2745:2746   */\n  0x01\n    /* \"#utility.yul\":2739:2743   */\n  dup3\n    /* \"#utility.yul\":2735:2747   */\n  and\n    /* \"#utility.yul\":2766:2784   */\n  dup1\n    /* \"#utility.yul\":2756:2837   */\n  tag_79\n  jumpi\n    /* \"#utility.yul\":2822:2826   */\n  0x7f\n    /* \"#utility.yul\":2814:2820   */\n  dup3\n    /* \"#utility.yul\":2810:2827   */\n  and\n    /* \"#utility.yul\":2800:2827   */\n  swap2\n  pop\n    /* \"#utility.yul\":2756:2837   */\ntag_79:\n    /* \"#utility.yul\":2884:2886   */\n  0x20\n    /* \"#utility.yul\":2876:2882   */\n  dup3\n    /* \"#utility.yul\":2873:2887   */\n  lt\n    /* \"#utility.yul\":2853:2871   */\n  dup2\n    /* \"#utility.yul\":2850:2888   */\n  eq\n    /* \"#utility.yul\":2847:2931   */\n  iszero\n  tag_80\n  jumpi\n    /* \"#utility.yul\":2903:2921   */\n  tag_81\n  tag_82\n  jump\t// in\ntag_81:\n    /* \"#utility.yul\":2847:2931   */\ntag_80:\n    /* \"#utility.yul\":2668:2937   */\n  pop\n    /* \"#utility.yul\":2617:2937   */\n  swap2\n  swap1\n  pop\n  jump\t// out\n    /* \"#utility.yul\":2943:3224   */\ntag_64:\n    /* \"#utility.yul\":3026:3053   */\n  tag_84\n    /* \"#utility.yul\":3048:3052   */\n  dup3\n    /* \"#utility.yul\":3026:3053   */\n  tag_71\n  jump\t// in\ntag_84:\n    /* \"#utility.yul\":3018:3024   */\n  dup2\n    /* \"#utility.yul\":3014:3054   */\n  add\n    /* \"#utility.yul\":3156:3162   */\n  dup2\n    /* \"#utility.yul\":3144:3154   */\n  dup2\n    /* \"#utility.yul\":3141:3163   */\n  lt\n    /* \"#utility.yul\":3120:3138   */\n  0xffffffffffffffff\n    /* \"#utility.yul\":3108:3118   */\n  dup3\n    /* \"#utility.yul\":3105:3139   */\n  gt\n    /* \"#utility.yul\":3102:3164   */\n  or\n    /* \"#utility.yul\":3099:3187   */\n  iszero\n  tag_85\n  jumpi\n    /* \"#utility.yul\":3167:3185   */\n  tag_86\n  tag_69\n  jump\t// in\ntag_86:\n    /* \"#utility.yul\":3099:3187   */\ntag_85:\n    /* \"#utility.yul\":3207:3217   */\n  dup1\n    /* \"#utility.yul\":3203:3205   */\n  0x40\n    /* \"#utility.yul\":3196:3218   */\n  mstore\n    /* \"#utility.yul\":2986:3224   */\n  pop\n    /* \"#utility.yul\":2943:3224   */\n  pop\n  pop\n  jump\t// out\n    /* \"#utility.yul\":3230:3410   */\ntag_82:\n    /* \"#utility.yul\":3278:3355   */\n  0x4e487b7100000000000000000000000000000000000000000000000000000000\n    /* \"#utility.yul\":3275:3276   */\n  0x00\n    /* \"#utility.yul\":3268:3356   */\n  mstore\n    /* \"#utility.yul\":3375:3379   */\n  0x22\n    /* \"#utility.yul\":3372:3373   */\n  0x04\n    /* \"#utility.yul\":3365:3380   */\n  mstore\n    /* \"#utility.yul\":3399:3403   */\n  0x24\n    /* \"#utility.yul\":3396:3397   */\n  0x00\n    /* \"#utility.yul\":3389:3404   */\n  revert\n    /* \"#utility.yul\":3416:3596   */\ntag_69:\n    /* \"#utility.yul\":3464:3541   */\n  0x4e487b7100000000000000000000000000000000000000000000000000000000\n    /* \"#utility.yul\":3461:3462   */\n  0x00\n    /* \"#utility.yul\":3454:3542   */\n  mstore\n    /* \"#utility.yul\":3561:3565   */\n  0x41\n    /* \"#utility.yul\":3558:3559   */\n  0x04\n    /* \"#utility.yul\":3551:3566   */\n  mstore\n    /* \"#utility.yul\":3585:3589   */\n  0x24\n    /* \"#utility.yul\":3582:3583   */\n  0x00\n    /* \"#utility.yul\":3575:3590   */\n  revert\n    /* \"#utility.yul\":3602:3719   */\ntag_44:\n    /* \"#utility.yul\":3711:3712   */\n  0x00\n    /* \"#utility.yul\":3708:3709   */\n  dup1\n    /* \"#utility.yul\":3701:3713   */\n  revert\n    /* \"#utility.yul\":3725:3842   */\ntag_37:\n    /* \"#utility.yul\":3834:3835   */\n  0x00\n    /* \"#utility.yul\":3831:3832   */\n  dup1\n    /* \"#utility.yul\":3824:3836   */\n  revert\n    /* \"#utility.yul\":3848:3965   */\ntag_52:\n    /* \"#utility.yul\":3957:3958   */\n  0x00\n    /* \"#utility.yul\":3954:3955   */\n  dup1\n    /* \"#utility.yul\":3947:3959   */\n  revert\n    /* \"#utility.yul\":3971:4088   */\ntag_49:\n    /* \"#utility.yul\":4080:4081   */\n  0x00\n    /* \"#utility.yul\":4077:4078   */\n  dup1\n    /* \"#utility.yul\":4070:4082   */\n  revert\n    /* \"#utility.yul\":4094:4196   */\ntag_71:\n    /* \"#utility.yul\":4135:4141   */\n  0x00\n    /* \"#utility.yul\":4186:4188   */\n  0x1f\n    /* \"#utility.yul\":4182:4189   */\n  not\n    /* \"#utility.yul\":4177:4179   */\n  0x1f\n    /* \"#utility.yul\":4170:4175   */\n  dup4\n    /* \"#utility.yul\":4166:4180   */\n  add\n    /* \"#utility.yul\":4162:4190   */\n  and\n    /* \"#utility.yul\":4152:4190   */\n  swap1\n  pop\n    /* \"#utility.yul\":4094:4196   */\n  swap2\n  swap1\n  pop\n  jump\t// out\n    /* \"contracts/MetraToken.sol\":130:9511  contract Metra is Ownable, Stakeable{... */\ntag_16:\n  dataSize(sub_0)\n  dup1\n  dataOffset(sub_0)\n  0x00\n  codecopy\n  0x00\n  return\nstop\n\nsub_0: assembly {\n        /* \"contracts/MetraToken.sol\":130:9511  contract Metra is Ownable, Stakeable{... */\n      mstore(0x40, 0x80)\n      callvalue\n      dup1\n      iszero\n      tag_1\n      jumpi\n      0x00\n      dup1\n      revert\n    tag_1:\n      pop\n      jumpi(tag_2, lt(calldatasize, 0x04))\n      shr(0xe0, calldataload(0x00))\n      dup1\n      0x893d20e8\n      gt\n      tag_24\n      jumpi\n      dup1\n      0xa694fc3a\n      gt\n      tag_25\n      jumpi\n      dup1\n      0xa694fc3a\n      eq\n      tag_18\n      jumpi\n      dup1\n      0xa9059cbb\n      eq\n      tag_19\n      jumpi\n      dup1\n      0xdd62ed3e\n      eq\n      tag_20\n      jumpi\n      dup1\n      0xe73e14bf\n      eq\n      tag_21\n      jumpi\n      dup1\n      0xf1fdf469\n      eq\n      tag_22\n      jumpi\n      dup1\n      0xf2fde38b\n      eq\n      tag_23\n      jumpi\n      jump(tag_2)\n    tag_25:\n      dup1\n      0x893d20e8\n      eq\n      tag_13\n      jumpi\n      dup1\n      0x8da5cb5b\n      eq\n      tag_14\n      jumpi\n      dup1\n      0x95d89b41\n      eq\n      tag_15\n      jumpi\n      dup1\n      0x9dc29fac\n      eq\n      tag_16\n      jumpi\n      dup1\n      0xa457c2d7\n      eq\n      tag_17\n      jumpi\n      jump(tag_2)\n    tag_24:\n      dup1\n      0x39509351\n      gt\n      tag_26\n      jumpi\n      dup1\n      0x39509351\n      eq\n      tag_8\n      jumpi\n      dup1\n      0x40c10f19\n      eq\n      tag_9\n      jumpi\n      dup1\n      0x523a3f08\n      eq\n      tag_10\n      jumpi\n      dup1\n      0x70a08231\n      eq\n      tag_11\n      jumpi\n      dup1\n      0x715018a6\n      eq\n      tag_12\n      jumpi\n      jump(tag_2)\n    tag_26:\n      dup1\n      0x06fdde03\n      eq\n      tag_3\n      jumpi\n      dup1\n      0x095ea7b3\n      eq\n      tag_4\n      jumpi\n      dup1\n      0x18160ddd\n      eq\n      tag_5\n      jumpi\n      dup1\n      0x23b872dd\n      eq\n      tag_6\n      jumpi\n      dup1\n      0x313ce567\n      eq\n      tag_7\n      jumpi\n    tag_2:\n      0x00\n      dup1\n      revert\n        /* \"contracts/MetraToken.sol\":2295:2371  function name() external view returns (string memory){... */\n    tag_3:\n      tag_27\n      tag_28\n      jump\t// in\n    tag_27:\n      mload(0x40)\n      tag_29\n      swap2\n      swap1\n      tag_30\n      jump\t// in\n    tag_29:\n      mload(0x40)\n      dup1\n      swap2\n      sub\n      swap1\n      return\n        /* \"contracts/MetraToken.sol\":6485:6627  function approve(address spender, uint256 amount) external returns (bool) {... */\n    tag_4:\n      tag_31\n      0x04\n      dup1\n      calldatasize\n      sub\n      dup2\n      add\n      swap1\n      tag_32\n      swap2\n      swap1\n      tag_33\n      jump\t// in\n    tag_32:\n      tag_34\n      jump\t// in\n    tag_31:\n      mload(0x40)\n      tag_35\n      swap2\n      swap1\n      tag_36\n      jump\t// in\n    tag_35:\n      mload(0x40)\n      dup1\n      swap2\n      sub\n      swap1\n      return\n        /* \"contracts/MetraToken.sol\":2455:2539  function totalSupply() external view returns (uint256){... */\n    tag_5:\n      tag_37\n      tag_38\n      jump\t// in\n    tag_37:\n      mload(0x40)\n      tag_39\n      swap2\n      swap1\n      tag_40\n      jump\t// in\n    tag_39:\n      mload(0x40)\n      dup1\n      swap2\n      sub\n      swap1\n      return\n        /* \"contracts/MetraToken.sol\":7515:8007  function transferFrom(address spender, address recipient, uint256 amount) external returns(bool){... */\n    tag_6:\n      tag_41\n      0x04\n      dup1\n      calldatasize\n      sub\n      dup2\n      add\n      swap1\n      tag_42\n      swap2\n      swap1\n      tag_43\n      jump\t// in\n    tag_42:\n      tag_44\n      jump\t// in\n    tag_41:\n      mload(0x40)\n      tag_45\n      swap2\n      swap1\n      tag_36\n      jump\t// in\n    tag_45:\n      mload(0x40)\n      dup1\n      swap2\n      sub\n      swap1\n      return\n        /* \"contracts/MetraToken.sol\":2010:2087  function decimals() external view returns (uint8) {... */\n    tag_7:\n      tag_46\n      tag_47\n      jump\t// in\n    tag_46:\n      mload(0x40)\n      tag_48\n      swap2\n      swap1\n      tag_49\n      jump\t// in\n    tag_48:\n      mload(0x40)\n      dup1\n      swap2\n      sub\n      swap1\n      return\n        /* \"contracts/MetraToken.sol\":8126:8312  function increaseAllowance(address spender, uint256 amount) public returns (bool) {... */\n    tag_8:\n      tag_50\n      0x04\n      dup1\n      calldatasize\n      sub\n      dup2\n      add\n      swap1\n      tag_51\n      swap2\n      swap1\n      tag_33\n      jump\t// in\n    tag_51:\n      tag_52\n      jump\t// in\n    tag_50:\n      mload(0x40)\n      tag_53\n      swap2\n      swap1\n      tag_36\n      jump\t// in\n    tag_53:\n      mload(0x40)\n      dup1\n      swap2\n      sub\n      swap1\n      return\n        /* \"contracts/MetraToken.sol\":4671:4798  function mint(address account, uint256 amount) public onlyOwner returns(bool){... */\n    tag_9:\n      tag_54\n      0x04\n      dup1\n      calldatasize\n      sub\n      dup2\n      add\n      swap1\n      tag_55\n      swap2\n      swap1\n      tag_33\n      jump\t// in\n    tag_55:\n      tag_56\n      jump\t// in\n    tag_54:\n      mload(0x40)\n      tag_57\n      swap2\n      swap1\n      tag_36\n      jump\t// in\n    tag_57:\n      mload(0x40)\n      dup1\n      swap2\n      sub\n      swap1\n      return\n        /* \"contracts/MetraToken.sol\":9347:9507  function withdrawReward(uint256 reward)  public {... */\n    tag_10:\n      tag_58\n      0x04\n      dup1\n      calldatasize\n      sub\n      dup2\n      add\n      swap1\n      tag_59\n      swap2\n      swap1\n      tag_60\n      jump\t// in\n    tag_59:\n      tag_61\n      jump\t// in\n    tag_58:\n      stop\n        /* \"contracts/MetraToken.sol\":2629:2733  function balanceOf(address account) external view returns (uint256) {... */\n    tag_11:\n      tag_62\n      0x04\n      dup1\n      calldatasize\n      sub\n      dup2\n      add\n      swap1\n      tag_63\n      swap2\n      swap1\n      tag_64\n      jump\t// in\n    tag_63:\n      tag_65\n      jump\t// in\n    tag_62:\n      mload(0x40)\n      tag_66\n      swap2\n      swap1\n      tag_40\n      jump\t// in\n    tag_66:\n      mload(0x40)\n      dup1\n      swap2\n      sub\n      swap1\n      return\n        /* \"contracts/Ownable.sol\":1461:1598  function renounceOwnership() public onlyOwner {... */\n    tag_12:\n      tag_67\n      tag_68\n      jump\t// in\n    tag_67:\n      stop\n        /* \"contracts/MetraToken.sol\":6069:6146  function getOwner() external view returns (address) {... */\n    tag_13:\n      tag_69\n      tag_70\n      jump\t// in\n    tag_69:\n      mload(0x40)\n      tag_71\n      swap2\n      swap1\n      tag_72\n      jump\t// in\n    tag_71:\n      mload(0x40)\n      dup1\n      swap2\n      sub\n      swap1\n      return\n        /* \"contracts/Ownable.sol\":1137:1214  function owner() public view returns(address) {... */\n    tag_14:\n      tag_73\n      tag_74\n      jump\t// in\n    tag_73:\n      mload(0x40)\n      tag_75\n      swap2\n      swap1\n      tag_72\n      jump\t// in\n    tag_75:\n      mload(0x40)\n      dup1\n      swap2\n      sub\n      swap1\n      return\n        /* \"contracts/MetraToken.sol\":2152:2232  function symbol() external view returns (string memory){... */\n    tag_15:\n      tag_76\n      tag_77\n      jump\t// in\n    tag_76:\n      mload(0x40)\n      tag_78\n      swap2\n      swap1\n      tag_30\n      jump\t// in\n    tag_78:\n      mload(0x40)\n      dup1\n      swap2\n      sub\n      swap1\n      return\n        /* \"contracts/MetraToken.sol\":4372:4500  function burn(address account, uint256 amount) public onlyOwner returns(bool) {... */\n    tag_16:\n      tag_79\n      0x04\n      dup1\n      calldatasize\n      sub\n      dup2\n      add\n      swap1\n      tag_80\n      swap2\n      swap1\n      tag_33\n      jump\t// in\n    tag_80:\n      tag_81\n      jump\t// in\n    tag_79:\n      mload(0x40)\n      tag_82\n      swap2\n      swap1\n      tag_36\n      jump\t// in\n    tag_82:\n      mload(0x40)\n      dup1\n      swap2\n      sub\n      swap1\n      return\n        /* \"contracts/MetraToken.sol\":8434:8620  function decreaseAllowance(address spender, uint256 amount) public returns (bool) {... */\n    tag_17:\n      tag_83\n      0x04\n      dup1\n      calldatasize\n      sub\n      dup2\n      add\n      swap1\n      tag_84\n      swap2\n      swap1\n      tag_33\n      jump\t// in\n    tag_84:\n      tag_85\n      jump\t// in\n    tag_83:\n      mload(0x40)\n      tag_86\n      swap2\n      swap1\n      tag_36\n      jump\t// in\n    tag_86:\n      mload(0x40)\n      dup1\n      swap2\n      sub\n      swap1\n      return\n        /* \"contracts/MetraToken.sol\":8707:9013  function stake(uint256 _amount) public {... */\n    tag_18:\n      tag_87\n      0x04\n      dup1\n      calldatasize\n      sub\n      dup2\n      add\n      swap1\n      tag_88\n      swap2\n      swap1\n      tag_60\n      jump\t// in\n    tag_88:\n      tag_89\n      jump\t// in\n    tag_87:\n      stop\n        /* \"contracts/MetraToken.sol\":5100:5245  function transfer(address recipient, uint256 amount) external returns (bool) {... */\n    tag_19:\n      tag_90\n      0x04\n      dup1\n      calldatasize\n      sub\n      dup2\n      add\n      swap1\n      tag_91\n      swap2\n      swap1\n      tag_33\n      jump\t// in\n    tag_91:\n      tag_92\n      jump\t// in\n    tag_90:\n      mload(0x40)\n      tag_93\n      swap2\n      swap1\n      tag_36\n      jump\t// in\n    tag_93:\n      mload(0x40)\n      dup1\n      swap2\n      sub\n      swap1\n      return\n        /* \"contracts/MetraToken.sol\":6231:6359  function allowance(address owner, address spender) external view returns(uint256){... */\n    tag_20:\n      tag_94\n      0x04\n      dup1\n      calldatasize\n      sub\n      dup2\n      add\n      swap1\n      tag_95\n      swap2\n      swap1\n      tag_96\n      jump\t// in\n    tag_95:\n      tag_97\n      jump\t// in\n    tag_94:\n      mload(0x40)\n      tag_98\n      swap2\n      swap1\n      tag_40\n      jump\t// in\n    tag_98:\n      mload(0x40)\n      dup1\n      swap2\n      sub\n      swap1\n      return\n        /* \"contracts/Stakeable.sol\":6899:7727  function hasStake(address _staker) public view returns(StakingSummary memory){... */\n    tag_21:\n      tag_99\n      0x04\n      dup1\n      calldatasize\n      sub\n      dup2\n      add\n      swap1\n      tag_100\n      swap2\n      swap1\n      tag_64\n      jump\t// in\n    tag_100:\n      tag_101\n      jump\t// in\n    tag_99:\n      mload(0x40)\n      tag_102\n      swap2\n      swap1\n      tag_103\n      jump\t// in\n    tag_102:\n      mload(0x40)\n      dup1\n      swap2\n      sub\n      swap1\n      return\n        /* \"contracts/MetraToken.sol\":9114:9342  function withdrawStake(uint256 amount, uint256 stake_index)  public {... */\n    tag_22:\n      tag_104\n      0x04\n      dup1\n      calldatasize\n      sub\n      dup2\n      add\n      swap1\n      tag_105\n      swap2\n      swap1\n      tag_106\n      jump\t// in\n    tag_105:\n      tag_107\n      jump\t// in\n    tag_104:\n      stop\n        /* \"contracts/Ownable.sol\":1694:1801  function transferOwnership(address newOwner) public onlyOwner {... */\n    tag_23:\n      tag_108\n      0x04\n      dup1\n      calldatasize\n      sub\n      dup2\n      add\n      swap1\n      tag_109\n      swap2\n      swap1\n      tag_64\n      jump\t// in\n    tag_109:\n      tag_110\n      jump\t// in\n    tag_108:\n      stop\n        /* \"contracts/MetraToken.sol\":2295:2371  function name() external view returns (string memory){... */\n    tag_28:\n        /* \"contracts/MetraToken.sol\":2334:2347  string memory */\n      0x60\n        /* \"contracts/MetraToken.sol\":2361:2366  _name */\n      0x07\n        /* \"contracts/MetraToken.sol\":2354:2366  return _name */\n      dup1\n      sload\n      tag_112\n      swap1\n      tag_113\n      jump\t// in\n    tag_112:\n      dup1\n      0x1f\n      add\n      0x20\n      dup1\n      swap2\n      div\n      mul\n      0x20\n      add\n      mload(0x40)\n      swap1\n      dup2\n      add\n      0x40\n      mstore\n      dup1\n      swap3\n      swap2\n      swap1\n      dup2\n      dup2\n      mstore\n      0x20\n      add\n      dup3\n      dup1\n      sload\n      tag_114\n      swap1\n      tag_113\n      jump\t// in\n    tag_114:\n      dup1\n      iszero\n      tag_115\n      jumpi\n      dup1\n      0x1f\n      lt\n      tag_116\n      jumpi\n      0x0100\n      dup1\n      dup4\n      sload\n      div\n      mul\n      dup4\n      mstore\n      swap2\n      0x20\n      add\n      swap2\n      jump(tag_115)\n    tag_116:\n      dup3\n      add\n      swap2\n      swap1\n      0x00\n      mstore\n      keccak256(0x00, 0x20)\n      swap1\n    tag_117:\n      dup2\n      sload\n      dup2\n      mstore\n      swap1\n      0x01\n      add\n      swap1\n      0x20\n      add\n      dup1\n      dup4\n      gt\n      tag_117\n      jumpi\n      dup3\n      swap1\n      sub\n      0x1f\n      and\n      dup3\n      add\n      swap2\n    tag_115:\n      pop\n      pop\n      pop\n      pop\n      pop\n      swap1\n      pop\n        /* \"contracts/MetraToken.sol\":2295:2371  function name() external view returns (string memory){... */\n      swap1\n      jump\t// out\n        /* \"contracts/MetraToken.sol\":6485:6627  function approve(address spender, uint256 amount) external returns (bool) {... */\n    tag_34:\n        /* \"contracts/MetraToken.sol\":6553:6557  bool */\n      0x00\n        /* \"contracts/MetraToken.sol\":6566:6603  _approve(msg.sender, spender, amount) */\n      tag_119\n        /* \"contracts/MetraToken.sol\":6575:6585  msg.sender */\n      caller\n        /* \"contracts/MetraToken.sol\":6587:6594  spender */\n      dup5\n        /* \"contracts/MetraToken.sol\":6596:6602  amount */\n      dup5\n        /* \"contracts/MetraToken.sol\":6566:6574  _approve */\n      tag_120\n        /* \"contracts/MetraToken.sol\":6566:6603  _approve(msg.sender, spender, amount) */\n      jump\t// in\n    tag_119:\n        /* \"contracts/MetraToken.sol\":6617:6621  true */\n      0x01\n        /* \"contracts/MetraToken.sol\":6610:6621  return true */\n      swap1\n      pop\n        /* \"contracts/MetraToken.sol\":6485:6627  function approve(address spender, uint256 amount) external returns (bool) {... */\n      swap3\n      swap2\n      pop\n      pop\n      jump\t// out\n        /* \"contracts/MetraToken.sol\":2455:2539  function totalSupply() external view returns (uint256){... */\n    tag_38:\n        /* \"contracts/MetraToken.sol\":2501:2508  uint256 */\n      0x00\n        /* \"contracts/MetraToken.sol\":2522:2534  _totalSupply */\n      sload(0x04)\n        /* \"contracts/MetraToken.sol\":2515:2534  return _totalSupply */\n      swap1\n      pop\n        /* \"contracts/MetraToken.sol\":2455:2539  function totalSupply() external view returns (uint256){... */\n      swap1\n      jump\t// out\n        /* \"contracts/MetraToken.sol\":7515:8007  function transferFrom(address spender, address recipient, uint256 amount) external returns(bool){... */\n    tag_44:\n        /* \"contracts/MetraToken.sol\":7606:7610  bool */\n      0x00\n        /* \"contracts/MetraToken.sol\":7713:7719  amount */\n      dup2\n        /* \"contracts/MetraToken.sol\":7677:7688  _allowances */\n      0x09\n        /* \"contracts/MetraToken.sol\":7677:7697  _allowances[spender] */\n      0x00\n        /* \"contracts/MetraToken.sol\":7689:7696  spender */\n      dup7\n        /* \"contracts/MetraToken.sol\":7677:7697  _allowances[spender] */\n      0xffffffffffffffffffffffffffffffffffffffff\n      and\n      0xffffffffffffffffffffffffffffffffffffffff\n      and\n      dup2\n      mstore\n      0x20\n      add\n      swap1\n      dup2\n      mstore\n      0x20\n      add\n      0x00\n      keccak256\n        /* \"contracts/MetraToken.sol\":7677:7709  _allowances[spender][msg.sender] */\n      0x00\n        /* \"contracts/MetraToken.sol\":7698:7708  msg.sender */\n      caller\n        /* \"contracts/MetraToken.sol\":7677:7709  _allowances[spender][msg.sender] */\n      0xffffffffffffffffffffffffffffffffffffffff\n      and\n      0xffffffffffffffffffffffffffffffffffffffff\n      and\n      dup2\n      mstore\n      0x20\n      add\n      swap1\n      dup2\n      mstore\n      0x20\n      add\n      0x00\n      keccak256\n      sload\n        /* \"contracts/MetraToken.sol\":7677:7719  _allowances[spender][msg.sender] >= amount */\n      lt\n      iszero\n        /* \"contracts/MetraToken.sol\":7669:7773  require(_allowances[spender][msg.sender] >= amount, \"Metra: You cannot spend that much on this account\") */\n      tag_123\n      jumpi\n      mload(0x40)\n      0x08c379a000000000000000000000000000000000000000000000000000000000\n      dup2\n      mstore\n      0x04\n      add\n      tag_124\n      swap1\n      tag_125\n      jump\t// in\n    tag_124:\n      mload(0x40)\n      dup1\n      swap2\n      sub\n      swap1\n      revert\n    tag_123:\n        /* \"contracts/MetraToken.sol\":7805:7842  _transfer(spender, recipient, amount) */\n      tag_126\n        /* \"contracts/MetraToken.sol\":7815:7822  spender */\n      dup5\n        /* \"contracts/MetraToken.sol\":7824:7833  recipient */\n      dup5\n        /* \"contracts/MetraToken.sol\":7835:7841  amount */\n      dup5\n        /* \"contracts/MetraToken.sol\":7805:7814  _transfer */\n      tag_127\n        /* \"contracts/MetraToken.sol\":7805:7842  _transfer(spender, recipient, amount) */\n      jump\t// in\n    tag_126:\n        /* \"contracts/MetraToken.sol\":7909:7981  _approve(spender, msg.sender, _allowances[spender][msg.sender] - amount) */\n      tag_128\n        /* \"contracts/MetraToken.sol\":7918:7925  spender */\n      dup5\n        /* \"contracts/MetraToken.sol\":7927:7937  msg.sender */\n      caller\n        /* \"contracts/MetraToken.sol\":7974:7980  amount */\n      dup5\n        /* \"contracts/MetraToken.sol\":7939:7950  _allowances */\n      0x09\n        /* \"contracts/MetraToken.sol\":7939:7959  _allowances[spender] */\n      0x00\n        /* \"contracts/MetraToken.sol\":7951:7958  spender */\n      dup10\n        /* \"contracts/MetraToken.sol\":7939:7959  _allowances[spender] */\n      0xffffffffffffffffffffffffffffffffffffffff\n      and\n      0xffffffffffffffffffffffffffffffffffffffff\n      and\n      dup2\n      mstore\n      0x20\n      add\n      swap1\n      dup2\n      mstore\n      0x20\n      add\n      0x00\n      keccak256\n        /* \"contracts/MetraToken.sol\":7939:7971  _allowances[spender][msg.sender] */\n      0x00\n        /* \"contracts/MetraToken.sol\":7960:7970  msg.sender */\n      caller\n        /* \"contracts/MetraToken.sol\":7939:7971  _allowances[spender][msg.sender] */\n      0xffffffffffffffffffffffffffffffffffffffff\n      and\n      0xffffffffffffffffffffffffffffffffffffffff\n      and\n      dup2\n      mstore\n      0x20\n      add\n      swap1\n      dup2\n      mstore\n      0x20\n      add\n      0x00\n      keccak256\n      sload\n        /* \"contracts/MetraToken.sol\":7939:7980  _allowances[spender][msg.sender] - amount */\n      tag_129\n      swap2\n      swap1\n      tag_130\n      jump\t// in\n    tag_129:\n        /* \"contracts/MetraToken.sol\":7909:7917  _approve */\n      tag_120\n        /* \"contracts/MetraToken.sol\":7909:7981  _approve(spender, msg.sender, _allowances[spender][msg.sender] - amount) */\n      jump\t// in\n    tag_128:\n        /* \"contracts/MetraToken.sol\":7996:8000  true */\n      0x01\n        /* \"contracts/MetraToken.sol\":7989:8000  return true */\n      swap1\n      pop\n        /* \"contracts/MetraToken.sol\":7515:8007  function transferFrom(address spender, address recipient, uint256 amount) external returns(bool){... */\n      swap4\n      swap3\n      pop\n      pop\n      pop\n      jump\t// out\n        /* \"contracts/MetraToken.sol\":2010:2087  function decimals() external view returns (uint8) {... */\n    tag_47:\n        /* \"contracts/MetraToken.sol\":2053:2058  uint8 */\n      0x00\n        /* \"contracts/MetraToken.sol\":2073:2082  _decimals */\n      0x05\n      0x00\n      swap1\n      sload\n      swap1\n      0x0100\n      exp\n      swap1\n      div\n      0xff\n      and\n        /* \"contracts/MetraToken.sol\":2066:2082  return _decimals */\n      swap1\n      pop\n        /* \"contracts/MetraToken.sol\":2010:2087  function decimals() external view returns (uint8) {... */\n      swap1\n      jump\t// out\n        /* \"contracts/MetraToken.sol\":8126:8312  function increaseAllowance(address spender, uint256 amount) public returns (bool) {... */\n    tag_52:\n        /* \"contracts/MetraToken.sol\":8202:8206  bool */\n      0x00\n        /* \"contracts/MetraToken.sol\":8216:8286  _approve(msg.sender, spender, _allowances[msg.sender][spender]+amount) */\n      tag_133\n        /* \"contracts/MetraToken.sol\":8225:8235  msg.sender */\n      caller\n        /* \"contracts/MetraToken.sol\":8237:8244  spender */\n      dup5\n        /* \"contracts/MetraToken.sol\":8279:8285  amount */\n      dup5\n        /* \"contracts/MetraToken.sol\":8246:8257  _allowances */\n      0x09\n        /* \"contracts/MetraToken.sol\":8246:8269  _allowances[msg.sender] */\n      0x00\n        /* \"contracts/MetraToken.sol\":8258:8268  msg.sender */\n      caller\n        /* \"contracts/MetraToken.sol\":8246:8269  _allowances[msg.sender] */\n      0xffffffffffffffffffffffffffffffffffffffff\n      and\n      0xffffffffffffffffffffffffffffffffffffffff\n      and\n      dup2\n      mstore\n      0x20\n      add\n      swap1\n      dup2\n      mstore\n      0x20\n      add\n      0x00\n      keccak256\n        /* \"contracts/MetraToken.sol\":8246:8278  _allowances[msg.sender][spender] */\n      0x00\n        /* \"contracts/MetraToken.sol\":8270:8277  spender */\n      dup9\n        /* \"contracts/MetraToken.sol\":8246:8278  _allowances[msg.sender][spender] */\n      0xffffffffffffffffffffffffffffffffffffffff\n      and\n      0xffffffffffffffffffffffffffffffffffffffff\n      and\n      dup2\n      mstore\n      0x20\n      add\n      swap1\n      dup2\n      mstore\n      0x20\n      add\n      0x00\n      keccak256\n      sload\n        /* \"contracts/MetraToken.sol\":8246:8285  _allowances[msg.sender][spender]+amount */\n      tag_134\n      swap2\n      swap1\n      tag_135\n      jump\t// in\n    tag_134:\n        /* \"contracts/MetraToken.sol\":8216:8224  _approve */\n      tag_120\n        /* \"contracts/MetraToken.sol\":8216:8286  _approve(msg.sender, spender, _allowances[msg.sender][spender]+amount) */\n      jump\t// in\n    tag_133:\n        /* \"contracts/MetraToken.sol\":8301:8305  true */\n      0x01\n        /* \"contracts/MetraToken.sol\":8294:8305  return true */\n      swap1\n      pop\n        /* \"contracts/MetraToken.sol\":8126:8312  function increaseAllowance(address spender, uint256 amount) public returns (bool) {... */\n      swap3\n      swap2\n      pop\n      pop\n      jump\t// out\n        /* \"contracts/MetraToken.sol\":4671:4798  function mint(address account, uint256 amount) public onlyOwner returns(bool){... */\n    tag_56:\n        /* \"contracts/MetraToken.sol\":4743:4747  bool */\n      0x00\n        /* \"contracts/Ownable.sol\":783:793  msg.sender */\n      caller\n        /* \"contracts/Ownable.sol\":773:793  _owner == msg.sender */\n      0xffffffffffffffffffffffffffffffffffffffff\n      and\n        /* \"contracts/Ownable.sol\":773:779  _owner */\n      0x00\n      dup1\n      sload\n      swap1\n      0x0100\n      exp\n      swap1\n      div\n      0xffffffffffffffffffffffffffffffffffffffff\n      and\n        /* \"contracts/Ownable.sol\":773:793  _owner == msg.sender */\n      0xffffffffffffffffffffffffffffffffffffffff\n      and\n      eq\n        /* \"contracts/Ownable.sol\":765:840  require(_owner == msg.sender, \"Ownable: only owner can call this function\") */\n      tag_137\n      jumpi\n      mload(0x40)\n      0x08c379a000000000000000000000000000000000000000000000000000000000\n      dup2\n      mstore\n      0x04\n      add\n      tag_138\n      swap1\n      tag_139\n      jump\t// in\n    tag_138:\n      mload(0x40)\n      dup1\n      swap2\n      sub\n      swap1\n      revert\n    tag_137:\n        /* \"contracts/MetraToken.sol\":4754:4776  _mint(account, amount) */\n      tag_141\n        /* \"contracts/MetraToken.sol\":4760:4767  account */\n      dup4\n        /* \"contracts/MetraToken.sol\":4769:4775  amount */\n      dup4\n        /* \"contracts/MetraToken.sol\":4754:4759  _mint */\n      tag_142\n        /* \"contracts/MetraToken.sol\":4754:4776  _mint(account, amount) */\n      jump\t// in\n    tag_141:\n        /* \"contracts/MetraToken.sol\":4789:4793  true */\n      0x01\n        /* \"contracts/MetraToken.sol\":4782:4793  return true */\n      swap1\n      pop\n        /* \"contracts/MetraToken.sol\":4671:4798  function mint(address account, uint256 amount) public onlyOwner returns(bool){... */\n      swap3\n      swap2\n      pop\n      pop\n      jump\t// out\n        /* \"contracts/MetraToken.sol\":9347:9507  function withdrawReward(uint256 reward)  public {... */\n    tag_61:\n        /* \"contracts/MetraToken.sol\":9404:9419  uint256 rewards */\n      0x00\n        /* \"contracts/MetraToken.sol\":9422:9428  reward */\n      dup2\n        /* \"contracts/MetraToken.sol\":9404:9428  uint256 rewards = reward */\n      swap1\n      pop\n        /* \"contracts/MetraToken.sol\":9474:9500  _mint(msg.sender, rewards) */\n      tag_144\n        /* \"contracts/MetraToken.sol\":9480:9490  msg.sender */\n      caller\n        /* \"contracts/MetraToken.sol\":9492:9499  rewards */\n      dup3\n        /* \"contracts/MetraToken.sol\":9474:9479  _mint */\n      tag_142\n        /* \"contracts/MetraToken.sol\":9474:9500  _mint(msg.sender, rewards) */\n      jump\t// in\n    tag_144:\n        /* \"contracts/MetraToken.sol\":9395:9507  {... */\n      pop\n        /* \"contracts/MetraToken.sol\":9347:9507  function withdrawReward(uint256 reward)  public {... */\n      pop\n      jump\t// out\n        /* \"contracts/MetraToken.sol\":2629:2733  function balanceOf(address account) external view returns (uint256) {... */\n    tag_65:\n        /* \"contracts/MetraToken.sol\":2688:2695  uint256 */\n      0x00\n        /* \"contracts/MetraToken.sol\":2710:2719  _balances */\n      0x08\n        /* \"contracts/MetraToken.sol\":2710:2728  _balances[account] */\n      0x00\n        /* \"contracts/MetraToken.sol\":2720:2727  account */\n      dup4\n        /* \"contracts/MetraToken.sol\":2710:2728  _balances[account] */\n      0xffffffffffffffffffffffffffffffffffffffff\n      and\n      0xffffffffffffffffffffffffffffffffffffffff\n      and\n      dup2\n      mstore\n      0x20\n      add\n      swap1\n      dup2\n      mstore\n      0x20\n      add\n      0x00\n      keccak256\n      sload\n        /* \"contracts/MetraToken.sol\":2703:2728  return _balances[account] */\n      swap1\n      pop\n        /* \"contracts/MetraToken.sol\":2629:2733  function balanceOf(address account) external view returns (uint256) {... */\n      swap2\n      swap1\n      pop\n      jump\t// out\n        /* \"contracts/Ownable.sol\":1461:1598  function renounceOwnership() public onlyOwner {... */\n    tag_68:\n        /* \"contracts/Ownable.sol\":783:793  msg.sender */\n      caller\n        /* \"contracts/Ownable.sol\":773:793  _owner == msg.sender */\n      0xffffffffffffffffffffffffffffffffffffffff\n      and\n        /* \"contracts/Ownable.sol\":773:779  _owner */\n      0x00\n      dup1\n      sload\n      swap1\n      0x0100\n      exp\n      swap1\n      div\n      0xffffffffffffffffffffffffffffffffffffffff\n      and\n        /* \"contracts/Ownable.sol\":773:793  _owner == msg.sender */\n      0xffffffffffffffffffffffffffffffffffffffff\n      and\n      eq\n        /* \"contracts/Ownable.sol\":765:840  require(_owner == msg.sender, \"Ownable: only owner can call this function\") */\n      tag_147\n      jumpi\n      mload(0x40)\n      0x08c379a000000000000000000000000000000000000000000000000000000000\n      dup2\n      mstore\n      0x04\n      add\n      tag_148\n      swap1\n      tag_139\n      jump\t// in\n    tag_148:\n      mload(0x40)\n      dup1\n      swap2\n      sub\n      swap1\n      revert\n    tag_147:\n        /* \"contracts/Ownable.sol\":1559:1560  0 */\n      0x00\n        /* \"contracts/Ownable.sol\":1522:1562  OwnershipTransferred(_owner, address(0)) */\n      0xffffffffffffffffffffffffffffffffffffffff\n      and\n        /* \"contracts/Ownable.sol\":1543:1549  _owner */\n      0x00\n      dup1\n      sload\n      swap1\n      0x0100\n      exp\n      swap1\n      div\n      0xffffffffffffffffffffffffffffffffffffffff\n      and\n        /* \"contracts/Ownable.sol\":1522:1562  OwnershipTransferred(_owner, address(0)) */\n      0xffffffffffffffffffffffffffffffffffffffff\n      and\n      0x8be0079c531659141344cd1fd0a4f28419497f9722a3daafe3b4186f6b6457e0\n      mload(0x40)\n      mload(0x40)\n      dup1\n      swap2\n      sub\n      swap1\n      log3\n        /* \"contracts/Ownable.sol\":1589:1590  0 */\n      0x00\n        /* \"contracts/Ownable.sol\":1572:1578  _owner */\n      dup1\n      0x00\n        /* \"contracts/Ownable.sol\":1572:1591  _owner = address(0) */\n      0x0100\n      exp\n      dup2\n      sload\n      dup2\n      0xffffffffffffffffffffffffffffffffffffffff\n      mul\n      not\n      and\n      swap1\n      dup4\n      0xffffffffffffffffffffffffffffffffffffffff\n      and\n      mul\n      or\n      swap1\n      sstore\n      pop\n        /* \"contracts/Ownable.sol\":1461:1598  function renounceOwnership() public onlyOwner {... */\n      jump\t// out\n        /* \"contracts/MetraToken.sol\":6069:6146  function getOwner() external view returns (address) {... */\n    tag_70:\n        /* \"contracts/MetraToken.sol\":6112:6119  address */\n      0x00\n        /* \"contracts/MetraToken.sol\":6134:6141  owner() */\n      tag_151\n        /* \"contracts/MetraToken.sol\":6134:6139  owner */\n      tag_74\n        /* \"contracts/MetraToken.sol\":6134:6141  owner() */\n      jump\t// in\n    tag_151:\n        /* \"contracts/MetraToken.sol\":6127:6141  return owner() */\n      swap1\n      pop\n        /* \"contracts/MetraToken.sol\":6069:6146  function getOwner() external view returns (address) {... */\n      swap1\n      jump\t// out\n        /* \"contracts/Ownable.sol\":1137:1214  function owner() public view returns(address) {... */\n    tag_74:\n        /* \"contracts/Ownable.sol\":1174:1181  address */\n      0x00\n        /* \"contracts/Ownable.sol\":1200:1206  _owner */\n      dup1\n      0x00\n      swap1\n      sload\n      swap1\n      0x0100\n      exp\n      swap1\n      div\n      0xffffffffffffffffffffffffffffffffffffffff\n      and\n        /* \"contracts/Ownable.sol\":1193:1206  return _owner */\n      swap1\n      pop\n        /* \"contracts/Ownable.sol\":1137:1214  function owner() public view returns(address) {... */\n      swap1\n      jump\t// out\n        /* \"contracts/MetraToken.sol\":2152:2232  function symbol() external view returns (string memory){... */\n    tag_77:\n        /* \"contracts/MetraToken.sol\":2193:2206  string memory */\n      0x60\n        /* \"contracts/MetraToken.sol\":2220:2227  _symbol */\n      0x06\n        /* \"contracts/MetraToken.sol\":2213:2227  return _symbol */\n      dup1\n      sload\n      tag_154\n      swap1\n      tag_113\n      jump\t// in\n    tag_154:\n      dup1\n      0x1f\n      add\n      0x20\n      dup1\n      swap2\n      div\n      mul\n      0x20\n      add\n      mload(0x40)\n      swap1\n      dup2\n      add\n      0x40\n      mstore\n      dup1\n      swap3\n      swap2\n      swap1\n      dup2\n      dup2\n      mstore\n      0x20\n      add\n      dup3\n      dup1\n      sload\n      tag_155\n      swap1\n      tag_113\n      jump\t// in\n    tag_155:\n      dup1\n      iszero\n      tag_156\n      jumpi\n      dup1\n      0x1f\n      lt\n      tag_157\n      jumpi\n      0x0100\n      dup1\n      dup4\n      sload\n      div\n      mul\n      dup4\n      mstore\n      swap2\n      0x20\n      add\n      swap2\n      jump(tag_156)\n    tag_157:\n      dup3\n      add\n      swap2\n      swap1\n      0x00\n      mstore\n      keccak256(0x00, 0x20)\n      swap1\n    tag_158:\n      dup2\n      sload\n      dup2\n      mstore\n      swap1\n      0x01\n      add\n      swap1\n      0x20\n      add\n      dup1\n      dup4\n      gt\n      tag_158\n      jumpi\n      dup3\n      swap1\n      sub\n      0x1f\n      and\n      dup3\n      add\n      swap2\n    tag_156:\n      pop\n      pop\n      pop\n      pop\n      pop\n      swap1\n      pop\n        /* \"contracts/MetraToken.sol\":2152:2232  function symbol() external view returns (string memory){... */\n      swap1\n      jump\t// out\n        /* \"contracts/MetraToken.sol\":4372:4500  function burn(address account, uint256 amount) public onlyOwner returns(bool) {... */\n    tag_81:\n        /* \"contracts/MetraToken.sol\":4444:4448  bool */\n      0x00\n        /* \"contracts/Ownable.sol\":783:793  msg.sender */\n      caller\n        /* \"contracts/Ownable.sol\":773:793  _owner == msg.sender */\n      0xffffffffffffffffffffffffffffffffffffffff\n      and\n        /* \"contracts/Ownable.sol\":773:779  _owner */\n      0x00\n      dup1\n      sload\n      swap1\n      0x0100\n      exp\n      swap1\n      div\n      0xffffffffffffffffffffffffffffffffffffffff\n      and\n        /* \"contracts/Ownable.sol\":773:793  _owner == msg.sender */\n      0xffffffffffffffffffffffffffffffffffffffff\n      and\n      eq\n        /* \"contracts/Ownable.sol\":765:840  require(_owner == msg.sender, \"Ownable: only owner can call this function\") */\n      tag_160\n      jumpi\n      mload(0x40)\n      0x08c379a000000000000000000000000000000000000000000000000000000000\n      dup2\n      mstore\n      0x04\n      add\n      tag_161\n      swap1\n      tag_139\n      jump\t// in\n    tag_161:\n      mload(0x40)\n      dup1\n      swap2\n      sub\n      swap1\n      revert\n    tag_160:\n        /* \"contracts/MetraToken.sol\":4456:4478  _burn(account, amount) */\n      tag_163\n        /* \"contracts/MetraToken.sol\":4462:4469  account */\n      dup4\n        /* \"contracts/MetraToken.sol\":4471:4477  amount */\n      dup4\n        /* \"contracts/MetraToken.sol\":4456:4461  _burn */\n      tag_164\n        /* \"contracts/MetraToken.sol\":4456:4478  _burn(account, amount) */\n      jump\t// in\n    tag_163:\n        /* \"contracts/MetraToken.sol\":4491:4495  true */\n      0x01\n        /* \"contracts/MetraToken.sol\":4484:4495  return true */\n      swap1\n      pop\n        /* \"contracts/MetraToken.sol\":4372:4500  function burn(address account, uint256 amount) public onlyOwner returns(bool) {... */\n      swap3\n      swap2\n      pop\n      pop\n      jump\t// out\n        /* \"contracts/MetraToken.sol\":8434:8620  function decreaseAllowance(address spender, uint256 amount) public returns (bool) {... */\n    tag_85:\n        /* \"contracts/MetraToken.sol\":8510:8514  bool */\n      0x00\n        /* \"contracts/MetraToken.sol\":8524:8594  _approve(msg.sender, spender, _allowances[msg.sender][spender]-amount) */\n      tag_166\n        /* \"contracts/MetraToken.sol\":8533:8543  msg.sender */\n      caller\n        /* \"contracts/MetraToken.sol\":8545:8552  spender */\n      dup5\n        /* \"contracts/MetraToken.sol\":8587:8593  amount */\n      dup5\n        /* \"contracts/MetraToken.sol\":8554:8565  _allowances */\n      0x09\n        /* \"contracts/MetraToken.sol\":8554:8577  _allowances[msg.sender] */\n      0x00\n        /* \"contracts/MetraToken.sol\":8566:8576  msg.sender */\n      caller\n        /* \"contracts/MetraToken.sol\":8554:8577  _allowances[msg.sender] */\n      0xffffffffffffffffffffffffffffffffffffffff\n      and\n      0xffffffffffffffffffffffffffffffffffffffff\n      and\n      dup2\n      mstore\n      0x20\n      add\n      swap1\n      dup2\n      mstore\n      0x20\n      add\n      0x00\n      keccak256\n        /* \"contracts/MetraToken.sol\":8554:8586  _allowances[msg.sender][spender] */\n      0x00\n        /* \"contracts/MetraToken.sol\":8578:8585  spender */\n      dup9\n        /* \"contracts/MetraToken.sol\":8554:8586  _allowances[msg.sender][spender] */\n      0xffffffffffffffffffffffffffffffffffffffff\n      and\n      0xffffffffffffffffffffffffffffffffffffffff\n      and\n      dup2\n      mstore\n      0x20\n      add\n      swap1\n      dup2\n      mstore\n      0x20\n      add\n      0x00\n      keccak256\n      sload\n        /* \"contracts/MetraToken.sol\":8554:8593  _allowances[msg.sender][spender]-amount */\n      tag_167\n      swap2\n      swap1\n      tag_130\n      jump\t// in\n    tag_167:\n        /* \"contracts/MetraToken.sol\":8524:8532  _approve */\n      tag_120\n        /* \"contracts/MetraToken.sol\":8524:8594  _approve(msg.sender, spender, _allowances[msg.sender][spender]-amount) */\n      jump\t// in\n    tag_166:\n        /* \"contracts/MetraToken.sol\":8609:8613  true */\n      0x01\n        /* \"contracts/MetraToken.sol\":8602:8613  return true */\n      swap1\n      pop\n        /* \"contracts/MetraToken.sol\":8434:8620  function decreaseAllowance(address spender, uint256 amount) public returns (bool) {... */\n      swap3\n      swap2\n      pop\n      pop\n      jump\t// out\n        /* \"contracts/MetraToken.sol\":8707:9013  function stake(uint256 _amount) public {... */\n    tag_89:\n        /* \"contracts/MetraToken.sol\":8822:8831  _balances */\n      0x08\n        /* \"contracts/MetraToken.sol\":8822:8843  _balances[msg.sender] */\n      0x00\n        /* \"contracts/MetraToken.sol\":8832:8842  msg.sender */\n      caller\n        /* \"contracts/MetraToken.sol\":8822:8843  _balances[msg.sender] */\n      0xffffffffffffffffffffffffffffffffffffffff\n      and\n      0xffffffffffffffffffffffffffffffffffffffff\n      and\n      dup2\n      mstore\n      0x20\n      add\n      swap1\n      dup2\n      mstore\n      0x20\n      add\n      0x00\n      keccak256\n      sload\n        /* \"contracts/MetraToken.sol\":8812:8819  _amount */\n      dup2\n        /* \"contracts/MetraToken.sol\":8812:8843  _amount < _balances[msg.sender] */\n      lt\n        /* \"contracts/MetraToken.sol\":8804:8885  require(_amount < _balances[msg.sender], \"Metra: Cannot stake more than you own\") */\n      tag_169\n      jumpi\n      mload(0x40)\n      0x08c379a000000000000000000000000000000000000000000000000000000000\n      dup2\n      mstore\n      0x04\n      add\n      tag_170\n      swap1\n      tag_171\n      jump\t// in\n    tag_170:\n      mload(0x40)\n      dup1\n      swap2\n      sub\n      swap1\n      revert\n    tag_169:\n        /* \"contracts/MetraToken.sol\":8896:8911  _stake(_amount) */\n      tag_172\n        /* \"contracts/MetraToken.sol\":8903:8910  _amount */\n      dup2\n        /* \"contracts/MetraToken.sol\":8896:8902  _stake */\n      tag_173\n        /* \"contracts/MetraToken.sol\":8896:8911  _stake(_amount) */\n      jump\t// in\n    tag_172:\n        /* \"contracts/MetraToken.sol\":8980:9006  _burn(msg.sender, _amount) */\n      tag_174\n        /* \"contracts/MetraToken.sol\":8986:8996  msg.sender */\n      caller\n        /* \"contracts/MetraToken.sol\":8998:9005  _amount */\n      dup3\n        /* \"contracts/MetraToken.sol\":8980:8985  _burn */\n      tag_164\n        /* \"contracts/MetraToken.sol\":8980:9006  _burn(msg.sender, _amount) */\n      jump\t// in\n    tag_174:\n        /* \"contracts/MetraToken.sol\":8707:9013  function stake(uint256 _amount) public {... */\n      pop\n      jump\t// out\n        /* \"contracts/MetraToken.sol\":5100:5245  function transfer(address recipient, uint256 amount) external returns (bool) {... */\n    tag_92:\n        /* \"contracts/MetraToken.sol\":5171:5175  bool */\n      0x00\n        /* \"contracts/MetraToken.sol\":5183:5223  _transfer(msg.sender, recipient, amount) */\n      tag_176\n        /* \"contracts/MetraToken.sol\":5193:5203  msg.sender */\n      caller\n        /* \"contracts/MetraToken.sol\":5205:5214  recipient */\n      dup5\n        /* \"contracts/MetraToken.sol\":5216:5222  amount */\n      dup5\n        /* \"contracts/MetraToken.sol\":5183:5192  _transfer */\n      tag_127\n        /* \"contracts/MetraToken.sol\":5183:5223  _transfer(msg.sender, recipient, amount) */\n      jump\t// in\n    tag_176:\n        /* \"contracts/MetraToken.sol\":5236:5240  true */\n      0x01\n        /* \"contracts/MetraToken.sol\":5229:5240  return true */\n      swap1\n      pop\n        /* \"contracts/MetraToken.sol\":5100:5245  function transfer(address recipient, uint256 amount) external returns (bool) {... */\n      swap3\n      swap2\n      pop\n      pop\n      jump\t// out\n        /* \"contracts/MetraToken.sol\":6231:6359  function allowance(address owner, address spender) external view returns(uint256){... */\n    tag_97:\n        /* \"contracts/MetraToken.sol\":6304:6311  uint256 */\n      0x00\n        /* \"contracts/MetraToken.sol\":6326:6337  _allowances */\n      0x09\n        /* \"contracts/MetraToken.sol\":6326:6344  _allowances[owner] */\n      0x00\n        /* \"contracts/MetraToken.sol\":6338:6343  owner */\n      dup5\n        /* \"contracts/MetraToken.sol\":6326:6344  _allowances[owner] */\n      0xffffffffffffffffffffffffffffffffffffffff\n      and\n      0xffffffffffffffffffffffffffffffffffffffff\n      and\n      dup2\n      mstore\n      0x20\n      add\n      swap1\n      dup2\n      mstore\n      0x20\n      add\n      0x00\n      keccak256\n        /* \"contracts/MetraToken.sol\":6326:6353  _allowances[owner][spender] */\n      0x00\n        /* \"contracts/MetraToken.sol\":6345:6352  spender */\n      dup4\n        /* \"contracts/MetraToken.sol\":6326:6353  _allowances[owner][spender] */\n      0xffffffffffffffffffffffffffffffffffffffff\n      and\n      0xffffffffffffffffffffffffffffffffffffffff\n      and\n      dup2\n      mstore\n      0x20\n      add\n      swap1\n      dup2\n      mstore\n      0x20\n      add\n      0x00\n      keccak256\n      sload\n        /* \"contracts/MetraToken.sol\":6319:6353  return _allowances[owner][spender] */\n      swap1\n      pop\n        /* \"contracts/MetraToken.sol\":6231:6359  function allowance(address owner, address spender) external view returns(uint256){... */\n      swap3\n      swap2\n      pop\n      pop\n      jump\t// out\n        /* \"contracts/Stakeable.sol\":6899:7727  function hasStake(address _staker) public view returns(StakingSummary memory){... */\n    tag_101:\n        /* \"contracts/Stakeable.sol\":6954:6975  StakingSummary memory */\n      tag_178\n      tag_179\n      jump\t// in\n    tag_178:\n        /* \"contracts/Stakeable.sol\":7066:7090  uint256 totalStakeAmount */\n      0x00\n        /* \"contracts/Stakeable.sol\":7169:7198  StakingSummary memory summary */\n      dup1\n        /* \"contracts/Stakeable.sol\":7201:7264  StakingSummary(0, stakeholders[stakes[_staker]].address_stakes) */\n      mload(0x40)\n      dup1\n      0x40\n      add\n      0x40\n      mstore\n      dup1\n        /* \"contracts/Stakeable.sol\":7216:7217  0 */\n      0x00\n        /* \"contracts/Stakeable.sol\":7201:7264  StakingSummary(0, stakeholders[stakes[_staker]].address_stakes) */\n      dup2\n      mstore\n      0x20\n      add\n        /* \"contracts/Stakeable.sol\":7219:7231  stakeholders */\n      0x01\n        /* \"contracts/Stakeable.sol\":7232:7238  stakes */\n      0x02\n        /* \"contracts/Stakeable.sol\":7232:7247  stakes[_staker] */\n      0x00\n        /* \"contracts/Stakeable.sol\":7239:7246  _staker */\n      dup9\n        /* \"contracts/Stakeable.sol\":7232:7247  stakes[_staker] */\n      0xffffffffffffffffffffffffffffffffffffffff\n      and\n      0xffffffffffffffffffffffffffffffffffffffff\n      and\n      dup2\n      mstore\n      0x20\n      add\n      swap1\n      dup2\n      mstore\n      0x20\n      add\n      0x00\n      keccak256\n      sload\n        /* \"contracts/Stakeable.sol\":7219:7248  stakeholders[stakes[_staker]] */\n      dup2\n      sload\n      dup2\n      lt\n      tag_181\n      jumpi\n      tag_182\n      tag_183\n      jump\t// in\n    tag_182:\n    tag_181:\n      swap1\n      0x00\n      mstore\n      keccak256(0x00, 0x20)\n      swap1\n      0x02\n      mul\n      add\n        /* \"contracts/Stakeable.sol\":7219:7263  stakeholders[stakes[_staker]].address_stakes */\n      0x01\n      add\n        /* \"contracts/Stakeable.sol\":7201:7264  StakingSummary(0, stakeholders[stakes[_staker]].address_stakes) */\n      dup1\n      sload\n      dup1\n      0x20\n      mul\n      0x20\n      add\n      mload(0x40)\n      swap1\n      dup2\n      add\n      0x40\n      mstore\n      dup1\n      swap3\n      swap2\n      swap1\n      dup2\n      dup2\n      mstore\n      0x20\n      add\n      0x00\n      swap1\n    tag_185:\n      dup3\n      dup3\n      lt\n      iszero\n      tag_186\n      jumpi\n      dup4\n      dup3\n      swap1\n      0x00\n      mstore\n      keccak256(0x00, 0x20)\n      swap1\n      0x04\n      mul\n      add\n      mload(0x40)\n      dup1\n      0x80\n      add\n      0x40\n      mstore\n      swap1\n      dup2\n      0x00\n      dup3\n      add\n      0x00\n      swap1\n      sload\n      swap1\n      0x0100\n      exp\n      swap1\n      div\n      0xffffffffffffffffffffffffffffffffffffffff\n      and\n      0xffffffffffffffffffffffffffffffffffffffff\n      and\n      0xffffffffffffffffffffffffffffffffffffffff\n      and\n      dup2\n      mstore\n      0x20\n      add\n      0x01\n      dup3\n      add\n      sload\n      dup2\n      mstore\n      0x20\n      add\n      0x02\n      dup3\n      add\n      sload\n      dup2\n      mstore\n      0x20\n      add\n      0x03\n      dup3\n      add\n      sload\n      dup2\n      mstore\n      pop\n      pop\n      dup2\n      mstore\n      0x20\n      add\n      swap1\n      0x01\n      add\n      swap1\n      jump(tag_185)\n    tag_186:\n      pop\n      pop\n      pop\n      pop\n      dup2\n      mstore\n      pop\n        /* \"contracts/Stakeable.sol\":7169:7264  StakingSummary memory summary = StakingSummary(0, stakeholders[stakes[_staker]].address_stakes) */\n      swap1\n      pop\n        /* \"contracts/Stakeable.sol\":7336:7345  uint256 s */\n      0x00\n        /* \"contracts/Stakeable.sol\":7331:7604  for (uint256 s = 0; s < summary.stakes.length; s += 1){... */\n    tag_188:\n        /* \"contracts/Stakeable.sol\":7355:7362  summary */\n      dup2\n        /* \"contracts/Stakeable.sol\":7355:7369  summary.stakes */\n      0x20\n      add\n      mload\n        /* \"contracts/Stakeable.sol\":7355:7376  summary.stakes.length */\n      mload\n        /* \"contracts/Stakeable.sol\":7351:7352  s */\n      dup2\n        /* \"contracts/Stakeable.sol\":7351:7376  s < summary.stakes.length */\n      lt\n        /* \"contracts/Stakeable.sol\":7331:7604  for (uint256 s = 0; s < summary.stakes.length; s += 1){... */\n      iszero\n      tag_189\n      jumpi\n        /* \"contracts/Stakeable.sol\":7398:7421  uint256 availableReward */\n      0x00\n        /* \"contracts/Stakeable.sol\":7424:7463  calculateStakeReward(summary.stakes[s]) */\n      tag_191\n        /* \"contracts/Stakeable.sol\":7445:7452  summary */\n      dup4\n        /* \"contracts/Stakeable.sol\":7445:7459  summary.stakes */\n      0x20\n      add\n      mload\n        /* \"contracts/Stakeable.sol\":7460:7461  s */\n      dup4\n        /* \"contracts/Stakeable.sol\":7445:7462  summary.stakes[s] */\n      dup2\n      mload\n      dup2\n      lt\n      tag_192\n      jumpi\n      tag_193\n      tag_183\n      jump\t// in\n    tag_193:\n    tag_192:\n      0x20\n      mul\n      0x20\n      add\n      add\n      mload\n        /* \"contracts/Stakeable.sol\":7424:7444  calculateStakeReward */\n      tag_194\n        /* \"contracts/Stakeable.sol\":7424:7463  calculateStakeReward(summary.stakes[s]) */\n      jump\t// in\n    tag_191:\n        /* \"contracts/Stakeable.sol\":7398:7463  uint256 availableReward = calculateStakeReward(summary.stakes[s]) */\n      swap1\n      pop\n        /* \"contracts/Stakeable.sol\":7506:7521  availableReward */\n      dup1\n        /* \"contracts/Stakeable.sol\":7476:7483  summary */\n      dup4\n        /* \"contracts/Stakeable.sol\":7476:7490  summary.stakes */\n      0x20\n      add\n      mload\n        /* \"contracts/Stakeable.sol\":7491:7492  s */\n      dup4\n        /* \"contracts/Stakeable.sol\":7476:7493  summary.stakes[s] */\n      dup2\n      mload\n      dup2\n      lt\n      tag_195\n      jumpi\n      tag_196\n      tag_183\n      jump\t// in\n    tag_196:\n    tag_195:\n      0x20\n      mul\n      0x20\n      add\n      add\n      mload\n        /* \"contracts/Stakeable.sol\":7476:7503  summary.stakes[s].claimable */\n      0x60\n      add\n        /* \"contracts/Stakeable.sol\":7476:7521  summary.stakes[s].claimable = availableReward */\n      dup2\n      dup2\n      mstore\n      pop\n      pop\n        /* \"contracts/Stakeable.sol\":7570:7577  summary */\n      dup3\n        /* \"contracts/Stakeable.sol\":7570:7584  summary.stakes */\n      0x20\n      add\n      mload\n        /* \"contracts/Stakeable.sol\":7585:7586  s */\n      dup3\n        /* \"contracts/Stakeable.sol\":7570:7587  summary.stakes[s] */\n      dup2\n      mload\n      dup2\n      lt\n      tag_197\n      jumpi\n      tag_198\n      tag_183\n      jump\t// in\n    tag_198:\n    tag_197:\n      0x20\n      mul\n      0x20\n      add\n      add\n      mload\n        /* \"contracts/Stakeable.sol\":7570:7594  summary.stakes[s].amount */\n      0x20\n      add\n      mload\n        /* \"contracts/Stakeable.sol\":7553:7569  totalStakeAmount */\n      dup5\n        /* \"contracts/Stakeable.sol\":7553:7594  totalStakeAmount+summary.stakes[s].amount */\n      tag_199\n      swap2\n      swap1\n      tag_135\n      jump\t// in\n    tag_199:\n        /* \"contracts/Stakeable.sol\":7534:7594  totalStakeAmount = totalStakeAmount+summary.stakes[s].amount */\n      swap4\n      pop\n        /* \"contracts/Stakeable.sol\":7385:7604  {... */\n      pop\n        /* \"contracts/Stakeable.sol\":7383:7384  1 */\n      0x01\n        /* \"contracts/Stakeable.sol\":7378:7384  s += 1 */\n      dup2\n      tag_200\n      swap2\n      swap1\n      tag_135\n      jump\t// in\n    tag_200:\n      swap1\n      pop\n        /* \"contracts/Stakeable.sol\":7331:7604  for (uint256 s = 0; s < summary.stakes.length; s += 1){... */\n      jump(tag_188)\n    tag_189:\n      pop\n        /* \"contracts/Stakeable.sol\":7680:7696  totalStakeAmount */\n      dup2\n        /* \"contracts/Stakeable.sol\":7657:7664  summary */\n      dup2\n        /* \"contracts/Stakeable.sol\":7657:7677  summary.total_amount */\n      0x00\n      add\n        /* \"contracts/Stakeable.sol\":7657:7696  summary.total_amount = totalStakeAmount */\n      dup2\n      dup2\n      mstore\n      pop\n      pop\n        /* \"contracts/Stakeable.sol\":7713:7720  summary */\n      dup1\n        /* \"contracts/Stakeable.sol\":7706:7720  return summary */\n      swap3\n      pop\n      pop\n      pop\n        /* \"contracts/Stakeable.sol\":6899:7727  function hasStake(address _staker) public view returns(StakingSummary memory){... */\n      swap2\n      swap1\n      pop\n      jump\t// out\n        /* \"contracts/MetraToken.sol\":9114:9342  function withdrawStake(uint256 amount, uint256 stake_index)  public {... */\n    tag_107:\n        /* \"contracts/MetraToken.sol\":9191:9213  uint256 amount_to_mint */\n      0x00\n        /* \"contracts/MetraToken.sol\":9216:9251  _withdrawStake(amount, stake_index) */\n      tag_202\n        /* \"contracts/MetraToken.sol\":9231:9237  amount */\n      dup4\n        /* \"contracts/MetraToken.sol\":9239:9250  stake_index */\n      dup4\n        /* \"contracts/MetraToken.sol\":9216:9230  _withdrawStake */\n      tag_203\n        /* \"contracts/MetraToken.sol\":9216:9251  _withdrawStake(amount, stake_index) */\n      jump\t// in\n    tag_202:\n        /* \"contracts/MetraToken.sol\":9191:9251  uint256 amount_to_mint = _withdrawStake(amount, stake_index) */\n      swap1\n      pop\n        /* \"contracts/MetraToken.sol\":9297:9330  _mint(msg.sender, amount_to_mint) */\n      tag_204\n        /* \"contracts/MetraToken.sol\":9303:9313  msg.sender */\n      caller\n        /* \"contracts/MetraToken.sol\":9315:9329  amount_to_mint */\n      dup3\n        /* \"contracts/MetraToken.sol\":9297:9302  _mint */\n      tag_142\n        /* \"contracts/MetraToken.sol\":9297:9330  _mint(msg.sender, amount_to_mint) */\n      jump\t// in\n    tag_204:\n        /* \"contracts/MetraToken.sol\":9182:9342  {... */\n      pop\n        /* \"contracts/MetraToken.sol\":9114:9342  function withdrawStake(uint256 amount, uint256 stake_index)  public {... */\n      pop\n      pop\n      jump\t// out\n        /* \"contracts/Ownable.sol\":1694:1801  function transferOwnership(address newOwner) public onlyOwner {... */\n    tag_110:\n        /* \"contracts/Ownable.sol\":783:793  msg.sender */\n      caller\n        /* \"contracts/Ownable.sol\":773:793  _owner == msg.sender */\n      0xffffffffffffffffffffffffffffffffffffffff\n      and\n        /* \"contracts/Ownable.sol\":773:779  _owner */\n      0x00\n      dup1\n      sload\n      swap1\n      0x0100\n      exp\n      swap1\n      div\n      0xffffffffffffffffffffffffffffffffffffffff\n      and\n        /* \"contracts/Ownable.sol\":773:793  _owner == msg.sender */\n      0xffffffffffffffffffffffffffffffffffffffff\n      and\n      eq\n        /* \"contracts/Ownable.sol\":765:840  require(_owner == msg.sender, \"Ownable: only owner can call this function\") */\n      tag_206\n      jumpi\n      mload(0x40)\n      0x08c379a000000000000000000000000000000000000000000000000000000000\n      dup2\n      mstore\n      0x04\n      add\n      tag_207\n      swap1\n      tag_139\n      jump\t// in\n    tag_207:\n      mload(0x40)\n      dup1\n      swap2\n      sub\n      swap1\n      revert\n    tag_206:\n        /* \"contracts/Ownable.sol\":1766:1794  _transferOwnership(newOwner) */\n      tag_209\n        /* \"contracts/Ownable.sol\":1785:1793  newOwner */\n      dup2\n        /* \"contracts/Ownable.sol\":1766:1784  _transferOwnership */\n      tag_210\n        /* \"contracts/Ownable.sol\":1766:1794  _transferOwnership(newOwner) */\n      jump\t// in\n    tag_209:\n        /* \"contracts/Ownable.sol\":1694:1801  function transferOwnership(address newOwner) public onlyOwner {... */\n      pop\n      jump\t// out\n        /* \"contracts/MetraToken.sol\":6826:7264  function _approve(address owner, address spender, uint256 amount) internal {... */\n    tag_120:\n        /* \"contracts/MetraToken.sol\":6934:6935  0 */\n      0x00\n        /* \"contracts/MetraToken.sol\":6917:6936  owner != address(0) */\n      0xffffffffffffffffffffffffffffffffffffffff\n      and\n        /* \"contracts/MetraToken.sol\":6917:6922  owner */\n      dup4\n        /* \"contracts/MetraToken.sol\":6917:6936  owner != address(0) */\n      0xffffffffffffffffffffffffffffffffffffffff\n      and\n      eq\n      iszero\n        /* \"contracts/MetraToken.sol\":6909:6988  require(owner != address(0), \"Metra: approve cannot be done from zero address\") */\n      tag_212\n      jumpi\n      mload(0x40)\n      0x08c379a000000000000000000000000000000000000000000000000000000000\n      dup2\n      mstore\n      0x04\n      add\n      tag_213\n      swap1\n      tag_214\n      jump\t// in\n    tag_213:\n      mload(0x40)\n      dup1\n      swap2\n      sub\n      swap1\n      revert\n    tag_212:\n        /* \"contracts/MetraToken.sol\":7023:7024  0 */\n      0x00\n        /* \"contracts/MetraToken.sol\":7004:7025  spender != address(0) */\n      0xffffffffffffffffffffffffffffffffffffffff\n      and\n        /* \"contracts/MetraToken.sol\":7004:7011  spender */\n      dup3\n        /* \"contracts/MetraToken.sol\":7004:7025  spender != address(0) */\n      0xffffffffffffffffffffffffffffffffffffffff\n      and\n      eq\n      iszero\n        /* \"contracts/MetraToken.sol\":6996:7070  require(spender != address(0), \"Metra: approve cannot be to zero address\") */\n      tag_215\n      jumpi\n      mload(0x40)\n      0x08c379a000000000000000000000000000000000000000000000000000000000\n      dup2\n      mstore\n      0x04\n      add\n      tag_216\n      swap1\n      tag_217\n      jump\t// in\n    tag_216:\n      mload(0x40)\n      dup1\n      swap2\n      sub\n      swap1\n      revert\n    tag_215:\n        /* \"contracts/MetraToken.sol\":7207:7213  amount */\n      dup1\n        /* \"contracts/MetraToken.sol\":7177:7188  _allowances */\n      0x09\n        /* \"contracts/MetraToken.sol\":7177:7195  _allowances[owner] */\n      0x00\n        /* \"contracts/MetraToken.sol\":7189:7194  owner */\n      dup6\n        /* \"contracts/MetraToken.sol\":7177:7195  _allowances[owner] */\n      0xffffffffffffffffffffffffffffffffffffffff\n      and\n      0xffffffffffffffffffffffffffffffffffffffff\n      and\n      dup2\n      mstore\n      0x20\n      add\n      swap1\n      dup2\n      mstore\n      0x20\n      add\n      0x00\n      keccak256\n        /* \"contracts/MetraToken.sol\":7177:7204  _allowances[owner][spender] */\n      0x00\n        /* \"contracts/MetraToken.sol\":7196:7203  spender */\n      dup5\n        /* \"contracts/MetraToken.sol\":7177:7204  _allowances[owner][spender] */\n      0xffffffffffffffffffffffffffffffffffffffff\n      and\n      0xffffffffffffffffffffffffffffffffffffffff\n      and\n      dup2\n      mstore\n      0x20\n      add\n      swap1\n      dup2\n      mstore\n      0x20\n      add\n      0x00\n      keccak256\n        /* \"contracts/MetraToken.sol\":7177:7213  _allowances[owner][spender] = amount */\n      dup2\n      swap1\n      sstore\n      pop\n        /* \"contracts/MetraToken.sol\":7242:7249  spender */\n      dup2\n        /* \"contracts/MetraToken.sol\":7227:7257  Approval(owner,spender,amount) */\n      0xffffffffffffffffffffffffffffffffffffffff\n      and\n        /* \"contracts/MetraToken.sol\":7236:7241  owner */\n      dup4\n        /* \"contracts/MetraToken.sol\":7227:7257  Approval(owner,spender,amount) */\n      0xffffffffffffffffffffffffffffffffffffffff\n      and\n      0x8c5be1e5ebec7d5bd14f71427d1e84f3dd0314c0f7b2291e5b200ac8c7c3b925\n        /* \"contracts/MetraToken.sol\":7250:7256  amount */\n      dup4\n        /* \"contracts/MetraToken.sol\":7227:7257  Approval(owner,spender,amount) */\n      mload(0x40)\n      tag_218\n      swap2\n      swap1\n      tag_40\n      jump\t// in\n    tag_218:\n      mload(0x40)\n      dup1\n      swap2\n      sub\n      swap1\n      log3\n        /* \"contracts/MetraToken.sol\":6826:7264  function _approve(address owner, address spender, uint256 amount) internal {... */\n      pop\n      pop\n      pop\n      jump\t// out\n        /* \"contracts/MetraToken.sol\":5478:5960  function _transfer(address sender, address recipient, uint256 amount) internal {... */\n    tag_127:\n        /* \"contracts/MetraToken.sol\":5589:5590  0 */\n      0x00\n        /* \"contracts/MetraToken.sol\":5571:5591  sender != address(0) */\n      0xffffffffffffffffffffffffffffffffffffffff\n      and\n        /* \"contracts/MetraToken.sol\":5571:5577  sender */\n      dup4\n        /* \"contracts/MetraToken.sol\":5571:5591  sender != address(0) */\n      0xffffffffffffffffffffffffffffffffffffffff\n      and\n      eq\n      iszero\n        /* \"contracts/MetraToken.sol\":5563:5629  require(sender != address(0), \"Metra: transfer from zero address\") */\n      tag_220\n      jumpi\n      mload(0x40)\n      0x08c379a000000000000000000000000000000000000000000000000000000000\n      dup2\n      mstore\n      0x04\n      add\n      tag_221\n      swap1\n      tag_222\n      jump\t// in\n    tag_221:\n      mload(0x40)\n      dup1\n      swap2\n      sub\n      swap1\n      revert\n    tag_220:\n        /* \"contracts/MetraToken.sol\":5664:5665  0 */\n      0x00\n        /* \"contracts/MetraToken.sol\":5643:5666  recipient != address(0) */\n      0xffffffffffffffffffffffffffffffffffffffff\n      and\n        /* \"contracts/MetraToken.sol\":5643:5652  recipient */\n      dup3\n        /* \"contracts/MetraToken.sol\":5643:5666  recipient != address(0) */\n      0xffffffffffffffffffffffffffffffffffffffff\n      and\n      eq\n      iszero\n        /* \"contracts/MetraToken.sol\":5635:5702  require(recipient != address(0), \"Metra: transfer to zero address\") */\n      tag_223\n      jumpi\n      mload(0x40)\n      0x08c379a000000000000000000000000000000000000000000000000000000000\n      dup2\n      mstore\n      0x04\n      add\n      tag_224\n      swap1\n      tag_225\n      jump\t// in\n    tag_224:\n      mload(0x40)\n      dup1\n      swap2\n      sub\n      swap1\n      revert\n    tag_223:\n        /* \"contracts/MetraToken.sol\":5737:5743  amount */\n      dup1\n        /* \"contracts/MetraToken.sol\":5716:5725  _balances */\n      0x08\n        /* \"contracts/MetraToken.sol\":5716:5733  _balances[sender] */\n      0x00\n        /* \"contracts/MetraToken.sol\":5726:5732  sender */\n      dup6\n        /* \"contracts/MetraToken.sol\":5716:5733  _balances[sender] */\n      0xffffffffffffffffffffffffffffffffffffffff\n      and\n      0xffffffffffffffffffffffffffffffffffffffff\n      and\n      dup2\n      mstore\n      0x20\n      add\n      swap1\n      dup2\n      mstore\n      0x20\n      add\n      0x00\n      keccak256\n      sload\n        /* \"contracts/MetraToken.sol\":5716:5743  _balances[sender] >= amount */\n      lt\n      iszero\n        /* \"contracts/MetraToken.sol\":5708:5797  require(_balances[sender] >= amount, \"Metra: cant transfer more than your account holds\") */\n      tag_226\n      jumpi\n      mload(0x40)\n      0x08c379a000000000000000000000000000000000000000000000000000000000\n      dup2\n      mstore\n      0x04\n      add\n      tag_227\n      swap1\n      tag_228\n      jump\t// in\n    tag_227:\n      mload(0x40)\n      dup1\n      swap2\n      sub\n      swap1\n      revert\n    tag_226:\n        /* \"contracts/MetraToken.sol\":5844:5850  amount */\n      dup1\n        /* \"contracts/MetraToken.sol\":5824:5833  _balances */\n      0x08\n        /* \"contracts/MetraToken.sol\":5824:5841  _balances[sender] */\n      0x00\n        /* \"contracts/MetraToken.sol\":5834:5840  sender */\n      dup6\n        /* \"contracts/MetraToken.sol\":5824:5841  _balances[sender] */\n      0xffffffffffffffffffffffffffffffffffffffff\n      and\n      0xffffffffffffffffffffffffffffffffffffffff\n      and\n      dup2\n      mstore\n      0x20\n      add\n      swap1\n      dup2\n      mstore\n      0x20\n      add\n      0x00\n      keccak256\n      sload\n        /* \"contracts/MetraToken.sol\":5824:5850  _balances[sender] - amount */\n      tag_229\n      swap2\n      swap1\n      tag_130\n      jump\t// in\n    tag_229:\n        /* \"contracts/MetraToken.sol\":5804:5813  _balances */\n      0x08\n        /* \"contracts/MetraToken.sol\":5804:5821  _balances[sender] */\n      0x00\n        /* \"contracts/MetraToken.sol\":5814:5820  sender */\n      dup6\n        /* \"contracts/MetraToken.sol\":5804:5821  _balances[sender] */\n      0xffffffffffffffffffffffffffffffffffffffff\n      and\n      0xffffffffffffffffffffffffffffffffffffffff\n      and\n      dup2\n      mstore\n      0x20\n      add\n      swap1\n      dup2\n      mstore\n      0x20\n      add\n      0x00\n      keccak256\n        /* \"contracts/MetraToken.sol\":5804:5850  _balances[sender] = _balances[sender] - amount */\n      dup2\n      swap1\n      sstore\n      pop\n        /* \"contracts/MetraToken.sol\":5902:5908  amount */\n      dup1\n        /* \"contracts/MetraToken.sol\":5879:5888  _balances */\n      0x08\n        /* \"contracts/MetraToken.sol\":5879:5899  _balances[recipient] */\n      0x00\n        /* \"contracts/MetraToken.sol\":5889:5898  recipient */\n      dup5\n        /* \"contracts/MetraToken.sol\":5879:5899  _balances[recipient] */\n      0xffffffffffffffffffffffffffffffffffffffff\n      and\n      0xffffffffffffffffffffffffffffffffffffffff\n      and\n      dup2\n      mstore\n      0x20\n      add\n      swap1\n      dup2\n      mstore\n      0x20\n      add\n      0x00\n      keccak256\n      sload\n        /* \"contracts/MetraToken.sol\":5879:5908  _balances[recipient] + amount */\n      tag_230\n      swap2\n      swap1\n      tag_135\n      jump\t// in\n    tag_230:\n        /* \"contracts/MetraToken.sol\":5856:5865  _balances */\n      0x08\n        /* \"contracts/MetraToken.sol\":5856:5876  _balances[recipient] */\n      0x00\n        /* \"contracts/MetraToken.sol\":5866:5875  recipient */\n      dup5\n        /* \"contracts/MetraToken.sol\":5856:5876  _balances[recipient] */\n      0xffffffffffffffffffffffffffffffffffffffff\n      and\n      0xffffffffffffffffffffffffffffffffffffffff\n      and\n      dup2\n      mstore\n      0x20\n      add\n      swap1\n      dup2\n      mstore\n      0x20\n      add\n      0x00\n      keccak256\n        /* \"contracts/MetraToken.sol\":5856:5908  _balances[recipient] = _balances[recipient] + amount */\n      dup2\n      swap1\n      sstore\n      pop\n        /* \"contracts/MetraToken.sol\":5937:5946  recipient */\n      dup2\n        /* \"contracts/MetraToken.sol\":5920:5955  Transfer(sender, recipient, amount) */\n      0xffffffffffffffffffffffffffffffffffffffff\n      and\n        /* \"contracts/MetraToken.sol\":5929:5935  sender */\n      dup4\n        /* \"contracts/MetraToken.sol\":5920:5955  Transfer(sender, recipient, amount) */\n      0xffffffffffffffffffffffffffffffffffffffff\n      and\n      0xddf252ad1be2c89b69c2b068fc378daa952ba7f163c4a11628f55a4df523b3ef\n        /* \"contracts/MetraToken.sol\":5948:5954  amount */\n      dup4\n        /* \"contracts/MetraToken.sol\":5920:5955  Transfer(sender, recipient, amount) */\n      mload(0x40)\n      tag_231\n      swap2\n      swap1\n      tag_40\n      jump\t// in\n    tag_231:\n      mload(0x40)\n      dup1\n      swap2\n      sub\n      swap1\n      log3\n        /* \"contracts/MetraToken.sol\":5478:5960  function _transfer(address sender, address recipient, uint256 amount) internal {... */\n      pop\n      pop\n      pop\n      jump\t// out\n        /* \"contracts/MetraToken.sol\":3018:3437  function _mint(address account, uint256 amount) internal {... */\n    tag_142:\n        /* \"contracts/MetraToken.sol\":3108:3109  0 */\n      0x00\n        /* \"contracts/MetraToken.sol\":3089:3110  account != address(0) */\n      0xffffffffffffffffffffffffffffffffffffffff\n      and\n        /* \"contracts/MetraToken.sol\":3089:3096  account */\n      dup3\n        /* \"contracts/MetraToken.sol\":3089:3110  account != address(0) */\n      0xffffffffffffffffffffffffffffffffffffffff\n      and\n      eq\n      iszero\n        /* \"contracts/MetraToken.sol\":3081:3149  require(account != address(0), \"Metra: cannot mint to zero address\") */\n      tag_233\n      jumpi\n      mload(0x40)\n      0x08c379a000000000000000000000000000000000000000000000000000000000\n      dup2\n      mstore\n      0x04\n      add\n      tag_234\n      swap1\n      tag_235\n      jump\t// in\n    tag_234:\n      mload(0x40)\n      dup1\n      swap2\n      sub\n      swap1\n      revert\n    tag_233:\n        /* \"contracts/MetraToken.sol\":3216:3222  amount */\n      dup1\n        /* \"contracts/MetraToken.sol\":3200:3212  _totalSupply */\n      sload(0x04)\n        /* \"contracts/MetraToken.sol\":3200:3223  _totalSupply + (amount) */\n      tag_236\n      swap2\n      swap1\n      tag_135\n      jump\t// in\n    tag_236:\n        /* \"contracts/MetraToken.sol\":3185:3197  _totalSupply */\n      0x04\n        /* \"contracts/MetraToken.sol\":3185:3223  _totalSupply = _totalSupply + (amount) */\n      dup2\n      swap1\n      sstore\n      pop\n        /* \"contracts/MetraToken.sol\":3338:3344  amount */\n      dup1\n        /* \"contracts/MetraToken.sol\":3317:3326  _balances */\n      0x08\n        /* \"contracts/MetraToken.sol\":3317:3335  _balances[account] */\n      0x00\n        /* \"contracts/MetraToken.sol\":3327:3334  account */\n      dup5\n        /* \"contracts/MetraToken.sol\":3317:3335  _balances[account] */\n      0xffffffffffffffffffffffffffffffffffffffff\n      and\n      0xffffffffffffffffffffffffffffffffffffffff\n      and\n      dup2\n      mstore\n      0x20\n      add\n      swap1\n      dup2\n      mstore\n      0x20\n      add\n      0x00\n      keccak256\n      sload\n        /* \"contracts/MetraToken.sol\":3317:3344  _balances[account] + amount */\n      tag_237\n      swap2\n      swap1\n      tag_135\n      jump\t// in\n    tag_237:\n        /* \"contracts/MetraToken.sol\":3296:3305  _balances */\n      0x08\n        /* \"contracts/MetraToken.sol\":3296:3314  _balances[account] */\n      0x00\n        /* \"contracts/MetraToken.sol\":3306:3313  account */\n      dup5\n        /* \"contracts/MetraToken.sol\":3296:3314  _balances[account] */\n      0xffffffffffffffffffffffffffffffffffffffff\n      and\n      0xffffffffffffffffffffffffffffffffffffffff\n      and\n      dup2\n      mstore\n      0x20\n      add\n      swap1\n      dup2\n      mstore\n      0x20\n      add\n      0x00\n      keccak256\n        /* \"contracts/MetraToken.sol\":3296:3344  _balances[account] = _balances[account] + amount */\n      dup2\n      swap1\n      sstore\n      pop\n        /* \"contracts/MetraToken.sol\":3416:3423  account */\n      dup2\n        /* \"contracts/MetraToken.sol\":3395:3432  Transfer(address(0), account, amount) */\n      0xffffffffffffffffffffffffffffffffffffffff\n      and\n        /* \"contracts/MetraToken.sol\":3412:3413  0 */\n      0x00\n        /* \"contracts/MetraToken.sol\":3395:3432  Transfer(address(0), account, amount) */\n      0xffffffffffffffffffffffffffffffffffffffff\n      and\n      0xddf252ad1be2c89b69c2b068fc378daa952ba7f163c4a11628f55a4df523b3ef\n        /* \"contracts/MetraToken.sol\":3425:3431  amount */\n      dup4\n        /* \"contracts/MetraToken.sol\":3395:3432  Transfer(address(0), account, amount) */\n      mload(0x40)\n      tag_238\n      swap2\n      swap1\n      tag_40\n      jump\t// in\n    tag_238:\n      mload(0x40)\n      dup1\n      swap2\n      sub\n      swap1\n      log3\n        /* \"contracts/MetraToken.sol\":3018:3437  function _mint(address account, uint256 amount) internal {... */\n      pop\n      pop\n      jump\t// out\n        /* \"contracts/MetraToken.sol\":3718:4219  function _burn(address account, uint256 amount) internal {... */\n    tag_164:\n        /* \"contracts/MetraToken.sol\":3808:3809  0 */\n      0x00\n        /* \"contracts/MetraToken.sol\":3789:3810  account != address(0) */\n      0xffffffffffffffffffffffffffffffffffffffff\n      and\n        /* \"contracts/MetraToken.sol\":3789:3796  account */\n      dup3\n        /* \"contracts/MetraToken.sol\":3789:3810  account != address(0) */\n      0xffffffffffffffffffffffffffffffffffffffff\n      and\n      eq\n      iszero\n        /* \"contracts/MetraToken.sol\":3781:3851  require(account != address(0), \"Metra: cannot burn from zero address\") */\n      tag_240\n      jumpi\n      mload(0x40)\n      0x08c379a000000000000000000000000000000000000000000000000000000000\n      dup2\n      mstore\n      0x04\n      add\n      tag_241\n      swap1\n      tag_242\n      jump\t// in\n    tag_241:\n      mload(0x40)\n      dup1\n      swap2\n      sub\n      swap1\n      revert\n    tag_240:\n        /* \"contracts/MetraToken.sol\":3887:3893  amount */\n      dup1\n        /* \"contracts/MetraToken.sol\":3865:3874  _balances */\n      0x08\n        /* \"contracts/MetraToken.sol\":3865:3883  _balances[account] */\n      0x00\n        /* \"contracts/MetraToken.sol\":3875:3882  account */\n      dup5\n        /* \"contracts/MetraToken.sol\":3865:3883  _balances[account] */\n      0xffffffffffffffffffffffffffffffffffffffff\n      and\n      0xffffffffffffffffffffffffffffffffffffffff\n      and\n      dup2\n      mstore\n      0x20\n      add\n      swap1\n      dup2\n      mstore\n      0x20\n      add\n      0x00\n      keccak256\n      sload\n        /* \"contracts/MetraToken.sol\":3865:3893  _balances[account] >= amount */\n      lt\n      iszero\n        /* \"contracts/MetraToken.sol\":3857:3943  require(_balances[account] >= amount, \"Metra: Cannot burn more than the account owns\") */\n      tag_243\n      jumpi\n      mload(0x40)\n      0x08c379a000000000000000000000000000000000000000000000000000000000\n      dup2\n      mstore\n      0x04\n      add\n      tag_244\n      swap1\n      tag_245\n      jump\t// in\n    tag_244:\n      mload(0x40)\n      dup1\n      swap2\n      sub\n      swap1\n      revert\n    tag_243:\n        /* \"contracts/MetraToken.sol\":4042:4048  amount */\n      dup1\n        /* \"contracts/MetraToken.sol\":4021:4030  _balances */\n      0x08\n        /* \"contracts/MetraToken.sol\":4021:4039  _balances[account] */\n      0x00\n        /* \"contracts/MetraToken.sol\":4031:4038  account */\n      dup5\n        /* \"contracts/MetraToken.sol\":4021:4039  _balances[account] */\n      0xffffffffffffffffffffffffffffffffffffffff\n      and\n      0xffffffffffffffffffffffffffffffffffffffff\n      and\n      dup2\n      mstore\n      0x20\n      add\n      swap1\n      dup2\n      mstore\n      0x20\n      add\n      0x00\n      keccak256\n      sload\n        /* \"contracts/MetraToken.sol\":4021:4048  _balances[account] - amount */\n      tag_246\n      swap2\n      swap1\n      tag_130\n      jump\t// in\n    tag_246:\n        /* \"contracts/MetraToken.sol\":4000:4009  _balances */\n      0x08\n        /* \"contracts/MetraToken.sol\":4000:4018  _balances[account] */\n      0x00\n        /* \"contracts/MetraToken.sol\":4010:4017  account */\n      dup5\n        /* \"contracts/MetraToken.sol\":4000:4018  _balances[account] */\n      0xffffffffffffffffffffffffffffffffffffffff\n      and\n      0xffffffffffffffffffffffffffffffffffffffff\n      and\n      dup2\n      mstore\n      0x20\n      add\n      swap1\n      dup2\n      mstore\n      0x20\n      add\n      0x00\n      keccak256\n        /* \"contracts/MetraToken.sol\":4000:4048  _balances[account] = _balances[account] - amount */\n      dup2\n      swap1\n      sstore\n      pop\n        /* \"contracts/MetraToken.sol\":4112:4118  amount */\n      dup1\n        /* \"contracts/MetraToken.sol\":4097:4109  _totalSupply */\n      sload(0x04)\n        /* \"contracts/MetraToken.sol\":4097:4118  _totalSupply - amount */\n      tag_247\n      swap2\n      swap1\n      tag_130\n      jump\t// in\n    tag_247:\n        /* \"contracts/MetraToken.sol\":4082:4094  _totalSupply */\n      0x04\n        /* \"contracts/MetraToken.sol\":4082:4118  _totalSupply = _totalSupply - amount */\n      dup2\n      swap1\n      sstore\n      pop\n        /* \"contracts/MetraToken.sol\":4203:4204  0 */\n      0x00\n        /* \"contracts/MetraToken.sol\":4177:4214  Transfer(account, address(0), amount) */\n      0xffffffffffffffffffffffffffffffffffffffff\n      and\n        /* \"contracts/MetraToken.sol\":4186:4193  account */\n      dup3\n        /* \"contracts/MetraToken.sol\":4177:4214  Transfer(account, address(0), amount) */\n      0xffffffffffffffffffffffffffffffffffffffff\n      and\n      0xddf252ad1be2c89b69c2b068fc378daa952ba7f163c4a11628f55a4df523b3ef\n        /* \"contracts/MetraToken.sol\":4207:4213  amount */\n      dup4\n        /* \"contracts/MetraToken.sol\":4177:4214  Transfer(account, address(0), amount) */\n      mload(0x40)\n      tag_248\n      swap2\n      swap1\n      tag_40\n      jump\t// in\n    tag_248:\n      mload(0x40)\n      dup1\n      swap2\n      sub\n      swap1\n      log3\n        /* \"contracts/MetraToken.sol\":3718:4219  function _burn(address account, uint256 amount) internal {... */\n      pop\n      pop\n      jump\t// out\n        /* \"contracts/Stakeable.sol\":3057:4233  function _stake(uint256 _amount) internal{... */\n    tag_173:\n        /* \"contracts/Stakeable.sol\":3181:3182  0 */\n      0x00\n        /* \"contracts/Stakeable.sol\":3171:3178  _amount */\n      dup2\n        /* \"contracts/Stakeable.sol\":3171:3182  _amount > 0 */\n      gt\n        /* \"contracts/Stakeable.sol\":3163:3207  require(_amount > 0, \"Cannot stake nothing\") */\n      tag_250\n      jumpi\n      mload(0x40)\n      0x08c379a000000000000000000000000000000000000000000000000000000000\n      dup2\n      mstore\n      0x04\n      add\n      tag_251\n      swap1\n      tag_252\n      jump\t// in\n    tag_251:\n      mload(0x40)\n      dup1\n      swap2\n      sub\n      swap1\n      revert\n    tag_250:\n        /* \"contracts/Stakeable.sol\":3323:3336  uint256 index */\n      0x00\n        /* \"contracts/Stakeable.sol\":3339:3345  stakes */\n      0x02\n        /* \"contracts/Stakeable.sol\":3339:3357  stakes[msg.sender] */\n      0x00\n        /* \"contracts/Stakeable.sol\":3346:3356  msg.sender */\n      caller\n        /* \"contracts/Stakeable.sol\":3339:3357  stakes[msg.sender] */\n      0xffffffffffffffffffffffffffffffffffffffff\n      and\n      0xffffffffffffffffffffffffffffffffffffffff\n      and\n      dup2\n      mstore\n      0x20\n      add\n      swap1\n      dup2\n      mstore\n      0x20\n      add\n      0x00\n      keccak256\n      sload\n        /* \"contracts/Stakeable.sol\":3323:3357  uint256 index = stakes[msg.sender] */\n      swap1\n      pop\n        /* \"contracts/Stakeable.sol\":3454:3471  uint256 timestamp */\n      0x00\n        /* \"contracts/Stakeable.sol\":3474:3489  block.timestamp */\n      timestamp\n        /* \"contracts/Stakeable.sol\":3454:3489  uint256 timestamp = block.timestamp */\n      swap1\n      pop\n        /* \"contracts/Stakeable.sol\":3592:3593  0 */\n      0x00\n        /* \"contracts/Stakeable.sol\":3583:3588  index */\n      dup3\n        /* \"contracts/Stakeable.sol\":3583:3593  index == 0 */\n      eq\n        /* \"contracts/Stakeable.sol\":3580:3908  if(index == 0){... */\n      iszero\n      tag_253\n      jumpi\n        /* \"contracts/Stakeable.sol\":3870:3897  _addStakeholder(msg.sender) */\n      tag_254\n        /* \"contracts/Stakeable.sol\":3886:3896  msg.sender */\n      caller\n        /* \"contracts/Stakeable.sol\":3870:3885  _addStakeholder */\n      tag_255\n        /* \"contracts/Stakeable.sol\":3870:3897  _addStakeholder(msg.sender) */\n      jump\t// in\n    tag_254:\n        /* \"contracts/Stakeable.sol\":3862:3897  index = _addStakeholder(msg.sender) */\n      swap2\n      pop\n        /* \"contracts/Stakeable.sol\":3580:3908  if(index == 0){... */\n    tag_253:\n        /* \"contracts/Stakeable.sol\":4035:4047  stakeholders */\n      0x01\n        /* \"contracts/Stakeable.sol\":4048:4053  index */\n      dup3\n        /* \"contracts/Stakeable.sol\":4035:4054  stakeholders[index] */\n      dup2\n      sload\n      dup2\n      lt\n      tag_256\n      jumpi\n      tag_257\n      tag_183\n      jump\t// in\n    tag_257:\n    tag_256:\n      swap1\n      0x00\n      mstore\n      keccak256(0x00, 0x20)\n      swap1\n      0x02\n      mul\n      add\n        /* \"contracts/Stakeable.sol\":4035:4069  stakeholders[index].address_stakes */\n      0x01\n      add\n        /* \"contracts/Stakeable.sol\":4075:4114  Stake(msg.sender, _amount, timestamp,0) */\n      mload(0x40)\n      dup1\n      0x80\n      add\n      0x40\n      mstore\n      dup1\n        /* \"contracts/Stakeable.sol\":4081:4091  msg.sender */\n      caller\n        /* \"contracts/Stakeable.sol\":4075:4114  Stake(msg.sender, _amount, timestamp,0) */\n      0xffffffffffffffffffffffffffffffffffffffff\n      and\n      dup2\n      mstore\n      0x20\n      add\n        /* \"contracts/Stakeable.sol\":4093:4100  _amount */\n      dup6\n        /* \"contracts/Stakeable.sol\":4075:4114  Stake(msg.sender, _amount, timestamp,0) */\n      dup2\n      mstore\n      0x20\n      add\n        /* \"contracts/Stakeable.sol\":4102:4111  timestamp */\n      dup4\n        /* \"contracts/Stakeable.sol\":4075:4114  Stake(msg.sender, _amount, timestamp,0) */\n      dup2\n      mstore\n      0x20\n      add\n        /* \"contracts/Stakeable.sol\":4112:4113  0 */\n      0x00\n        /* \"contracts/Stakeable.sol\":4075:4114  Stake(msg.sender, _amount, timestamp,0) */\n      dup2\n      mstore\n      pop\n        /* \"contracts/Stakeable.sol\":4035:4115  stakeholders[index].address_stakes.push(Stake(msg.sender, _amount, timestamp,0)) */\n      swap1\n      dup1\n      0x01\n      dup2\n      sload\n      add\n      dup1\n      dup3\n      sstore\n      dup1\n      swap2\n      pop\n      pop\n      0x01\n      swap1\n      sub\n      swap1\n      0x00\n      mstore\n      keccak256(0x00, 0x20)\n      swap1\n      0x04\n      mul\n      add\n      0x00\n      swap1\n      swap2\n      swap1\n      swap2\n      swap1\n      swap2\n      pop\n      0x00\n      dup3\n      add\n      mload\n      dup2\n      0x00\n      add\n      exp(0x0100, 0x00)\n      dup2\n      sload\n      dup2\n      0xffffffffffffffffffffffffffffffffffffffff\n      mul\n      not\n      and\n      swap1\n      dup4\n      0xffffffffffffffffffffffffffffffffffffffff\n      and\n      mul\n      or\n      swap1\n      sstore\n      pop\n      0x20\n      dup3\n      add\n      mload\n      dup2\n      0x01\n      add\n      sstore\n      0x40\n      dup3\n      add\n      mload\n      dup2\n      0x02\n      add\n      sstore\n      0x60\n      dup3\n      add\n      mload\n      dup2\n      0x03\n      add\n      sstore\n      pop\n      pop\n        /* \"contracts/Stakeable.sol\":4189:4199  msg.sender */\n      caller\n        /* \"contracts/Stakeable.sol\":4182:4226  Staked(msg.sender, _amount, index,timestamp) */\n      0xffffffffffffffffffffffffffffffffffffffff\n      and\n      0xb4caaf29adda3eefee3ad552a8e85058589bf834c7466cae4ee58787f70589ed\n        /* \"contracts/Stakeable.sol\":4201:4208  _amount */\n      dup5\n        /* \"contracts/Stakeable.sol\":4210:4215  index */\n      dup5\n        /* \"contracts/Stakeable.sol\":4216:4225  timestamp */\n      dup5\n        /* \"contracts/Stakeable.sol\":4182:4226  Staked(msg.sender, _amount, index,timestamp) */\n      mload(0x40)\n      tag_260\n      swap4\n      swap3\n      swap2\n      swap1\n      tag_261\n      jump\t// in\n    tag_260:\n      mload(0x40)\n      dup1\n      swap2\n      sub\n      swap1\n      log2\n        /* \"contracts/Stakeable.sol\":3098:4233  {... */\n      pop\n      pop\n        /* \"contracts/Stakeable.sol\":3057:4233  function _stake(uint256 _amount) internal{... */\n      pop\n      jump\t// out\n        /* \"contracts/Stakeable.sol\":4426:5230  function calculateStakeReward(Stake memory _current_stake) internal view returns(uint256){... */\n    tag_194:\n        /* \"contracts/Stakeable.sol\":4507:4514  uint256 */\n      0x00\n        /* \"contracts/Stakeable.sol\":5208:5221  rewardPerHour */\n      sload(0x03)\n        /* \"contracts/Stakeable.sol\":5183:5197  _current_stake */\n      dup3\n        /* \"contracts/Stakeable.sol\":5183:5204  _current_stake.amount */\n      0x20\n      add\n      mload\n        /* \"contracts/Stakeable.sol\":5172:5179  1 hours */\n      0x0e10\n        /* \"contracts/Stakeable.sol\":5148:5162  _current_stake */\n      dup5\n        /* \"contracts/Stakeable.sol\":5148:5168  _current_stake.since */\n      0x40\n      add\n      mload\n        /* \"contracts/Stakeable.sol\":5130:5145  block.timestamp */\n      timestamp\n        /* \"contracts/Stakeable.sol\":5130:5168  block.timestamp - _current_stake.since */\n      tag_263\n      swap2\n      swap1\n      tag_130\n      jump\t// in\n    tag_263:\n        /* \"contracts/Stakeable.sol\":5129:5179  (block.timestamp - _current_stake.since) / 1 hours */\n      tag_264\n      swap2\n      swap1\n      tag_265\n      jump\t// in\n    tag_264:\n        /* \"contracts/Stakeable.sol\":5128:5204  ((block.timestamp - _current_stake.since) / 1 hours) * _current_stake.amount */\n      tag_266\n      swap2\n      swap1\n      tag_267\n      jump\t// in\n    tag_266:\n        /* \"contracts/Stakeable.sol\":5127:5221  (((block.timestamp - _current_stake.since) / 1 hours) * _current_stake.amount) / rewardPerHour */\n      tag_268\n      swap2\n      swap1\n      tag_265\n      jump\t// in\n    tag_268:\n        /* \"contracts/Stakeable.sol\":5120:5221  return (((block.timestamp - _current_stake.since) / 1 hours) * _current_stake.amount) / rewardPerHour */\n      swap1\n      pop\n        /* \"contracts/Stakeable.sol\":4426:5230  function calculateStakeReward(Stake memory _current_stake) internal view returns(uint256){... */\n      swap2\n      swap1\n      pop\n      jump\t// out\n        /* \"contracts/Stakeable.sol\":5574:6748  function _withdrawStake(uint256 amount, uint256 index) internal returns(uint256){... */\n    tag_203:\n        /* \"contracts/Stakeable.sol\":5646:5653  uint256 */\n      0x00\n        /* \"contracts/Stakeable.sol\":5738:5756  uint256 user_index */\n      dup1\n        /* \"contracts/Stakeable.sol\":5759:5765  stakes */\n      0x02\n        /* \"contracts/Stakeable.sol\":5759:5777  stakes[msg.sender] */\n      0x00\n        /* \"contracts/Stakeable.sol\":5766:5776  msg.sender */\n      caller\n        /* \"contracts/Stakeable.sol\":5759:5777  stakes[msg.sender] */\n      0xffffffffffffffffffffffffffffffffffffffff\n      and\n      0xffffffffffffffffffffffffffffffffffffffff\n      and\n      dup2\n      mstore\n      0x20\n      add\n      swap1\n      dup2\n      mstore\n      0x20\n      add\n      0x00\n      keccak256\n      sload\n        /* \"contracts/Stakeable.sol\":5738:5777  uint256 user_index = stakes[msg.sender] */\n      swap1\n      pop\n        /* \"contracts/Stakeable.sol\":5787:5813  Stake memory current_stake */\n      0x00\n        /* \"contracts/Stakeable.sol\":5816:5828  stakeholders */\n      0x01\n        /* \"contracts/Stakeable.sol\":5829:5839  user_index */\n      dup3\n        /* \"contracts/Stakeable.sol\":5816:5840  stakeholders[user_index] */\n      dup2\n      sload\n      dup2\n      lt\n      tag_270\n      jumpi\n      tag_271\n      tag_183\n      jump\t// in\n    tag_271:\n    tag_270:\n      swap1\n      0x00\n      mstore\n      keccak256(0x00, 0x20)\n      swap1\n      0x02\n      mul\n      add\n        /* \"contracts/Stakeable.sol\":5816:5855  stakeholders[user_index].address_stakes */\n      0x01\n      add\n        /* \"contracts/Stakeable.sol\":5856:5861  index */\n      dup5\n        /* \"contracts/Stakeable.sol\":5816:5862  stakeholders[user_index].address_stakes[index] */\n      dup2\n      sload\n      dup2\n      lt\n      tag_273\n      jumpi\n      tag_274\n      tag_183\n      jump\t// in\n    tag_274:\n    tag_273:\n      swap1\n      0x00\n      mstore\n      keccak256(0x00, 0x20)\n      swap1\n      0x04\n      mul\n      add\n        /* \"contracts/Stakeable.sol\":5787:5862  Stake memory current_stake = stakeholders[user_index].address_stakes[index] */\n      mload(0x40)\n      dup1\n      0x80\n      add\n      0x40\n      mstore\n      swap1\n      dup2\n      0x00\n      dup3\n      add\n      0x00\n      swap1\n      sload\n      swap1\n      0x0100\n      exp\n      swap1\n      div\n      0xffffffffffffffffffffffffffffffffffffffff\n      and\n      0xffffffffffffffffffffffffffffffffffffffff\n      and\n      0xffffffffffffffffffffffffffffffffffffffff\n      and\n      dup2\n      mstore\n      0x20\n      add\n      0x01\n      dup3\n      add\n      sload\n      dup2\n      mstore\n      0x20\n      add\n      0x02\n      dup3\n      add\n      sload\n      dup2\n      mstore\n      0x20\n      add\n      0x03\n      dup3\n      add\n      sload\n      dup2\n      mstore\n      pop\n      pop\n      swap1\n      pop\n        /* \"contracts/Stakeable.sol\":5904:5910  amount */\n      dup5\n        /* \"contracts/Stakeable.sol\":5880:5893  current_stake */\n      dup2\n        /* \"contracts/Stakeable.sol\":5880:5900  current_stake.amount */\n      0x20\n      add\n      mload\n        /* \"contracts/Stakeable.sol\":5880:5910  current_stake.amount >= amount */\n      lt\n      iszero\n        /* \"contracts/Stakeable.sol\":5872:5965  require(current_stake.amount >= amount, \"Staking: Cannot withdraw more than you have staked\") */\n      tag_276\n      jumpi\n      mload(0x40)\n      0x08c379a000000000000000000000000000000000000000000000000000000000\n      dup2\n      mstore\n      0x04\n      add\n      tag_277\n      swap1\n      tag_278\n      jump\t// in\n    tag_277:\n      mload(0x40)\n      dup1\n      swap2\n      sub\n      swap1\n      revert\n    tag_276:\n        /* \"contracts/Stakeable.sol\":6053:6067  uint256 reward */\n      0x00\n        /* \"contracts/Stakeable.sol\":6070:6105  calculateStakeReward(current_stake) */\n      tag_279\n        /* \"contracts/Stakeable.sol\":6091:6104  current_stake */\n      dup3\n        /* \"contracts/Stakeable.sol\":6070:6090  calculateStakeReward */\n      tag_194\n        /* \"contracts/Stakeable.sol\":6070:6105  calculateStakeReward(current_stake) */\n      jump\t// in\n    tag_279:\n        /* \"contracts/Stakeable.sol\":6053:6105  uint256 reward = calculateStakeReward(current_stake) */\n      swap1\n      pop\n        /* \"contracts/Stakeable.sol\":6216:6222  amount */\n      dup6\n        /* \"contracts/Stakeable.sol\":6193:6206  current_stake */\n      dup3\n        /* \"contracts/Stakeable.sol\":6193:6213  current_stake.amount */\n      0x20\n      add\n      mload\n        /* \"contracts/Stakeable.sol\":6193:6222  current_stake.amount - amount */\n      tag_280\n      swap2\n      swap1\n      tag_130\n      jump\t// in\n    tag_280:\n        /* \"contracts/Stakeable.sol\":6170:6183  current_stake */\n      dup3\n        /* \"contracts/Stakeable.sol\":6170:6190  current_stake.amount */\n      0x20\n      add\n        /* \"contracts/Stakeable.sol\":6170:6222  current_stake.amount = current_stake.amount - amount */\n      dup2\n      dup2\n      mstore\n      pop\n      pop\n        /* \"contracts/Stakeable.sol\":6334:6335  0 */\n      0x00\n        /* \"contracts/Stakeable.sol\":6310:6323  current_stake */\n      dup3\n        /* \"contracts/Stakeable.sol\":6310:6330  current_stake.amount */\n      0x20\n      add\n      mload\n        /* \"contracts/Stakeable.sol\":6310:6335  current_stake.amount == 0 */\n      eq\n        /* \"contracts/Stakeable.sol\":6307:6707  if(current_stake.amount == 0){... */\n      iszero\n      tag_281\n      jumpi\n        /* \"contracts/Stakeable.sol\":6358:6370  stakeholders */\n      0x01\n        /* \"contracts/Stakeable.sol\":6371:6381  user_index */\n      dup4\n        /* \"contracts/Stakeable.sol\":6358:6382  stakeholders[user_index] */\n      dup2\n      sload\n      dup2\n      lt\n      tag_282\n      jumpi\n      tag_283\n      tag_183\n      jump\t// in\n    tag_283:\n    tag_282:\n      swap1\n      0x00\n      mstore\n      keccak256(0x00, 0x20)\n      swap1\n      0x02\n      mul\n      add\n        /* \"contracts/Stakeable.sol\":6358:6397  stakeholders[user_index].address_stakes */\n      0x01\n      add\n        /* \"contracts/Stakeable.sol\":6398:6403  index */\n      dup6\n        /* \"contracts/Stakeable.sol\":6358:6404  stakeholders[user_index].address_stakes[index] */\n      dup2\n      sload\n      dup2\n      lt\n      tag_285\n      jumpi\n      tag_286\n      tag_183\n      jump\t// in\n    tag_286:\n    tag_285:\n      swap1\n      0x00\n      mstore\n      keccak256(0x00, 0x20)\n      swap1\n      0x04\n      mul\n      add\n      0x00\n        /* \"contracts/Stakeable.sol\":6351:6404  delete stakeholders[user_index].address_stakes[index] */\n      dup1\n      dup3\n      add\n      exp(0x0100, 0x00)\n      dup2\n      sload\n      swap1\n      0xffffffffffffffffffffffffffffffffffffffff\n      mul\n      not\n      and\n      swap1\n      sstore\n      0x01\n      dup3\n      add\n      0x00\n      swap1\n      sstore\n      0x02\n      dup3\n      add\n      0x00\n      swap1\n      sstore\n      0x03\n      dup3\n      add\n      0x00\n      swap1\n      sstore\n      pop\n      pop\n        /* \"contracts/Stakeable.sol\":6307:6707  if(current_stake.amount == 0){... */\n      jump(tag_288)\n    tag_281:\n        /* \"contracts/Stakeable.sol\":6550:6563  current_stake */\n      dup2\n        /* \"contracts/Stakeable.sol\":6550:6570  current_stake.amount */\n      0x20\n      add\n      mload\n        /* \"contracts/Stakeable.sol\":6494:6506  stakeholders */\n      0x01\n        /* \"contracts/Stakeable.sol\":6507:6517  user_index */\n      dup5\n        /* \"contracts/Stakeable.sol\":6494:6518  stakeholders[user_index] */\n      dup2\n      sload\n      dup2\n      lt\n      tag_289\n      jumpi\n      tag_290\n      tag_183\n      jump\t// in\n    tag_290:\n    tag_289:\n      swap1\n      0x00\n      mstore\n      keccak256(0x00, 0x20)\n      swap1\n      0x02\n      mul\n      add\n        /* \"contracts/Stakeable.sol\":6494:6533  stakeholders[user_index].address_stakes */\n      0x01\n      add\n        /* \"contracts/Stakeable.sol\":6534:6539  index */\n      dup7\n        /* \"contracts/Stakeable.sol\":6494:6540  stakeholders[user_index].address_stakes[index] */\n      dup2\n      sload\n      dup2\n      lt\n      tag_292\n      jumpi\n      tag_293\n      tag_183\n      jump\t// in\n    tag_293:\n    tag_292:\n      swap1\n      0x00\n      mstore\n      keccak256(0x00, 0x20)\n      swap1\n      0x04\n      mul\n      add\n        /* \"contracts/Stakeable.sol\":6494:6547  stakeholders[user_index].address_stakes[index].amount */\n      0x01\n      add\n        /* \"contracts/Stakeable.sol\":6494:6570  stakeholders[user_index].address_stakes[index].amount = current_stake.amount */\n      dup2\n      swap1\n      sstore\n      pop\n        /* \"contracts/Stakeable.sol\":6676:6691  block.timestamp */\n      timestamp\n        /* \"contracts/Stakeable.sol\":6621:6633  stakeholders */\n      0x01\n        /* \"contracts/Stakeable.sol\":6634:6644  user_index */\n      dup5\n        /* \"contracts/Stakeable.sol\":6621:6645  stakeholders[user_index] */\n      dup2\n      sload\n      dup2\n      lt\n      tag_295\n      jumpi\n      tag_296\n      tag_183\n      jump\t// in\n    tag_296:\n    tag_295:\n      swap1\n      0x00\n      mstore\n      keccak256(0x00, 0x20)\n      swap1\n      0x02\n      mul\n      add\n        /* \"contracts/Stakeable.sol\":6621:6660  stakeholders[user_index].address_stakes */\n      0x01\n      add\n        /* \"contracts/Stakeable.sol\":6661:6666  index */\n      dup7\n        /* \"contracts/Stakeable.sol\":6621:6667  stakeholders[user_index].address_stakes[index] */\n      dup2\n      sload\n      dup2\n      lt\n      tag_298\n      jumpi\n      tag_299\n      tag_183\n      jump\t// in\n    tag_299:\n    tag_298:\n      swap1\n      0x00\n      mstore\n      keccak256(0x00, 0x20)\n      swap1\n      0x04\n      mul\n      add\n        /* \"contracts/Stakeable.sol\":6621:6673  stakeholders[user_index].address_stakes[index].since */\n      0x02\n      add\n        /* \"contracts/Stakeable.sol\":6621:6691  stakeholders[user_index].address_stakes[index].since = block.timestamp */\n      dup2\n      swap1\n      sstore\n      pop\n        /* \"contracts/Stakeable.sol\":6307:6707  if(current_stake.amount == 0){... */\n    tag_288:\n        /* \"contracts/Stakeable.sol\":6734:6740  reward */\n      dup1\n        /* \"contracts/Stakeable.sol\":6725:6731  amount */\n      dup7\n        /* \"contracts/Stakeable.sol\":6725:6740  amount + reward */\n      tag_301\n      swap2\n      swap1\n      tag_135\n      jump\t// in\n    tag_301:\n        /* \"contracts/Stakeable.sol\":6718:6740  return amount + reward */\n      swap4\n      pop\n      pop\n      pop\n      pop\n        /* \"contracts/Stakeable.sol\":5574:6748  function _withdrawStake(uint256 amount, uint256 index) internal returns(uint256){... */\n      swap3\n      swap2\n      pop\n      pop\n      jump\t// out\n        /* \"contracts/Ownable.sol\":1897:2122  function _transferOwnership(address newOwner) internal {... */\n    tag_210:\n        /* \"contracts/Ownable.sol\":1990:1991  0 */\n      0x00\n        /* \"contracts/Ownable.sol\":1970:1992  newOwner != address(0) */\n      0xffffffffffffffffffffffffffffffffffffffff\n      and\n        /* \"contracts/Ownable.sol\":1970:1978  newOwner */\n      dup2\n        /* \"contracts/Ownable.sol\":1970:1992  newOwner != address(0) */\n      0xffffffffffffffffffffffffffffffffffffffff\n      and\n      eq\n      iszero\n        /* \"contracts/Ownable.sol\":1962:2035  require(newOwner != address(0), \"Ownable: new owner is the zero address\") */\n      tag_303\n      jumpi\n      mload(0x40)\n      0x08c379a000000000000000000000000000000000000000000000000000000000\n      dup2\n      mstore\n      0x04\n      add\n      tag_304\n      swap1\n      tag_305\n      jump\t// in\n    tag_304:\n      mload(0x40)\n      dup1\n      swap2\n      sub\n      swap1\n      revert\n    tag_303:\n        /* \"contracts/Ownable.sol\":2079:2087  newOwner */\n      dup1\n        /* \"contracts/Ownable.sol\":2050:2088  OwnershipTransferred(_owner, newOwner) */\n      0xffffffffffffffffffffffffffffffffffffffff\n      and\n        /* \"contracts/Ownable.sol\":2071:2077  _owner */\n      0x00\n      dup1\n      sload\n      swap1\n      0x0100\n      exp\n      swap1\n      div\n      0xffffffffffffffffffffffffffffffffffffffff\n      and\n        /* \"contracts/Ownable.sol\":2050:2088  OwnershipTransferred(_owner, newOwner) */\n      0xffffffffffffffffffffffffffffffffffffffff\n      and\n      0x8be0079c531659141344cd1fd0a4f28419497f9722a3daafe3b4186f6b6457e0\n      mload(0x40)\n      mload(0x40)\n      dup1\n      swap2\n      sub\n      swap1\n      log3\n        /* \"contracts/Ownable.sol\":2107:2115  newOwner */\n      dup1\n        /* \"contracts/Ownable.sol\":2098:2104  _owner */\n      0x00\n      dup1\n        /* \"contracts/Ownable.sol\":2098:2115  _owner = newOwner */\n      0x0100\n      exp\n      dup2\n      sload\n      dup2\n      0xffffffffffffffffffffffffffffffffffffffff\n      mul\n      not\n      and\n      swap1\n      dup4\n      0xffffffffffffffffffffffffffffffffffffffff\n      and\n      mul\n      or\n      swap1\n      sstore\n      pop\n        /* \"contracts/Ownable.sol\":1897:2122  function _transferOwnership(address newOwner) internal {... */\n      pop\n      jump\t// out\n        /* \"contracts/Stakeable.sol\":2345:2849  function _addStakeholder(address staker) internal returns (uint256){... */\n    tag_255:\n        /* \"contracts/Stakeable.sol\":2404:2411  uint256 */\n      0x00\n        /* \"contracts/Stakeable.sol\":2502:2514  stakeholders */\n      0x01\n        /* \"contracts/Stakeable.sol\":2502:2521  stakeholders.push() */\n      dup1\n      dup2\n      0x01\n      dup2\n      sload\n      add\n      dup1\n      dup3\n      sstore\n      dup1\n      swap2\n      pop\n      pop\n      sub\n      swap1\n      0x00\n      mstore\n      keccak256(0x00, 0x20)\n      swap1\n      pop\n      pop\n        /* \"contracts/Stakeable.sol\":2601:2618  uint256 userIndex */\n      0x00\n        /* \"contracts/Stakeable.sol\":2643:2644  1 */\n      0x01\n        /* \"contracts/Stakeable.sol\":2621:2633  stakeholders */\n      dup1\n        /* \"contracts/Stakeable.sol\":2621:2640  stakeholders.length */\n      dup1\n      sload\n      swap1\n      pop\n        /* \"contracts/Stakeable.sol\":2621:2644  stakeholders.length - 1 */\n      tag_308\n      swap2\n      swap1\n      tag_130\n      jump\t// in\n    tag_308:\n        /* \"contracts/Stakeable.sol\":2601:2644  uint256 userIndex = stakeholders.length - 1 */\n      swap1\n      pop\n        /* \"contracts/Stakeable.sol\":2732:2738  staker */\n      dup3\n        /* \"contracts/Stakeable.sol\":2701:2713  stakeholders */\n      0x01\n        /* \"contracts/Stakeable.sol\":2714:2723  userIndex */\n      dup3\n        /* \"contracts/Stakeable.sol\":2701:2724  stakeholders[userIndex] */\n      dup2\n      sload\n      dup2\n      lt\n      tag_309\n      jumpi\n      tag_310\n      tag_183\n      jump\t// in\n    tag_310:\n    tag_309:\n      swap1\n      0x00\n      mstore\n      keccak256(0x00, 0x20)\n      swap1\n      0x02\n      mul\n      add\n        /* \"contracts/Stakeable.sol\":2701:2729  stakeholders[userIndex].user */\n      0x00\n      add\n      0x00\n        /* \"contracts/Stakeable.sol\":2701:2738  stakeholders[userIndex].user = staker */\n      0x0100\n      exp\n      dup2\n      sload\n      dup2\n      0xffffffffffffffffffffffffffffffffffffffff\n      mul\n      not\n      and\n      swap1\n      dup4\n      0xffffffffffffffffffffffffffffffffffffffff\n      and\n      mul\n      or\n      swap1\n      sstore\n      pop\n        /* \"contracts/Stakeable.sol\":2806:2815  userIndex */\n      dup1\n        /* \"contracts/Stakeable.sol\":2789:2795  stakes */\n      0x02\n        /* \"contracts/Stakeable.sol\":2789:2803  stakes[staker] */\n      0x00\n        /* \"contracts/Stakeable.sol\":2796:2802  staker */\n      dup6\n        /* \"contracts/Stakeable.sol\":2789:2803  stakes[staker] */\n      0xffffffffffffffffffffffffffffffffffffffff\n      and\n      0xffffffffffffffffffffffffffffffffffffffff\n      and\n      dup2\n      mstore\n      0x20\n      add\n      swap1\n      dup2\n      mstore\n      0x20\n      add\n      0x00\n      keccak256\n        /* \"contracts/Stakeable.sol\":2789:2815  stakes[staker] = userIndex */\n      dup2\n      swap1\n      sstore\n      pop\n        /* \"contracts/Stakeable.sol\":2832:2841  userIndex */\n      dup1\n        /* \"contracts/Stakeable.sol\":2825:2841  return userIndex */\n      swap2\n      pop\n      pop\n        /* \"contracts/Stakeable.sol\":2345:2849  function _addStakeholder(address staker) internal returns (uint256){... */\n      swap2\n      swap1\n      pop\n      jump\t// out\n    tag_179:\n      mload(0x40)\n      dup1\n      0x40\n      add\n      0x40\n      mstore\n      dup1\n      0x00\n      dup2\n      mstore\n      0x20\n      add\n      0x60\n      dup2\n      mstore\n      pop\n      swap1\n      jump\t// out\n        /* \"#utility.yul\":7:146   */\n    tag_313:\n        /* \"#utility.yul\":53:58   */\n      0x00\n        /* \"#utility.yul\":91:97   */\n      dup2\n        /* \"#utility.yul\":78:98   */\n      calldataload\n        /* \"#utility.yul\":69:98   */\n      swap1\n      pop\n        /* \"#utility.yul\":107:140   */\n      tag_315\n        /* \"#utility.yul\":134:139   */\n      dup2\n        /* \"#utility.yul\":107:140   */\n      tag_316\n      jump\t// in\n    tag_315:\n        /* \"#utility.yul\":7:146   */\n      swap3\n      swap2\n      pop\n      pop\n      jump\t// out\n        /* \"#utility.yul\":152:291   */\n    tag_317:\n        /* \"#utility.yul\":198:203   */\n      0x00\n        /* \"#utility.yul\":236:242   */\n      dup2\n        /* \"#utility.yul\":223:243   */\n      calldataload\n        /* \"#utility.yul\":214:243   */\n      swap1\n      pop\n        /* \"#utility.yul\":252:285   */\n      tag_319\n        /* \"#utility.yul\":279:284   */\n      dup2\n        /* \"#utility.yul\":252:285   */\n      tag_320\n      jump\t// in\n    tag_319:\n        /* \"#utility.yul\":152:291   */\n      swap3\n      swap2\n      pop\n      pop\n      jump\t// out\n        /* \"#utility.yul\":297:626   */\n    tag_64:\n        /* \"#utility.yul\":356:362   */\n      0x00\n        /* \"#utility.yul\":405:407   */\n      0x20\n        /* \"#utility.yul\":393:402   */\n      dup3\n        /* \"#utility.yul\":384:391   */\n      dup5\n        /* \"#utility.yul\":380:403   */\n      sub\n        /* \"#utility.yul\":376:408   */\n      slt\n        /* \"#utility.yul\":373:492   */\n      iszero\n      tag_322\n      jumpi\n        /* \"#utility.yul\":411:490   */\n      tag_323\n      tag_324\n      jump\t// in\n    tag_323:\n        /* \"#utility.yul\":373:492   */\n    tag_322:\n        /* \"#utility.yul\":531:532   */\n      0x00\n        /* \"#utility.yul\":556:609   */\n      tag_325\n        /* \"#utility.yul\":601:608   */\n      dup5\n        /* \"#utility.yul\":592:598   */\n      dup3\n        /* \"#utility.yul\":581:590   */\n      dup6\n        /* \"#utility.yul\":577:599   */\n      add\n        /* \"#utility.yul\":556:609   */\n      tag_313\n      jump\t// in\n    tag_325:\n        /* \"#utility.yul\":546:609   */\n      swap2\n      pop\n        /* \"#utility.yul\":502:619   */\n      pop\n        /* \"#utility.yul\":297:626   */\n      swap3\n      swap2\n      pop\n      pop\n      jump\t// out\n        /* \"#utility.yul\":632:1106   */\n    tag_96:\n        /* \"#utility.yul\":700:706   */\n      0x00\n        /* \"#utility.yul\":708:714   */\n      dup1\n        /* \"#utility.yul\":757:759   */\n      0x40\n        /* \"#utility.yul\":745:754   */\n      dup4\n        /* \"#utility.yul\":736:743   */\n      dup6\n        /* \"#utility.yul\":732:755   */\n      sub\n        /* \"#utility.yul\":728:760   */\n      slt\n        /* \"#utility.yul\":725:844   */\n      iszero\n      tag_327\n      jumpi\n        /* \"#utility.yul\":763:842   */\n      tag_328\n      tag_324\n      jump\t// in\n    tag_328:\n        /* \"#utility.yul\":725:844   */\n    tag_327:\n        /* \"#utility.yul\":883:884   */\n      0x00\n        /* \"#utility.yul\":908:961   */\n      tag_329\n        /* \"#utility.yul\":953:960   */\n      dup6\n        /* \"#utility.yul\":944:950   */\n      dup3\n        /* \"#utility.yul\":933:942   */\n      dup7\n        /* \"#utility.yul\":929:951   */\n      add\n        /* \"#utility.yul\":908:961   */\n      tag_313\n      jump\t// in\n    tag_329:\n        /* \"#utility.yul\":898:961   */\n      swap3\n      pop\n        /* \"#utility.yul\":854:971   */\n      pop\n        /* \"#utility.yul\":1010:1012   */\n      0x20\n        /* \"#utility.yul\":1036:1089   */\n      tag_330\n        /* \"#utility.yul\":1081:1088   */\n      dup6\n        /* \"#utility.yul\":1072:1078   */\n      dup3\n        /* \"#utility.yul\":1061:1070   */\n      dup7\n        /* \"#utility.yul\":1057:1079   */\n      add\n        /* \"#utility.yul\":1036:1089   */\n      tag_313\n      jump\t// in\n    tag_330:\n        /* \"#utility.yul\":1026:1089   */\n      swap2\n      pop\n        /* \"#utility.yul\":981:1099   */\n      pop\n        /* \"#utility.yul\":632:1106   */\n      swap3\n      pop\n      swap3\n      swap1\n      pop\n      jump\t// out\n        /* \"#utility.yul\":1112:1731   */\n    tag_43:\n        /* \"#utility.yul\":1189:1195   */\n      0x00\n        /* \"#utility.yul\":1197:1203   */\n      dup1\n        /* \"#utility.yul\":1205:1211   */\n      0x00\n        /* \"#utility.yul\":1254:1256   */\n      0x60\n        /* \"#utility.yul\":1242:1251   */\n      dup5\n        /* \"#utility.yul\":1233:1240   */\n      dup7\n        /* \"#utility.yul\":1229:1252   */\n      sub\n        /* \"#utility.yul\":1225:1257   */\n      slt\n        /* \"#utility.yul\":1222:1341   */\n      iszero\n      tag_332\n      jumpi\n        /* \"#utility.yul\":1260:1339   */\n      tag_333\n      tag_324\n      jump\t// in\n    tag_333:\n        /* \"#utility.yul\":1222:1341   */\n    tag_332:\n        /* \"#utility.yul\":1380:1381   */\n      0x00\n        /* \"#utility.yul\":1405:1458   */\n      tag_334\n        /* \"#utility.yul\":1450:1457   */\n      dup7\n        /* \"#utility.yul\":1441:1447   */\n      dup3\n        /* \"#utility.yul\":1430:1439   */\n      dup8\n        /* \"#utility.yul\":1426:1448   */\n      add\n        /* \"#utility.yul\":1405:1458   */\n      tag_313\n      jump\t// in\n    tag_334:\n        /* \"#utility.yul\":1395:1458   */\n      swap4\n      pop\n        /* \"#utility.yul\":1351:1468   */\n      pop\n        /* \"#utility.yul\":1507:1509   */\n      0x20\n        /* \"#utility.yul\":1533:1586   */\n      tag_335\n        /* \"#utility.yul\":1578:1585   */\n      dup7\n        /* \"#utility.yul\":1569:1575   */\n      dup3\n        /* \"#utility.yul\":1558:1567   */\n      dup8\n        /* \"#utility.yul\":1554:1576   */\n      add\n        /* \"#utility.yul\":1533:1586   */\n      tag_313\n      jump\t// in\n    tag_335:\n        /* \"#utility.yul\":1523:1586   */\n      swap3\n      pop\n        /* \"#utility.yul\":1478:1596   */\n      pop\n        /* \"#utility.yul\":1635:1637   */\n      0x40\n        /* \"#utility.yul\":1661:1714   */\n      tag_336\n        /* \"#utility.yul\":1706:1713   */\n      dup7\n        /* \"#utility.yul\":1697:1703   */\n      dup3\n        /* \"#utility.yul\":1686:1695   */\n      dup8\n        /* \"#utility.yul\":1682:1704   */\n      add\n        /* \"#utility.yul\":1661:1714   */\n      tag_317\n      jump\t// in\n    tag_336:\n        /* \"#utility.yul\":1651:1714   */\n      swap2\n      pop\n        /* \"#utility.yul\":1606:1724   */\n      pop\n        /* \"#utility.yul\":1112:1731   */\n      swap3\n      pop\n      swap3\n      pop\n      swap3\n      jump\t// out\n        /* \"#utility.yul\":1737:2211   */\n    tag_33:\n        /* \"#utility.yul\":1805:1811   */\n      0x00\n        /* \"#utility.yul\":1813:1819   */\n      dup1\n        /* \"#utility.yul\":1862:1864   */\n      0x40\n        /* \"#utility.yul\":1850:1859   */\n      dup4\n        /* \"#utility.yul\":1841:1848   */\n      dup6\n        /* \"#utility.yul\":1837:1860   */\n      sub\n        /* \"#utility.yul\":1833:1865   */\n      slt\n        /* \"#utility.yul\":1830:1949   */\n      iszero\n      tag_338\n      jumpi\n        /* \"#utility.yul\":1868:1947   */\n      tag_339\n      tag_324\n      jump\t// in\n    tag_339:\n        /* \"#utility.yul\":1830:1949   */\n    tag_338:\n        /* \"#utility.yul\":1988:1989   */\n      0x00\n        /* \"#utility.yul\":2013:2066   */\n      tag_340\n        /* \"#utility.yul\":2058:2065   */\n      dup6\n        /* \"#utility.yul\":2049:2055   */\n      dup3\n        /* \"#utility.yul\":2038:2047   */\n      dup7\n        /* \"#utility.yul\":2034:2056   */\n      add\n        /* \"#utility.yul\":2013:2066   */\n      tag_313\n      jump\t// in\n    tag_340:\n        /* \"#utility.yul\":2003:2066   */\n      swap3\n      pop\n        /* \"#utility.yul\":1959:2076   */\n      pop\n        /* \"#utility.yul\":2115:2117   */\n      0x20\n        /* \"#utility.yul\":2141:2194   */\n      tag_341\n        /* \"#utility.yul\":2186:2193   */\n      dup6\n        /* \"#utility.yul\":2177:2183   */\n      dup3\n        /* \"#utility.yul\":2166:2175   */\n      dup7\n        /* \"#utility.yul\":2162:2184   */\n      add\n        /* \"#utility.yul\":2141:2194   */\n      tag_317\n      jump\t// in\n    tag_341:\n        /* \"#utility.yul\":2131:2194   */\n      swap2\n      pop\n        /* \"#utility.yul\":2086:2204   */\n      pop\n        /* \"#utility.yul\":1737:2211   */\n      swap3\n      pop\n      swap3\n      swap1\n      pop\n      jump\t// out\n        /* \"#utility.yul\":2217:2546   */\n    tag_60:\n        /* \"#utility.yul\":2276:2282   */\n      0x00\n        /* \"#utility.yul\":2325:2327   */\n      0x20\n        /* \"#utility.yul\":2313:2322   */\n      dup3\n        /* \"#utility.yul\":2304:2311   */\n      dup5\n        /* \"#utility.yul\":2300:2323   */\n      sub\n        /* \"#utility.yul\":2296:2328   */\n      slt\n        /* \"#utility.yul\":2293:2412   */\n      iszero\n      tag_343\n      jumpi\n        /* \"#utility.yul\":2331:2410   */\n      tag_344\n      tag_324\n      jump\t// in\n    tag_344:\n        /* \"#utility.yul\":2293:2412   */\n    tag_343:\n        /* \"#utility.yul\":2451:2452   */\n      0x00\n        /* \"#utility.yul\":2476:2529   */\n      tag_345\n        /* \"#utility.yul\":2521:2528   */\n      dup5\n        /* \"#utility.yul\":2512:2518   */\n      dup3\n        /* \"#utility.yul\":2501:2510   */\n      dup6\n        /* \"#utility.yul\":2497:2519   */\n      add\n        /* \"#utility.yul\":2476:2529   */\n      tag_317\n      jump\t// in\n    tag_345:\n        /* \"#utility.yul\":2466:2529   */\n      swap2\n      pop\n        /* \"#utility.yul\":2422:2539   */\n      pop\n        /* \"#utility.yul\":2217:2546   */\n      swap3\n      swap2\n      pop\n      pop\n      jump\t// out\n        /* \"#utility.yul\":2552:3026   */\n    tag_106:\n        /* \"#utility.yul\":2620:2626   */\n      0x00\n        /* \"#utility.yul\":2628:2634   */\n      dup1\n        /* \"#utility.yul\":2677:2679   */\n      0x40\n        /* \"#utility.yul\":2665:2674   */\n      dup4\n        /* \"#utility.yul\":2656:2663   */\n      dup6\n        /* \"#utility.yul\":2652:2675   */\n      sub\n        /* \"#utility.yul\":2648:2680   */\n      slt\n        /* \"#utility.yul\":2645:2764   */\n      iszero\n      tag_347\n      jumpi\n        /* \"#utility.yul\":2683:2762   */\n      tag_348\n      tag_324\n      jump\t// in\n    tag_348:\n        /* \"#utility.yul\":2645:2764   */\n    tag_347:\n        /* \"#utility.yul\":2803:2804   */\n      0x00\n        /* \"#utility.yul\":2828:2881   */\n      tag_349\n        /* \"#utility.yul\":2873:2880   */\n      dup6\n        /* \"#utility.yul\":2864:2870   */\n      dup3\n        /* \"#utility.yul\":2853:2862   */\n      dup7\n        /* \"#utility.yul\":2849:2871   */\n      add\n        /* \"#utility.yul\":2828:2881   */\n      tag_317\n      jump\t// in\n    tag_349:\n        /* \"#utility.yul\":2818:2881   */\n      swap3\n      pop\n        /* \"#utility.yul\":2774:2891   */\n      pop\n        /* \"#utility.yul\":2930:2932   */\n      0x20\n        /* \"#utility.yul\":2956:3009   */\n      tag_350\n        /* \"#utility.yul\":3001:3008   */\n      dup6\n        /* \"#utility.yul\":2992:2998   */\n      dup3\n        /* \"#utility.yul\":2981:2990   */\n      dup7\n        /* \"#utility.yul\":2977:2999   */\n      add\n        /* \"#utility.yul\":2956:3009   */\n      tag_317\n      jump\t// in\n    tag_350:\n        /* \"#utility.yul\":2946:3009   */\n      swap2\n      pop\n        /* \"#utility.yul\":2901:3019   */\n      pop\n        /* \"#utility.yul\":2552:3026   */\n      swap3\n      pop\n      swap3\n      swap1\n      pop\n      jump\t// out\n        /* \"#utility.yul\":3032:3299   */\n    tag_351:\n        /* \"#utility.yul\":3145:3155   */\n      0x00\n        /* \"#utility.yul\":3166:3256   */\n      tag_353\n        /* \"#utility.yul\":3252:3255   */\n      dup4\n        /* \"#utility.yul\":3244:3250   */\n      dup4\n        /* \"#utility.yul\":3166:3256   */\n      tag_354\n      jump\t// in\n    tag_353:\n        /* \"#utility.yul\":3288:3292   */\n      0x80\n        /* \"#utility.yul\":3283:3286   */\n      dup4\n        /* \"#utility.yul\":3279:3293   */\n      add\n        /* \"#utility.yul\":3265:3293   */\n      swap1\n      pop\n        /* \"#utility.yul\":3032:3299   */\n      swap3\n      swap2\n      pop\n      pop\n      jump\t// out\n        /* \"#utility.yul\":3305:3413   */\n    tag_355:\n        /* \"#utility.yul\":3382:3406   */\n      tag_357\n        /* \"#utility.yul\":3400:3405   */\n      dup2\n        /* \"#utility.yul\":3382:3406   */\n      tag_358\n      jump\t// in\n    tag_357:\n        /* \"#utility.yul\":3377:3380   */\n      dup3\n        /* \"#utility.yul\":3370:3407   */\n      mstore\n        /* \"#utility.yul\":3305:3413   */\n      pop\n      pop\n      jump\t// out\n        /* \"#utility.yul\":3419:3537   */\n    tag_359:\n        /* \"#utility.yul\":3506:3530   */\n      tag_361\n        /* \"#utility.yul\":3524:3529   */\n      dup2\n        /* \"#utility.yul\":3506:3530   */\n      tag_358\n      jump\t// in\n    tag_361:\n        /* \"#utility.yul\":3501:3504   */\n      dup3\n        /* \"#utility.yul\":3494:3531   */\n      mstore\n        /* \"#utility.yul\":3419:3537   */\n      pop\n      pop\n      jump\t// out\n        /* \"#utility.yul\":3603:4491   */\n    tag_362:\n        /* \"#utility.yul\":3756:3759   */\n      0x00\n        /* \"#utility.yul\":3785:3861   */\n      tag_364\n        /* \"#utility.yul\":3855:3860   */\n      dup3\n        /* \"#utility.yul\":3785:3861   */\n      tag_365\n      jump\t// in\n    tag_364:\n        /* \"#utility.yul\":3877:3975   */\n      tag_366\n        /* \"#utility.yul\":3968:3974   */\n      dup2\n        /* \"#utility.yul\":3963:3966   */\n      dup6\n        /* \"#utility.yul\":3877:3975   */\n      tag_367\n      jump\t// in\n    tag_366:\n        /* \"#utility.yul\":3870:3975   */\n      swap4\n      pop\n        /* \"#utility.yul\":3999:4077   */\n      tag_368\n        /* \"#utility.yul\":4071:4076   */\n      dup4\n        /* \"#utility.yul\":3999:4077   */\n      tag_369\n      jump\t// in\n    tag_368:\n        /* \"#utility.yul\":4100:4107   */\n      dup1\n        /* \"#utility.yul\":4131:4132   */\n      0x00\n        /* \"#utility.yul\":4116:4466   */\n    tag_370:\n        /* \"#utility.yul\":4141:4147   */\n      dup4\n        /* \"#utility.yul\":4138:4139   */\n      dup2\n        /* \"#utility.yul\":4135:4148   */\n      lt\n        /* \"#utility.yul\":4116:4466   */\n      iszero\n      tag_372\n      jumpi\n        /* \"#utility.yul\":4217:4223   */\n      dup2\n        /* \"#utility.yul\":4211:4224   */\n      mload\n        /* \"#utility.yul\":4244:4351   */\n      tag_373\n        /* \"#utility.yul\":4347:4350   */\n      dup9\n        /* \"#utility.yul\":4332:4345   */\n      dup3\n        /* \"#utility.yul\":4244:4351   */\n      tag_351\n      jump\t// in\n    tag_373:\n        /* \"#utility.yul\":4237:4351   */\n      swap8\n      pop\n        /* \"#utility.yul\":4374:4456   */\n      tag_374\n        /* \"#utility.yul\":4449:4455   */\n      dup4\n        /* \"#utility.yul\":4374:4456   */\n      tag_375\n      jump\t// in\n    tag_374:\n        /* \"#utility.yul\":4364:4456   */\n      swap3\n      pop\n        /* \"#utility.yul\":4176:4466   */\n      pop\n        /* \"#utility.yul\":4163:4164   */\n      0x01\n        /* \"#utility.yul\":4160:4161   */\n      dup2\n        /* \"#utility.yul\":4156:4165   */\n      add\n        /* \"#utility.yul\":4151:4165   */\n      swap1\n      pop\n        /* \"#utility.yul\":4116:4466   */\n      jump(tag_370)\n    tag_372:\n        /* \"#utility.yul\":4120:4134   */\n      pop\n        /* \"#utility.yul\":4482:4485   */\n      dup6\n        /* \"#utility.yul\":4475:4485   */\n      swap4\n      pop\n        /* \"#utility.yul\":3761:4491   */\n      pop\n      pop\n      pop\n        /* \"#utility.yul\":3603:4491   */\n      swap3\n      swap2\n      pop\n      pop\n      jump\t// out\n        /* \"#utility.yul\":4497:4606   */\n    tag_376:\n        /* \"#utility.yul\":4578:4599   */\n      tag_378\n        /* \"#utility.yul\":4593:4598   */\n      dup2\n        /* \"#utility.yul\":4578:4599   */\n      tag_379\n      jump\t// in\n    tag_378:\n        /* \"#utility.yul\":4573:4576   */\n      dup3\n        /* \"#utility.yul\":4566:4600   */\n      mstore\n        /* \"#utility.yul\":4497:4606   */\n      pop\n      pop\n      jump\t// out\n        /* \"#utility.yul\":4612:4976   */\n    tag_380:\n        /* \"#utility.yul\":4700:4703   */\n      0x00\n        /* \"#utility.yul\":4728:4767   */\n      tag_382\n        /* \"#utility.yul\":4761:4766   */\n      dup3\n        /* \"#utility.yul\":4728:4767   */\n      tag_383\n      jump\t// in\n    tag_382:\n        /* \"#utility.yul\":4783:4854   */\n      tag_384\n        /* \"#utility.yul\":4847:4853   */\n      dup2\n        /* \"#utility.yul\":4842:4845   */\n      dup6\n        /* \"#utility.yul\":4783:4854   */\n      tag_385\n      jump\t// in\n    tag_384:\n        /* \"#utility.yul\":4776:4854   */\n      swap4\n      pop\n        /* \"#utility.yul\":4863:4915   */\n      tag_386\n        /* \"#utility.yul\":4908:4914   */\n      dup2\n        /* \"#utility.yul\":4903:4906   */\n      dup6\n        /* \"#utility.yul\":4896:4900   */\n      0x20\n        /* \"#utility.yul\":4889:4894   */\n      dup7\n        /* \"#utility.yul\":4885:4901   */\n      add\n        /* \"#utility.yul\":4863:4915   */\n      tag_387\n      jump\t// in\n    tag_386:\n        /* \"#utility.yul\":4940:4969   */\n      tag_388\n        /* \"#utility.yul\":4962:4968   */\n      dup2\n        /* \"#utility.yul\":4940:4969   */\n      tag_389\n      jump\t// in\n    tag_388:\n        /* \"#utility.yul\":4935:4938   */\n      dup5\n        /* \"#utility.yul\":4931:4970   */\n      add\n        /* \"#utility.yul\":4924:4970   */\n      swap2\n      pop\n        /* \"#utility.yul\":4704:4976   */\n      pop\n        /* \"#utility.yul\":4612:4976   */\n      swap3\n      swap2\n      pop\n      pop\n      jump\t// out\n        /* \"#utility.yul\":4982:5348   */\n    tag_390:\n        /* \"#utility.yul\":5124:5127   */\n      0x00\n        /* \"#utility.yul\":5145:5212   */\n      tag_392\n        /* \"#utility.yul\":5209:5211   */\n      0x24\n        /* \"#utility.yul\":5204:5207   */\n      dup4\n        /* \"#utility.yul\":5145:5212   */\n      tag_385\n      jump\t// in\n    tag_392:\n        /* \"#utility.yul\":5138:5212   */\n      swap2\n      pop\n        /* \"#utility.yul\":5221:5314   */\n      tag_393\n        /* \"#utility.yul\":5310:5313   */\n      dup3\n        /* \"#utility.yul\":5221:5314   */\n      tag_394\n      jump\t// in\n    tag_393:\n        /* \"#utility.yul\":5339:5341   */\n      0x40\n        /* \"#utility.yul\":5334:5337   */\n      dup3\n        /* \"#utility.yul\":5330:5342   */\n      add\n        /* \"#utility.yul\":5323:5342   */\n      swap1\n      pop\n        /* \"#utility.yul\":4982:5348   */\n      swap2\n      swap1\n      pop\n      jump\t// out\n        /* \"#utility.yul\":5354:5720   */\n    tag_395:\n        /* \"#utility.yul\":5496:5499   */\n      0x00\n        /* \"#utility.yul\":5517:5584   */\n      tag_397\n        /* \"#utility.yul\":5581:5583   */\n      0x2d\n        /* \"#utility.yul\":5576:5579   */\n      dup4\n        /* \"#utility.yul\":5517:5584   */\n      tag_385\n      jump\t// in\n    tag_397:\n        /* \"#utility.yul\":5510:5584   */\n      swap2\n      pop\n        /* \"#utility.yul\":5593:5686   */\n      tag_398\n        /* \"#utility.yul\":5682:5685   */\n      dup3\n        /* \"#utility.yul\":5593:5686   */\n      tag_399\n      jump\t// in\n    tag_398:\n        /* \"#utility.yul\":5711:5713   */\n      0x40\n        /* \"#utility.yul\":5706:5709   */\n      dup3\n        /* \"#utility.yul\":5702:5714   */\n      add\n        /* \"#utility.yul\":5695:5714   */\n      swap1\n      pop\n        /* \"#utility.yul\":5354:5720   */\n      swap2\n      swap1\n      pop\n      jump\t// out\n        /* \"#utility.yul\":5726:6092   */\n    tag_400:\n        /* \"#utility.yul\":5868:5871   */\n      0x00\n        /* \"#utility.yul\":5889:5956   */\n      tag_402\n        /* \"#utility.yul\":5953:5955   */\n      0x2a\n        /* \"#utility.yul\":5948:5951   */\n      dup4\n        /* \"#utility.yul\":5889:5956   */\n      tag_385\n      jump\t// in\n    tag_402:\n        /* \"#utility.yul\":5882:5956   */\n      swap2\n      pop\n        /* \"#utility.yul\":5965:6058   */\n      tag_403\n        /* \"#utility.yul\":6054:6057   */\n      dup3\n        /* \"#utility.yul\":5965:6058   */\n      tag_404\n      jump\t// in\n    tag_403:\n        /* \"#utility.yul\":6083:6085   */\n      0x40\n        /* \"#utility.yul\":6078:6081   */\n      dup3\n        /* \"#utility.yul\":6074:6086   */\n      add\n        /* \"#utility.yul\":6067:6086   */\n      swap1\n      pop\n        /* \"#utility.yul\":5726:6092   */\n      swap2\n      swap1\n      pop\n      jump\t// out\n        /* \"#utility.yul\":6098:6464   */\n    tag_405:\n        /* \"#utility.yul\":6240:6243   */\n      0x00\n        /* \"#utility.yul\":6261:6328   */\n      tag_407\n        /* \"#utility.yul\":6325:6327   */\n      0x26\n        /* \"#utility.yul\":6320:6323   */\n      dup4\n        /* \"#utility.yul\":6261:6328   */\n      tag_385\n      jump\t// in\n    tag_407:\n        /* \"#utility.yul\":6254:6328   */\n      swap2\n      pop\n        /* \"#utility.yul\":6337:6430   */\n      tag_408\n        /* \"#utility.yul\":6426:6429   */\n      dup3\n        /* \"#utility.yul\":6337:6430   */\n      tag_409\n      jump\t// in\n    tag_408:\n        /* \"#utility.yul\":6455:6457   */\n      0x40\n        /* \"#utility.yul\":6450:6453   */\n      dup3\n        /* \"#utility.yul\":6446:6458   */\n      add\n        /* \"#utility.yul\":6439:6458   */\n      swap1\n      pop\n        /* \"#utility.yul\":6098:6464   */\n      swap2\n      swap1\n      pop\n      jump\t// out\n        /* \"#utility.yul\":6470:6836   */\n    tag_410:\n        /* \"#utility.yul\":6612:6615   */\n      0x00\n        /* \"#utility.yul\":6633:6700   */\n      tag_412\n        /* \"#utility.yul\":6697:6699   */\n      0x2f\n        /* \"#utility.yul\":6692:6695   */\n      dup4\n        /* \"#utility.yul\":6633:6700   */\n      tag_385\n      jump\t// in\n    tag_412:\n        /* \"#utility.yul\":6626:6700   */\n      swap2\n      pop\n        /* \"#utility.yul\":6709:6802   */\n      tag_413\n        /* \"#utility.yul\":6798:6801   */\n      dup3\n        /* \"#utility.yul\":6709:6802   */\n      tag_414\n      jump\t// in\n    tag_413:\n        /* \"#utility.yul\":6827:6829   */\n      0x40\n        /* \"#utility.yul\":6822:6825   */\n      dup3\n        /* \"#utility.yul\":6818:6830   */\n      add\n        /* \"#utility.yul\":6811:6830   */\n      swap1\n      pop\n        /* \"#utility.yul\":6470:6836   */\n      swap2\n      swap1\n      pop\n      jump\t// out\n        /* \"#utility.yul\":6842:7208   */\n    tag_415:\n        /* \"#utility.yul\":6984:6987   */\n      0x00\n        /* \"#utility.yul\":7005:7072   */\n      tag_417\n        /* \"#utility.yul\":7069:7071   */\n      0x31\n        /* \"#utility.yul\":7064:7067   */\n      dup4\n        /* \"#utility.yul\":7005:7072   */\n      tag_385\n      jump\t// in\n    tag_417:\n        /* \"#utility.yul\":6998:7072   */\n      swap2\n      pop\n        /* \"#utility.yul\":7081:7174   */\n      tag_418\n        /* \"#utility.yul\":7170:7173   */\n      dup3\n        /* \"#utility.yul\":7081:7174   */\n      tag_419\n      jump\t// in\n    tag_418:\n        /* \"#utility.yul\":7199:7201   */\n      0x40\n        /* \"#utility.yul\":7194:7197   */\n      dup3\n        /* \"#utility.yul\":7190:7202   */\n      add\n        /* \"#utility.yul\":7183:7202   */\n      swap1\n      pop\n        /* \"#utility.yul\":6842:7208   */\n      swap2\n      swap1\n      pop\n      jump\t// out\n        /* \"#utility.yul\":7214:7580   */\n    tag_420:\n        /* \"#utility.yul\":7356:7359   */\n      0x00\n        /* \"#utility.yul\":7377:7444   */\n      tag_422\n        /* \"#utility.yul\":7441:7443   */\n      0x22\n        /* \"#utility.yul\":7436:7439   */\n      dup4\n        /* \"#utility.yul\":7377:7444   */\n      tag_385\n      jump\t// in\n    tag_422:\n        /* \"#utility.yul\":7370:7444   */\n      swap2\n      pop\n        /* \"#utility.yul\":7453:7546   */\n      tag_423\n        /* \"#utility.yul\":7542:7545   */\n      dup3\n        /* \"#utility.yul\":7453:7546   */\n      tag_424\n      jump\t// in\n    tag_423:\n        /* \"#utility.yul\":7571:7573   */\n      0x40\n        /* \"#utility.yul\":7566:7569   */\n      dup3\n        /* \"#utility.yul\":7562:7574   */\n      add\n        /* \"#utility.yul\":7555:7574   */\n      swap1\n      pop\n        /* \"#utility.yul\":7214:7580   */\n      swap2\n      swap1\n      pop\n      jump\t// out\n        /* \"#utility.yul\":7586:7952   */\n    tag_425:\n        /* \"#utility.yul\":7728:7731   */\n      0x00\n        /* \"#utility.yul\":7749:7816   */\n      tag_427\n        /* \"#utility.yul\":7813:7815   */\n      0x25\n        /* \"#utility.yul\":7808:7811   */\n      dup4\n        /* \"#utility.yul\":7749:7816   */\n      tag_385\n      jump\t// in\n    tag_427:\n        /* \"#utility.yul\":7742:7816   */\n      swap2\n      pop\n        /* \"#utility.yul\":7825:7918   */\n      tag_428\n        /* \"#utility.yul\":7914:7917   */\n      dup3\n        /* \"#utility.yul\":7825:7918   */\n      tag_429\n      jump\t// in\n    tag_428:\n        /* \"#utility.yul\":7943:7945   */\n      0x40\n        /* \"#utility.yul\":7938:7941   */\n      dup3\n        /* \"#utility.yul\":7934:7946   */\n      add\n        /* \"#utility.yul\":7927:7946   */\n      swap1\n      pop\n        /* \"#utility.yul\":7586:7952   */\n      swap2\n      swap1\n      pop\n      jump\t// out\n        /* \"#utility.yul\":7958:8324   */\n    tag_430:\n        /* \"#utility.yul\":8100:8103   */\n      0x00\n        /* \"#utility.yul\":8121:8188   */\n      tag_432\n        /* \"#utility.yul\":8185:8187   */\n      0x21\n        /* \"#utility.yul\":8180:8183   */\n      dup4\n        /* \"#utility.yul\":8121:8188   */\n      tag_385\n      jump\t// in\n    tag_432:\n        /* \"#utility.yul\":8114:8188   */\n      swap2\n      pop\n        /* \"#utility.yul\":8197:8290   */\n      tag_433\n        /* \"#utility.yul\":8286:8289   */\n      dup3\n        /* \"#utility.yul\":8197:8290   */\n      tag_434\n      jump\t// in\n    tag_433:\n        /* \"#utility.yul\":8315:8317   */\n      0x40\n        /* \"#utility.yul\":8310:8313   */\n      dup3\n        /* \"#utility.yul\":8306:8318   */\n      add\n        /* \"#utility.yul\":8299:8318   */\n      swap1\n      pop\n        /* \"#utility.yul\":7958:8324   */\n      swap2\n      swap1\n      pop\n      jump\t// out\n        /* \"#utility.yul\":8330:8696   */\n    tag_435:\n        /* \"#utility.yul\":8472:8475   */\n      0x00\n        /* \"#utility.yul\":8493:8560   */\n      tag_437\n        /* \"#utility.yul\":8557:8559   */\n      0x1f\n        /* \"#utility.yul\":8552:8555   */\n      dup4\n        /* \"#utility.yul\":8493:8560   */\n      tag_385\n      jump\t// in\n    tag_437:\n        /* \"#utility.yul\":8486:8560   */\n      swap2\n      pop\n        /* \"#utility.yul\":8569:8662   */\n      tag_438\n        /* \"#utility.yul\":8658:8661   */\n      dup3\n        /* \"#utility.yul\":8569:8662   */\n      tag_439\n      jump\t// in\n    tag_438:\n        /* \"#utility.yul\":8687:8689   */\n      0x20\n        /* \"#utility.yul\":8682:8685   */\n      dup3\n        /* \"#utility.yul\":8678:8690   */\n      add\n        /* \"#utility.yul\":8671:8690   */\n      swap1\n      pop\n        /* \"#utility.yul\":8330:8696   */\n      swap2\n      swap1\n      pop\n      jump\t// out\n        /* \"#utility.yul\":8702:9068   */\n    tag_440:\n        /* \"#utility.yul\":8844:8847   */\n      0x00\n        /* \"#utility.yul\":8865:8932   */\n      tag_442\n        /* \"#utility.yul\":8929:8931   */\n      0x28\n        /* \"#utility.yul\":8924:8927   */\n      dup4\n        /* \"#utility.yul\":8865:8932   */\n      tag_385\n      jump\t// in\n    tag_442:\n        /* \"#utility.yul\":8858:8932   */\n      swap2\n      pop\n        /* \"#utility.yul\":8941:9034   */\n      tag_443\n        /* \"#utility.yul\":9030:9033   */\n      dup3\n        /* \"#utility.yul\":8941:9034   */\n      tag_444\n      jump\t// in\n    tag_443:\n        /* \"#utility.yul\":9059:9061   */\n      0x40\n        /* \"#utility.yul\":9054:9057   */\n      dup3\n        /* \"#utility.yul\":9050:9062   */\n      add\n        /* \"#utility.yul\":9043:9062   */\n      swap1\n      pop\n        /* \"#utility.yul\":8702:9068   */\n      swap2\n      swap1\n      pop\n      jump\t// out\n        /* \"#utility.yul\":9074:9440   */\n    tag_445:\n        /* \"#utility.yul\":9216:9219   */\n      0x00\n        /* \"#utility.yul\":9237:9304   */\n      tag_447\n        /* \"#utility.yul\":9301:9303   */\n      0x14\n        /* \"#utility.yul\":9296:9299   */\n      dup4\n        /* \"#utility.yul\":9237:9304   */\n      tag_385\n      jump\t// in\n    tag_447:\n        /* \"#utility.yul\":9230:9304   */\n      swap2\n      pop\n        /* \"#utility.yul\":9313:9406   */\n      tag_448\n        /* \"#utility.yul\":9402:9405   */\n      dup3\n        /* \"#utility.yul\":9313:9406   */\n      tag_449\n      jump\t// in\n    tag_448:\n        /* \"#utility.yul\":9431:9433   */\n      0x20\n        /* \"#utility.yul\":9426:9429   */\n      dup3\n        /* \"#utility.yul\":9422:9434   */\n      add\n        /* \"#utility.yul\":9415:9434   */\n      swap1\n      pop\n        /* \"#utility.yul\":9074:9440   */\n      swap2\n      swap1\n      pop\n      jump\t// out\n        /* \"#utility.yul\":9446:9812   */\n    tag_450:\n        /* \"#utility.yul\":9588:9591   */\n      0x00\n        /* \"#utility.yul\":9609:9676   */\n      tag_452\n        /* \"#utility.yul\":9673:9675   */\n      0x32\n        /* \"#utility.yul\":9668:9671   */\n      dup4\n        /* \"#utility.yul\":9609:9676   */\n      tag_385\n      jump\t// in\n    tag_452:\n        /* \"#utility.yul\":9602:9676   */\n      swap2\n      pop\n        /* \"#utility.yul\":9685:9778   */\n      tag_453\n        /* \"#utility.yul\":9774:9777   */\n      dup3\n        /* \"#utility.yul\":9685:9778   */\n      tag_454\n      jump\t// in\n    tag_453:\n        /* \"#utility.yul\":9803:9805   */\n      0x40\n        /* \"#utility.yul\":9798:9801   */\n      dup3\n        /* \"#utility.yul\":9794:9806   */\n      add\n        /* \"#utility.yul\":9787:9806   */\n      swap1\n      pop\n        /* \"#utility.yul\":9446:9812   */\n      swap2\n      swap1\n      pop\n      jump\t// out\n        /* \"#utility.yul\":9818:10184   */\n    tag_455:\n        /* \"#utility.yul\":9960:9963   */\n      0x00\n        /* \"#utility.yul\":9981:10048   */\n      tag_457\n        /* \"#utility.yul\":10045:10047   */\n      0x31\n        /* \"#utility.yul\":10040:10043   */\n      dup4\n        /* \"#utility.yul\":9981:10048   */\n      tag_385\n      jump\t// in\n    tag_457:\n        /* \"#utility.yul\":9974:10048   */\n      swap2\n      pop\n        /* \"#utility.yul\":10057:10150   */\n      tag_458\n        /* \"#utility.yul\":10146:10149   */\n      dup3\n        /* \"#utility.yul\":10057:10150   */\n      tag_459\n      jump\t// in\n    tag_458:\n        /* \"#utility.yul\":10175:10177   */\n      0x40\n        /* \"#utility.yul\":10170:10173   */\n      dup3\n        /* \"#utility.yul\":10166:10178   */\n      add\n        /* \"#utility.yul\":10159:10178   */\n      swap1\n      pop\n        /* \"#utility.yul\":9818:10184   */\n      swap2\n      swap1\n      pop\n      jump\t// out\n        /* \"#utility.yul\":10246:11093   */\n    tag_354:\n        /* \"#utility.yul\":10377:10381   */\n      0x80\n        /* \"#utility.yul\":10372:10375   */\n      dup3\n        /* \"#utility.yul\":10368:10382   */\n      add\n        /* \"#utility.yul\":10464:10468   */\n      0x00\n        /* \"#utility.yul\":10457:10462   */\n      dup3\n        /* \"#utility.yul\":10453:10469   */\n      add\n        /* \"#utility.yul\":10447:10470   */\n      mload\n        /* \"#utility.yul\":10483:10546   */\n      tag_461\n        /* \"#utility.yul\":10540:10544   */\n      0x00\n        /* \"#utility.yul\":10535:10538   */\n      dup6\n        /* \"#utility.yul\":10531:10545   */\n      add\n        /* \"#utility.yul\":10517:10529   */\n      dup3\n        /* \"#utility.yul\":10483:10546   */\n      tag_355\n      jump\t// in\n    tag_461:\n        /* \"#utility.yul\":10392:10556   */\n      pop\n        /* \"#utility.yul\":10640:10644   */\n      0x20\n        /* \"#utility.yul\":10633:10638   */\n      dup3\n        /* \"#utility.yul\":10629:10645   */\n      add\n        /* \"#utility.yul\":10623:10646   */\n      mload\n        /* \"#utility.yul\":10659:10722   */\n      tag_462\n        /* \"#utility.yul\":10716:10720   */\n      0x20\n        /* \"#utility.yul\":10711:10714   */\n      dup6\n        /* \"#utility.yul\":10707:10721   */\n      add\n        /* \"#utility.yul\":10693:10705   */\n      dup3\n        /* \"#utility.yul\":10659:10722   */\n      tag_463\n      jump\t// in\n    tag_462:\n        /* \"#utility.yul\":10566:10732   */\n      pop\n        /* \"#utility.yul\":10815:10819   */\n      0x40\n        /* \"#utility.yul\":10808:10813   */\n      dup3\n        /* \"#utility.yul\":10804:10820   */\n      add\n        /* \"#utility.yul\":10798:10821   */\n      mload\n        /* \"#utility.yul\":10834:10897   */\n      tag_464\n        /* \"#utility.yul\":10891:10895   */\n      0x40\n        /* \"#utility.yul\":10886:10889   */\n      dup6\n        /* \"#utility.yul\":10882:10896   */\n      add\n        /* \"#utility.yul\":10868:10880   */\n      dup3\n        /* \"#utility.yul\":10834:10897   */\n      tag_463\n      jump\t// in\n    tag_464:\n        /* \"#utility.yul\":10742:10907   */\n      pop\n        /* \"#utility.yul\":10994:10998   */\n      0x60\n        /* \"#utility.yul\":10987:10992   */\n      dup3\n        /* \"#utility.yul\":10983:10999   */\n      add\n        /* \"#utility.yul\":10977:11000   */\n      mload\n        /* \"#utility.yul\":11013:11076   */\n      tag_465\n        /* \"#utility.yul\":11070:11074   */\n      0x60\n        /* \"#utility.yul\":11065:11068   */\n      dup6\n        /* \"#utility.yul\":11061:11075   */\n      add\n        /* \"#utility.yul\":11047:11059   */\n      dup3\n        /* \"#utility.yul\":11013:11076   */\n      tag_463\n      jump\t// in\n    tag_465:\n        /* \"#utility.yul\":10917:11086   */\n      pop\n        /* \"#utility.yul\":10346:11093   */\n      pop\n        /* \"#utility.yul\":10246:11093   */\n      pop\n      pop\n      jump\t// out\n        /* \"#utility.yul\":11173:11875   */\n    tag_466:\n        /* \"#utility.yul\":11304:11307   */\n      0x00\n        /* \"#utility.yul\":11340:11344   */\n      0x40\n        /* \"#utility.yul\":11335:11338   */\n      dup4\n        /* \"#utility.yul\":11331:11345   */\n      add\n        /* \"#utility.yul\":11435:11439   */\n      0x00\n        /* \"#utility.yul\":11428:11433   */\n      dup4\n        /* \"#utility.yul\":11424:11440   */\n      add\n        /* \"#utility.yul\":11418:11441   */\n      mload\n        /* \"#utility.yul\":11454:11517   */\n      tag_468\n        /* \"#utility.yul\":11511:11515   */\n      0x00\n        /* \"#utility.yul\":11506:11509   */\n      dup7\n        /* \"#utility.yul\":11502:11516   */\n      add\n        /* \"#utility.yul\":11488:11500   */\n      dup3\n        /* \"#utility.yul\":11454:11517   */\n      tag_463\n      jump\t// in\n    tag_468:\n        /* \"#utility.yul\":11355:11527   */\n      pop\n        /* \"#utility.yul\":11611:11615   */\n      0x20\n        /* \"#utility.yul\":11604:11609   */\n      dup4\n        /* \"#utility.yul\":11600:11616   */\n      add\n        /* \"#utility.yul\":11594:11617   */\n      mload\n        /* \"#utility.yul\":11664:11667   */\n      dup5\n        /* \"#utility.yul\":11658:11662   */\n      dup3\n        /* \"#utility.yul\":11654:11668   */\n      sub\n        /* \"#utility.yul\":11647:11651   */\n      0x20\n        /* \"#utility.yul\":11642:11645   */\n      dup7\n        /* \"#utility.yul\":11638:11652   */\n      add\n        /* \"#utility.yul\":11631:11669   */\n      mstore\n        /* \"#utility.yul\":11690:11837   */\n      tag_469\n        /* \"#utility.yul\":11832:11836   */\n      dup3\n        /* \"#utility.yul\":11818:11830   */\n      dup3\n        /* \"#utility.yul\":11690:11837   */\n      tag_362\n      jump\t// in\n    tag_469:\n        /* \"#utility.yul\":11682:11837   */\n      swap2\n      pop\n        /* \"#utility.yul\":11537:11848   */\n      pop\n        /* \"#utility.yul\":11865:11869   */\n      dup1\n        /* \"#utility.yul\":11858:11869   */\n      swap2\n      pop\n        /* \"#utility.yul\":11309:11875   */\n      pop\n        /* \"#utility.yul\":11173:11875   */\n      swap3\n      swap2\n      pop\n      pop\n      jump\t// out\n        /* \"#utility.yul\":11881:11989   */\n    tag_463:\n        /* \"#utility.yul\":11958:11982   */\n      tag_471\n        /* \"#utility.yul\":11976:11981   */\n      dup2\n        /* \"#utility.yul\":11958:11982   */\n      tag_472\n      jump\t// in\n    tag_471:\n        /* \"#utility.yul\":11953:11956   */\n      dup3\n        /* \"#utility.yul\":11946:11983   */\n      mstore\n        /* \"#utility.yul\":11881:11989   */\n      pop\n      pop\n      jump\t// out\n        /* \"#utility.yul\":11995:12113   */\n    tag_473:\n        /* \"#utility.yul\":12082:12106   */\n      tag_475\n        /* \"#utility.yul\":12100:12105   */\n      dup2\n        /* \"#utility.yul\":12082:12106   */\n      tag_472\n      jump\t// in\n    tag_475:\n        /* \"#utility.yul\":12077:12080   */\n      dup3\n        /* \"#utility.yul\":12070:12107   */\n      mstore\n        /* \"#utility.yul\":11995:12113   */\n      pop\n      pop\n      jump\t// out\n        /* \"#utility.yul\":12119:12231   */\n    tag_476:\n        /* \"#utility.yul\":12202:12224   */\n      tag_478\n        /* \"#utility.yul\":12218:12223   */\n      dup2\n        /* \"#utility.yul\":12202:12224   */\n      tag_479\n      jump\t// in\n    tag_478:\n        /* \"#utility.yul\":12197:12200   */\n      dup3\n        /* \"#utility.yul\":12190:12225   */\n      mstore\n        /* \"#utility.yul\":12119:12231   */\n      pop\n      pop\n      jump\t// out\n        /* \"#utility.yul\":12237:12459   */\n    tag_72:\n        /* \"#utility.yul\":12330:12334   */\n      0x00\n        /* \"#utility.yul\":12368:12370   */\n      0x20\n        /* \"#utility.yul\":12357:12366   */\n      dup3\n        /* \"#utility.yul\":12353:12371   */\n      add\n        /* \"#utility.yul\":12345:12371   */\n      swap1\n      pop\n        /* \"#utility.yul\":12381:12452   */\n      tag_481\n        /* \"#utility.yul\":12449:12450   */\n      0x00\n        /* \"#utility.yul\":12438:12447   */\n      dup4\n        /* \"#utility.yul\":12434:12451   */\n      add\n        /* \"#utility.yul\":12425:12431   */\n      dup5\n        /* \"#utility.yul\":12381:12452   */\n      tag_359\n      jump\t// in\n    tag_481:\n        /* \"#utility.yul\":12237:12459   */\n      swap3\n      swap2\n      pop\n      pop\n      jump\t// out\n        /* \"#utility.yul\":12465:12675   */\n    tag_36:\n        /* \"#utility.yul\":12552:12556   */\n      0x00\n        /* \"#utility.yul\":12590:12592   */\n      0x20\n        /* \"#utility.yul\":12579:12588   */\n      dup3\n        /* \"#utility.yul\":12575:12593   */\n      add\n        /* \"#utility.yul\":12567:12593   */\n      swap1\n      pop\n        /* \"#utility.yul\":12603:12668   */\n      tag_483\n        /* \"#utility.yul\":12665:12666   */\n      0x00\n        /* \"#utility.yul\":12654:12663   */\n      dup4\n        /* \"#utility.yul\":12650:12667   */\n      add\n        /* \"#utility.yul\":12641:12647   */\n      dup5\n        /* \"#utility.yul\":12603:12668   */\n      tag_376\n      jump\t// in\n    tag_483:\n        /* \"#utility.yul\":12465:12675   */\n      swap3\n      swap2\n      pop\n      pop\n      jump\t// out\n        /* \"#utility.yul\":12681:12994   */\n    tag_30:\n        /* \"#utility.yul\":12794:12798   */\n      0x00\n        /* \"#utility.yul\":12832:12834   */\n      0x20\n        /* \"#utility.yul\":12821:12830   */\n      dup3\n        /* \"#utility.yul\":12817:12835   */\n      add\n        /* \"#utility.yul\":12809:12835   */\n      swap1\n      pop\n        /* \"#utility.yul\":12881:12890   */\n      dup2\n        /* \"#utility.yul\":12875:12879   */\n      dup2\n        /* \"#utility.yul\":12871:12891   */\n      sub\n        /* \"#utility.yul\":12867:12868   */\n      0x00\n        /* \"#utility.yul\":12856:12865   */\n      dup4\n        /* \"#utility.yul\":12852:12869   */\n      add\n        /* \"#utility.yul\":12845:12892   */\n      mstore\n        /* \"#utility.yul\":12909:12987   */\n      tag_485\n        /* \"#utility.yul\":12982:12986   */\n      dup2\n        /* \"#utility.yul\":12973:12979   */\n      dup5\n        /* \"#utility.yul\":12909:12987   */\n      tag_380\n      jump\t// in\n    tag_485:\n        /* \"#utility.yul\":12901:12987   */\n      swap1\n      pop\n        /* \"#utility.yul\":12681:12994   */\n      swap3\n      swap2\n      pop\n      pop\n      jump\t// out\n        /* \"#utility.yul\":13000:13419   */\n    tag_242:\n        /* \"#utility.yul\":13166:13170   */\n      0x00\n        /* \"#utility.yul\":13204:13206   */\n      0x20\n        /* \"#utility.yul\":13193:13202   */\n      dup3\n        /* \"#utility.yul\":13189:13207   */\n      add\n        /* \"#utility.yul\":13181:13207   */\n      swap1\n      pop\n        /* \"#utility.yul\":13253:13262   */\n      dup2\n        /* \"#utility.yul\":13247:13251   */\n      dup2\n        /* \"#utility.yul\":13243:13263   */\n      sub\n        /* \"#utility.yul\":13239:13240   */\n      0x00\n        /* \"#utility.yul\":13228:13237   */\n      dup4\n        /* \"#utility.yul\":13224:13241   */\n      add\n        /* \"#utility.yul\":13217:13264   */\n      mstore\n        /* \"#utility.yul\":13281:13412   */\n      tag_487\n        /* \"#utility.yul\":13407:13411   */\n      dup2\n        /* \"#utility.yul\":13281:13412   */\n      tag_390\n      jump\t// in\n    tag_487:\n        /* \"#utility.yul\":13273:13412   */\n      swap1\n      pop\n        /* \"#utility.yul\":13000:13419   */\n      swap2\n      swap1\n      pop\n      jump\t// out\n        /* \"#utility.yul\":13425:13844   */\n    tag_245:\n        /* \"#utility.yul\":13591:13595   */\n      0x00\n        /* \"#utility.yul\":13629:13631   */\n      0x20\n        /* \"#utility.yul\":13618:13627   */\n      dup3\n        /* \"#utility.yul\":13614:13632   */\n      add\n        /* \"#utility.yul\":13606:13632   */\n      swap1\n      pop\n        /* \"#utility.yul\":13678:13687   */\n      dup2\n        /* \"#utility.yul\":13672:13676   */\n      dup2\n        /* \"#utility.yul\":13668:13688   */\n      sub\n        /* \"#utility.yul\":13664:13665   */\n      0x00\n        /* \"#utility.yul\":13653:13662   */\n      dup4\n        /* \"#utility.yul\":13649:13666   */\n      add\n        /* \"#utility.yul\":13642:13689   */\n      mstore\n        /* \"#utility.yul\":13706:13837   */\n      tag_489\n        /* \"#utility.yul\":13832:13836   */\n      dup2\n        /* \"#utility.yul\":13706:13837   */\n      tag_395\n      jump\t// in\n    tag_489:\n        /* \"#utility.yul\":13698:13837   */\n      swap1\n      pop\n        /* \"#utility.yul\":13425:13844   */\n      swap2\n      swap1\n      pop\n      jump\t// out\n        /* \"#utility.yul\":13850:14269   */\n    tag_139:\n        /* \"#utility.yul\":14016:14020   */\n      0x00\n        /* \"#utility.yul\":14054:14056   */\n      0x20\n        /* \"#utility.yul\":14043:14052   */\n      dup3\n        /* \"#utility.yul\":14039:14057   */\n      add\n        /* \"#utility.yul\":14031:14057   */\n      swap1\n      pop\n        /* \"#utility.yul\":14103:14112   */\n      dup2\n        /* \"#utility.yul\":14097:14101   */\n      dup2\n        /* \"#utility.yul\":14093:14113   */\n      sub\n        /* \"#utility.yul\":14089:14090   */\n      0x00\n        /* \"#utility.yul\":14078:14087   */\n      dup4\n        /* \"#utility.yul\":14074:14091   */\n      add\n        /* \"#utility.yul\":14067:14114   */\n      mstore\n        /* \"#utility.yul\":14131:14262   */\n      tag_491\n        /* \"#utility.yul\":14257:14261   */\n      dup2\n        /* \"#utility.yul\":14131:14262   */\n      tag_400\n      jump\t// in\n    tag_491:\n        /* \"#utility.yul\":14123:14262   */\n      swap1\n      pop\n        /* \"#utility.yul\":13850:14269   */\n      swap2\n      swap1\n      pop\n      jump\t// out\n        /* \"#utility.yul\":14275:14694   */\n    tag_305:\n        /* \"#utility.yul\":14441:14445   */\n      0x00\n        /* \"#utility.yul\":14479:14481   */\n      0x20\n        /* \"#utility.yul\":14468:14477   */\n      dup3\n        /* \"#utility.yul\":14464:14482   */\n      add\n        /* \"#utility.yul\":14456:14482   */\n      swap1\n      pop\n        /* \"#utility.yul\":14528:14537   */\n      dup2\n        /* \"#utility.yul\":14522:14526   */\n      dup2\n        /* \"#utility.yul\":14518:14538   */\n      sub\n        /* \"#utility.yul\":14514:14515   */\n      0x00\n        /* \"#utility.yul\":14503:14512   */\n      dup4\n        /* \"#utility.yul\":14499:14516   */\n      add\n        /* \"#utility.yul\":14492:14539   */\n      mstore\n        /* \"#utility.yul\":14556:14687   */\n      tag_493\n        /* \"#utility.yul\":14682:14686   */\n      dup2\n        /* \"#utility.yul\":14556:14687   */\n      tag_405\n      jump\t// in\n    tag_493:\n        /* \"#utility.yul\":14548:14687   */\n      swap1\n      pop\n        /* \"#utility.yul\":14275:14694   */\n      swap2\n      swap1\n      pop\n      jump\t// out\n        /* \"#utility.yul\":14700:15119   */\n    tag_214:\n        /* \"#utility.yul\":14866:14870   */\n      0x00\n        /* \"#utility.yul\":14904:14906   */\n      0x20\n        /* \"#utility.yul\":14893:14902   */\n      dup3\n        /* \"#utility.yul\":14889:14907   */\n      add\n        /* \"#utility.yul\":14881:14907   */\n      swap1\n      pop\n        /* \"#utility.yul\":14953:14962   */\n      dup2\n        /* \"#utility.yul\":14947:14951   */\n      dup2\n        /* \"#utility.yul\":14943:14963   */\n      sub\n        /* \"#utility.yul\":14939:14940   */\n      0x00\n        /* \"#utility.yul\":14928:14937   */\n      dup4\n        /* \"#utility.yul\":14924:14941   */\n      add\n        /* \"#utility.yul\":14917:14964   */\n      mstore\n        /* \"#utility.yul\":14981:15112   */\n      tag_495\n        /* \"#utility.yul\":15107:15111   */\n      dup2\n        /* \"#utility.yul\":14981:15112   */\n      tag_410\n      jump\t// in\n    tag_495:\n        /* \"#utility.yul\":14973:15112   */\n      swap1\n      pop\n        /* \"#utility.yul\":14700:15119   */\n      swap2\n      swap1\n      pop\n      jump\t// out\n        /* \"#utility.yul\":15125:15544   */\n    tag_125:\n        /* \"#utility.yul\":15291:15295   */\n      0x00\n        /* \"#utility.yul\":15329:15331   */\n      0x20\n        /* \"#utility.yul\":15318:15327   */\n      dup3\n        /* \"#utility.yul\":15314:15332   */\n      add\n        /* \"#utility.yul\":15306:15332   */\n      swap1\n      pop\n        /* \"#utility.yul\":15378:15387   */\n      dup2\n        /* \"#utility.yul\":15372:15376   */\n      dup2\n        /* \"#utility.yul\":15368:15388   */\n      sub\n        /* \"#utility.yul\":15364:15365   */\n      0x00\n        /* \"#utility.yul\":15353:15362   */\n      dup4\n        /* \"#utility.yul\":15349:15366   */\n      add\n        /* \"#utility.yul\":15342:15389   */\n      mstore\n        /* \"#utility.yul\":15406:15537   */\n      tag_497\n        /* \"#utility.yul\":15532:15536   */\n      dup2\n        /* \"#utility.yul\":15406:15537   */\n      tag_415\n      jump\t// in\n    tag_497:\n        /* \"#utility.yul\":15398:15537   */\n      swap1\n      pop\n        /* \"#utility.yul\":15125:15544   */\n      swap2\n      swap1\n      pop\n      jump\t// out\n        /* \"#utility.yul\":15550:15969   */\n    tag_235:\n        /* \"#utility.yul\":15716:15720   */\n      0x00\n        /* \"#utility.yul\":15754:15756   */\n      0x20\n        /* \"#utility.yul\":15743:15752   */\n      dup3\n        /* \"#utility.yul\":15739:15757   */\n      add\n        /* \"#utility.yul\":15731:15757   */\n      swap1\n      pop\n        /* \"#utility.yul\":15803:15812   */\n      dup2\n        /* \"#utility.yul\":15797:15801   */\n      dup2\n        /* \"#utility.yul\":15793:15813   */\n      sub\n        /* \"#utility.yul\":15789:15790   */\n      0x00\n        /* \"#utility.yul\":15778:15787   */\n      dup4\n        /* \"#utility.yul\":15774:15791   */\n      add\n        /* \"#utility.yul\":15767:15814   */\n      mstore\n        /* \"#utility.yul\":15831:15962   */\n      tag_499\n        /* \"#utility.yul\":15957:15961   */\n      dup2\n        /* \"#utility.yul\":15831:15962   */\n      tag_420\n      jump\t// in\n    tag_499:\n        /* \"#utility.yul\":15823:15962   */\n      swap1\n      pop\n        /* \"#utility.yul\":15550:15969   */\n      swap2\n      swap1\n      pop\n      jump\t// out\n        /* \"#utility.yul\":15975:16394   */\n    tag_171:\n        /* \"#utility.yul\":16141:16145   */\n      0x00\n        /* \"#utility.yul\":16179:16181   */\n      0x20\n        /* \"#utility.yul\":16168:16177   */\n      dup3\n        /* \"#utility.yul\":16164:16182   */\n      add\n        /* \"#utility.yul\":16156:16182   */\n      swap1\n      pop\n        /* \"#utility.yul\":16228:16237   */\n      dup2\n        /* \"#utility.yul\":16222:16226   */\n      dup2\n        /* \"#utility.yul\":16218:16238   */\n      sub\n        /* \"#utility.yul\":16214:16215   */\n      0x00\n        /* \"#utility.yul\":16203:16212   */\n      dup4\n        /* \"#utility.yul\":16199:16216   */\n      add\n        /* \"#utility.yul\":16192:16239   */\n      mstore\n        /* \"#utility.yul\":16256:16387   */\n      tag_501\n        /* \"#utility.yul\":16382:16386   */\n      dup2\n        /* \"#utility.yul\":16256:16387   */\n      tag_425\n      jump\t// in\n    tag_501:\n        /* \"#utility.yul\":16248:16387   */\n      swap1\n      pop\n        /* \"#utility.yul\":15975:16394   */\n      swap2\n      swap1\n      pop\n      jump\t// out\n        /* \"#utility.yul\":16400:16819   */\n    tag_222:\n        /* \"#utility.yul\":16566:16570   */\n      0x00\n        /* \"#utility.yul\":16604:16606   */\n      0x20\n        /* \"#utility.yul\":16593:16602   */\n      dup3\n        /* \"#utility.yul\":16589:16607   */\n      add\n        /* \"#utility.yul\":16581:16607   */\n      swap1\n      pop\n        /* \"#utility.yul\":16653:16662   */\n      dup2\n        /* \"#utility.yul\":16647:16651   */\n      dup2\n        /* \"#utility.yul\":16643:16663   */\n      sub\n        /* \"#utility.yul\":16639:16640   */\n      0x00\n        /* \"#utility.yul\":16628:16637   */\n      dup4\n        /* \"#utility.yul\":16624:16641   */\n      add\n        /* \"#utility.yul\":16617:16664   */\n      mstore\n        /* \"#utility.yul\":16681:16812   */\n      tag_503\n        /* \"#utility.yul\":16807:16811   */\n      dup2\n        /* \"#utility.yul\":16681:16812   */\n      tag_430\n      jump\t// in\n    tag_503:\n        /* \"#utility.yul\":16673:16812   */\n      swap1\n      pop\n        /* \"#utility.yul\":16400:16819   */\n      swap2\n      swap1\n      pop\n      jump\t// out\n        /* \"#utility.yul\":16825:17244   */\n    tag_225:\n        /* \"#utility.yul\":16991:16995   */\n      0x00\n        /* \"#utility.yul\":17029:17031   */\n      0x20\n        /* \"#utility.yul\":17018:17027   */\n      dup3\n        /* \"#utility.yul\":17014:17032   */\n      add\n        /* \"#utility.yul\":17006:17032   */\n      swap1\n      pop\n        /* \"#utility.yul\":17078:17087   */\n      dup2\n        /* \"#utility.yul\":17072:17076   */\n      dup2\n        /* \"#utility.yul\":17068:17088   */\n      sub\n        /* \"#utility.yul\":17064:17065   */\n      0x00\n        /* \"#utility.yul\":17053:17062   */\n      dup4\n        /* \"#utility.yul\":17049:17066   */\n      add\n        /* \"#utility.yul\":17042:17089   */\n      mstore\n        /* \"#utility.yul\":17106:17237   */\n      tag_505\n        /* \"#utility.yul\":17232:17236   */\n      dup2\n        /* \"#utility.yul\":17106:17237   */\n      tag_435\n      jump\t// in\n    tag_505:\n        /* \"#utility.yul\":17098:17237   */\n      swap1\n      pop\n        /* \"#utility.yul\":16825:17244   */\n      swap2\n      swap1\n      pop\n      jump\t// out\n        /* \"#utility.yul\":17250:17669   */\n    tag_217:\n        /* \"#utility.yul\":17416:17420   */\n      0x00\n        /* \"#utility.yul\":17454:17456   */\n      0x20\n        /* \"#utility.yul\":17443:17452   */\n      dup3\n        /* \"#utility.yul\":17439:17457   */\n      add\n        /* \"#utility.yul\":17431:17457   */\n      swap1\n      pop\n        /* \"#utility.yul\":17503:17512   */\n      dup2\n        /* \"#utility.yul\":17497:17501   */\n      dup2\n        /* \"#utility.yul\":17493:17513   */\n      sub\n        /* \"#utility.yul\":17489:17490   */\n      0x00\n        /* \"#utility.yul\":17478:17487   */\n      dup4\n        /* \"#utility.yul\":17474:17491   */\n      add\n        /* \"#utility.yul\":17467:17514   */\n      mstore\n        /* \"#utility.yul\":17531:17662   */\n      tag_507\n        /* \"#utility.yul\":17657:17661   */\n      dup2\n        /* \"#utility.yul\":17531:17662   */\n      tag_440\n      jump\t// in\n    tag_507:\n        /* \"#utility.yul\":17523:17662   */\n      swap1\n      pop\n        /* \"#utility.yul\":17250:17669   */\n      swap2\n      swap1\n      pop\n      jump\t// out\n        /* \"#utility.yul\":17675:18094   */\n    tag_252:\n        /* \"#utility.yul\":17841:17845   */\n      0x00\n        /* \"#utility.yul\":17879:17881   */\n      0x20\n        /* \"#utility.yul\":17868:17877   */\n      dup3\n        /* \"#utility.yul\":17864:17882   */\n      add\n        /* \"#utility.yul\":17856:17882   */\n      swap1\n      pop\n        /* \"#utility.yul\":17928:17937   */\n      dup2\n        /* \"#utility.yul\":17922:17926   */\n      dup2\n        /* \"#utility.yul\":17918:17938   */\n      sub\n        /* \"#utility.yul\":17914:17915   */\n      0x00\n        /* \"#utility.yul\":17903:17912   */\n      dup4\n        /* \"#utility.yul\":17899:17916   */\n      add\n        /* \"#utility.yul\":17892:17939   */\n      mstore\n        /* \"#utility.yul\":17956:18087   */\n      tag_509\n        /* \"#utility.yul\":18082:18086   */\n      dup2\n        /* \"#utility.yul\":17956:18087   */\n      tag_445\n      jump\t// in\n    tag_509:\n        /* \"#utility.yul\":17948:18087   */\n      swap1\n      pop\n        /* \"#utility.yul\":17675:18094   */\n      swap2\n      swap1\n      pop\n      jump\t// out\n        /* \"#utility.yul\":18100:18519   */\n    tag_278:\n        /* \"#utility.yul\":18266:18270   */\n      0x00\n        /* \"#utility.yul\":18304:18306   */\n      0x20\n        /* \"#utility.yul\":18293:18302   */\n      dup3\n        /* \"#utility.yul\":18289:18307   */\n      add\n        /* \"#utility.yul\":18281:18307   */\n      swap1\n      pop\n        /* \"#utility.yul\":18353:18362   */\n      dup2\n        /* \"#utility.yul\":18347:18351   */\n      dup2\n        /* \"#utility.yul\":18343:18363   */\n      sub\n        /* \"#utility.yul\":18339:18340   */\n      0x00\n        /* \"#utility.yul\":18328:18337   */\n      dup4\n        /* \"#utility.yul\":18324:18341   */\n      add\n        /* \"#utility.yul\":18317:18364   */\n      mstore\n        /* \"#utility.yul\":18381:18512   */\n      tag_511\n        /* \"#utility.yul\":18507:18511   */\n      dup2\n        /* \"#utility.yul\":18381:18512   */\n      tag_450\n      jump\t// in\n    tag_511:\n        /* \"#utility.yul\":18373:18512   */\n      swap1\n      pop\n        /* \"#utility.yul\":18100:18519   */\n      swap2\n      swap1\n      pop\n      jump\t// out\n        /* \"#utility.yul\":18525:18944   */\n    tag_228:\n        /* \"#utility.yul\":18691:18695   */\n      0x00\n        /* \"#utility.yul\":18729:18731   */\n      0x20\n        /* \"#utility.yul\":18718:18727   */\n      dup3\n        /* \"#utility.yul\":18714:18732   */\n      add\n        /* \"#utility.yul\":18706:18732   */\n      swap1\n      pop\n        /* \"#utility.yul\":18778:18787   */\n      dup2\n        /* \"#utility.yul\":18772:18776   */\n      dup2\n        /* \"#utility.yul\":18768:18788   */\n      sub\n        /* \"#utility.yul\":18764:18765   */\n      0x00\n        /* \"#utility.yul\":18753:18762   */\n      dup4\n        /* \"#utility.yul\":18749:18766   */\n      add\n        /* \"#utility.yul\":18742:18789   */\n      mstore\n        /* \"#utility.yul\":18806:18937   */\n      tag_513\n        /* \"#utility.yul\":18932:18936   */\n      dup2\n        /* \"#utility.yul\":18806:18937   */\n      tag_455\n      jump\t// in\n    tag_513:\n        /* \"#utility.yul\":18798:18937   */\n      swap1\n      pop\n        /* \"#utility.yul\":18525:18944   */\n      swap2\n      swap1\n      pop\n      jump\t// out\n        /* \"#utility.yul\":18950:19347   */\n    tag_103:\n        /* \"#utility.yul\":19105:19109   */\n      0x00\n        /* \"#utility.yul\":19143:19145   */\n      0x20\n        /* \"#utility.yul\":19132:19141   */\n      dup3\n        /* \"#utility.yul\":19128:19146   */\n      add\n        /* \"#utility.yul\":19120:19146   */\n      swap1\n      pop\n        /* \"#utility.yul\":19192:19201   */\n      dup2\n        /* \"#utility.yul\":19186:19190   */\n      dup2\n        /* \"#utility.yul\":19182:19202   */\n      sub\n        /* \"#utility.yul\":19178:19179   */\n      0x00\n        /* \"#utility.yul\":19167:19176   */\n      dup4\n        /* \"#utility.yul\":19163:19180   */\n      add\n        /* \"#utility.yul\":19156:19203   */\n      mstore\n        /* \"#utility.yul\":19220:19340   */\n      tag_515\n        /* \"#utility.yul\":19335:19339   */\n      dup2\n        /* \"#utility.yul\":19326:19332   */\n      dup5\n        /* \"#utility.yul\":19220:19340   */\n      tag_466\n      jump\t// in\n    tag_515:\n        /* \"#utility.yul\":19212:19340   */\n      swap1\n      pop\n        /* \"#utility.yul\":18950:19347   */\n      swap3\n      swap2\n      pop\n      pop\n      jump\t// out\n        /* \"#utility.yul\":19353:19575   */\n    tag_40:\n        /* \"#utility.yul\":19446:19450   */\n      0x00\n        /* \"#utility.yul\":19484:19486   */\n      0x20\n        /* \"#utility.yul\":19473:19482   */\n      dup3\n        /* \"#utility.yul\":19469:19487   */\n      add\n        /* \"#utility.yul\":19461:19487   */\n      swap1\n      pop\n        /* \"#utility.yul\":19497:19568   */\n      tag_517\n        /* \"#utility.yul\":19565:19566   */\n      0x00\n        /* \"#utility.yul\":19554:19563   */\n      dup4\n        /* \"#utility.yul\":19550:19567   */\n      add\n        /* \"#utility.yul\":19541:19547   */\n      dup5\n        /* \"#utility.yul\":19497:19568   */\n      tag_473\n      jump\t// in\n    tag_517:\n        /* \"#utility.yul\":19353:19575   */\n      swap3\n      swap2\n      pop\n      pop\n      jump\t// out\n        /* \"#utility.yul\":19581:20023   */\n    tag_261:\n        /* \"#utility.yul\":19730:19734   */\n      0x00\n        /* \"#utility.yul\":19768:19770   */\n      0x60\n        /* \"#utility.yul\":19757:19766   */\n      dup3\n        /* \"#utility.yul\":19753:19771   */\n      add\n        /* \"#utility.yul\":19745:19771   */\n      swap1\n      pop\n        /* \"#utility.yul\":19781:19852   */\n      tag_519\n        /* \"#utility.yul\":19849:19850   */\n      0x00\n        /* \"#utility.yul\":19838:19847   */\n      dup4\n        /* \"#utility.yul\":19834:19851   */\n      add\n        /* \"#utility.yul\":19825:19831   */\n      dup7\n        /* \"#utility.yul\":19781:19852   */\n      tag_473\n      jump\t// in\n    tag_519:\n        /* \"#utility.yul\":19862:19934   */\n      tag_520\n        /* \"#utility.yul\":19930:19932   */\n      0x20\n        /* \"#utility.yul\":19919:19928   */\n      dup4\n        /* \"#utility.yul\":19915:19933   */\n      add\n        /* \"#utility.yul\":19906:19912   */\n      dup6\n        /* \"#utility.yul\":19862:19934   */\n      tag_473\n      jump\t// in\n    tag_520:\n        /* \"#utility.yul\":19944:20016   */\n      tag_521\n        /* \"#utility.yul\":20012:20014   */\n      0x40\n        /* \"#utility.yul\":20001:20010   */\n      dup4\n        /* \"#utility.yul\":19997:20015   */\n      add\n        /* \"#utility.yul\":19988:19994   */\n      dup5\n        /* \"#utility.yul\":19944:20016   */\n      tag_473\n      jump\t// in\n    tag_521:\n        /* \"#utility.yul\":19581:20023   */\n      swap5\n      swap4\n      pop\n      pop\n      pop\n      pop\n      jump\t// out\n        /* \"#utility.yul\":20029:20243   */\n    tag_49:\n        /* \"#utility.yul\":20118:20122   */\n      0x00\n        /* \"#utility.yul\":20156:20158   */\n      0x20\n        /* \"#utility.yul\":20145:20154   */\n      dup3\n        /* \"#utility.yul\":20141:20159   */\n      add\n        /* \"#utility.yul\":20133:20159   */\n      swap1\n      pop\n        /* \"#utility.yul\":20169:20236   */\n      tag_523\n        /* \"#utility.yul\":20233:20234   */\n      0x00\n        /* \"#utility.yul\":20222:20231   */\n      dup4\n        /* \"#utility.yul\":20218:20235   */\n      add\n        /* \"#utility.yul\":20209:20215   */\n      dup5\n        /* \"#utility.yul\":20169:20236   */\n      tag_476\n      jump\t// in\n    tag_523:\n        /* \"#utility.yul\":20029:20243   */\n      swap3\n      swap2\n      pop\n      pop\n      jump\t// out\n        /* \"#utility.yul\":20330:20484   */\n    tag_369:\n        /* \"#utility.yul\":20419:20423   */\n      0x00\n        /* \"#utility.yul\":20442:20445   */\n      dup2\n        /* \"#utility.yul\":20434:20445   */\n      swap1\n      pop\n        /* \"#utility.yul\":20472:20476   */\n      0x20\n        /* \"#utility.yul\":20467:20470   */\n      dup3\n        /* \"#utility.yul\":20463:20477   */\n      add\n        /* \"#utility.yul\":20455:20477   */\n      swap1\n      pop\n        /* \"#utility.yul\":20330:20484   */\n      swap2\n      swap1\n      pop\n      jump\t// out\n        /* \"#utility.yul\":20490:20626   */\n    tag_365:\n        /* \"#utility.yul\":20579:20585   */\n      0x00\n        /* \"#utility.yul\":20613:20618   */\n      dup2\n        /* \"#utility.yul\":20607:20619   */\n      mload\n        /* \"#utility.yul\":20597:20619   */\n      swap1\n      pop\n        /* \"#utility.yul\":20490:20626   */\n      swap2\n      swap1\n      pop\n      jump\t// out\n        /* \"#utility.yul\":20632:20731   */\n    tag_383:\n        /* \"#utility.yul\":20684:20690   */\n      0x00\n        /* \"#utility.yul\":20718:20723   */\n      dup2\n        /* \"#utility.yul\":20712:20724   */\n      mload\n        /* \"#utility.yul\":20702:20724   */\n      swap1\n      pop\n        /* \"#utility.yul\":20632:20731   */\n      swap2\n      swap1\n      pop\n      jump\t// out\n        /* \"#utility.yul\":20737:20872   */\n    tag_375:\n        /* \"#utility.yul\":20829:20833   */\n      0x00\n        /* \"#utility.yul\":20861:20865   */\n      0x20\n        /* \"#utility.yul\":20856:20859   */\n      dup3\n        /* \"#utility.yul\":20852:20866   */\n      add\n        /* \"#utility.yul\":20844:20866   */\n      swap1\n      pop\n        /* \"#utility.yul\":20737:20872   */\n      swap2\n      swap1\n      pop\n      jump\t// out\n        /* \"#utility.yul\":20878:21074   */\n    tag_367:\n        /* \"#utility.yul\":20989:21000   */\n      0x00\n        /* \"#utility.yul\":21023:21029   */\n      dup3\n        /* \"#utility.yul\":21018:21021   */\n      dup3\n        /* \"#utility.yul\":21011:21030   */\n      mstore\n        /* \"#utility.yul\":21063:21067   */\n      0x20\n        /* \"#utility.yul\":21058:21061   */\n      dup3\n        /* \"#utility.yul\":21054:21068   */\n      add\n        /* \"#utility.yul\":21039:21068   */\n      swap1\n      pop\n        /* \"#utility.yul\":20878:21074   */\n      swap3\n      swap2\n      pop\n      pop\n      jump\t// out\n        /* \"#utility.yul\":21080:21249   */\n    tag_385:\n        /* \"#utility.yul\":21164:21175   */\n      0x00\n        /* \"#utility.yul\":21198:21204   */\n      dup3\n        /* \"#utility.yul\":21193:21196   */\n      dup3\n        /* \"#utility.yul\":21186:21205   */\n      mstore\n        /* \"#utility.yul\":21238:21242   */\n      0x20\n        /* \"#utility.yul\":21233:21236   */\n      dup3\n        /* \"#utility.yul\":21229:21243   */\n      add\n        /* \"#utility.yul\":21214:21243   */\n      swap1\n      pop\n        /* \"#utility.yul\":21080:21249   */\n      swap3\n      swap2\n      pop\n      pop\n      jump\t// out\n        /* \"#utility.yul\":21255:21560   */\n    tag_135:\n        /* \"#utility.yul\":21295:21298   */\n      0x00\n        /* \"#utility.yul\":21314:21334   */\n      tag_533\n        /* \"#utility.yul\":21332:21333   */\n      dup3\n        /* \"#utility.yul\":21314:21334   */\n      tag_472\n      jump\t// in\n    tag_533:\n        /* \"#utility.yul\":21309:21334   */\n      swap2\n      pop\n        /* \"#utility.yul\":21348:21368   */\n      tag_534\n        /* \"#utility.yul\":21366:21367   */\n      dup4\n        /* \"#utility.yul\":21348:21368   */\n      tag_472\n      jump\t// in\n    tag_534:\n        /* \"#utility.yul\":21343:21368   */\n      swap3\n      pop\n        /* \"#utility.yul\":21502:21503   */\n      dup3\n        /* \"#utility.yul\":21434:21500   */\n      0xffffffffffffffffffffffffffffffffffffffffffffffffffffffffffffffff\n        /* \"#utility.yul\":21430:21504   */\n      sub\n        /* \"#utility.yul\":21427:21428   */\n      dup3\n        /* \"#utility.yul\":21424:21505   */\n      gt\n        /* \"#utility.yul\":21421:21528   */\n      iszero\n      tag_535\n      jumpi\n        /* \"#utility.yul\":21508:21526   */\n      tag_536\n      tag_537\n      jump\t// in\n    tag_536:\n        /* \"#utility.yul\":21421:21528   */\n    tag_535:\n        /* \"#utility.yul\":21552:21553   */\n      dup3\n        /* \"#utility.yul\":21549:21550   */\n      dup3\n        /* \"#utility.yul\":21545:21554   */\n      add\n        /* \"#utility.yul\":21538:21554   */\n      swap1\n      pop\n        /* \"#utility.yul\":21255:21560   */\n      swap3\n      swap2\n      pop\n      pop\n      jump\t// out\n        /* \"#utility.yul\":21566:21751   */\n    tag_265:\n        /* \"#utility.yul\":21606:21607   */\n      0x00\n        /* \"#utility.yul\":21623:21643   */\n      tag_539\n        /* \"#utility.yul\":21641:21642   */\n      dup3\n        /* \"#utility.yul\":21623:21643   */\n      tag_472\n      jump\t// in\n    tag_539:\n        /* \"#utility.yul\":21618:21643   */\n      swap2\n      pop\n        /* \"#utility.yul\":21657:21677   */\n      tag_540\n        /* \"#utility.yul\":21675:21676   */\n      dup4\n        /* \"#utility.yul\":21657:21677   */\n      tag_472\n      jump\t// in\n    tag_540:\n        /* \"#utility.yul\":21652:21677   */\n      swap3\n      pop\n        /* \"#utility.yul\":21696:21697   */\n      dup3\n        /* \"#utility.yul\":21686:21721   */\n      tag_541\n      jumpi\n        /* \"#utility.yul\":21701:21719   */\n      tag_542\n      tag_543\n      jump\t// in\n    tag_542:\n        /* \"#utility.yul\":21686:21721   */\n    tag_541:\n        /* \"#utility.yul\":21743:21744   */\n      dup3\n        /* \"#utility.yul\":21740:21741   */\n      dup3\n        /* \"#utility.yul\":21736:21745   */\n      div\n        /* \"#utility.yul\":21731:21745   */\n      swap1\n      pop\n        /* \"#utility.yul\":21566:21751   */\n      swap3\n      swap2\n      pop\n      pop\n      jump\t// out\n        /* \"#utility.yul\":21757:22105   */\n    tag_267:\n        /* \"#utility.yul\":21797:21804   */\n      0x00\n        /* \"#utility.yul\":21820:21840   */\n      tag_545\n        /* \"#utility.yul\":21838:21839   */\n      dup3\n        /* \"#utility.yul\":21820:21840   */\n      tag_472\n      jump\t// in\n    tag_545:\n        /* \"#utility.yul\":21815:21840   */\n      swap2\n      pop\n        /* \"#utility.yul\":21854:21874   */\n      tag_546\n        /* \"#utility.yul\":21872:21873   */\n      dup4\n        /* \"#utility.yul\":21854:21874   */\n      tag_472\n      jump\t// in\n    tag_546:\n        /* \"#utility.yul\":21849:21874   */\n      swap3\n      pop\n        /* \"#utility.yul\":22042:22043   */\n      dup2\n        /* \"#utility.yul\":21974:22040   */\n      0xffffffffffffffffffffffffffffffffffffffffffffffffffffffffffffffff\n        /* \"#utility.yul\":21970:22044   */\n      div\n        /* \"#utility.yul\":21967:21968   */\n      dup4\n        /* \"#utility.yul\":21964:22045   */\n      gt\n        /* \"#utility.yul\":21959:21960   */\n      dup3\n        /* \"#utility.yul\":21952:21961   */\n      iszero\n        /* \"#utility.yul\":21945:21962   */\n      iszero\n        /* \"#utility.yul\":21941:22046   */\n      and\n        /* \"#utility.yul\":21938:22069   */\n      iszero\n      tag_547\n      jumpi\n        /* \"#utility.yul\":22049:22067   */\n      tag_548\n      tag_537\n      jump\t// in\n    tag_548:\n        /* \"#utility.yul\":21938:22069   */\n    tag_547:\n        /* \"#utility.yul\":22097:22098   */\n      dup3\n        /* \"#utility.yul\":22094:22095   */\n      dup3\n        /* \"#utility.yul\":22090:22099   */\n      mul\n        /* \"#utility.yul\":22079:22099   */\n      swap1\n      pop\n        /* \"#utility.yul\":21757:22105   */\n      swap3\n      swap2\n      pop\n      pop\n      jump\t// out\n        /* \"#utility.yul\":22111:22302   */\n    tag_130:\n        /* \"#utility.yul\":22151:22155   */\n      0x00\n        /* \"#utility.yul\":22171:22191   */\n      tag_550\n        /* \"#utility.yul\":22189:22190   */\n      dup3\n        /* \"#utility.yul\":22171:22191   */\n      tag_472\n      jump\t// in\n    tag_550:\n        /* \"#utility.yul\":22166:22191   */\n      swap2\n      pop\n        /* \"#utility.yul\":22205:22225   */\n      tag_551\n        /* \"#utility.yul\":22223:22224   */\n      dup4\n        /* \"#utility.yul\":22205:22225   */\n      tag_472\n      jump\t// in\n    tag_551:\n        /* \"#utility.yul\":22200:22225   */\n      swap3\n      pop\n        /* \"#utility.yul\":22244:22245   */\n      dup3\n        /* \"#utility.yul\":22241:22242   */\n      dup3\n        /* \"#utility.yul\":22238:22246   */\n      lt\n        /* \"#utility.yul\":22235:22269   */\n      iszero\n      tag_552\n      jumpi\n        /* \"#utility.yul\":22249:22267   */\n      tag_553\n      tag_537\n      jump\t// in\n    tag_553:\n        /* \"#utility.yul\":22235:22269   */\n    tag_552:\n        /* \"#utility.yul\":22294:22295   */\n      dup3\n        /* \"#utility.yul\":22291:22292   */\n      dup3\n        /* \"#utility.yul\":22287:22296   */\n      sub\n        /* \"#utility.yul\":22279:22296   */\n      swap1\n      pop\n        /* \"#utility.yul\":22111:22302   */\n      swap3\n      swap2\n      pop\n      pop\n      jump\t// out\n        /* \"#utility.yul\":22308:22404   */\n    tag_358:\n        /* \"#utility.yul\":22345:22352   */\n      0x00\n        /* \"#utility.yul\":22374:22398   */\n      tag_555\n        /* \"#utility.yul\":22392:22397   */\n      dup3\n        /* \"#utility.yul\":22374:22398   */\n      tag_556\n      jump\t// in\n    tag_555:\n        /* \"#utility.yul\":22363:22398   */\n      swap1\n      pop\n        /* \"#utility.yul\":22308:22404   */\n      swap2\n      swap1\n      pop\n      jump\t// out\n        /* \"#utility.yul\":22410:22500   */\n    tag_379:\n        /* \"#utility.yul\":22444:22451   */\n      0x00\n        /* \"#utility.yul\":22487:22492   */\n      dup2\n        /* \"#utility.yul\":22480:22493   */\n      iszero\n        /* \"#utility.yul\":22473:22494   */\n      iszero\n        /* \"#utility.yul\":22462:22494   */\n      swap1\n      pop\n        /* \"#utility.yul\":22410:22500   */\n      swap2\n      swap1\n      pop\n      jump\t// out\n        /* \"#utility.yul\":22506:22632   */\n    tag_556:\n        /* \"#utility.yul\":22543:22550   */\n      0x00\n        /* \"#utility.yul\":22583:22625   */\n      0xffffffffffffffffffffffffffffffffffffffff\n        /* \"#utility.yul\":22576:22581   */\n      dup3\n        /* \"#utility.yul\":22572:22626   */\n      and\n        /* \"#utility.yul\":22561:22626   */\n      swap1\n      pop\n        /* \"#utility.yul\":22506:22632   */\n      swap2\n      swap1\n      pop\n      jump\t// out\n        /* \"#utility.yul\":22638:22715   */\n    tag_472:\n        /* \"#utility.yul\":22675:22682   */\n      0x00\n        /* \"#utility.yul\":22704:22709   */\n      dup2\n        /* \"#utility.yul\":22693:22709   */\n      swap1\n      pop\n        /* \"#utility.yul\":22638:22715   */\n      swap2\n      swap1\n      pop\n      jump\t// out\n        /* \"#utility.yul\":22721:22807   */\n    tag_479:\n        /* \"#utility.yul\":22756:22763   */\n      0x00\n        /* \"#utility.yul\":22796:22800   */\n      0xff\n        /* \"#utility.yul\":22789:22794   */\n      dup3\n        /* \"#utility.yul\":22785:22801   */\n      and\n        /* \"#utility.yul\":22774:22801   */\n      swap1\n      pop\n        /* \"#utility.yul\":22721:22807   */\n      swap2\n      swap1\n      pop\n      jump\t// out\n        /* \"#utility.yul\":22813:23120   */\n    tag_387:\n        /* \"#utility.yul\":22881:22882   */\n      0x00\n        /* \"#utility.yul\":22891:23004   */\n    tag_562:\n        /* \"#utility.yul\":22905:22911   */\n      dup4\n        /* \"#utility.yul\":22902:22903   */\n      dup2\n        /* \"#utility.yul\":22899:22912   */\n      lt\n        /* \"#utility.yul\":22891:23004   */\n      iszero\n      tag_564\n      jumpi\n        /* \"#utility.yul\":22990:22991   */\n      dup1\n        /* \"#utility.yul\":22985:22988   */\n      dup3\n        /* \"#utility.yul\":22981:22992   */\n      add\n        /* \"#utility.yul\":22975:22993   */\n      mload\n        /* \"#utility.yul\":22971:22972   */\n      dup2\n        /* \"#utility.yul\":22966:22969   */\n      dup5\n        /* \"#utility.yul\":22962:22973   */\n      add\n        /* \"#utility.yul\":22955:22994   */\n      mstore\n        /* \"#utility.yul\":22927:22929   */\n      0x20\n        /* \"#utility.yul\":22924:22925   */\n      dup2\n        /* \"#utility.yul\":22920:22930   */\n      add\n        /* \"#utility.yul\":22915:22930   */\n      swap1\n      pop\n        /* \"#utility.yul\":22891:23004   */\n      jump(tag_562)\n    tag_564:\n        /* \"#utility.yul\":23022:23028   */\n      dup4\n        /* \"#utility.yul\":23019:23020   */\n      dup2\n        /* \"#utility.yul\":23016:23029   */\n      gt\n        /* \"#utility.yul\":23013:23114   */\n      iszero\n      tag_565\n      jumpi\n        /* \"#utility.yul\":23102:23103   */\n      0x00\n        /* \"#utility.yul\":23093:23099   */\n      dup5\n        /* \"#utility.yul\":23088:23091   */\n      dup5\n        /* \"#utility.yul\":23084:23100   */\n      add\n        /* \"#utility.yul\":23077:23104   */\n      mstore\n        /* \"#utility.yul\":23013:23114   */\n    tag_565:\n        /* \"#utility.yul\":22862:23120   */\n      pop\n        /* \"#utility.yul\":22813:23120   */\n      pop\n      pop\n      pop\n      jump\t// out\n        /* \"#utility.yul\":23126:23446   */\n    tag_113:\n        /* \"#utility.yul\":23170:23176   */\n      0x00\n        /* \"#utility.yul\":23207:23208   */\n      0x02\n        /* \"#utility.yul\":23201:23205   */\n      dup3\n        /* \"#utility.yul\":23197:23209   */\n      div\n        /* \"#utility.yul\":23187:23209   */\n      swap1\n      pop\n        /* \"#utility.yul\":23254:23255   */\n      0x01\n        /* \"#utility.yul\":23248:23252   */\n      dup3\n        /* \"#utility.yul\":23244:23256   */\n      and\n        /* \"#utility.yul\":23275:23293   */\n      dup1\n        /* \"#utility.yul\":23265:23346   */\n      tag_567\n      jumpi\n        /* \"#utility.yul\":23331:23335   */\n      0x7f\n        /* \"#utility.yul\":23323:23329   */\n      dup3\n        /* \"#utility.yul\":23319:23336   */\n      and\n        /* \"#utility.yul\":23309:23336   */\n      swap2\n      pop\n        /* \"#utility.yul\":23265:23346   */\n    tag_567:\n        /* \"#utility.yul\":23393:23395   */\n      0x20\n        /* \"#utility.yul\":23385:23391   */\n      dup3\n        /* \"#utility.yul\":23382:23396   */\n      lt\n        /* \"#utility.yul\":23362:23380   */\n      dup2\n        /* \"#utility.yul\":23359:23397   */\n      eq\n        /* \"#utility.yul\":23356:23440   */\n      iszero\n      tag_568\n      jumpi\n        /* \"#utility.yul\":23412:23430   */\n      tag_569\n      tag_570\n      jump\t// in\n    tag_569:\n        /* \"#utility.yul\":23356:23440   */\n    tag_568:\n        /* \"#utility.yul\":23177:23446   */\n      pop\n        /* \"#utility.yul\":23126:23446   */\n      swap2\n      swap1\n      pop\n      jump\t// out\n        /* \"#utility.yul\":23452:23632   */\n    tag_537:\n        /* \"#utility.yul\":23500:23577   */\n      0x4e487b7100000000000000000000000000000000000000000000000000000000\n        /* \"#utility.yul\":23497:23498   */\n      0x00\n        /* \"#utility.yul\":23490:23578   */\n      mstore\n        /* \"#utility.yul\":23597:23601   */\n      0x11\n        /* \"#utility.yul\":23594:23595   */\n      0x04\n        /* \"#utility.yul\":23587:23602   */\n      mstore\n        /* \"#utility.yul\":23621:23625   */\n      0x24\n        /* \"#utility.yul\":23618:23619   */\n      0x00\n        /* \"#utility.yul\":23611:23626   */\n      revert\n        /* \"#utility.yul\":23638:23818   */\n    tag_543:\n        /* \"#utility.yul\":23686:23763   */\n      0x4e487b7100000000000000000000000000000000000000000000000000000000\n        /* \"#utility.yul\":23683:23684   */\n      0x00\n        /* \"#utility.yul\":23676:23764   */\n      mstore\n        /* \"#utility.yul\":23783:23787   */\n      0x12\n        /* \"#utility.yul\":23780:23781   */\n      0x04\n        /* \"#utility.yul\":23773:23788   */\n      mstore\n        /* \"#utility.yul\":23807:23811   */\n      0x24\n        /* \"#utility.yul\":23804:23805   */\n      0x00\n        /* \"#utility.yul\":23797:23812   */\n      revert\n        /* \"#utility.yul\":23824:24004   */\n    tag_570:\n        /* \"#utility.yul\":23872:23949   */\n      0x4e487b7100000000000000000000000000000000000000000000000000000000\n        /* \"#utility.yul\":23869:23870   */\n      0x00\n        /* \"#utility.yul\":23862:23950   */\n      mstore\n        /* \"#utility.yul\":23969:23973   */\n      0x22\n        /* \"#utility.yul\":23966:23967   */\n      0x04\n        /* \"#utility.yul\":23959:23974   */\n      mstore\n        /* \"#utility.yul\":23993:23997   */\n      0x24\n        /* \"#utility.yul\":23990:23991   */\n      0x00\n        /* \"#utility.yul\":23983:23998   */\n      revert\n        /* \"#utility.yul\":24010:24190   */\n    tag_183:\n        /* \"#utility.yul\":24058:24135   */\n      0x4e487b7100000000000000000000000000000000000000000000000000000000\n        /* \"#utility.yul\":24055:24056   */\n      0x00\n        /* \"#utility.yul\":24048:24136   */\n      mstore\n        /* \"#utility.yul\":24155:24159   */\n      0x32\n        /* \"#utility.yul\":24152:24153   */\n      0x04\n        /* \"#utility.yul\":24145:24160   */\n      mstore\n        /* \"#utility.yul\":24179:24183   */\n      0x24\n        /* \"#utility.yul\":24176:24177   */\n      0x00\n        /* \"#utility.yul\":24169:24184   */\n      revert\n        /* \"#utility.yul\":24319:24436   */\n    tag_324:\n        /* \"#utility.yul\":24428:24429   */\n      0x00\n        /* \"#utility.yul\":24425:24426   */\n      dup1\n        /* \"#utility.yul\":24418:24430   */\n      revert\n        /* \"#utility.yul\":24442:24544   */\n    tag_389:\n        /* \"#utility.yul\":24483:24489   */\n      0x00\n        /* \"#utility.yul\":24534:24536   */\n      0x1f\n        /* \"#utility.yul\":24530:24537   */\n      not\n        /* \"#utility.yul\":24525:24527   */\n      0x1f\n        /* \"#utility.yul\":24518:24523   */\n      dup4\n        /* \"#utility.yul\":24514:24528   */\n      add\n        /* \"#utility.yul\":24510:24538   */\n      and\n        /* \"#utility.yul\":24500:24538   */\n      swap1\n      pop\n        /* \"#utility.yul\":24442:24544   */\n      swap2\n      swap1\n      pop\n      jump\t// out\n        /* \"#utility.yul\":24550:24773   */\n    tag_394:\n        /* \"#utility.yul\":24690:24724   */\n      0x4d657472613a2063616e6e6f74206275726e2066726f6d207a65726f20616464\n        /* \"#utility.yul\":24686:24687   */\n      0x00\n        /* \"#utility.yul\":24678:24684   */\n      dup3\n        /* \"#utility.yul\":24674:24688   */\n      add\n        /* \"#utility.yul\":24667:24725   */\n      mstore\n        /* \"#utility.yul\":24759:24765   */\n      0x7265737300000000000000000000000000000000000000000000000000000000\n        /* \"#utility.yul\":24754:24756   */\n      0x20\n        /* \"#utility.yul\":24746:24752   */\n      dup3\n        /* \"#utility.yul\":24742:24757   */\n      add\n        /* \"#utility.yul\":24735:24766   */\n      mstore\n        /* \"#utility.yul\":24550:24773   */\n      pop\n      jump\t// out\n        /* \"#utility.yul\":24779:25011   */\n    tag_399:\n        /* \"#utility.yul\":24919:24953   */\n      0x4d657472613a2043616e6e6f74206275726e206d6f7265207468616e20746865\n        /* \"#utility.yul\":24915:24916   */\n      0x00\n        /* \"#utility.yul\":24907:24913   */\n      dup3\n        /* \"#utility.yul\":24903:24917   */\n      add\n        /* \"#utility.yul\":24896:24954   */\n      mstore\n        /* \"#utility.yul\":24988:25003   */\n      0x206163636f756e74206f776e7300000000000000000000000000000000000000\n        /* \"#utility.yul\":24983:24985   */\n      0x20\n        /* \"#utility.yul\":24975:24981   */\n      dup3\n        /* \"#utility.yul\":24971:24986   */\n      add\n        /* \"#utility.yul\":24964:25004   */\n      mstore\n        /* \"#utility.yul\":24779:25011   */\n      pop\n      jump\t// out\n        /* \"#utility.yul\":25017:25246   */\n    tag_404:\n        /* \"#utility.yul\":25157:25191   */\n      0x4f776e61626c653a206f6e6c79206f776e65722063616e2063616c6c20746869\n        /* \"#utility.yul\":25153:25154   */\n      0x00\n        /* \"#utility.yul\":25145:25151   */\n      dup3\n        /* \"#utility.yul\":25141:25155   */\n      add\n        /* \"#utility.yul\":25134:25192   */\n      mstore\n        /* \"#utility.yul\":25226:25238   */\n      0x732066756e6374696f6e00000000000000000000000000000000000000000000\n        /* \"#utility.yul\":25221:25223   */\n      0x20\n        /* \"#utility.yul\":25213:25219   */\n      dup3\n        /* \"#utility.yul\":25209:25224   */\n      add\n        /* \"#utility.yul\":25202:25239   */\n      mstore\n        /* \"#utility.yul\":25017:25246   */\n      pop\n      jump\t// out\n        /* \"#utility.yul\":25252:25477   */\n    tag_409:\n        /* \"#utility.yul\":25392:25426   */\n      0x4f776e61626c653a206e6577206f776e657220697320746865207a65726f2061\n        /* \"#utility.yul\":25388:25389   */\n      0x00\n        /* \"#utility.yul\":25380:25386   */\n      dup3\n        /* \"#utility.yul\":25376:25390   */\n      add\n        /* \"#utility.yul\":25369:25427   */\n      mstore\n        /* \"#utility.yul\":25461:25469   */\n      0x6464726573730000000000000000000000000000000000000000000000000000\n        /* \"#utility.yul\":25456:25458   */\n      0x20\n        /* \"#utility.yul\":25448:25454   */\n      dup3\n        /* \"#utility.yul\":25444:25459   */\n      add\n        /* \"#utility.yul\":25437:25470   */\n      mstore\n        /* \"#utility.yul\":25252:25477   */\n      pop\n      jump\t// out\n        /* \"#utility.yul\":25483:25717   */\n    tag_414:\n        /* \"#utility.yul\":25623:25657   */\n      0x4d657472613a20617070726f76652063616e6e6f7420626520646f6e65206672\n        /* \"#utility.yul\":25619:25620   */\n      0x00\n        /* \"#utility.yul\":25611:25617   */\n      dup3\n        /* \"#utility.yul\":25607:25621   */\n      add\n        /* \"#utility.yul\":25600:25658   */\n      mstore\n        /* \"#utility.yul\":25692:25709   */\n      0x6f6d207a65726f20616464726573730000000000000000000000000000000000\n        /* \"#utility.yul\":25687:25689   */\n      0x20\n        /* \"#utility.yul\":25679:25685   */\n      dup3\n        /* \"#utility.yul\":25675:25690   */\n      add\n        /* \"#utility.yul\":25668:25710   */\n      mstore\n        /* \"#utility.yul\":25483:25717   */\n      pop\n      jump\t// out\n        /* \"#utility.yul\":25723:25959   */\n    tag_419:\n        /* \"#utility.yul\":25863:25897   */\n      0x4d657472613a20596f752063616e6e6f74207370656e642074686174206d7563\n        /* \"#utility.yul\":25859:25860   */\n      0x00\n        /* \"#utility.yul\":25851:25857   */\n      dup3\n        /* \"#utility.yul\":25847:25861   */\n      add\n        /* \"#utility.yul\":25840:25898   */\n      mstore\n        /* \"#utility.yul\":25932:25951   */\n      0x68206f6e2074686973206163636f756e74000000000000000000000000000000\n        /* \"#utility.yul\":25927:25929   */\n      0x20\n        /* \"#utility.yul\":25919:25925   */\n      dup3\n        /* \"#utility.yul\":25915:25930   */\n      add\n        /* \"#utility.yul\":25908:25952   */\n      mstore\n        /* \"#utility.yul\":25723:25959   */\n      pop\n      jump\t// out\n        /* \"#utility.yul\":25965:26186   */\n    tag_424:\n        /* \"#utility.yul\":26105:26139   */\n      0x4d657472613a2063616e6e6f74206d696e7420746f207a65726f206164647265\n        /* \"#utility.yul\":26101:26102   */\n      0x00\n        /* \"#utility.yul\":26093:26099   */\n      dup3\n        /* \"#utility.yul\":26089:26103   */\n      add\n        /* \"#utility.yul\":26082:26140   */\n      mstore\n        /* \"#utility.yul\":26174:26178   */\n      0x7373000000000000000000000000000000000000000000000000000000000000\n        /* \"#utility.yul\":26169:26171   */\n      0x20\n        /* \"#utility.yul\":26161:26167   */\n      dup3\n        /* \"#utility.yul\":26157:26172   */\n      add\n        /* \"#utility.yul\":26150:26179   */\n      mstore\n        /* \"#utility.yul\":25965:26186   */\n      pop\n      jump\t// out\n        /* \"#utility.yul\":26192:26416   */\n    tag_429:\n        /* \"#utility.yul\":26332:26366   */\n      0x4d657472613a2043616e6e6f74207374616b65206d6f7265207468616e20796f\n        /* \"#utility.yul\":26328:26329   */\n      0x00\n        /* \"#utility.yul\":26320:26326   */\n      dup3\n        /* \"#utility.yul\":26316:26330   */\n      add\n        /* \"#utility.yul\":26309:26367   */\n      mstore\n        /* \"#utility.yul\":26401:26408   */\n      0x75206f776e000000000000000000000000000000000000000000000000000000\n        /* \"#utility.yul\":26396:26398   */\n      0x20\n        /* \"#utility.yul\":26388:26394   */\n      dup3\n        /* \"#utility.yul\":26384:26399   */\n      add\n        /* \"#utility.yul\":26377:26409   */\n      mstore\n        /* \"#utility.yul\":26192:26416   */\n      pop\n      jump\t// out\n        /* \"#utility.yul\":26422:26642   */\n    tag_434:\n        /* \"#utility.yul\":26562:26596   */\n      0x4d657472613a207472616e736665722066726f6d207a65726f20616464726573\n        /* \"#utility.yul\":26558:26559   */\n      0x00\n        /* \"#utility.yul\":26550:26556   */\n      dup3\n        /* \"#utility.yul\":26546:26560   */\n      add\n        /* \"#utility.yul\":26539:26597   */\n      mstore\n        /* \"#utility.yul\":26631:26634   */\n      0x7300000000000000000000000000000000000000000000000000000000000000\n        /* \"#utility.yul\":26626:26628   */\n      0x20\n        /* \"#utility.yul\":26618:26624   */\n      dup3\n        /* \"#utility.yul\":26614:26629   */\n      add\n        /* \"#utility.yul\":26607:26635   */\n      mstore\n        /* \"#utility.yul\":26422:26642   */\n      pop\n      jump\t// out\n        /* \"#utility.yul\":26648:26829   */\n    tag_439:\n        /* \"#utility.yul\":26788:26821   */\n      0x4d657472613a207472616e7366657220746f207a65726f206164647265737300\n        /* \"#utility.yul\":26784:26785   */\n      0x00\n        /* \"#utility.yul\":26776:26782   */\n      dup3\n        /* \"#utility.yul\":26772:26786   */\n      add\n        /* \"#utility.yul\":26765:26822   */\n      mstore\n        /* \"#utility.yul\":26648:26829   */\n      pop\n      jump\t// out\n        /* \"#utility.yul\":26835:27062   */\n    tag_444:\n        /* \"#utility.yul\":26975:27009   */\n      0x4d657472613a20617070726f76652063616e6e6f7420626520746f207a65726f\n        /* \"#utility.yul\":26971:26972   */\n      0x00\n        /* \"#utility.yul\":26963:26969   */\n      dup3\n        /* \"#utility.yul\":26959:26973   */\n      add\n        /* \"#utility.yul\":26952:27010   */\n      mstore\n        /* \"#utility.yul\":27044:27054   */\n      0x2061646472657373000000000000000000000000000000000000000000000000\n        /* \"#utility.yul\":27039:27041   */\n      0x20\n        /* \"#utility.yul\":27031:27037   */\n      dup3\n        /* \"#utility.yul\":27027:27042   */\n      add\n        /* \"#utility.yul\":27020:27055   */\n      mstore\n        /* \"#utility.yul\":26835:27062   */\n      pop\n      jump\t// out\n        /* \"#utility.yul\":27068:27238   */\n    tag_449:\n        /* \"#utility.yul\":27208:27230   */\n      0x43616e6e6f74207374616b65206e6f7468696e67000000000000000000000000\n        /* \"#utility.yul\":27204:27205   */\n      0x00\n        /* \"#utility.yul\":27196:27202   */\n      dup3\n        /* \"#utility.yul\":27192:27206   */\n      add\n        /* \"#utility.yul\":27185:27231   */\n      mstore\n        /* \"#utility.yul\":27068:27238   */\n      pop\n      jump\t// out\n        /* \"#utility.yul\":27244:27481   */\n    tag_454:\n        /* \"#utility.yul\":27384:27418   */\n      0x5374616b696e673a2043616e6e6f74207769746864726177206d6f7265207468\n        /* \"#utility.yul\":27380:27381   */\n      0x00\n        /* \"#utility.yul\":27372:27378   */\n      dup3\n        /* \"#utility.yul\":27368:27382   */\n      add\n        /* \"#utility.yul\":27361:27419   */\n      mstore\n        /* \"#utility.yul\":27453:27473   */\n      0x616e20796f752068617665207374616b65640000000000000000000000000000\n        /* \"#utility.yul\":27448:27450   */\n      0x20\n        /* \"#utility.yul\":27440:27446   */\n      dup3\n        /* \"#utility.yul\":27436:27451   */\n      add\n        /* \"#utility.yul\":27429:27474   */\n      mstore\n        /* \"#utility.yul\":27244:27481   */\n      pop\n      jump\t// out\n        /* \"#utility.yul\":27487:27723   */\n    tag_459:\n        /* \"#utility.yul\":27627:27661   */\n      0x4d657472613a2063616e74207472616e73666572206d6f7265207468616e2079\n        /* \"#utility.yul\":27623:27624   */\n      0x00\n        /* \"#utility.yul\":27615:27621   */\n      dup3\n        /* \"#utility.yul\":27611:27625   */\n      add\n        /* \"#utility.yul\":27604:27662   */\n      mstore\n        /* \"#utility.yul\":27696:27715   */\n      0x6f7572206163636f756e7420686f6c6473000000000000000000000000000000\n        /* \"#utility.yul\":27691:27693   */\n      0x20\n        /* \"#utility.yul\":27683:27689   */\n      dup3\n        /* \"#utility.yul\":27679:27694   */\n      add\n        /* \"#utility.yul\":27672:27716   */\n      mstore\n        /* \"#utility.yul\":27487:27723   */\n      pop\n      jump\t// out\n        /* \"#utility.yul\":27729:27851   */\n    tag_316:\n        /* \"#utility.yul\":27802:27826   */\n      tag_594\n        /* \"#utility.yul\":27820:27825   */\n      dup2\n        /* \"#utility.yul\":27802:27826   */\n      tag_358\n      jump\t// in\n    tag_594:\n        /* \"#utility.yul\":27795:27800   */\n      dup2\n        /* \"#utility.yul\":27792:27827   */\n      eq\n        /* \"#utility.yul\":27782:27845   */\n      tag_595\n      jumpi\n        /* \"#utility.yul\":27841:27842   */\n      0x00\n        /* \"#utility.yul\":27838:27839   */\n      dup1\n        /* \"#utility.yul\":27831:27843   */\n      revert\n        /* \"#utility.yul\":27782:27845   */\n    tag_595:\n        /* \"#utility.yul\":27729:27851   */\n      pop\n      jump\t// out\n        /* \"#utility.yul\":27857:27979   */\n    tag_320:\n        /* \"#utility.yul\":27930:27954   */\n      tag_597\n        /* \"#utility.yul\":27948:27953   */\n      dup2\n        /* \"#utility.yul\":27930:27954   */\n      tag_472\n      jump\t// in\n    tag_597:\n        /* \"#utility.yul\":27923:27928   */\n      dup2\n        /* \"#utility.yul\":27920:27955   */\n      eq\n        /* \"#utility.yul\":27910:27973   */\n      tag_598\n      jumpi\n        /* \"#utility.yul\":27969:27970   */\n      0x00\n        /* \"#utility.yul\":27966:27967   */\n      dup1\n        /* \"#utility.yul\":27959:27971   */\n      revert\n        /* \"#utility.yul\":27910:27973   */\n    tag_598:\n        /* \"#utility.yul\":27857:27979   */\n      pop\n      jump\t// out\n\n    auxdata: 0xa26469706673582212200b6f4aea8372c6c7a2aac9a9baf6ba7bae79ca245d34a1219d1e9901f1aff77f64736f6c63430008070033\n}\n",
				"bytecode": {
					"linkReferences": {},
					"object": "60806040526305f5e1006003553480156200001957600080fd5b50604051620033bc380380620033bc83398181016040528101906200003f9190620003c7565b336000806101000a81548173ffffffffffffffffffffffffffffffffffffffff021916908373ffffffffffffffffffffffffffffffffffffffff16021790555060008054906101000a900473ffffffffffffffffffffffffffffffffffffffff1673ffffffffffffffffffffffffffffffffffffffff16600073ffffffffffffffffffffffffffffffffffffffff167f8be0079c531659141344cd1fd0a4f28419497f9722a3daafe3b4186f6b6457e060405160405180910390a360018081600181540180825580915050039060005260206000209050506040518060400160405280600b81526020017f4d6574726120546f6b656e000000000000000000000000000000000000000000815250600790805190602001906200016492919062000299565b506040518060400160405280600581526020017f4d4554524100000000000000000000000000000000000000000000000000000081525060069080519060200190620001b292919062000299565b506012600560006101000a81548160ff021916908360ff1602179055506b204fce5e3e25026110000000600481905550600454600860003373ffffffffffffffffffffffffffffffffffffffff1673ffffffffffffffffffffffffffffffffffffffff168152602001908152602001600020819055503373ffffffffffffffffffffffffffffffffffffffff16600073ffffffffffffffffffffffffffffffffffffffff167fddf252ad1be2c89b69c2b068fc378daa952ba7f163c4a11628f55a4df523b3ef6004546040516200028a919062000429565b60405180910390a350620005d4565b828054620002a790620004e5565b90600052602060002090601f016020900481019282620002cb576000855562000317565b82601f10620002e657805160ff191683800117855562000317565b8280016001018555821562000317579182015b8281111562000316578251825591602001919060010190620002f9565b5b5090506200032691906200032a565b5090565b5b80821115620003455760008160009055506001016200032b565b5090565b6000620003606200035a846200046f565b62000446565b9050828152602081018484840111156200037f576200037e620005b4565b5b6200038c848285620004af565b509392505050565b600082601f830112620003ac57620003ab620005af565b5b8151620003be84826020860162000349565b91505092915050565b600060208284031215620003e057620003df620005be565b5b600082015167ffffffffffffffff811115620004015762000400620005b9565b5b6200040f8482850162000394565b91505092915050565b6200042381620004a5565b82525050565b600060208201905062000440600083018462000418565b92915050565b60006200045262000465565b90506200046082826200051b565b919050565b6000604051905090565b600067ffffffffffffffff8211156200048d576200048c62000580565b5b6200049882620005c3565b9050602081019050919050565b6000819050919050565b60005b83811015620004cf578082015181840152602081019050620004b2565b83811115620004df576000848401525b50505050565b60006002820490506001821680620004fe57607f821691505b6020821081141562000515576200051462000551565b5b50919050565b6200052682620005c3565b810181811067ffffffffffffffff8211171562000548576200054762000580565b5b80604052505050565b7f4e487b7100000000000000000000000000000000000000000000000000000000600052602260045260246000fd5b7f4e487b7100000000000000000000000000000000000000000000000000000000600052604160045260246000fd5b600080fd5b600080fd5b600080fd5b600080fd5b6000601f19601f8301169050919050565b612dd880620005e46000396000f3fe608060405234801561001057600080fd5b50600436106101375760003560e01c8063893d20e8116100b8578063a694fc3a1161007c578063a694fc3a14610366578063a9059cbb14610382578063dd62ed3e146103b2578063e73e14bf146103e2578063f1fdf46914610412578063f2fde38b1461042e57610137565b8063893d20e8146102ac5780638da5cb5b146102ca57806395d89b41146102e85780639dc29fac14610306578063a457c2d71461033657610137565b806339509351116100ff57806339509351146101f657806340c10f1914610226578063523a3f081461025657806370a0823114610272578063715018a6146102a257610137565b806306fdde031461013c578063095ea7b31461015a57806318160ddd1461018a57806323b872dd146101a8578063313ce567146101d8575b600080fd5b61014461044a565b6040516101519190612407565b60405180910390f35b610174600480360381019061016f9190611f9f565b6104dc565b60405161018191906123ec565b60405180910390f35b6101926104f3565b60405161019f919061260b565b60405180910390f35b6101c260048036038101906101bd9190611f4c565b6104fd565b6040516101cf91906123ec565b60405180910390f35b6101e0610666565b6040516101ed919061265d565b60405180910390f35b610210600480360381019061020b9190611f9f565b61067d565b60405161021d91906123ec565b60405180910390f35b610240600480360381019061023b9190611f9f565b61071b565b60405161024d91906123ec565b60405180910390f35b610270600480360381019061026b9190611fdf565b6107bf565b005b61028c60048036038101906102879190611edf565b6107d2565b604051610299919061260b565b60405180910390f35b6102aa61081b565b005b6102b4610967565b6040516102c191906123d1565b60405180910390f35b6102d2610976565b6040516102df91906123d1565b60405180910390f35b6102f061099f565b6040516102fd9190612407565b60405180910390f35b610320600480360381019061031b9190611f9f565b610a31565b60405161032d91906123ec565b60405180910390f35b610350600480360381019061034b9190611f9f565b610ad5565b60405161035d91906123ec565b60405180910390f35b610380600480360381019061037b9190611fdf565b610b73565b005b61039c60048036038101906103979190611f9f565b610c0a565b6040516103a991906123ec565b60405180910390f35b6103cc60048036038101906103c79190611f0c565b610c21565b6040516103d9919061260b565b60405180910390f35b6103fc60048036038101906103f79190611edf565b610ca8565b60405161040991906125e9565b60405180910390f35b61042c6004803603810190610427919061200c565b610eb5565b005b61044860048036038101906104439190611edf565b610ed2565b005b6060600780546104599061286a565b80601f01602080910402602001604051908101604052809291908181526020018280546104859061286a565b80156104d25780601f106104a7576101008083540402835291602001916104d2565b820191906000526020600020905b8154815290600101906020018083116104b557829003601f168201915b5050505050905090565b60006104e9338484610f6c565b6001905092915050565b6000600454905090565b600081600960008673ffffffffffffffffffffffffffffffffffffffff1673ffffffffffffffffffffffffffffffffffffffff16815260200190815260200160002060003373ffffffffffffffffffffffffffffffffffffffff1673ffffffffffffffffffffffffffffffffffffffff1681526020019081526020016000205410156105be576040517f08c379a00000000000000000000000000000000000000000000000000000000081526004016105b5906124c9565b60405180910390fd5b6105c9848484611137565b61065b843384600960008973ffffffffffffffffffffffffffffffffffffffff1673ffffffffffffffffffffffffffffffffffffffff16815260200190815260200160002060003373ffffffffffffffffffffffffffffffffffffffff1673ffffffffffffffffffffffffffffffffffffffff1681526020019081526020016000205461065691906127ae565b610f6c565b600190509392505050565b6000600560009054906101000a900460ff16905090565b6000610711338484600960003373ffffffffffffffffffffffffffffffffffffffff1673ffffffffffffffffffffffffffffffffffffffff16815260200190815260200160002060008873ffffffffffffffffffffffffffffffffffffffff1673ffffffffffffffffffffffffffffffffffffffff1681526020019081526020016000205461070c91906126cd565b610f6c565b6001905092915050565b60003373ffffffffffffffffffffffffffffffffffffffff1660008054906101000a900473ffffffffffffffffffffffffffffffffffffffff1673ffffffffffffffffffffffffffffffffffffffff16146107ab576040517f08c379a00000000000000000000000000000000000000000000000000000000081526004016107a290612469565b60405180910390fd5b6107b5838361141f565b6001905092915050565b60008190506107ce338261141f565b5050565b6000600860008373ffffffffffffffffffffffffffffffffffffffff1673ffffffffffffffffffffffffffffffffffffffff168152602001908152602001600020549050919050565b3373ffffffffffffffffffffffffffffffffffffffff1660008054906101000a900473ffffffffffffffffffffffffffffffffffffffff1673ffffffffffffffffffffffffffffffffffffffff16146108a9576040517f08c379a00000000000000000000000000000000000000000000000000000000081526004016108a090612469565b60405180910390fd5b600073ffffffffffffffffffffffffffffffffffffffff1660008054906101000a900473ffffffffffffffffffffffffffffffffffffffff1673ffffffffffffffffffffffffffffffffffffffff167f8be0079c531659141344cd1fd0a4f28419497f9722a3daafe3b4186f6b6457e060405160405180910390a360008060006101000a81548173ffffffffffffffffffffffffffffffffffffffff021916908373ffffffffffffffffffffffffffffffffffffffff160217905550565b6000610971610976565b905090565b60008060009054906101000a900473ffffffffffffffffffffffffffffffffffffffff16905090565b6060600680546109ae9061286a565b80601f01602080910402602001604051908101604052809291908181526020018280546109da9061286a565b8015610a275780601f106109fc57610100808354040283529160200191610a27565b820191906000526020600020905b815481529060010190602001808311610a0a57829003601f168201915b5050505050905090565b60003373ffffffffffffffffffffffffffffffffffffffff1660008054906101000a900473ffffffffffffffffffffffffffffffffffffffff1673ffffffffffffffffffffffffffffffffffffffff1614610ac1576040517f08c379a0000000000000000000000000000000000000000000000000000000008152600401610ab890612469565b60405180910390fd5b610acb838361159b565b6001905092915050565b6000610b69338484600960003373ffffffffffffffffffffffffffffffffffffffff1673ffffffffffffffffffffffffffffffffffffffff16815260200190815260200160002060008873ffffffffffffffffffffffffffffffffffffffff1673ffffffffffffffffffffffffffffffffffffffff16815260200190815260200160002054610b6491906127ae565b610f6c565b6001905092915050565b600860003373ffffffffffffffffffffffffffffffffffffffff1673ffffffffffffffffffffffffffffffffffffffff168152602001908152602001600020548110610bf4576040517f08c379a0000000000000000000000000000000000000000000000000000000008152600401610beb90612509565b60405180910390fd5b610bfd81611799565b610c07338261159b565b50565b6000610c17338484611137565b6001905092915050565b6000600960008473ffffffffffffffffffffffffffffffffffffffff1673ffffffffffffffffffffffffffffffffffffffff16815260200190815260200160002060008373ffffffffffffffffffffffffffffffffffffffff1673ffffffffffffffffffffffffffffffffffffffff16815260200190815260200160002054905092915050565b610cb0611e9b565b6000806040518060400160405280600081526020016001600260008873ffffffffffffffffffffffffffffffffffffffff1673ffffffffffffffffffffffffffffffffffffffff1681526020019081526020016000205481548110610d1857610d17612929565b5b9060005260206000209060020201600101805480602002602001604051908101604052809291908181526020016000905b82821015610def57838290600052602060002090600402016040518060800160405290816000820160009054906101000a900473ffffffffffffffffffffffffffffffffffffffff1673ffffffffffffffffffffffffffffffffffffffff1673ffffffffffffffffffffffffffffffffffffffff168152602001600182015481526020016002820154815260200160038201548152505081526020019060010190610d49565b50505050815250905060005b816020015151811015610ea0576000610e3183602001518381518110610e2457610e23612929565b5b602002602001015161197e565b90508083602001518381518110610e4b57610e4a612929565b5b6020026020010151606001818152505082602001518281518110610e7257610e71612929565b5b60200260200101516020015184610e8991906126cd565b935050600181610e9991906126cd565b9050610dfb565b50818160000181815250508092505050919050565b6000610ec183836119c0565b9050610ecd338261141f565b505050565b3373ffffffffffffffffffffffffffffffffffffffff1660008054906101000a900473ffffffffffffffffffffffffffffffffffffffff1673ffffffffffffffffffffffffffffffffffffffff1614610f60576040517f08c379a0000000000000000000000000000000000000000000000000000000008152600401610f5790612469565b60405180910390fd5b610f6981611c89565b50565b600073ffffffffffffffffffffffffffffffffffffffff168373ffffffffffffffffffffffffffffffffffffffff161415610fdc576040517f08c379a0000000000000000000000000000000000000000000000000000000008152600401610fd3906124a9565b60405180910390fd5b600073ffffffffffffffffffffffffffffffffffffffff168273ffffffffffffffffffffffffffffffffffffffff16141561104c576040517f08c379a000000000000000000000000000000000000000000000000000000000815260040161104390612569565b60405180910390fd5b80600960008573ffffffffffffffffffffffffffffffffffffffff1673ffffffffffffffffffffffffffffffffffffffff16815260200190815260200160002060008473ffffffffffffffffffffffffffffffffffffffff1673ffffffffffffffffffffffffffffffffffffffff168152602001908152602001600020819055508173ffffffffffffffffffffffffffffffffffffffff168373ffffffffffffffffffffffffffffffffffffffff167f8c5be1e5ebec7d5bd14f71427d1e84f3dd0314c0f7b2291e5b200ac8c7c3b9258360405161112a919061260b565b60405180910390a3505050565b600073ffffffffffffffffffffffffffffffffffffffff168373ffffffffffffffffffffffffffffffffffffffff1614156111a7576040517f08c379a000000000000000000000000000000000000000000000000000000000815260040161119e90612529565b60405180910390fd5b600073ffffffffffffffffffffffffffffffffffffffff168273ffffffffffffffffffffffffffffffffffffffff161415611217576040517f08c379a000000000000000000000000000000000000000000000000000000000815260040161120e90612549565b60405180910390fd5b80600860008573ffffffffffffffffffffffffffffffffffffffff1673ffffffffffffffffffffffffffffffffffffffff168152602001908152602001600020541015611299576040517f08c379a0000000000000000000000000000000000000000000000000000000008152600401611290906125c9565b60405180910390fd5b80600860008573ffffffffffffffffffffffffffffffffffffffff1673ffffffffffffffffffffffffffffffffffffffff168152602001908152602001600020546112e491906127ae565b600860008573ffffffffffffffffffffffffffffffffffffffff1673ffffffffffffffffffffffffffffffffffffffff1681526020019081526020016000208190555080600860008473ffffffffffffffffffffffffffffffffffffffff1673ffffffffffffffffffffffffffffffffffffffff1681526020019081526020016000205461137291906126cd565b600860008473ffffffffffffffffffffffffffffffffffffffff1673ffffffffffffffffffffffffffffffffffffffff168152602001908152602001600020819055508173ffffffffffffffffffffffffffffffffffffffff168373ffffffffffffffffffffffffffffffffffffffff167fddf252ad1be2c89b69c2b068fc378daa952ba7f163c4a11628f55a4df523b3ef83604051611412919061260b565b60405180910390a3505050565b600073ffffffffffffffffffffffffffffffffffffffff168273ffffffffffffffffffffffffffffffffffffffff16141561148f576040517f08c379a0000000000000000000000000000000000000000000000000000000008152600401611486906124e9565b60405180910390fd5b8060045461149d91906126cd565b60048190555080600860008473ffffffffffffffffffffffffffffffffffffffff1673ffffffffffffffffffffffffffffffffffffffff168152602001908152602001600020546114ee91906126cd565b600860008473ffffffffffffffffffffffffffffffffffffffff1673ffffffffffffffffffffffffffffffffffffffff168152602001908152602001600020819055508173ffffffffffffffffffffffffffffffffffffffff16600073ffffffffffffffffffffffffffffffffffffffff167fddf252ad1be2c89b69c2b068fc378daa952ba7f163c4a11628f55a4df523b3ef8360405161158f919061260b565b60405180910390a35050565b600073ffffffffffffffffffffffffffffffffffffffff168273ffffffffffffffffffffffffffffffffffffffff16141561160b576040517f08c379a000000000000000000000000000000000000000000000000000000000815260040161160290612429565b60405180910390fd5b80600860008473ffffffffffffffffffffffffffffffffffffffff1673ffffffffffffffffffffffffffffffffffffffff16815260200190815260200160002054101561168d576040517f08c379a000000000000000000000000000000000000000000000000000000000815260040161168490612449565b60405180910390fd5b80600860008473ffffffffffffffffffffffffffffffffffffffff1673ffffffffffffffffffffffffffffffffffffffff168152602001908152602001600020546116d891906127ae565b600860008473ffffffffffffffffffffffffffffffffffffffff1673ffffffffffffffffffffffffffffffffffffffff168152602001908152602001600020819055508060045461172991906127ae565b600481905550600073ffffffffffffffffffffffffffffffffffffffff168273ffffffffffffffffffffffffffffffffffffffff167fddf252ad1be2c89b69c2b068fc378daa952ba7f163c4a11628f55a4df523b3ef8360405161178d919061260b565b60405180910390a35050565b600081116117dc576040517f08c379a00000000000000000000000000000000000000000000000000000000081526004016117d390612589565b60405180910390fd5b6000600260003373ffffffffffffffffffffffffffffffffffffffff1673ffffffffffffffffffffffffffffffffffffffff1681526020019081526020016000205490506000429050600082141561183a5761183733611db6565b91505b6001828154811061184e5761184d612929565b5b906000526020600020906002020160010160405180608001604052803373ffffffffffffffffffffffffffffffffffffffff1681526020018581526020018381526020016000815250908060018154018082558091505060019003906000526020600020906004020160009091909190915060008201518160000160006101000a81548173ffffffffffffffffffffffffffffffffffffffff021916908373ffffffffffffffffffffffffffffffffffffffff16021790555060208201518160010155604082015181600201556060820151816003015550503373ffffffffffffffffffffffffffffffffffffffff167fb4caaf29adda3eefee3ad552a8e85058589bf834c7466cae4ee58787f70589ed84848460405161197193929190612626565b60405180910390a2505050565b60006003548260200151610e1084604001514261199b91906127ae565b6119a59190612723565b6119af9190612754565b6119b99190612723565b9050919050565b600080600260003373ffffffffffffffffffffffffffffffffffffffff1673ffffffffffffffffffffffffffffffffffffffff168152602001908152602001600020549050600060018281548110611a1b57611a1a612929565b5b90600052602060002090600202016001018481548110611a3e57611a3d612929565b5b90600052602060002090600402016040518060800160405290816000820160009054906101000a900473ffffffffffffffffffffffffffffffffffffffff1673ffffffffffffffffffffffffffffffffffffffff1673ffffffffffffffffffffffffffffffffffffffff168152602001600182015481526020016002820154815260200160038201548152505090508481602001511015611b14576040517f08c379a0000000000000000000000000000000000000000000000000000000008152600401611b0b906125a9565b60405180910390fd5b6000611b1f8261197e565b9050858260200151611b3191906127ae565b826020018181525050600082602001511415611bd35760018381548110611b5b57611b5a612929565b5b90600052602060002090600202016001018581548110611b7e57611b7d612929565b5b9060005260206000209060040201600080820160006101000a81549073ffffffffffffffffffffffffffffffffffffffff02191690556001820160009055600282016000905560038201600090555050611c72565b816020015160018481548110611bec57611beb612929565b5b90600052602060002090600202016001018681548110611c0f57611c0e612929565b5b9060005260206000209060040201600101819055504260018481548110611c3957611c38612929565b5b90600052602060002090600202016001018681548110611c5c57611c5b612929565b5b9060005260206000209060040201600201819055505b8086611c7e91906126cd565b935050505092915050565b600073ffffffffffffffffffffffffffffffffffffffff168173ffffffffffffffffffffffffffffffffffffffff161415611cf9576040517f08c379a0000000000000000000000000000000000000000000000000000000008152600401611cf090612489565b60405180910390fd5b8073ffffffffffffffffffffffffffffffffffffffff1660008054906101000a900473ffffffffffffffffffffffffffffffffffffffff1673ffffffffffffffffffffffffffffffffffffffff167f8be0079c531659141344cd1fd0a4f28419497f9722a3daafe3b4186f6b6457e060405160405180910390a3806000806101000a81548173ffffffffffffffffffffffffffffffffffffffff021916908373ffffffffffffffffffffffffffffffffffffffff16021790555050565b60006001808160018154018082558091505003906000526020600020905050600060018080549050611de891906127ae565b90508260018281548110611dff57611dfe612929565b5b906000526020600020906002020160000160006101000a81548173ffffffffffffffffffffffffffffffffffffffff021916908373ffffffffffffffffffffffffffffffffffffffff16021790555080600260008573ffffffffffffffffffffffffffffffffffffffff1673ffffffffffffffffffffffffffffffffffffffff1681526020019081526020016000208190555080915050919050565b604051806040016040528060008152602001606081525090565b600081359050611ec481612d74565b92915050565b600081359050611ed981612d8b565b92915050565b600060208284031215611ef557611ef4612958565b5b6000611f0384828501611eb5565b91505092915050565b60008060408385031215611f2357611f22612958565b5b6000611f3185828601611eb5565b9250506020611f4285828601611eb5565b9150509250929050565b600080600060608486031215611f6557611f64612958565b5b6000611f7386828701611eb5565b9350506020611f8486828701611eb5565b9250506040611f9586828701611eca565b9150509250925092565b60008060408385031215611fb657611fb5612958565b5b6000611fc485828601611eb5565b9250506020611fd585828601611eca565b9150509250929050565b600060208284031215611ff557611ff4612958565b5b600061200384828501611eca565b91505092915050565b6000806040838503121561202357612022612958565b5b600061203185828601611eca565b925050602061204285828601611eca565b9150509250929050565b60006120588383612312565b60808301905092915050565b61206d816127e2565b82525050565b61207c816127e2565b82525050565b600061208d82612688565b61209781856126ab565b93506120a283612678565b8060005b838110156120d35781516120ba888261204c565b97506120c58361269e565b9250506001810190506120a6565b5085935050505092915050565b6120e9816127f4565b82525050565b60006120fa82612693565b61210481856126bc565b9350612114818560208601612837565b61211d8161295d565b840191505092915050565b60006121356024836126bc565b91506121408261296e565b604082019050919050565b6000612158602d836126bc565b9150612163826129bd565b604082019050919050565b600061217b602a836126bc565b915061218682612a0c565b604082019050919050565b600061219e6026836126bc565b91506121a982612a5b565b604082019050919050565b60006121c1602f836126bc565b91506121cc82612aaa565b604082019050919050565b60006121e46031836126bc565b91506121ef82612af9565b604082019050919050565b60006122076022836126bc565b915061221282612b48565b604082019050919050565b600061222a6025836126bc565b915061223582612b97565b604082019050919050565b600061224d6021836126bc565b915061225882612be6565b604082019050919050565b6000612270601f836126bc565b915061227b82612c35565b602082019050919050565b60006122936028836126bc565b915061229e82612c5e565b604082019050919050565b60006122b66014836126bc565b91506122c182612cad565b602082019050919050565b60006122d96032836126bc565b91506122e482612cd6565b604082019050919050565b60006122fc6031836126bc565b915061230782612d25565b604082019050919050565b6080820160008201516123286000850182612064565b50602082015161233b60208501826123a4565b50604082015161234e60408501826123a4565b50606082015161236160608501826123a4565b50505050565b600060408301600083015161237f60008601826123a4565b50602083015184820360208601526123978282612082565b9150508091505092915050565b6123ad81612820565b82525050565b6123bc81612820565b82525050565b6123cb8161282a565b82525050565b60006020820190506123e66000830184612073565b92915050565b600060208201905061240160008301846120e0565b92915050565b6000602082019050818103600083015261242181846120ef565b905092915050565b6000602082019050818103600083015261244281612128565b9050919050565b600060208201905081810360008301526124628161214b565b9050919050565b600060208201905081810360008301526124828161216e565b9050919050565b600060208201905081810360008301526124a281612191565b9050919050565b600060208201905081810360008301526124c2816121b4565b9050919050565b600060208201905081810360008301526124e2816121d7565b9050919050565b60006020820190508181036000830152612502816121fa565b9050919050565b600060208201905081810360008301526125228161221d565b9050919050565b6000602082019050818103600083015261254281612240565b9050919050565b6000602082019050818103600083015261256281612263565b9050919050565b6000602082019050818103600083015261258281612286565b9050919050565b600060208201905081810360008301526125a2816122a9565b9050919050565b600060208201905081810360008301526125c2816122cc565b9050919050565b600060208201905081810360008301526125e2816122ef565b9050919050565b600060208201905081810360008301526126038184612367565b905092915050565b600060208201905061262060008301846123b3565b92915050565b600060608201905061263b60008301866123b3565b61264860208301856123b3565b61265560408301846123b3565b949350505050565b600060208201905061267260008301846123c2565b92915050565b6000819050602082019050919050565b600081519050919050565b600081519050919050565b6000602082019050919050565b600082825260208201905092915050565b600082825260208201905092915050565b60006126d882612820565b91506126e383612820565b9250827fffffffffffffffffffffffffffffffffffffffffffffffffffffffffffffffff038211156127185761271761289c565b5b828201905092915050565b600061272e82612820565b915061273983612820565b925082612749576127486128cb565b5b828204905092915050565b600061275f82612820565b915061276a83612820565b9250817fffffffffffffffffffffffffffffffffffffffffffffffffffffffffffffffff04831182151516156127a3576127a261289c565b5b828202905092915050565b60006127b982612820565b91506127c483612820565b9250828210156127d7576127d661289c565b5b828203905092915050565b60006127ed82612800565b9050919050565b60008115159050919050565b600073ffffffffffffffffffffffffffffffffffffffff82169050919050565b6000819050919050565b600060ff82169050919050565b60005b8381101561285557808201518184015260208101905061283a565b83811115612864576000848401525b50505050565b6000600282049050600182168061288257607f821691505b60208210811415612896576128956128fa565b5b50919050565b7f4e487b7100000000000000000000000000000000000000000000000000000000600052601160045260246000fd5b7f4e487b7100000000000000000000000000000000000000000000000000000000600052601260045260246000fd5b7f4e487b7100000000000000000000000000000000000000000000000000000000600052602260045260246000fd5b7f4e487b7100000000000000000000000000000000000000000000000000000000600052603260045260246000fd5b600080fd5b6000601f19601f8301169050919050565b7f4d657472613a2063616e6e6f74206275726e2066726f6d207a65726f2061646460008201527f7265737300000000000000000000000000000000000000000000000000000000602082015250565b7f4d657472613a2043616e6e6f74206275726e206d6f7265207468616e2074686560008201527f206163636f756e74206f776e7300000000000000000000000000000000000000602082015250565b7f4f776e61626c653a206f6e6c79206f776e65722063616e2063616c6c2074686960008201527f732066756e6374696f6e00000000000000000000000000000000000000000000602082015250565b7f4f776e61626c653a206e6577206f776e657220697320746865207a65726f206160008201527f6464726573730000000000000000000000000000000000000000000000000000602082015250565b7f4d657472613a20617070726f76652063616e6e6f7420626520646f6e6520667260008201527f6f6d207a65726f20616464726573730000000000000000000000000000000000602082015250565b7f4d657472613a20596f752063616e6e6f74207370656e642074686174206d756360008201527f68206f6e2074686973206163636f756e74000000000000000000000000000000602082015250565b7f4d657472613a2063616e6e6f74206d696e7420746f207a65726f20616464726560008201527f7373000000000000000000000000000000000000000000000000000000000000602082015250565b7f4d657472613a2043616e6e6f74207374616b65206d6f7265207468616e20796f60008201527f75206f776e000000000000000000000000000000000000000000000000000000602082015250565b7f4d657472613a207472616e736665722066726f6d207a65726f2061646472657360008201527f7300000000000000000000000000000000000000000000000000000000000000602082015250565b7f4d657472613a207472616e7366657220746f207a65726f206164647265737300600082015250565b7f4d657472613a20617070726f76652063616e6e6f7420626520746f207a65726f60008201527f2061646472657373000000000000000000000000000000000000000000000000602082015250565b7f43616e6e6f74207374616b65206e6f7468696e67000000000000000000000000600082015250565b7f5374616b696e673a2043616e6e6f74207769746864726177206d6f726520746860008201527f616e20796f752068617665207374616b65640000000000000000000000000000602082015250565b7f4d657472613a2063616e74207472616e73666572206d6f7265207468616e207960008201527f6f7572206163636f756e7420686f6c6473000000000000000000000000000000602082015250565b612d7d816127e2565b8114612d8857600080fd5b50565b612d9481612820565b8114612d9f57600080fd5b5056fea26469706673582212200b6f4aea8372c6c7a2aac9a9baf6ba7bae79ca245d34a1219d1e9901f1aff77f64736f6c63430008070033",
					"opcodes": "PUSH1 0x80 PUSH1 0x40 MSTORE PUSH4 0x5F5E100 PUSH1 0x3 SSTORE CALLVALUE DUP1 ISZERO PUSH3 0x19 JUMPI PUSH1 0x0 DUP1 REVERT JUMPDEST POP PUSH1 0x40 MLOAD PUSH3 0x33BC CODESIZE SUB DUP1 PUSH3 0x33BC DUP4 CODECOPY DUP2 DUP2 ADD PUSH1 0x40 MSTORE DUP2 ADD SWAP1 PUSH3 0x3F SWAP2 SWAP1 PUSH3 0x3C7 JUMP JUMPDEST CALLER PUSH1 0x0 DUP1 PUSH2 0x100 EXP DUP2 SLOAD DUP2 PUSH20 0xFFFFFFFFFFFFFFFFFFFFFFFFFFFFFFFFFFFFFFFF MUL NOT AND SWAP1 DUP4 PUSH20 0xFFFFFFFFFFFFFFFFFFFFFFFFFFFFFFFFFFFFFFFF AND MUL OR SWAP1 SSTORE POP PUSH1 0x0 DUP1 SLOAD SWAP1 PUSH2 0x100 EXP SWAP1 DIV PUSH20 0xFFFFFFFFFFFFFFFFFFFFFFFFFFFFFFFFFFFFFFFF AND PUSH20 0xFFFFFFFFFFFFFFFFFFFFFFFFFFFFFFFFFFFFFFFF AND PUSH1 0x0 PUSH20 0xFFFFFFFFFFFFFFFFFFFFFFFFFFFFFFFFFFFFFFFF AND PUSH32 0x8BE0079C531659141344CD1FD0A4F28419497F9722A3DAAFE3B4186F6B6457E0 PUSH1 0x40 MLOAD PUSH1 0x40 MLOAD DUP1 SWAP2 SUB SWAP1 LOG3 PUSH1 0x1 DUP1 DUP2 PUSH1 0x1 DUP2 SLOAD ADD DUP1 DUP3 SSTORE DUP1 SWAP2 POP POP SUB SWAP1 PUSH1 0x0 MSTORE PUSH1 0x20 PUSH1 0x0 KECCAK256 SWAP1 POP POP PUSH1 0x40 MLOAD DUP1 PUSH1 0x40 ADD PUSH1 0x40 MSTORE DUP1 PUSH1 0xB DUP2 MSTORE PUSH1 0x20 ADD PUSH32 0x4D6574726120546F6B656E000000000000000000000000000000000000000000 DUP2 MSTORE POP PUSH1 0x7 SWAP1 DUP1 MLOAD SWAP1 PUSH1 0x20 ADD SWAP1 PUSH3 0x164 SWAP3 SWAP2 SWAP1 PUSH3 0x299 JUMP JUMPDEST POP PUSH1 0x40 MLOAD DUP1 PUSH1 0x40 ADD PUSH1 0x40 MSTORE DUP1 PUSH1 0x5 DUP2 MSTORE PUSH1 0x20 ADD PUSH32 0x4D45545241000000000000000000000000000000000000000000000000000000 DUP2 MSTORE POP PUSH1 0x6 SWAP1 DUP1 MLOAD SWAP1 PUSH1 0x20 ADD SWAP1 PUSH3 0x1B2 SWAP3 SWAP2 SWAP1 PUSH3 0x299 JUMP JUMPDEST POP PUSH1 0x12 PUSH1 0x5 PUSH1 0x0 PUSH2 0x100 EXP DUP2 SLOAD DUP2 PUSH1 0xFF MUL NOT AND SWAP1 DUP4 PUSH1 0xFF AND MUL OR SWAP1 SSTORE POP PUSH12 0x204FCE5E3E25026110000000 PUSH1 0x4 DUP2 SWAP1 SSTORE POP PUSH1 0x4 SLOAD PUSH1 0x8 PUSH1 0x0 CALLER PUSH20 0xFFFFFFFFFFFFFFFFFFFFFFFFFFFFFFFFFFFFFFFF AND PUSH20 0xFFFFFFFFFFFFFFFFFFFFFFFFFFFFFFFFFFFFFFFF AND DUP2 MSTORE PUSH1 0x20 ADD SWAP1 DUP2 MSTORE PUSH1 0x20 ADD PUSH1 0x0 KECCAK256 DUP2 SWAP1 SSTORE POP CALLER PUSH20 0xFFFFFFFFFFFFFFFFFFFFFFFFFFFFFFFFFFFFFFFF AND PUSH1 0x0 PUSH20 0xFFFFFFFFFFFFFFFFFFFFFFFFFFFFFFFFFFFFFFFF AND PUSH32 0xDDF252AD1BE2C89B69C2B068FC378DAA952BA7F163C4A11628F55A4DF523B3EF PUSH1 0x4 SLOAD PUSH1 0x40 MLOAD PUSH3 0x28A SWAP2 SWAP1 PUSH3 0x429 JUMP JUMPDEST PUSH1 0x40 MLOAD DUP1 SWAP2 SUB SWAP1 LOG3 POP PUSH3 0x5D4 JUMP JUMPDEST DUP3 DUP1 SLOAD PUSH3 0x2A7 SWAP1 PUSH3 0x4E5 JUMP JUMPDEST SWAP1 PUSH1 0x0 MSTORE PUSH1 0x20 PUSH1 0x0 KECCAK256 SWAP1 PUSH1 0x1F ADD PUSH1 0x20 SWAP1 DIV DUP2 ADD SWAP3 DUP3 PUSH3 0x2CB JUMPI PUSH1 0x0 DUP6 SSTORE PUSH3 0x317 JUMP JUMPDEST DUP3 PUSH1 0x1F LT PUSH3 0x2E6 JUMPI DUP1 MLOAD PUSH1 0xFF NOT AND DUP4 DUP1 ADD OR DUP6 SSTORE PUSH3 0x317 JUMP JUMPDEST DUP3 DUP1 ADD PUSH1 0x1 ADD DUP6 SSTORE DUP3 ISZERO PUSH3 0x317 JUMPI SWAP2 DUP3 ADD JUMPDEST DUP3 DUP2 GT ISZERO PUSH3 0x316 JUMPI DUP3 MLOAD DUP3 SSTORE SWAP2 PUSH1 0x20 ADD SWAP2 SWAP1 PUSH1 0x1 ADD SWAP1 PUSH3 0x2F9 JUMP JUMPDEST JUMPDEST POP SWAP1 POP PUSH3 0x326 SWAP2 SWAP1 PUSH3 0x32A JUMP JUMPDEST POP SWAP1 JUMP JUMPDEST JUMPDEST DUP1 DUP3 GT ISZERO PUSH3 0x345 JUMPI PUSH1 0x0 DUP2 PUSH1 0x0 SWAP1 SSTORE POP PUSH1 0x1 ADD PUSH3 0x32B JUMP JUMPDEST POP SWAP1 JUMP JUMPDEST PUSH1 0x0 PUSH3 0x360 PUSH3 0x35A DUP5 PUSH3 0x46F JUMP JUMPDEST PUSH3 0x446 JUMP JUMPDEST SWAP1 POP DUP3 DUP2 MSTORE PUSH1 0x20 DUP2 ADD DUP5 DUP5 DUP5 ADD GT ISZERO PUSH3 0x37F JUMPI PUSH3 0x37E PUSH3 0x5B4 JUMP JUMPDEST JUMPDEST PUSH3 0x38C DUP5 DUP3 DUP6 PUSH3 0x4AF JUMP JUMPDEST POP SWAP4 SWAP3 POP POP POP JUMP JUMPDEST PUSH1 0x0 DUP3 PUSH1 0x1F DUP4 ADD SLT PUSH3 0x3AC JUMPI PUSH3 0x3AB PUSH3 0x5AF JUMP JUMPDEST JUMPDEST DUP2 MLOAD PUSH3 0x3BE DUP5 DUP3 PUSH1 0x20 DUP7 ADD PUSH3 0x349 JUMP JUMPDEST SWAP2 POP POP SWAP3 SWAP2 POP POP JUMP JUMPDEST PUSH1 0x0 PUSH1 0x20 DUP3 DUP5 SUB SLT ISZERO PUSH3 0x3E0 JUMPI PUSH3 0x3DF PUSH3 0x5BE JUMP JUMPDEST JUMPDEST PUSH1 0x0 DUP3 ADD MLOAD PUSH8 0xFFFFFFFFFFFFFFFF DUP2 GT ISZERO PUSH3 0x401 JUMPI PUSH3 0x400 PUSH3 0x5B9 JUMP JUMPDEST JUMPDEST PUSH3 0x40F DUP5 DUP3 DUP6 ADD PUSH3 0x394 JUMP JUMPDEST SWAP2 POP POP SWAP3 SWAP2 POP POP JUMP JUMPDEST PUSH3 0x423 DUP2 PUSH3 0x4A5 JUMP JUMPDEST DUP3 MSTORE POP POP JUMP JUMPDEST PUSH1 0x0 PUSH1 0x20 DUP3 ADD SWAP1 POP PUSH3 0x440 PUSH1 0x0 DUP4 ADD DUP5 PUSH3 0x418 JUMP JUMPDEST SWAP3 SWAP2 POP POP JUMP JUMPDEST PUSH1 0x0 PUSH3 0x452 PUSH3 0x465 JUMP JUMPDEST SWAP1 POP PUSH3 0x460 DUP3 DUP3 PUSH3 0x51B JUMP JUMPDEST SWAP2 SWAP1 POP JUMP JUMPDEST PUSH1 0x0 PUSH1 0x40 MLOAD SWAP1 POP SWAP1 JUMP JUMPDEST PUSH1 0x0 PUSH8 0xFFFFFFFFFFFFFFFF DUP3 GT ISZERO PUSH3 0x48D JUMPI PUSH3 0x48C PUSH3 0x580 JUMP JUMPDEST JUMPDEST PUSH3 0x498 DUP3 PUSH3 0x5C3 JUMP JUMPDEST SWAP1 POP PUSH1 0x20 DUP2 ADD SWAP1 POP SWAP2 SWAP1 POP JUMP JUMPDEST PUSH1 0x0 DUP2 SWAP1 POP SWAP2 SWAP1 POP JUMP JUMPDEST PUSH1 0x0 JUMPDEST DUP4 DUP2 LT ISZERO PUSH3 0x4CF JUMPI DUP1 DUP3 ADD MLOAD DUP2 DUP5 ADD MSTORE PUSH1 0x20 DUP2 ADD SWAP1 POP PUSH3 0x4B2 JUMP JUMPDEST DUP4 DUP2 GT ISZERO PUSH3 0x4DF JUMPI PUSH1 0x0 DUP5 DUP5 ADD MSTORE JUMPDEST POP POP POP POP JUMP JUMPDEST PUSH1 0x0 PUSH1 0x2 DUP3 DIV SWAP1 POP PUSH1 0x1 DUP3 AND DUP1 PUSH3 0x4FE JUMPI PUSH1 0x7F DUP3 AND SWAP2 POP JUMPDEST PUSH1 0x20 DUP3 LT DUP2 EQ ISZERO PUSH3 0x515 JUMPI PUSH3 0x514 PUSH3 0x551 JUMP JUMPDEST JUMPDEST POP SWAP2 SWAP1 POP JUMP JUMPDEST PUSH3 0x526 DUP3 PUSH3 0x5C3 JUMP JUMPDEST DUP2 ADD DUP2 DUP2 LT PUSH8 0xFFFFFFFFFFFFFFFF DUP3 GT OR ISZERO PUSH3 0x548 JUMPI PUSH3 0x547 PUSH3 0x580 JUMP JUMPDEST JUMPDEST DUP1 PUSH1 0x40 MSTORE POP POP POP JUMP JUMPDEST PUSH32 0x4E487B7100000000000000000000000000000000000000000000000000000000 PUSH1 0x0 MSTORE PUSH1 0x22 PUSH1 0x4 MSTORE PUSH1 0x24 PUSH1 0x0 REVERT JUMPDEST PUSH32 0x4E487B7100000000000000000000000000000000000000000000000000000000 PUSH1 0x0 MSTORE PUSH1 0x41 PUSH1 0x4 MSTORE PUSH1 0x24 PUSH1 0x0 REVERT JUMPDEST PUSH1 0x0 DUP1 REVERT JUMPDEST PUSH1 0x0 DUP1 REVERT JUMPDEST PUSH1 0x0 DUP1 REVERT JUMPDEST PUSH1 0x0 DUP1 REVERT JUMPDEST PUSH1 0x0 PUSH1 0x1F NOT PUSH1 0x1F DUP4 ADD AND SWAP1 POP SWAP2 SWAP1 POP JUMP JUMPDEST PUSH2 0x2DD8 DUP1 PUSH3 0x5E4 PUSH1 0x0 CODECOPY PUSH1 0x0 RETURN INVALID PUSH1 0x80 PUSH1 0x40 MSTORE CALLVALUE DUP1 ISZERO PUSH2 0x10 JUMPI PUSH1 0x0 DUP1 REVERT JUMPDEST POP PUSH1 0x4 CALLDATASIZE LT PUSH2 0x137 JUMPI PUSH1 0x0 CALLDATALOAD PUSH1 0xE0 SHR DUP1 PUSH4 0x893D20E8 GT PUSH2 0xB8 JUMPI DUP1 PUSH4 0xA694FC3A GT PUSH2 0x7C JUMPI DUP1 PUSH4 0xA694FC3A EQ PUSH2 0x366 JUMPI DUP1 PUSH4 0xA9059CBB EQ PUSH2 0x382 JUMPI DUP1 PUSH4 0xDD62ED3E EQ PUSH2 0x3B2 JUMPI DUP1 PUSH4 0xE73E14BF EQ PUSH2 0x3E2 JUMPI DUP1 PUSH4 0xF1FDF469 EQ PUSH2 0x412 JUMPI DUP1 PUSH4 0xF2FDE38B EQ PUSH2 0x42E JUMPI PUSH2 0x137 JUMP JUMPDEST DUP1 PUSH4 0x893D20E8 EQ PUSH2 0x2AC JUMPI DUP1 PUSH4 0x8DA5CB5B EQ PUSH2 0x2CA JUMPI DUP1 PUSH4 0x95D89B41 EQ PUSH2 0x2E8 JUMPI DUP1 PUSH4 0x9DC29FAC EQ PUSH2 0x306 JUMPI DUP1 PUSH4 0xA457C2D7 EQ PUSH2 0x336 JUMPI PUSH2 0x137 JUMP JUMPDEST DUP1 PUSH4 0x39509351 GT PUSH2 0xFF JUMPI DUP1 PUSH4 0x39509351 EQ PUSH2 0x1F6 JUMPI DUP1 PUSH4 0x40C10F19 EQ PUSH2 0x226 JUMPI DUP1 PUSH4 0x523A3F08 EQ PUSH2 0x256 JUMPI DUP1 PUSH4 0x70A08231 EQ PUSH2 0x272 JUMPI DUP1 PUSH4 0x715018A6 EQ PUSH2 0x2A2 JUMPI PUSH2 0x137 JUMP JUMPDEST DUP1 PUSH4 0x6FDDE03 EQ PUSH2 0x13C JUMPI DUP1 PUSH4 0x95EA7B3 EQ PUSH2 0x15A JUMPI DUP1 PUSH4 0x18160DDD EQ PUSH2 0x18A JUMPI DUP1 PUSH4 0x23B872DD EQ PUSH2 0x1A8 JUMPI DUP1 PUSH4 0x313CE567 EQ PUSH2 0x1D8 JUMPI JUMPDEST PUSH1 0x0 DUP1 REVERT JUMPDEST PUSH2 0x144 PUSH2 0x44A JUMP JUMPDEST PUSH1 0x40 MLOAD PUSH2 0x151 SWAP2 SWAP1 PUSH2 0x2407 JUMP JUMPDEST PUSH1 0x40 MLOAD DUP1 SWAP2 SUB SWAP1 RETURN JUMPDEST PUSH2 0x174 PUSH1 0x4 DUP1 CALLDATASIZE SUB DUP2 ADD SWAP1 PUSH2 0x16F SWAP2 SWAP1 PUSH2 0x1F9F JUMP JUMPDEST PUSH2 0x4DC JUMP JUMPDEST PUSH1 0x40 MLOAD PUSH2 0x181 SWAP2 SWAP1 PUSH2 0x23EC JUMP JUMPDEST PUSH1 0x40 MLOAD DUP1 SWAP2 SUB SWAP1 RETURN JUMPDEST PUSH2 0x192 PUSH2 0x4F3 JUMP JUMPDEST PUSH1 0x40 MLOAD PUSH2 0x19F SWAP2 SWAP1 PUSH2 0x260B JUMP JUMPDEST PUSH1 0x40 MLOAD DUP1 SWAP2 SUB SWAP1 RETURN JUMPDEST PUSH2 0x1C2 PUSH1 0x4 DUP1 CALLDATASIZE SUB DUP2 ADD SWAP1 PUSH2 0x1BD SWAP2 SWAP1 PUSH2 0x1F4C JUMP JUMPDEST PUSH2 0x4FD JUMP JUMPDEST PUSH1 0x40 MLOAD PUSH2 0x1CF SWAP2 SWAP1 PUSH2 0x23EC JUMP JUMPDEST PUSH1 0x40 MLOAD DUP1 SWAP2 SUB SWAP1 RETURN JUMPDEST PUSH2 0x1E0 PUSH2 0x666 JUMP JUMPDEST PUSH1 0x40 MLOAD PUSH2 0x1ED SWAP2 SWAP1 PUSH2 0x265D JUMP JUMPDEST PUSH1 0x40 MLOAD DUP1 SWAP2 SUB SWAP1 RETURN JUMPDEST PUSH2 0x210 PUSH1 0x4 DUP1 CALLDATASIZE SUB DUP2 ADD SWAP1 PUSH2 0x20B SWAP2 SWAP1 PUSH2 0x1F9F JUMP JUMPDEST PUSH2 0x67D JUMP JUMPDEST PUSH1 0x40 MLOAD PUSH2 0x21D SWAP2 SWAP1 PUSH2 0x23EC JUMP JUMPDEST PUSH1 0x40 MLOAD DUP1 SWAP2 SUB SWAP1 RETURN JUMPDEST PUSH2 0x240 PUSH1 0x4 DUP1 CALLDATASIZE SUB DUP2 ADD SWAP1 PUSH2 0x23B SWAP2 SWAP1 PUSH2 0x1F9F JUMP JUMPDEST PUSH2 0x71B JUMP JUMPDEST PUSH1 0x40 MLOAD PUSH2 0x24D SWAP2 SWAP1 PUSH2 0x23EC JUMP JUMPDEST PUSH1 0x40 MLOAD DUP1 SWAP2 SUB SWAP1 RETURN JUMPDEST PUSH2 0x270 PUSH1 0x4 DUP1 CALLDATASIZE SUB DUP2 ADD SWAP1 PUSH2 0x26B SWAP2 SWAP1 PUSH2 0x1FDF JUMP JUMPDEST PUSH2 0x7BF JUMP JUMPDEST STOP JUMPDEST PUSH2 0x28C PUSH1 0x4 DUP1 CALLDATASIZE SUB DUP2 ADD SWAP1 PUSH2 0x287 SWAP2 SWAP1 PUSH2 0x1EDF JUMP JUMPDEST PUSH2 0x7D2 JUMP JUMPDEST PUSH1 0x40 MLOAD PUSH2 0x299 SWAP2 SWAP1 PUSH2 0x260B JUMP JUMPDEST PUSH1 0x40 MLOAD DUP1 SWAP2 SUB SWAP1 RETURN JUMPDEST PUSH2 0x2AA PUSH2 0x81B JUMP JUMPDEST STOP JUMPDEST PUSH2 0x2B4 PUSH2 0x967 JUMP JUMPDEST PUSH1 0x40 MLOAD PUSH2 0x2C1 SWAP2 SWAP1 PUSH2 0x23D1 JUMP JUMPDEST PUSH1 0x40 MLOAD DUP1 SWAP2 SUB SWAP1 RETURN JUMPDEST PUSH2 0x2D2 PUSH2 0x976 JUMP JUMPDEST PUSH1 0x40 MLOAD PUSH2 0x2DF SWAP2 SWAP1 PUSH2 0x23D1 JUMP JUMPDEST PUSH1 0x40 MLOAD DUP1 SWAP2 SUB SWAP1 RETURN JUMPDEST PUSH2 0x2F0 PUSH2 0x99F JUMP JUMPDEST PUSH1 0x40 MLOAD PUSH2 0x2FD SWAP2 SWAP1 PUSH2 0x2407 JUMP JUMPDEST PUSH1 0x40 MLOAD DUP1 SWAP2 SUB SWAP1 RETURN JUMPDEST PUSH2 0x320 PUSH1 0x4 DUP1 CALLDATASIZE SUB DUP2 ADD SWAP1 PUSH2 0x31B SWAP2 SWAP1 PUSH2 0x1F9F JUMP JUMPDEST PUSH2 0xA31 JUMP JUMPDEST PUSH1 0x40 MLOAD PUSH2 0x32D SWAP2 SWAP1 PUSH2 0x23EC JUMP JUMPDEST PUSH1 0x40 MLOAD DUP1 SWAP2 SUB SWAP1 RETURN JUMPDEST PUSH2 0x350 PUSH1 0x4 DUP1 CALLDATASIZE SUB DUP2 ADD SWAP1 PUSH2 0x34B SWAP2 SWAP1 PUSH2 0x1F9F JUMP JUMPDEST PUSH2 0xAD5 JUMP JUMPDEST PUSH1 0x40 MLOAD PUSH2 0x35D SWAP2 SWAP1 PUSH2 0x23EC JUMP JUMPDEST PUSH1 0x40 MLOAD DUP1 SWAP2 SUB SWAP1 RETURN JUMPDEST PUSH2 0x380 PUSH1 0x4 DUP1 CALLDATASIZE SUB DUP2 ADD SWAP1 PUSH2 0x37B SWAP2 SWAP1 PUSH2 0x1FDF JUMP JUMPDEST PUSH2 0xB73 JUMP JUMPDEST STOP JUMPDEST PUSH2 0x39C PUSH1 0x4 DUP1 CALLDATASIZE SUB DUP2 ADD SWAP1 PUSH2 0x397 SWAP2 SWAP1 PUSH2 0x1F9F JUMP JUMPDEST PUSH2 0xC0A JUMP JUMPDEST PUSH1 0x40 MLOAD PUSH2 0x3A9 SWAP2 SWAP1 PUSH2 0x23EC JUMP JUMPDEST PUSH1 0x40 MLOAD DUP1 SWAP2 SUB SWAP1 RETURN JUMPDEST PUSH2 0x3CC PUSH1 0x4 DUP1 CALLDATASIZE SUB DUP2 ADD SWAP1 PUSH2 0x3C7 SWAP2 SWAP1 PUSH2 0x1F0C JUMP JUMPDEST PUSH2 0xC21 JUMP JUMPDEST PUSH1 0x40 MLOAD PUSH2 0x3D9 SWAP2 SWAP1 PUSH2 0x260B JUMP JUMPDEST PUSH1 0x40 MLOAD DUP1 SWAP2 SUB SWAP1 RETURN JUMPDEST PUSH2 0x3FC PUSH1 0x4 DUP1 CALLDATASIZE SUB DUP2 ADD SWAP1 PUSH2 0x3F7 SWAP2 SWAP1 PUSH2 0x1EDF JUMP JUMPDEST PUSH2 0xCA8 JUMP JUMPDEST PUSH1 0x40 MLOAD PUSH2 0x409 SWAP2 SWAP1 PUSH2 0x25E9 JUMP JUMPDEST PUSH1 0x40 MLOAD DUP1 SWAP2 SUB SWAP1 RETURN JUMPDEST PUSH2 0x42C PUSH1 0x4 DUP1 CALLDATASIZE SUB DUP2 ADD SWAP1 PUSH2 0x427 SWAP2 SWAP1 PUSH2 0x200C JUMP JUMPDEST PUSH2 0xEB5 JUMP JUMPDEST STOP JUMPDEST PUSH2 0x448 PUSH1 0x4 DUP1 CALLDATASIZE SUB DUP2 ADD SWAP1 PUSH2 0x443 SWAP2 SWAP1 PUSH2 0x1EDF JUMP JUMPDEST PUSH2 0xED2 JUMP JUMPDEST STOP JUMPDEST PUSH1 0x60 PUSH1 0x7 DUP1 SLOAD PUSH2 0x459 SWAP1 PUSH2 0x286A JUMP JUMPDEST DUP1 PUSH1 0x1F ADD PUSH1 0x20 DUP1 SWAP2 DIV MUL PUSH1 0x20 ADD PUSH1 0x40 MLOAD SWAP1 DUP2 ADD PUSH1 0x40 MSTORE DUP1 SWAP3 SWAP2 SWAP1 DUP2 DUP2 MSTORE PUSH1 0x20 ADD DUP3 DUP1 SLOAD PUSH2 0x485 SWAP1 PUSH2 0x286A JUMP JUMPDEST DUP1 ISZERO PUSH2 0x4D2 JUMPI DUP1 PUSH1 0x1F LT PUSH2 0x4A7 JUMPI PUSH2 0x100 DUP1 DUP4 SLOAD DIV MUL DUP4 MSTORE SWAP2 PUSH1 0x20 ADD SWAP2 PUSH2 0x4D2 JUMP JUMPDEST DUP3 ADD SWAP2 SWAP1 PUSH1 0x0 MSTORE PUSH1 0x20 PUSH1 0x0 KECCAK256 SWAP1 JUMPDEST DUP2 SLOAD DUP2 MSTORE SWAP1 PUSH1 0x1 ADD SWAP1 PUSH1 0x20 ADD DUP1 DUP4 GT PUSH2 0x4B5 JUMPI DUP3 SWAP1 SUB PUSH1 0x1F AND DUP3 ADD SWAP2 JUMPDEST POP POP POP POP POP SWAP1 POP SWAP1 JUMP JUMPDEST PUSH1 0x0 PUSH2 0x4E9 CALLER DUP5 DUP5 PUSH2 0xF6C JUMP JUMPDEST PUSH1 0x1 SWAP1 POP SWAP3 SWAP2 POP POP JUMP JUMPDEST PUSH1 0x0 PUSH1 0x4 SLOAD SWAP1 POP SWAP1 JUMP JUMPDEST PUSH1 0x0 DUP2 PUSH1 0x9 PUSH1 0x0 DUP7 PUSH20 0xFFFFFFFFFFFFFFFFFFFFFFFFFFFFFFFFFFFFFFFF AND PUSH20 0xFFFFFFFFFFFFFFFFFFFFFFFFFFFFFFFFFFFFFFFF AND DUP2 MSTORE PUSH1 0x20 ADD SWAP1 DUP2 MSTORE PUSH1 0x20 ADD PUSH1 0x0 KECCAK256 PUSH1 0x0 CALLER PUSH20 0xFFFFFFFFFFFFFFFFFFFFFFFFFFFFFFFFFFFFFFFF AND PUSH20 0xFFFFFFFFFFFFFFFFFFFFFFFFFFFFFFFFFFFFFFFF AND DUP2 MSTORE PUSH1 0x20 ADD SWAP1 DUP2 MSTORE PUSH1 0x20 ADD PUSH1 0x0 KECCAK256 SLOAD LT ISZERO PUSH2 0x5BE JUMPI PUSH1 0x40 MLOAD PUSH32 0x8C379A000000000000000000000000000000000000000000000000000000000 DUP2 MSTORE PUSH1 0x4 ADD PUSH2 0x5B5 SWAP1 PUSH2 0x24C9 JUMP JUMPDEST PUSH1 0x40 MLOAD DUP1 SWAP2 SUB SWAP1 REVERT JUMPDEST PUSH2 0x5C9 DUP5 DUP5 DUP5 PUSH2 0x1137 JUMP JUMPDEST PUSH2 0x65B DUP5 CALLER DUP5 PUSH1 0x9 PUSH1 0x0 DUP10 PUSH20 0xFFFFFFFFFFFFFFFFFFFFFFFFFFFFFFFFFFFFFFFF AND PUSH20 0xFFFFFFFFFFFFFFFFFFFFFFFFFFFFFFFFFFFFFFFF AND DUP2 MSTORE PUSH1 0x20 ADD SWAP1 DUP2 MSTORE PUSH1 0x20 ADD PUSH1 0x0 KECCAK256 PUSH1 0x0 CALLER PUSH20 0xFFFFFFFFFFFFFFFFFFFFFFFFFFFFFFFFFFFFFFFF AND PUSH20 0xFFFFFFFFFFFFFFFFFFFFFFFFFFFFFFFFFFFFFFFF AND DUP2 MSTORE PUSH1 0x20 ADD SWAP1 DUP2 MSTORE PUSH1 0x20 ADD PUSH1 0x0 KECCAK256 SLOAD PUSH2 0x656 SWAP2 SWAP1 PUSH2 0x27AE JUMP JUMPDEST PUSH2 0xF6C JUMP JUMPDEST PUSH1 0x1 SWAP1 POP SWAP4 SWAP3 POP POP POP JUMP JUMPDEST PUSH1 0x0 PUSH1 0x5 PUSH1 0x0 SWAP1 SLOAD SWAP1 PUSH2 0x100 EXP SWAP1 DIV PUSH1 0xFF AND SWAP1 POP SWAP1 JUMP JUMPDEST PUSH1 0x0 PUSH2 0x711 CALLER DUP5 DUP5 PUSH1 0x9 PUSH1 0x0 CALLER PUSH20 0xFFFFFFFFFFFFFFFFFFFFFFFFFFFFFFFFFFFFFFFF AND PUSH20 0xFFFFFFFFFFFFFFFFFFFFFFFFFFFFFFFFFFFFFFFF AND DUP2 MSTORE PUSH1 0x20 ADD SWAP1 DUP2 MSTORE PUSH1 0x20 ADD PUSH1 0x0 KECCAK256 PUSH1 0x0 DUP9 PUSH20 0xFFFFFFFFFFFFFFFFFFFFFFFFFFFFFFFFFFFFFFFF AND PUSH20 0xFFFFFFFFFFFFFFFFFFFFFFFFFFFFFFFFFFFFFFFF AND DUP2 MSTORE PUSH1 0x20 ADD SWAP1 DUP2 MSTORE PUSH1 0x20 ADD PUSH1 0x0 KECCAK256 SLOAD PUSH2 0x70C SWAP2 SWAP1 PUSH2 0x26CD JUMP JUMPDEST PUSH2 0xF6C JUMP JUMPDEST PUSH1 0x1 SWAP1 POP SWAP3 SWAP2 POP POP JUMP JUMPDEST PUSH1 0x0 CALLER PUSH20 0xFFFFFFFFFFFFFFFFFFFFFFFFFFFFFFFFFFFFFFFF AND PUSH1 0x0 DUP1 SLOAD SWAP1 PUSH2 0x100 EXP SWAP1 DIV PUSH20 0xFFFFFFFFFFFFFFFFFFFFFFFFFFFFFFFFFFFFFFFF AND PUSH20 0xFFFFFFFFFFFFFFFFFFFFFFFFFFFFFFFFFFFFFFFF AND EQ PUSH2 0x7AB JUMPI PUSH1 0x40 MLOAD PUSH32 0x8C379A000000000000000000000000000000000000000000000000000000000 DUP2 MSTORE PUSH1 0x4 ADD PUSH2 0x7A2 SWAP1 PUSH2 0x2469 JUMP JUMPDEST PUSH1 0x40 MLOAD DUP1 SWAP2 SUB SWAP1 REVERT JUMPDEST PUSH2 0x7B5 DUP4 DUP4 PUSH2 0x141F JUMP JUMPDEST PUSH1 0x1 SWAP1 POP SWAP3 SWAP2 POP POP JUMP JUMPDEST PUSH1 0x0 DUP2 SWAP1 POP PUSH2 0x7CE CALLER DUP3 PUSH2 0x141F JUMP JUMPDEST POP POP JUMP JUMPDEST PUSH1 0x0 PUSH1 0x8 PUSH1 0x0 DUP4 PUSH20 0xFFFFFFFFFFFFFFFFFFFFFFFFFFFFFFFFFFFFFFFF AND PUSH20 0xFFFFFFFFFFFFFFFFFFFFFFFFFFFFFFFFFFFFFFFF AND DUP2 MSTORE PUSH1 0x20 ADD SWAP1 DUP2 MSTORE PUSH1 0x20 ADD PUSH1 0x0 KECCAK256 SLOAD SWAP1 POP SWAP2 SWAP1 POP JUMP JUMPDEST CALLER PUSH20 0xFFFFFFFFFFFFFFFFFFFFFFFFFFFFFFFFFFFFFFFF AND PUSH1 0x0 DUP1 SLOAD SWAP1 PUSH2 0x100 EXP SWAP1 DIV PUSH20 0xFFFFFFFFFFFFFFFFFFFFFFFFFFFFFFFFFFFFFFFF AND PUSH20 0xFFFFFFFFFFFFFFFFFFFFFFFFFFFFFFFFFFFFFFFF AND EQ PUSH2 0x8A9 JUMPI PUSH1 0x40 MLOAD PUSH32 0x8C379A000000000000000000000000000000000000000000000000000000000 DUP2 MSTORE PUSH1 0x4 ADD PUSH2 0x8A0 SWAP1 PUSH2 0x2469 JUMP JUMPDEST PUSH1 0x40 MLOAD DUP1 SWAP2 SUB SWAP1 REVERT JUMPDEST PUSH1 0x0 PUSH20 0xFFFFFFFFFFFFFFFFFFFFFFFFFFFFFFFFFFFFFFFF AND PUSH1 0x0 DUP1 SLOAD SWAP1 PUSH2 0x100 EXP SWAP1 DIV PUSH20 0xFFFFFFFFFFFFFFFFFFFFFFFFFFFFFFFFFFFFFFFF AND PUSH20 0xFFFFFFFFFFFFFFFFFFFFFFFFFFFFFFFFFFFFFFFF AND PUSH32 0x8BE0079C531659141344CD1FD0A4F28419497F9722A3DAAFE3B4186F6B6457E0 PUSH1 0x40 MLOAD PUSH1 0x40 MLOAD DUP1 SWAP2 SUB SWAP1 LOG3 PUSH1 0x0 DUP1 PUSH1 0x0 PUSH2 0x100 EXP DUP2 SLOAD DUP2 PUSH20 0xFFFFFFFFFFFFFFFFFFFFFFFFFFFFFFFFFFFFFFFF MUL NOT AND SWAP1 DUP4 PUSH20 0xFFFFFFFFFFFFFFFFFFFFFFFFFFFFFFFFFFFFFFFF AND MUL OR SWAP1 SSTORE POP JUMP JUMPDEST PUSH1 0x0 PUSH2 0x971 PUSH2 0x976 JUMP JUMPDEST SWAP1 POP SWAP1 JUMP JUMPDEST PUSH1 0x0 DUP1 PUSH1 0x0 SWAP1 SLOAD SWAP1 PUSH2 0x100 EXP SWAP1 DIV PUSH20 0xFFFFFFFFFFFFFFFFFFFFFFFFFFFFFFFFFFFFFFFF AND SWAP1 POP SWAP1 JUMP JUMPDEST PUSH1 0x60 PUSH1 0x6 DUP1 SLOAD PUSH2 0x9AE SWAP1 PUSH2 0x286A JUMP JUMPDEST DUP1 PUSH1 0x1F ADD PUSH1 0x20 DUP1 SWAP2 DIV MUL PUSH1 0x20 ADD PUSH1 0x40 MLOAD SWAP1 DUP2 ADD PUSH1 0x40 MSTORE DUP1 SWAP3 SWAP2 SWAP1 DUP2 DUP2 MSTORE PUSH1 0x20 ADD DUP3 DUP1 SLOAD PUSH2 0x9DA SWAP1 PUSH2 0x286A JUMP JUMPDEST DUP1 ISZERO PUSH2 0xA27 JUMPI DUP1 PUSH1 0x1F LT PUSH2 0x9FC JUMPI PUSH2 0x100 DUP1 DUP4 SLOAD DIV MUL DUP4 MSTORE SWAP2 PUSH1 0x20 ADD SWAP2 PUSH2 0xA27 JUMP JUMPDEST DUP3 ADD SWAP2 SWAP1 PUSH1 0x0 MSTORE PUSH1 0x20 PUSH1 0x0 KECCAK256 SWAP1 JUMPDEST DUP2 SLOAD DUP2 MSTORE SWAP1 PUSH1 0x1 ADD SWAP1 PUSH1 0x20 ADD DUP1 DUP4 GT PUSH2 0xA0A JUMPI DUP3 SWAP1 SUB PUSH1 0x1F AND DUP3 ADD SWAP2 JUMPDEST POP POP POP POP POP SWAP1 POP SWAP1 JUMP JUMPDEST PUSH1 0x0 CALLER PUSH20 0xFFFFFFFFFFFFFFFFFFFFFFFFFFFFFFFFFFFFFFFF AND PUSH1 0x0 DUP1 SLOAD SWAP1 PUSH2 0x100 EXP SWAP1 DIV PUSH20 0xFFFFFFFFFFFFFFFFFFFFFFFFFFFFFFFFFFFFFFFF AND PUSH20 0xFFFFFFFFFFFFFFFFFFFFFFFFFFFFFFFFFFFFFFFF AND EQ PUSH2 0xAC1 JUMPI PUSH1 0x40 MLOAD PUSH32 0x8C379A000000000000000000000000000000000000000000000000000000000 DUP2 MSTORE PUSH1 0x4 ADD PUSH2 0xAB8 SWAP1 PUSH2 0x2469 JUMP JUMPDEST PUSH1 0x40 MLOAD DUP1 SWAP2 SUB SWAP1 REVERT JUMPDEST PUSH2 0xACB DUP4 DUP4 PUSH2 0x159B JUMP JUMPDEST PUSH1 0x1 SWAP1 POP SWAP3 SWAP2 POP POP JUMP JUMPDEST PUSH1 0x0 PUSH2 0xB69 CALLER DUP5 DUP5 PUSH1 0x9 PUSH1 0x0 CALLER PUSH20 0xFFFFFFFFFFFFFFFFFFFFFFFFFFFFFFFFFFFFFFFF AND PUSH20 0xFFFFFFFFFFFFFFFFFFFFFFFFFFFFFFFFFFFFFFFF AND DUP2 MSTORE PUSH1 0x20 ADD SWAP1 DUP2 MSTORE PUSH1 0x20 ADD PUSH1 0x0 KECCAK256 PUSH1 0x0 DUP9 PUSH20 0xFFFFFFFFFFFFFFFFFFFFFFFFFFFFFFFFFFFFFFFF AND PUSH20 0xFFFFFFFFFFFFFFFFFFFFFFFFFFFFFFFFFFFFFFFF AND DUP2 MSTORE PUSH1 0x20 ADD SWAP1 DUP2 MSTORE PUSH1 0x20 ADD PUSH1 0x0 KECCAK256 SLOAD PUSH2 0xB64 SWAP2 SWAP1 PUSH2 0x27AE JUMP JUMPDEST PUSH2 0xF6C JUMP JUMPDEST PUSH1 0x1 SWAP1 POP SWAP3 SWAP2 POP POP JUMP JUMPDEST PUSH1 0x8 PUSH1 0x0 CALLER PUSH20 0xFFFFFFFFFFFFFFFFFFFFFFFFFFFFFFFFFFFFFFFF AND PUSH20 0xFFFFFFFFFFFFFFFFFFFFFFFFFFFFFFFFFFFFFFFF AND DUP2 MSTORE PUSH1 0x20 ADD SWAP1 DUP2 MSTORE PUSH1 0x20 ADD PUSH1 0x0 KECCAK256 SLOAD DUP2 LT PUSH2 0xBF4 JUMPI PUSH1 0x40 MLOAD PUSH32 0x8C379A000000000000000000000000000000000000000000000000000000000 DUP2 MSTORE PUSH1 0x4 ADD PUSH2 0xBEB SWAP1 PUSH2 0x2509 JUMP JUMPDEST PUSH1 0x40 MLOAD DUP1 SWAP2 SUB SWAP1 REVERT JUMPDEST PUSH2 0xBFD DUP2 PUSH2 0x1799 JUMP JUMPDEST PUSH2 0xC07 CALLER DUP3 PUSH2 0x159B JUMP JUMPDEST POP JUMP JUMPDEST PUSH1 0x0 PUSH2 0xC17 CALLER DUP5 DUP5 PUSH2 0x1137 JUMP JUMPDEST PUSH1 0x1 SWAP1 POP SWAP3 SWAP2 POP POP JUMP JUMPDEST PUSH1 0x0 PUSH1 0x9 PUSH1 0x0 DUP5 PUSH20 0xFFFFFFFFFFFFFFFFFFFFFFFFFFFFFFFFFFFFFFFF AND PUSH20 0xFFFFFFFFFFFFFFFFFFFFFFFFFFFFFFFFFFFFFFFF AND DUP2 MSTORE PUSH1 0x20 ADD SWAP1 DUP2 MSTORE PUSH1 0x20 ADD PUSH1 0x0 KECCAK256 PUSH1 0x0 DUP4 PUSH20 0xFFFFFFFFFFFFFFFFFFFFFFFFFFFFFFFFFFFFFFFF AND PUSH20 0xFFFFFFFFFFFFFFFFFFFFFFFFFFFFFFFFFFFFFFFF AND DUP2 MSTORE PUSH1 0x20 ADD SWAP1 DUP2 MSTORE PUSH1 0x20 ADD PUSH1 0x0 KECCAK256 SLOAD SWAP1 POP SWAP3 SWAP2 POP POP JUMP JUMPDEST PUSH2 0xCB0 PUSH2 0x1E9B JUMP JUMPDEST PUSH1 0x0 DUP1 PUSH1 0x40 MLOAD DUP1 PUSH1 0x40 ADD PUSH1 0x40 MSTORE DUP1 PUSH1 0x0 DUP2 MSTORE PUSH1 0x20 ADD PUSH1 0x1 PUSH1 0x2 PUSH1 0x0 DUP9 PUSH20 0xFFFFFFFFFFFFFFFFFFFFFFFFFFFFFFFFFFFFFFFF AND PUSH20 0xFFFFFFFFFFFFFFFFFFFFFFFFFFFFFFFFFFFFFFFF AND DUP2 MSTORE PUSH1 0x20 ADD SWAP1 DUP2 MSTORE PUSH1 0x20 ADD PUSH1 0x0 KECCAK256 SLOAD DUP2 SLOAD DUP2 LT PUSH2 0xD18 JUMPI PUSH2 0xD17 PUSH2 0x2929 JUMP JUMPDEST JUMPDEST SWAP1 PUSH1 0x0 MSTORE PUSH1 0x20 PUSH1 0x0 KECCAK256 SWAP1 PUSH1 0x2 MUL ADD PUSH1 0x1 ADD DUP1 SLOAD DUP1 PUSH1 0x20 MUL PUSH1 0x20 ADD PUSH1 0x40 MLOAD SWAP1 DUP2 ADD PUSH1 0x40 MSTORE DUP1 SWAP3 SWAP2 SWAP1 DUP2 DUP2 MSTORE PUSH1 0x20 ADD PUSH1 0x0 SWAP1 JUMPDEST DUP3 DUP3 LT ISZERO PUSH2 0xDEF JUMPI DUP4 DUP3 SWAP1 PUSH1 0x0 MSTORE PUSH1 0x20 PUSH1 0x0 KECCAK256 SWAP1 PUSH1 0x4 MUL ADD PUSH1 0x40 MLOAD DUP1 PUSH1 0x80 ADD PUSH1 0x40 MSTORE SWAP1 DUP2 PUSH1 0x0 DUP3 ADD PUSH1 0x0 SWAP1 SLOAD SWAP1 PUSH2 0x100 EXP SWAP1 DIV PUSH20 0xFFFFFFFFFFFFFFFFFFFFFFFFFFFFFFFFFFFFFFFF AND PUSH20 0xFFFFFFFFFFFFFFFFFFFFFFFFFFFFFFFFFFFFFFFF AND PUSH20 0xFFFFFFFFFFFFFFFFFFFFFFFFFFFFFFFFFFFFFFFF AND DUP2 MSTORE PUSH1 0x20 ADD PUSH1 0x1 DUP3 ADD SLOAD DUP2 MSTORE PUSH1 0x20 ADD PUSH1 0x2 DUP3 ADD SLOAD DUP2 MSTORE PUSH1 0x20 ADD PUSH1 0x3 DUP3 ADD SLOAD DUP2 MSTORE POP POP DUP2 MSTORE PUSH1 0x20 ADD SWAP1 PUSH1 0x1 ADD SWAP1 PUSH2 0xD49 JUMP JUMPDEST POP POP POP POP DUP2 MSTORE POP SWAP1 POP PUSH1 0x0 JUMPDEST DUP2 PUSH1 0x20 ADD MLOAD MLOAD DUP2 LT ISZERO PUSH2 0xEA0 JUMPI PUSH1 0x0 PUSH2 0xE31 DUP4 PUSH1 0x20 ADD MLOAD DUP4 DUP2 MLOAD DUP2 LT PUSH2 0xE24 JUMPI PUSH2 0xE23 PUSH2 0x2929 JUMP JUMPDEST JUMPDEST PUSH1 0x20 MUL PUSH1 0x20 ADD ADD MLOAD PUSH2 0x197E JUMP JUMPDEST SWAP1 POP DUP1 DUP4 PUSH1 0x20 ADD MLOAD DUP4 DUP2 MLOAD DUP2 LT PUSH2 0xE4B JUMPI PUSH2 0xE4A PUSH2 0x2929 JUMP JUMPDEST JUMPDEST PUSH1 0x20 MUL PUSH1 0x20 ADD ADD MLOAD PUSH1 0x60 ADD DUP2 DUP2 MSTORE POP POP DUP3 PUSH1 0x20 ADD MLOAD DUP3 DUP2 MLOAD DUP2 LT PUSH2 0xE72 JUMPI PUSH2 0xE71 PUSH2 0x2929 JUMP JUMPDEST JUMPDEST PUSH1 0x20 MUL PUSH1 0x20 ADD ADD MLOAD PUSH1 0x20 ADD MLOAD DUP5 PUSH2 0xE89 SWAP2 SWAP1 PUSH2 0x26CD JUMP JUMPDEST SWAP4 POP POP PUSH1 0x1 DUP2 PUSH2 0xE99 SWAP2 SWAP1 PUSH2 0x26CD JUMP JUMPDEST SWAP1 POP PUSH2 0xDFB JUMP JUMPDEST POP DUP2 DUP2 PUSH1 0x0 ADD DUP2 DUP2 MSTORE POP POP DUP1 SWAP3 POP POP POP SWAP2 SWAP1 POP JUMP JUMPDEST PUSH1 0x0 PUSH2 0xEC1 DUP4 DUP4 PUSH2 0x19C0 JUMP JUMPDEST SWAP1 POP PUSH2 0xECD CALLER DUP3 PUSH2 0x141F JUMP JUMPDEST POP POP POP JUMP JUMPDEST CALLER PUSH20 0xFFFFFFFFFFFFFFFFFFFFFFFFFFFFFFFFFFFFFFFF AND PUSH1 0x0 DUP1 SLOAD SWAP1 PUSH2 0x100 EXP SWAP1 DIV PUSH20 0xFFFFFFFFFFFFFFFFFFFFFFFFFFFFFFFFFFFFFFFF AND PUSH20 0xFFFFFFFFFFFFFFFFFFFFFFFFFFFFFFFFFFFFFFFF AND EQ PUSH2 0xF60 JUMPI PUSH1 0x40 MLOAD PUSH32 0x8C379A000000000000000000000000000000000000000000000000000000000 DUP2 MSTORE PUSH1 0x4 ADD PUSH2 0xF57 SWAP1 PUSH2 0x2469 JUMP JUMPDEST PUSH1 0x40 MLOAD DUP1 SWAP2 SUB SWAP1 REVERT JUMPDEST PUSH2 0xF69 DUP2 PUSH2 0x1C89 JUMP JUMPDEST POP JUMP JUMPDEST PUSH1 0x0 PUSH20 0xFFFFFFFFFFFFFFFFFFFFFFFFFFFFFFFFFFFFFFFF AND DUP4 PUSH20 0xFFFFFFFFFFFFFFFFFFFFFFFFFFFFFFFFFFFFFFFF AND EQ ISZERO PUSH2 0xFDC JUMPI PUSH1 0x40 MLOAD PUSH32 0x8C379A000000000000000000000000000000000000000000000000000000000 DUP2 MSTORE PUSH1 0x4 ADD PUSH2 0xFD3 SWAP1 PUSH2 0x24A9 JUMP JUMPDEST PUSH1 0x40 MLOAD DUP1 SWAP2 SUB SWAP1 REVERT JUMPDEST PUSH1 0x0 PUSH20 0xFFFFFFFFFFFFFFFFFFFFFFFFFFFFFFFFFFFFFFFF AND DUP3 PUSH20 0xFFFFFFFFFFFFFFFFFFFFFFFFFFFFFFFFFFFFFFFF AND EQ ISZERO PUSH2 0x104C JUMPI PUSH1 0x40 MLOAD PUSH32 0x8C379A000000000000000000000000000000000000000000000000000000000 DUP2 MSTORE PUSH1 0x4 ADD PUSH2 0x1043 SWAP1 PUSH2 0x2569 JUMP JUMPDEST PUSH1 0x40 MLOAD DUP1 SWAP2 SUB SWAP1 REVERT JUMPDEST DUP1 PUSH1 0x9 PUSH1 0x0 DUP6 PUSH20 0xFFFFFFFFFFFFFFFFFFFFFFFFFFFFFFFFFFFFFFFF AND PUSH20 0xFFFFFFFFFFFFFFFFFFFFFFFFFFFFFFFFFFFFFFFF AND DUP2 MSTORE PUSH1 0x20 ADD SWAP1 DUP2 MSTORE PUSH1 0x20 ADD PUSH1 0x0 KECCAK256 PUSH1 0x0 DUP5 PUSH20 0xFFFFFFFFFFFFFFFFFFFFFFFFFFFFFFFFFFFFFFFF AND PUSH20 0xFFFFFFFFFFFFFFFFFFFFFFFFFFFFFFFFFFFFFFFF AND DUP2 MSTORE PUSH1 0x20 ADD SWAP1 DUP2 MSTORE PUSH1 0x20 ADD PUSH1 0x0 KECCAK256 DUP2 SWAP1 SSTORE POP DUP2 PUSH20 0xFFFFFFFFFFFFFFFFFFFFFFFFFFFFFFFFFFFFFFFF AND DUP4 PUSH20 0xFFFFFFFFFFFFFFFFFFFFFFFFFFFFFFFFFFFFFFFF AND PUSH32 0x8C5BE1E5EBEC7D5BD14F71427D1E84F3DD0314C0F7B2291E5B200AC8C7C3B925 DUP4 PUSH1 0x40 MLOAD PUSH2 0x112A SWAP2 SWAP1 PUSH2 0x260B JUMP JUMPDEST PUSH1 0x40 MLOAD DUP1 SWAP2 SUB SWAP1 LOG3 POP POP POP JUMP JUMPDEST PUSH1 0x0 PUSH20 0xFFFFFFFFFFFFFFFFFFFFFFFFFFFFFFFFFFFFFFFF AND DUP4 PUSH20 0xFFFFFFFFFFFFFFFFFFFFFFFFFFFFFFFFFFFFFFFF AND EQ ISZERO PUSH2 0x11A7 JUMPI PUSH1 0x40 MLOAD PUSH32 0x8C379A000000000000000000000000000000000000000000000000000000000 DUP2 MSTORE PUSH1 0x4 ADD PUSH2 0x119E SWAP1 PUSH2 0x2529 JUMP JUMPDEST PUSH1 0x40 MLOAD DUP1 SWAP2 SUB SWAP1 REVERT JUMPDEST PUSH1 0x0 PUSH20 0xFFFFFFFFFFFFFFFFFFFFFFFFFFFFFFFFFFFFFFFF AND DUP3 PUSH20 0xFFFFFFFFFFFFFFFFFFFFFFFFFFFFFFFFFFFFFFFF AND EQ ISZERO PUSH2 0x1217 JUMPI PUSH1 0x40 MLOAD PUSH32 0x8C379A000000000000000000000000000000000000000000000000000000000 DUP2 MSTORE PUSH1 0x4 ADD PUSH2 0x120E SWAP1 PUSH2 0x2549 JUMP JUMPDEST PUSH1 0x40 MLOAD DUP1 SWAP2 SUB SWAP1 REVERT JUMPDEST DUP1 PUSH1 0x8 PUSH1 0x0 DUP6 PUSH20 0xFFFFFFFFFFFFFFFFFFFFFFFFFFFFFFFFFFFFFFFF AND PUSH20 0xFFFFFFFFFFFFFFFFFFFFFFFFFFFFFFFFFFFFFFFF AND DUP2 MSTORE PUSH1 0x20 ADD SWAP1 DUP2 MSTORE PUSH1 0x20 ADD PUSH1 0x0 KECCAK256 SLOAD LT ISZERO PUSH2 0x1299 JUMPI PUSH1 0x40 MLOAD PUSH32 0x8C379A000000000000000000000000000000000000000000000000000000000 DUP2 MSTORE PUSH1 0x4 ADD PUSH2 0x1290 SWAP1 PUSH2 0x25C9 JUMP JUMPDEST PUSH1 0x40 MLOAD DUP1 SWAP2 SUB SWAP1 REVERT JUMPDEST DUP1 PUSH1 0x8 PUSH1 0x0 DUP6 PUSH20 0xFFFFFFFFFFFFFFFFFFFFFFFFFFFFFFFFFFFFFFFF AND PUSH20 0xFFFFFFFFFFFFFFFFFFFFFFFFFFFFFFFFFFFFFFFF AND DUP2 MSTORE PUSH1 0x20 ADD SWAP1 DUP2 MSTORE PUSH1 0x20 ADD PUSH1 0x0 KECCAK256 SLOAD PUSH2 0x12E4 SWAP2 SWAP1 PUSH2 0x27AE JUMP JUMPDEST PUSH1 0x8 PUSH1 0x0 DUP6 PUSH20 0xFFFFFFFFFFFFFFFFFFFFFFFFFFFFFFFFFFFFFFFF AND PUSH20 0xFFFFFFFFFFFFFFFFFFFFFFFFFFFFFFFFFFFFFFFF AND DUP2 MSTORE PUSH1 0x20 ADD SWAP1 DUP2 MSTORE PUSH1 0x20 ADD PUSH1 0x0 KECCAK256 DUP2 SWAP1 SSTORE POP DUP1 PUSH1 0x8 PUSH1 0x0 DUP5 PUSH20 0xFFFFFFFFFFFFFFFFFFFFFFFFFFFFFFFFFFFFFFFF AND PUSH20 0xFFFFFFFFFFFFFFFFFFFFFFFFFFFFFFFFFFFFFFFF AND DUP2 MSTORE PUSH1 0x20 ADD SWAP1 DUP2 MSTORE PUSH1 0x20 ADD PUSH1 0x0 KECCAK256 SLOAD PUSH2 0x1372 SWAP2 SWAP1 PUSH2 0x26CD JUMP JUMPDEST PUSH1 0x8 PUSH1 0x0 DUP5 PUSH20 0xFFFFFFFFFFFFFFFFFFFFFFFFFFFFFFFFFFFFFFFF AND PUSH20 0xFFFFFFFFFFFFFFFFFFFFFFFFFFFFFFFFFFFFFFFF AND DUP2 MSTORE PUSH1 0x20 ADD SWAP1 DUP2 MSTORE PUSH1 0x20 ADD PUSH1 0x0 KECCAK256 DUP2 SWAP1 SSTORE POP DUP2 PUSH20 0xFFFFFFFFFFFFFFFFFFFFFFFFFFFFFFFFFFFFFFFF AND DUP4 PUSH20 0xFFFFFFFFFFFFFFFFFFFFFFFFFFFFFFFFFFFFFFFF AND PUSH32 0xDDF252AD1BE2C89B69C2B068FC378DAA952BA7F163C4A11628F55A4DF523B3EF DUP4 PUSH1 0x40 MLOAD PUSH2 0x1412 SWAP2 SWAP1 PUSH2 0x260B JUMP JUMPDEST PUSH1 0x40 MLOAD DUP1 SWAP2 SUB SWAP1 LOG3 POP POP POP JUMP JUMPDEST PUSH1 0x0 PUSH20 0xFFFFFFFFFFFFFFFFFFFFFFFFFFFFFFFFFFFFFFFF AND DUP3 PUSH20 0xFFFFFFFFFFFFFFFFFFFFFFFFFFFFFFFFFFFFFFFF AND EQ ISZERO PUSH2 0x148F JUMPI PUSH1 0x40 MLOAD PUSH32 0x8C379A000000000000000000000000000000000000000000000000000000000 DUP2 MSTORE PUSH1 0x4 ADD PUSH2 0x1486 SWAP1 PUSH2 0x24E9 JUMP JUMPDEST PUSH1 0x40 MLOAD DUP1 SWAP2 SUB SWAP1 REVERT JUMPDEST DUP1 PUSH1 0x4 SLOAD PUSH2 0x149D SWAP2 SWAP1 PUSH2 0x26CD JUMP JUMPDEST PUSH1 0x4 DUP2 SWAP1 SSTORE POP DUP1 PUSH1 0x8 PUSH1 0x0 DUP5 PUSH20 0xFFFFFFFFFFFFFFFFFFFFFFFFFFFFFFFFFFFFFFFF AND PUSH20 0xFFFFFFFFFFFFFFFFFFFFFFFFFFFFFFFFFFFFFFFF AND DUP2 MSTORE PUSH1 0x20 ADD SWAP1 DUP2 MSTORE PUSH1 0x20 ADD PUSH1 0x0 KECCAK256 SLOAD PUSH2 0x14EE SWAP2 SWAP1 PUSH2 0x26CD JUMP JUMPDEST PUSH1 0x8 PUSH1 0x0 DUP5 PUSH20 0xFFFFFFFFFFFFFFFFFFFFFFFFFFFFFFFFFFFFFFFF AND PUSH20 0xFFFFFFFFFFFFFFFFFFFFFFFFFFFFFFFFFFFFFFFF AND DUP2 MSTORE PUSH1 0x20 ADD SWAP1 DUP2 MSTORE PUSH1 0x20 ADD PUSH1 0x0 KECCAK256 DUP2 SWAP1 SSTORE POP DUP2 PUSH20 0xFFFFFFFFFFFFFFFFFFFFFFFFFFFFFFFFFFFFFFFF AND PUSH1 0x0 PUSH20 0xFFFFFFFFFFFFFFFFFFFFFFFFFFFFFFFFFFFFFFFF AND PUSH32 0xDDF252AD1BE2C89B69C2B068FC378DAA952BA7F163C4A11628F55A4DF523B3EF DUP4 PUSH1 0x40 MLOAD PUSH2 0x158F SWAP2 SWAP1 PUSH2 0x260B JUMP JUMPDEST PUSH1 0x40 MLOAD DUP1 SWAP2 SUB SWAP1 LOG3 POP POP JUMP JUMPDEST PUSH1 0x0 PUSH20 0xFFFFFFFFFFFFFFFFFFFFFFFFFFFFFFFFFFFFFFFF AND DUP3 PUSH20 0xFFFFFFFFFFFFFFFFFFFFFFFFFFFFFFFFFFFFFFFF AND EQ ISZERO PUSH2 0x160B JUMPI PUSH1 0x40 MLOAD PUSH32 0x8C379A000000000000000000000000000000000000000000000000000000000 DUP2 MSTORE PUSH1 0x4 ADD PUSH2 0x1602 SWAP1 PUSH2 0x2429 JUMP JUMPDEST PUSH1 0x40 MLOAD DUP1 SWAP2 SUB SWAP1 REVERT JUMPDEST DUP1 PUSH1 0x8 PUSH1 0x0 DUP5 PUSH20 0xFFFFFFFFFFFFFFFFFFFFFFFFFFFFFFFFFFFFFFFF AND PUSH20 0xFFFFFFFFFFFFFFFFFFFFFFFFFFFFFFFFFFFFFFFF AND DUP2 MSTORE PUSH1 0x20 ADD SWAP1 DUP2 MSTORE PUSH1 0x20 ADD PUSH1 0x0 KECCAK256 SLOAD LT ISZERO PUSH2 0x168D JUMPI PUSH1 0x40 MLOAD PUSH32 0x8C379A000000000000000000000000000000000000000000000000000000000 DUP2 MSTORE PUSH1 0x4 ADD PUSH2 0x1684 SWAP1 PUSH2 0x2449 JUMP JUMPDEST PUSH1 0x40 MLOAD DUP1 SWAP2 SUB SWAP1 REVERT JUMPDEST DUP1 PUSH1 0x8 PUSH1 0x0 DUP5 PUSH20 0xFFFFFFFFFFFFFFFFFFFFFFFFFFFFFFFFFFFFFFFF AND PUSH20 0xFFFFFFFFFFFFFFFFFFFFFFFFFFFFFFFFFFFFFFFF AND DUP2 MSTORE PUSH1 0x20 ADD SWAP1 DUP2 MSTORE PUSH1 0x20 ADD PUSH1 0x0 KECCAK256 SLOAD PUSH2 0x16D8 SWAP2 SWAP1 PUSH2 0x27AE JUMP JUMPDEST PUSH1 0x8 PUSH1 0x0 DUP5 PUSH20 0xFFFFFFFFFFFFFFFFFFFFFFFFFFFFFFFFFFFFFFFF AND PUSH20 0xFFFFFFFFFFFFFFFFFFFFFFFFFFFFFFFFFFFFFFFF AND DUP2 MSTORE PUSH1 0x20 ADD SWAP1 DUP2 MSTORE PUSH1 0x20 ADD PUSH1 0x0 KECCAK256 DUP2 SWAP1 SSTORE POP DUP1 PUSH1 0x4 SLOAD PUSH2 0x1729 SWAP2 SWAP1 PUSH2 0x27AE JUMP JUMPDEST PUSH1 0x4 DUP2 SWAP1 SSTORE POP PUSH1 0x0 PUSH20 0xFFFFFFFFFFFFFFFFFFFFFFFFFFFFFFFFFFFFFFFF AND DUP3 PUSH20 0xFFFFFFFFFFFFFFFFFFFFFFFFFFFFFFFFFFFFFFFF AND PUSH32 0xDDF252AD1BE2C89B69C2B068FC378DAA952BA7F163C4A11628F55A4DF523B3EF DUP4 PUSH1 0x40 MLOAD PUSH2 0x178D SWAP2 SWAP1 PUSH2 0x260B JUMP JUMPDEST PUSH1 0x40 MLOAD DUP1 SWAP2 SUB SWAP1 LOG3 POP POP JUMP JUMPDEST PUSH1 0x0 DUP2 GT PUSH2 0x17DC JUMPI PUSH1 0x40 MLOAD PUSH32 0x8C379A000000000000000000000000000000000000000000000000000000000 DUP2 MSTORE PUSH1 0x4 ADD PUSH2 0x17D3 SWAP1 PUSH2 0x2589 JUMP JUMPDEST PUSH1 0x40 MLOAD DUP1 SWAP2 SUB SWAP1 REVERT JUMPDEST PUSH1 0x0 PUSH1 0x2 PUSH1 0x0 CALLER PUSH20 0xFFFFFFFFFFFFFFFFFFFFFFFFFFFFFFFFFFFFFFFF AND PUSH20 0xFFFFFFFFFFFFFFFFFFFFFFFFFFFFFFFFFFFFFFFF AND DUP2 MSTORE PUSH1 0x20 ADD SWAP1 DUP2 MSTORE PUSH1 0x20 ADD PUSH1 0x0 KECCAK256 SLOAD SWAP1 POP PUSH1 0x0 TIMESTAMP SWAP1 POP PUSH1 0x0 DUP3 EQ ISZERO PUSH2 0x183A JUMPI PUSH2 0x1837 CALLER PUSH2 0x1DB6 JUMP JUMPDEST SWAP2 POP JUMPDEST PUSH1 0x1 DUP3 DUP2 SLOAD DUP2 LT PUSH2 0x184E JUMPI PUSH2 0x184D PUSH2 0x2929 JUMP JUMPDEST JUMPDEST SWAP1 PUSH1 0x0 MSTORE PUSH1 0x20 PUSH1 0x0 KECCAK256 SWAP1 PUSH1 0x2 MUL ADD PUSH1 0x1 ADD PUSH1 0x40 MLOAD DUP1 PUSH1 0x80 ADD PUSH1 0x40 MSTORE DUP1 CALLER PUSH20 0xFFFFFFFFFFFFFFFFFFFFFFFFFFFFFFFFFFFFFFFF AND DUP2 MSTORE PUSH1 0x20 ADD DUP6 DUP2 MSTORE PUSH1 0x20 ADD DUP4 DUP2 MSTORE PUSH1 0x20 ADD PUSH1 0x0 DUP2 MSTORE POP SWAP1 DUP1 PUSH1 0x1 DUP2 SLOAD ADD DUP1 DUP3 SSTORE DUP1 SWAP2 POP POP PUSH1 0x1 SWAP1 SUB SWAP1 PUSH1 0x0 MSTORE PUSH1 0x20 PUSH1 0x0 KECCAK256 SWAP1 PUSH1 0x4 MUL ADD PUSH1 0x0 SWAP1 SWAP2 SWAP1 SWAP2 SWAP1 SWAP2 POP PUSH1 0x0 DUP3 ADD MLOAD DUP2 PUSH1 0x0 ADD PUSH1 0x0 PUSH2 0x100 EXP DUP2 SLOAD DUP2 PUSH20 0xFFFFFFFFFFFFFFFFFFFFFFFFFFFFFFFFFFFFFFFF MUL NOT AND SWAP1 DUP4 PUSH20 0xFFFFFFFFFFFFFFFFFFFFFFFFFFFFFFFFFFFFFFFF AND MUL OR SWAP1 SSTORE POP PUSH1 0x20 DUP3 ADD MLOAD DUP2 PUSH1 0x1 ADD SSTORE PUSH1 0x40 DUP3 ADD MLOAD DUP2 PUSH1 0x2 ADD SSTORE PUSH1 0x60 DUP3 ADD MLOAD DUP2 PUSH1 0x3 ADD SSTORE POP POP CALLER PUSH20 0xFFFFFFFFFFFFFFFFFFFFFFFFFFFFFFFFFFFFFFFF AND PUSH32 0xB4CAAF29ADDA3EEFEE3AD552A8E85058589BF834C7466CAE4EE58787F70589ED DUP5 DUP5 DUP5 PUSH1 0x40 MLOAD PUSH2 0x1971 SWAP4 SWAP3 SWAP2 SWAP1 PUSH2 0x2626 JUMP JUMPDEST PUSH1 0x40 MLOAD DUP1 SWAP2 SUB SWAP1 LOG2 POP POP POP JUMP JUMPDEST PUSH1 0x0 PUSH1 0x3 SLOAD DUP3 PUSH1 0x20 ADD MLOAD PUSH2 0xE10 DUP5 PUSH1 0x40 ADD MLOAD TIMESTAMP PUSH2 0x199B SWAP2 SWAP1 PUSH2 0x27AE JUMP JUMPDEST PUSH2 0x19A5 SWAP2 SWAP1 PUSH2 0x2723 JUMP JUMPDEST PUSH2 0x19AF SWAP2 SWAP1 PUSH2 0x2754 JUMP JUMPDEST PUSH2 0x19B9 SWAP2 SWAP1 PUSH2 0x2723 JUMP JUMPDEST SWAP1 POP SWAP2 SWAP1 POP JUMP JUMPDEST PUSH1 0x0 DUP1 PUSH1 0x2 PUSH1 0x0 CALLER PUSH20 0xFFFFFFFFFFFFFFFFFFFFFFFFFFFFFFFFFFFFFFFF AND PUSH20 0xFFFFFFFFFFFFFFFFFFFFFFFFFFFFFFFFFFFFFFFF AND DUP2 MSTORE PUSH1 0x20 ADD SWAP1 DUP2 MSTORE PUSH1 0x20 ADD PUSH1 0x0 KECCAK256 SLOAD SWAP1 POP PUSH1 0x0 PUSH1 0x1 DUP3 DUP2 SLOAD DUP2 LT PUSH2 0x1A1B JUMPI PUSH2 0x1A1A PUSH2 0x2929 JUMP JUMPDEST JUMPDEST SWAP1 PUSH1 0x0 MSTORE PUSH1 0x20 PUSH1 0x0 KECCAK256 SWAP1 PUSH1 0x2 MUL ADD PUSH1 0x1 ADD DUP5 DUP2 SLOAD DUP2 LT PUSH2 0x1A3E JUMPI PUSH2 0x1A3D PUSH2 0x2929 JUMP JUMPDEST JUMPDEST SWAP1 PUSH1 0x0 MSTORE PUSH1 0x20 PUSH1 0x0 KECCAK256 SWAP1 PUSH1 0x4 MUL ADD PUSH1 0x40 MLOAD DUP1 PUSH1 0x80 ADD PUSH1 0x40 MSTORE SWAP1 DUP2 PUSH1 0x0 DUP3 ADD PUSH1 0x0 SWAP1 SLOAD SWAP1 PUSH2 0x100 EXP SWAP1 DIV PUSH20 0xFFFFFFFFFFFFFFFFFFFFFFFFFFFFFFFFFFFFFFFF AND PUSH20 0xFFFFFFFFFFFFFFFFFFFFFFFFFFFFFFFFFFFFFFFF AND PUSH20 0xFFFFFFFFFFFFFFFFFFFFFFFFFFFFFFFFFFFFFFFF AND DUP2 MSTORE PUSH1 0x20 ADD PUSH1 0x1 DUP3 ADD SLOAD DUP2 MSTORE PUSH1 0x20 ADD PUSH1 0x2 DUP3 ADD SLOAD DUP2 MSTORE PUSH1 0x20 ADD PUSH1 0x3 DUP3 ADD SLOAD DUP2 MSTORE POP POP SWAP1 POP DUP5 DUP2 PUSH1 0x20 ADD MLOAD LT ISZERO PUSH2 0x1B14 JUMPI PUSH1 0x40 MLOAD PUSH32 0x8C379A000000000000000000000000000000000000000000000000000000000 DUP2 MSTORE PUSH1 0x4 ADD PUSH2 0x1B0B SWAP1 PUSH2 0x25A9 JUMP JUMPDEST PUSH1 0x40 MLOAD DUP1 SWAP2 SUB SWAP1 REVERT JUMPDEST PUSH1 0x0 PUSH2 0x1B1F DUP3 PUSH2 0x197E JUMP JUMPDEST SWAP1 POP DUP6 DUP3 PUSH1 0x20 ADD MLOAD PUSH2 0x1B31 SWAP2 SWAP1 PUSH2 0x27AE JUMP JUMPDEST DUP3 PUSH1 0x20 ADD DUP2 DUP2 MSTORE POP POP PUSH1 0x0 DUP3 PUSH1 0x20 ADD MLOAD EQ ISZERO PUSH2 0x1BD3 JUMPI PUSH1 0x1 DUP4 DUP2 SLOAD DUP2 LT PUSH2 0x1B5B JUMPI PUSH2 0x1B5A PUSH2 0x2929 JUMP JUMPDEST JUMPDEST SWAP1 PUSH1 0x0 MSTORE PUSH1 0x20 PUSH1 0x0 KECCAK256 SWAP1 PUSH1 0x2 MUL ADD PUSH1 0x1 ADD DUP6 DUP2 SLOAD DUP2 LT PUSH2 0x1B7E JUMPI PUSH2 0x1B7D PUSH2 0x2929 JUMP JUMPDEST JUMPDEST SWAP1 PUSH1 0x0 MSTORE PUSH1 0x20 PUSH1 0x0 KECCAK256 SWAP1 PUSH1 0x4 MUL ADD PUSH1 0x0 DUP1 DUP3 ADD PUSH1 0x0 PUSH2 0x100 EXP DUP2 SLOAD SWAP1 PUSH20 0xFFFFFFFFFFFFFFFFFFFFFFFFFFFFFFFFFFFFFFFF MUL NOT AND SWAP1 SSTORE PUSH1 0x1 DUP3 ADD PUSH1 0x0 SWAP1 SSTORE PUSH1 0x2 DUP3 ADD PUSH1 0x0 SWAP1 SSTORE PUSH1 0x3 DUP3 ADD PUSH1 0x0 SWAP1 SSTORE POP POP PUSH2 0x1C72 JUMP JUMPDEST DUP2 PUSH1 0x20 ADD MLOAD PUSH1 0x1 DUP5 DUP2 SLOAD DUP2 LT PUSH2 0x1BEC JUMPI PUSH2 0x1BEB PUSH2 0x2929 JUMP JUMPDEST JUMPDEST SWAP1 PUSH1 0x0 MSTORE PUSH1 0x20 PUSH1 0x0 KECCAK256 SWAP1 PUSH1 0x2 MUL ADD PUSH1 0x1 ADD DUP7 DUP2 SLOAD DUP2 LT PUSH2 0x1C0F JUMPI PUSH2 0x1C0E PUSH2 0x2929 JUMP JUMPDEST JUMPDEST SWAP1 PUSH1 0x0 MSTORE PUSH1 0x20 PUSH1 0x0 KECCAK256 SWAP1 PUSH1 0x4 MUL ADD PUSH1 0x1 ADD DUP2 SWAP1 SSTORE POP TIMESTAMP PUSH1 0x1 DUP5 DUP2 SLOAD DUP2 LT PUSH2 0x1C39 JUMPI PUSH2 0x1C38 PUSH2 0x2929 JUMP JUMPDEST JUMPDEST SWAP1 PUSH1 0x0 MSTORE PUSH1 0x20 PUSH1 0x0 KECCAK256 SWAP1 PUSH1 0x2 MUL ADD PUSH1 0x1 ADD DUP7 DUP2 SLOAD DUP2 LT PUSH2 0x1C5C JUMPI PUSH2 0x1C5B PUSH2 0x2929 JUMP JUMPDEST JUMPDEST SWAP1 PUSH1 0x0 MSTORE PUSH1 0x20 PUSH1 0x0 KECCAK256 SWAP1 PUSH1 0x4 MUL ADD PUSH1 0x2 ADD DUP2 SWAP1 SSTORE POP JUMPDEST DUP1 DUP7 PUSH2 0x1C7E SWAP2 SWAP1 PUSH2 0x26CD JUMP JUMPDEST SWAP4 POP POP POP POP SWAP3 SWAP2 POP POP JUMP JUMPDEST PUSH1 0x0 PUSH20 0xFFFFFFFFFFFFFFFFFFFFFFFFFFFFFFFFFFFFFFFF AND DUP2 PUSH20 0xFFFFFFFFFFFFFFFFFFFFFFFFFFFFFFFFFFFFFFFF AND EQ ISZERO PUSH2 0x1CF9 JUMPI PUSH1 0x40 MLOAD PUSH32 0x8C379A000000000000000000000000000000000000000000000000000000000 DUP2 MSTORE PUSH1 0x4 ADD PUSH2 0x1CF0 SWAP1 PUSH2 0x2489 JUMP JUMPDEST PUSH1 0x40 MLOAD DUP1 SWAP2 SUB SWAP1 REVERT JUMPDEST DUP1 PUSH20 0xFFFFFFFFFFFFFFFFFFFFFFFFFFFFFFFFFFFFFFFF AND PUSH1 0x0 DUP1 SLOAD SWAP1 PUSH2 0x100 EXP SWAP1 DIV PUSH20 0xFFFFFFFFFFFFFFFFFFFFFFFFFFFFFFFFFFFFFFFF AND PUSH20 0xFFFFFFFFFFFFFFFFFFFFFFFFFFFFFFFFFFFFFFFF AND PUSH32 0x8BE0079C531659141344CD1FD0A4F28419497F9722A3DAAFE3B4186F6B6457E0 PUSH1 0x40 MLOAD PUSH1 0x40 MLOAD DUP1 SWAP2 SUB SWAP1 LOG3 DUP1 PUSH1 0x0 DUP1 PUSH2 0x100 EXP DUP2 SLOAD DUP2 PUSH20 0xFFFFFFFFFFFFFFFFFFFFFFFFFFFFFFFFFFFFFFFF MUL NOT AND SWAP1 DUP4 PUSH20 0xFFFFFFFFFFFFFFFFFFFFFFFFFFFFFFFFFFFFFFFF AND MUL OR SWAP1 SSTORE POP POP JUMP JUMPDEST PUSH1 0x0 PUSH1 0x1 DUP1 DUP2 PUSH1 0x1 DUP2 SLOAD ADD DUP1 DUP3 SSTORE DUP1 SWAP2 POP POP SUB SWAP1 PUSH1 0x0 MSTORE PUSH1 0x20 PUSH1 0x0 KECCAK256 SWAP1 POP POP PUSH1 0x0 PUSH1 0x1 DUP1 DUP1 SLOAD SWAP1 POP PUSH2 0x1DE8 SWAP2 SWAP1 PUSH2 0x27AE JUMP JUMPDEST SWAP1 POP DUP3 PUSH1 0x1 DUP3 DUP2 SLOAD DUP2 LT PUSH2 0x1DFF JUMPI PUSH2 0x1DFE PUSH2 0x2929 JUMP JUMPDEST JUMPDEST SWAP1 PUSH1 0x0 MSTORE PUSH1 0x20 PUSH1 0x0 KECCAK256 SWAP1 PUSH1 0x2 MUL ADD PUSH1 0x0 ADD PUSH1 0x0 PUSH2 0x100 EXP DUP2 SLOAD DUP2 PUSH20 0xFFFFFFFFFFFFFFFFFFFFFFFFFFFFFFFFFFFFFFFF MUL NOT AND SWAP1 DUP4 PUSH20 0xFFFFFFFFFFFFFFFFFFFFFFFFFFFFFFFFFFFFFFFF AND MUL OR SWAP1 SSTORE POP DUP1 PUSH1 0x2 PUSH1 0x0 DUP6 PUSH20 0xFFFFFFFFFFFFFFFFFFFFFFFFFFFFFFFFFFFFFFFF AND PUSH20 0xFFFFFFFFFFFFFFFFFFFFFFFFFFFFFFFFFFFFFFFF AND DUP2 MSTORE PUSH1 0x20 ADD SWAP1 DUP2 MSTORE PUSH1 0x20 ADD PUSH1 0x0 KECCAK256 DUP2 SWAP1 SSTORE POP DUP1 SWAP2 POP POP SWAP2 SWAP1 POP JUMP JUMPDEST PUSH1 0x40 MLOAD DUP1 PUSH1 0x40 ADD PUSH1 0x40 MSTORE DUP1 PUSH1 0x0 DUP2 MSTORE PUSH1 0x20 ADD PUSH1 0x60 DUP2 MSTORE POP SWAP1 JUMP JUMPDEST PUSH1 0x0 DUP2 CALLDATALOAD SWAP1 POP PUSH2 0x1EC4 DUP2 PUSH2 0x2D74 JUMP JUMPDEST SWAP3 SWAP2 POP POP JUMP JUMPDEST PUSH1 0x0 DUP2 CALLDATALOAD SWAP1 POP PUSH2 0x1ED9 DUP2 PUSH2 0x2D8B JUMP JUMPDEST SWAP3 SWAP2 POP POP JUMP JUMPDEST PUSH1 0x0 PUSH1 0x20 DUP3 DUP5 SUB SLT ISZERO PUSH2 0x1EF5 JUMPI PUSH2 0x1EF4 PUSH2 0x2958 JUMP JUMPDEST JUMPDEST PUSH1 0x0 PUSH2 0x1F03 DUP5 DUP3 DUP6 ADD PUSH2 0x1EB5 JUMP JUMPDEST SWAP2 POP POP SWAP3 SWAP2 POP POP JUMP JUMPDEST PUSH1 0x0 DUP1 PUSH1 0x40 DUP4 DUP6 SUB SLT ISZERO PUSH2 0x1F23 JUMPI PUSH2 0x1F22 PUSH2 0x2958 JUMP JUMPDEST JUMPDEST PUSH1 0x0 PUSH2 0x1F31 DUP6 DUP3 DUP7 ADD PUSH2 0x1EB5 JUMP JUMPDEST SWAP3 POP POP PUSH1 0x20 PUSH2 0x1F42 DUP6 DUP3 DUP7 ADD PUSH2 0x1EB5 JUMP JUMPDEST SWAP2 POP POP SWAP3 POP SWAP3 SWAP1 POP JUMP JUMPDEST PUSH1 0x0 DUP1 PUSH1 0x0 PUSH1 0x60 DUP5 DUP7 SUB SLT ISZERO PUSH2 0x1F65 JUMPI PUSH2 0x1F64 PUSH2 0x2958 JUMP JUMPDEST JUMPDEST PUSH1 0x0 PUSH2 0x1F73 DUP7 DUP3 DUP8 ADD PUSH2 0x1EB5 JUMP JUMPDEST SWAP4 POP POP PUSH1 0x20 PUSH2 0x1F84 DUP7 DUP3 DUP8 ADD PUSH2 0x1EB5 JUMP JUMPDEST SWAP3 POP POP PUSH1 0x40 PUSH2 0x1F95 DUP7 DUP3 DUP8 ADD PUSH2 0x1ECA JUMP JUMPDEST SWAP2 POP POP SWAP3 POP SWAP3 POP SWAP3 JUMP JUMPDEST PUSH1 0x0 DUP1 PUSH1 0x40 DUP4 DUP6 SUB SLT ISZERO PUSH2 0x1FB6 JUMPI PUSH2 0x1FB5 PUSH2 0x2958 JUMP JUMPDEST JUMPDEST PUSH1 0x0 PUSH2 0x1FC4 DUP6 DUP3 DUP7 ADD PUSH2 0x1EB5 JUMP JUMPDEST SWAP3 POP POP PUSH1 0x20 PUSH2 0x1FD5 DUP6 DUP3 DUP7 ADD PUSH2 0x1ECA JUMP JUMPDEST SWAP2 POP POP SWAP3 POP SWAP3 SWAP1 POP JUMP JUMPDEST PUSH1 0x0 PUSH1 0x20 DUP3 DUP5 SUB SLT ISZERO PUSH2 0x1FF5 JUMPI PUSH2 0x1FF4 PUSH2 0x2958 JUMP JUMPDEST JUMPDEST PUSH1 0x0 PUSH2 0x2003 DUP5 DUP3 DUP6 ADD PUSH2 0x1ECA JUMP JUMPDEST SWAP2 POP POP SWAP3 SWAP2 POP POP JUMP JUMPDEST PUSH1 0x0 DUP1 PUSH1 0x40 DUP4 DUP6 SUB SLT ISZERO PUSH2 0x2023 JUMPI PUSH2 0x2022 PUSH2 0x2958 JUMP JUMPDEST JUMPDEST PUSH1 0x0 PUSH2 0x2031 DUP6 DUP3 DUP7 ADD PUSH2 0x1ECA JUMP JUMPDEST SWAP3 POP POP PUSH1 0x20 PUSH2 0x2042 DUP6 DUP3 DUP7 ADD PUSH2 0x1ECA JUMP JUMPDEST SWAP2 POP POP SWAP3 POP SWAP3 SWAP1 POP JUMP JUMPDEST PUSH1 0x0 PUSH2 0x2058 DUP4 DUP4 PUSH2 0x2312 JUMP JUMPDEST PUSH1 0x80 DUP4 ADD SWAP1 POP SWAP3 SWAP2 POP POP JUMP JUMPDEST PUSH2 0x206D DUP2 PUSH2 0x27E2 JUMP JUMPDEST DUP3 MSTORE POP POP JUMP JUMPDEST PUSH2 0x207C DUP2 PUSH2 0x27E2 JUMP JUMPDEST DUP3 MSTORE POP POP JUMP JUMPDEST PUSH1 0x0 PUSH2 0x208D DUP3 PUSH2 0x2688 JUMP JUMPDEST PUSH2 0x2097 DUP2 DUP6 PUSH2 0x26AB JUMP JUMPDEST SWAP4 POP PUSH2 0x20A2 DUP4 PUSH2 0x2678 JUMP JUMPDEST DUP1 PUSH1 0x0 JUMPDEST DUP4 DUP2 LT ISZERO PUSH2 0x20D3 JUMPI DUP2 MLOAD PUSH2 0x20BA DUP9 DUP3 PUSH2 0x204C JUMP JUMPDEST SWAP8 POP PUSH2 0x20C5 DUP4 PUSH2 0x269E JUMP JUMPDEST SWAP3 POP POP PUSH1 0x1 DUP2 ADD SWAP1 POP PUSH2 0x20A6 JUMP JUMPDEST POP DUP6 SWAP4 POP POP POP POP SWAP3 SWAP2 POP POP JUMP JUMPDEST PUSH2 0x20E9 DUP2 PUSH2 0x27F4 JUMP JUMPDEST DUP3 MSTORE POP POP JUMP JUMPDEST PUSH1 0x0 PUSH2 0x20FA DUP3 PUSH2 0x2693 JUMP JUMPDEST PUSH2 0x2104 DUP2 DUP6 PUSH2 0x26BC JUMP JUMPDEST SWAP4 POP PUSH2 0x2114 DUP2 DUP6 PUSH1 0x20 DUP7 ADD PUSH2 0x2837 JUMP JUMPDEST PUSH2 0x211D DUP2 PUSH2 0x295D JUMP JUMPDEST DUP5 ADD SWAP2 POP POP SWAP3 SWAP2 POP POP JUMP JUMPDEST PUSH1 0x0 PUSH2 0x2135 PUSH1 0x24 DUP4 PUSH2 0x26BC JUMP JUMPDEST SWAP2 POP PUSH2 0x2140 DUP3 PUSH2 0x296E JUMP JUMPDEST PUSH1 0x40 DUP3 ADD SWAP1 POP SWAP2 SWAP1 POP JUMP JUMPDEST PUSH1 0x0 PUSH2 0x2158 PUSH1 0x2D DUP4 PUSH2 0x26BC JUMP JUMPDEST SWAP2 POP PUSH2 0x2163 DUP3 PUSH2 0x29BD JUMP JUMPDEST PUSH1 0x40 DUP3 ADD SWAP1 POP SWAP2 SWAP1 POP JUMP JUMPDEST PUSH1 0x0 PUSH2 0x217B PUSH1 0x2A DUP4 PUSH2 0x26BC JUMP JUMPDEST SWAP2 POP PUSH2 0x2186 DUP3 PUSH2 0x2A0C JUMP JUMPDEST PUSH1 0x40 DUP3 ADD SWAP1 POP SWAP2 SWAP1 POP JUMP JUMPDEST PUSH1 0x0 PUSH2 0x219E PUSH1 0x26 DUP4 PUSH2 0x26BC JUMP JUMPDEST SWAP2 POP PUSH2 0x21A9 DUP3 PUSH2 0x2A5B JUMP JUMPDEST PUSH1 0x40 DUP3 ADD SWAP1 POP SWAP2 SWAP1 POP JUMP JUMPDEST PUSH1 0x0 PUSH2 0x21C1 PUSH1 0x2F DUP4 PUSH2 0x26BC JUMP JUMPDEST SWAP2 POP PUSH2 0x21CC DUP3 PUSH2 0x2AAA JUMP JUMPDEST PUSH1 0x40 DUP3 ADD SWAP1 POP SWAP2 SWAP1 POP JUMP JUMPDEST PUSH1 0x0 PUSH2 0x21E4 PUSH1 0x31 DUP4 PUSH2 0x26BC JUMP JUMPDEST SWAP2 POP PUSH2 0x21EF DUP3 PUSH2 0x2AF9 JUMP JUMPDEST PUSH1 0x40 DUP3 ADD SWAP1 POP SWAP2 SWAP1 POP JUMP JUMPDEST PUSH1 0x0 PUSH2 0x2207 PUSH1 0x22 DUP4 PUSH2 0x26BC JUMP JUMPDEST SWAP2 POP PUSH2 0x2212 DUP3 PUSH2 0x2B48 JUMP JUMPDEST PUSH1 0x40 DUP3 ADD SWAP1 POP SWAP2 SWAP1 POP JUMP JUMPDEST PUSH1 0x0 PUSH2 0x222A PUSH1 0x25 DUP4 PUSH2 0x26BC JUMP JUMPDEST SWAP2 POP PUSH2 0x2235 DUP3 PUSH2 0x2B97 JUMP JUMPDEST PUSH1 0x40 DUP3 ADD SWAP1 POP SWAP2 SWAP1 POP JUMP JUMPDEST PUSH1 0x0 PUSH2 0x224D PUSH1 0x21 DUP4 PUSH2 0x26BC JUMP JUMPDEST SWAP2 POP PUSH2 0x2258 DUP3 PUSH2 0x2BE6 JUMP JUMPDEST PUSH1 0x40 DUP3 ADD SWAP1 POP SWAP2 SWAP1 POP JUMP JUMPDEST PUSH1 0x0 PUSH2 0x2270 PUSH1 0x1F DUP4 PUSH2 0x26BC JUMP JUMPDEST SWAP2 POP PUSH2 0x227B DUP3 PUSH2 0x2C35 JUMP JUMPDEST PUSH1 0x20 DUP3 ADD SWAP1 POP SWAP2 SWAP1 POP JUMP JUMPDEST PUSH1 0x0 PUSH2 0x2293 PUSH1 0x28 DUP4 PUSH2 0x26BC JUMP JUMPDEST SWAP2 POP PUSH2 0x229E DUP3 PUSH2 0x2C5E JUMP JUMPDEST PUSH1 0x40 DUP3 ADD SWAP1 POP SWAP2 SWAP1 POP JUMP JUMPDEST PUSH1 0x0 PUSH2 0x22B6 PUSH1 0x14 DUP4 PUSH2 0x26BC JUMP JUMPDEST SWAP2 POP PUSH2 0x22C1 DUP3 PUSH2 0x2CAD JUMP JUMPDEST PUSH1 0x20 DUP3 ADD SWAP1 POP SWAP2 SWAP1 POP JUMP JUMPDEST PUSH1 0x0 PUSH2 0x22D9 PUSH1 0x32 DUP4 PUSH2 0x26BC JUMP JUMPDEST SWAP2 POP PUSH2 0x22E4 DUP3 PUSH2 0x2CD6 JUMP JUMPDEST PUSH1 0x40 DUP3 ADD SWAP1 POP SWAP2 SWAP1 POP JUMP JUMPDEST PUSH1 0x0 PUSH2 0x22FC PUSH1 0x31 DUP4 PUSH2 0x26BC JUMP JUMPDEST SWAP2 POP PUSH2 0x2307 DUP3 PUSH2 0x2D25 JUMP JUMPDEST PUSH1 0x40 DUP3 ADD SWAP1 POP SWAP2 SWAP1 POP JUMP JUMPDEST PUSH1 0x80 DUP3 ADD PUSH1 0x0 DUP3 ADD MLOAD PUSH2 0x2328 PUSH1 0x0 DUP6 ADD DUP3 PUSH2 0x2064 JUMP JUMPDEST POP PUSH1 0x20 DUP3 ADD MLOAD PUSH2 0x233B PUSH1 0x20 DUP6 ADD DUP3 PUSH2 0x23A4 JUMP JUMPDEST POP PUSH1 0x40 DUP3 ADD MLOAD PUSH2 0x234E PUSH1 0x40 DUP6 ADD DUP3 PUSH2 0x23A4 JUMP JUMPDEST POP PUSH1 0x60 DUP3 ADD MLOAD PUSH2 0x2361 PUSH1 0x60 DUP6 ADD DUP3 PUSH2 0x23A4 JUMP JUMPDEST POP POP POP POP JUMP JUMPDEST PUSH1 0x0 PUSH1 0x40 DUP4 ADD PUSH1 0x0 DUP4 ADD MLOAD PUSH2 0x237F PUSH1 0x0 DUP7 ADD DUP3 PUSH2 0x23A4 JUMP JUMPDEST POP PUSH1 0x20 DUP4 ADD MLOAD DUP5 DUP3 SUB PUSH1 0x20 DUP7 ADD MSTORE PUSH2 0x2397 DUP3 DUP3 PUSH2 0x2082 JUMP JUMPDEST SWAP2 POP POP DUP1 SWAP2 POP POP SWAP3 SWAP2 POP POP JUMP JUMPDEST PUSH2 0x23AD DUP2 PUSH2 0x2820 JUMP JUMPDEST DUP3 MSTORE POP POP JUMP JUMPDEST PUSH2 0x23BC DUP2 PUSH2 0x2820 JUMP JUMPDEST DUP3 MSTORE POP POP JUMP JUMPDEST PUSH2 0x23CB DUP2 PUSH2 0x282A JUMP JUMPDEST DUP3 MSTORE POP POP JUMP JUMPDEST PUSH1 0x0 PUSH1 0x20 DUP3 ADD SWAP1 POP PUSH2 0x23E6 PUSH1 0x0 DUP4 ADD DUP5 PUSH2 0x2073 JUMP JUMPDEST SWAP3 SWAP2 POP POP JUMP JUMPDEST PUSH1 0x0 PUSH1 0x20 DUP3 ADD SWAP1 POP PUSH2 0x2401 PUSH1 0x0 DUP4 ADD DUP5 PUSH2 0x20E0 JUMP JUMPDEST SWAP3 SWAP2 POP POP JUMP JUMPDEST PUSH1 0x0 PUSH1 0x20 DUP3 ADD SWAP1 POP DUP2 DUP2 SUB PUSH1 0x0 DUP4 ADD MSTORE PUSH2 0x2421 DUP2 DUP5 PUSH2 0x20EF JUMP JUMPDEST SWAP1 POP SWAP3 SWAP2 POP POP JUMP JUMPDEST PUSH1 0x0 PUSH1 0x20 DUP3 ADD SWAP1 POP DUP2 DUP2 SUB PUSH1 0x0 DUP4 ADD MSTORE PUSH2 0x2442 DUP2 PUSH2 0x2128 JUMP JUMPDEST SWAP1 POP SWAP2 SWAP1 POP JUMP JUMPDEST PUSH1 0x0 PUSH1 0x20 DUP3 ADD SWAP1 POP DUP2 DUP2 SUB PUSH1 0x0 DUP4 ADD MSTORE PUSH2 0x2462 DUP2 PUSH2 0x214B JUMP JUMPDEST SWAP1 POP SWAP2 SWAP1 POP JUMP JUMPDEST PUSH1 0x0 PUSH1 0x20 DUP3 ADD SWAP1 POP DUP2 DUP2 SUB PUSH1 0x0 DUP4 ADD MSTORE PUSH2 0x2482 DUP2 PUSH2 0x216E JUMP JUMPDEST SWAP1 POP SWAP2 SWAP1 POP JUMP JUMPDEST PUSH1 0x0 PUSH1 0x20 DUP3 ADD SWAP1 POP DUP2 DUP2 SUB PUSH1 0x0 DUP4 ADD MSTORE PUSH2 0x24A2 DUP2 PUSH2 0x2191 JUMP JUMPDEST SWAP1 POP SWAP2 SWAP1 POP JUMP JUMPDEST PUSH1 0x0 PUSH1 0x20 DUP3 ADD SWAP1 POP DUP2 DUP2 SUB PUSH1 0x0 DUP4 ADD MSTORE PUSH2 0x24C2 DUP2 PUSH2 0x21B4 JUMP JUMPDEST SWAP1 POP SWAP2 SWAP1 POP JUMP JUMPDEST PUSH1 0x0 PUSH1 0x20 DUP3 ADD SWAP1 POP DUP2 DUP2 SUB PUSH1 0x0 DUP4 ADD MSTORE PUSH2 0x24E2 DUP2 PUSH2 0x21D7 JUMP JUMPDEST SWAP1 POP SWAP2 SWAP1 POP JUMP JUMPDEST PUSH1 0x0 PUSH1 0x20 DUP3 ADD SWAP1 POP DUP2 DUP2 SUB PUSH1 0x0 DUP4 ADD MSTORE PUSH2 0x2502 DUP2 PUSH2 0x21FA JUMP JUMPDEST SWAP1 POP SWAP2 SWAP1 POP JUMP JUMPDEST PUSH1 0x0 PUSH1 0x20 DUP3 ADD SWAP1 POP DUP2 DUP2 SUB PUSH1 0x0 DUP4 ADD MSTORE PUSH2 0x2522 DUP2 PUSH2 0x221D JUMP JUMPDEST SWAP1 POP SWAP2 SWAP1 POP JUMP JUMPDEST PUSH1 0x0 PUSH1 0x20 DUP3 ADD SWAP1 POP DUP2 DUP2 SUB PUSH1 0x0 DUP4 ADD MSTORE PUSH2 0x2542 DUP2 PUSH2 0x2240 JUMP JUMPDEST SWAP1 POP SWAP2 SWAP1 POP JUMP JUMPDEST PUSH1 0x0 PUSH1 0x20 DUP3 ADD SWAP1 POP DUP2 DUP2 SUB PUSH1 0x0 DUP4 ADD MSTORE PUSH2 0x2562 DUP2 PUSH2 0x2263 JUMP JUMPDEST SWAP1 POP SWAP2 SWAP1 POP JUMP JUMPDEST PUSH1 0x0 PUSH1 0x20 DUP3 ADD SWAP1 POP DUP2 DUP2 SUB PUSH1 0x0 DUP4 ADD MSTORE PUSH2 0x2582 DUP2 PUSH2 0x2286 JUMP JUMPDEST SWAP1 POP SWAP2 SWAP1 POP JUMP JUMPDEST PUSH1 0x0 PUSH1 0x20 DUP3 ADD SWAP1 POP DUP2 DUP2 SUB PUSH1 0x0 DUP4 ADD MSTORE PUSH2 0x25A2 DUP2 PUSH2 0x22A9 JUMP JUMPDEST SWAP1 POP SWAP2 SWAP1 POP JUMP JUMPDEST PUSH1 0x0 PUSH1 0x20 DUP3 ADD SWAP1 POP DUP2 DUP2 SUB PUSH1 0x0 DUP4 ADD MSTORE PUSH2 0x25C2 DUP2 PUSH2 0x22CC JUMP JUMPDEST SWAP1 POP SWAP2 SWAP1 POP JUMP JUMPDEST PUSH1 0x0 PUSH1 0x20 DUP3 ADD SWAP1 POP DUP2 DUP2 SUB PUSH1 0x0 DUP4 ADD MSTORE PUSH2 0x25E2 DUP2 PUSH2 0x22EF JUMP JUMPDEST SWAP1 POP SWAP2 SWAP1 POP JUMP JUMPDEST PUSH1 0x0 PUSH1 0x20 DUP3 ADD SWAP1 POP DUP2 DUP2 SUB PUSH1 0x0 DUP4 ADD MSTORE PUSH2 0x2603 DUP2 DUP5 PUSH2 0x2367 JUMP JUMPDEST SWAP1 POP SWAP3 SWAP2 POP POP JUMP JUMPDEST PUSH1 0x0 PUSH1 0x20 DUP3 ADD SWAP1 POP PUSH2 0x2620 PUSH1 0x0 DUP4 ADD DUP5 PUSH2 0x23B3 JUMP JUMPDEST SWAP3 SWAP2 POP POP JUMP JUMPDEST PUSH1 0x0 PUSH1 0x60 DUP3 ADD SWAP1 POP PUSH2 0x263B PUSH1 0x0 DUP4 ADD DUP7 PUSH2 0x23B3 JUMP JUMPDEST PUSH2 0x2648 PUSH1 0x20 DUP4 ADD DUP6 PUSH2 0x23B3 JUMP JUMPDEST PUSH2 0x2655 PUSH1 0x40 DUP4 ADD DUP5 PUSH2 0x23B3 JUMP JUMPDEST SWAP5 SWAP4 POP POP POP POP JUMP JUMPDEST PUSH1 0x0 PUSH1 0x20 DUP3 ADD SWAP1 POP PUSH2 0x2672 PUSH1 0x0 DUP4 ADD DUP5 PUSH2 0x23C2 JUMP JUMPDEST SWAP3 SWAP2 POP POP JUMP JUMPDEST PUSH1 0x0 DUP2 SWAP1 POP PUSH1 0x20 DUP3 ADD SWAP1 POP SWAP2 SWAP1 POP JUMP JUMPDEST PUSH1 0x0 DUP2 MLOAD SWAP1 POP SWAP2 SWAP1 POP JUMP JUMPDEST PUSH1 0x0 DUP2 MLOAD SWAP1 POP SWAP2 SWAP1 POP JUMP JUMPDEST PUSH1 0x0 PUSH1 0x20 DUP3 ADD SWAP1 POP SWAP2 SWAP1 POP JUMP JUMPDEST PUSH1 0x0 DUP3 DUP3 MSTORE PUSH1 0x20 DUP3 ADD SWAP1 POP SWAP3 SWAP2 POP POP JUMP JUMPDEST PUSH1 0x0 DUP3 DUP3 MSTORE PUSH1 0x20 DUP3 ADD SWAP1 POP SWAP3 SWAP2 POP POP JUMP JUMPDEST PUSH1 0x0 PUSH2 0x26D8 DUP3 PUSH2 0x2820 JUMP JUMPDEST SWAP2 POP PUSH2 0x26E3 DUP4 PUSH2 0x2820 JUMP JUMPDEST SWAP3 POP DUP3 PUSH32 0xFFFFFFFFFFFFFFFFFFFFFFFFFFFFFFFFFFFFFFFFFFFFFFFFFFFFFFFFFFFFFFFF SUB DUP3 GT ISZERO PUSH2 0x2718 JUMPI PUSH2 0x2717 PUSH2 0x289C JUMP JUMPDEST JUMPDEST DUP3 DUP3 ADD SWAP1 POP SWAP3 SWAP2 POP POP JUMP JUMPDEST PUSH1 0x0 PUSH2 0x272E DUP3 PUSH2 0x2820 JUMP JUMPDEST SWAP2 POP PUSH2 0x2739 DUP4 PUSH2 0x2820 JUMP JUMPDEST SWAP3 POP DUP3 PUSH2 0x2749 JUMPI PUSH2 0x2748 PUSH2 0x28CB JUMP JUMPDEST JUMPDEST DUP3 DUP3 DIV SWAP1 POP SWAP3 SWAP2 POP POP JUMP JUMPDEST PUSH1 0x0 PUSH2 0x275F DUP3 PUSH2 0x2820 JUMP JUMPDEST SWAP2 POP PUSH2 0x276A DUP4 PUSH2 0x2820 JUMP JUMPDEST SWAP3 POP DUP2 PUSH32 0xFFFFFFFFFFFFFFFFFFFFFFFFFFFFFFFFFFFFFFFFFFFFFFFFFFFFFFFFFFFFFFFF DIV DUP4 GT DUP3 ISZERO ISZERO AND ISZERO PUSH2 0x27A3 JUMPI PUSH2 0x27A2 PUSH2 0x289C JUMP JUMPDEST JUMPDEST DUP3 DUP3 MUL SWAP1 POP SWAP3 SWAP2 POP POP JUMP JUMPDEST PUSH1 0x0 PUSH2 0x27B9 DUP3 PUSH2 0x2820 JUMP JUMPDEST SWAP2 POP PUSH2 0x27C4 DUP4 PUSH2 0x2820 JUMP JUMPDEST SWAP3 POP DUP3 DUP3 LT ISZERO PUSH2 0x27D7 JUMPI PUSH2 0x27D6 PUSH2 0x289C JUMP JUMPDEST JUMPDEST DUP3 DUP3 SUB SWAP1 POP SWAP3 SWAP2 POP POP JUMP JUMPDEST PUSH1 0x0 PUSH2 0x27ED DUP3 PUSH2 0x2800 JUMP JUMPDEST SWAP1 POP SWAP2 SWAP1 POP JUMP JUMPDEST PUSH1 0x0 DUP2 ISZERO ISZERO SWAP1 POP SWAP2 SWAP1 POP JUMP JUMPDEST PUSH1 0x0 PUSH20 0xFFFFFFFFFFFFFFFFFFFFFFFFFFFFFFFFFFFFFFFF DUP3 AND SWAP1 POP SWAP2 SWAP1 POP JUMP JUMPDEST PUSH1 0x0 DUP2 SWAP1 POP SWAP2 SWAP1 POP JUMP JUMPDEST PUSH1 0x0 PUSH1 0xFF DUP3 AND SWAP1 POP SWAP2 SWAP1 POP JUMP JUMPDEST PUSH1 0x0 JUMPDEST DUP4 DUP2 LT ISZERO PUSH2 0x2855 JUMPI DUP1 DUP3 ADD MLOAD DUP2 DUP5 ADD MSTORE PUSH1 0x20 DUP2 ADD SWAP1 POP PUSH2 0x283A JUMP JUMPDEST DUP4 DUP2 GT ISZERO PUSH2 0x2864 JUMPI PUSH1 0x0 DUP5 DUP5 ADD MSTORE JUMPDEST POP POP POP POP JUMP JUMPDEST PUSH1 0x0 PUSH1 0x2 DUP3 DIV SWAP1 POP PUSH1 0x1 DUP3 AND DUP1 PUSH2 0x2882 JUMPI PUSH1 0x7F DUP3 AND SWAP2 POP JUMPDEST PUSH1 0x20 DUP3 LT DUP2 EQ ISZERO PUSH2 0x2896 JUMPI PUSH2 0x2895 PUSH2 0x28FA JUMP JUMPDEST JUMPDEST POP SWAP2 SWAP1 POP JUMP JUMPDEST PUSH32 0x4E487B7100000000000000000000000000000000000000000000000000000000 PUSH1 0x0 MSTORE PUSH1 0x11 PUSH1 0x4 MSTORE PUSH1 0x24 PUSH1 0x0 REVERT JUMPDEST PUSH32 0x4E487B7100000000000000000000000000000000000000000000000000000000 PUSH1 0x0 MSTORE PUSH1 0x12 PUSH1 0x4 MSTORE PUSH1 0x24 PUSH1 0x0 REVERT JUMPDEST PUSH32 0x4E487B7100000000000000000000000000000000000000000000000000000000 PUSH1 0x0 MSTORE PUSH1 0x22 PUSH1 0x4 MSTORE PUSH1 0x24 PUSH1 0x0 REVERT JUMPDEST PUSH32 0x4E487B7100000000000000000000000000000000000000000000000000000000 PUSH1 0x0 MSTORE PUSH1 0x32 PUSH1 0x4 MSTORE PUSH1 0x24 PUSH1 0x0 REVERT JUMPDEST PUSH1 0x0 DUP1 REVERT JUMPDEST PUSH1 0x0 PUSH1 0x1F NOT PUSH1 0x1F DUP4 ADD AND SWAP1 POP SWAP2 SWAP1 POP JUMP JUMPDEST PUSH32 0x4D657472613A2063616E6E6F74206275726E2066726F6D207A65726F20616464 PUSH1 0x0 DUP3 ADD MSTORE PUSH32 0x7265737300000000000000000000000000000000000000000000000000000000 PUSH1 0x20 DUP3 ADD MSTORE POP JUMP JUMPDEST PUSH32 0x4D657472613A2043616E6E6F74206275726E206D6F7265207468616E20746865 PUSH1 0x0 DUP3 ADD MSTORE PUSH32 0x206163636F756E74206F776E7300000000000000000000000000000000000000 PUSH1 0x20 DUP3 ADD MSTORE POP JUMP JUMPDEST PUSH32 0x4F776E61626C653A206F6E6C79206F776E65722063616E2063616C6C20746869 PUSH1 0x0 DUP3 ADD MSTORE PUSH32 0x732066756E6374696F6E00000000000000000000000000000000000000000000 PUSH1 0x20 DUP3 ADD MSTORE POP JUMP JUMPDEST PUSH32 0x4F776E61626C653A206E6577206F776E657220697320746865207A65726F2061 PUSH1 0x0 DUP3 ADD MSTORE PUSH32 0x6464726573730000000000000000000000000000000000000000000000000000 PUSH1 0x20 DUP3 ADD MSTORE POP JUMP JUMPDEST PUSH32 0x4D657472613A20617070726F76652063616E6E6F7420626520646F6E65206672 PUSH1 0x0 DUP3 ADD MSTORE PUSH32 0x6F6D207A65726F20616464726573730000000000000000000000000000000000 PUSH1 0x20 DUP3 ADD MSTORE POP JUMP JUMPDEST PUSH32 0x4D657472613A20596F752063616E6E6F74207370656E642074686174206D7563 PUSH1 0x0 DUP3 ADD MSTORE PUSH32 0x68206F6E2074686973206163636F756E74000000000000000000000000000000 PUSH1 0x20 DUP3 ADD MSTORE POP JUMP JUMPDEST PUSH32 0x4D657472613A2063616E6E6F74206D696E7420746F207A65726F206164647265 PUSH1 0x0 DUP3 ADD MSTORE PUSH32 0x7373000000000000000000000000000000000000000000000000000000000000 PUSH1 0x20 DUP3 ADD MSTORE POP JUMP JUMPDEST PUSH32 0x4D657472613A2043616E6E6F74207374616B65206D6F7265207468616E20796F PUSH1 0x0 DUP3 ADD MSTORE PUSH32 0x75206F776E000000000000000000000000000000000000000000000000000000 PUSH1 0x20 DUP3 ADD MSTORE POP JUMP JUMPDEST PUSH32 0x4D657472613A207472616E736665722066726F6D207A65726F20616464726573 PUSH1 0x0 DUP3 ADD MSTORE PUSH32 0x7300000000000000000000000000000000000000000000000000000000000000 PUSH1 0x20 DUP3 ADD MSTORE POP JUMP JUMPDEST PUSH32 0x4D657472613A207472616E7366657220746F207A65726F206164647265737300 PUSH1 0x0 DUP3 ADD MSTORE POP JUMP JUMPDEST PUSH32 0x4D657472613A20617070726F76652063616E6E6F7420626520746F207A65726F PUSH1 0x0 DUP3 ADD MSTORE PUSH32 0x2061646472657373000000000000000000000000000000000000000000000000 PUSH1 0x20 DUP3 ADD MSTORE POP JUMP JUMPDEST PUSH32 0x43616E6E6F74207374616B65206E6F7468696E67000000000000000000000000 PUSH1 0x0 DUP3 ADD MSTORE POP JUMP JUMPDEST PUSH32 0x5374616B696E673A2043616E6E6F74207769746864726177206D6F7265207468 PUSH1 0x0 DUP3 ADD MSTORE PUSH32 0x616E20796F752068617665207374616B65640000000000000000000000000000 PUSH1 0x20 DUP3 ADD MSTORE POP JUMP JUMPDEST PUSH32 0x4D657472613A2063616E74207472616E73666572206D6F7265207468616E2079 PUSH1 0x0 DUP3 ADD MSTORE PUSH32 0x6F7572206163636F756E7420686F6C6473000000000000000000000000000000 PUSH1 0x20 DUP3 ADD MSTORE POP JUMP JUMPDEST PUSH2 0x2D7D DUP2 PUSH2 0x27E2 JUMP JUMPDEST DUP2 EQ PUSH2 0x2D88 JUMPI PUSH1 0x0 DUP1 REVERT JUMPDEST POP JUMP JUMPDEST PUSH2 0x2D94 DUP2 PUSH2 0x2820 JUMP JUMPDEST DUP2 EQ PUSH2 0x2D9F JUMPI PUSH1 0x0 DUP1 REVERT JUMPDEST POP JUMP INVALID LOG2 PUSH5 0x6970667358 0x22 SLT KECCAK256 SIGNEXTEND PUSH16 0x4AEA8372C6C7A2AAC9A9BAF6BA7BAE79 0xCA 0x24 0x5D CALLVALUE LOG1 0x21 SWAP14 0x1E SWAP10 ADD CALL 0xAF 0xF7 PUSH32 0x64736F6C63430008070033000000000000000000000000000000000000000000 "
				},
				"gasEstimates": {
					"creation": {
						"codeDepositCost": "2347200",
						"executionCost": "infinite",
						"totalCost": "infinite"
					},
					"external": {
						"allowance(address,address)": "infinite",
						"approve(address,uint256)": "infinite",
						"balanceOf(address)": "2930",
						"burn(address,uint256)": "infinite",
						"decimals()": "2591",
						"decreaseAllowance(address,uint256)": "infinite",
						"getOwner()": "2580",
						"hasStake(address)": "infinite",
						"increaseAllowance(address,uint256)": "infinite",
						"mint(address,uint256)": "infinite",
						"name()": "infinite",
						"owner()": "2567",
						"renounceOwnership()": "30367",
						"stake(uint256)": "infinite",
						"symbol()": "infinite",
						"totalSupply()": "2505",
						"transfer(address,uint256)": "infinite",
						"transferFrom(address,address,uint256)": "infinite",
						"transferOwnership(address)": "30766",
						"withdrawReward(uint256)": "infinite",
						"withdrawStake(uint256,uint256)": "infinite"
					},
					"internal": {
						"_approve(address,address,uint256)": "infinite",
						"_burn(address,uint256)": "infinite",
						"_mint(address,uint256)": "infinite",
						"_transfer(address,address,uint256)": "infinite"
					}
				},
				"methodIdentifiers": {
					"allowance(address,address)": "dd62ed3e",
					"approve(address,uint256)": "095ea7b3",
					"balanceOf(address)": "70a08231",
					"burn(address,uint256)": "9dc29fac",
					"decimals()": "313ce567",
					"decreaseAllowance(address,uint256)": "a457c2d7",
					"getOwner()": "893d20e8",
					"hasStake(address)": "e73e14bf",
					"increaseAllowance(address,uint256)": "39509351",
					"mint(address,uint256)": "40c10f19",
					"name()": "06fdde03",
					"owner()": "8da5cb5b",
					"renounceOwnership()": "715018a6",
					"stake(uint256)": "a694fc3a",
					"symbol()": "95d89b41",
					"totalSupply()": "18160ddd",
					"transfer(address,uint256)": "a9059cbb",
					"transferFrom(address,address,uint256)": "23b872dd",
					"transferOwnership(address)": "f2fde38b",
					"withdrawReward(uint256)": "523a3f08",
					"withdrawStake(uint256,uint256)": "f1fdf469"
				}
			},
			"storageLayout": {
				"storage": [
					{
						"astId": 628,
						"contract": "contracts/MetraToken.sol:Metra",
						"label": "_owner",
						"offset": 0,
						"slot": "0",
						"type": "t_address"
					},
					{
						"astId": 777,
						"contract": "contracts/MetraToken.sol:Metra",
						"label": "stakeholders",
						"offset": 0,
						"slot": "1",
						"type": "t_array(t_struct(Stakeholder)765_storage)dyn_storage"
					},
					{
						"astId": 782,
						"contract": "contracts/MetraToken.sol:Metra",
						"label": "stakes",
						"offset": 0,
						"slot": "2",
						"type": "t_mapping(t_address,t_uint256)"
					},
					{
						"astId": 797,
						"contract": "contracts/MetraToken.sol:Metra",
						"label": "rewardPerHour",
						"offset": 0,
						"slot": "3",
						"type": "t_uint256"
					},
					{
						"astId": 11,
						"contract": "contracts/MetraToken.sol:Metra",
						"label": "_totalSupply",
						"offset": 0,
						"slot": "4",
						"type": "t_uint256"
					},
					{
						"astId": 13,
						"contract": "contracts/MetraToken.sol:Metra",
						"label": "_decimals",
						"offset": 0,
						"slot": "5",
						"type": "t_uint8"
					},
					{
						"astId": 15,
						"contract": "contracts/MetraToken.sol:Metra",
						"label": "_symbol",
						"offset": 0,
						"slot": "6",
						"type": "t_string_storage"
					},
					{
						"astId": 17,
						"contract": "contracts/MetraToken.sol:Metra",
						"label": "_name",
						"offset": 0,
						"slot": "7",
						"type": "t_string_storage"
					},
					{
						"astId": 22,
						"contract": "contracts/MetraToken.sol:Metra",
						"label": "_balances",
						"offset": 0,
						"slot": "8",
						"type": "t_mapping(t_address,t_uint256)"
					},
					{
						"astId": 29,
						"contract": "contracts/MetraToken.sol:Metra",
						"label": "_allowances",
						"offset": 0,
						"slot": "9",
						"type": "t_mapping(t_address,t_mapping(t_address,t_uint256))"
					}
				],
				"types": {
					"t_address": {
						"encoding": "inplace",
						"label": "address",
						"numberOfBytes": "20"
					},
					"t_array(t_struct(Stake)758_storage)dyn_storage": {
						"base": "t_struct(Stake)758_storage",
						"encoding": "dynamic_array",
						"label": "struct Stakeable.Stake[]",
						"numberOfBytes": "32"
					},
					"t_array(t_struct(Stakeholder)765_storage)dyn_storage": {
						"base": "t_struct(Stakeholder)765_storage",
						"encoding": "dynamic_array",
						"label": "struct Stakeable.Stakeholder[]",
						"numberOfBytes": "32"
					},
					"t_mapping(t_address,t_mapping(t_address,t_uint256))": {
						"encoding": "mapping",
						"key": "t_address",
						"label": "mapping(address => mapping(address => uint256))",
						"numberOfBytes": "32",
						"value": "t_mapping(t_address,t_uint256)"
					},
					"t_mapping(t_address,t_uint256)": {
						"encoding": "mapping",
						"key": "t_address",
						"label": "mapping(address => uint256)",
						"numberOfBytes": "32",
						"value": "t_uint256"
					},
					"t_string_storage": {
						"encoding": "bytes",
						"label": "string",
						"numberOfBytes": "32"
					},
					"t_struct(Stake)758_storage": {
						"encoding": "inplace",
						"label": "struct Stakeable.Stake",
						"members": [
							{
								"astId": 751,
								"contract": "contracts/MetraToken.sol:Metra",
								"label": "user",
								"offset": 0,
								"slot": "0",
								"type": "t_address"
							},
							{
								"astId": 753,
								"contract": "contracts/MetraToken.sol:Metra",
								"label": "amount",
								"offset": 0,
								"slot": "1",
								"type": "t_uint256"
							},
							{
								"astId": 755,
								"contract": "contracts/MetraToken.sol:Metra",
								"label": "since",
								"offset": 0,
								"slot": "2",
								"type": "t_uint256"
							},
							{
								"astId": 757,
								"contract": "contracts/MetraToken.sol:Metra",
								"label": "claimable",
								"offset": 0,
								"slot": "3",
								"type": "t_uint256"
							}
						],
						"numberOfBytes": "128"
					},
					"t_struct(Stakeholder)765_storage": {
						"encoding": "inplace",
						"label": "struct Stakeable.Stakeholder",
						"members": [
							{
								"astId": 760,
								"contract": "contracts/MetraToken.sol:Metra",
								"label": "user",
								"offset": 0,
								"slot": "0",
								"type": "t_address"
							},
							{
								"astId": 764,
								"contract": "contracts/MetraToken.sol:Metra",
								"label": "address_stakes",
								"offset": 0,
								"slot": "1",
								"type": "t_array(t_struct(Stake)758_storage)dyn_storage"
							}
						],
						"numberOfBytes": "64"
					},
					"t_uint256": {
						"encoding": "inplace",
						"label": "uint256",
						"numberOfBytes": "32"
					},
					"t_uint8": {
						"encoding": "inplace",
						"label": "uint8",
						"numberOfBytes": "1"
					}
				}
			},
			"userdoc": {
				"events": {
					"Approval(address,address,uint256)": {
						"notice": "Approval is emitted when a new Spender is approved to spend Tokens on the Owners account"
					},
					"OwnershipTransferred(address,address)": {
						"notice": "Event OwnershipTransferred is used to log that a ownership change of the token has occured"
					},
					"Staked(address,uint256,uint256,uint256)": {
						"notice": "Staked event is triggered whenever a user stakes tokens, address is indexed to make it filterable"
					},
					"Transfer(address,address,uint256)": {
						"notice": "Events are created below. Transfer event is a event that notify the blockchain that a transfer of assets has taken place"
					}
				},
				"kind": "user",
				"methods": {
					"allowance(address,address)": {
						"notice": "allowance is used view how much allowance an spender has"
					},
					"approve(address,uint256)": {
						"notice": "approve will use the senders address and allow the spender to use X amount of tokens on his behalf"
					},
					"balanceOf(address)": {
						"notice": "balanceOf will return the account balance for the given account"
					},
					"burn(address,uint256)": {
						"notice": "burn is used to destroy tokens on an address  See {_burn} Requires   - msg.sender must be the token owner"
					},
					"constructor": {
						"notice": "constructor will be triggered when we create the Smart contract _name = name of the token _short_symbol = Short Symbol name for the token token_decimals = The decimal precision of the Token, defaults 18 _totalSupply is how much Tokens there are totally "
					},
					"decimals()": {
						"notice": "decimals will return the number of decimal precision the Token is deployed with"
					},
					"decreaseAllowance(address,uint256)": {
						"notice": "decreaseAllowance Decrease the allowance on the account inputted from the caller address"
					},
					"getOwner()": {
						"notice": "getOwner just calls Ownables owner function.  returns owner of the token "
					},
					"hasStake(address)": {
						"notice": "hasStake is used to check if a account has stakes and the total amount along with all the seperate stakes"
					},
					"increaseAllowance(address,uint256)": {
						"notice": "increaseAllowance Adds allowance to a account from the function caller address"
					},
					"mint(address,uint256)": {
						"notice": "mint is used to create tokens and assign them to msg.sender  See {_mint} Requires   - msg.sender must be the token owner"
					},
					"name()": {
						"notice": "name will return the Token's symbol "
					},
					"owner()": {
						"notice": "owner() returns the currently assigned owner of the Token "
					},
					"renounceOwnership()": {
						"notice": "renounceOwnership will set the owner to zero address This will make the contract owner less, It will make ALL functions with onlyOwner no longer callable. There is no way of restoring the owner"
					},
					"stake(uint256)": {
						"notice": "Add functionality like burn to the _stake afunction"
					},
					"symbol()": {
						"notice": "symbol will return the Token's symbol "
					},
					"totalSupply()": {
						"notice": "totalSupply will return the tokens total supply of tokens"
					},
					"transfer(address,uint256)": {
						"notice": "transfer is used to transfer funds from the sender to the recipient This function is only callable from outside the contract. For internal usage see  _transfer Requires - Caller cannot be zero - Caller must have a balance = or bigger than amount"
					},
					"transferFrom(address,address,uint256)": {
						"notice": "transferFrom is uesd to transfer Tokens from a Accounts allowance Spender address should be the token holder Requires   - The caller must have a allowance = or bigger than the amount spending"
					},
					"transferOwnership(address)": {
						"notice": "transferOwnership will assign the {newOwner} as owner"
					},
					"withdrawStake(uint256,uint256)": {
						"notice": "withdrawStake is used to withdraw stakes from the account holder"
					}
				},
				"notice": "Metra",
				"version": 1
			}
		}
	}
}