{
	"contracts/MetraToken.sol": {
		"Metra": {
			"abi": [
				{
					"inputs": [
						{
							"internalType": "string",
							"name": "token_name",
							"type": "string"
						},
						{
							"internalType": "string",
							"name": "short_symbol",
							"type": "string"
						},
						{
							"internalType": "uint8",
							"name": "token_decimals",
							"type": "uint8"
						},
						{
							"internalType": "uint256",
							"name": "token_totalSupply",
							"type": "uint256"
						}
					],
					"stateMutability": "nonpayable",
					"type": "constructor"
				},
				{
					"anonymous": false,
					"inputs": [
						{
							"indexed": true,
							"internalType": "address",
							"name": "owner",
							"type": "address"
						},
						{
							"indexed": true,
							"internalType": "address",
							"name": "spender",
							"type": "address"
						},
						{
							"indexed": false,
							"internalType": "uint256",
							"name": "value",
							"type": "uint256"
						}
					],
					"name": "Approval",
					"type": "event"
				},
				{
					"anonymous": false,
					"inputs": [
						{
							"indexed": true,
							"internalType": "address",
							"name": "previousOwner",
							"type": "address"
						},
						{
							"indexed": true,
							"internalType": "address",
							"name": "newOwner",
							"type": "address"
						}
					],
					"name": "OwnershipTransferred",
					"type": "event"
				},
				{
					"anonymous": false,
					"inputs": [
						{
							"indexed": true,
							"internalType": "address",
							"name": "user",
							"type": "address"
						},
						{
							"indexed": false,
							"internalType": "uint256",
							"name": "amount",
							"type": "uint256"
						},
						{
							"indexed": false,
							"internalType": "uint256",
							"name": "index",
							"type": "uint256"
						},
						{
							"indexed": false,
							"internalType": "uint256",
							"name": "timestamp",
							"type": "uint256"
						}
					],
					"name": "Staked",
					"type": "event"
				},
				{
					"anonymous": false,
					"inputs": [
						{
							"indexed": true,
							"internalType": "address",
							"name": "from",
							"type": "address"
						},
						{
							"indexed": true,
							"internalType": "address",
							"name": "to",
							"type": "address"
						},
						{
							"indexed": false,
							"internalType": "uint256",
							"name": "value",
							"type": "uint256"
						}
					],
					"name": "Transfer",
					"type": "event"
				},
				{
					"inputs": [
						{
							"internalType": "address",
							"name": "owner",
							"type": "address"
						},
						{
							"internalType": "address",
							"name": "spender",
							"type": "address"
						}
					],
					"name": "allowance",
					"outputs": [
						{
							"internalType": "uint256",
							"name": "",
							"type": "uint256"
						}
					],
					"stateMutability": "view",
					"type": "function"
				},
				{
					"inputs": [
						{
							"internalType": "address",
							"name": "spender",
							"type": "address"
						},
						{
							"internalType": "uint256",
							"name": "amount",
							"type": "uint256"
						}
					],
					"name": "approve",
					"outputs": [
						{
							"internalType": "bool",
							"name": "",
							"type": "bool"
						}
					],
					"stateMutability": "nonpayable",
					"type": "function"
				},
				{
					"inputs": [
						{
							"internalType": "address",
							"name": "account",
							"type": "address"
						}
					],
					"name": "balanceOf",
					"outputs": [
						{
							"internalType": "uint256",
							"name": "",
							"type": "uint256"
						}
					],
					"stateMutability": "view",
					"type": "function"
				},
				{
					"inputs": [
						{
							"internalType": "address",
							"name": "account",
							"type": "address"
						},
						{
							"internalType": "uint256",
							"name": "amount",
							"type": "uint256"
						}
					],
					"name": "burn",
					"outputs": [
						{
							"internalType": "bool",
							"name": "",
							"type": "bool"
						}
					],
					"stateMutability": "nonpayable",
					"type": "function"
				},
				{
					"inputs": [],
					"name": "decimals",
					"outputs": [
						{
							"internalType": "uint8",
							"name": "",
							"type": "uint8"
						}
					],
					"stateMutability": "view",
					"type": "function"
				},
				{
					"inputs": [
						{
							"internalType": "address",
							"name": "spender",
							"type": "address"
						},
						{
							"internalType": "uint256",
							"name": "amount",
							"type": "uint256"
						}
					],
					"name": "decreaseAllowance",
					"outputs": [
						{
							"internalType": "bool",
							"name": "",
							"type": "bool"
						}
					],
					"stateMutability": "nonpayable",
					"type": "function"
				},
				{
					"inputs": [],
					"name": "getOwner",
					"outputs": [
						{
							"internalType": "address",
							"name": "",
							"type": "address"
						}
					],
					"stateMutability": "view",
					"type": "function"
				},
				{
					"inputs": [
						{
							"internalType": "address",
							"name": "_staker",
							"type": "address"
						}
					],
					"name": "hasStake",
					"outputs": [
						{
							"components": [
								{
									"internalType": "uint256",
									"name": "total_amount",
									"type": "uint256"
								},
								{
									"components": [
										{
											"internalType": "address",
											"name": "user",
											"type": "address"
										},
										{
											"internalType": "uint256",
											"name": "amount",
											"type": "uint256"
										},
										{
											"internalType": "uint256",
											"name": "since",
											"type": "uint256"
										},
										{
											"internalType": "uint256",
											"name": "claimable",
											"type": "uint256"
										}
									],
									"internalType": "struct Stakeable.Stake[]",
									"name": "stakes",
									"type": "tuple[]"
								}
							],
							"internalType": "struct Stakeable.StakingSummary",
							"name": "",
							"type": "tuple"
						}
					],
					"stateMutability": "view",
					"type": "function"
				},
				{
					"inputs": [
						{
							"internalType": "address",
							"name": "spender",
							"type": "address"
						},
						{
							"internalType": "uint256",
							"name": "amount",
							"type": "uint256"
						}
					],
					"name": "increaseAllowance",
					"outputs": [
						{
							"internalType": "bool",
							"name": "",
							"type": "bool"
						}
					],
					"stateMutability": "nonpayable",
					"type": "function"
				},
				{
					"inputs": [],
					"name": "name",
					"outputs": [
						{
							"internalType": "string",
							"name": "",
							"type": "string"
						}
					],
					"stateMutability": "view",
					"type": "function"
				},
				{
					"inputs": [],
					"name": "owner",
					"outputs": [
						{
							"internalType": "address",
							"name": "",
							"type": "address"
						}
					],
					"stateMutability": "view",
					"type": "function"
				},
				{
					"inputs": [],
					"name": "renounceOwnership",
					"outputs": [],
					"stateMutability": "nonpayable",
					"type": "function"
				},
				{
					"inputs": [
						{
							"internalType": "uint256",
							"name": "_amount",
							"type": "uint256"
						}
					],
					"name": "stake",
					"outputs": [],
					"stateMutability": "nonpayable",
					"type": "function"
				},
				{
					"inputs": [],
					"name": "symbol",
					"outputs": [
						{
							"internalType": "string",
							"name": "",
							"type": "string"
						}
					],
					"stateMutability": "view",
					"type": "function"
				},
				{
					"inputs": [],
					"name": "totalSupply",
					"outputs": [
						{
							"internalType": "uint256",
							"name": "",
							"type": "uint256"
						}
					],
					"stateMutability": "view",
					"type": "function"
				},
				{
					"inputs": [
						{
							"internalType": "address",
							"name": "recipient",
							"type": "address"
						},
						{
							"internalType": "uint256",
							"name": "amount",
							"type": "uint256"
						}
					],
					"name": "transfer",
					"outputs": [
						{
							"internalType": "bool",
							"name": "",
							"type": "bool"
						}
					],
					"stateMutability": "nonpayable",
					"type": "function"
				},
				{
					"inputs": [
						{
							"internalType": "address",
							"name": "spender",
							"type": "address"
						},
						{
							"internalType": "address",
							"name": "recipient",
							"type": "address"
						},
						{
							"internalType": "uint256",
							"name": "amount",
							"type": "uint256"
						}
					],
					"name": "transferFrom",
					"outputs": [
						{
							"internalType": "bool",
							"name": "",
							"type": "bool"
						}
					],
					"stateMutability": "nonpayable",
					"type": "function"
				},
				{
					"inputs": [
						{
							"internalType": "address",
							"name": "newOwner",
							"type": "address"
						}
					],
					"name": "transferOwnership",
					"outputs": [],
					"stateMutability": "nonpayable",
					"type": "function"
				},
				{
					"inputs": [
						{
							"internalType": "uint256",
							"name": "amount",
							"type": "uint256"
						},
						{
							"internalType": "uint256",
							"name": "stake_index",
							"type": "uint256"
						},
						{
							"internalType": "uint256",
							"name": "reward",
							"type": "uint256"
						}
					],
					"name": "withdrawStake",
					"outputs": [],
					"stateMutability": "nonpayable",
					"type": "function"
				}
			],
			"devdoc": {
				"kind": "dev",
				"methods": {},
				"version": 1
			},
			"evm": {
				"assembly": "    /* \"contracts/MetraToken.sol\":150:9181  contract Metra is Ownable, Stakeable{... */\n  mstore(0x40, 0x80)\n    /* \"contracts/Stakeable.sol\":2222:2231  100000000 */\n  0x05f5e100\n    /* \"contracts/Stakeable.sol\":2189:2231  uint256 internal rewardPerHour = 100000000 */\n  0x03\n  sstore\n    /* \"contracts/MetraToken.sol\":1519:2023  constructor(string memory token_name, string memory short_symbol, uint8 token_decimals, uint256 token_totalSupply){... */\n  callvalue\n  dup1\n  iszero\n  tag_1\n  jumpi\n  0x00\n  dup1\n  revert\ntag_1:\n  pop\n  mload(0x40)\n  sub(codesize, bytecodeSize)\n  dup1\n  bytecodeSize\n  dup4\n  codecopy\n  dup2\n  dup2\n  add\n  0x40\n  mstore\n  dup2\n  add\n  swap1\n  tag_2\n  swap2\n  swap1\n  tag_3\n  jump\t// in\ntag_2:\n    /* \"contracts/Ownable.sol\":965:975  msg.sender */\n  caller\n    /* \"contracts/Ownable.sol\":956:962  _owner */\n  0x00\n  dup1\n    /* \"contracts/Ownable.sol\":956:975  _owner = msg.sender */\n  0x0100\n  exp\n  dup2\n  sload\n  dup2\n  0xffffffffffffffffffffffffffffffffffffffff\n  mul\n  not\n  and\n  swap1\n  dup4\n  0xffffffffffffffffffffffffffffffffffffffff\n  and\n  mul\n  or\n  swap1\n  sstore\n  pop\n    /* \"contracts/Ownable.sol\":1023:1029  _owner */\n  0x00\n  dup1\n  sload\n  swap1\n  0x0100\n  exp\n  swap1\n  div\n  0xffffffffffffffffffffffffffffffffffffffff\n  and\n    /* \"contracts/Ownable.sol\":990:1030  OwnershipTransferred(address(0), _owner) */\n  0xffffffffffffffffffffffffffffffffffffffff\n  and\n    /* \"contracts/Ownable.sol\":1019:1020  0 */\n  0x00\n    /* \"contracts/Ownable.sol\":990:1030  OwnershipTransferred(address(0), _owner) */\n  0xffffffffffffffffffffffffffffffffffffffff\n  and\n  0x8be0079c531659141344cd1fd0a4f28419497f9722a3daafe3b4186f6b6457e0\n  mload(0x40)\n  mload(0x40)\n  dup1\n  swap2\n  sub\n  swap1\n  log3\n    /* \"contracts/Stakeable.sol\":463:475  stakeholders */\n  0x01\n    /* \"contracts/Stakeable.sol\":463:482  stakeholders.push() */\n  dup1\n  dup2\n  0x01\n  dup2\n  sload\n  add\n  dup1\n  dup3\n  sstore\n  dup1\n  swap2\n  pop\n  pop\n  sub\n  swap1\n  0x00\n  mstore\n  keccak256(0x00, 0x20)\n  swap1\n  pop\n  pop\n    /* \"contracts/MetraToken.sol\":1649:1659  token_name */\n  dup4\n    /* \"contracts/MetraToken.sol\":1641:1646  _name */\n  0x07\n    /* \"contracts/MetraToken.sol\":1641:1659  _name = token_name */\n  swap1\n  dup2\n  tag_11\n  swap2\n  swap1\n  tag_12\n  jump\t// in\ntag_11:\n  pop\n    /* \"contracts/MetraToken.sol\":1677:1689  short_symbol */\n  dup3\n    /* \"contracts/MetraToken.sol\":1667:1674  _symbol */\n  0x06\n    /* \"contracts/MetraToken.sol\":1667:1689  _symbol = short_symbol */\n  swap1\n  dup2\n  tag_13\n  swap2\n  swap1\n  tag_12\n  jump\t// in\ntag_13:\n  pop\n    /* \"contracts/MetraToken.sol\":1709:1723  token_decimals */\n  dup2\n    /* \"contracts/MetraToken.sol\":1697:1706  _decimals */\n  0x05\n  0x00\n    /* \"contracts/MetraToken.sol\":1697:1723  _decimals = token_decimals */\n  0x0100\n  exp\n  dup2\n  sload\n  dup2\n  0xff\n  mul\n  not\n  and\n  swap1\n  dup4\n  0xff\n  and\n  mul\n  or\n  swap1\n  sstore\n  pop\n    /* \"contracts/MetraToken.sol\":1746:1763  token_totalSupply */\n  dup1\n    /* \"contracts/MetraToken.sol\":1731:1743  _totalSupply */\n  0x04\n    /* \"contracts/MetraToken.sol\":1731:1763  _totalSupply = token_totalSupply */\n  dup2\n  swap1\n  sstore\n  pop\n    /* \"contracts/MetraToken.sol\":1860:1872  _totalSupply */\n  sload(0x04)\n    /* \"contracts/MetraToken.sol\":1836:1845  _balances */\n  0x08\n    /* \"contracts/MetraToken.sol\":1836:1857  _balances[msg.sender] */\n  0x00\n    /* \"contracts/MetraToken.sol\":1846:1856  msg.sender */\n  caller\n    /* \"contracts/MetraToken.sol\":1836:1857  _balances[msg.sender] */\n  0xffffffffffffffffffffffffffffffffffffffff\n  and\n  0xffffffffffffffffffffffffffffffffffffffff\n  and\n  dup2\n  mstore\n  0x20\n  add\n  swap1\n  dup2\n  mstore\n  0x20\n  add\n  0x00\n  keccak256\n    /* \"contracts/MetraToken.sol\":1836:1872  _balances[msg.sender] = _totalSupply */\n  dup2\n  swap1\n  sstore\n  pop\n    /* \"contracts/MetraToken.sol\":1993:2003  msg.sender */\n  caller\n    /* \"contracts/MetraToken.sol\":1972:2018  Transfer(address(0), msg.sender, _totalSupply) */\n  0xffffffffffffffffffffffffffffffffffffffff\n  and\n    /* \"contracts/MetraToken.sol\":1989:1990  0 */\n  0x00\n    /* \"contracts/MetraToken.sol\":1972:2018  Transfer(address(0), msg.sender, _totalSupply) */\n  0xffffffffffffffffffffffffffffffffffffffff\n  and\n  0xddf252ad1be2c89b69c2b068fc378daa952ba7f163c4a11628f55a4df523b3ef\n    /* \"contracts/MetraToken.sol\":2005:2017  _totalSupply */\n  sload(0x04)\n    /* \"contracts/MetraToken.sol\":1972:2018  Transfer(address(0), msg.sender, _totalSupply) */\n  mload(0x40)\n  tag_14\n  swap2\n  swap1\n  tag_15\n  jump\t// in\ntag_14:\n  mload(0x40)\n  dup1\n  swap2\n  sub\n  swap1\n  log3\n    /* \"contracts/MetraToken.sol\":1519:2023  constructor(string memory token_name, string memory short_symbol, uint8 token_decimals, uint256 token_totalSupply){... */\n  pop\n  pop\n  pop\n  pop\n    /* \"contracts/MetraToken.sol\":150:9181  contract Metra is Ownable, Stakeable{... */\n  jump(tag_16)\n    /* \"#utility.yul\":7:82   */\ntag_17:\n    /* \"#utility.yul\":40:46   */\n  0x00\n    /* \"#utility.yul\":73:75   */\n  0x40\n    /* \"#utility.yul\":67:76   */\n  mload\n    /* \"#utility.yul\":57:76   */\n  swap1\n  pop\n    /* \"#utility.yul\":7:82   */\n  swap1\n  jump\t// out\n    /* \"#utility.yul\":88:205   */\ntag_18:\n    /* \"#utility.yul\":197:198   */\n  0x00\n    /* \"#utility.yul\":194:195   */\n  dup1\n    /* \"#utility.yul\":187:199   */\n  revert\n    /* \"#utility.yul\":211:328   */\ntag_19:\n    /* \"#utility.yul\":320:321   */\n  0x00\n    /* \"#utility.yul\":317:318   */\n  dup1\n    /* \"#utility.yul\":310:322   */\n  revert\n    /* \"#utility.yul\":334:451   */\ntag_20:\n    /* \"#utility.yul\":443:444   */\n  0x00\n    /* \"#utility.yul\":440:441   */\n  dup1\n    /* \"#utility.yul\":433:445   */\n  revert\n    /* \"#utility.yul\":457:574   */\ntag_21:\n    /* \"#utility.yul\":566:567   */\n  0x00\n    /* \"#utility.yul\":563:564   */\n  dup1\n    /* \"#utility.yul\":556:568   */\n  revert\n    /* \"#utility.yul\":580:682   */\ntag_22:\n    /* \"#utility.yul\":621:627   */\n  0x00\n    /* \"#utility.yul\":672:674   */\n  0x1f\n    /* \"#utility.yul\":668:675   */\n  not\n    /* \"#utility.yul\":663:665   */\n  0x1f\n    /* \"#utility.yul\":656:661   */\n  dup4\n    /* \"#utility.yul\":652:666   */\n  add\n    /* \"#utility.yul\":648:676   */\n  and\n    /* \"#utility.yul\":638:676   */\n  swap1\n  pop\n    /* \"#utility.yul\":580:682   */\n  swap2\n  swap1\n  pop\n  jump\t// out\n    /* \"#utility.yul\":688:868   */\ntag_23:\n    /* \"#utility.yul\":736:813   */\n  0x4e487b7100000000000000000000000000000000000000000000000000000000\n    /* \"#utility.yul\":733:734   */\n  0x00\n    /* \"#utility.yul\":726:814   */\n  mstore\n    /* \"#utility.yul\":833:837   */\n  0x41\n    /* \"#utility.yul\":830:831   */\n  0x04\n    /* \"#utility.yul\":823:838   */\n  mstore\n    /* \"#utility.yul\":857:861   */\n  0x24\n    /* \"#utility.yul\":854:855   */\n  0x00\n    /* \"#utility.yul\":847:862   */\n  revert\n    /* \"#utility.yul\":874:1155   */\ntag_24:\n    /* \"#utility.yul\":957:984   */\n  tag_64\n    /* \"#utility.yul\":979:983   */\n  dup3\n    /* \"#utility.yul\":957:984   */\n  tag_22\n  jump\t// in\ntag_64:\n    /* \"#utility.yul\":949:955   */\n  dup2\n    /* \"#utility.yul\":945:985   */\n  add\n    /* \"#utility.yul\":1087:1093   */\n  dup2\n    /* \"#utility.yul\":1075:1085   */\n  dup2\n    /* \"#utility.yul\":1072:1094   */\n  lt\n    /* \"#utility.yul\":1051:1069   */\n  0xffffffffffffffff\n    /* \"#utility.yul\":1039:1049   */\n  dup3\n    /* \"#utility.yul\":1036:1070   */\n  gt\n    /* \"#utility.yul\":1033:1095   */\n  or\n    /* \"#utility.yul\":1030:1118   */\n  iszero\n  tag_65\n  jumpi\n    /* \"#utility.yul\":1098:1116   */\n  tag_66\n  tag_23\n  jump\t// in\ntag_66:\n    /* \"#utility.yul\":1030:1118   */\ntag_65:\n    /* \"#utility.yul\":1138:1148   */\n  dup1\n    /* \"#utility.yul\":1134:1136   */\n  0x40\n    /* \"#utility.yul\":1127:1149   */\n  mstore\n    /* \"#utility.yul\":917:1155   */\n  pop\n    /* \"#utility.yul\":874:1155   */\n  pop\n  pop\n  jump\t// out\n    /* \"#utility.yul\":1161:1290   */\ntag_25:\n    /* \"#utility.yul\":1195:1201   */\n  0x00\n    /* \"#utility.yul\":1222:1242   */\n  tag_68\n  tag_17\n  jump\t// in\ntag_68:\n    /* \"#utility.yul\":1212:1242   */\n  swap1\n  pop\n    /* \"#utility.yul\":1251:1284   */\n  tag_69\n    /* \"#utility.yul\":1279:1283   */\n  dup3\n    /* \"#utility.yul\":1271:1277   */\n  dup3\n    /* \"#utility.yul\":1251:1284   */\n  tag_24\n  jump\t// in\ntag_69:\n    /* \"#utility.yul\":1161:1290   */\n  swap2\n  swap1\n  pop\n  jump\t// out\n    /* \"#utility.yul\":1296:1604   */\ntag_26:\n    /* \"#utility.yul\":1358:1362   */\n  0x00\n    /* \"#utility.yul\":1448:1466   */\n  0xffffffffffffffff\n    /* \"#utility.yul\":1440:1446   */\n  dup3\n    /* \"#utility.yul\":1437:1467   */\n  gt\n    /* \"#utility.yul\":1434:1490   */\n  iszero\n  tag_71\n  jumpi\n    /* \"#utility.yul\":1470:1488   */\n  tag_72\n  tag_23\n  jump\t// in\ntag_72:\n    /* \"#utility.yul\":1434:1490   */\ntag_71:\n    /* \"#utility.yul\":1508:1537   */\n  tag_73\n    /* \"#utility.yul\":1530:1536   */\n  dup3\n    /* \"#utility.yul\":1508:1537   */\n  tag_22\n  jump\t// in\ntag_73:\n    /* \"#utility.yul\":1500:1537   */\n  swap1\n  pop\n    /* \"#utility.yul\":1592:1596   */\n  0x20\n    /* \"#utility.yul\":1586:1590   */\n  dup2\n    /* \"#utility.yul\":1582:1597   */\n  add\n    /* \"#utility.yul\":1574:1597   */\n  swap1\n  pop\n    /* \"#utility.yul\":1296:1604   */\n  swap2\n  swap1\n  pop\n  jump\t// out\n    /* \"#utility.yul\":1610:1917   */\ntag_27:\n    /* \"#utility.yul\":1678:1679   */\n  0x00\n    /* \"#utility.yul\":1688:1801   */\ntag_75:\n    /* \"#utility.yul\":1702:1708   */\n  dup4\n    /* \"#utility.yul\":1699:1700   */\n  dup2\n    /* \"#utility.yul\":1696:1709   */\n  lt\n    /* \"#utility.yul\":1688:1801   */\n  iszero\n  tag_77\n  jumpi\n    /* \"#utility.yul\":1787:1788   */\n  dup1\n    /* \"#utility.yul\":1782:1785   */\n  dup3\n    /* \"#utility.yul\":1778:1789   */\n  add\n    /* \"#utility.yul\":1772:1790   */\n  mload\n    /* \"#utility.yul\":1768:1769   */\n  dup2\n    /* \"#utility.yul\":1763:1766   */\n  dup5\n    /* \"#utility.yul\":1759:1770   */\n  add\n    /* \"#utility.yul\":1752:1791   */\n  mstore\n    /* \"#utility.yul\":1724:1726   */\n  0x20\n    /* \"#utility.yul\":1721:1722   */\n  dup2\n    /* \"#utility.yul\":1717:1727   */\n  add\n    /* \"#utility.yul\":1712:1727   */\n  swap1\n  pop\n    /* \"#utility.yul\":1688:1801   */\n  jump(tag_75)\ntag_77:\n    /* \"#utility.yul\":1819:1825   */\n  dup4\n    /* \"#utility.yul\":1816:1817   */\n  dup2\n    /* \"#utility.yul\":1813:1826   */\n  gt\n    /* \"#utility.yul\":1810:1911   */\n  iszero\n  tag_78\n  jumpi\n    /* \"#utility.yul\":1899:1900   */\n  0x00\n    /* \"#utility.yul\":1890:1896   */\n  dup5\n    /* \"#utility.yul\":1885:1888   */\n  dup5\n    /* \"#utility.yul\":1881:1897   */\n  add\n    /* \"#utility.yul\":1874:1901   */\n  mstore\n    /* \"#utility.yul\":1810:1911   */\ntag_78:\n    /* \"#utility.yul\":1659:1917   */\n  pop\n    /* \"#utility.yul\":1610:1917   */\n  pop\n  pop\n  pop\n  jump\t// out\n    /* \"#utility.yul\":1923:2344   */\ntag_28:\n    /* \"#utility.yul\":2012:2017   */\n  0x00\n    /* \"#utility.yul\":2037:2103   */\n  tag_80\n    /* \"#utility.yul\":2053:2102   */\n  tag_81\n    /* \"#utility.yul\":2095:2101   */\n  dup5\n    /* \"#utility.yul\":2053:2102   */\n  tag_26\n  jump\t// in\ntag_81:\n    /* \"#utility.yul\":2037:2103   */\n  tag_25\n  jump\t// in\ntag_80:\n    /* \"#utility.yul\":2028:2103   */\n  swap1\n  pop\n    /* \"#utility.yul\":2126:2132   */\n  dup3\n    /* \"#utility.yul\":2119:2124   */\n  dup2\n    /* \"#utility.yul\":2112:2133   */\n  mstore\n    /* \"#utility.yul\":2164:2168   */\n  0x20\n    /* \"#utility.yul\":2157:2162   */\n  dup2\n    /* \"#utility.yul\":2153:2169   */\n  add\n    /* \"#utility.yul\":2202:2205   */\n  dup5\n    /* \"#utility.yul\":2193:2199   */\n  dup5\n    /* \"#utility.yul\":2188:2191   */\n  dup5\n    /* \"#utility.yul\":2184:2200   */\n  add\n    /* \"#utility.yul\":2181:2206   */\n  gt\n    /* \"#utility.yul\":2178:2290   */\n  iszero\n  tag_82\n  jumpi\n    /* \"#utility.yul\":2209:2288   */\n  tag_83\n  tag_21\n  jump\t// in\ntag_83:\n    /* \"#utility.yul\":2178:2290   */\ntag_82:\n    /* \"#utility.yul\":2299:2338   */\n  tag_84\n    /* \"#utility.yul\":2331:2337   */\n  dup5\n    /* \"#utility.yul\":2326:2329   */\n  dup3\n    /* \"#utility.yul\":2321:2324   */\n  dup6\n    /* \"#utility.yul\":2299:2338   */\n  tag_27\n  jump\t// in\ntag_84:\n    /* \"#utility.yul\":2018:2344   */\n  pop\n    /* \"#utility.yul\":1923:2344   */\n  swap4\n  swap3\n  pop\n  pop\n  pop\n  jump\t// out\n    /* \"#utility.yul\":2364:2719   */\ntag_29:\n    /* \"#utility.yul\":2431:2436   */\n  0x00\n    /* \"#utility.yul\":2480:2483   */\n  dup3\n    /* \"#utility.yul\":2473:2477   */\n  0x1f\n    /* \"#utility.yul\":2465:2471   */\n  dup4\n    /* \"#utility.yul\":2461:2478   */\n  add\n    /* \"#utility.yul\":2457:2484   */\n  slt\n    /* \"#utility.yul\":2447:2569   */\n  tag_86\n  jumpi\n    /* \"#utility.yul\":2488:2567   */\n  tag_87\n  tag_20\n  jump\t// in\ntag_87:\n    /* \"#utility.yul\":2447:2569   */\ntag_86:\n    /* \"#utility.yul\":2598:2604   */\n  dup2\n    /* \"#utility.yul\":2592:2605   */\n  mload\n    /* \"#utility.yul\":2623:2713   */\n  tag_88\n    /* \"#utility.yul\":2709:2712   */\n  dup5\n    /* \"#utility.yul\":2701:2707   */\n  dup3\n    /* \"#utility.yul\":2694:2698   */\n  0x20\n    /* \"#utility.yul\":2686:2692   */\n  dup7\n    /* \"#utility.yul\":2682:2699   */\n  add\n    /* \"#utility.yul\":2623:2713   */\n  tag_28\n  jump\t// in\ntag_88:\n    /* \"#utility.yul\":2614:2713   */\n  swap2\n  pop\n    /* \"#utility.yul\":2437:2719   */\n  pop\n    /* \"#utility.yul\":2364:2719   */\n  swap3\n  swap2\n  pop\n  pop\n  jump\t// out\n    /* \"#utility.yul\":2725:2811   */\ntag_30:\n    /* \"#utility.yul\":2760:2767   */\n  0x00\n    /* \"#utility.yul\":2800:2804   */\n  0xff\n    /* \"#utility.yul\":2793:2798   */\n  dup3\n    /* \"#utility.yul\":2789:2805   */\n  and\n    /* \"#utility.yul\":2778:2805   */\n  swap1\n  pop\n    /* \"#utility.yul\":2725:2811   */\n  swap2\n  swap1\n  pop\n  jump\t// out\n    /* \"#utility.yul\":2817:2935   */\ntag_31:\n    /* \"#utility.yul\":2888:2910   */\n  tag_91\n    /* \"#utility.yul\":2904:2909   */\n  dup2\n    /* \"#utility.yul\":2888:2910   */\n  tag_30\n  jump\t// in\ntag_91:\n    /* \"#utility.yul\":2881:2886   */\n  dup2\n    /* \"#utility.yul\":2878:2911   */\n  eq\n    /* \"#utility.yul\":2868:2929   */\n  tag_92\n  jumpi\n    /* \"#utility.yul\":2925:2926   */\n  0x00\n    /* \"#utility.yul\":2922:2923   */\n  dup1\n    /* \"#utility.yul\":2915:2927   */\n  revert\n    /* \"#utility.yul\":2868:2929   */\ntag_92:\n    /* \"#utility.yul\":2817:2935   */\n  pop\n  jump\t// out\n    /* \"#utility.yul\":2941:3080   */\ntag_32:\n    /* \"#utility.yul\":2996:3001   */\n  0x00\n    /* \"#utility.yul\":3027:3033   */\n  dup2\n    /* \"#utility.yul\":3021:3034   */\n  mload\n    /* \"#utility.yul\":3012:3034   */\n  swap1\n  pop\n    /* \"#utility.yul\":3043:3074   */\n  tag_94\n    /* \"#utility.yul\":3068:3073   */\n  dup2\n    /* \"#utility.yul\":3043:3074   */\n  tag_31\n  jump\t// in\ntag_94:\n    /* \"#utility.yul\":2941:3080   */\n  swap3\n  swap2\n  pop\n  pop\n  jump\t// out\n    /* \"#utility.yul\":3086:3163   */\ntag_33:\n    /* \"#utility.yul\":3123:3130   */\n  0x00\n    /* \"#utility.yul\":3152:3157   */\n  dup2\n    /* \"#utility.yul\":3141:3157   */\n  swap1\n  pop\n    /* \"#utility.yul\":3086:3163   */\n  swap2\n  swap1\n  pop\n  jump\t// out\n    /* \"#utility.yul\":3169:3291   */\ntag_34:\n    /* \"#utility.yul\":3242:3266   */\n  tag_97\n    /* \"#utility.yul\":3260:3265   */\n  dup2\n    /* \"#utility.yul\":3242:3266   */\n  tag_33\n  jump\t// in\ntag_97:\n    /* \"#utility.yul\":3235:3240   */\n  dup2\n    /* \"#utility.yul\":3232:3267   */\n  eq\n    /* \"#utility.yul\":3222:3285   */\n  tag_98\n  jumpi\n    /* \"#utility.yul\":3281:3282   */\n  0x00\n    /* \"#utility.yul\":3278:3279   */\n  dup1\n    /* \"#utility.yul\":3271:3283   */\n  revert\n    /* \"#utility.yul\":3222:3285   */\ntag_98:\n    /* \"#utility.yul\":3169:3291   */\n  pop\n  jump\t// out\n    /* \"#utility.yul\":3297:3440   */\ntag_35:\n    /* \"#utility.yul\":3354:3359   */\n  0x00\n    /* \"#utility.yul\":3385:3391   */\n  dup2\n    /* \"#utility.yul\":3379:3392   */\n  mload\n    /* \"#utility.yul\":3370:3392   */\n  swap1\n  pop\n    /* \"#utility.yul\":3401:3434   */\n  tag_100\n    /* \"#utility.yul\":3428:3433   */\n  dup2\n    /* \"#utility.yul\":3401:3434   */\n  tag_34\n  jump\t// in\ntag_100:\n    /* \"#utility.yul\":3297:3440   */\n  swap3\n  swap2\n  pop\n  pop\n  jump\t// out\n    /* \"#utility.yul\":3446:4608   */\ntag_3:\n    /* \"#utility.yul\":3561:3567   */\n  0x00\n    /* \"#utility.yul\":3569:3575   */\n  dup1\n    /* \"#utility.yul\":3577:3583   */\n  0x00\n    /* \"#utility.yul\":3585:3591   */\n  dup1\n    /* \"#utility.yul\":3634:3637   */\n  0x80\n    /* \"#utility.yul\":3622:3631   */\n  dup6\n    /* \"#utility.yul\":3613:3620   */\n  dup8\n    /* \"#utility.yul\":3609:3632   */\n  sub\n    /* \"#utility.yul\":3605:3638   */\n  slt\n    /* \"#utility.yul\":3602:3722   */\n  iszero\n  tag_102\n  jumpi\n    /* \"#utility.yul\":3641:3720   */\n  tag_103\n  tag_18\n  jump\t// in\ntag_103:\n    /* \"#utility.yul\":3602:3722   */\ntag_102:\n    /* \"#utility.yul\":3782:3783   */\n  0x00\n    /* \"#utility.yul\":3771:3780   */\n  dup6\n    /* \"#utility.yul\":3767:3784   */\n  add\n    /* \"#utility.yul\":3761:3785   */\n  mload\n    /* \"#utility.yul\":3812:3830   */\n  0xffffffffffffffff\n    /* \"#utility.yul\":3804:3810   */\n  dup2\n    /* \"#utility.yul\":3801:3831   */\n  gt\n    /* \"#utility.yul\":3798:3915   */\n  iszero\n  tag_104\n  jumpi\n    /* \"#utility.yul\":3834:3913   */\n  tag_105\n  tag_19\n  jump\t// in\ntag_105:\n    /* \"#utility.yul\":3798:3915   */\ntag_104:\n    /* \"#utility.yul\":3939:4013   */\n  tag_106\n    /* \"#utility.yul\":4005:4012   */\n  dup8\n    /* \"#utility.yul\":3996:4002   */\n  dup3\n    /* \"#utility.yul\":3985:3994   */\n  dup9\n    /* \"#utility.yul\":3981:4003   */\n  add\n    /* \"#utility.yul\":3939:4013   */\n  tag_29\n  jump\t// in\ntag_106:\n    /* \"#utility.yul\":3929:4013   */\n  swap5\n  pop\n    /* \"#utility.yul\":3732:4023   */\n  pop\n    /* \"#utility.yul\":4083:4085   */\n  0x20\n    /* \"#utility.yul\":4072:4081   */\n  dup6\n    /* \"#utility.yul\":4068:4086   */\n  add\n    /* \"#utility.yul\":4062:4087   */\n  mload\n    /* \"#utility.yul\":4114:4132   */\n  0xffffffffffffffff\n    /* \"#utility.yul\":4106:4112   */\n  dup2\n    /* \"#utility.yul\":4103:4133   */\n  gt\n    /* \"#utility.yul\":4100:4217   */\n  iszero\n  tag_107\n  jumpi\n    /* \"#utility.yul\":4136:4215   */\n  tag_108\n  tag_19\n  jump\t// in\ntag_108:\n    /* \"#utility.yul\":4100:4217   */\ntag_107:\n    /* \"#utility.yul\":4241:4315   */\n  tag_109\n    /* \"#utility.yul\":4307:4314   */\n  dup8\n    /* \"#utility.yul\":4298:4304   */\n  dup3\n    /* \"#utility.yul\":4287:4296   */\n  dup9\n    /* \"#utility.yul\":4283:4305   */\n  add\n    /* \"#utility.yul\":4241:4315   */\n  tag_29\n  jump\t// in\ntag_109:\n    /* \"#utility.yul\":4231:4315   */\n  swap4\n  pop\n    /* \"#utility.yul\":4033:4325   */\n  pop\n    /* \"#utility.yul\":4364:4366   */\n  0x40\n    /* \"#utility.yul\":4390:4452   */\n  tag_110\n    /* \"#utility.yul\":4444:4451   */\n  dup8\n    /* \"#utility.yul\":4435:4441   */\n  dup3\n    /* \"#utility.yul\":4424:4433   */\n  dup9\n    /* \"#utility.yul\":4420:4442   */\n  add\n    /* \"#utility.yul\":4390:4452   */\n  tag_32\n  jump\t// in\ntag_110:\n    /* \"#utility.yul\":4380:4452   */\n  swap3\n  pop\n    /* \"#utility.yul\":4335:4462   */\n  pop\n    /* \"#utility.yul\":4501:4503   */\n  0x60\n    /* \"#utility.yul\":4527:4591   */\n  tag_111\n    /* \"#utility.yul\":4583:4590   */\n  dup8\n    /* \"#utility.yul\":4574:4580   */\n  dup3\n    /* \"#utility.yul\":4563:4572   */\n  dup9\n    /* \"#utility.yul\":4559:4581   */\n  add\n    /* \"#utility.yul\":4527:4591   */\n  tag_35\n  jump\t// in\ntag_111:\n    /* \"#utility.yul\":4517:4591   */\n  swap2\n  pop\n    /* \"#utility.yul\":4472:4601   */\n  pop\n    /* \"#utility.yul\":3446:4608   */\n  swap3\n  swap6\n  swap2\n  swap5\n  pop\n  swap3\n  pop\n  jump\t// out\n    /* \"#utility.yul\":4614:4713   */\ntag_36:\n    /* \"#utility.yul\":4666:4672   */\n  0x00\n    /* \"#utility.yul\":4700:4705   */\n  dup2\n    /* \"#utility.yul\":4694:4706   */\n  mload\n    /* \"#utility.yul\":4684:4706   */\n  swap1\n  pop\n    /* \"#utility.yul\":4614:4713   */\n  swap2\n  swap1\n  pop\n  jump\t// out\n    /* \"#utility.yul\":4719:4899   */\ntag_37:\n    /* \"#utility.yul\":4767:4844   */\n  0x4e487b7100000000000000000000000000000000000000000000000000000000\n    /* \"#utility.yul\":4764:4765   */\n  0x00\n    /* \"#utility.yul\":4757:4845   */\n  mstore\n    /* \"#utility.yul\":4864:4868   */\n  0x22\n    /* \"#utility.yul\":4861:4862   */\n  0x04\n    /* \"#utility.yul\":4854:4869   */\n  mstore\n    /* \"#utility.yul\":4888:4892   */\n  0x24\n    /* \"#utility.yul\":4885:4886   */\n  0x00\n    /* \"#utility.yul\":4878:4893   */\n  revert\n    /* \"#utility.yul\":4905:5225   */\ntag_38:\n    /* \"#utility.yul\":4949:4955   */\n  0x00\n    /* \"#utility.yul\":4986:4987   */\n  0x02\n    /* \"#utility.yul\":4980:4984   */\n  dup3\n    /* \"#utility.yul\":4976:4988   */\n  div\n    /* \"#utility.yul\":4966:4988   */\n  swap1\n  pop\n    /* \"#utility.yul\":5033:5034   */\n  0x01\n    /* \"#utility.yul\":5027:5031   */\n  dup3\n    /* \"#utility.yul\":5023:5035   */\n  and\n    /* \"#utility.yul\":5054:5072   */\n  dup1\n    /* \"#utility.yul\":5044:5125   */\n  tag_115\n  jumpi\n    /* \"#utility.yul\":5110:5114   */\n  0x7f\n    /* \"#utility.yul\":5102:5108   */\n  dup3\n    /* \"#utility.yul\":5098:5115   */\n  and\n    /* \"#utility.yul\":5088:5115   */\n  swap2\n  pop\n    /* \"#utility.yul\":5044:5125   */\ntag_115:\n    /* \"#utility.yul\":5172:5174   */\n  0x20\n    /* \"#utility.yul\":5164:5170   */\n  dup3\n    /* \"#utility.yul\":5161:5175   */\n  lt\n    /* \"#utility.yul\":5141:5159   */\n  dup2\n    /* \"#utility.yul\":5138:5176   */\n  sub\n    /* \"#utility.yul\":5135:5219   */\n  tag_116\n  jumpi\n    /* \"#utility.yul\":5191:5209   */\n  tag_117\n  tag_37\n  jump\t// in\ntag_117:\n    /* \"#utility.yul\":5135:5219   */\ntag_116:\n    /* \"#utility.yul\":4956:5225   */\n  pop\n    /* \"#utility.yul\":4905:5225   */\n  swap2\n  swap1\n  pop\n  jump\t// out\n    /* \"#utility.yul\":5231:5372   */\ntag_39:\n    /* \"#utility.yul\":5280:5284   */\n  0x00\n    /* \"#utility.yul\":5303:5306   */\n  dup2\n    /* \"#utility.yul\":5295:5306   */\n  swap1\n  pop\n    /* \"#utility.yul\":5326:5329   */\n  dup2\n    /* \"#utility.yul\":5323:5324   */\n  0x00\n    /* \"#utility.yul\":5316:5330   */\n  mstore\n    /* \"#utility.yul\":5360:5364   */\n  0x20\n    /* \"#utility.yul\":5357:5358   */\n  0x00\n    /* \"#utility.yul\":5347:5365   */\n  keccak256\n    /* \"#utility.yul\":5339:5365   */\n  swap1\n  pop\n    /* \"#utility.yul\":5231:5372   */\n  swap2\n  swap1\n  pop\n  jump\t// out\n    /* \"#utility.yul\":5378:5471   */\ntag_40:\n    /* \"#utility.yul\":5415:5421   */\n  0x00\n    /* \"#utility.yul\":5462:5464   */\n  0x20\n    /* \"#utility.yul\":5457:5459   */\n  0x1f\n    /* \"#utility.yul\":5450:5455   */\n  dup4\n    /* \"#utility.yul\":5446:5460   */\n  add\n    /* \"#utility.yul\":5442:5465   */\n  div\n    /* \"#utility.yul\":5432:5465   */\n  swap1\n  pop\n    /* \"#utility.yul\":5378:5471   */\n  swap2\n  swap1\n  pop\n  jump\t// out\n    /* \"#utility.yul\":5477:5584   */\ntag_41:\n    /* \"#utility.yul\":5521:5529   */\n  0x00\n    /* \"#utility.yul\":5571:5576   */\n  dup3\n    /* \"#utility.yul\":5565:5569   */\n  dup3\n    /* \"#utility.yul\":5561:5577   */\n  shl\n    /* \"#utility.yul\":5540:5577   */\n  swap1\n  pop\n    /* \"#utility.yul\":5477:5584   */\n  swap3\n  swap2\n  pop\n  pop\n  jump\t// out\n    /* \"#utility.yul\":5590:5983   */\ntag_42:\n    /* \"#utility.yul\":5659:5665   */\n  0x00\n    /* \"#utility.yul\":5709:5710   */\n  0x08\n    /* \"#utility.yul\":5697:5707   */\n  dup4\n    /* \"#utility.yul\":5693:5711   */\n  mul\n    /* \"#utility.yul\":5732:5829   */\n  tag_122\n    /* \"#utility.yul\":5762:5828   */\n  0xffffffffffffffffffffffffffffffffffffffffffffffffffffffffffffffff\n    /* \"#utility.yul\":5751:5760   */\n  dup3\n    /* \"#utility.yul\":5732:5829   */\n  tag_41\n  jump\t// in\ntag_122:\n    /* \"#utility.yul\":5850:5889   */\n  tag_123\n    /* \"#utility.yul\":5880:5888   */\n  dup7\n    /* \"#utility.yul\":5869:5878   */\n  dup4\n    /* \"#utility.yul\":5850:5889   */\n  tag_41\n  jump\t// in\ntag_123:\n    /* \"#utility.yul\":5838:5889   */\n  swap6\n  pop\n    /* \"#utility.yul\":5922:5926   */\n  dup1\n    /* \"#utility.yul\":5918:5927   */\n  not\n    /* \"#utility.yul\":5911:5916   */\n  dup5\n    /* \"#utility.yul\":5907:5928   */\n  and\n    /* \"#utility.yul\":5898:5928   */\n  swap4\n  pop\n    /* \"#utility.yul\":5971:5975   */\n  dup1\n    /* \"#utility.yul\":5961:5969   */\n  dup7\n    /* \"#utility.yul\":5957:5976   */\n  and\n    /* \"#utility.yul\":5950:5955   */\n  dup5\n    /* \"#utility.yul\":5947:5977   */\n  or\n    /* \"#utility.yul\":5937:5977   */\n  swap3\n  pop\n    /* \"#utility.yul\":5666:5983   */\n  pop\n  pop\n    /* \"#utility.yul\":5590:5983   */\n  swap4\n  swap3\n  pop\n  pop\n  pop\n  jump\t// out\n    /* \"#utility.yul\":5989:6049   */\ntag_43:\n    /* \"#utility.yul\":6017:6020   */\n  0x00\n    /* \"#utility.yul\":6038:6043   */\n  dup2\n    /* \"#utility.yul\":6031:6043   */\n  swap1\n  pop\n    /* \"#utility.yul\":5989:6049   */\n  swap2\n  swap1\n  pop\n  jump\t// out\n    /* \"#utility.yul\":6055:6197   */\ntag_44:\n    /* \"#utility.yul\":6105:6114   */\n  0x00\n    /* \"#utility.yul\":6138:6191   */\n  tag_126\n    /* \"#utility.yul\":6156:6190   */\n  tag_127\n    /* \"#utility.yul\":6165:6189   */\n  tag_128\n    /* \"#utility.yul\":6183:6188   */\n  dup5\n    /* \"#utility.yul\":6165:6189   */\n  tag_33\n  jump\t// in\ntag_128:\n    /* \"#utility.yul\":6156:6190   */\n  tag_43\n  jump\t// in\ntag_127:\n    /* \"#utility.yul\":6138:6191   */\n  tag_33\n  jump\t// in\ntag_126:\n    /* \"#utility.yul\":6125:6191   */\n  swap1\n  pop\n    /* \"#utility.yul\":6055:6197   */\n  swap2\n  swap1\n  pop\n  jump\t// out\n    /* \"#utility.yul\":6203:6278   */\ntag_45:\n    /* \"#utility.yul\":6246:6249   */\n  0x00\n    /* \"#utility.yul\":6267:6272   */\n  dup2\n    /* \"#utility.yul\":6260:6272   */\n  swap1\n  pop\n    /* \"#utility.yul\":6203:6278   */\n  swap2\n  swap1\n  pop\n  jump\t// out\n    /* \"#utility.yul\":6284:6553   */\ntag_46:\n    /* \"#utility.yul\":6394:6433   */\n  tag_131\n    /* \"#utility.yul\":6425:6432   */\n  dup4\n    /* \"#utility.yul\":6394:6433   */\n  tag_44\n  jump\t// in\ntag_131:\n    /* \"#utility.yul\":6455:6546   */\n  tag_132\n    /* \"#utility.yul\":6504:6545   */\n  tag_133\n    /* \"#utility.yul\":6528:6544   */\n  dup3\n    /* \"#utility.yul\":6504:6545   */\n  tag_45\n  jump\t// in\ntag_133:\n    /* \"#utility.yul\":6496:6502   */\n  dup5\n    /* \"#utility.yul\":6489:6493   */\n  dup5\n    /* \"#utility.yul\":6483:6494   */\n  sload\n    /* \"#utility.yul\":6455:6546   */\n  tag_42\n  jump\t// in\ntag_132:\n    /* \"#utility.yul\":6449:6453   */\n  dup3\n    /* \"#utility.yul\":6442:6547   */\n  sstore\n    /* \"#utility.yul\":6360:6553   */\n  pop\n    /* \"#utility.yul\":6284:6553   */\n  pop\n  pop\n  pop\n  jump\t// out\n    /* \"#utility.yul\":6559:6632   */\ntag_47:\n    /* \"#utility.yul\":6604:6607   */\n  0x00\n    /* \"#utility.yul\":6559:6632   */\n  swap1\n  jump\t// out\n    /* \"#utility.yul\":6638:6827   */\ntag_48:\n    /* \"#utility.yul\":6715:6747   */\n  tag_136\n  tag_47\n  jump\t// in\ntag_136:\n    /* \"#utility.yul\":6756:6821   */\n  tag_137\n    /* \"#utility.yul\":6814:6820   */\n  dup2\n    /* \"#utility.yul\":6806:6812   */\n  dup5\n    /* \"#utility.yul\":6800:6804   */\n  dup5\n    /* \"#utility.yul\":6756:6821   */\n  tag_46\n  jump\t// in\ntag_137:\n    /* \"#utility.yul\":6691:6827   */\n  pop\n    /* \"#utility.yul\":6638:6827   */\n  pop\n  pop\n  jump\t// out\n    /* \"#utility.yul\":6833:7019   */\ntag_49:\n    /* \"#utility.yul\":6893:7013   */\ntag_139:\n    /* \"#utility.yul\":6910:6913   */\n  dup2\n    /* \"#utility.yul\":6903:6908   */\n  dup2\n    /* \"#utility.yul\":6900:6914   */\n  lt\n    /* \"#utility.yul\":6893:7013   */\n  iszero\n  tag_141\n  jumpi\n    /* \"#utility.yul\":6964:7003   */\n  tag_142\n    /* \"#utility.yul\":7001:7002   */\n  0x00\n    /* \"#utility.yul\":6994:6999   */\n  dup3\n    /* \"#utility.yul\":6964:7003   */\n  tag_48\n  jump\t// in\ntag_142:\n    /* \"#utility.yul\":6937:6938   */\n  0x01\n    /* \"#utility.yul\":6930:6935   */\n  dup2\n    /* \"#utility.yul\":6926:6939   */\n  add\n    /* \"#utility.yul\":6917:6939   */\n  swap1\n  pop\n    /* \"#utility.yul\":6893:7013   */\n  jump(tag_139)\ntag_141:\n    /* \"#utility.yul\":6833:7019   */\n  pop\n  pop\n  jump\t// out\n    /* \"#utility.yul\":7025:7568   */\ntag_50:\n    /* \"#utility.yul\":7126:7128   */\n  0x1f\n    /* \"#utility.yul\":7121:7124   */\n  dup3\n    /* \"#utility.yul\":7118:7129   */\n  gt\n    /* \"#utility.yul\":7115:7561   */\n  iszero\n  tag_144\n  jumpi\n    /* \"#utility.yul\":7160:7198   */\n  tag_145\n    /* \"#utility.yul\":7192:7197   */\n  dup2\n    /* \"#utility.yul\":7160:7198   */\n  tag_39\n  jump\t// in\ntag_145:\n    /* \"#utility.yul\":7244:7273   */\n  tag_146\n    /* \"#utility.yul\":7262:7272   */\n  dup5\n    /* \"#utility.yul\":7244:7273   */\n  tag_40\n  jump\t// in\ntag_146:\n    /* \"#utility.yul\":7234:7242   */\n  dup2\n    /* \"#utility.yul\":7230:7274   */\n  add\n    /* \"#utility.yul\":7427:7429   */\n  0x20\n    /* \"#utility.yul\":7415:7425   */\n  dup6\n    /* \"#utility.yul\":7412:7430   */\n  lt\n    /* \"#utility.yul\":7409:7458   */\n  iszero\n  tag_147\n  jumpi\n    /* \"#utility.yul\":7448:7456   */\n  dup2\n    /* \"#utility.yul\":7433:7456   */\n  swap1\n  pop\n    /* \"#utility.yul\":7409:7458   */\ntag_147:\n    /* \"#utility.yul\":7471:7551   */\n  tag_148\n    /* \"#utility.yul\":7527:7549   */\n  tag_149\n    /* \"#utility.yul\":7545:7548   */\n  dup6\n    /* \"#utility.yul\":7527:7549   */\n  tag_40\n  jump\t// in\ntag_149:\n    /* \"#utility.yul\":7517:7525   */\n  dup4\n    /* \"#utility.yul\":7513:7550   */\n  add\n    /* \"#utility.yul\":7500:7511   */\n  dup3\n    /* \"#utility.yul\":7471:7551   */\n  tag_49\n  jump\t// in\ntag_148:\n    /* \"#utility.yul\":7130:7561   */\n  pop\n  pop\n    /* \"#utility.yul\":7115:7561   */\ntag_144:\n    /* \"#utility.yul\":7025:7568   */\n  pop\n  pop\n  pop\n  jump\t// out\n    /* \"#utility.yul\":7574:7691   */\ntag_51:\n    /* \"#utility.yul\":7628:7636   */\n  0x00\n    /* \"#utility.yul\":7678:7683   */\n  dup3\n    /* \"#utility.yul\":7672:7676   */\n  dup3\n    /* \"#utility.yul\":7668:7684   */\n  shr\n    /* \"#utility.yul\":7647:7684   */\n  swap1\n  pop\n    /* \"#utility.yul\":7574:7691   */\n  swap3\n  swap2\n  pop\n  pop\n  jump\t// out\n    /* \"#utility.yul\":7697:7866   */\ntag_52:\n    /* \"#utility.yul\":7741:7747   */\n  0x00\n    /* \"#utility.yul\":7774:7825   */\n  tag_152\n    /* \"#utility.yul\":7822:7823   */\n  0x00\n    /* \"#utility.yul\":7818:7824   */\n  not\n    /* \"#utility.yul\":7810:7815   */\n  dup5\n    /* \"#utility.yul\":7807:7808   */\n  0x08\n    /* \"#utility.yul\":7803:7816   */\n  mul\n    /* \"#utility.yul\":7774:7825   */\n  tag_51\n  jump\t// in\ntag_152:\n    /* \"#utility.yul\":7770:7826   */\n  not\n    /* \"#utility.yul\":7855:7859   */\n  dup1\n    /* \"#utility.yul\":7849:7853   */\n  dup4\n    /* \"#utility.yul\":7845:7860   */\n  and\n    /* \"#utility.yul\":7835:7860   */\n  swap2\n  pop\n    /* \"#utility.yul\":7748:7866   */\n  pop\n    /* \"#utility.yul\":7697:7866   */\n  swap3\n  swap2\n  pop\n  pop\n  jump\t// out\n    /* \"#utility.yul\":7871:8166   */\ntag_53:\n    /* \"#utility.yul\":7947:7951   */\n  0x00\n    /* \"#utility.yul\":8093:8122   */\n  tag_154\n    /* \"#utility.yul\":8118:8121   */\n  dup4\n    /* \"#utility.yul\":8112:8116   */\n  dup4\n    /* \"#utility.yul\":8093:8122   */\n  tag_52\n  jump\t// in\ntag_154:\n    /* \"#utility.yul\":8085:8122   */\n  swap2\n  pop\n    /* \"#utility.yul\":8155:8158   */\n  dup3\n    /* \"#utility.yul\":8152:8153   */\n  0x02\n    /* \"#utility.yul\":8148:8159   */\n  mul\n    /* \"#utility.yul\":8142:8146   */\n  dup3\n    /* \"#utility.yul\":8139:8160   */\n  or\n    /* \"#utility.yul\":8131:8160   */\n  swap1\n  pop\n    /* \"#utility.yul\":7871:8166   */\n  swap3\n  swap2\n  pop\n  pop\n  jump\t// out\n    /* \"#utility.yul\":8171:9566   */\ntag_12:\n    /* \"#utility.yul\":8288:8325   */\n  tag_156\n    /* \"#utility.yul\":8321:8324   */\n  dup3\n    /* \"#utility.yul\":8288:8325   */\n  tag_36\n  jump\t// in\ntag_156:\n    /* \"#utility.yul\":8390:8408   */\n  0xffffffffffffffff\n    /* \"#utility.yul\":8382:8388   */\n  dup2\n    /* \"#utility.yul\":8379:8409   */\n  gt\n    /* \"#utility.yul\":8376:8432   */\n  iszero\n  tag_157\n  jumpi\n    /* \"#utility.yul\":8412:8430   */\n  tag_158\n  tag_23\n  jump\t// in\ntag_158:\n    /* \"#utility.yul\":8376:8432   */\ntag_157:\n    /* \"#utility.yul\":8456:8494   */\n  tag_159\n    /* \"#utility.yul\":8488:8492   */\n  dup3\n    /* \"#utility.yul\":8482:8493   */\n  sload\n    /* \"#utility.yul\":8456:8494   */\n  tag_38\n  jump\t// in\ntag_159:\n    /* \"#utility.yul\":8541:8608   */\n  tag_160\n    /* \"#utility.yul\":8601:8607   */\n  dup3\n    /* \"#utility.yul\":8593:8599   */\n  dup3\n    /* \"#utility.yul\":8587:8591   */\n  dup6\n    /* \"#utility.yul\":8541:8608   */\n  tag_50\n  jump\t// in\ntag_160:\n    /* \"#utility.yul\":8635:8636   */\n  0x00\n    /* \"#utility.yul\":8659:8663   */\n  0x20\n    /* \"#utility.yul\":8646:8663   */\n  swap1\n  pop\n    /* \"#utility.yul\":8691:8693   */\n  0x1f\n    /* \"#utility.yul\":8683:8689   */\n  dup4\n    /* \"#utility.yul\":8680:8694   */\n  gt\n    /* \"#utility.yul\":8708:8709   */\n  0x01\n    /* \"#utility.yul\":8703:9321   */\n  dup2\n  eq\n  tag_162\n  jumpi\n    /* \"#utility.yul\":9365:9366   */\n  0x00\n    /* \"#utility.yul\":9382:9388   */\n  dup5\n    /* \"#utility.yul\":9379:9456   */\n  iszero\n  tag_163\n  jumpi\n    /* \"#utility.yul\":9431:9440   */\n  dup3\n    /* \"#utility.yul\":9426:9429   */\n  dup8\n    /* \"#utility.yul\":9422:9441   */\n  add\n    /* \"#utility.yul\":9416:9442   */\n  mload\n    /* \"#utility.yul\":9407:9442   */\n  swap1\n  pop\n    /* \"#utility.yul\":9379:9456   */\ntag_163:\n    /* \"#utility.yul\":9482:9549   */\n  tag_164\n    /* \"#utility.yul\":9542:9548   */\n  dup6\n    /* \"#utility.yul\":9535:9540   */\n  dup3\n    /* \"#utility.yul\":9482:9549   */\n  tag_53\n  jump\t// in\ntag_164:\n    /* \"#utility.yul\":9476:9480   */\n  dup7\n    /* \"#utility.yul\":9469:9550   */\n  sstore\n    /* \"#utility.yul\":9338:9560   */\n  pop\n    /* \"#utility.yul\":8673:9560   */\n  jump(tag_161)\n    /* \"#utility.yul\":8703:9321   */\ntag_162:\n    /* \"#utility.yul\":8755:8759   */\n  0x1f\n    /* \"#utility.yul\":8751:8760   */\n  not\n    /* \"#utility.yul\":8743:8749   */\n  dup5\n    /* \"#utility.yul\":8739:8761   */\n  and\n    /* \"#utility.yul\":8789:8826   */\n  tag_165\n    /* \"#utility.yul\":8821:8825   */\n  dup7\n    /* \"#utility.yul\":8789:8826   */\n  tag_39\n  jump\t// in\ntag_165:\n    /* \"#utility.yul\":8848:8849   */\n  0x00\n    /* \"#utility.yul\":8862:9070   */\ntag_166:\n    /* \"#utility.yul\":8876:8883   */\n  dup3\n    /* \"#utility.yul\":8873:8874   */\n  dup2\n    /* \"#utility.yul\":8870:8884   */\n  lt\n    /* \"#utility.yul\":8862:9070   */\n  iszero\n  tag_168\n  jumpi\n    /* \"#utility.yul\":8955:8964   */\n  dup5\n    /* \"#utility.yul\":8950:8953   */\n  dup10\n    /* \"#utility.yul\":8946:8965   */\n  add\n    /* \"#utility.yul\":8940:8966   */\n  mload\n    /* \"#utility.yul\":8932:8938   */\n  dup3\n    /* \"#utility.yul\":8925:8967   */\n  sstore\n    /* \"#utility.yul\":9006:9007   */\n  0x01\n    /* \"#utility.yul\":8998:9004   */\n  dup3\n    /* \"#utility.yul\":8994:9008   */\n  add\n    /* \"#utility.yul\":8984:9008   */\n  swap2\n  pop\n    /* \"#utility.yul\":9053:9055   */\n  0x20\n    /* \"#utility.yul\":9042:9051   */\n  dup6\n    /* \"#utility.yul\":9038:9056   */\n  add\n    /* \"#utility.yul\":9025:9056   */\n  swap5\n  pop\n    /* \"#utility.yul\":8899:8903   */\n  0x20\n    /* \"#utility.yul\":8896:8897   */\n  dup2\n    /* \"#utility.yul\":8892:8904   */\n  add\n    /* \"#utility.yul\":8887:8904   */\n  swap1\n  pop\n    /* \"#utility.yul\":8862:9070   */\n  jump(tag_166)\ntag_168:\n    /* \"#utility.yul\":9098:9104   */\n  dup7\n    /* \"#utility.yul\":9089:9096   */\n  dup4\n    /* \"#utility.yul\":9086:9105   */\n  lt\n    /* \"#utility.yul\":9083:9262   */\n  iszero\n  tag_169\n  jumpi\n    /* \"#utility.yul\":9156:9165   */\n  dup5\n    /* \"#utility.yul\":9151:9154   */\n  dup10\n    /* \"#utility.yul\":9147:9166   */\n  add\n    /* \"#utility.yul\":9141:9167   */\n  mload\n    /* \"#utility.yul\":9199:9247   */\n  tag_170\n    /* \"#utility.yul\":9241:9245   */\n  0x1f\n    /* \"#utility.yul\":9233:9239   */\n  dup10\n    /* \"#utility.yul\":9229:9246   */\n  and\n    /* \"#utility.yul\":9218:9227   */\n  dup3\n    /* \"#utility.yul\":9199:9247   */\n  tag_52\n  jump\t// in\ntag_170:\n    /* \"#utility.yul\":9191:9197   */\n  dup4\n    /* \"#utility.yul\":9184:9248   */\n  sstore\n    /* \"#utility.yul\":9106:9262   */\n  pop\n    /* \"#utility.yul\":9083:9262   */\ntag_169:\n    /* \"#utility.yul\":9308:9309   */\n  0x01\n    /* \"#utility.yul\":9304:9305   */\n  0x02\n    /* \"#utility.yul\":9296:9302   */\n  dup9\n    /* \"#utility.yul\":9292:9306   */\n  mul\n    /* \"#utility.yul\":9288:9310   */\n  add\n    /* \"#utility.yul\":9282:9286   */\n  dup9\n    /* \"#utility.yul\":9275:9311   */\n  sstore\n    /* \"#utility.yul\":8710:9321   */\n  pop\n  pop\n  pop\n    /* \"#utility.yul\":8673:9560   */\ntag_161:\n  pop\n    /* \"#utility.yul\":8263:9566   */\n  pop\n  pop\n  pop\n    /* \"#utility.yul\":8171:9566   */\n  pop\n  pop\n  jump\t// out\n    /* \"#utility.yul\":9572:9690   */\ntag_54:\n    /* \"#utility.yul\":9659:9683   */\n  tag_172\n    /* \"#utility.yul\":9677:9682   */\n  dup2\n    /* \"#utility.yul\":9659:9683   */\n  tag_33\n  jump\t// in\ntag_172:\n    /* \"#utility.yul\":9654:9657   */\n  dup3\n    /* \"#utility.yul\":9647:9684   */\n  mstore\n    /* \"#utility.yul\":9572:9690   */\n  pop\n  pop\n  jump\t// out\n    /* \"#utility.yul\":9696:9918   */\ntag_15:\n    /* \"#utility.yul\":9789:9793   */\n  0x00\n    /* \"#utility.yul\":9827:9829   */\n  0x20\n    /* \"#utility.yul\":9816:9825   */\n  dup3\n    /* \"#utility.yul\":9812:9830   */\n  add\n    /* \"#utility.yul\":9804:9830   */\n  swap1\n  pop\n    /* \"#utility.yul\":9840:9911   */\n  tag_174\n    /* \"#utility.yul\":9908:9909   */\n  0x00\n    /* \"#utility.yul\":9897:9906   */\n  dup4\n    /* \"#utility.yul\":9893:9910   */\n  add\n    /* \"#utility.yul\":9884:9890   */\n  dup5\n    /* \"#utility.yul\":9840:9911   */\n  tag_54\n  jump\t// in\ntag_174:\n    /* \"#utility.yul\":9696:9918   */\n  swap3\n  swap2\n  pop\n  pop\n  jump\t// out\n    /* \"contracts/MetraToken.sol\":150:9181  contract Metra is Ownable, Stakeable{... */\ntag_16:\n  dataSize(sub_0)\n  dup1\n  dataOffset(sub_0)\n  0x00\n  codecopy\n  0x00\n  return\nstop\n\nsub_0: assembly {\n        /* \"contracts/MetraToken.sol\":150:9181  contract Metra is Ownable, Stakeable{... */\n      mstore(0x40, 0x80)\n      callvalue\n      dup1\n      iszero\n      tag_1\n      jumpi\n      0x00\n      dup1\n      revert\n    tag_1:\n      pop\n      jumpi(tag_2, lt(calldatasize, 0x04))\n      shr(0xe0, calldataload(0x00))\n      dup1\n      0x893d20e8\n      gt\n      tag_22\n      jumpi\n      dup1\n      0xa694fc3a\n      gt\n      tag_23\n      jumpi\n      dup1\n      0xa694fc3a\n      eq\n      tag_17\n      jumpi\n      dup1\n      0xa9059cbb\n      eq\n      tag_18\n      jumpi\n      dup1\n      0xdd62ed3e\n      eq\n      tag_19\n      jumpi\n      dup1\n      0xe73e14bf\n      eq\n      tag_20\n      jumpi\n      dup1\n      0xf2fde38b\n      eq\n      tag_21\n      jumpi\n      jump(tag_2)\n    tag_23:\n      dup1\n      0x893d20e8\n      eq\n      tag_12\n      jumpi\n      dup1\n      0x8da5cb5b\n      eq\n      tag_13\n      jumpi\n      dup1\n      0x95d89b41\n      eq\n      tag_14\n      jumpi\n      dup1\n      0x9dc29fac\n      eq\n      tag_15\n      jumpi\n      dup1\n      0xa457c2d7\n      eq\n      tag_16\n      jumpi\n      jump(tag_2)\n    tag_22:\n      dup1\n      0x279f9b11\n      gt\n      tag_24\n      jumpi\n      dup1\n      0x279f9b11\n      eq\n      tag_7\n      jumpi\n      dup1\n      0x313ce567\n      eq\n      tag_8\n      jumpi\n      dup1\n      0x39509351\n      eq\n      tag_9\n      jumpi\n      dup1\n      0x70a08231\n      eq\n      tag_10\n      jumpi\n      dup1\n      0x715018a6\n      eq\n      tag_11\n      jumpi\n      jump(tag_2)\n    tag_24:\n      dup1\n      0x06fdde03\n      eq\n      tag_3\n      jumpi\n      dup1\n      0x095ea7b3\n      eq\n      tag_4\n      jumpi\n      dup1\n      0x18160ddd\n      eq\n      tag_5\n      jumpi\n      dup1\n      0x23b872dd\n      eq\n      tag_6\n      jumpi\n    tag_2:\n      0x00\n      dup1\n      revert\n        /* \"contracts/MetraToken.sol\":2414:2487  function name() external view returns (string memory){... */\n    tag_3:\n      tag_25\n      tag_26\n      jump\t// in\n    tag_25:\n      mload(0x40)\n      tag_27\n      swap2\n      swap1\n      tag_28\n      jump\t// in\n    tag_27:\n      mload(0x40)\n      dup1\n      swap2\n      sub\n      swap1\n      return\n        /* \"contracts/MetraToken.sol\":6303:6445  function approve(address spender, uint256 amount) external returns (bool) {... */\n    tag_4:\n      tag_29\n      0x04\n      dup1\n      calldatasize\n      sub\n      dup2\n      add\n      swap1\n      tag_30\n      swap2\n      swap1\n      tag_31\n      jump\t// in\n    tag_30:\n      tag_32\n      jump\t// in\n    tag_29:\n      mload(0x40)\n      tag_33\n      swap2\n      swap1\n      tag_34\n      jump\t// in\n    tag_33:\n      mload(0x40)\n      dup1\n      swap2\n      sub\n      swap1\n      return\n        /* \"contracts/MetraToken.sol\":2571:2655  function totalSupply() external view returns (uint256){... */\n    tag_5:\n      tag_35\n      tag_36\n      jump\t// in\n    tag_35:\n      mload(0x40)\n      tag_37\n      swap2\n      swap1\n      tag_38\n      jump\t// in\n    tag_37:\n      mload(0x40)\n      dup1\n      swap2\n      sub\n      swap1\n      return\n        /* \"contracts/MetraToken.sol\":7333:7825  function transferFrom(address spender, address recipient, uint256 amount) external returns(bool){... */\n    tag_6:\n      tag_39\n      0x04\n      dup1\n      calldatasize\n      sub\n      dup2\n      add\n      swap1\n      tag_40\n      swap2\n      swap1\n      tag_41\n      jump\t// in\n    tag_40:\n      tag_42\n      jump\t// in\n    tag_39:\n      mload(0x40)\n      tag_43\n      swap2\n      swap1\n      tag_34\n      jump\t// in\n    tag_43:\n      mload(0x40)\n      dup1\n      swap2\n      sub\n      swap1\n      return\n        /* \"contracts/MetraToken.sol\":8932:9178  function withdrawStake(uint256 amount, uint256 stake_index, uint256 reward)  public {... */\n    tag_7:\n      tag_44\n      0x04\n      dup1\n      calldatasize\n      sub\n      dup2\n      add\n      swap1\n      tag_45\n      swap2\n      swap1\n      tag_46\n      jump\t// in\n    tag_45:\n      tag_47\n      jump\t// in\n    tag_44:\n      stop\n        /* \"contracts/MetraToken.sol\":2129:2206  function decimals() external view returns (uint8) {... */\n    tag_8:\n      tag_48\n      tag_49\n      jump\t// in\n    tag_48:\n      mload(0x40)\n      tag_50\n      swap2\n      swap1\n      tag_51\n      jump\t// in\n    tag_50:\n      mload(0x40)\n      dup1\n      swap2\n      sub\n      swap1\n      return\n        /* \"contracts/MetraToken.sol\":7944:8130  function increaseAllowance(address spender, uint256 amount) public returns (bool) {... */\n    tag_9:\n      tag_52\n      0x04\n      dup1\n      calldatasize\n      sub\n      dup2\n      add\n      swap1\n      tag_53\n      swap2\n      swap1\n      tag_31\n      jump\t// in\n    tag_53:\n      tag_54\n      jump\t// in\n    tag_52:\n      mload(0x40)\n      tag_55\n      swap2\n      swap1\n      tag_34\n      jump\t// in\n    tag_55:\n      mload(0x40)\n      dup1\n      swap2\n      sub\n      swap1\n      return\n        /* \"contracts/MetraToken.sol\":2745:2849  function balanceOf(address account) external view returns (uint256) {... */\n    tag_10:\n      tag_56\n      0x04\n      dup1\n      calldatasize\n      sub\n      dup2\n      add\n      swap1\n      tag_57\n      swap2\n      swap1\n      tag_58\n      jump\t// in\n    tag_57:\n      tag_59\n      jump\t// in\n    tag_56:\n      mload(0x40)\n      tag_60\n      swap2\n      swap1\n      tag_38\n      jump\t// in\n    tag_60:\n      mload(0x40)\n      dup1\n      swap2\n      sub\n      swap1\n      return\n        /* \"contracts/Ownable.sol\":1461:1598  function renounceOwnership() public onlyOwner {... */\n    tag_11:\n      tag_61\n      tag_62\n      jump\t// in\n    tag_61:\n      stop\n        /* \"contracts/MetraToken.sol\":5887:5964  function getOwner() external view returns (address) {... */\n    tag_12:\n      tag_63\n      tag_64\n      jump\t// in\n    tag_63:\n      mload(0x40)\n      tag_65\n      swap2\n      swap1\n      tag_66\n      jump\t// in\n    tag_65:\n      mload(0x40)\n      dup1\n      swap2\n      sub\n      swap1\n      return\n        /* \"contracts/Ownable.sol\":1137:1214  function owner() public view returns(address) {... */\n    tag_13:\n      tag_67\n      tag_68\n      jump\t// in\n    tag_67:\n      mload(0x40)\n      tag_69\n      swap2\n      swap1\n      tag_66\n      jump\t// in\n    tag_69:\n      mload(0x40)\n      dup1\n      swap2\n      sub\n      swap1\n      return\n        /* \"contracts/MetraToken.sol\":2271:2351  function symbol() external view returns (string memory){... */\n    tag_14:\n      tag_70\n      tag_71\n      jump\t// in\n    tag_70:\n      mload(0x40)\n      tag_72\n      swap2\n      swap1\n      tag_28\n      jump\t// in\n    tag_72:\n      mload(0x40)\n      dup1\n      swap2\n      sub\n      swap1\n      return\n        /* \"contracts/MetraToken.sol\":4488:4616  function burn(address account, uint256 amount) public onlyOwner returns(bool) {... */\n    tag_15:\n      tag_73\n      0x04\n      dup1\n      calldatasize\n      sub\n      dup2\n      add\n      swap1\n      tag_74\n      swap2\n      swap1\n      tag_31\n      jump\t// in\n    tag_74:\n      tag_75\n      jump\t// in\n    tag_73:\n      mload(0x40)\n      tag_76\n      swap2\n      swap1\n      tag_34\n      jump\t// in\n    tag_76:\n      mload(0x40)\n      dup1\n      swap2\n      sub\n      swap1\n      return\n        /* \"contracts/MetraToken.sol\":8252:8438  function decreaseAllowance(address spender, uint256 amount) public returns (bool) {... */\n    tag_16:\n      tag_77\n      0x04\n      dup1\n      calldatasize\n      sub\n      dup2\n      add\n      swap1\n      tag_78\n      swap2\n      swap1\n      tag_31\n      jump\t// in\n    tag_78:\n      tag_79\n      jump\t// in\n    tag_77:\n      mload(0x40)\n      tag_80\n      swap2\n      swap1\n      tag_34\n      jump\t// in\n    tag_80:\n      mload(0x40)\n      dup1\n      swap2\n      sub\n      swap1\n      return\n        /* \"contracts/MetraToken.sol\":8525:8831  function stake(uint256 _amount) public {... */\n    tag_17:\n      tag_81\n      0x04\n      dup1\n      calldatasize\n      sub\n      dup2\n      add\n      swap1\n      tag_82\n      swap2\n      swap1\n      tag_83\n      jump\t// in\n    tag_82:\n      tag_84\n      jump\t// in\n    tag_81:\n      stop\n        /* \"contracts/MetraToken.sol\":4918:5063  function transfer(address recipient, uint256 amount) external returns (bool) {... */\n    tag_18:\n      tag_85\n      0x04\n      dup1\n      calldatasize\n      sub\n      dup2\n      add\n      swap1\n      tag_86\n      swap2\n      swap1\n      tag_31\n      jump\t// in\n    tag_86:\n      tag_87\n      jump\t// in\n    tag_85:\n      mload(0x40)\n      tag_88\n      swap2\n      swap1\n      tag_34\n      jump\t// in\n    tag_88:\n      mload(0x40)\n      dup1\n      swap2\n      sub\n      swap1\n      return\n        /* \"contracts/MetraToken.sol\":6049:6177  function allowance(address owner, address spender) external view returns(uint256){... */\n    tag_19:\n      tag_89\n      0x04\n      dup1\n      calldatasize\n      sub\n      dup2\n      add\n      swap1\n      tag_90\n      swap2\n      swap1\n      tag_91\n      jump\t// in\n    tag_90:\n      tag_92\n      jump\t// in\n    tag_89:\n      mload(0x40)\n      tag_93\n      swap2\n      swap1\n      tag_38\n      jump\t// in\n    tag_93:\n      mload(0x40)\n      dup1\n      swap2\n      sub\n      swap1\n      return\n        /* \"contracts/Stakeable.sol\":6899:7727  function hasStake(address _staker) public view returns(StakingSummary memory){... */\n    tag_20:\n      tag_94\n      0x04\n      dup1\n      calldatasize\n      sub\n      dup2\n      add\n      swap1\n      tag_95\n      swap2\n      swap1\n      tag_58\n      jump\t// in\n    tag_95:\n      tag_96\n      jump\t// in\n    tag_94:\n      mload(0x40)\n      tag_97\n      swap2\n      swap1\n      tag_98\n      jump\t// in\n    tag_97:\n      mload(0x40)\n      dup1\n      swap2\n      sub\n      swap1\n      return\n        /* \"contracts/Ownable.sol\":1694:1801  function transferOwnership(address newOwner) public onlyOwner {... */\n    tag_21:\n      tag_99\n      0x04\n      dup1\n      calldatasize\n      sub\n      dup2\n      add\n      swap1\n      tag_100\n      swap2\n      swap1\n      tag_58\n      jump\t// in\n    tag_100:\n      tag_101\n      jump\t// in\n    tag_99:\n      stop\n        /* \"contracts/MetraToken.sol\":2414:2487  function name() external view returns (string memory){... */\n    tag_26:\n        /* \"contracts/MetraToken.sol\":2453:2466  string memory */\n      0x60\n        /* \"contracts/MetraToken.sol\":2473:2482  return \"\" */\n      mload(0x40)\n      dup1\n      0x20\n      add\n      0x40\n      mstore\n      dup1\n      0x00\n      dup2\n      mstore\n      pop\n      swap1\n      pop\n        /* \"contracts/MetraToken.sol\":2414:2487  function name() external view returns (string memory){... */\n      swap1\n      jump\t// out\n        /* \"contracts/MetraToken.sol\":6303:6445  function approve(address spender, uint256 amount) external returns (bool) {... */\n    tag_32:\n        /* \"contracts/MetraToken.sol\":6371:6375  bool */\n      0x00\n        /* \"contracts/MetraToken.sol\":6384:6421  _approve(msg.sender, spender, amount) */\n      tag_104\n        /* \"contracts/MetraToken.sol\":6393:6403  msg.sender */\n      caller\n        /* \"contracts/MetraToken.sol\":6405:6412  spender */\n      dup5\n        /* \"contracts/MetraToken.sol\":6414:6420  amount */\n      dup5\n        /* \"contracts/MetraToken.sol\":6384:6392  _approve */\n      tag_105\n        /* \"contracts/MetraToken.sol\":6384:6421  _approve(msg.sender, spender, amount) */\n      jump\t// in\n    tag_104:\n        /* \"contracts/MetraToken.sol\":6435:6439  true */\n      0x01\n        /* \"contracts/MetraToken.sol\":6428:6439  return true */\n      swap1\n      pop\n        /* \"contracts/MetraToken.sol\":6303:6445  function approve(address spender, uint256 amount) external returns (bool) {... */\n      swap3\n      swap2\n      pop\n      pop\n      jump\t// out\n        /* \"contracts/MetraToken.sol\":2571:2655  function totalSupply() external view returns (uint256){... */\n    tag_36:\n        /* \"contracts/MetraToken.sol\":2617:2624  uint256 */\n      0x00\n        /* \"contracts/MetraToken.sol\":2638:2650  _totalSupply */\n      sload(0x04)\n        /* \"contracts/MetraToken.sol\":2631:2650  return _totalSupply */\n      swap1\n      pop\n        /* \"contracts/MetraToken.sol\":2571:2655  function totalSupply() external view returns (uint256){... */\n      swap1\n      jump\t// out\n        /* \"contracts/MetraToken.sol\":7333:7825  function transferFrom(address spender, address recipient, uint256 amount) external returns(bool){... */\n    tag_42:\n        /* \"contracts/MetraToken.sol\":7424:7428  bool */\n      0x00\n        /* \"contracts/MetraToken.sol\":7531:7537  amount */\n      dup2\n        /* \"contracts/MetraToken.sol\":7495:7506  _allowances */\n      0x09\n        /* \"contracts/MetraToken.sol\":7495:7515  _allowances[spender] */\n      0x00\n        /* \"contracts/MetraToken.sol\":7507:7514  spender */\n      dup7\n        /* \"contracts/MetraToken.sol\":7495:7515  _allowances[spender] */\n      0xffffffffffffffffffffffffffffffffffffffff\n      and\n      0xffffffffffffffffffffffffffffffffffffffff\n      and\n      dup2\n      mstore\n      0x20\n      add\n      swap1\n      dup2\n      mstore\n      0x20\n      add\n      0x00\n      keccak256\n        /* \"contracts/MetraToken.sol\":7495:7527  _allowances[spender][msg.sender] */\n      0x00\n        /* \"contracts/MetraToken.sol\":7516:7526  msg.sender */\n      caller\n        /* \"contracts/MetraToken.sol\":7495:7527  _allowances[spender][msg.sender] */\n      0xffffffffffffffffffffffffffffffffffffffff\n      and\n      0xffffffffffffffffffffffffffffffffffffffff\n      and\n      dup2\n      mstore\n      0x20\n      add\n      swap1\n      dup2\n      mstore\n      0x20\n      add\n      0x00\n      keccak256\n      sload\n        /* \"contracts/MetraToken.sol\":7495:7537  _allowances[spender][msg.sender] >= amount */\n      lt\n      iszero\n        /* \"contracts/MetraToken.sol\":7487:7591  require(_allowances[spender][msg.sender] >= amount, \"Metra: You cannot spend that much on this account\") */\n      tag_108\n      jumpi\n      mload(0x40)\n      0x08c379a000000000000000000000000000000000000000000000000000000000\n      dup2\n      mstore\n      0x04\n      add\n      tag_109\n      swap1\n      tag_110\n      jump\t// in\n    tag_109:\n      mload(0x40)\n      dup1\n      swap2\n      sub\n      swap1\n      revert\n    tag_108:\n        /* \"contracts/MetraToken.sol\":7623:7660  _transfer(spender, recipient, amount) */\n      tag_111\n        /* \"contracts/MetraToken.sol\":7633:7640  spender */\n      dup5\n        /* \"contracts/MetraToken.sol\":7642:7651  recipient */\n      dup5\n        /* \"contracts/MetraToken.sol\":7653:7659  amount */\n      dup5\n        /* \"contracts/MetraToken.sol\":7623:7632  _transfer */\n      tag_112\n        /* \"contracts/MetraToken.sol\":7623:7660  _transfer(spender, recipient, amount) */\n      jump\t// in\n    tag_111:\n        /* \"contracts/MetraToken.sol\":7727:7799  _approve(spender, msg.sender, _allowances[spender][msg.sender] - amount) */\n      tag_113\n        /* \"contracts/MetraToken.sol\":7736:7743  spender */\n      dup5\n        /* \"contracts/MetraToken.sol\":7745:7755  msg.sender */\n      caller\n        /* \"contracts/MetraToken.sol\":7792:7798  amount */\n      dup5\n        /* \"contracts/MetraToken.sol\":7757:7768  _allowances */\n      0x09\n        /* \"contracts/MetraToken.sol\":7757:7777  _allowances[spender] */\n      0x00\n        /* \"contracts/MetraToken.sol\":7769:7776  spender */\n      dup10\n        /* \"contracts/MetraToken.sol\":7757:7777  _allowances[spender] */\n      0xffffffffffffffffffffffffffffffffffffffff\n      and\n      0xffffffffffffffffffffffffffffffffffffffff\n      and\n      dup2\n      mstore\n      0x20\n      add\n      swap1\n      dup2\n      mstore\n      0x20\n      add\n      0x00\n      keccak256\n        /* \"contracts/MetraToken.sol\":7757:7789  _allowances[spender][msg.sender] */\n      0x00\n        /* \"contracts/MetraToken.sol\":7778:7788  msg.sender */\n      caller\n        /* \"contracts/MetraToken.sol\":7757:7789  _allowances[spender][msg.sender] */\n      0xffffffffffffffffffffffffffffffffffffffff\n      and\n      0xffffffffffffffffffffffffffffffffffffffff\n      and\n      dup2\n      mstore\n      0x20\n      add\n      swap1\n      dup2\n      mstore\n      0x20\n      add\n      0x00\n      keccak256\n      sload\n        /* \"contracts/MetraToken.sol\":7757:7798  _allowances[spender][msg.sender] - amount */\n      tag_114\n      swap2\n      swap1\n      tag_115\n      jump\t// in\n    tag_114:\n        /* \"contracts/MetraToken.sol\":7727:7735  _approve */\n      tag_105\n        /* \"contracts/MetraToken.sol\":7727:7799  _approve(spender, msg.sender, _allowances[spender][msg.sender] - amount) */\n      jump\t// in\n    tag_113:\n        /* \"contracts/MetraToken.sol\":7814:7818  true */\n      0x01\n        /* \"contracts/MetraToken.sol\":7807:7818  return true */\n      swap1\n      pop\n        /* \"contracts/MetraToken.sol\":7333:7825  function transferFrom(address spender, address recipient, uint256 amount) external returns(bool){... */\n      swap4\n      swap3\n      pop\n      pop\n      pop\n      jump\t// out\n        /* \"contracts/MetraToken.sol\":8932:9178  function withdrawStake(uint256 amount, uint256 stake_index, uint256 reward)  public {... */\n    tag_47:\n        /* \"contracts/MetraToken.sol\":9025:9047  uint256 amount_to_mint */\n      0x00\n        /* \"contracts/MetraToken.sol\":9050:9092  _withdrawStake(amount+reward, stake_index) */\n      tag_117\n        /* \"contracts/MetraToken.sol\":9072:9078  reward */\n      dup3\n        /* \"contracts/MetraToken.sol\":9065:9071  amount */\n      dup6\n        /* \"contracts/MetraToken.sol\":9065:9078  amount+reward */\n      tag_118\n      swap2\n      swap1\n      tag_119\n      jump\t// in\n    tag_118:\n        /* \"contracts/MetraToken.sol\":9080:9091  stake_index */\n      dup5\n        /* \"contracts/MetraToken.sol\":9050:9064  _withdrawStake */\n      tag_120\n        /* \"contracts/MetraToken.sol\":9050:9092  _withdrawStake(amount+reward, stake_index) */\n      jump\t// in\n    tag_117:\n        /* \"contracts/MetraToken.sol\":9025:9092  uint256 amount_to_mint = _withdrawStake(amount+reward, stake_index) */\n      swap1\n      pop\n        /* \"contracts/MetraToken.sol\":9138:9171  _mint(msg.sender, amount_to_mint) */\n      tag_121\n        /* \"contracts/MetraToken.sol\":9144:9154  msg.sender */\n      caller\n        /* \"contracts/MetraToken.sol\":9156:9170  amount_to_mint */\n      dup3\n        /* \"contracts/MetraToken.sol\":9138:9143  _mint */\n      tag_122\n        /* \"contracts/MetraToken.sol\":9138:9171  _mint(msg.sender, amount_to_mint) */\n      jump\t// in\n    tag_121:\n        /* \"contracts/MetraToken.sol\":9016:9178  {... */\n      pop\n        /* \"contracts/MetraToken.sol\":8932:9178  function withdrawStake(uint256 amount, uint256 stake_index, uint256 reward)  public {... */\n      pop\n      pop\n      pop\n      jump\t// out\n        /* \"contracts/MetraToken.sol\":2129:2206  function decimals() external view returns (uint8) {... */\n    tag_49:\n        /* \"contracts/MetraToken.sol\":2172:2177  uint8 */\n      0x00\n        /* \"contracts/MetraToken.sol\":2192:2201  _decimals */\n      0x05\n      0x00\n      swap1\n      sload\n      swap1\n      0x0100\n      exp\n      swap1\n      div\n      0xff\n      and\n        /* \"contracts/MetraToken.sol\":2185:2201  return _decimals */\n      swap1\n      pop\n        /* \"contracts/MetraToken.sol\":2129:2206  function decimals() external view returns (uint8) {... */\n      swap1\n      jump\t// out\n        /* \"contracts/MetraToken.sol\":7944:8130  function increaseAllowance(address spender, uint256 amount) public returns (bool) {... */\n    tag_54:\n        /* \"contracts/MetraToken.sol\":8020:8024  bool */\n      0x00\n        /* \"contracts/MetraToken.sol\":8034:8104  _approve(msg.sender, spender, _allowances[msg.sender][spender]+amount) */\n      tag_125\n        /* \"contracts/MetraToken.sol\":8043:8053  msg.sender */\n      caller\n        /* \"contracts/MetraToken.sol\":8055:8062  spender */\n      dup5\n        /* \"contracts/MetraToken.sol\":8097:8103  amount */\n      dup5\n        /* \"contracts/MetraToken.sol\":8064:8075  _allowances */\n      0x09\n        /* \"contracts/MetraToken.sol\":8064:8087  _allowances[msg.sender] */\n      0x00\n        /* \"contracts/MetraToken.sol\":8076:8086  msg.sender */\n      caller\n        /* \"contracts/MetraToken.sol\":8064:8087  _allowances[msg.sender] */\n      0xffffffffffffffffffffffffffffffffffffffff\n      and\n      0xffffffffffffffffffffffffffffffffffffffff\n      and\n      dup2\n      mstore\n      0x20\n      add\n      swap1\n      dup2\n      mstore\n      0x20\n      add\n      0x00\n      keccak256\n        /* \"contracts/MetraToken.sol\":8064:8096  _allowances[msg.sender][spender] */\n      0x00\n        /* \"contracts/MetraToken.sol\":8088:8095  spender */\n      dup9\n        /* \"contracts/MetraToken.sol\":8064:8096  _allowances[msg.sender][spender] */\n      0xffffffffffffffffffffffffffffffffffffffff\n      and\n      0xffffffffffffffffffffffffffffffffffffffff\n      and\n      dup2\n      mstore\n      0x20\n      add\n      swap1\n      dup2\n      mstore\n      0x20\n      add\n      0x00\n      keccak256\n      sload\n        /* \"contracts/MetraToken.sol\":8064:8103  _allowances[msg.sender][spender]+amount */\n      tag_126\n      swap2\n      swap1\n      tag_119\n      jump\t// in\n    tag_126:\n        /* \"contracts/MetraToken.sol\":8034:8042  _approve */\n      tag_105\n        /* \"contracts/MetraToken.sol\":8034:8104  _approve(msg.sender, spender, _allowances[msg.sender][spender]+amount) */\n      jump\t// in\n    tag_125:\n        /* \"contracts/MetraToken.sol\":8119:8123  true */\n      0x01\n        /* \"contracts/MetraToken.sol\":8112:8123  return true */\n      swap1\n      pop\n        /* \"contracts/MetraToken.sol\":7944:8130  function increaseAllowance(address spender, uint256 amount) public returns (bool) {... */\n      swap3\n      swap2\n      pop\n      pop\n      jump\t// out\n        /* \"contracts/MetraToken.sol\":2745:2849  function balanceOf(address account) external view returns (uint256) {... */\n    tag_59:\n        /* \"contracts/MetraToken.sol\":2804:2811  uint256 */\n      0x00\n        /* \"contracts/MetraToken.sol\":2826:2835  _balances */\n      0x08\n        /* \"contracts/MetraToken.sol\":2826:2844  _balances[account] */\n      0x00\n        /* \"contracts/MetraToken.sol\":2836:2843  account */\n      dup4\n        /* \"contracts/MetraToken.sol\":2826:2844  _balances[account] */\n      0xffffffffffffffffffffffffffffffffffffffff\n      and\n      0xffffffffffffffffffffffffffffffffffffffff\n      and\n      dup2\n      mstore\n      0x20\n      add\n      swap1\n      dup2\n      mstore\n      0x20\n      add\n      0x00\n      keccak256\n      sload\n        /* \"contracts/MetraToken.sol\":2819:2844  return _balances[account] */\n      swap1\n      pop\n        /* \"contracts/MetraToken.sol\":2745:2849  function balanceOf(address account) external view returns (uint256) {... */\n      swap2\n      swap1\n      pop\n      jump\t// out\n        /* \"contracts/Ownable.sol\":1461:1598  function renounceOwnership() public onlyOwner {... */\n    tag_62:\n        /* \"contracts/Ownable.sol\":783:793  msg.sender */\n      caller\n        /* \"contracts/Ownable.sol\":773:793  _owner == msg.sender */\n      0xffffffffffffffffffffffffffffffffffffffff\n      and\n        /* \"contracts/Ownable.sol\":773:779  _owner */\n      0x00\n      dup1\n      sload\n      swap1\n      0x0100\n      exp\n      swap1\n      div\n      0xffffffffffffffffffffffffffffffffffffffff\n      and\n        /* \"contracts/Ownable.sol\":773:793  _owner == msg.sender */\n      0xffffffffffffffffffffffffffffffffffffffff\n      and\n      eq\n        /* \"contracts/Ownable.sol\":765:840  require(_owner == msg.sender, \"Ownable: only owner can call this function\") */\n      tag_129\n      jumpi\n      mload(0x40)\n      0x08c379a000000000000000000000000000000000000000000000000000000000\n      dup2\n      mstore\n      0x04\n      add\n      tag_130\n      swap1\n      tag_131\n      jump\t// in\n    tag_130:\n      mload(0x40)\n      dup1\n      swap2\n      sub\n      swap1\n      revert\n    tag_129:\n        /* \"contracts/Ownable.sol\":1559:1560  0 */\n      0x00\n        /* \"contracts/Ownable.sol\":1522:1562  OwnershipTransferred(_owner, address(0)) */\n      0xffffffffffffffffffffffffffffffffffffffff\n      and\n        /* \"contracts/Ownable.sol\":1543:1549  _owner */\n      0x00\n      dup1\n      sload\n      swap1\n      0x0100\n      exp\n      swap1\n      div\n      0xffffffffffffffffffffffffffffffffffffffff\n      and\n        /* \"contracts/Ownable.sol\":1522:1562  OwnershipTransferred(_owner, address(0)) */\n      0xffffffffffffffffffffffffffffffffffffffff\n      and\n      0x8be0079c531659141344cd1fd0a4f28419497f9722a3daafe3b4186f6b6457e0\n      mload(0x40)\n      mload(0x40)\n      dup1\n      swap2\n      sub\n      swap1\n      log3\n        /* \"contracts/Ownable.sol\":1589:1590  0 */\n      0x00\n        /* \"contracts/Ownable.sol\":1572:1578  _owner */\n      dup1\n      0x00\n        /* \"contracts/Ownable.sol\":1572:1591  _owner = address(0) */\n      0x0100\n      exp\n      dup2\n      sload\n      dup2\n      0xffffffffffffffffffffffffffffffffffffffff\n      mul\n      not\n      and\n      swap1\n      dup4\n      0xffffffffffffffffffffffffffffffffffffffff\n      and\n      mul\n      or\n      swap1\n      sstore\n      pop\n        /* \"contracts/Ownable.sol\":1461:1598  function renounceOwnership() public onlyOwner {... */\n      jump\t// out\n        /* \"contracts/MetraToken.sol\":5887:5964  function getOwner() external view returns (address) {... */\n    tag_64:\n        /* \"contracts/MetraToken.sol\":5930:5937  address */\n      0x00\n        /* \"contracts/MetraToken.sol\":5952:5959  owner() */\n      tag_134\n        /* \"contracts/MetraToken.sol\":5952:5957  owner */\n      tag_68\n        /* \"contracts/MetraToken.sol\":5952:5959  owner() */\n      jump\t// in\n    tag_134:\n        /* \"contracts/MetraToken.sol\":5945:5959  return owner() */\n      swap1\n      pop\n        /* \"contracts/MetraToken.sol\":5887:5964  function getOwner() external view returns (address) {... */\n      swap1\n      jump\t// out\n        /* \"contracts/Ownable.sol\":1137:1214  function owner() public view returns(address) {... */\n    tag_68:\n        /* \"contracts/Ownable.sol\":1174:1181  address */\n      0x00\n        /* \"contracts/Ownable.sol\":1200:1206  _owner */\n      dup1\n      0x00\n      swap1\n      sload\n      swap1\n      0x0100\n      exp\n      swap1\n      div\n      0xffffffffffffffffffffffffffffffffffffffff\n      and\n        /* \"contracts/Ownable.sol\":1193:1206  return _owner */\n      swap1\n      pop\n        /* \"contracts/Ownable.sol\":1137:1214  function owner() public view returns(address) {... */\n      swap1\n      jump\t// out\n        /* \"contracts/MetraToken.sol\":2271:2351  function symbol() external view returns (string memory){... */\n    tag_71:\n        /* \"contracts/MetraToken.sol\":2312:2325  string memory */\n      0x60\n        /* \"contracts/MetraToken.sol\":2339:2346  _symbol */\n      0x06\n        /* \"contracts/MetraToken.sol\":2332:2346  return _symbol */\n      dup1\n      sload\n      tag_137\n      swap1\n      tag_138\n      jump\t// in\n    tag_137:\n      dup1\n      0x1f\n      add\n      0x20\n      dup1\n      swap2\n      div\n      mul\n      0x20\n      add\n      mload(0x40)\n      swap1\n      dup2\n      add\n      0x40\n      mstore\n      dup1\n      swap3\n      swap2\n      swap1\n      dup2\n      dup2\n      mstore\n      0x20\n      add\n      dup3\n      dup1\n      sload\n      tag_139\n      swap1\n      tag_138\n      jump\t// in\n    tag_139:\n      dup1\n      iszero\n      tag_140\n      jumpi\n      dup1\n      0x1f\n      lt\n      tag_141\n      jumpi\n      0x0100\n      dup1\n      dup4\n      sload\n      div\n      mul\n      dup4\n      mstore\n      swap2\n      0x20\n      add\n      swap2\n      jump(tag_140)\n    tag_141:\n      dup3\n      add\n      swap2\n      swap1\n      0x00\n      mstore\n      keccak256(0x00, 0x20)\n      swap1\n    tag_142:\n      dup2\n      sload\n      dup2\n      mstore\n      swap1\n      0x01\n      add\n      swap1\n      0x20\n      add\n      dup1\n      dup4\n      gt\n      tag_142\n      jumpi\n      dup3\n      swap1\n      sub\n      0x1f\n      and\n      dup3\n      add\n      swap2\n    tag_140:\n      pop\n      pop\n      pop\n      pop\n      pop\n      swap1\n      pop\n        /* \"contracts/MetraToken.sol\":2271:2351  function symbol() external view returns (string memory){... */\n      swap1\n      jump\t// out\n        /* \"contracts/MetraToken.sol\":4488:4616  function burn(address account, uint256 amount) public onlyOwner returns(bool) {... */\n    tag_75:\n        /* \"contracts/MetraToken.sol\":4560:4564  bool */\n      0x00\n        /* \"contracts/Ownable.sol\":783:793  msg.sender */\n      caller\n        /* \"contracts/Ownable.sol\":773:793  _owner == msg.sender */\n      0xffffffffffffffffffffffffffffffffffffffff\n      and\n        /* \"contracts/Ownable.sol\":773:779  _owner */\n      0x00\n      dup1\n      sload\n      swap1\n      0x0100\n      exp\n      swap1\n      div\n      0xffffffffffffffffffffffffffffffffffffffff\n      and\n        /* \"contracts/Ownable.sol\":773:793  _owner == msg.sender */\n      0xffffffffffffffffffffffffffffffffffffffff\n      and\n      eq\n        /* \"contracts/Ownable.sol\":765:840  require(_owner == msg.sender, \"Ownable: only owner can call this function\") */\n      tag_144\n      jumpi\n      mload(0x40)\n      0x08c379a000000000000000000000000000000000000000000000000000000000\n      dup2\n      mstore\n      0x04\n      add\n      tag_145\n      swap1\n      tag_131\n      jump\t// in\n    tag_145:\n      mload(0x40)\n      dup1\n      swap2\n      sub\n      swap1\n      revert\n    tag_144:\n        /* \"contracts/MetraToken.sol\":4572:4594  _burn(account, amount) */\n      tag_147\n        /* \"contracts/MetraToken.sol\":4578:4585  account */\n      dup4\n        /* \"contracts/MetraToken.sol\":4587:4593  amount */\n      dup4\n        /* \"contracts/MetraToken.sol\":4572:4577  _burn */\n      tag_148\n        /* \"contracts/MetraToken.sol\":4572:4594  _burn(account, amount) */\n      jump\t// in\n    tag_147:\n        /* \"contracts/MetraToken.sol\":4607:4611  true */\n      0x01\n        /* \"contracts/MetraToken.sol\":4600:4611  return true */\n      swap1\n      pop\n        /* \"contracts/MetraToken.sol\":4488:4616  function burn(address account, uint256 amount) public onlyOwner returns(bool) {... */\n      swap3\n      swap2\n      pop\n      pop\n      jump\t// out\n        /* \"contracts/MetraToken.sol\":8252:8438  function decreaseAllowance(address spender, uint256 amount) public returns (bool) {... */\n    tag_79:\n        /* \"contracts/MetraToken.sol\":8328:8332  bool */\n      0x00\n        /* \"contracts/MetraToken.sol\":8342:8412  _approve(msg.sender, spender, _allowances[msg.sender][spender]-amount) */\n      tag_150\n        /* \"contracts/MetraToken.sol\":8351:8361  msg.sender */\n      caller\n        /* \"contracts/MetraToken.sol\":8363:8370  spender */\n      dup5\n        /* \"contracts/MetraToken.sol\":8405:8411  amount */\n      dup5\n        /* \"contracts/MetraToken.sol\":8372:8383  _allowances */\n      0x09\n        /* \"contracts/MetraToken.sol\":8372:8395  _allowances[msg.sender] */\n      0x00\n        /* \"contracts/MetraToken.sol\":8384:8394  msg.sender */\n      caller\n        /* \"contracts/MetraToken.sol\":8372:8395  _allowances[msg.sender] */\n      0xffffffffffffffffffffffffffffffffffffffff\n      and\n      0xffffffffffffffffffffffffffffffffffffffff\n      and\n      dup2\n      mstore\n      0x20\n      add\n      swap1\n      dup2\n      mstore\n      0x20\n      add\n      0x00\n      keccak256\n        /* \"contracts/MetraToken.sol\":8372:8404  _allowances[msg.sender][spender] */\n      0x00\n        /* \"contracts/MetraToken.sol\":8396:8403  spender */\n      dup9\n        /* \"contracts/MetraToken.sol\":8372:8404  _allowances[msg.sender][spender] */\n      0xffffffffffffffffffffffffffffffffffffffff\n      and\n      0xffffffffffffffffffffffffffffffffffffffff\n      and\n      dup2\n      mstore\n      0x20\n      add\n      swap1\n      dup2\n      mstore\n      0x20\n      add\n      0x00\n      keccak256\n      sload\n        /* \"contracts/MetraToken.sol\":8372:8411  _allowances[msg.sender][spender]-amount */\n      tag_151\n      swap2\n      swap1\n      tag_115\n      jump\t// in\n    tag_151:\n        /* \"contracts/MetraToken.sol\":8342:8350  _approve */\n      tag_105\n        /* \"contracts/MetraToken.sol\":8342:8412  _approve(msg.sender, spender, _allowances[msg.sender][spender]-amount) */\n      jump\t// in\n    tag_150:\n        /* \"contracts/MetraToken.sol\":8427:8431  true */\n      0x01\n        /* \"contracts/MetraToken.sol\":8420:8431  return true */\n      swap1\n      pop\n        /* \"contracts/MetraToken.sol\":8252:8438  function decreaseAllowance(address spender, uint256 amount) public returns (bool) {... */\n      swap3\n      swap2\n      pop\n      pop\n      jump\t// out\n        /* \"contracts/MetraToken.sol\":8525:8831  function stake(uint256 _amount) public {... */\n    tag_84:\n        /* \"contracts/MetraToken.sol\":8640:8649  _balances */\n      0x08\n        /* \"contracts/MetraToken.sol\":8640:8661  _balances[msg.sender] */\n      0x00\n        /* \"contracts/MetraToken.sol\":8650:8660  msg.sender */\n      caller\n        /* \"contracts/MetraToken.sol\":8640:8661  _balances[msg.sender] */\n      0xffffffffffffffffffffffffffffffffffffffff\n      and\n      0xffffffffffffffffffffffffffffffffffffffff\n      and\n      dup2\n      mstore\n      0x20\n      add\n      swap1\n      dup2\n      mstore\n      0x20\n      add\n      0x00\n      keccak256\n      sload\n        /* \"contracts/MetraToken.sol\":8630:8637  _amount */\n      dup2\n        /* \"contracts/MetraToken.sol\":8630:8661  _amount < _balances[msg.sender] */\n      lt\n        /* \"contracts/MetraToken.sol\":8622:8703  require(_amount < _balances[msg.sender], \"Metra: Cannot stake more than you own\") */\n      tag_153\n      jumpi\n      mload(0x40)\n      0x08c379a000000000000000000000000000000000000000000000000000000000\n      dup2\n      mstore\n      0x04\n      add\n      tag_154\n      swap1\n      tag_155\n      jump\t// in\n    tag_154:\n      mload(0x40)\n      dup1\n      swap2\n      sub\n      swap1\n      revert\n    tag_153:\n        /* \"contracts/MetraToken.sol\":8714:8729  _stake(_amount) */\n      tag_156\n        /* \"contracts/MetraToken.sol\":8721:8728  _amount */\n      dup2\n        /* \"contracts/MetraToken.sol\":8714:8720  _stake */\n      tag_157\n        /* \"contracts/MetraToken.sol\":8714:8729  _stake(_amount) */\n      jump\t// in\n    tag_156:\n        /* \"contracts/MetraToken.sol\":8798:8824  _burn(msg.sender, _amount) */\n      tag_158\n        /* \"contracts/MetraToken.sol\":8804:8814  msg.sender */\n      caller\n        /* \"contracts/MetraToken.sol\":8816:8823  _amount */\n      dup3\n        /* \"contracts/MetraToken.sol\":8798:8803  _burn */\n      tag_148\n        /* \"contracts/MetraToken.sol\":8798:8824  _burn(msg.sender, _amount) */\n      jump\t// in\n    tag_158:\n        /* \"contracts/MetraToken.sol\":8525:8831  function stake(uint256 _amount) public {... */\n      pop\n      jump\t// out\n        /* \"contracts/MetraToken.sol\":4918:5063  function transfer(address recipient, uint256 amount) external returns (bool) {... */\n    tag_87:\n        /* \"contracts/MetraToken.sol\":4989:4993  bool */\n      0x00\n        /* \"contracts/MetraToken.sol\":5001:5041  _transfer(msg.sender, recipient, amount) */\n      tag_160\n        /* \"contracts/MetraToken.sol\":5011:5021  msg.sender */\n      caller\n        /* \"contracts/MetraToken.sol\":5023:5032  recipient */\n      dup5\n        /* \"contracts/MetraToken.sol\":5034:5040  amount */\n      dup5\n        /* \"contracts/MetraToken.sol\":5001:5010  _transfer */\n      tag_112\n        /* \"contracts/MetraToken.sol\":5001:5041  _transfer(msg.sender, recipient, amount) */\n      jump\t// in\n    tag_160:\n        /* \"contracts/MetraToken.sol\":5054:5058  true */\n      0x01\n        /* \"contracts/MetraToken.sol\":5047:5058  return true */\n      swap1\n      pop\n        /* \"contracts/MetraToken.sol\":4918:5063  function transfer(address recipient, uint256 amount) external returns (bool) {... */\n      swap3\n      swap2\n      pop\n      pop\n      jump\t// out\n        /* \"contracts/MetraToken.sol\":6049:6177  function allowance(address owner, address spender) external view returns(uint256){... */\n    tag_92:\n        /* \"contracts/MetraToken.sol\":6122:6129  uint256 */\n      0x00\n        /* \"contracts/MetraToken.sol\":6144:6155  _allowances */\n      0x09\n        /* \"contracts/MetraToken.sol\":6144:6162  _allowances[owner] */\n      0x00\n        /* \"contracts/MetraToken.sol\":6156:6161  owner */\n      dup5\n        /* \"contracts/MetraToken.sol\":6144:6162  _allowances[owner] */\n      0xffffffffffffffffffffffffffffffffffffffff\n      and\n      0xffffffffffffffffffffffffffffffffffffffff\n      and\n      dup2\n      mstore\n      0x20\n      add\n      swap1\n      dup2\n      mstore\n      0x20\n      add\n      0x00\n      keccak256\n        /* \"contracts/MetraToken.sol\":6144:6171  _allowances[owner][spender] */\n      0x00\n        /* \"contracts/MetraToken.sol\":6163:6170  spender */\n      dup4\n        /* \"contracts/MetraToken.sol\":6144:6171  _allowances[owner][spender] */\n      0xffffffffffffffffffffffffffffffffffffffff\n      and\n      0xffffffffffffffffffffffffffffffffffffffff\n      and\n      dup2\n      mstore\n      0x20\n      add\n      swap1\n      dup2\n      mstore\n      0x20\n      add\n      0x00\n      keccak256\n      sload\n        /* \"contracts/MetraToken.sol\":6137:6171  return _allowances[owner][spender] */\n      swap1\n      pop\n        /* \"contracts/MetraToken.sol\":6049:6177  function allowance(address owner, address spender) external view returns(uint256){... */\n      swap3\n      swap2\n      pop\n      pop\n      jump\t// out\n        /* \"contracts/Stakeable.sol\":6899:7727  function hasStake(address _staker) public view returns(StakingSummary memory){... */\n    tag_96:\n        /* \"contracts/Stakeable.sol\":6954:6975  StakingSummary memory */\n      tag_162\n      tag_163\n      jump\t// in\n    tag_162:\n        /* \"contracts/Stakeable.sol\":7066:7090  uint256 totalStakeAmount */\n      0x00\n        /* \"contracts/Stakeable.sol\":7169:7198  StakingSummary memory summary */\n      dup1\n        /* \"contracts/Stakeable.sol\":7201:7264  StakingSummary(0, stakeholders[stakes[_staker]].address_stakes) */\n      mload(0x40)\n      dup1\n      0x40\n      add\n      0x40\n      mstore\n      dup1\n        /* \"contracts/Stakeable.sol\":7216:7217  0 */\n      0x00\n        /* \"contracts/Stakeable.sol\":7201:7264  StakingSummary(0, stakeholders[stakes[_staker]].address_stakes) */\n      dup2\n      mstore\n      0x20\n      add\n        /* \"contracts/Stakeable.sol\":7219:7231  stakeholders */\n      0x01\n        /* \"contracts/Stakeable.sol\":7232:7238  stakes */\n      0x02\n        /* \"contracts/Stakeable.sol\":7232:7247  stakes[_staker] */\n      0x00\n        /* \"contracts/Stakeable.sol\":7239:7246  _staker */\n      dup9\n        /* \"contracts/Stakeable.sol\":7232:7247  stakes[_staker] */\n      0xffffffffffffffffffffffffffffffffffffffff\n      and\n      0xffffffffffffffffffffffffffffffffffffffff\n      and\n      dup2\n      mstore\n      0x20\n      add\n      swap1\n      dup2\n      mstore\n      0x20\n      add\n      0x00\n      keccak256\n      sload\n        /* \"contracts/Stakeable.sol\":7219:7248  stakeholders[stakes[_staker]] */\n      dup2\n      sload\n      dup2\n      lt\n      tag_165\n      jumpi\n      tag_166\n      tag_167\n      jump\t// in\n    tag_166:\n    tag_165:\n      swap1\n      0x00\n      mstore\n      keccak256(0x00, 0x20)\n      swap1\n      0x02\n      mul\n      add\n        /* \"contracts/Stakeable.sol\":7219:7263  stakeholders[stakes[_staker]].address_stakes */\n      0x01\n      add\n        /* \"contracts/Stakeable.sol\":7201:7264  StakingSummary(0, stakeholders[stakes[_staker]].address_stakes) */\n      dup1\n      sload\n      dup1\n      0x20\n      mul\n      0x20\n      add\n      mload(0x40)\n      swap1\n      dup2\n      add\n      0x40\n      mstore\n      dup1\n      swap3\n      swap2\n      swap1\n      dup2\n      dup2\n      mstore\n      0x20\n      add\n      0x00\n      swap1\n    tag_169:\n      dup3\n      dup3\n      lt\n      iszero\n      tag_170\n      jumpi\n      dup4\n      dup3\n      swap1\n      0x00\n      mstore\n      keccak256(0x00, 0x20)\n      swap1\n      0x04\n      mul\n      add\n      mload(0x40)\n      dup1\n      0x80\n      add\n      0x40\n      mstore\n      swap1\n      dup2\n      0x00\n      dup3\n      add\n      0x00\n      swap1\n      sload\n      swap1\n      0x0100\n      exp\n      swap1\n      div\n      0xffffffffffffffffffffffffffffffffffffffff\n      and\n      0xffffffffffffffffffffffffffffffffffffffff\n      and\n      0xffffffffffffffffffffffffffffffffffffffff\n      and\n      dup2\n      mstore\n      0x20\n      add\n      0x01\n      dup3\n      add\n      sload\n      dup2\n      mstore\n      0x20\n      add\n      0x02\n      dup3\n      add\n      sload\n      dup2\n      mstore\n      0x20\n      add\n      0x03\n      dup3\n      add\n      sload\n      dup2\n      mstore\n      pop\n      pop\n      dup2\n      mstore\n      0x20\n      add\n      swap1\n      0x01\n      add\n      swap1\n      jump(tag_169)\n    tag_170:\n      pop\n      pop\n      pop\n      pop\n      dup2\n      mstore\n      pop\n        /* \"contracts/Stakeable.sol\":7169:7264  StakingSummary memory summary = StakingSummary(0, stakeholders[stakes[_staker]].address_stakes) */\n      swap1\n      pop\n        /* \"contracts/Stakeable.sol\":7336:7345  uint256 s */\n      0x00\n        /* \"contracts/Stakeable.sol\":7331:7604  for (uint256 s = 0; s < summary.stakes.length; s += 1){... */\n    tag_172:\n        /* \"contracts/Stakeable.sol\":7355:7362  summary */\n      dup2\n        /* \"contracts/Stakeable.sol\":7355:7369  summary.stakes */\n      0x20\n      add\n      mload\n        /* \"contracts/Stakeable.sol\":7355:7376  summary.stakes.length */\n      mload\n        /* \"contracts/Stakeable.sol\":7351:7352  s */\n      dup2\n        /* \"contracts/Stakeable.sol\":7351:7376  s < summary.stakes.length */\n      lt\n        /* \"contracts/Stakeable.sol\":7331:7604  for (uint256 s = 0; s < summary.stakes.length; s += 1){... */\n      iszero\n      tag_173\n      jumpi\n        /* \"contracts/Stakeable.sol\":7398:7421  uint256 availableReward */\n      0x00\n        /* \"contracts/Stakeable.sol\":7424:7463  calculateStakeReward(summary.stakes[s]) */\n      tag_175\n        /* \"contracts/Stakeable.sol\":7445:7452  summary */\n      dup4\n        /* \"contracts/Stakeable.sol\":7445:7459  summary.stakes */\n      0x20\n      add\n      mload\n        /* \"contracts/Stakeable.sol\":7460:7461  s */\n      dup4\n        /* \"contracts/Stakeable.sol\":7445:7462  summary.stakes[s] */\n      dup2\n      mload\n      dup2\n      lt\n      tag_176\n      jumpi\n      tag_177\n      tag_167\n      jump\t// in\n    tag_177:\n    tag_176:\n      0x20\n      mul\n      0x20\n      add\n      add\n      mload\n        /* \"contracts/Stakeable.sol\":7424:7444  calculateStakeReward */\n      tag_178\n        /* \"contracts/Stakeable.sol\":7424:7463  calculateStakeReward(summary.stakes[s]) */\n      jump\t// in\n    tag_175:\n        /* \"contracts/Stakeable.sol\":7398:7463  uint256 availableReward = calculateStakeReward(summary.stakes[s]) */\n      swap1\n      pop\n        /* \"contracts/Stakeable.sol\":7506:7521  availableReward */\n      dup1\n        /* \"contracts/Stakeable.sol\":7476:7483  summary */\n      dup4\n        /* \"contracts/Stakeable.sol\":7476:7490  summary.stakes */\n      0x20\n      add\n      mload\n        /* \"contracts/Stakeable.sol\":7491:7492  s */\n      dup4\n        /* \"contracts/Stakeable.sol\":7476:7493  summary.stakes[s] */\n      dup2\n      mload\n      dup2\n      lt\n      tag_179\n      jumpi\n      tag_180\n      tag_167\n      jump\t// in\n    tag_180:\n    tag_179:\n      0x20\n      mul\n      0x20\n      add\n      add\n      mload\n        /* \"contracts/Stakeable.sol\":7476:7503  summary.stakes[s].claimable */\n      0x60\n      add\n        /* \"contracts/Stakeable.sol\":7476:7521  summary.stakes[s].claimable = availableReward */\n      dup2\n      dup2\n      mstore\n      pop\n      pop\n        /* \"contracts/Stakeable.sol\":7570:7577  summary */\n      dup3\n        /* \"contracts/Stakeable.sol\":7570:7584  summary.stakes */\n      0x20\n      add\n      mload\n        /* \"contracts/Stakeable.sol\":7585:7586  s */\n      dup3\n        /* \"contracts/Stakeable.sol\":7570:7587  summary.stakes[s] */\n      dup2\n      mload\n      dup2\n      lt\n      tag_181\n      jumpi\n      tag_182\n      tag_167\n      jump\t// in\n    tag_182:\n    tag_181:\n      0x20\n      mul\n      0x20\n      add\n      add\n      mload\n        /* \"contracts/Stakeable.sol\":7570:7594  summary.stakes[s].amount */\n      0x20\n      add\n      mload\n        /* \"contracts/Stakeable.sol\":7553:7569  totalStakeAmount */\n      dup5\n        /* \"contracts/Stakeable.sol\":7553:7594  totalStakeAmount+summary.stakes[s].amount */\n      tag_183\n      swap2\n      swap1\n      tag_119\n      jump\t// in\n    tag_183:\n        /* \"contracts/Stakeable.sol\":7534:7594  totalStakeAmount = totalStakeAmount+summary.stakes[s].amount */\n      swap4\n      pop\n        /* \"contracts/Stakeable.sol\":7385:7604  {... */\n      pop\n        /* \"contracts/Stakeable.sol\":7383:7384  1 */\n      0x01\n        /* \"contracts/Stakeable.sol\":7378:7384  s += 1 */\n      dup2\n      tag_184\n      swap2\n      swap1\n      tag_119\n      jump\t// in\n    tag_184:\n      swap1\n      pop\n        /* \"contracts/Stakeable.sol\":7331:7604  for (uint256 s = 0; s < summary.stakes.length; s += 1){... */\n      jump(tag_172)\n    tag_173:\n      pop\n        /* \"contracts/Stakeable.sol\":7680:7696  totalStakeAmount */\n      dup2\n        /* \"contracts/Stakeable.sol\":7657:7664  summary */\n      dup2\n        /* \"contracts/Stakeable.sol\":7657:7677  summary.total_amount */\n      0x00\n      add\n        /* \"contracts/Stakeable.sol\":7657:7696  summary.total_amount = totalStakeAmount */\n      dup2\n      dup2\n      mstore\n      pop\n      pop\n        /* \"contracts/Stakeable.sol\":7713:7720  summary */\n      dup1\n        /* \"contracts/Stakeable.sol\":7706:7720  return summary */\n      swap3\n      pop\n      pop\n      pop\n        /* \"contracts/Stakeable.sol\":6899:7727  function hasStake(address _staker) public view returns(StakingSummary memory){... */\n      swap2\n      swap1\n      pop\n      jump\t// out\n        /* \"contracts/Ownable.sol\":1694:1801  function transferOwnership(address newOwner) public onlyOwner {... */\n    tag_101:\n        /* \"contracts/Ownable.sol\":783:793  msg.sender */\n      caller\n        /* \"contracts/Ownable.sol\":773:793  _owner == msg.sender */\n      0xffffffffffffffffffffffffffffffffffffffff\n      and\n        /* \"contracts/Ownable.sol\":773:779  _owner */\n      0x00\n      dup1\n      sload\n      swap1\n      0x0100\n      exp\n      swap1\n      div\n      0xffffffffffffffffffffffffffffffffffffffff\n      and\n        /* \"contracts/Ownable.sol\":773:793  _owner == msg.sender */\n      0xffffffffffffffffffffffffffffffffffffffff\n      and\n      eq\n        /* \"contracts/Ownable.sol\":765:840  require(_owner == msg.sender, \"Ownable: only owner can call this function\") */\n      tag_186\n      jumpi\n      mload(0x40)\n      0x08c379a000000000000000000000000000000000000000000000000000000000\n      dup2\n      mstore\n      0x04\n      add\n      tag_187\n      swap1\n      tag_131\n      jump\t// in\n    tag_187:\n      mload(0x40)\n      dup1\n      swap2\n      sub\n      swap1\n      revert\n    tag_186:\n        /* \"contracts/Ownable.sol\":1766:1794  _transferOwnership(newOwner) */\n      tag_189\n        /* \"contracts/Ownable.sol\":1785:1793  newOwner */\n      dup2\n        /* \"contracts/Ownable.sol\":1766:1784  _transferOwnership */\n      tag_190\n        /* \"contracts/Ownable.sol\":1766:1794  _transferOwnership(newOwner) */\n      jump\t// in\n    tag_189:\n        /* \"contracts/Ownable.sol\":1694:1801  function transferOwnership(address newOwner) public onlyOwner {... */\n      pop\n      jump\t// out\n        /* \"contracts/MetraToken.sol\":6644:7082  function _approve(address owner, address spender, uint256 amount) internal {... */\n    tag_105:\n        /* \"contracts/MetraToken.sol\":6752:6753  0 */\n      0x00\n        /* \"contracts/MetraToken.sol\":6735:6754  owner != address(0) */\n      0xffffffffffffffffffffffffffffffffffffffff\n      and\n        /* \"contracts/MetraToken.sol\":6735:6740  owner */\n      dup4\n        /* \"contracts/MetraToken.sol\":6735:6754  owner != address(0) */\n      0xffffffffffffffffffffffffffffffffffffffff\n      and\n      sub\n        /* \"contracts/MetraToken.sol\":6727:6806  require(owner != address(0), \"Metra: approve cannot be done from zero address\") */\n      tag_192\n      jumpi\n      mload(0x40)\n      0x08c379a000000000000000000000000000000000000000000000000000000000\n      dup2\n      mstore\n      0x04\n      add\n      tag_193\n      swap1\n      tag_194\n      jump\t// in\n    tag_193:\n      mload(0x40)\n      dup1\n      swap2\n      sub\n      swap1\n      revert\n    tag_192:\n        /* \"contracts/MetraToken.sol\":6841:6842  0 */\n      0x00\n        /* \"contracts/MetraToken.sol\":6822:6843  spender != address(0) */\n      0xffffffffffffffffffffffffffffffffffffffff\n      and\n        /* \"contracts/MetraToken.sol\":6822:6829  spender */\n      dup3\n        /* \"contracts/MetraToken.sol\":6822:6843  spender != address(0) */\n      0xffffffffffffffffffffffffffffffffffffffff\n      and\n      sub\n        /* \"contracts/MetraToken.sol\":6814:6888  require(spender != address(0), \"Metra: approve cannot be to zero address\") */\n      tag_195\n      jumpi\n      mload(0x40)\n      0x08c379a000000000000000000000000000000000000000000000000000000000\n      dup2\n      mstore\n      0x04\n      add\n      tag_196\n      swap1\n      tag_197\n      jump\t// in\n    tag_196:\n      mload(0x40)\n      dup1\n      swap2\n      sub\n      swap1\n      revert\n    tag_195:\n        /* \"contracts/MetraToken.sol\":7025:7031  amount */\n      dup1\n        /* \"contracts/MetraToken.sol\":6995:7006  _allowances */\n      0x09\n        /* \"contracts/MetraToken.sol\":6995:7013  _allowances[owner] */\n      0x00\n        /* \"contracts/MetraToken.sol\":7007:7012  owner */\n      dup6\n        /* \"contracts/MetraToken.sol\":6995:7013  _allowances[owner] */\n      0xffffffffffffffffffffffffffffffffffffffff\n      and\n      0xffffffffffffffffffffffffffffffffffffffff\n      and\n      dup2\n      mstore\n      0x20\n      add\n      swap1\n      dup2\n      mstore\n      0x20\n      add\n      0x00\n      keccak256\n        /* \"contracts/MetraToken.sol\":6995:7022  _allowances[owner][spender] */\n      0x00\n        /* \"contracts/MetraToken.sol\":7014:7021  spender */\n      dup5\n        /* \"contracts/MetraToken.sol\":6995:7022  _allowances[owner][spender] */\n      0xffffffffffffffffffffffffffffffffffffffff\n      and\n      0xffffffffffffffffffffffffffffffffffffffff\n      and\n      dup2\n      mstore\n      0x20\n      add\n      swap1\n      dup2\n      mstore\n      0x20\n      add\n      0x00\n      keccak256\n        /* \"contracts/MetraToken.sol\":6995:7031  _allowances[owner][spender] = amount */\n      dup2\n      swap1\n      sstore\n      pop\n        /* \"contracts/MetraToken.sol\":7060:7067  spender */\n      dup2\n        /* \"contracts/MetraToken.sol\":7045:7075  Approval(owner,spender,amount) */\n      0xffffffffffffffffffffffffffffffffffffffff\n      and\n        /* \"contracts/MetraToken.sol\":7054:7059  owner */\n      dup4\n        /* \"contracts/MetraToken.sol\":7045:7075  Approval(owner,spender,amount) */\n      0xffffffffffffffffffffffffffffffffffffffff\n      and\n      0x8c5be1e5ebec7d5bd14f71427d1e84f3dd0314c0f7b2291e5b200ac8c7c3b925\n        /* \"contracts/MetraToken.sol\":7068:7074  amount */\n      dup4\n        /* \"contracts/MetraToken.sol\":7045:7075  Approval(owner,spender,amount) */\n      mload(0x40)\n      tag_198\n      swap2\n      swap1\n      tag_38\n      jump\t// in\n    tag_198:\n      mload(0x40)\n      dup1\n      swap2\n      sub\n      swap1\n      log3\n        /* \"contracts/MetraToken.sol\":6644:7082  function _approve(address owner, address spender, uint256 amount) internal {... */\n      pop\n      pop\n      pop\n      jump\t// out\n        /* \"contracts/MetraToken.sol\":5296:5778  function _transfer(address sender, address recipient, uint256 amount) internal {... */\n    tag_112:\n        /* \"contracts/MetraToken.sol\":5407:5408  0 */\n      0x00\n        /* \"contracts/MetraToken.sol\":5389:5409  sender != address(0) */\n      0xffffffffffffffffffffffffffffffffffffffff\n      and\n        /* \"contracts/MetraToken.sol\":5389:5395  sender */\n      dup4\n        /* \"contracts/MetraToken.sol\":5389:5409  sender != address(0) */\n      0xffffffffffffffffffffffffffffffffffffffff\n      and\n      sub\n        /* \"contracts/MetraToken.sol\":5381:5447  require(sender != address(0), \"Metra: transfer from zero address\") */\n      tag_200\n      jumpi\n      mload(0x40)\n      0x08c379a000000000000000000000000000000000000000000000000000000000\n      dup2\n      mstore\n      0x04\n      add\n      tag_201\n      swap1\n      tag_202\n      jump\t// in\n    tag_201:\n      mload(0x40)\n      dup1\n      swap2\n      sub\n      swap1\n      revert\n    tag_200:\n        /* \"contracts/MetraToken.sol\":5482:5483  0 */\n      0x00\n        /* \"contracts/MetraToken.sol\":5461:5484  recipient != address(0) */\n      0xffffffffffffffffffffffffffffffffffffffff\n      and\n        /* \"contracts/MetraToken.sol\":5461:5470  recipient */\n      dup3\n        /* \"contracts/MetraToken.sol\":5461:5484  recipient != address(0) */\n      0xffffffffffffffffffffffffffffffffffffffff\n      and\n      sub\n        /* \"contracts/MetraToken.sol\":5453:5520  require(recipient != address(0), \"Metra: transfer to zero address\") */\n      tag_203\n      jumpi\n      mload(0x40)\n      0x08c379a000000000000000000000000000000000000000000000000000000000\n      dup2\n      mstore\n      0x04\n      add\n      tag_204\n      swap1\n      tag_205\n      jump\t// in\n    tag_204:\n      mload(0x40)\n      dup1\n      swap2\n      sub\n      swap1\n      revert\n    tag_203:\n        /* \"contracts/MetraToken.sol\":5555:5561  amount */\n      dup1\n        /* \"contracts/MetraToken.sol\":5534:5543  _balances */\n      0x08\n        /* \"contracts/MetraToken.sol\":5534:5551  _balances[sender] */\n      0x00\n        /* \"contracts/MetraToken.sol\":5544:5550  sender */\n      dup6\n        /* \"contracts/MetraToken.sol\":5534:5551  _balances[sender] */\n      0xffffffffffffffffffffffffffffffffffffffff\n      and\n      0xffffffffffffffffffffffffffffffffffffffff\n      and\n      dup2\n      mstore\n      0x20\n      add\n      swap1\n      dup2\n      mstore\n      0x20\n      add\n      0x00\n      keccak256\n      sload\n        /* \"contracts/MetraToken.sol\":5534:5561  _balances[sender] >= amount */\n      lt\n      iszero\n        /* \"contracts/MetraToken.sol\":5526:5615  require(_balances[sender] >= amount, \"Metra: cant transfer more than your account holds\") */\n      tag_206\n      jumpi\n      mload(0x40)\n      0x08c379a000000000000000000000000000000000000000000000000000000000\n      dup2\n      mstore\n      0x04\n      add\n      tag_207\n      swap1\n      tag_208\n      jump\t// in\n    tag_207:\n      mload(0x40)\n      dup1\n      swap2\n      sub\n      swap1\n      revert\n    tag_206:\n        /* \"contracts/MetraToken.sol\":5662:5668  amount */\n      dup1\n        /* \"contracts/MetraToken.sol\":5642:5651  _balances */\n      0x08\n        /* \"contracts/MetraToken.sol\":5642:5659  _balances[sender] */\n      0x00\n        /* \"contracts/MetraToken.sol\":5652:5658  sender */\n      dup6\n        /* \"contracts/MetraToken.sol\":5642:5659  _balances[sender] */\n      0xffffffffffffffffffffffffffffffffffffffff\n      and\n      0xffffffffffffffffffffffffffffffffffffffff\n      and\n      dup2\n      mstore\n      0x20\n      add\n      swap1\n      dup2\n      mstore\n      0x20\n      add\n      0x00\n      keccak256\n      sload\n        /* \"contracts/MetraToken.sol\":5642:5668  _balances[sender] - amount */\n      tag_209\n      swap2\n      swap1\n      tag_115\n      jump\t// in\n    tag_209:\n        /* \"contracts/MetraToken.sol\":5622:5631  _balances */\n      0x08\n        /* \"contracts/MetraToken.sol\":5622:5639  _balances[sender] */\n      0x00\n        /* \"contracts/MetraToken.sol\":5632:5638  sender */\n      dup6\n        /* \"contracts/MetraToken.sol\":5622:5639  _balances[sender] */\n      0xffffffffffffffffffffffffffffffffffffffff\n      and\n      0xffffffffffffffffffffffffffffffffffffffff\n      and\n      dup2\n      mstore\n      0x20\n      add\n      swap1\n      dup2\n      mstore\n      0x20\n      add\n      0x00\n      keccak256\n        /* \"contracts/MetraToken.sol\":5622:5668  _balances[sender] = _balances[sender] - amount */\n      dup2\n      swap1\n      sstore\n      pop\n        /* \"contracts/MetraToken.sol\":5720:5726  amount */\n      dup1\n        /* \"contracts/MetraToken.sol\":5697:5706  _balances */\n      0x08\n        /* \"contracts/MetraToken.sol\":5697:5717  _balances[recipient] */\n      0x00\n        /* \"contracts/MetraToken.sol\":5707:5716  recipient */\n      dup5\n        /* \"contracts/MetraToken.sol\":5697:5717  _balances[recipient] */\n      0xffffffffffffffffffffffffffffffffffffffff\n      and\n      0xffffffffffffffffffffffffffffffffffffffff\n      and\n      dup2\n      mstore\n      0x20\n      add\n      swap1\n      dup2\n      mstore\n      0x20\n      add\n      0x00\n      keccak256\n      sload\n        /* \"contracts/MetraToken.sol\":5697:5726  _balances[recipient] + amount */\n      tag_210\n      swap2\n      swap1\n      tag_119\n      jump\t// in\n    tag_210:\n        /* \"contracts/MetraToken.sol\":5674:5683  _balances */\n      0x08\n        /* \"contracts/MetraToken.sol\":5674:5694  _balances[recipient] */\n      0x00\n        /* \"contracts/MetraToken.sol\":5684:5693  recipient */\n      dup5\n        /* \"contracts/MetraToken.sol\":5674:5694  _balances[recipient] */\n      0xffffffffffffffffffffffffffffffffffffffff\n      and\n      0xffffffffffffffffffffffffffffffffffffffff\n      and\n      dup2\n      mstore\n      0x20\n      add\n      swap1\n      dup2\n      mstore\n      0x20\n      add\n      0x00\n      keccak256\n        /* \"contracts/MetraToken.sol\":5674:5726  _balances[recipient] = _balances[recipient] + amount */\n      dup2\n      swap1\n      sstore\n      pop\n        /* \"contracts/MetraToken.sol\":5755:5764  recipient */\n      dup2\n        /* \"contracts/MetraToken.sol\":5738:5773  Transfer(sender, recipient, amount) */\n      0xffffffffffffffffffffffffffffffffffffffff\n      and\n        /* \"contracts/MetraToken.sol\":5747:5753  sender */\n      dup4\n        /* \"contracts/MetraToken.sol\":5738:5773  Transfer(sender, recipient, amount) */\n      0xffffffffffffffffffffffffffffffffffffffff\n      and\n      0xddf252ad1be2c89b69c2b068fc378daa952ba7f163c4a11628f55a4df523b3ef\n        /* \"contracts/MetraToken.sol\":5766:5772  amount */\n      dup4\n        /* \"contracts/MetraToken.sol\":5738:5773  Transfer(sender, recipient, amount) */\n      mload(0x40)\n      tag_211\n      swap2\n      swap1\n      tag_38\n      jump\t// in\n    tag_211:\n      mload(0x40)\n      dup1\n      swap2\n      sub\n      swap1\n      log3\n        /* \"contracts/MetraToken.sol\":5296:5778  function _transfer(address sender, address recipient, uint256 amount) internal {... */\n      pop\n      pop\n      pop\n      jump\t// out\n        /* \"contracts/Stakeable.sol\":5574:6748  function _withdrawStake(uint256 amount, uint256 index) internal returns(uint256){... */\n    tag_120:\n        /* \"contracts/Stakeable.sol\":5646:5653  uint256 */\n      0x00\n        /* \"contracts/Stakeable.sol\":5738:5756  uint256 user_index */\n      dup1\n        /* \"contracts/Stakeable.sol\":5759:5765  stakes */\n      0x02\n        /* \"contracts/Stakeable.sol\":5759:5777  stakes[msg.sender] */\n      0x00\n        /* \"contracts/Stakeable.sol\":5766:5776  msg.sender */\n      caller\n        /* \"contracts/Stakeable.sol\":5759:5777  stakes[msg.sender] */\n      0xffffffffffffffffffffffffffffffffffffffff\n      and\n      0xffffffffffffffffffffffffffffffffffffffff\n      and\n      dup2\n      mstore\n      0x20\n      add\n      swap1\n      dup2\n      mstore\n      0x20\n      add\n      0x00\n      keccak256\n      sload\n        /* \"contracts/Stakeable.sol\":5738:5777  uint256 user_index = stakes[msg.sender] */\n      swap1\n      pop\n        /* \"contracts/Stakeable.sol\":5787:5813  Stake memory current_stake */\n      0x00\n        /* \"contracts/Stakeable.sol\":5816:5828  stakeholders */\n      0x01\n        /* \"contracts/Stakeable.sol\":5829:5839  user_index */\n      dup3\n        /* \"contracts/Stakeable.sol\":5816:5840  stakeholders[user_index] */\n      dup2\n      sload\n      dup2\n      lt\n      tag_213\n      jumpi\n      tag_214\n      tag_167\n      jump\t// in\n    tag_214:\n    tag_213:\n      swap1\n      0x00\n      mstore\n      keccak256(0x00, 0x20)\n      swap1\n      0x02\n      mul\n      add\n        /* \"contracts/Stakeable.sol\":5816:5855  stakeholders[user_index].address_stakes */\n      0x01\n      add\n        /* \"contracts/Stakeable.sol\":5856:5861  index */\n      dup5\n        /* \"contracts/Stakeable.sol\":5816:5862  stakeholders[user_index].address_stakes[index] */\n      dup2\n      sload\n      dup2\n      lt\n      tag_216\n      jumpi\n      tag_217\n      tag_167\n      jump\t// in\n    tag_217:\n    tag_216:\n      swap1\n      0x00\n      mstore\n      keccak256(0x00, 0x20)\n      swap1\n      0x04\n      mul\n      add\n        /* \"contracts/Stakeable.sol\":5787:5862  Stake memory current_stake = stakeholders[user_index].address_stakes[index] */\n      mload(0x40)\n      dup1\n      0x80\n      add\n      0x40\n      mstore\n      swap1\n      dup2\n      0x00\n      dup3\n      add\n      0x00\n      swap1\n      sload\n      swap1\n      0x0100\n      exp\n      swap1\n      div\n      0xffffffffffffffffffffffffffffffffffffffff\n      and\n      0xffffffffffffffffffffffffffffffffffffffff\n      and\n      0xffffffffffffffffffffffffffffffffffffffff\n      and\n      dup2\n      mstore\n      0x20\n      add\n      0x01\n      dup3\n      add\n      sload\n      dup2\n      mstore\n      0x20\n      add\n      0x02\n      dup3\n      add\n      sload\n      dup2\n      mstore\n      0x20\n      add\n      0x03\n      dup3\n      add\n      sload\n      dup2\n      mstore\n      pop\n      pop\n      swap1\n      pop\n        /* \"contracts/Stakeable.sol\":5904:5910  amount */\n      dup5\n        /* \"contracts/Stakeable.sol\":5880:5893  current_stake */\n      dup2\n        /* \"contracts/Stakeable.sol\":5880:5900  current_stake.amount */\n      0x20\n      add\n      mload\n        /* \"contracts/Stakeable.sol\":5880:5910  current_stake.amount >= amount */\n      lt\n      iszero\n        /* \"contracts/Stakeable.sol\":5872:5965  require(current_stake.amount >= amount, \"Staking: Cannot withdraw more than you have staked\") */\n      tag_219\n      jumpi\n      mload(0x40)\n      0x08c379a000000000000000000000000000000000000000000000000000000000\n      dup2\n      mstore\n      0x04\n      add\n      tag_220\n      swap1\n      tag_221\n      jump\t// in\n    tag_220:\n      mload(0x40)\n      dup1\n      swap2\n      sub\n      swap1\n      revert\n    tag_219:\n        /* \"contracts/Stakeable.sol\":6053:6067  uint256 reward */\n      0x00\n        /* \"contracts/Stakeable.sol\":6070:6105  calculateStakeReward(current_stake) */\n      tag_222\n        /* \"contracts/Stakeable.sol\":6091:6104  current_stake */\n      dup3\n        /* \"contracts/Stakeable.sol\":6070:6090  calculateStakeReward */\n      tag_178\n        /* \"contracts/Stakeable.sol\":6070:6105  calculateStakeReward(current_stake) */\n      jump\t// in\n    tag_222:\n        /* \"contracts/Stakeable.sol\":6053:6105  uint256 reward = calculateStakeReward(current_stake) */\n      swap1\n      pop\n        /* \"contracts/Stakeable.sol\":6216:6222  amount */\n      dup6\n        /* \"contracts/Stakeable.sol\":6193:6206  current_stake */\n      dup3\n        /* \"contracts/Stakeable.sol\":6193:6213  current_stake.amount */\n      0x20\n      add\n      mload\n        /* \"contracts/Stakeable.sol\":6193:6222  current_stake.amount - amount */\n      tag_223\n      swap2\n      swap1\n      tag_115\n      jump\t// in\n    tag_223:\n        /* \"contracts/Stakeable.sol\":6170:6183  current_stake */\n      dup3\n        /* \"contracts/Stakeable.sol\":6170:6190  current_stake.amount */\n      0x20\n      add\n        /* \"contracts/Stakeable.sol\":6170:6222  current_stake.amount = current_stake.amount - amount */\n      dup2\n      dup2\n      mstore\n      pop\n      pop\n        /* \"contracts/Stakeable.sol\":6334:6335  0 */\n      0x00\n        /* \"contracts/Stakeable.sol\":6310:6323  current_stake */\n      dup3\n        /* \"contracts/Stakeable.sol\":6310:6330  current_stake.amount */\n      0x20\n      add\n      mload\n        /* \"contracts/Stakeable.sol\":6310:6335  current_stake.amount == 0 */\n      sub\n        /* \"contracts/Stakeable.sol\":6307:6707  if(current_stake.amount == 0){... */\n      tag_224\n      jumpi\n        /* \"contracts/Stakeable.sol\":6358:6370  stakeholders */\n      0x01\n        /* \"contracts/Stakeable.sol\":6371:6381  user_index */\n      dup4\n        /* \"contracts/Stakeable.sol\":6358:6382  stakeholders[user_index] */\n      dup2\n      sload\n      dup2\n      lt\n      tag_225\n      jumpi\n      tag_226\n      tag_167\n      jump\t// in\n    tag_226:\n    tag_225:\n      swap1\n      0x00\n      mstore\n      keccak256(0x00, 0x20)\n      swap1\n      0x02\n      mul\n      add\n        /* \"contracts/Stakeable.sol\":6358:6397  stakeholders[user_index].address_stakes */\n      0x01\n      add\n        /* \"contracts/Stakeable.sol\":6398:6403  index */\n      dup6\n        /* \"contracts/Stakeable.sol\":6358:6404  stakeholders[user_index].address_stakes[index] */\n      dup2\n      sload\n      dup2\n      lt\n      tag_228\n      jumpi\n      tag_229\n      tag_167\n      jump\t// in\n    tag_229:\n    tag_228:\n      swap1\n      0x00\n      mstore\n      keccak256(0x00, 0x20)\n      swap1\n      0x04\n      mul\n      add\n      0x00\n        /* \"contracts/Stakeable.sol\":6351:6404  delete stakeholders[user_index].address_stakes[index] */\n      dup1\n      dup3\n      add\n      exp(0x0100, 0x00)\n      dup2\n      sload\n      swap1\n      0xffffffffffffffffffffffffffffffffffffffff\n      mul\n      not\n      and\n      swap1\n      sstore\n      0x01\n      dup3\n      add\n      0x00\n      swap1\n      sstore\n      0x02\n      dup3\n      add\n      0x00\n      swap1\n      sstore\n      0x03\n      dup3\n      add\n      0x00\n      swap1\n      sstore\n      pop\n      pop\n        /* \"contracts/Stakeable.sol\":6307:6707  if(current_stake.amount == 0){... */\n      jump(tag_231)\n    tag_224:\n        /* \"contracts/Stakeable.sol\":6550:6563  current_stake */\n      dup2\n        /* \"contracts/Stakeable.sol\":6550:6570  current_stake.amount */\n      0x20\n      add\n      mload\n        /* \"contracts/Stakeable.sol\":6494:6506  stakeholders */\n      0x01\n        /* \"contracts/Stakeable.sol\":6507:6517  user_index */\n      dup5\n        /* \"contracts/Stakeable.sol\":6494:6518  stakeholders[user_index] */\n      dup2\n      sload\n      dup2\n      lt\n      tag_232\n      jumpi\n      tag_233\n      tag_167\n      jump\t// in\n    tag_233:\n    tag_232:\n      swap1\n      0x00\n      mstore\n      keccak256(0x00, 0x20)\n      swap1\n      0x02\n      mul\n      add\n        /* \"contracts/Stakeable.sol\":6494:6533  stakeholders[user_index].address_stakes */\n      0x01\n      add\n        /* \"contracts/Stakeable.sol\":6534:6539  index */\n      dup7\n        /* \"contracts/Stakeable.sol\":6494:6540  stakeholders[user_index].address_stakes[index] */\n      dup2\n      sload\n      dup2\n      lt\n      tag_235\n      jumpi\n      tag_236\n      tag_167\n      jump\t// in\n    tag_236:\n    tag_235:\n      swap1\n      0x00\n      mstore\n      keccak256(0x00, 0x20)\n      swap1\n      0x04\n      mul\n      add\n        /* \"contracts/Stakeable.sol\":6494:6547  stakeholders[user_index].address_stakes[index].amount */\n      0x01\n      add\n        /* \"contracts/Stakeable.sol\":6494:6570  stakeholders[user_index].address_stakes[index].amount = current_stake.amount */\n      dup2\n      swap1\n      sstore\n      pop\n        /* \"contracts/Stakeable.sol\":6676:6691  block.timestamp */\n      timestamp\n        /* \"contracts/Stakeable.sol\":6621:6633  stakeholders */\n      0x01\n        /* \"contracts/Stakeable.sol\":6634:6644  user_index */\n      dup5\n        /* \"contracts/Stakeable.sol\":6621:6645  stakeholders[user_index] */\n      dup2\n      sload\n      dup2\n      lt\n      tag_238\n      jumpi\n      tag_239\n      tag_167\n      jump\t// in\n    tag_239:\n    tag_238:\n      swap1\n      0x00\n      mstore\n      keccak256(0x00, 0x20)\n      swap1\n      0x02\n      mul\n      add\n        /* \"contracts/Stakeable.sol\":6621:6660  stakeholders[user_index].address_stakes */\n      0x01\n      add\n        /* \"contracts/Stakeable.sol\":6661:6666  index */\n      dup7\n        /* \"contracts/Stakeable.sol\":6621:6667  stakeholders[user_index].address_stakes[index] */\n      dup2\n      sload\n      dup2\n      lt\n      tag_241\n      jumpi\n      tag_242\n      tag_167\n      jump\t// in\n    tag_242:\n    tag_241:\n      swap1\n      0x00\n      mstore\n      keccak256(0x00, 0x20)\n      swap1\n      0x04\n      mul\n      add\n        /* \"contracts/Stakeable.sol\":6621:6673  stakeholders[user_index].address_stakes[index].since */\n      0x02\n      add\n        /* \"contracts/Stakeable.sol\":6621:6691  stakeholders[user_index].address_stakes[index].since = block.timestamp */\n      dup2\n      swap1\n      sstore\n      pop\n        /* \"contracts/Stakeable.sol\":6307:6707  if(current_stake.amount == 0){... */\n    tag_231:\n        /* \"contracts/Stakeable.sol\":6734:6740  reward */\n      dup1\n        /* \"contracts/Stakeable.sol\":6725:6731  amount */\n      dup7\n        /* \"contracts/Stakeable.sol\":6725:6740  amount + reward */\n      tag_244\n      swap2\n      swap1\n      tag_119\n      jump\t// in\n    tag_244:\n        /* \"contracts/Stakeable.sol\":6718:6740  return amount + reward */\n      swap4\n      pop\n      pop\n      pop\n      pop\n        /* \"contracts/Stakeable.sol\":5574:6748  function _withdrawStake(uint256 amount, uint256 index) internal returns(uint256){... */\n      swap3\n      swap2\n      pop\n      pop\n      jump\t// out\n        /* \"contracts/MetraToken.sol\":3134:3553  function _mint(address account, uint256 amount) internal {... */\n    tag_122:\n        /* \"contracts/MetraToken.sol\":3224:3225  0 */\n      0x00\n        /* \"contracts/MetraToken.sol\":3205:3226  account != address(0) */\n      0xffffffffffffffffffffffffffffffffffffffff\n      and\n        /* \"contracts/MetraToken.sol\":3205:3212  account */\n      dup3\n        /* \"contracts/MetraToken.sol\":3205:3226  account != address(0) */\n      0xffffffffffffffffffffffffffffffffffffffff\n      and\n      sub\n        /* \"contracts/MetraToken.sol\":3197:3265  require(account != address(0), \"Metra: cannot mint to zero address\") */\n      tag_246\n      jumpi\n      mload(0x40)\n      0x08c379a000000000000000000000000000000000000000000000000000000000\n      dup2\n      mstore\n      0x04\n      add\n      tag_247\n      swap1\n      tag_248\n      jump\t// in\n    tag_247:\n      mload(0x40)\n      dup1\n      swap2\n      sub\n      swap1\n      revert\n    tag_246:\n        /* \"contracts/MetraToken.sol\":3332:3338  amount */\n      dup1\n        /* \"contracts/MetraToken.sol\":3316:3328  _totalSupply */\n      sload(0x04)\n        /* \"contracts/MetraToken.sol\":3316:3339  _totalSupply + (amount) */\n      tag_249\n      swap2\n      swap1\n      tag_119\n      jump\t// in\n    tag_249:\n        /* \"contracts/MetraToken.sol\":3301:3313  _totalSupply */\n      0x04\n        /* \"contracts/MetraToken.sol\":3301:3339  _totalSupply = _totalSupply + (amount) */\n      dup2\n      swap1\n      sstore\n      pop\n        /* \"contracts/MetraToken.sol\":3454:3460  amount */\n      dup1\n        /* \"contracts/MetraToken.sol\":3433:3442  _balances */\n      0x08\n        /* \"contracts/MetraToken.sol\":3433:3451  _balances[account] */\n      0x00\n        /* \"contracts/MetraToken.sol\":3443:3450  account */\n      dup5\n        /* \"contracts/MetraToken.sol\":3433:3451  _balances[account] */\n      0xffffffffffffffffffffffffffffffffffffffff\n      and\n      0xffffffffffffffffffffffffffffffffffffffff\n      and\n      dup2\n      mstore\n      0x20\n      add\n      swap1\n      dup2\n      mstore\n      0x20\n      add\n      0x00\n      keccak256\n      sload\n        /* \"contracts/MetraToken.sol\":3433:3460  _balances[account] + amount */\n      tag_250\n      swap2\n      swap1\n      tag_119\n      jump\t// in\n    tag_250:\n        /* \"contracts/MetraToken.sol\":3412:3421  _balances */\n      0x08\n        /* \"contracts/MetraToken.sol\":3412:3430  _balances[account] */\n      0x00\n        /* \"contracts/MetraToken.sol\":3422:3429  account */\n      dup5\n        /* \"contracts/MetraToken.sol\":3412:3430  _balances[account] */\n      0xffffffffffffffffffffffffffffffffffffffff\n      and\n      0xffffffffffffffffffffffffffffffffffffffff\n      and\n      dup2\n      mstore\n      0x20\n      add\n      swap1\n      dup2\n      mstore\n      0x20\n      add\n      0x00\n      keccak256\n        /* \"contracts/MetraToken.sol\":3412:3460  _balances[account] = _balances[account] + amount */\n      dup2\n      swap1\n      sstore\n      pop\n        /* \"contracts/MetraToken.sol\":3532:3539  account */\n      dup2\n        /* \"contracts/MetraToken.sol\":3511:3548  Transfer(address(0), account, amount) */\n      0xffffffffffffffffffffffffffffffffffffffff\n      and\n        /* \"contracts/MetraToken.sol\":3528:3529  0 */\n      0x00\n        /* \"contracts/MetraToken.sol\":3511:3548  Transfer(address(0), account, amount) */\n      0xffffffffffffffffffffffffffffffffffffffff\n      and\n      0xddf252ad1be2c89b69c2b068fc378daa952ba7f163c4a11628f55a4df523b3ef\n        /* \"contracts/MetraToken.sol\":3541:3547  amount */\n      dup4\n        /* \"contracts/MetraToken.sol\":3511:3548  Transfer(address(0), account, amount) */\n      mload(0x40)\n      tag_251\n      swap2\n      swap1\n      tag_38\n      jump\t// in\n    tag_251:\n      mload(0x40)\n      dup1\n      swap2\n      sub\n      swap1\n      log3\n        /* \"contracts/MetraToken.sol\":3134:3553  function _mint(address account, uint256 amount) internal {... */\n      pop\n      pop\n      jump\t// out\n        /* \"contracts/MetraToken.sol\":3834:4335  function _burn(address account, uint256 amount) internal {... */\n    tag_148:\n        /* \"contracts/MetraToken.sol\":3924:3925  0 */\n      0x00\n        /* \"contracts/MetraToken.sol\":3905:3926  account != address(0) */\n      0xffffffffffffffffffffffffffffffffffffffff\n      and\n        /* \"contracts/MetraToken.sol\":3905:3912  account */\n      dup3\n        /* \"contracts/MetraToken.sol\":3905:3926  account != address(0) */\n      0xffffffffffffffffffffffffffffffffffffffff\n      and\n      sub\n        /* \"contracts/MetraToken.sol\":3897:3967  require(account != address(0), \"Metra: cannot burn from zero address\") */\n      tag_253\n      jumpi\n      mload(0x40)\n      0x08c379a000000000000000000000000000000000000000000000000000000000\n      dup2\n      mstore\n      0x04\n      add\n      tag_254\n      swap1\n      tag_255\n      jump\t// in\n    tag_254:\n      mload(0x40)\n      dup1\n      swap2\n      sub\n      swap1\n      revert\n    tag_253:\n        /* \"contracts/MetraToken.sol\":4003:4009  amount */\n      dup1\n        /* \"contracts/MetraToken.sol\":3981:3990  _balances */\n      0x08\n        /* \"contracts/MetraToken.sol\":3981:3999  _balances[account] */\n      0x00\n        /* \"contracts/MetraToken.sol\":3991:3998  account */\n      dup5\n        /* \"contracts/MetraToken.sol\":3981:3999  _balances[account] */\n      0xffffffffffffffffffffffffffffffffffffffff\n      and\n      0xffffffffffffffffffffffffffffffffffffffff\n      and\n      dup2\n      mstore\n      0x20\n      add\n      swap1\n      dup2\n      mstore\n      0x20\n      add\n      0x00\n      keccak256\n      sload\n        /* \"contracts/MetraToken.sol\":3981:4009  _balances[account] >= amount */\n      lt\n      iszero\n        /* \"contracts/MetraToken.sol\":3973:4059  require(_balances[account] >= amount, \"Metra: Cannot burn more than the account owns\") */\n      tag_256\n      jumpi\n      mload(0x40)\n      0x08c379a000000000000000000000000000000000000000000000000000000000\n      dup2\n      mstore\n      0x04\n      add\n      tag_257\n      swap1\n      tag_258\n      jump\t// in\n    tag_257:\n      mload(0x40)\n      dup1\n      swap2\n      sub\n      swap1\n      revert\n    tag_256:\n        /* \"contracts/MetraToken.sol\":4158:4164  amount */\n      dup1\n        /* \"contracts/MetraToken.sol\":4137:4146  _balances */\n      0x08\n        /* \"contracts/MetraToken.sol\":4137:4155  _balances[account] */\n      0x00\n        /* \"contracts/MetraToken.sol\":4147:4154  account */\n      dup5\n        /* \"contracts/MetraToken.sol\":4137:4155  _balances[account] */\n      0xffffffffffffffffffffffffffffffffffffffff\n      and\n      0xffffffffffffffffffffffffffffffffffffffff\n      and\n      dup2\n      mstore\n      0x20\n      add\n      swap1\n      dup2\n      mstore\n      0x20\n      add\n      0x00\n      keccak256\n      sload\n        /* \"contracts/MetraToken.sol\":4137:4164  _balances[account] - amount */\n      tag_259\n      swap2\n      swap1\n      tag_115\n      jump\t// in\n    tag_259:\n        /* \"contracts/MetraToken.sol\":4116:4125  _balances */\n      0x08\n        /* \"contracts/MetraToken.sol\":4116:4134  _balances[account] */\n      0x00\n        /* \"contracts/MetraToken.sol\":4126:4133  account */\n      dup5\n        /* \"contracts/MetraToken.sol\":4116:4134  _balances[account] */\n      0xffffffffffffffffffffffffffffffffffffffff\n      and\n      0xffffffffffffffffffffffffffffffffffffffff\n      and\n      dup2\n      mstore\n      0x20\n      add\n      swap1\n      dup2\n      mstore\n      0x20\n      add\n      0x00\n      keccak256\n        /* \"contracts/MetraToken.sol\":4116:4164  _balances[account] = _balances[account] - amount */\n      dup2\n      swap1\n      sstore\n      pop\n        /* \"contracts/MetraToken.sol\":4228:4234  amount */\n      dup1\n        /* \"contracts/MetraToken.sol\":4213:4225  _totalSupply */\n      sload(0x04)\n        /* \"contracts/MetraToken.sol\":4213:4234  _totalSupply - amount */\n      tag_260\n      swap2\n      swap1\n      tag_115\n      jump\t// in\n    tag_260:\n        /* \"contracts/MetraToken.sol\":4198:4210  _totalSupply */\n      0x04\n        /* \"contracts/MetraToken.sol\":4198:4234  _totalSupply = _totalSupply - amount */\n      dup2\n      swap1\n      sstore\n      pop\n        /* \"contracts/MetraToken.sol\":4319:4320  0 */\n      0x00\n        /* \"contracts/MetraToken.sol\":4293:4330  Transfer(account, address(0), amount) */\n      0xffffffffffffffffffffffffffffffffffffffff\n      and\n        /* \"contracts/MetraToken.sol\":4302:4309  account */\n      dup3\n        /* \"contracts/MetraToken.sol\":4293:4330  Transfer(account, address(0), amount) */\n      0xffffffffffffffffffffffffffffffffffffffff\n      and\n      0xddf252ad1be2c89b69c2b068fc378daa952ba7f163c4a11628f55a4df523b3ef\n        /* \"contracts/MetraToken.sol\":4323:4329  amount */\n      dup4\n        /* \"contracts/MetraToken.sol\":4293:4330  Transfer(account, address(0), amount) */\n      mload(0x40)\n      tag_261\n      swap2\n      swap1\n      tag_38\n      jump\t// in\n    tag_261:\n      mload(0x40)\n      dup1\n      swap2\n      sub\n      swap1\n      log3\n        /* \"contracts/MetraToken.sol\":3834:4335  function _burn(address account, uint256 amount) internal {... */\n      pop\n      pop\n      jump\t// out\n        /* \"contracts/Stakeable.sol\":3057:4233  function _stake(uint256 _amount) internal{... */\n    tag_157:\n        /* \"contracts/Stakeable.sol\":3181:3182  0 */\n      0x00\n        /* \"contracts/Stakeable.sol\":3171:3178  _amount */\n      dup2\n        /* \"contracts/Stakeable.sol\":3171:3182  _amount > 0 */\n      gt\n        /* \"contracts/Stakeable.sol\":3163:3207  require(_amount > 0, \"Cannot stake nothing\") */\n      tag_263\n      jumpi\n      mload(0x40)\n      0x08c379a000000000000000000000000000000000000000000000000000000000\n      dup2\n      mstore\n      0x04\n      add\n      tag_264\n      swap1\n      tag_265\n      jump\t// in\n    tag_264:\n      mload(0x40)\n      dup1\n      swap2\n      sub\n      swap1\n      revert\n    tag_263:\n        /* \"contracts/Stakeable.sol\":3323:3336  uint256 index */\n      0x00\n        /* \"contracts/Stakeable.sol\":3339:3345  stakes */\n      0x02\n        /* \"contracts/Stakeable.sol\":3339:3357  stakes[msg.sender] */\n      0x00\n        /* \"contracts/Stakeable.sol\":3346:3356  msg.sender */\n      caller\n        /* \"contracts/Stakeable.sol\":3339:3357  stakes[msg.sender] */\n      0xffffffffffffffffffffffffffffffffffffffff\n      and\n      0xffffffffffffffffffffffffffffffffffffffff\n      and\n      dup2\n      mstore\n      0x20\n      add\n      swap1\n      dup2\n      mstore\n      0x20\n      add\n      0x00\n      keccak256\n      sload\n        /* \"contracts/Stakeable.sol\":3323:3357  uint256 index = stakes[msg.sender] */\n      swap1\n      pop\n        /* \"contracts/Stakeable.sol\":3454:3471  uint256 timestamp */\n      0x00\n        /* \"contracts/Stakeable.sol\":3474:3489  block.timestamp */\n      timestamp\n        /* \"contracts/Stakeable.sol\":3454:3489  uint256 timestamp = block.timestamp */\n      swap1\n      pop\n        /* \"contracts/Stakeable.sol\":3592:3593  0 */\n      0x00\n        /* \"contracts/Stakeable.sol\":3583:3588  index */\n      dup3\n        /* \"contracts/Stakeable.sol\":3583:3593  index == 0 */\n      sub\n        /* \"contracts/Stakeable.sol\":3580:3908  if(index == 0){... */\n      tag_266\n      jumpi\n        /* \"contracts/Stakeable.sol\":3870:3897  _addStakeholder(msg.sender) */\n      tag_267\n        /* \"contracts/Stakeable.sol\":3886:3896  msg.sender */\n      caller\n        /* \"contracts/Stakeable.sol\":3870:3885  _addStakeholder */\n      tag_268\n        /* \"contracts/Stakeable.sol\":3870:3897  _addStakeholder(msg.sender) */\n      jump\t// in\n    tag_267:\n        /* \"contracts/Stakeable.sol\":3862:3897  index = _addStakeholder(msg.sender) */\n      swap2\n      pop\n        /* \"contracts/Stakeable.sol\":3580:3908  if(index == 0){... */\n    tag_266:\n        /* \"contracts/Stakeable.sol\":4035:4047  stakeholders */\n      0x01\n        /* \"contracts/Stakeable.sol\":4048:4053  index */\n      dup3\n        /* \"contracts/Stakeable.sol\":4035:4054  stakeholders[index] */\n      dup2\n      sload\n      dup2\n      lt\n      tag_269\n      jumpi\n      tag_270\n      tag_167\n      jump\t// in\n    tag_270:\n    tag_269:\n      swap1\n      0x00\n      mstore\n      keccak256(0x00, 0x20)\n      swap1\n      0x02\n      mul\n      add\n        /* \"contracts/Stakeable.sol\":4035:4069  stakeholders[index].address_stakes */\n      0x01\n      add\n        /* \"contracts/Stakeable.sol\":4075:4114  Stake(msg.sender, _amount, timestamp,0) */\n      mload(0x40)\n      dup1\n      0x80\n      add\n      0x40\n      mstore\n      dup1\n        /* \"contracts/Stakeable.sol\":4081:4091  msg.sender */\n      caller\n        /* \"contracts/Stakeable.sol\":4075:4114  Stake(msg.sender, _amount, timestamp,0) */\n      0xffffffffffffffffffffffffffffffffffffffff\n      and\n      dup2\n      mstore\n      0x20\n      add\n        /* \"contracts/Stakeable.sol\":4093:4100  _amount */\n      dup6\n        /* \"contracts/Stakeable.sol\":4075:4114  Stake(msg.sender, _amount, timestamp,0) */\n      dup2\n      mstore\n      0x20\n      add\n        /* \"contracts/Stakeable.sol\":4102:4111  timestamp */\n      dup4\n        /* \"contracts/Stakeable.sol\":4075:4114  Stake(msg.sender, _amount, timestamp,0) */\n      dup2\n      mstore\n      0x20\n      add\n        /* \"contracts/Stakeable.sol\":4112:4113  0 */\n      0x00\n        /* \"contracts/Stakeable.sol\":4075:4114  Stake(msg.sender, _amount, timestamp,0) */\n      dup2\n      mstore\n      pop\n        /* \"contracts/Stakeable.sol\":4035:4115  stakeholders[index].address_stakes.push(Stake(msg.sender, _amount, timestamp,0)) */\n      swap1\n      dup1\n      0x01\n      dup2\n      sload\n      add\n      dup1\n      dup3\n      sstore\n      dup1\n      swap2\n      pop\n      pop\n      0x01\n      swap1\n      sub\n      swap1\n      0x00\n      mstore\n      keccak256(0x00, 0x20)\n      swap1\n      0x04\n      mul\n      add\n      0x00\n      swap1\n      swap2\n      swap1\n      swap2\n      swap1\n      swap2\n      pop\n      0x00\n      dup3\n      add\n      mload\n      dup2\n      0x00\n      add\n      exp(0x0100, 0x00)\n      dup2\n      sload\n      dup2\n      0xffffffffffffffffffffffffffffffffffffffff\n      mul\n      not\n      and\n      swap1\n      dup4\n      0xffffffffffffffffffffffffffffffffffffffff\n      and\n      mul\n      or\n      swap1\n      sstore\n      pop\n      0x20\n      dup3\n      add\n      mload\n      dup2\n      0x01\n      add\n      sstore\n      0x40\n      dup3\n      add\n      mload\n      dup2\n      0x02\n      add\n      sstore\n      0x60\n      dup3\n      add\n      mload\n      dup2\n      0x03\n      add\n      sstore\n      pop\n      pop\n        /* \"contracts/Stakeable.sol\":4189:4199  msg.sender */\n      caller\n        /* \"contracts/Stakeable.sol\":4182:4226  Staked(msg.sender, _amount, index,timestamp) */\n      0xffffffffffffffffffffffffffffffffffffffff\n      and\n      0xb4caaf29adda3eefee3ad552a8e85058589bf834c7466cae4ee58787f70589ed\n        /* \"contracts/Stakeable.sol\":4201:4208  _amount */\n      dup5\n        /* \"contracts/Stakeable.sol\":4210:4215  index */\n      dup5\n        /* \"contracts/Stakeable.sol\":4216:4225  timestamp */\n      dup5\n        /* \"contracts/Stakeable.sol\":4182:4226  Staked(msg.sender, _amount, index,timestamp) */\n      mload(0x40)\n      tag_273\n      swap4\n      swap3\n      swap2\n      swap1\n      tag_274\n      jump\t// in\n    tag_273:\n      mload(0x40)\n      dup1\n      swap2\n      sub\n      swap1\n      log2\n        /* \"contracts/Stakeable.sol\":3098:4233  {... */\n      pop\n      pop\n        /* \"contracts/Stakeable.sol\":3057:4233  function _stake(uint256 _amount) internal{... */\n      pop\n      jump\t// out\n        /* \"contracts/Stakeable.sol\":4426:5230  function calculateStakeReward(Stake memory _current_stake) internal view returns(uint256){... */\n    tag_178:\n        /* \"contracts/Stakeable.sol\":4507:4514  uint256 */\n      0x00\n        /* \"contracts/Stakeable.sol\":5208:5221  rewardPerHour */\n      sload(0x03)\n        /* \"contracts/Stakeable.sol\":5183:5197  _current_stake */\n      dup3\n        /* \"contracts/Stakeable.sol\":5183:5204  _current_stake.amount */\n      0x20\n      add\n      mload\n        /* \"contracts/Stakeable.sol\":5172:5179  1 hours */\n      0x0e10\n        /* \"contracts/Stakeable.sol\":5148:5162  _current_stake */\n      dup5\n        /* \"contracts/Stakeable.sol\":5148:5168  _current_stake.since */\n      0x40\n      add\n      mload\n        /* \"contracts/Stakeable.sol\":5130:5145  block.timestamp */\n      timestamp\n        /* \"contracts/Stakeable.sol\":5130:5168  block.timestamp - _current_stake.since */\n      tag_276\n      swap2\n      swap1\n      tag_115\n      jump\t// in\n    tag_276:\n        /* \"contracts/Stakeable.sol\":5129:5179  (block.timestamp - _current_stake.since) / 1 hours */\n      tag_277\n      swap2\n      swap1\n      tag_278\n      jump\t// in\n    tag_277:\n        /* \"contracts/Stakeable.sol\":5128:5204  ((block.timestamp - _current_stake.since) / 1 hours) * _current_stake.amount */\n      tag_279\n      swap2\n      swap1\n      tag_280\n      jump\t// in\n    tag_279:\n        /* \"contracts/Stakeable.sol\":5127:5221  (((block.timestamp - _current_stake.since) / 1 hours) * _current_stake.amount) / rewardPerHour */\n      tag_281\n      swap2\n      swap1\n      tag_278\n      jump\t// in\n    tag_281:\n        /* \"contracts/Stakeable.sol\":5120:5221  return (((block.timestamp - _current_stake.since) / 1 hours) * _current_stake.amount) / rewardPerHour */\n      swap1\n      pop\n        /* \"contracts/Stakeable.sol\":4426:5230  function calculateStakeReward(Stake memory _current_stake) internal view returns(uint256){... */\n      swap2\n      swap1\n      pop\n      jump\t// out\n        /* \"contracts/Ownable.sol\":1897:2122  function _transferOwnership(address newOwner) internal {... */\n    tag_190:\n        /* \"contracts/Ownable.sol\":1990:1991  0 */\n      0x00\n        /* \"contracts/Ownable.sol\":1970:1992  newOwner != address(0) */\n      0xffffffffffffffffffffffffffffffffffffffff\n      and\n        /* \"contracts/Ownable.sol\":1970:1978  newOwner */\n      dup2\n        /* \"contracts/Ownable.sol\":1970:1992  newOwner != address(0) */\n      0xffffffffffffffffffffffffffffffffffffffff\n      and\n      sub\n        /* \"contracts/Ownable.sol\":1962:2035  require(newOwner != address(0), \"Ownable: new owner is the zero address\") */\n      tag_283\n      jumpi\n      mload(0x40)\n      0x08c379a000000000000000000000000000000000000000000000000000000000\n      dup2\n      mstore\n      0x04\n      add\n      tag_284\n      swap1\n      tag_285\n      jump\t// in\n    tag_284:\n      mload(0x40)\n      dup1\n      swap2\n      sub\n      swap1\n      revert\n    tag_283:\n        /* \"contracts/Ownable.sol\":2079:2087  newOwner */\n      dup1\n        /* \"contracts/Ownable.sol\":2050:2088  OwnershipTransferred(_owner, newOwner) */\n      0xffffffffffffffffffffffffffffffffffffffff\n      and\n        /* \"contracts/Ownable.sol\":2071:2077  _owner */\n      0x00\n      dup1\n      sload\n      swap1\n      0x0100\n      exp\n      swap1\n      div\n      0xffffffffffffffffffffffffffffffffffffffff\n      and\n        /* \"contracts/Ownable.sol\":2050:2088  OwnershipTransferred(_owner, newOwner) */\n      0xffffffffffffffffffffffffffffffffffffffff\n      and\n      0x8be0079c531659141344cd1fd0a4f28419497f9722a3daafe3b4186f6b6457e0\n      mload(0x40)\n      mload(0x40)\n      dup1\n      swap2\n      sub\n      swap1\n      log3\n        /* \"contracts/Ownable.sol\":2107:2115  newOwner */\n      dup1\n        /* \"contracts/Ownable.sol\":2098:2104  _owner */\n      0x00\n      dup1\n        /* \"contracts/Ownable.sol\":2098:2115  _owner = newOwner */\n      0x0100\n      exp\n      dup2\n      sload\n      dup2\n      0xffffffffffffffffffffffffffffffffffffffff\n      mul\n      not\n      and\n      swap1\n      dup4\n      0xffffffffffffffffffffffffffffffffffffffff\n      and\n      mul\n      or\n      swap1\n      sstore\n      pop\n        /* \"contracts/Ownable.sol\":1897:2122  function _transferOwnership(address newOwner) internal {... */\n      pop\n      jump\t// out\n        /* \"contracts/Stakeable.sol\":2345:2849  function _addStakeholder(address staker) internal returns (uint256){... */\n    tag_268:\n        /* \"contracts/Stakeable.sol\":2404:2411  uint256 */\n      0x00\n        /* \"contracts/Stakeable.sol\":2502:2514  stakeholders */\n      0x01\n        /* \"contracts/Stakeable.sol\":2502:2521  stakeholders.push() */\n      dup1\n      dup2\n      0x01\n      dup2\n      sload\n      add\n      dup1\n      dup3\n      sstore\n      dup1\n      swap2\n      pop\n      pop\n      sub\n      swap1\n      0x00\n      mstore\n      keccak256(0x00, 0x20)\n      swap1\n      pop\n      pop\n        /* \"contracts/Stakeable.sol\":2601:2618  uint256 userIndex */\n      0x00\n        /* \"contracts/Stakeable.sol\":2643:2644  1 */\n      0x01\n        /* \"contracts/Stakeable.sol\":2621:2633  stakeholders */\n      dup1\n        /* \"contracts/Stakeable.sol\":2621:2640  stakeholders.length */\n      dup1\n      sload\n      swap1\n      pop\n        /* \"contracts/Stakeable.sol\":2621:2644  stakeholders.length - 1 */\n      tag_288\n      swap2\n      swap1\n      tag_115\n      jump\t// in\n    tag_288:\n        /* \"contracts/Stakeable.sol\":2601:2644  uint256 userIndex = stakeholders.length - 1 */\n      swap1\n      pop\n        /* \"contracts/Stakeable.sol\":2732:2738  staker */\n      dup3\n        /* \"contracts/Stakeable.sol\":2701:2713  stakeholders */\n      0x01\n        /* \"contracts/Stakeable.sol\":2714:2723  userIndex */\n      dup3\n        /* \"contracts/Stakeable.sol\":2701:2724  stakeholders[userIndex] */\n      dup2\n      sload\n      dup2\n      lt\n      tag_289\n      jumpi\n      tag_290\n      tag_167\n      jump\t// in\n    tag_290:\n    tag_289:\n      swap1\n      0x00\n      mstore\n      keccak256(0x00, 0x20)\n      swap1\n      0x02\n      mul\n      add\n        /* \"contracts/Stakeable.sol\":2701:2729  stakeholders[userIndex].user */\n      0x00\n      add\n      0x00\n        /* \"contracts/Stakeable.sol\":2701:2738  stakeholders[userIndex].user = staker */\n      0x0100\n      exp\n      dup2\n      sload\n      dup2\n      0xffffffffffffffffffffffffffffffffffffffff\n      mul\n      not\n      and\n      swap1\n      dup4\n      0xffffffffffffffffffffffffffffffffffffffff\n      and\n      mul\n      or\n      swap1\n      sstore\n      pop\n        /* \"contracts/Stakeable.sol\":2806:2815  userIndex */\n      dup1\n        /* \"contracts/Stakeable.sol\":2789:2795  stakes */\n      0x02\n        /* \"contracts/Stakeable.sol\":2789:2803  stakes[staker] */\n      0x00\n        /* \"contracts/Stakeable.sol\":2796:2802  staker */\n      dup6\n        /* \"contracts/Stakeable.sol\":2789:2803  stakes[staker] */\n      0xffffffffffffffffffffffffffffffffffffffff\n      and\n      0xffffffffffffffffffffffffffffffffffffffff\n      and\n      dup2\n      mstore\n      0x20\n      add\n      swap1\n      dup2\n      mstore\n      0x20\n      add\n      0x00\n      keccak256\n        /* \"contracts/Stakeable.sol\":2789:2815  stakes[staker] = userIndex */\n      dup2\n      swap1\n      sstore\n      pop\n        /* \"contracts/Stakeable.sol\":2832:2841  userIndex */\n      dup1\n        /* \"contracts/Stakeable.sol\":2825:2841  return userIndex */\n      swap2\n      pop\n      pop\n        /* \"contracts/Stakeable.sol\":2345:2849  function _addStakeholder(address staker) internal returns (uint256){... */\n      swap2\n      swap1\n      pop\n      jump\t// out\n    tag_163:\n      mload(0x40)\n      dup1\n      0x40\n      add\n      0x40\n      mstore\n      dup1\n      0x00\n      dup2\n      mstore\n      0x20\n      add\n      0x60\n      dup2\n      mstore\n      pop\n      swap1\n      jump\t// out\n        /* \"#utility.yul\":7:106   */\n    tag_292:\n        /* \"#utility.yul\":59:65   */\n      0x00\n        /* \"#utility.yul\":93:98   */\n      dup2\n        /* \"#utility.yul\":87:99   */\n      mload\n        /* \"#utility.yul\":77:99   */\n      swap1\n      pop\n        /* \"#utility.yul\":7:106   */\n      swap2\n      swap1\n      pop\n      jump\t// out\n        /* \"#utility.yul\":112:281   */\n    tag_293:\n        /* \"#utility.yul\":196:207   */\n      0x00\n        /* \"#utility.yul\":230:236   */\n      dup3\n        /* \"#utility.yul\":225:228   */\n      dup3\n        /* \"#utility.yul\":218:237   */\n      mstore\n        /* \"#utility.yul\":270:274   */\n      0x20\n        /* \"#utility.yul\":265:268   */\n      dup3\n        /* \"#utility.yul\":261:275   */\n      add\n        /* \"#utility.yul\":246:275   */\n      swap1\n      pop\n        /* \"#utility.yul\":112:281   */\n      swap3\n      swap2\n      pop\n      pop\n      jump\t// out\n        /* \"#utility.yul\":287:594   */\n    tag_294:\n        /* \"#utility.yul\":355:356   */\n      0x00\n        /* \"#utility.yul\":365:478   */\n    tag_358:\n        /* \"#utility.yul\":379:385   */\n      dup4\n        /* \"#utility.yul\":376:377   */\n      dup2\n        /* \"#utility.yul\":373:386   */\n      lt\n        /* \"#utility.yul\":365:478   */\n      iszero\n      tag_360\n      jumpi\n        /* \"#utility.yul\":464:465   */\n      dup1\n        /* \"#utility.yul\":459:462   */\n      dup3\n        /* \"#utility.yul\":455:466   */\n      add\n        /* \"#utility.yul\":449:467   */\n      mload\n        /* \"#utility.yul\":445:446   */\n      dup2\n        /* \"#utility.yul\":440:443   */\n      dup5\n        /* \"#utility.yul\":436:447   */\n      add\n        /* \"#utility.yul\":429:468   */\n      mstore\n        /* \"#utility.yul\":401:403   */\n      0x20\n        /* \"#utility.yul\":398:399   */\n      dup2\n        /* \"#utility.yul\":394:404   */\n      add\n        /* \"#utility.yul\":389:404   */\n      swap1\n      pop\n        /* \"#utility.yul\":365:478   */\n      jump(tag_358)\n    tag_360:\n        /* \"#utility.yul\":496:502   */\n      dup4\n        /* \"#utility.yul\":493:494   */\n      dup2\n        /* \"#utility.yul\":490:503   */\n      gt\n        /* \"#utility.yul\":487:588   */\n      iszero\n      tag_361\n      jumpi\n        /* \"#utility.yul\":576:577   */\n      0x00\n        /* \"#utility.yul\":567:573   */\n      dup5\n        /* \"#utility.yul\":562:565   */\n      dup5\n        /* \"#utility.yul\":558:574   */\n      add\n        /* \"#utility.yul\":551:578   */\n      mstore\n        /* \"#utility.yul\":487:588   */\n    tag_361:\n        /* \"#utility.yul\":336:594   */\n      pop\n        /* \"#utility.yul\":287:594   */\n      pop\n      pop\n      pop\n      jump\t// out\n        /* \"#utility.yul\":600:702   */\n    tag_295:\n        /* \"#utility.yul\":641:647   */\n      0x00\n        /* \"#utility.yul\":692:694   */\n      0x1f\n        /* \"#utility.yul\":688:695   */\n      not\n        /* \"#utility.yul\":683:685   */\n      0x1f\n        /* \"#utility.yul\":676:681   */\n      dup4\n        /* \"#utility.yul\":672:686   */\n      add\n        /* \"#utility.yul\":668:696   */\n      and\n        /* \"#utility.yul\":658:696   */\n      swap1\n      pop\n        /* \"#utility.yul\":600:702   */\n      swap2\n      swap1\n      pop\n      jump\t// out\n        /* \"#utility.yul\":708:1072   */\n    tag_296:\n        /* \"#utility.yul\":796:799   */\n      0x00\n        /* \"#utility.yul\":824:863   */\n      tag_364\n        /* \"#utility.yul\":857:862   */\n      dup3\n        /* \"#utility.yul\":824:863   */\n      tag_292\n      jump\t// in\n    tag_364:\n        /* \"#utility.yul\":879:950   */\n      tag_365\n        /* \"#utility.yul\":943:949   */\n      dup2\n        /* \"#utility.yul\":938:941   */\n      dup6\n        /* \"#utility.yul\":879:950   */\n      tag_293\n      jump\t// in\n    tag_365:\n        /* \"#utility.yul\":872:950   */\n      swap4\n      pop\n        /* \"#utility.yul\":959:1011   */\n      tag_366\n        /* \"#utility.yul\":1004:1010   */\n      dup2\n        /* \"#utility.yul\":999:1002   */\n      dup6\n        /* \"#utility.yul\":992:996   */\n      0x20\n        /* \"#utility.yul\":985:990   */\n      dup7\n        /* \"#utility.yul\":981:997   */\n      add\n        /* \"#utility.yul\":959:1011   */\n      tag_294\n      jump\t// in\n    tag_366:\n        /* \"#utility.yul\":1036:1065   */\n      tag_367\n        /* \"#utility.yul\":1058:1064   */\n      dup2\n        /* \"#utility.yul\":1036:1065   */\n      tag_295\n      jump\t// in\n    tag_367:\n        /* \"#utility.yul\":1031:1034   */\n      dup5\n        /* \"#utility.yul\":1027:1066   */\n      add\n        /* \"#utility.yul\":1020:1066   */\n      swap2\n      pop\n        /* \"#utility.yul\":800:1072   */\n      pop\n        /* \"#utility.yul\":708:1072   */\n      swap3\n      swap2\n      pop\n      pop\n      jump\t// out\n        /* \"#utility.yul\":1078:1391   */\n    tag_28:\n        /* \"#utility.yul\":1191:1195   */\n      0x00\n        /* \"#utility.yul\":1229:1231   */\n      0x20\n        /* \"#utility.yul\":1218:1227   */\n      dup3\n        /* \"#utility.yul\":1214:1232   */\n      add\n        /* \"#utility.yul\":1206:1232   */\n      swap1\n      pop\n        /* \"#utility.yul\":1278:1287   */\n      dup2\n        /* \"#utility.yul\":1272:1276   */\n      dup2\n        /* \"#utility.yul\":1268:1288   */\n      sub\n        /* \"#utility.yul\":1264:1265   */\n      0x00\n        /* \"#utility.yul\":1253:1262   */\n      dup4\n        /* \"#utility.yul\":1249:1266   */\n      add\n        /* \"#utility.yul\":1242:1289   */\n      mstore\n        /* \"#utility.yul\":1306:1384   */\n      tag_369\n        /* \"#utility.yul\":1379:1383   */\n      dup2\n        /* \"#utility.yul\":1370:1376   */\n      dup5\n        /* \"#utility.yul\":1306:1384   */\n      tag_296\n      jump\t// in\n    tag_369:\n        /* \"#utility.yul\":1298:1384   */\n      swap1\n      pop\n        /* \"#utility.yul\":1078:1391   */\n      swap3\n      swap2\n      pop\n      pop\n      jump\t// out\n        /* \"#utility.yul\":1478:1595   */\n    tag_298:\n        /* \"#utility.yul\":1587:1588   */\n      0x00\n        /* \"#utility.yul\":1584:1585   */\n      dup1\n        /* \"#utility.yul\":1577:1589   */\n      revert\n        /* \"#utility.yul\":1724:1850   */\n    tag_300:\n        /* \"#utility.yul\":1761:1768   */\n      0x00\n        /* \"#utility.yul\":1801:1843   */\n      0xffffffffffffffffffffffffffffffffffffffff\n        /* \"#utility.yul\":1794:1799   */\n      dup3\n        /* \"#utility.yul\":1790:1844   */\n      and\n        /* \"#utility.yul\":1779:1844   */\n      swap1\n      pop\n        /* \"#utility.yul\":1724:1850   */\n      swap2\n      swap1\n      pop\n      jump\t// out\n        /* \"#utility.yul\":1856:1952   */\n    tag_301:\n        /* \"#utility.yul\":1893:1900   */\n      0x00\n        /* \"#utility.yul\":1922:1946   */\n      tag_375\n        /* \"#utility.yul\":1940:1945   */\n      dup3\n        /* \"#utility.yul\":1922:1946   */\n      tag_300\n      jump\t// in\n    tag_375:\n        /* \"#utility.yul\":1911:1946   */\n      swap1\n      pop\n        /* \"#utility.yul\":1856:1952   */\n      swap2\n      swap1\n      pop\n      jump\t// out\n        /* \"#utility.yul\":1958:2080   */\n    tag_302:\n        /* \"#utility.yul\":2031:2055   */\n      tag_377\n        /* \"#utility.yul\":2049:2054   */\n      dup2\n        /* \"#utility.yul\":2031:2055   */\n      tag_301\n      jump\t// in\n    tag_377:\n        /* \"#utility.yul\":2024:2029   */\n      dup2\n        /* \"#utility.yul\":2021:2056   */\n      eq\n        /* \"#utility.yul\":2011:2074   */\n      tag_378\n      jumpi\n        /* \"#utility.yul\":2070:2071   */\n      0x00\n        /* \"#utility.yul\":2067:2068   */\n      dup1\n        /* \"#utility.yul\":2060:2072   */\n      revert\n        /* \"#utility.yul\":2011:2074   */\n    tag_378:\n        /* \"#utility.yul\":1958:2080   */\n      pop\n      jump\t// out\n        /* \"#utility.yul\":2086:2225   */\n    tag_303:\n        /* \"#utility.yul\":2132:2137   */\n      0x00\n        /* \"#utility.yul\":2170:2176   */\n      dup2\n        /* \"#utility.yul\":2157:2177   */\n      calldataload\n        /* \"#utility.yul\":2148:2177   */\n      swap1\n      pop\n        /* \"#utility.yul\":2186:2219   */\n      tag_380\n        /* \"#utility.yul\":2213:2218   */\n      dup2\n        /* \"#utility.yul\":2186:2219   */\n      tag_302\n      jump\t// in\n    tag_380:\n        /* \"#utility.yul\":2086:2225   */\n      swap3\n      swap2\n      pop\n      pop\n      jump\t// out\n        /* \"#utility.yul\":2231:2308   */\n    tag_304:\n        /* \"#utility.yul\":2268:2275   */\n      0x00\n        /* \"#utility.yul\":2297:2302   */\n      dup2\n        /* \"#utility.yul\":2286:2302   */\n      swap1\n      pop\n        /* \"#utility.yul\":2231:2308   */\n      swap2\n      swap1\n      pop\n      jump\t// out\n        /* \"#utility.yul\":2314:2436   */\n    tag_305:\n        /* \"#utility.yul\":2387:2411   */\n      tag_383\n        /* \"#utility.yul\":2405:2410   */\n      dup2\n        /* \"#utility.yul\":2387:2411   */\n      tag_304\n      jump\t// in\n    tag_383:\n        /* \"#utility.yul\":2380:2385   */\n      dup2\n        /* \"#utility.yul\":2377:2412   */\n      eq\n        /* \"#utility.yul\":2367:2430   */\n      tag_384\n      jumpi\n        /* \"#utility.yul\":2426:2427   */\n      0x00\n        /* \"#utility.yul\":2423:2424   */\n      dup1\n        /* \"#utility.yul\":2416:2428   */\n      revert\n        /* \"#utility.yul\":2367:2430   */\n    tag_384:\n        /* \"#utility.yul\":2314:2436   */\n      pop\n      jump\t// out\n        /* \"#utility.yul\":2442:2581   */\n    tag_306:\n        /* \"#utility.yul\":2488:2493   */\n      0x00\n        /* \"#utility.yul\":2526:2532   */\n      dup2\n        /* \"#utility.yul\":2513:2533   */\n      calldataload\n        /* \"#utility.yul\":2504:2533   */\n      swap1\n      pop\n        /* \"#utility.yul\":2542:2575   */\n      tag_386\n        /* \"#utility.yul\":2569:2574   */\n      dup2\n        /* \"#utility.yul\":2542:2575   */\n      tag_305\n      jump\t// in\n    tag_386:\n        /* \"#utility.yul\":2442:2581   */\n      swap3\n      swap2\n      pop\n      pop\n      jump\t// out\n        /* \"#utility.yul\":2587:3061   */\n    tag_31:\n        /* \"#utility.yul\":2655:2661   */\n      0x00\n        /* \"#utility.yul\":2663:2669   */\n      dup1\n        /* \"#utility.yul\":2712:2714   */\n      0x40\n        /* \"#utility.yul\":2700:2709   */\n      dup4\n        /* \"#utility.yul\":2691:2698   */\n      dup6\n        /* \"#utility.yul\":2687:2710   */\n      sub\n        /* \"#utility.yul\":2683:2715   */\n      slt\n        /* \"#utility.yul\":2680:2799   */\n      iszero\n      tag_388\n      jumpi\n        /* \"#utility.yul\":2718:2797   */\n      tag_389\n      tag_298\n      jump\t// in\n    tag_389:\n        /* \"#utility.yul\":2680:2799   */\n    tag_388:\n        /* \"#utility.yul\":2838:2839   */\n      0x00\n        /* \"#utility.yul\":2863:2916   */\n      tag_390\n        /* \"#utility.yul\":2908:2915   */\n      dup6\n        /* \"#utility.yul\":2899:2905   */\n      dup3\n        /* \"#utility.yul\":2888:2897   */\n      dup7\n        /* \"#utility.yul\":2884:2906   */\n      add\n        /* \"#utility.yul\":2863:2916   */\n      tag_303\n      jump\t// in\n    tag_390:\n        /* \"#utility.yul\":2853:2916   */\n      swap3\n      pop\n        /* \"#utility.yul\":2809:2926   */\n      pop\n        /* \"#utility.yul\":2965:2967   */\n      0x20\n        /* \"#utility.yul\":2991:3044   */\n      tag_391\n        /* \"#utility.yul\":3036:3043   */\n      dup6\n        /* \"#utility.yul\":3027:3033   */\n      dup3\n        /* \"#utility.yul\":3016:3025   */\n      dup7\n        /* \"#utility.yul\":3012:3034   */\n      add\n        /* \"#utility.yul\":2991:3044   */\n      tag_306\n      jump\t// in\n    tag_391:\n        /* \"#utility.yul\":2981:3044   */\n      swap2\n      pop\n        /* \"#utility.yul\":2936:3054   */\n      pop\n        /* \"#utility.yul\":2587:3061   */\n      swap3\n      pop\n      swap3\n      swap1\n      pop\n      jump\t// out\n        /* \"#utility.yul\":3067:3157   */\n    tag_307:\n        /* \"#utility.yul\":3101:3108   */\n      0x00\n        /* \"#utility.yul\":3144:3149   */\n      dup2\n        /* \"#utility.yul\":3137:3150   */\n      iszero\n        /* \"#utility.yul\":3130:3151   */\n      iszero\n        /* \"#utility.yul\":3119:3151   */\n      swap1\n      pop\n        /* \"#utility.yul\":3067:3157   */\n      swap2\n      swap1\n      pop\n      jump\t// out\n        /* \"#utility.yul\":3163:3272   */\n    tag_308:\n        /* \"#utility.yul\":3244:3265   */\n      tag_394\n        /* \"#utility.yul\":3259:3264   */\n      dup2\n        /* \"#utility.yul\":3244:3265   */\n      tag_307\n      jump\t// in\n    tag_394:\n        /* \"#utility.yul\":3239:3242   */\n      dup3\n        /* \"#utility.yul\":3232:3266   */\n      mstore\n        /* \"#utility.yul\":3163:3272   */\n      pop\n      pop\n      jump\t// out\n        /* \"#utility.yul\":3278:3488   */\n    tag_34:\n        /* \"#utility.yul\":3365:3369   */\n      0x00\n        /* \"#utility.yul\":3403:3405   */\n      0x20\n        /* \"#utility.yul\":3392:3401   */\n      dup3\n        /* \"#utility.yul\":3388:3406   */\n      add\n        /* \"#utility.yul\":3380:3406   */\n      swap1\n      pop\n        /* \"#utility.yul\":3416:3481   */\n      tag_396\n        /* \"#utility.yul\":3478:3479   */\n      0x00\n        /* \"#utility.yul\":3467:3476   */\n      dup4\n        /* \"#utility.yul\":3463:3480   */\n      add\n        /* \"#utility.yul\":3454:3460   */\n      dup5\n        /* \"#utility.yul\":3416:3481   */\n      tag_308\n      jump\t// in\n    tag_396:\n        /* \"#utility.yul\":3278:3488   */\n      swap3\n      swap2\n      pop\n      pop\n      jump\t// out\n        /* \"#utility.yul\":3494:3612   */\n    tag_309:\n        /* \"#utility.yul\":3581:3605   */\n      tag_398\n        /* \"#utility.yul\":3599:3604   */\n      dup2\n        /* \"#utility.yul\":3581:3605   */\n      tag_304\n      jump\t// in\n    tag_398:\n        /* \"#utility.yul\":3576:3579   */\n      dup3\n        /* \"#utility.yul\":3569:3606   */\n      mstore\n        /* \"#utility.yul\":3494:3612   */\n      pop\n      pop\n      jump\t// out\n        /* \"#utility.yul\":3618:3840   */\n    tag_38:\n        /* \"#utility.yul\":3711:3715   */\n      0x00\n        /* \"#utility.yul\":3749:3751   */\n      0x20\n        /* \"#utility.yul\":3738:3747   */\n      dup3\n        /* \"#utility.yul\":3734:3752   */\n      add\n        /* \"#utility.yul\":3726:3752   */\n      swap1\n      pop\n        /* \"#utility.yul\":3762:3833   */\n      tag_400\n        /* \"#utility.yul\":3830:3831   */\n      0x00\n        /* \"#utility.yul\":3819:3828   */\n      dup4\n        /* \"#utility.yul\":3815:3832   */\n      add\n        /* \"#utility.yul\":3806:3812   */\n      dup5\n        /* \"#utility.yul\":3762:3833   */\n      tag_309\n      jump\t// in\n    tag_400:\n        /* \"#utility.yul\":3618:3840   */\n      swap3\n      swap2\n      pop\n      pop\n      jump\t// out\n        /* \"#utility.yul\":3846:4465   */\n    tag_41:\n        /* \"#utility.yul\":3923:3929   */\n      0x00\n        /* \"#utility.yul\":3931:3937   */\n      dup1\n        /* \"#utility.yul\":3939:3945   */\n      0x00\n        /* \"#utility.yul\":3988:3990   */\n      0x60\n        /* \"#utility.yul\":3976:3985   */\n      dup5\n        /* \"#utility.yul\":3967:3974   */\n      dup7\n        /* \"#utility.yul\":3963:3986   */\n      sub\n        /* \"#utility.yul\":3959:3991   */\n      slt\n        /* \"#utility.yul\":3956:4075   */\n      iszero\n      tag_402\n      jumpi\n        /* \"#utility.yul\":3994:4073   */\n      tag_403\n      tag_298\n      jump\t// in\n    tag_403:\n        /* \"#utility.yul\":3956:4075   */\n    tag_402:\n        /* \"#utility.yul\":4114:4115   */\n      0x00\n        /* \"#utility.yul\":4139:4192   */\n      tag_404\n        /* \"#utility.yul\":4184:4191   */\n      dup7\n        /* \"#utility.yul\":4175:4181   */\n      dup3\n        /* \"#utility.yul\":4164:4173   */\n      dup8\n        /* \"#utility.yul\":4160:4182   */\n      add\n        /* \"#utility.yul\":4139:4192   */\n      tag_303\n      jump\t// in\n    tag_404:\n        /* \"#utility.yul\":4129:4192   */\n      swap4\n      pop\n        /* \"#utility.yul\":4085:4202   */\n      pop\n        /* \"#utility.yul\":4241:4243   */\n      0x20\n        /* \"#utility.yul\":4267:4320   */\n      tag_405\n        /* \"#utility.yul\":4312:4319   */\n      dup7\n        /* \"#utility.yul\":4303:4309   */\n      dup3\n        /* \"#utility.yul\":4292:4301   */\n      dup8\n        /* \"#utility.yul\":4288:4310   */\n      add\n        /* \"#utility.yul\":4267:4320   */\n      tag_303\n      jump\t// in\n    tag_405:\n        /* \"#utility.yul\":4257:4320   */\n      swap3\n      pop\n        /* \"#utility.yul\":4212:4330   */\n      pop\n        /* \"#utility.yul\":4369:4371   */\n      0x40\n        /* \"#utility.yul\":4395:4448   */\n      tag_406\n        /* \"#utility.yul\":4440:4447   */\n      dup7\n        /* \"#utility.yul\":4431:4437   */\n      dup3\n        /* \"#utility.yul\":4420:4429   */\n      dup8\n        /* \"#utility.yul\":4416:4438   */\n      add\n        /* \"#utility.yul\":4395:4448   */\n      tag_306\n      jump\t// in\n    tag_406:\n        /* \"#utility.yul\":4385:4448   */\n      swap2\n      pop\n        /* \"#utility.yul\":4340:4458   */\n      pop\n        /* \"#utility.yul\":3846:4465   */\n      swap3\n      pop\n      swap3\n      pop\n      swap3\n      jump\t// out\n        /* \"#utility.yul\":4471:5090   */\n    tag_46:\n        /* \"#utility.yul\":4548:4554   */\n      0x00\n        /* \"#utility.yul\":4556:4562   */\n      dup1\n        /* \"#utility.yul\":4564:4570   */\n      0x00\n        /* \"#utility.yul\":4613:4615   */\n      0x60\n        /* \"#utility.yul\":4601:4610   */\n      dup5\n        /* \"#utility.yul\":4592:4599   */\n      dup7\n        /* \"#utility.yul\":4588:4611   */\n      sub\n        /* \"#utility.yul\":4584:4616   */\n      slt\n        /* \"#utility.yul\":4581:4700   */\n      iszero\n      tag_408\n      jumpi\n        /* \"#utility.yul\":4619:4698   */\n      tag_409\n      tag_298\n      jump\t// in\n    tag_409:\n        /* \"#utility.yul\":4581:4700   */\n    tag_408:\n        /* \"#utility.yul\":4739:4740   */\n      0x00\n        /* \"#utility.yul\":4764:4817   */\n      tag_410\n        /* \"#utility.yul\":4809:4816   */\n      dup7\n        /* \"#utility.yul\":4800:4806   */\n      dup3\n        /* \"#utility.yul\":4789:4798   */\n      dup8\n        /* \"#utility.yul\":4785:4807   */\n      add\n        /* \"#utility.yul\":4764:4817   */\n      tag_306\n      jump\t// in\n    tag_410:\n        /* \"#utility.yul\":4754:4817   */\n      swap4\n      pop\n        /* \"#utility.yul\":4710:4827   */\n      pop\n        /* \"#utility.yul\":4866:4868   */\n      0x20\n        /* \"#utility.yul\":4892:4945   */\n      tag_411\n        /* \"#utility.yul\":4937:4944   */\n      dup7\n        /* \"#utility.yul\":4928:4934   */\n      dup3\n        /* \"#utility.yul\":4917:4926   */\n      dup8\n        /* \"#utility.yul\":4913:4935   */\n      add\n        /* \"#utility.yul\":4892:4945   */\n      tag_306\n      jump\t// in\n    tag_411:\n        /* \"#utility.yul\":4882:4945   */\n      swap3\n      pop\n        /* \"#utility.yul\":4837:4955   */\n      pop\n        /* \"#utility.yul\":4994:4996   */\n      0x40\n        /* \"#utility.yul\":5020:5073   */\n      tag_412\n        /* \"#utility.yul\":5065:5072   */\n      dup7\n        /* \"#utility.yul\":5056:5062   */\n      dup3\n        /* \"#utility.yul\":5045:5054   */\n      dup8\n        /* \"#utility.yul\":5041:5063   */\n      add\n        /* \"#utility.yul\":5020:5073   */\n      tag_306\n      jump\t// in\n    tag_412:\n        /* \"#utility.yul\":5010:5073   */\n      swap2\n      pop\n        /* \"#utility.yul\":4965:5083   */\n      pop\n        /* \"#utility.yul\":4471:5090   */\n      swap3\n      pop\n      swap3\n      pop\n      swap3\n      jump\t// out\n        /* \"#utility.yul\":5096:5182   */\n    tag_310:\n        /* \"#utility.yul\":5131:5138   */\n      0x00\n        /* \"#utility.yul\":5171:5175   */\n      0xff\n        /* \"#utility.yul\":5164:5169   */\n      dup3\n        /* \"#utility.yul\":5160:5176   */\n      and\n        /* \"#utility.yul\":5149:5176   */\n      swap1\n      pop\n        /* \"#utility.yul\":5096:5182   */\n      swap2\n      swap1\n      pop\n      jump\t// out\n        /* \"#utility.yul\":5188:5300   */\n    tag_311:\n        /* \"#utility.yul\":5271:5293   */\n      tag_415\n        /* \"#utility.yul\":5287:5292   */\n      dup2\n        /* \"#utility.yul\":5271:5293   */\n      tag_310\n      jump\t// in\n    tag_415:\n        /* \"#utility.yul\":5266:5269   */\n      dup3\n        /* \"#utility.yul\":5259:5294   */\n      mstore\n        /* \"#utility.yul\":5188:5300   */\n      pop\n      pop\n      jump\t// out\n        /* \"#utility.yul\":5306:5520   */\n    tag_51:\n        /* \"#utility.yul\":5395:5399   */\n      0x00\n        /* \"#utility.yul\":5433:5435   */\n      0x20\n        /* \"#utility.yul\":5422:5431   */\n      dup3\n        /* \"#utility.yul\":5418:5436   */\n      add\n        /* \"#utility.yul\":5410:5436   */\n      swap1\n      pop\n        /* \"#utility.yul\":5446:5513   */\n      tag_417\n        /* \"#utility.yul\":5510:5511   */\n      0x00\n        /* \"#utility.yul\":5499:5508   */\n      dup4\n        /* \"#utility.yul\":5495:5512   */\n      add\n        /* \"#utility.yul\":5486:5492   */\n      dup5\n        /* \"#utility.yul\":5446:5513   */\n      tag_311\n      jump\t// in\n    tag_417:\n        /* \"#utility.yul\":5306:5520   */\n      swap3\n      swap2\n      pop\n      pop\n      jump\t// out\n        /* \"#utility.yul\":5526:5855   */\n    tag_58:\n        /* \"#utility.yul\":5585:5591   */\n      0x00\n        /* \"#utility.yul\":5634:5636   */\n      0x20\n        /* \"#utility.yul\":5622:5631   */\n      dup3\n        /* \"#utility.yul\":5613:5620   */\n      dup5\n        /* \"#utility.yul\":5609:5632   */\n      sub\n        /* \"#utility.yul\":5605:5637   */\n      slt\n        /* \"#utility.yul\":5602:5721   */\n      iszero\n      tag_419\n      jumpi\n        /* \"#utility.yul\":5640:5719   */\n      tag_420\n      tag_298\n      jump\t// in\n    tag_420:\n        /* \"#utility.yul\":5602:5721   */\n    tag_419:\n        /* \"#utility.yul\":5760:5761   */\n      0x00\n        /* \"#utility.yul\":5785:5838   */\n      tag_421\n        /* \"#utility.yul\":5830:5837   */\n      dup5\n        /* \"#utility.yul\":5821:5827   */\n      dup3\n        /* \"#utility.yul\":5810:5819   */\n      dup6\n        /* \"#utility.yul\":5806:5828   */\n      add\n        /* \"#utility.yul\":5785:5838   */\n      tag_303\n      jump\t// in\n    tag_421:\n        /* \"#utility.yul\":5775:5838   */\n      swap2\n      pop\n        /* \"#utility.yul\":5731:5848   */\n      pop\n        /* \"#utility.yul\":5526:5855   */\n      swap3\n      swap2\n      pop\n      pop\n      jump\t// out\n        /* \"#utility.yul\":5861:5979   */\n    tag_312:\n        /* \"#utility.yul\":5948:5972   */\n      tag_423\n        /* \"#utility.yul\":5966:5971   */\n      dup2\n        /* \"#utility.yul\":5948:5972   */\n      tag_301\n      jump\t// in\n    tag_423:\n        /* \"#utility.yul\":5943:5946   */\n      dup3\n        /* \"#utility.yul\":5936:5973   */\n      mstore\n        /* \"#utility.yul\":5861:5979   */\n      pop\n      pop\n      jump\t// out\n        /* \"#utility.yul\":5985:6207   */\n    tag_66:\n        /* \"#utility.yul\":6078:6082   */\n      0x00\n        /* \"#utility.yul\":6116:6118   */\n      0x20\n        /* \"#utility.yul\":6105:6114   */\n      dup3\n        /* \"#utility.yul\":6101:6119   */\n      add\n        /* \"#utility.yul\":6093:6119   */\n      swap1\n      pop\n        /* \"#utility.yul\":6129:6200   */\n      tag_425\n        /* \"#utility.yul\":6197:6198   */\n      0x00\n        /* \"#utility.yul\":6186:6195   */\n      dup4\n        /* \"#utility.yul\":6182:6199   */\n      add\n        /* \"#utility.yul\":6173:6179   */\n      dup5\n        /* \"#utility.yul\":6129:6200   */\n      tag_312\n      jump\t// in\n    tag_425:\n        /* \"#utility.yul\":5985:6207   */\n      swap3\n      swap2\n      pop\n      pop\n      jump\t// out\n        /* \"#utility.yul\":6213:6542   */\n    tag_83:\n        /* \"#utility.yul\":6272:6278   */\n      0x00\n        /* \"#utility.yul\":6321:6323   */\n      0x20\n        /* \"#utility.yul\":6309:6318   */\n      dup3\n        /* \"#utility.yul\":6300:6307   */\n      dup5\n        /* \"#utility.yul\":6296:6319   */\n      sub\n        /* \"#utility.yul\":6292:6324   */\n      slt\n        /* \"#utility.yul\":6289:6408   */\n      iszero\n      tag_427\n      jumpi\n        /* \"#utility.yul\":6327:6406   */\n      tag_428\n      tag_298\n      jump\t// in\n    tag_428:\n        /* \"#utility.yul\":6289:6408   */\n    tag_427:\n        /* \"#utility.yul\":6447:6448   */\n      0x00\n        /* \"#utility.yul\":6472:6525   */\n      tag_429\n        /* \"#utility.yul\":6517:6524   */\n      dup5\n        /* \"#utility.yul\":6508:6514   */\n      dup3\n        /* \"#utility.yul\":6497:6506   */\n      dup6\n        /* \"#utility.yul\":6493:6515   */\n      add\n        /* \"#utility.yul\":6472:6525   */\n      tag_306\n      jump\t// in\n    tag_429:\n        /* \"#utility.yul\":6462:6525   */\n      swap2\n      pop\n        /* \"#utility.yul\":6418:6535   */\n      pop\n        /* \"#utility.yul\":6213:6542   */\n      swap3\n      swap2\n      pop\n      pop\n      jump\t// out\n        /* \"#utility.yul\":6548:7022   */\n    tag_91:\n        /* \"#utility.yul\":6616:6622   */\n      0x00\n        /* \"#utility.yul\":6624:6630   */\n      dup1\n        /* \"#utility.yul\":6673:6675   */\n      0x40\n        /* \"#utility.yul\":6661:6670   */\n      dup4\n        /* \"#utility.yul\":6652:6659   */\n      dup6\n        /* \"#utility.yul\":6648:6671   */\n      sub\n        /* \"#utility.yul\":6644:6676   */\n      slt\n        /* \"#utility.yul\":6641:6760   */\n      iszero\n      tag_431\n      jumpi\n        /* \"#utility.yul\":6679:6758   */\n      tag_432\n      tag_298\n      jump\t// in\n    tag_432:\n        /* \"#utility.yul\":6641:6760   */\n    tag_431:\n        /* \"#utility.yul\":6799:6800   */\n      0x00\n        /* \"#utility.yul\":6824:6877   */\n      tag_433\n        /* \"#utility.yul\":6869:6876   */\n      dup6\n        /* \"#utility.yul\":6860:6866   */\n      dup3\n        /* \"#utility.yul\":6849:6858   */\n      dup7\n        /* \"#utility.yul\":6845:6867   */\n      add\n        /* \"#utility.yul\":6824:6877   */\n      tag_303\n      jump\t// in\n    tag_433:\n        /* \"#utility.yul\":6814:6877   */\n      swap3\n      pop\n        /* \"#utility.yul\":6770:6887   */\n      pop\n        /* \"#utility.yul\":6926:6928   */\n      0x20\n        /* \"#utility.yul\":6952:7005   */\n      tag_434\n        /* \"#utility.yul\":6997:7004   */\n      dup6\n        /* \"#utility.yul\":6988:6994   */\n      dup3\n        /* \"#utility.yul\":6977:6986   */\n      dup7\n        /* \"#utility.yul\":6973:6995   */\n      add\n        /* \"#utility.yul\":6952:7005   */\n      tag_303\n      jump\t// in\n    tag_434:\n        /* \"#utility.yul\":6942:7005   */\n      swap2\n      pop\n        /* \"#utility.yul\":6897:7015   */\n      pop\n        /* \"#utility.yul\":6548:7022   */\n      swap3\n      pop\n      swap3\n      swap1\n      pop\n      jump\t// out\n        /* \"#utility.yul\":7028:7136   */\n    tag_313:\n        /* \"#utility.yul\":7105:7129   */\n      tag_436\n        /* \"#utility.yul\":7123:7128   */\n      dup2\n        /* \"#utility.yul\":7105:7129   */\n      tag_304\n      jump\t// in\n    tag_436:\n        /* \"#utility.yul\":7100:7103   */\n      dup3\n        /* \"#utility.yul\":7093:7130   */\n      mstore\n        /* \"#utility.yul\":7028:7136   */\n      pop\n      pop\n      jump\t// out\n        /* \"#utility.yul\":7142:7278   */\n    tag_314:\n        /* \"#utility.yul\":7231:7237   */\n      0x00\n        /* \"#utility.yul\":7265:7270   */\n      dup2\n        /* \"#utility.yul\":7259:7271   */\n      mload\n        /* \"#utility.yul\":7249:7271   */\n      swap1\n      pop\n        /* \"#utility.yul\":7142:7278   */\n      swap2\n      swap1\n      pop\n      jump\t// out\n        /* \"#utility.yul\":7284:7480   */\n    tag_315:\n        /* \"#utility.yul\":7395:7406   */\n      0x00\n        /* \"#utility.yul\":7429:7435   */\n      dup3\n        /* \"#utility.yul\":7424:7427   */\n      dup3\n        /* \"#utility.yul\":7417:7436   */\n      mstore\n        /* \"#utility.yul\":7469:7473   */\n      0x20\n        /* \"#utility.yul\":7464:7467   */\n      dup3\n        /* \"#utility.yul\":7460:7474   */\n      add\n        /* \"#utility.yul\":7445:7474   */\n      swap1\n      pop\n        /* \"#utility.yul\":7284:7480   */\n      swap3\n      swap2\n      pop\n      pop\n      jump\t// out\n        /* \"#utility.yul\":7486:7640   */\n    tag_316:\n        /* \"#utility.yul\":7575:7579   */\n      0x00\n        /* \"#utility.yul\":7598:7601   */\n      dup2\n        /* \"#utility.yul\":7590:7601   */\n      swap1\n      pop\n        /* \"#utility.yul\":7628:7632   */\n      0x20\n        /* \"#utility.yul\":7623:7626   */\n      dup3\n        /* \"#utility.yul\":7619:7633   */\n      add\n        /* \"#utility.yul\":7611:7633   */\n      swap1\n      pop\n        /* \"#utility.yul\":7486:7640   */\n      swap2\n      swap1\n      pop\n      jump\t// out\n        /* \"#utility.yul\":7646:7754   */\n    tag_317:\n        /* \"#utility.yul\":7723:7747   */\n      tag_441\n        /* \"#utility.yul\":7741:7746   */\n      dup2\n        /* \"#utility.yul\":7723:7747   */\n      tag_301\n      jump\t// in\n    tag_441:\n        /* \"#utility.yul\":7718:7721   */\n      dup3\n        /* \"#utility.yul\":7711:7748   */\n      mstore\n        /* \"#utility.yul\":7646:7754   */\n      pop\n      pop\n      jump\t// out\n        /* \"#utility.yul\":7816:8663   */\n    tag_318:\n        /* \"#utility.yul\":7947:7951   */\n      0x80\n        /* \"#utility.yul\":7942:7945   */\n      dup3\n        /* \"#utility.yul\":7938:7952   */\n      add\n        /* \"#utility.yul\":8034:8038   */\n      0x00\n        /* \"#utility.yul\":8027:8032   */\n      dup3\n        /* \"#utility.yul\":8023:8039   */\n      add\n        /* \"#utility.yul\":8017:8040   */\n      mload\n        /* \"#utility.yul\":8053:8116   */\n      tag_443\n        /* \"#utility.yul\":8110:8114   */\n      0x00\n        /* \"#utility.yul\":8105:8108   */\n      dup6\n        /* \"#utility.yul\":8101:8115   */\n      add\n        /* \"#utility.yul\":8087:8099   */\n      dup3\n        /* \"#utility.yul\":8053:8116   */\n      tag_317\n      jump\t// in\n    tag_443:\n        /* \"#utility.yul\":7962:8126   */\n      pop\n        /* \"#utility.yul\":8210:8214   */\n      0x20\n        /* \"#utility.yul\":8203:8208   */\n      dup3\n        /* \"#utility.yul\":8199:8215   */\n      add\n        /* \"#utility.yul\":8193:8216   */\n      mload\n        /* \"#utility.yul\":8229:8292   */\n      tag_444\n        /* \"#utility.yul\":8286:8290   */\n      0x20\n        /* \"#utility.yul\":8281:8284   */\n      dup6\n        /* \"#utility.yul\":8277:8291   */\n      add\n        /* \"#utility.yul\":8263:8275   */\n      dup3\n        /* \"#utility.yul\":8229:8292   */\n      tag_313\n      jump\t// in\n    tag_444:\n        /* \"#utility.yul\":8136:8302   */\n      pop\n        /* \"#utility.yul\":8385:8389   */\n      0x40\n        /* \"#utility.yul\":8378:8383   */\n      dup3\n        /* \"#utility.yul\":8374:8390   */\n      add\n        /* \"#utility.yul\":8368:8391   */\n      mload\n        /* \"#utility.yul\":8404:8467   */\n      tag_445\n        /* \"#utility.yul\":8461:8465   */\n      0x40\n        /* \"#utility.yul\":8456:8459   */\n      dup6\n        /* \"#utility.yul\":8452:8466   */\n      add\n        /* \"#utility.yul\":8438:8450   */\n      dup3\n        /* \"#utility.yul\":8404:8467   */\n      tag_313\n      jump\t// in\n    tag_445:\n        /* \"#utility.yul\":8312:8477   */\n      pop\n        /* \"#utility.yul\":8564:8568   */\n      0x60\n        /* \"#utility.yul\":8557:8562   */\n      dup3\n        /* \"#utility.yul\":8553:8569   */\n      add\n        /* \"#utility.yul\":8547:8570   */\n      mload\n        /* \"#utility.yul\":8583:8646   */\n      tag_446\n        /* \"#utility.yul\":8640:8644   */\n      0x60\n        /* \"#utility.yul\":8635:8638   */\n      dup6\n        /* \"#utility.yul\":8631:8645   */\n      add\n        /* \"#utility.yul\":8617:8629   */\n      dup3\n        /* \"#utility.yul\":8583:8646   */\n      tag_313\n      jump\t// in\n    tag_446:\n        /* \"#utility.yul\":8487:8656   */\n      pop\n        /* \"#utility.yul\":7916:8663   */\n      pop\n        /* \"#utility.yul\":7816:8663   */\n      pop\n      pop\n      jump\t// out\n        /* \"#utility.yul\":8669:8936   */\n    tag_319:\n        /* \"#utility.yul\":8782:8792   */\n      0x00\n        /* \"#utility.yul\":8803:8893   */\n      tag_448\n        /* \"#utility.yul\":8889:8892   */\n      dup4\n        /* \"#utility.yul\":8881:8887   */\n      dup4\n        /* \"#utility.yul\":8803:8893   */\n      tag_318\n      jump\t// in\n    tag_448:\n        /* \"#utility.yul\":8925:8929   */\n      0x80\n        /* \"#utility.yul\":8920:8923   */\n      dup4\n        /* \"#utility.yul\":8916:8930   */\n      add\n        /* \"#utility.yul\":8902:8930   */\n      swap1\n      pop\n        /* \"#utility.yul\":8669:8936   */\n      swap3\n      swap2\n      pop\n      pop\n      jump\t// out\n        /* \"#utility.yul\":8942:9077   */\n    tag_320:\n        /* \"#utility.yul\":9034:9038   */\n      0x00\n        /* \"#utility.yul\":9066:9070   */\n      0x20\n        /* \"#utility.yul\":9061:9064   */\n      dup3\n        /* \"#utility.yul\":9057:9071   */\n      add\n        /* \"#utility.yul\":9049:9071   */\n      swap1\n      pop\n        /* \"#utility.yul\":8942:9077   */\n      swap2\n      swap1\n      pop\n      jump\t// out\n        /* \"#utility.yul\":9143:10031   */\n    tag_321:\n        /* \"#utility.yul\":9296:9299   */\n      0x00\n        /* \"#utility.yul\":9325:9401   */\n      tag_451\n        /* \"#utility.yul\":9395:9400   */\n      dup3\n        /* \"#utility.yul\":9325:9401   */\n      tag_314\n      jump\t// in\n    tag_451:\n        /* \"#utility.yul\":9417:9515   */\n      tag_452\n        /* \"#utility.yul\":9508:9514   */\n      dup2\n        /* \"#utility.yul\":9503:9506   */\n      dup6\n        /* \"#utility.yul\":9417:9515   */\n      tag_315\n      jump\t// in\n    tag_452:\n        /* \"#utility.yul\":9410:9515   */\n      swap4\n      pop\n        /* \"#utility.yul\":9539:9617   */\n      tag_453\n        /* \"#utility.yul\":9611:9616   */\n      dup4\n        /* \"#utility.yul\":9539:9617   */\n      tag_316\n      jump\t// in\n    tag_453:\n        /* \"#utility.yul\":9640:9647   */\n      dup1\n        /* \"#utility.yul\":9671:9672   */\n      0x00\n        /* \"#utility.yul\":9656:10006   */\n    tag_454:\n        /* \"#utility.yul\":9681:9687   */\n      dup4\n        /* \"#utility.yul\":9678:9679   */\n      dup2\n        /* \"#utility.yul\":9675:9688   */\n      lt\n        /* \"#utility.yul\":9656:10006   */\n      iszero\n      tag_456\n      jumpi\n        /* \"#utility.yul\":9757:9763   */\n      dup2\n        /* \"#utility.yul\":9751:9764   */\n      mload\n        /* \"#utility.yul\":9784:9891   */\n      tag_457\n        /* \"#utility.yul\":9887:9890   */\n      dup9\n        /* \"#utility.yul\":9872:9885   */\n      dup3\n        /* \"#utility.yul\":9784:9891   */\n      tag_319\n      jump\t// in\n    tag_457:\n        /* \"#utility.yul\":9777:9891   */\n      swap8\n      pop\n        /* \"#utility.yul\":9914:9996   */\n      tag_458\n        /* \"#utility.yul\":9989:9995   */\n      dup4\n        /* \"#utility.yul\":9914:9996   */\n      tag_320\n      jump\t// in\n    tag_458:\n        /* \"#utility.yul\":9904:9996   */\n      swap3\n      pop\n        /* \"#utility.yul\":9716:10006   */\n      pop\n        /* \"#utility.yul\":9703:9704   */\n      0x01\n        /* \"#utility.yul\":9700:9701   */\n      dup2\n        /* \"#utility.yul\":9696:9705   */\n      add\n        /* \"#utility.yul\":9691:9705   */\n      swap1\n      pop\n        /* \"#utility.yul\":9656:10006   */\n      jump(tag_454)\n    tag_456:\n        /* \"#utility.yul\":9660:9674   */\n      pop\n        /* \"#utility.yul\":10022:10025   */\n      dup6\n        /* \"#utility.yul\":10015:10025   */\n      swap4\n      pop\n        /* \"#utility.yul\":9301:10031   */\n      pop\n      pop\n      pop\n        /* \"#utility.yul\":9143:10031   */\n      swap3\n      swap2\n      pop\n      pop\n      jump\t// out\n        /* \"#utility.yul\":10111:10813   */\n    tag_322:\n        /* \"#utility.yul\":10242:10245   */\n      0x00\n        /* \"#utility.yul\":10278:10282   */\n      0x40\n        /* \"#utility.yul\":10273:10276   */\n      dup4\n        /* \"#utility.yul\":10269:10283   */\n      add\n        /* \"#utility.yul\":10373:10377   */\n      0x00\n        /* \"#utility.yul\":10366:10371   */\n      dup4\n        /* \"#utility.yul\":10362:10378   */\n      add\n        /* \"#utility.yul\":10356:10379   */\n      mload\n        /* \"#utility.yul\":10392:10455   */\n      tag_460\n        /* \"#utility.yul\":10449:10453   */\n      0x00\n        /* \"#utility.yul\":10444:10447   */\n      dup7\n        /* \"#utility.yul\":10440:10454   */\n      add\n        /* \"#utility.yul\":10426:10438   */\n      dup3\n        /* \"#utility.yul\":10392:10455   */\n      tag_313\n      jump\t// in\n    tag_460:\n        /* \"#utility.yul\":10293:10465   */\n      pop\n        /* \"#utility.yul\":10549:10553   */\n      0x20\n        /* \"#utility.yul\":10542:10547   */\n      dup4\n        /* \"#utility.yul\":10538:10554   */\n      add\n        /* \"#utility.yul\":10532:10555   */\n      mload\n        /* \"#utility.yul\":10602:10605   */\n      dup5\n        /* \"#utility.yul\":10596:10600   */\n      dup3\n        /* \"#utility.yul\":10592:10606   */\n      sub\n        /* \"#utility.yul\":10585:10589   */\n      0x20\n        /* \"#utility.yul\":10580:10583   */\n      dup7\n        /* \"#utility.yul\":10576:10590   */\n      add\n        /* \"#utility.yul\":10569:10607   */\n      mstore\n        /* \"#utility.yul\":10628:10775   */\n      tag_461\n        /* \"#utility.yul\":10770:10774   */\n      dup3\n        /* \"#utility.yul\":10756:10768   */\n      dup3\n        /* \"#utility.yul\":10628:10775   */\n      tag_321\n      jump\t// in\n    tag_461:\n        /* \"#utility.yul\":10620:10775   */\n      swap2\n      pop\n        /* \"#utility.yul\":10475:10786   */\n      pop\n        /* \"#utility.yul\":10803:10807   */\n      dup1\n        /* \"#utility.yul\":10796:10807   */\n      swap2\n      pop\n        /* \"#utility.yul\":10247:10813   */\n      pop\n        /* \"#utility.yul\":10111:10813   */\n      swap3\n      swap2\n      pop\n      pop\n      jump\t// out\n        /* \"#utility.yul\":10819:11216   */\n    tag_98:\n        /* \"#utility.yul\":10974:10978   */\n      0x00\n        /* \"#utility.yul\":11012:11014   */\n      0x20\n        /* \"#utility.yul\":11001:11010   */\n      dup3\n        /* \"#utility.yul\":10997:11015   */\n      add\n        /* \"#utility.yul\":10989:11015   */\n      swap1\n      pop\n        /* \"#utility.yul\":11061:11070   */\n      dup2\n        /* \"#utility.yul\":11055:11059   */\n      dup2\n        /* \"#utility.yul\":11051:11071   */\n      sub\n        /* \"#utility.yul\":11047:11048   */\n      0x00\n        /* \"#utility.yul\":11036:11045   */\n      dup4\n        /* \"#utility.yul\":11032:11049   */\n      add\n        /* \"#utility.yul\":11025:11072   */\n      mstore\n        /* \"#utility.yul\":11089:11209   */\n      tag_463\n        /* \"#utility.yul\":11204:11208   */\n      dup2\n        /* \"#utility.yul\":11195:11201   */\n      dup5\n        /* \"#utility.yul\":11089:11209   */\n      tag_322\n      jump\t// in\n    tag_463:\n        /* \"#utility.yul\":11081:11209   */\n      swap1\n      pop\n        /* \"#utility.yul\":10819:11216   */\n      swap3\n      swap2\n      pop\n      pop\n      jump\t// out\n        /* \"#utility.yul\":11222:11458   */\n    tag_323:\n        /* \"#utility.yul\":11362:11396   */\n      0x4d657472613a20596f752063616e6e6f74207370656e642074686174206d7563\n        /* \"#utility.yul\":11358:11359   */\n      0x00\n        /* \"#utility.yul\":11350:11356   */\n      dup3\n        /* \"#utility.yul\":11346:11360   */\n      add\n        /* \"#utility.yul\":11339:11397   */\n      mstore\n        /* \"#utility.yul\":11431:11450   */\n      0x68206f6e2074686973206163636f756e74000000000000000000000000000000\n        /* \"#utility.yul\":11426:11428   */\n      0x20\n        /* \"#utility.yul\":11418:11424   */\n      dup3\n        /* \"#utility.yul\":11414:11429   */\n      add\n        /* \"#utility.yul\":11407:11451   */\n      mstore\n        /* \"#utility.yul\":11222:11458   */\n      pop\n      jump\t// out\n        /* \"#utility.yul\":11464:11830   */\n    tag_324:\n        /* \"#utility.yul\":11606:11609   */\n      0x00\n        /* \"#utility.yul\":11627:11694   */\n      tag_466\n        /* \"#utility.yul\":11691:11693   */\n      0x31\n        /* \"#utility.yul\":11686:11689   */\n      dup4\n        /* \"#utility.yul\":11627:11694   */\n      tag_293\n      jump\t// in\n    tag_466:\n        /* \"#utility.yul\":11620:11694   */\n      swap2\n      pop\n        /* \"#utility.yul\":11703:11796   */\n      tag_467\n        /* \"#utility.yul\":11792:11795   */\n      dup3\n        /* \"#utility.yul\":11703:11796   */\n      tag_323\n      jump\t// in\n    tag_467:\n        /* \"#utility.yul\":11821:11823   */\n      0x40\n        /* \"#utility.yul\":11816:11819   */\n      dup3\n        /* \"#utility.yul\":11812:11824   */\n      add\n        /* \"#utility.yul\":11805:11824   */\n      swap1\n      pop\n        /* \"#utility.yul\":11464:11830   */\n      swap2\n      swap1\n      pop\n      jump\t// out\n        /* \"#utility.yul\":11836:12255   */\n    tag_110:\n        /* \"#utility.yul\":12002:12006   */\n      0x00\n        /* \"#utility.yul\":12040:12042   */\n      0x20\n        /* \"#utility.yul\":12029:12038   */\n      dup3\n        /* \"#utility.yul\":12025:12043   */\n      add\n        /* \"#utility.yul\":12017:12043   */\n      swap1\n      pop\n        /* \"#utility.yul\":12089:12098   */\n      dup2\n        /* \"#utility.yul\":12083:12087   */\n      dup2\n        /* \"#utility.yul\":12079:12099   */\n      sub\n        /* \"#utility.yul\":12075:12076   */\n      0x00\n        /* \"#utility.yul\":12064:12073   */\n      dup4\n        /* \"#utility.yul\":12060:12077   */\n      add\n        /* \"#utility.yul\":12053:12100   */\n      mstore\n        /* \"#utility.yul\":12117:12248   */\n      tag_469\n        /* \"#utility.yul\":12243:12247   */\n      dup2\n        /* \"#utility.yul\":12117:12248   */\n      tag_324\n      jump\t// in\n    tag_469:\n        /* \"#utility.yul\":12109:12248   */\n      swap1\n      pop\n        /* \"#utility.yul\":11836:12255   */\n      swap2\n      swap1\n      pop\n      jump\t// out\n        /* \"#utility.yul\":12261:12441   */\n    tag_325:\n        /* \"#utility.yul\":12309:12386   */\n      0x4e487b7100000000000000000000000000000000000000000000000000000000\n        /* \"#utility.yul\":12306:12307   */\n      0x00\n        /* \"#utility.yul\":12299:12387   */\n      mstore\n        /* \"#utility.yul\":12406:12410   */\n      0x11\n        /* \"#utility.yul\":12403:12404   */\n      0x04\n        /* \"#utility.yul\":12396:12411   */\n      mstore\n        /* \"#utility.yul\":12430:12434   */\n      0x24\n        /* \"#utility.yul\":12427:12428   */\n      0x00\n        /* \"#utility.yul\":12420:12435   */\n      revert\n        /* \"#utility.yul\":12447:12638   */\n    tag_115:\n        /* \"#utility.yul\":12487:12491   */\n      0x00\n        /* \"#utility.yul\":12507:12527   */\n      tag_472\n        /* \"#utility.yul\":12525:12526   */\n      dup3\n        /* \"#utility.yul\":12507:12527   */\n      tag_304\n      jump\t// in\n    tag_472:\n        /* \"#utility.yul\":12502:12527   */\n      swap2\n      pop\n        /* \"#utility.yul\":12541:12561   */\n      tag_473\n        /* \"#utility.yul\":12559:12560   */\n      dup4\n        /* \"#utility.yul\":12541:12561   */\n      tag_304\n      jump\t// in\n    tag_473:\n        /* \"#utility.yul\":12536:12561   */\n      swap3\n      pop\n        /* \"#utility.yul\":12580:12581   */\n      dup3\n        /* \"#utility.yul\":12577:12578   */\n      dup3\n        /* \"#utility.yul\":12574:12582   */\n      lt\n        /* \"#utility.yul\":12571:12605   */\n      iszero\n      tag_474\n      jumpi\n        /* \"#utility.yul\":12585:12603   */\n      tag_475\n      tag_325\n      jump\t// in\n    tag_475:\n        /* \"#utility.yul\":12571:12605   */\n    tag_474:\n        /* \"#utility.yul\":12630:12631   */\n      dup3\n        /* \"#utility.yul\":12627:12628   */\n      dup3\n        /* \"#utility.yul\":12623:12632   */\n      sub\n        /* \"#utility.yul\":12615:12632   */\n      swap1\n      pop\n        /* \"#utility.yul\":12447:12638   */\n      swap3\n      swap2\n      pop\n      pop\n      jump\t// out\n        /* \"#utility.yul\":12644:12949   */\n    tag_119:\n        /* \"#utility.yul\":12684:12687   */\n      0x00\n        /* \"#utility.yul\":12703:12723   */\n      tag_477\n        /* \"#utility.yul\":12721:12722   */\n      dup3\n        /* \"#utility.yul\":12703:12723   */\n      tag_304\n      jump\t// in\n    tag_477:\n        /* \"#utility.yul\":12698:12723   */\n      swap2\n      pop\n        /* \"#utility.yul\":12737:12757   */\n      tag_478\n        /* \"#utility.yul\":12755:12756   */\n      dup4\n        /* \"#utility.yul\":12737:12757   */\n      tag_304\n      jump\t// in\n    tag_478:\n        /* \"#utility.yul\":12732:12757   */\n      swap3\n      pop\n        /* \"#utility.yul\":12891:12892   */\n      dup3\n        /* \"#utility.yul\":12823:12889   */\n      0xffffffffffffffffffffffffffffffffffffffffffffffffffffffffffffffff\n        /* \"#utility.yul\":12819:12893   */\n      sub\n        /* \"#utility.yul\":12816:12817   */\n      dup3\n        /* \"#utility.yul\":12813:12894   */\n      gt\n        /* \"#utility.yul\":12810:12917   */\n      iszero\n      tag_479\n      jumpi\n        /* \"#utility.yul\":12897:12915   */\n      tag_480\n      tag_325\n      jump\t// in\n    tag_480:\n        /* \"#utility.yul\":12810:12917   */\n    tag_479:\n        /* \"#utility.yul\":12941:12942   */\n      dup3\n        /* \"#utility.yul\":12938:12939   */\n      dup3\n        /* \"#utility.yul\":12934:12943   */\n      add\n        /* \"#utility.yul\":12927:12943   */\n      swap1\n      pop\n        /* \"#utility.yul\":12644:12949   */\n      swap3\n      swap2\n      pop\n      pop\n      jump\t// out\n        /* \"#utility.yul\":12955:13184   */\n    tag_326:\n        /* \"#utility.yul\":13095:13129   */\n      0x4f776e61626c653a206f6e6c79206f776e65722063616e2063616c6c20746869\n        /* \"#utility.yul\":13091:13092   */\n      0x00\n        /* \"#utility.yul\":13083:13089   */\n      dup3\n        /* \"#utility.yul\":13079:13093   */\n      add\n        /* \"#utility.yul\":13072:13130   */\n      mstore\n        /* \"#utility.yul\":13164:13176   */\n      0x732066756e6374696f6e00000000000000000000000000000000000000000000\n        /* \"#utility.yul\":13159:13161   */\n      0x20\n        /* \"#utility.yul\":13151:13157   */\n      dup3\n        /* \"#utility.yul\":13147:13162   */\n      add\n        /* \"#utility.yul\":13140:13177   */\n      mstore\n        /* \"#utility.yul\":12955:13184   */\n      pop\n      jump\t// out\n        /* \"#utility.yul\":13190:13556   */\n    tag_327:\n        /* \"#utility.yul\":13332:13335   */\n      0x00\n        /* \"#utility.yul\":13353:13420   */\n      tag_483\n        /* \"#utility.yul\":13417:13419   */\n      0x2a\n        /* \"#utility.yul\":13412:13415   */\n      dup4\n        /* \"#utility.yul\":13353:13420   */\n      tag_293\n      jump\t// in\n    tag_483:\n        /* \"#utility.yul\":13346:13420   */\n      swap2\n      pop\n        /* \"#utility.yul\":13429:13522   */\n      tag_484\n        /* \"#utility.yul\":13518:13521   */\n      dup3\n        /* \"#utility.yul\":13429:13522   */\n      tag_326\n      jump\t// in\n    tag_484:\n        /* \"#utility.yul\":13547:13549   */\n      0x40\n        /* \"#utility.yul\":13542:13545   */\n      dup3\n        /* \"#utility.yul\":13538:13550   */\n      add\n        /* \"#utility.yul\":13531:13550   */\n      swap1\n      pop\n        /* \"#utility.yul\":13190:13556   */\n      swap2\n      swap1\n      pop\n      jump\t// out\n        /* \"#utility.yul\":13562:13981   */\n    tag_131:\n        /* \"#utility.yul\":13728:13732   */\n      0x00\n        /* \"#utility.yul\":13766:13768   */\n      0x20\n        /* \"#utility.yul\":13755:13764   */\n      dup3\n        /* \"#utility.yul\":13751:13769   */\n      add\n        /* \"#utility.yul\":13743:13769   */\n      swap1\n      pop\n        /* \"#utility.yul\":13815:13824   */\n      dup2\n        /* \"#utility.yul\":13809:13813   */\n      dup2\n        /* \"#utility.yul\":13805:13825   */\n      sub\n        /* \"#utility.yul\":13801:13802   */\n      0x00\n        /* \"#utility.yul\":13790:13799   */\n      dup4\n        /* \"#utility.yul\":13786:13803   */\n      add\n        /* \"#utility.yul\":13779:13826   */\n      mstore\n        /* \"#utility.yul\":13843:13974   */\n      tag_486\n        /* \"#utility.yul\":13969:13973   */\n      dup2\n        /* \"#utility.yul\":13843:13974   */\n      tag_327\n      jump\t// in\n    tag_486:\n        /* \"#utility.yul\":13835:13974   */\n      swap1\n      pop\n        /* \"#utility.yul\":13562:13981   */\n      swap2\n      swap1\n      pop\n      jump\t// out\n        /* \"#utility.yul\":13987:14167   */\n    tag_328:\n        /* \"#utility.yul\":14035:14112   */\n      0x4e487b7100000000000000000000000000000000000000000000000000000000\n        /* \"#utility.yul\":14032:14033   */\n      0x00\n        /* \"#utility.yul\":14025:14113   */\n      mstore\n        /* \"#utility.yul\":14132:14136   */\n      0x22\n        /* \"#utility.yul\":14129:14130   */\n      0x04\n        /* \"#utility.yul\":14122:14137   */\n      mstore\n        /* \"#utility.yul\":14156:14160   */\n      0x24\n        /* \"#utility.yul\":14153:14154   */\n      0x00\n        /* \"#utility.yul\":14146:14161   */\n      revert\n        /* \"#utility.yul\":14173:14493   */\n    tag_138:\n        /* \"#utility.yul\":14217:14223   */\n      0x00\n        /* \"#utility.yul\":14254:14255   */\n      0x02\n        /* \"#utility.yul\":14248:14252   */\n      dup3\n        /* \"#utility.yul\":14244:14256   */\n      div\n        /* \"#utility.yul\":14234:14256   */\n      swap1\n      pop\n        /* \"#utility.yul\":14301:14302   */\n      0x01\n        /* \"#utility.yul\":14295:14299   */\n      dup3\n        /* \"#utility.yul\":14291:14303   */\n      and\n        /* \"#utility.yul\":14322:14340   */\n      dup1\n        /* \"#utility.yul\":14312:14393   */\n      tag_489\n      jumpi\n        /* \"#utility.yul\":14378:14382   */\n      0x7f\n        /* \"#utility.yul\":14370:14376   */\n      dup3\n        /* \"#utility.yul\":14366:14383   */\n      and\n        /* \"#utility.yul\":14356:14383   */\n      swap2\n      pop\n        /* \"#utility.yul\":14312:14393   */\n    tag_489:\n        /* \"#utility.yul\":14440:14442   */\n      0x20\n        /* \"#utility.yul\":14432:14438   */\n      dup3\n        /* \"#utility.yul\":14429:14443   */\n      lt\n        /* \"#utility.yul\":14409:14427   */\n      dup2\n        /* \"#utility.yul\":14406:14444   */\n      sub\n        /* \"#utility.yul\":14403:14487   */\n      tag_490\n      jumpi\n        /* \"#utility.yul\":14459:14477   */\n      tag_491\n      tag_328\n      jump\t// in\n    tag_491:\n        /* \"#utility.yul\":14403:14487   */\n    tag_490:\n        /* \"#utility.yul\":14224:14493   */\n      pop\n        /* \"#utility.yul\":14173:14493   */\n      swap2\n      swap1\n      pop\n      jump\t// out\n        /* \"#utility.yul\":14499:14723   */\n    tag_329:\n        /* \"#utility.yul\":14639:14673   */\n      0x4d657472613a2043616e6e6f74207374616b65206d6f7265207468616e20796f\n        /* \"#utility.yul\":14635:14636   */\n      0x00\n        /* \"#utility.yul\":14627:14633   */\n      dup3\n        /* \"#utility.yul\":14623:14637   */\n      add\n        /* \"#utility.yul\":14616:14674   */\n      mstore\n        /* \"#utility.yul\":14708:14715   */\n      0x75206f776e000000000000000000000000000000000000000000000000000000\n        /* \"#utility.yul\":14703:14705   */\n      0x20\n        /* \"#utility.yul\":14695:14701   */\n      dup3\n        /* \"#utility.yul\":14691:14706   */\n      add\n        /* \"#utility.yul\":14684:14716   */\n      mstore\n        /* \"#utility.yul\":14499:14723   */\n      pop\n      jump\t// out\n        /* \"#utility.yul\":14729:15095   */\n    tag_330:\n        /* \"#utility.yul\":14871:14874   */\n      0x00\n        /* \"#utility.yul\":14892:14959   */\n      tag_494\n        /* \"#utility.yul\":14956:14958   */\n      0x25\n        /* \"#utility.yul\":14951:14954   */\n      dup4\n        /* \"#utility.yul\":14892:14959   */\n      tag_293\n      jump\t// in\n    tag_494:\n        /* \"#utility.yul\":14885:14959   */\n      swap2\n      pop\n        /* \"#utility.yul\":14968:15061   */\n      tag_495\n        /* \"#utility.yul\":15057:15060   */\n      dup3\n        /* \"#utility.yul\":14968:15061   */\n      tag_329\n      jump\t// in\n    tag_495:\n        /* \"#utility.yul\":15086:15088   */\n      0x40\n        /* \"#utility.yul\":15081:15084   */\n      dup3\n        /* \"#utility.yul\":15077:15089   */\n      add\n        /* \"#utility.yul\":15070:15089   */\n      swap1\n      pop\n        /* \"#utility.yul\":14729:15095   */\n      swap2\n      swap1\n      pop\n      jump\t// out\n        /* \"#utility.yul\":15101:15520   */\n    tag_155:\n        /* \"#utility.yul\":15267:15271   */\n      0x00\n        /* \"#utility.yul\":15305:15307   */\n      0x20\n        /* \"#utility.yul\":15294:15303   */\n      dup3\n        /* \"#utility.yul\":15290:15308   */\n      add\n        /* \"#utility.yul\":15282:15308   */\n      swap1\n      pop\n        /* \"#utility.yul\":15354:15363   */\n      dup2\n        /* \"#utility.yul\":15348:15352   */\n      dup2\n        /* \"#utility.yul\":15344:15364   */\n      sub\n        /* \"#utility.yul\":15340:15341   */\n      0x00\n        /* \"#utility.yul\":15329:15338   */\n      dup4\n        /* \"#utility.yul\":15325:15342   */\n      add\n        /* \"#utility.yul\":15318:15365   */\n      mstore\n        /* \"#utility.yul\":15382:15513   */\n      tag_497\n        /* \"#utility.yul\":15508:15512   */\n      dup2\n        /* \"#utility.yul\":15382:15513   */\n      tag_330\n      jump\t// in\n    tag_497:\n        /* \"#utility.yul\":15374:15513   */\n      swap1\n      pop\n        /* \"#utility.yul\":15101:15520   */\n      swap2\n      swap1\n      pop\n      jump\t// out\n        /* \"#utility.yul\":15526:15706   */\n    tag_167:\n        /* \"#utility.yul\":15574:15651   */\n      0x4e487b7100000000000000000000000000000000000000000000000000000000\n        /* \"#utility.yul\":15571:15572   */\n      0x00\n        /* \"#utility.yul\":15564:15652   */\n      mstore\n        /* \"#utility.yul\":15671:15675   */\n      0x32\n        /* \"#utility.yul\":15668:15669   */\n      0x04\n        /* \"#utility.yul\":15661:15676   */\n      mstore\n        /* \"#utility.yul\":15695:15699   */\n      0x24\n        /* \"#utility.yul\":15692:15693   */\n      0x00\n        /* \"#utility.yul\":15685:15700   */\n      revert\n        /* \"#utility.yul\":15712:15946   */\n    tag_331:\n        /* \"#utility.yul\":15852:15886   */\n      0x4d657472613a20617070726f76652063616e6e6f7420626520646f6e65206672\n        /* \"#utility.yul\":15848:15849   */\n      0x00\n        /* \"#utility.yul\":15840:15846   */\n      dup3\n        /* \"#utility.yul\":15836:15850   */\n      add\n        /* \"#utility.yul\":15829:15887   */\n      mstore\n        /* \"#utility.yul\":15921:15938   */\n      0x6f6d207a65726f20616464726573730000000000000000000000000000000000\n        /* \"#utility.yul\":15916:15918   */\n      0x20\n        /* \"#utility.yul\":15908:15914   */\n      dup3\n        /* \"#utility.yul\":15904:15919   */\n      add\n        /* \"#utility.yul\":15897:15939   */\n      mstore\n        /* \"#utility.yul\":15712:15946   */\n      pop\n      jump\t// out\n        /* \"#utility.yul\":15952:16318   */\n    tag_332:\n        /* \"#utility.yul\":16094:16097   */\n      0x00\n        /* \"#utility.yul\":16115:16182   */\n      tag_501\n        /* \"#utility.yul\":16179:16181   */\n      0x2f\n        /* \"#utility.yul\":16174:16177   */\n      dup4\n        /* \"#utility.yul\":16115:16182   */\n      tag_293\n      jump\t// in\n    tag_501:\n        /* \"#utility.yul\":16108:16182   */\n      swap2\n      pop\n        /* \"#utility.yul\":16191:16284   */\n      tag_502\n        /* \"#utility.yul\":16280:16283   */\n      dup3\n        /* \"#utility.yul\":16191:16284   */\n      tag_331\n      jump\t// in\n    tag_502:\n        /* \"#utility.yul\":16309:16311   */\n      0x40\n        /* \"#utility.yul\":16304:16307   */\n      dup3\n        /* \"#utility.yul\":16300:16312   */\n      add\n        /* \"#utility.yul\":16293:16312   */\n      swap1\n      pop\n        /* \"#utility.yul\":15952:16318   */\n      swap2\n      swap1\n      pop\n      jump\t// out\n        /* \"#utility.yul\":16324:16743   */\n    tag_194:\n        /* \"#utility.yul\":16490:16494   */\n      0x00\n        /* \"#utility.yul\":16528:16530   */\n      0x20\n        /* \"#utility.yul\":16517:16526   */\n      dup3\n        /* \"#utility.yul\":16513:16531   */\n      add\n        /* \"#utility.yul\":16505:16531   */\n      swap1\n      pop\n        /* \"#utility.yul\":16577:16586   */\n      dup2\n        /* \"#utility.yul\":16571:16575   */\n      dup2\n        /* \"#utility.yul\":16567:16587   */\n      sub\n        /* \"#utility.yul\":16563:16564   */\n      0x00\n        /* \"#utility.yul\":16552:16561   */\n      dup4\n        /* \"#utility.yul\":16548:16565   */\n      add\n        /* \"#utility.yul\":16541:16588   */\n      mstore\n        /* \"#utility.yul\":16605:16736   */\n      tag_504\n        /* \"#utility.yul\":16731:16735   */\n      dup2\n        /* \"#utility.yul\":16605:16736   */\n      tag_332\n      jump\t// in\n    tag_504:\n        /* \"#utility.yul\":16597:16736   */\n      swap1\n      pop\n        /* \"#utility.yul\":16324:16743   */\n      swap2\n      swap1\n      pop\n      jump\t// out\n        /* \"#utility.yul\":16749:16976   */\n    tag_333:\n        /* \"#utility.yul\":16889:16923   */\n      0x4d657472613a20617070726f76652063616e6e6f7420626520746f207a65726f\n        /* \"#utility.yul\":16885:16886   */\n      0x00\n        /* \"#utility.yul\":16877:16883   */\n      dup3\n        /* \"#utility.yul\":16873:16887   */\n      add\n        /* \"#utility.yul\":16866:16924   */\n      mstore\n        /* \"#utility.yul\":16958:16968   */\n      0x2061646472657373000000000000000000000000000000000000000000000000\n        /* \"#utility.yul\":16953:16955   */\n      0x20\n        /* \"#utility.yul\":16945:16951   */\n      dup3\n        /* \"#utility.yul\":16941:16956   */\n      add\n        /* \"#utility.yul\":16934:16969   */\n      mstore\n        /* \"#utility.yul\":16749:16976   */\n      pop\n      jump\t// out\n        /* \"#utility.yul\":16982:17348   */\n    tag_334:\n        /* \"#utility.yul\":17124:17127   */\n      0x00\n        /* \"#utility.yul\":17145:17212   */\n      tag_507\n        /* \"#utility.yul\":17209:17211   */\n      0x28\n        /* \"#utility.yul\":17204:17207   */\n      dup4\n        /* \"#utility.yul\":17145:17212   */\n      tag_293\n      jump\t// in\n    tag_507:\n        /* \"#utility.yul\":17138:17212   */\n      swap2\n      pop\n        /* \"#utility.yul\":17221:17314   */\n      tag_508\n        /* \"#utility.yul\":17310:17313   */\n      dup3\n        /* \"#utility.yul\":17221:17314   */\n      tag_333\n      jump\t// in\n    tag_508:\n        /* \"#utility.yul\":17339:17341   */\n      0x40\n        /* \"#utility.yul\":17334:17337   */\n      dup3\n        /* \"#utility.yul\":17330:17342   */\n      add\n        /* \"#utility.yul\":17323:17342   */\n      swap1\n      pop\n        /* \"#utility.yul\":16982:17348   */\n      swap2\n      swap1\n      pop\n      jump\t// out\n        /* \"#utility.yul\":17354:17773   */\n    tag_197:\n        /* \"#utility.yul\":17520:17524   */\n      0x00\n        /* \"#utility.yul\":17558:17560   */\n      0x20\n        /* \"#utility.yul\":17547:17556   */\n      dup3\n        /* \"#utility.yul\":17543:17561   */\n      add\n        /* \"#utility.yul\":17535:17561   */\n      swap1\n      pop\n        /* \"#utility.yul\":17607:17616   */\n      dup2\n        /* \"#utility.yul\":17601:17605   */\n      dup2\n        /* \"#utility.yul\":17597:17617   */\n      sub\n        /* \"#utility.yul\":17593:17594   */\n      0x00\n        /* \"#utility.yul\":17582:17591   */\n      dup4\n        /* \"#utility.yul\":17578:17595   */\n      add\n        /* \"#utility.yul\":17571:17618   */\n      mstore\n        /* \"#utility.yul\":17635:17766   */\n      tag_510\n        /* \"#utility.yul\":17761:17765   */\n      dup2\n        /* \"#utility.yul\":17635:17766   */\n      tag_334\n      jump\t// in\n    tag_510:\n        /* \"#utility.yul\":17627:17766   */\n      swap1\n      pop\n        /* \"#utility.yul\":17354:17773   */\n      swap2\n      swap1\n      pop\n      jump\t// out\n        /* \"#utility.yul\":17779:17999   */\n    tag_335:\n        /* \"#utility.yul\":17919:17953   */\n      0x4d657472613a207472616e736665722066726f6d207a65726f20616464726573\n        /* \"#utility.yul\":17915:17916   */\n      0x00\n        /* \"#utility.yul\":17907:17913   */\n      dup3\n        /* \"#utility.yul\":17903:17917   */\n      add\n        /* \"#utility.yul\":17896:17954   */\n      mstore\n        /* \"#utility.yul\":17988:17991   */\n      0x7300000000000000000000000000000000000000000000000000000000000000\n        /* \"#utility.yul\":17983:17985   */\n      0x20\n        /* \"#utility.yul\":17975:17981   */\n      dup3\n        /* \"#utility.yul\":17971:17986   */\n      add\n        /* \"#utility.yul\":17964:17992   */\n      mstore\n        /* \"#utility.yul\":17779:17999   */\n      pop\n      jump\t// out\n        /* \"#utility.yul\":18005:18371   */\n    tag_336:\n        /* \"#utility.yul\":18147:18150   */\n      0x00\n        /* \"#utility.yul\":18168:18235   */\n      tag_513\n        /* \"#utility.yul\":18232:18234   */\n      0x21\n        /* \"#utility.yul\":18227:18230   */\n      dup4\n        /* \"#utility.yul\":18168:18235   */\n      tag_293\n      jump\t// in\n    tag_513:\n        /* \"#utility.yul\":18161:18235   */\n      swap2\n      pop\n        /* \"#utility.yul\":18244:18337   */\n      tag_514\n        /* \"#utility.yul\":18333:18336   */\n      dup3\n        /* \"#utility.yul\":18244:18337   */\n      tag_335\n      jump\t// in\n    tag_514:\n        /* \"#utility.yul\":18362:18364   */\n      0x40\n        /* \"#utility.yul\":18357:18360   */\n      dup3\n        /* \"#utility.yul\":18353:18365   */\n      add\n        /* \"#utility.yul\":18346:18365   */\n      swap1\n      pop\n        /* \"#utility.yul\":18005:18371   */\n      swap2\n      swap1\n      pop\n      jump\t// out\n        /* \"#utility.yul\":18377:18796   */\n    tag_202:\n        /* \"#utility.yul\":18543:18547   */\n      0x00\n        /* \"#utility.yul\":18581:18583   */\n      0x20\n        /* \"#utility.yul\":18570:18579   */\n      dup3\n        /* \"#utility.yul\":18566:18584   */\n      add\n        /* \"#utility.yul\":18558:18584   */\n      swap1\n      pop\n        /* \"#utility.yul\":18630:18639   */\n      dup2\n        /* \"#utility.yul\":18624:18628   */\n      dup2\n        /* \"#utility.yul\":18620:18640   */\n      sub\n        /* \"#utility.yul\":18616:18617   */\n      0x00\n        /* \"#utility.yul\":18605:18614   */\n      dup4\n        /* \"#utility.yul\":18601:18618   */\n      add\n        /* \"#utility.yul\":18594:18641   */\n      mstore\n        /* \"#utility.yul\":18658:18789   */\n      tag_516\n        /* \"#utility.yul\":18784:18788   */\n      dup2\n        /* \"#utility.yul\":18658:18789   */\n      tag_336\n      jump\t// in\n    tag_516:\n        /* \"#utility.yul\":18650:18789   */\n      swap1\n      pop\n        /* \"#utility.yul\":18377:18796   */\n      swap2\n      swap1\n      pop\n      jump\t// out\n        /* \"#utility.yul\":18802:18983   */\n    tag_337:\n        /* \"#utility.yul\":18942:18975   */\n      0x4d657472613a207472616e7366657220746f207a65726f206164647265737300\n        /* \"#utility.yul\":18938:18939   */\n      0x00\n        /* \"#utility.yul\":18930:18936   */\n      dup3\n        /* \"#utility.yul\":18926:18940   */\n      add\n        /* \"#utility.yul\":18919:18976   */\n      mstore\n        /* \"#utility.yul\":18802:18983   */\n      pop\n      jump\t// out\n        /* \"#utility.yul\":18989:19355   */\n    tag_338:\n        /* \"#utility.yul\":19131:19134   */\n      0x00\n        /* \"#utility.yul\":19152:19219   */\n      tag_519\n        /* \"#utility.yul\":19216:19218   */\n      0x1f\n        /* \"#utility.yul\":19211:19214   */\n      dup4\n        /* \"#utility.yul\":19152:19219   */\n      tag_293\n      jump\t// in\n    tag_519:\n        /* \"#utility.yul\":19145:19219   */\n      swap2\n      pop\n        /* \"#utility.yul\":19228:19321   */\n      tag_520\n        /* \"#utility.yul\":19317:19320   */\n      dup3\n        /* \"#utility.yul\":19228:19321   */\n      tag_337\n      jump\t// in\n    tag_520:\n        /* \"#utility.yul\":19346:19348   */\n      0x20\n        /* \"#utility.yul\":19341:19344   */\n      dup3\n        /* \"#utility.yul\":19337:19349   */\n      add\n        /* \"#utility.yul\":19330:19349   */\n      swap1\n      pop\n        /* \"#utility.yul\":18989:19355   */\n      swap2\n      swap1\n      pop\n      jump\t// out\n        /* \"#utility.yul\":19361:19780   */\n    tag_205:\n        /* \"#utility.yul\":19527:19531   */\n      0x00\n        /* \"#utility.yul\":19565:19567   */\n      0x20\n        /* \"#utility.yul\":19554:19563   */\n      dup3\n        /* \"#utility.yul\":19550:19568   */\n      add\n        /* \"#utility.yul\":19542:19568   */\n      swap1\n      pop\n        /* \"#utility.yul\":19614:19623   */\n      dup2\n        /* \"#utility.yul\":19608:19612   */\n      dup2\n        /* \"#utility.yul\":19604:19624   */\n      sub\n        /* \"#utility.yul\":19600:19601   */\n      0x00\n        /* \"#utility.yul\":19589:19598   */\n      dup4\n        /* \"#utility.yul\":19585:19602   */\n      add\n        /* \"#utility.yul\":19578:19625   */\n      mstore\n        /* \"#utility.yul\":19642:19773   */\n      tag_522\n        /* \"#utility.yul\":19768:19772   */\n      dup2\n        /* \"#utility.yul\":19642:19773   */\n      tag_338\n      jump\t// in\n    tag_522:\n        /* \"#utility.yul\":19634:19773   */\n      swap1\n      pop\n        /* \"#utility.yul\":19361:19780   */\n      swap2\n      swap1\n      pop\n      jump\t// out\n        /* \"#utility.yul\":19786:20022   */\n    tag_339:\n        /* \"#utility.yul\":19926:19960   */\n      0x4d657472613a2063616e74207472616e73666572206d6f7265207468616e2079\n        /* \"#utility.yul\":19922:19923   */\n      0x00\n        /* \"#utility.yul\":19914:19920   */\n      dup3\n        /* \"#utility.yul\":19910:19924   */\n      add\n        /* \"#utility.yul\":19903:19961   */\n      mstore\n        /* \"#utility.yul\":19995:20014   */\n      0x6f7572206163636f756e7420686f6c6473000000000000000000000000000000\n        /* \"#utility.yul\":19990:19992   */\n      0x20\n        /* \"#utility.yul\":19982:19988   */\n      dup3\n        /* \"#utility.yul\":19978:19993   */\n      add\n        /* \"#utility.yul\":19971:20015   */\n      mstore\n        /* \"#utility.yul\":19786:20022   */\n      pop\n      jump\t// out\n        /* \"#utility.yul\":20028:20394   */\n    tag_340:\n        /* \"#utility.yul\":20170:20173   */\n      0x00\n        /* \"#utility.yul\":20191:20258   */\n      tag_525\n        /* \"#utility.yul\":20255:20257   */\n      0x31\n        /* \"#utility.yul\":20250:20253   */\n      dup4\n        /* \"#utility.yul\":20191:20258   */\n      tag_293\n      jump\t// in\n    tag_525:\n        /* \"#utility.yul\":20184:20258   */\n      swap2\n      pop\n        /* \"#utility.yul\":20267:20360   */\n      tag_526\n        /* \"#utility.yul\":20356:20359   */\n      dup3\n        /* \"#utility.yul\":20267:20360   */\n      tag_339\n      jump\t// in\n    tag_526:\n        /* \"#utility.yul\":20385:20387   */\n      0x40\n        /* \"#utility.yul\":20380:20383   */\n      dup3\n        /* \"#utility.yul\":20376:20388   */\n      add\n        /* \"#utility.yul\":20369:20388   */\n      swap1\n      pop\n        /* \"#utility.yul\":20028:20394   */\n      swap2\n      swap1\n      pop\n      jump\t// out\n        /* \"#utility.yul\":20400:20819   */\n    tag_208:\n        /* \"#utility.yul\":20566:20570   */\n      0x00\n        /* \"#utility.yul\":20604:20606   */\n      0x20\n        /* \"#utility.yul\":20593:20602   */\n      dup3\n        /* \"#utility.yul\":20589:20607   */\n      add\n        /* \"#utility.yul\":20581:20607   */\n      swap1\n      pop\n        /* \"#utility.yul\":20653:20662   */\n      dup2\n        /* \"#utility.yul\":20647:20651   */\n      dup2\n        /* \"#utility.yul\":20643:20663   */\n      sub\n        /* \"#utility.yul\":20639:20640   */\n      0x00\n        /* \"#utility.yul\":20628:20637   */\n      dup4\n        /* \"#utility.yul\":20624:20641   */\n      add\n        /* \"#utility.yul\":20617:20664   */\n      mstore\n        /* \"#utility.yul\":20681:20812   */\n      tag_528\n        /* \"#utility.yul\":20807:20811   */\n      dup2\n        /* \"#utility.yul\":20681:20812   */\n      tag_340\n      jump\t// in\n    tag_528:\n        /* \"#utility.yul\":20673:20812   */\n      swap1\n      pop\n        /* \"#utility.yul\":20400:20819   */\n      swap2\n      swap1\n      pop\n      jump\t// out\n        /* \"#utility.yul\":20825:21062   */\n    tag_341:\n        /* \"#utility.yul\":20965:20999   */\n      0x5374616b696e673a2043616e6e6f74207769746864726177206d6f7265207468\n        /* \"#utility.yul\":20961:20962   */\n      0x00\n        /* \"#utility.yul\":20953:20959   */\n      dup3\n        /* \"#utility.yul\":20949:20963   */\n      add\n        /* \"#utility.yul\":20942:21000   */\n      mstore\n        /* \"#utility.yul\":21034:21054   */\n      0x616e20796f752068617665207374616b65640000000000000000000000000000\n        /* \"#utility.yul\":21029:21031   */\n      0x20\n        /* \"#utility.yul\":21021:21027   */\n      dup3\n        /* \"#utility.yul\":21017:21032   */\n      add\n        /* \"#utility.yul\":21010:21055   */\n      mstore\n        /* \"#utility.yul\":20825:21062   */\n      pop\n      jump\t// out\n        /* \"#utility.yul\":21068:21434   */\n    tag_342:\n        /* \"#utility.yul\":21210:21213   */\n      0x00\n        /* \"#utility.yul\":21231:21298   */\n      tag_531\n        /* \"#utility.yul\":21295:21297   */\n      0x32\n        /* \"#utility.yul\":21290:21293   */\n      dup4\n        /* \"#utility.yul\":21231:21298   */\n      tag_293\n      jump\t// in\n    tag_531:\n        /* \"#utility.yul\":21224:21298   */\n      swap2\n      pop\n        /* \"#utility.yul\":21307:21400   */\n      tag_532\n        /* \"#utility.yul\":21396:21399   */\n      dup3\n        /* \"#utility.yul\":21307:21400   */\n      tag_341\n      jump\t// in\n    tag_532:\n        /* \"#utility.yul\":21425:21427   */\n      0x40\n        /* \"#utility.yul\":21420:21423   */\n      dup3\n        /* \"#utility.yul\":21416:21428   */\n      add\n        /* \"#utility.yul\":21409:21428   */\n      swap1\n      pop\n        /* \"#utility.yul\":21068:21434   */\n      swap2\n      swap1\n      pop\n      jump\t// out\n        /* \"#utility.yul\":21440:21859   */\n    tag_221:\n        /* \"#utility.yul\":21606:21610   */\n      0x00\n        /* \"#utility.yul\":21644:21646   */\n      0x20\n        /* \"#utility.yul\":21633:21642   */\n      dup3\n        /* \"#utility.yul\":21629:21647   */\n      add\n        /* \"#utility.yul\":21621:21647   */\n      swap1\n      pop\n        /* \"#utility.yul\":21693:21702   */\n      dup2\n        /* \"#utility.yul\":21687:21691   */\n      dup2\n        /* \"#utility.yul\":21683:21703   */\n      sub\n        /* \"#utility.yul\":21679:21680   */\n      0x00\n        /* \"#utility.yul\":21668:21677   */\n      dup4\n        /* \"#utility.yul\":21664:21681   */\n      add\n        /* \"#utility.yul\":21657:21704   */\n      mstore\n        /* \"#utility.yul\":21721:21852   */\n      tag_534\n        /* \"#utility.yul\":21847:21851   */\n      dup2\n        /* \"#utility.yul\":21721:21852   */\n      tag_342\n      jump\t// in\n    tag_534:\n        /* \"#utility.yul\":21713:21852   */\n      swap1\n      pop\n        /* \"#utility.yul\":21440:21859   */\n      swap2\n      swap1\n      pop\n      jump\t// out\n        /* \"#utility.yul\":21865:22086   */\n    tag_343:\n        /* \"#utility.yul\":22005:22039   */\n      0x4d657472613a2063616e6e6f74206d696e7420746f207a65726f206164647265\n        /* \"#utility.yul\":22001:22002   */\n      0x00\n        /* \"#utility.yul\":21993:21999   */\n      dup3\n        /* \"#utility.yul\":21989:22003   */\n      add\n        /* \"#utility.yul\":21982:22040   */\n      mstore\n        /* \"#utility.yul\":22074:22078   */\n      0x7373000000000000000000000000000000000000000000000000000000000000\n        /* \"#utility.yul\":22069:22071   */\n      0x20\n        /* \"#utility.yul\":22061:22067   */\n      dup3\n        /* \"#utility.yul\":22057:22072   */\n      add\n        /* \"#utility.yul\":22050:22079   */\n      mstore\n        /* \"#utility.yul\":21865:22086   */\n      pop\n      jump\t// out\n        /* \"#utility.yul\":22092:22458   */\n    tag_344:\n        /* \"#utility.yul\":22234:22237   */\n      0x00\n        /* \"#utility.yul\":22255:22322   */\n      tag_537\n        /* \"#utility.yul\":22319:22321   */\n      0x22\n        /* \"#utility.yul\":22314:22317   */\n      dup4\n        /* \"#utility.yul\":22255:22322   */\n      tag_293\n      jump\t// in\n    tag_537:\n        /* \"#utility.yul\":22248:22322   */\n      swap2\n      pop\n        /* \"#utility.yul\":22331:22424   */\n      tag_538\n        /* \"#utility.yul\":22420:22423   */\n      dup3\n        /* \"#utility.yul\":22331:22424   */\n      tag_343\n      jump\t// in\n    tag_538:\n        /* \"#utility.yul\":22449:22451   */\n      0x40\n        /* \"#utility.yul\":22444:22447   */\n      dup3\n        /* \"#utility.yul\":22440:22452   */\n      add\n        /* \"#utility.yul\":22433:22452   */\n      swap1\n      pop\n        /* \"#utility.yul\":22092:22458   */\n      swap2\n      swap1\n      pop\n      jump\t// out\n        /* \"#utility.yul\":22464:22883   */\n    tag_248:\n        /* \"#utility.yul\":22630:22634   */\n      0x00\n        /* \"#utility.yul\":22668:22670   */\n      0x20\n        /* \"#utility.yul\":22657:22666   */\n      dup3\n        /* \"#utility.yul\":22653:22671   */\n      add\n        /* \"#utility.yul\":22645:22671   */\n      swap1\n      pop\n        /* \"#utility.yul\":22717:22726   */\n      dup2\n        /* \"#utility.yul\":22711:22715   */\n      dup2\n        /* \"#utility.yul\":22707:22727   */\n      sub\n        /* \"#utility.yul\":22703:22704   */\n      0x00\n        /* \"#utility.yul\":22692:22701   */\n      dup4\n        /* \"#utility.yul\":22688:22705   */\n      add\n        /* \"#utility.yul\":22681:22728   */\n      mstore\n        /* \"#utility.yul\":22745:22876   */\n      tag_540\n        /* \"#utility.yul\":22871:22875   */\n      dup2\n        /* \"#utility.yul\":22745:22876   */\n      tag_344\n      jump\t// in\n    tag_540:\n        /* \"#utility.yul\":22737:22876   */\n      swap1\n      pop\n        /* \"#utility.yul\":22464:22883   */\n      swap2\n      swap1\n      pop\n      jump\t// out\n        /* \"#utility.yul\":22889:23112   */\n    tag_345:\n        /* \"#utility.yul\":23029:23063   */\n      0x4d657472613a2063616e6e6f74206275726e2066726f6d207a65726f20616464\n        /* \"#utility.yul\":23025:23026   */\n      0x00\n        /* \"#utility.yul\":23017:23023   */\n      dup3\n        /* \"#utility.yul\":23013:23027   */\n      add\n        /* \"#utility.yul\":23006:23064   */\n      mstore\n        /* \"#utility.yul\":23098:23104   */\n      0x7265737300000000000000000000000000000000000000000000000000000000\n        /* \"#utility.yul\":23093:23095   */\n      0x20\n        /* \"#utility.yul\":23085:23091   */\n      dup3\n        /* \"#utility.yul\":23081:23096   */\n      add\n        /* \"#utility.yul\":23074:23105   */\n      mstore\n        /* \"#utility.yul\":22889:23112   */\n      pop\n      jump\t// out\n        /* \"#utility.yul\":23118:23484   */\n    tag_346:\n        /* \"#utility.yul\":23260:23263   */\n      0x00\n        /* \"#utility.yul\":23281:23348   */\n      tag_543\n        /* \"#utility.yul\":23345:23347   */\n      0x24\n        /* \"#utility.yul\":23340:23343   */\n      dup4\n        /* \"#utility.yul\":23281:23348   */\n      tag_293\n      jump\t// in\n    tag_543:\n        /* \"#utility.yul\":23274:23348   */\n      swap2\n      pop\n        /* \"#utility.yul\":23357:23450   */\n      tag_544\n        /* \"#utility.yul\":23446:23449   */\n      dup3\n        /* \"#utility.yul\":23357:23450   */\n      tag_345\n      jump\t// in\n    tag_544:\n        /* \"#utility.yul\":23475:23477   */\n      0x40\n        /* \"#utility.yul\":23470:23473   */\n      dup3\n        /* \"#utility.yul\":23466:23478   */\n      add\n        /* \"#utility.yul\":23459:23478   */\n      swap1\n      pop\n        /* \"#utility.yul\":23118:23484   */\n      swap2\n      swap1\n      pop\n      jump\t// out\n        /* \"#utility.yul\":23490:23909   */\n    tag_255:\n        /* \"#utility.yul\":23656:23660   */\n      0x00\n        /* \"#utility.yul\":23694:23696   */\n      0x20\n        /* \"#utility.yul\":23683:23692   */\n      dup3\n        /* \"#utility.yul\":23679:23697   */\n      add\n        /* \"#utility.yul\":23671:23697   */\n      swap1\n      pop\n        /* \"#utility.yul\":23743:23752   */\n      dup2\n        /* \"#utility.yul\":23737:23741   */\n      dup2\n        /* \"#utility.yul\":23733:23753   */\n      sub\n        /* \"#utility.yul\":23729:23730   */\n      0x00\n        /* \"#utility.yul\":23718:23727   */\n      dup4\n        /* \"#utility.yul\":23714:23731   */\n      add\n        /* \"#utility.yul\":23707:23754   */\n      mstore\n        /* \"#utility.yul\":23771:23902   */\n      tag_546\n        /* \"#utility.yul\":23897:23901   */\n      dup2\n        /* \"#utility.yul\":23771:23902   */\n      tag_346\n      jump\t// in\n    tag_546:\n        /* \"#utility.yul\":23763:23902   */\n      swap1\n      pop\n        /* \"#utility.yul\":23490:23909   */\n      swap2\n      swap1\n      pop\n      jump\t// out\n        /* \"#utility.yul\":23915:24147   */\n    tag_347:\n        /* \"#utility.yul\":24055:24089   */\n      0x4d657472613a2043616e6e6f74206275726e206d6f7265207468616e20746865\n        /* \"#utility.yul\":24051:24052   */\n      0x00\n        /* \"#utility.yul\":24043:24049   */\n      dup3\n        /* \"#utility.yul\":24039:24053   */\n      add\n        /* \"#utility.yul\":24032:24090   */\n      mstore\n        /* \"#utility.yul\":24124:24139   */\n      0x206163636f756e74206f776e7300000000000000000000000000000000000000\n        /* \"#utility.yul\":24119:24121   */\n      0x20\n        /* \"#utility.yul\":24111:24117   */\n      dup3\n        /* \"#utility.yul\":24107:24122   */\n      add\n        /* \"#utility.yul\":24100:24140   */\n      mstore\n        /* \"#utility.yul\":23915:24147   */\n      pop\n      jump\t// out\n        /* \"#utility.yul\":24153:24519   */\n    tag_348:\n        /* \"#utility.yul\":24295:24298   */\n      0x00\n        /* \"#utility.yul\":24316:24383   */\n      tag_549\n        /* \"#utility.yul\":24380:24382   */\n      0x2d\n        /* \"#utility.yul\":24375:24378   */\n      dup4\n        /* \"#utility.yul\":24316:24383   */\n      tag_293\n      jump\t// in\n    tag_549:\n        /* \"#utility.yul\":24309:24383   */\n      swap2\n      pop\n        /* \"#utility.yul\":24392:24485   */\n      tag_550\n        /* \"#utility.yul\":24481:24484   */\n      dup3\n        /* \"#utility.yul\":24392:24485   */\n      tag_347\n      jump\t// in\n    tag_550:\n        /* \"#utility.yul\":24510:24512   */\n      0x40\n        /* \"#utility.yul\":24505:24508   */\n      dup3\n        /* \"#utility.yul\":24501:24513   */\n      add\n        /* \"#utility.yul\":24494:24513   */\n      swap1\n      pop\n        /* \"#utility.yul\":24153:24519   */\n      swap2\n      swap1\n      pop\n      jump\t// out\n        /* \"#utility.yul\":24525:24944   */\n    tag_258:\n        /* \"#utility.yul\":24691:24695   */\n      0x00\n        /* \"#utility.yul\":24729:24731   */\n      0x20\n        /* \"#utility.yul\":24718:24727   */\n      dup3\n        /* \"#utility.yul\":24714:24732   */\n      add\n        /* \"#utility.yul\":24706:24732   */\n      swap1\n      pop\n        /* \"#utility.yul\":24778:24787   */\n      dup2\n        /* \"#utility.yul\":24772:24776   */\n      dup2\n        /* \"#utility.yul\":24768:24788   */\n      sub\n        /* \"#utility.yul\":24764:24765   */\n      0x00\n        /* \"#utility.yul\":24753:24762   */\n      dup4\n        /* \"#utility.yul\":24749:24766   */\n      add\n        /* \"#utility.yul\":24742:24789   */\n      mstore\n        /* \"#utility.yul\":24806:24937   */\n      tag_552\n        /* \"#utility.yul\":24932:24936   */\n      dup2\n        /* \"#utility.yul\":24806:24937   */\n      tag_348\n      jump\t// in\n    tag_552:\n        /* \"#utility.yul\":24798:24937   */\n      swap1\n      pop\n        /* \"#utility.yul\":24525:24944   */\n      swap2\n      swap1\n      pop\n      jump\t// out\n        /* \"#utility.yul\":24950:25120   */\n    tag_349:\n        /* \"#utility.yul\":25090:25112   */\n      0x43616e6e6f74207374616b65206e6f7468696e67000000000000000000000000\n        /* \"#utility.yul\":25086:25087   */\n      0x00\n        /* \"#utility.yul\":25078:25084   */\n      dup3\n        /* \"#utility.yul\":25074:25088   */\n      add\n        /* \"#utility.yul\":25067:25113   */\n      mstore\n        /* \"#utility.yul\":24950:25120   */\n      pop\n      jump\t// out\n        /* \"#utility.yul\":25126:25492   */\n    tag_350:\n        /* \"#utility.yul\":25268:25271   */\n      0x00\n        /* \"#utility.yul\":25289:25356   */\n      tag_555\n        /* \"#utility.yul\":25353:25355   */\n      0x14\n        /* \"#utility.yul\":25348:25351   */\n      dup4\n        /* \"#utility.yul\":25289:25356   */\n      tag_293\n      jump\t// in\n    tag_555:\n        /* \"#utility.yul\":25282:25356   */\n      swap2\n      pop\n        /* \"#utility.yul\":25365:25458   */\n      tag_556\n        /* \"#utility.yul\":25454:25457   */\n      dup3\n        /* \"#utility.yul\":25365:25458   */\n      tag_349\n      jump\t// in\n    tag_556:\n        /* \"#utility.yul\":25483:25485   */\n      0x20\n        /* \"#utility.yul\":25478:25481   */\n      dup3\n        /* \"#utility.yul\":25474:25486   */\n      add\n        /* \"#utility.yul\":25467:25486   */\n      swap1\n      pop\n        /* \"#utility.yul\":25126:25492   */\n      swap2\n      swap1\n      pop\n      jump\t// out\n        /* \"#utility.yul\":25498:25917   */\n    tag_265:\n        /* \"#utility.yul\":25664:25668   */\n      0x00\n        /* \"#utility.yul\":25702:25704   */\n      0x20\n        /* \"#utility.yul\":25691:25700   */\n      dup3\n        /* \"#utility.yul\":25687:25705   */\n      add\n        /* \"#utility.yul\":25679:25705   */\n      swap1\n      pop\n        /* \"#utility.yul\":25751:25760   */\n      dup2\n        /* \"#utility.yul\":25745:25749   */\n      dup2\n        /* \"#utility.yul\":25741:25761   */\n      sub\n        /* \"#utility.yul\":25737:25738   */\n      0x00\n        /* \"#utility.yul\":25726:25735   */\n      dup4\n        /* \"#utility.yul\":25722:25739   */\n      add\n        /* \"#utility.yul\":25715:25762   */\n      mstore\n        /* \"#utility.yul\":25779:25910   */\n      tag_558\n        /* \"#utility.yul\":25905:25909   */\n      dup2\n        /* \"#utility.yul\":25779:25910   */\n      tag_350\n      jump\t// in\n    tag_558:\n        /* \"#utility.yul\":25771:25910   */\n      swap1\n      pop\n        /* \"#utility.yul\":25498:25917   */\n      swap2\n      swap1\n      pop\n      jump\t// out\n        /* \"#utility.yul\":25923:26365   */\n    tag_274:\n        /* \"#utility.yul\":26072:26076   */\n      0x00\n        /* \"#utility.yul\":26110:26112   */\n      0x60\n        /* \"#utility.yul\":26099:26108   */\n      dup3\n        /* \"#utility.yul\":26095:26113   */\n      add\n        /* \"#utility.yul\":26087:26113   */\n      swap1\n      pop\n        /* \"#utility.yul\":26123:26194   */\n      tag_560\n        /* \"#utility.yul\":26191:26192   */\n      0x00\n        /* \"#utility.yul\":26180:26189   */\n      dup4\n        /* \"#utility.yul\":26176:26193   */\n      add\n        /* \"#utility.yul\":26167:26173   */\n      dup7\n        /* \"#utility.yul\":26123:26194   */\n      tag_309\n      jump\t// in\n    tag_560:\n        /* \"#utility.yul\":26204:26276   */\n      tag_561\n        /* \"#utility.yul\":26272:26274   */\n      0x20\n        /* \"#utility.yul\":26261:26270   */\n      dup4\n        /* \"#utility.yul\":26257:26275   */\n      add\n        /* \"#utility.yul\":26248:26254   */\n      dup6\n        /* \"#utility.yul\":26204:26276   */\n      tag_309\n      jump\t// in\n    tag_561:\n        /* \"#utility.yul\":26286:26358   */\n      tag_562\n        /* \"#utility.yul\":26354:26356   */\n      0x40\n        /* \"#utility.yul\":26343:26352   */\n      dup4\n        /* \"#utility.yul\":26339:26357   */\n      add\n        /* \"#utility.yul\":26330:26336   */\n      dup5\n        /* \"#utility.yul\":26286:26358   */\n      tag_309\n      jump\t// in\n    tag_562:\n        /* \"#utility.yul\":25923:26365   */\n      swap5\n      swap4\n      pop\n      pop\n      pop\n      pop\n      jump\t// out\n        /* \"#utility.yul\":26371:26551   */\n    tag_351:\n        /* \"#utility.yul\":26419:26496   */\n      0x4e487b7100000000000000000000000000000000000000000000000000000000\n        /* \"#utility.yul\":26416:26417   */\n      0x00\n        /* \"#utility.yul\":26409:26497   */\n      mstore\n        /* \"#utility.yul\":26516:26520   */\n      0x12\n        /* \"#utility.yul\":26513:26514   */\n      0x04\n        /* \"#utility.yul\":26506:26521   */\n      mstore\n        /* \"#utility.yul\":26540:26544   */\n      0x24\n        /* \"#utility.yul\":26537:26538   */\n      0x00\n        /* \"#utility.yul\":26530:26545   */\n      revert\n        /* \"#utility.yul\":26557:26742   */\n    tag_278:\n        /* \"#utility.yul\":26597:26598   */\n      0x00\n        /* \"#utility.yul\":26614:26634   */\n      tag_565\n        /* \"#utility.yul\":26632:26633   */\n      dup3\n        /* \"#utility.yul\":26614:26634   */\n      tag_304\n      jump\t// in\n    tag_565:\n        /* \"#utility.yul\":26609:26634   */\n      swap2\n      pop\n        /* \"#utility.yul\":26648:26668   */\n      tag_566\n        /* \"#utility.yul\":26666:26667   */\n      dup4\n        /* \"#utility.yul\":26648:26668   */\n      tag_304\n      jump\t// in\n    tag_566:\n        /* \"#utility.yul\":26643:26668   */\n      swap3\n      pop\n        /* \"#utility.yul\":26687:26688   */\n      dup3\n        /* \"#utility.yul\":26677:26712   */\n      tag_567\n      jumpi\n        /* \"#utility.yul\":26692:26710   */\n      tag_568\n      tag_351\n      jump\t// in\n    tag_568:\n        /* \"#utility.yul\":26677:26712   */\n    tag_567:\n        /* \"#utility.yul\":26734:26735   */\n      dup3\n        /* \"#utility.yul\":26731:26732   */\n      dup3\n        /* \"#utility.yul\":26727:26736   */\n      div\n        /* \"#utility.yul\":26722:26736   */\n      swap1\n      pop\n        /* \"#utility.yul\":26557:26742   */\n      swap3\n      swap2\n      pop\n      pop\n      jump\t// out\n        /* \"#utility.yul\":26748:27096   */\n    tag_280:\n        /* \"#utility.yul\":26788:26795   */\n      0x00\n        /* \"#utility.yul\":26811:26831   */\n      tag_570\n        /* \"#utility.yul\":26829:26830   */\n      dup3\n        /* \"#utility.yul\":26811:26831   */\n      tag_304\n      jump\t// in\n    tag_570:\n        /* \"#utility.yul\":26806:26831   */\n      swap2\n      pop\n        /* \"#utility.yul\":26845:26865   */\n      tag_571\n        /* \"#utility.yul\":26863:26864   */\n      dup4\n        /* \"#utility.yul\":26845:26865   */\n      tag_304\n      jump\t// in\n    tag_571:\n        /* \"#utility.yul\":26840:26865   */\n      swap3\n      pop\n        /* \"#utility.yul\":27033:27034   */\n      dup2\n        /* \"#utility.yul\":26965:27031   */\n      0xffffffffffffffffffffffffffffffffffffffffffffffffffffffffffffffff\n        /* \"#utility.yul\":26961:27035   */\n      div\n        /* \"#utility.yul\":26958:26959   */\n      dup4\n        /* \"#utility.yul\":26955:27036   */\n      gt\n        /* \"#utility.yul\":26950:26951   */\n      dup3\n        /* \"#utility.yul\":26943:26952   */\n      iszero\n        /* \"#utility.yul\":26936:26953   */\n      iszero\n        /* \"#utility.yul\":26932:27037   */\n      and\n        /* \"#utility.yul\":26929:27060   */\n      iszero\n      tag_572\n      jumpi\n        /* \"#utility.yul\":27040:27058   */\n      tag_573\n      tag_325\n      jump\t// in\n    tag_573:\n        /* \"#utility.yul\":26929:27060   */\n    tag_572:\n        /* \"#utility.yul\":27088:27089   */\n      dup3\n        /* \"#utility.yul\":27085:27086   */\n      dup3\n        /* \"#utility.yul\":27081:27090   */\n      mul\n        /* \"#utility.yul\":27070:27090   */\n      swap1\n      pop\n        /* \"#utility.yul\":26748:27096   */\n      swap3\n      swap2\n      pop\n      pop\n      jump\t// out\n        /* \"#utility.yul\":27102:27327   */\n    tag_352:\n        /* \"#utility.yul\":27242:27276   */\n      0x4f776e61626c653a206e6577206f776e657220697320746865207a65726f2061\n        /* \"#utility.yul\":27238:27239   */\n      0x00\n        /* \"#utility.yul\":27230:27236   */\n      dup3\n        /* \"#utility.yul\":27226:27240   */\n      add\n        /* \"#utility.yul\":27219:27277   */\n      mstore\n        /* \"#utility.yul\":27311:27319   */\n      0x6464726573730000000000000000000000000000000000000000000000000000\n        /* \"#utility.yul\":27306:27308   */\n      0x20\n        /* \"#utility.yul\":27298:27304   */\n      dup3\n        /* \"#utility.yul\":27294:27309   */\n      add\n        /* \"#utility.yul\":27287:27320   */\n      mstore\n        /* \"#utility.yul\":27102:27327   */\n      pop\n      jump\t// out\n        /* \"#utility.yul\":27333:27699   */\n    tag_353:\n        /* \"#utility.yul\":27475:27478   */\n      0x00\n        /* \"#utility.yul\":27496:27563   */\n      tag_576\n        /* \"#utility.yul\":27560:27562   */\n      0x26\n        /* \"#utility.yul\":27555:27558   */\n      dup4\n        /* \"#utility.yul\":27496:27563   */\n      tag_293\n      jump\t// in\n    tag_576:\n        /* \"#utility.yul\":27489:27563   */\n      swap2\n      pop\n        /* \"#utility.yul\":27572:27665   */\n      tag_577\n        /* \"#utility.yul\":27661:27664   */\n      dup3\n        /* \"#utility.yul\":27572:27665   */\n      tag_352\n      jump\t// in\n    tag_577:\n        /* \"#utility.yul\":27690:27692   */\n      0x40\n        /* \"#utility.yul\":27685:27688   */\n      dup3\n        /* \"#utility.yul\":27681:27693   */\n      add\n        /* \"#utility.yul\":27674:27693   */\n      swap1\n      pop\n        /* \"#utility.yul\":27333:27699   */\n      swap2\n      swap1\n      pop\n      jump\t// out\n        /* \"#utility.yul\":27705:28124   */\n    tag_285:\n        /* \"#utility.yul\":27871:27875   */\n      0x00\n        /* \"#utility.yul\":27909:27911   */\n      0x20\n        /* \"#utility.yul\":27898:27907   */\n      dup3\n        /* \"#utility.yul\":27894:27912   */\n      add\n        /* \"#utility.yul\":27886:27912   */\n      swap1\n      pop\n        /* \"#utility.yul\":27958:27967   */\n      dup2\n        /* \"#utility.yul\":27952:27956   */\n      dup2\n        /* \"#utility.yul\":27948:27968   */\n      sub\n        /* \"#utility.yul\":27944:27945   */\n      0x00\n        /* \"#utility.yul\":27933:27942   */\n      dup4\n        /* \"#utility.yul\":27929:27946   */\n      add\n        /* \"#utility.yul\":27922:27969   */\n      mstore\n        /* \"#utility.yul\":27986:28117   */\n      tag_579\n        /* \"#utility.yul\":28112:28116   */\n      dup2\n        /* \"#utility.yul\":27986:28117   */\n      tag_353\n      jump\t// in\n    tag_579:\n        /* \"#utility.yul\":27978:28117   */\n      swap1\n      pop\n        /* \"#utility.yul\":27705:28124   */\n      swap2\n      swap1\n      pop\n      jump\t// out\n\n    auxdata: 0xa26469706673582212200e814ef177b4b3152fbfc72e6ac8d0133a677dd4c47e980d344d1eea7559236664736f6c634300080f0033\n}\n",
				"bytecode": {
					"linkReferences": {},
					"object": "60806040526305f5e1006003553480156200001957600080fd5b506040516200349c3803806200349c83398181016040528101906200003f91906200042d565b336000806101000a81548173ffffffffffffffffffffffffffffffffffffffff021916908373ffffffffffffffffffffffffffffffffffffffff16021790555060008054906101000a900473ffffffffffffffffffffffffffffffffffffffff1673ffffffffffffffffffffffffffffffffffffffff16600073ffffffffffffffffffffffffffffffffffffffff167f8be0079c531659141344cd1fd0a4f28419497f9722a3daafe3b4186f6b6457e060405160405180910390a3600180816001815401808255809150500390600052602060002090505083600790816200012891906200071e565b5082600690816200013a91906200071e565b5081600560006101000a81548160ff021916908360ff16021790555080600481905550600454600860003373ffffffffffffffffffffffffffffffffffffffff1673ffffffffffffffffffffffffffffffffffffffff168152602001908152602001600020819055503373ffffffffffffffffffffffffffffffffffffffff16600073ffffffffffffffffffffffffffffffffffffffff167fddf252ad1be2c89b69c2b068fc378daa952ba7f163c4a11628f55a4df523b3ef60045460405162000205919062000816565b60405180910390a35050505062000833565b6000604051905090565b600080fd5b600080fd5b600080fd5b600080fd5b6000601f19601f8301169050919050565b7f4e487b7100000000000000000000000000000000000000000000000000000000600052604160045260246000fd5b620002808262000235565b810181811067ffffffffffffffff82111715620002a257620002a162000246565b5b80604052505050565b6000620002b762000217565b9050620002c5828262000275565b919050565b600067ffffffffffffffff821115620002e857620002e762000246565b5b620002f38262000235565b9050602081019050919050565b60005b838110156200032057808201518184015260208101905062000303565b8381111562000330576000848401525b50505050565b60006200034d6200034784620002ca565b620002ab565b9050828152602081018484840111156200036c576200036b62000230565b5b6200037984828562000300565b509392505050565b600082601f8301126200039957620003986200022b565b5b8151620003ab84826020860162000336565b91505092915050565b600060ff82169050919050565b620003cc81620003b4565b8114620003d857600080fd5b50565b600081519050620003ec81620003c1565b92915050565b6000819050919050565b6200040781620003f2565b81146200041357600080fd5b50565b6000815190506200042781620003fc565b92915050565b600080600080608085870312156200044a576200044962000221565b5b600085015167ffffffffffffffff8111156200046b576200046a62000226565b5b620004798782880162000381565b945050602085015167ffffffffffffffff8111156200049d576200049c62000226565b5b620004ab8782880162000381565b9350506040620004be87828801620003db565b9250506060620004d18782880162000416565b91505092959194509250565b600081519050919050565b7f4e487b7100000000000000000000000000000000000000000000000000000000600052602260045260246000fd5b600060028204905060018216806200053057607f821691505b602082108103620005465762000545620004e8565b5b50919050565b60008190508160005260206000209050919050565b60006020601f8301049050919050565b600082821b905092915050565b600060088302620005b07fffffffffffffffffffffffffffffffffffffffffffffffffffffffffffffffff8262000571565b620005bc868362000571565b95508019841693508086168417925050509392505050565b6000819050919050565b6000620005ff620005f9620005f384620003f2565b620005d4565b620003f2565b9050919050565b6000819050919050565b6200061b83620005de565b620006336200062a8262000606565b8484546200057e565b825550505050565b600090565b6200064a6200063b565b6200065781848462000610565b505050565b5b818110156200067f576200067360008262000640565b6001810190506200065d565b5050565b601f821115620006ce5762000698816200054c565b620006a38462000561565b81016020851015620006b3578190505b620006cb620006c28562000561565b8301826200065c565b50505b505050565b600082821c905092915050565b6000620006f360001984600802620006d3565b1980831691505092915050565b60006200070e8383620006e0565b9150826002028217905092915050565b6200072982620004dd565b67ffffffffffffffff81111562000745576200074462000246565b5b62000751825462000517565b6200075e82828562000683565b600060209050601f83116001811462000796576000841562000781578287015190505b6200078d858262000700565b865550620007fd565b601f198416620007a6866200054c565b60005b82811015620007d057848901518255600182019150602085019450602081019050620007a9565b86831015620007f05784890151620007ec601f891682620006e0565b8355505b6001600288020188555050505b505050505050565b6200081081620003f2565b82525050565b60006020820190506200082d600083018462000805565b92915050565b612c5980620008436000396000f3fe608060405234801561001057600080fd5b50600436106101215760003560e01c8063893d20e8116100ad578063a694fc3a11610071578063a694fc3a14610320578063a9059cbb1461033c578063dd62ed3e1461036c578063e73e14bf1461039c578063f2fde38b146103cc57610121565b8063893d20e8146102665780638da5cb5b1461028457806395d89b41146102a25780639dc29fac146102c0578063a457c2d7146102f057610121565b8063279f9b11116100f4578063279f9b11146101c2578063313ce567146101de57806339509351146101fc57806370a082311461022c578063715018a61461025c57610121565b806306fdde0314610126578063095ea7b31461014457806318160ddd1461017457806323b872dd14610192575b600080fd5b61012e6103e8565b60405161013b9190611dbd565b60405180910390f35b61015e60048036038101906101599190611e78565b6103ff565b60405161016b9190611ed3565b60405180910390f35b61017c610416565b6040516101899190611efd565b60405180910390f35b6101ac60048036038101906101a79190611f18565b610420565b6040516101b99190611ed3565b60405180910390f35b6101dc60048036038101906101d79190611f6b565b610589565b005b6101e66105b2565b6040516101f39190611fda565b60405180910390f35b61021660048036038101906102119190611e78565b6105c9565b6040516102239190611ed3565b60405180910390f35b61024660048036038101906102419190611ff5565b610667565b6040516102539190611efd565b60405180910390f35b6102646106b0565b005b61026e6107fc565b60405161027b9190612031565b60405180910390f35b61028c61080b565b6040516102999190612031565b60405180910390f35b6102aa610834565b6040516102b79190611dbd565b60405180910390f35b6102da60048036038101906102d59190611e78565b6108c6565b6040516102e79190611ed3565b60405180910390f35b61030a60048036038101906103059190611e78565b61096a565b6040516103179190611ed3565b60405180910390f35b61033a6004803603810190610335919061204c565b610a08565b005b61035660048036038101906103519190611e78565b610a9f565b6040516103639190611ed3565b60405180910390f35b61038660048036038101906103819190612079565b610ab6565b6040516103939190611efd565b60405180910390f35b6103b660048036038101906103b19190611ff5565b610b3d565b6040516103c39190612218565b60405180910390f35b6103e660048036038101906103e19190611ff5565b610d4a565b005b606060405180602001604052806000815250905090565b600061040c338484610de4565b6001905092915050565b6000600454905090565b600081600960008673ffffffffffffffffffffffffffffffffffffffff1673ffffffffffffffffffffffffffffffffffffffff16815260200190815260200160002060003373ffffffffffffffffffffffffffffffffffffffff1673ffffffffffffffffffffffffffffffffffffffff1681526020019081526020016000205410156104e1576040517f08c379a00000000000000000000000000000000000000000000000000000000081526004016104d8906122ac565b60405180910390fd5b6104ec848484610fad565b61057e843384600960008973ffffffffffffffffffffffffffffffffffffffff1673ffffffffffffffffffffffffffffffffffffffff16815260200190815260200160002060003373ffffffffffffffffffffffffffffffffffffffff1673ffffffffffffffffffffffffffffffffffffffff1681526020019081526020016000205461057991906122fb565b610de4565b600190509392505050565b60006105a0828561059a919061232f565b84611293565b90506105ac338261155b565b50505050565b6000600560009054906101000a900460ff16905090565b600061065d338484600960003373ffffffffffffffffffffffffffffffffffffffff1673ffffffffffffffffffffffffffffffffffffffff16815260200190815260200160002060008873ffffffffffffffffffffffffffffffffffffffff1673ffffffffffffffffffffffffffffffffffffffff16815260200190815260200160002054610658919061232f565b610de4565b6001905092915050565b6000600860008373ffffffffffffffffffffffffffffffffffffffff1673ffffffffffffffffffffffffffffffffffffffff168152602001908152602001600020549050919050565b3373ffffffffffffffffffffffffffffffffffffffff1660008054906101000a900473ffffffffffffffffffffffffffffffffffffffff1673ffffffffffffffffffffffffffffffffffffffff161461073e576040517f08c379a0000000000000000000000000000000000000000000000000000000008152600401610735906123f7565b60405180910390fd5b600073ffffffffffffffffffffffffffffffffffffffff1660008054906101000a900473ffffffffffffffffffffffffffffffffffffffff1673ffffffffffffffffffffffffffffffffffffffff167f8be0079c531659141344cd1fd0a4f28419497f9722a3daafe3b4186f6b6457e060405160405180910390a360008060006101000a81548173ffffffffffffffffffffffffffffffffffffffff021916908373ffffffffffffffffffffffffffffffffffffffff160217905550565b600061080661080b565b905090565b60008060009054906101000a900473ffffffffffffffffffffffffffffffffffffffff16905090565b60606006805461084390612446565b80601f016020809104026020016040519081016040528092919081815260200182805461086f90612446565b80156108bc5780601f10610891576101008083540402835291602001916108bc565b820191906000526020600020905b81548152906001019060200180831161089f57829003601f168201915b5050505050905090565b60003373ffffffffffffffffffffffffffffffffffffffff1660008054906101000a900473ffffffffffffffffffffffffffffffffffffffff1673ffffffffffffffffffffffffffffffffffffffff1614610956576040517f08c379a000000000000000000000000000000000000000000000000000000000815260040161094d906123f7565b60405180910390fd5b61096083836116d6565b6001905092915050565b60006109fe338484600960003373ffffffffffffffffffffffffffffffffffffffff1673ffffffffffffffffffffffffffffffffffffffff16815260200190815260200160002060008873ffffffffffffffffffffffffffffffffffffffff1673ffffffffffffffffffffffffffffffffffffffff168152602001908152602001600020546109f991906122fb565b610de4565b6001905092915050565b600860003373ffffffffffffffffffffffffffffffffffffffff1673ffffffffffffffffffffffffffffffffffffffff168152602001908152602001600020548110610a89576040517f08c379a0000000000000000000000000000000000000000000000000000000008152600401610a80906124e9565b60405180910390fd5b610a92816118d3565b610a9c33826116d6565b50565b6000610aac338484610fad565b6001905092915050565b6000600960008473ffffffffffffffffffffffffffffffffffffffff1673ffffffffffffffffffffffffffffffffffffffff16815260200190815260200160002060008373ffffffffffffffffffffffffffffffffffffffff1673ffffffffffffffffffffffffffffffffffffffff16815260200190815260200160002054905092915050565b610b45611d0a565b6000806040518060400160405280600081526020016001600260008873ffffffffffffffffffffffffffffffffffffffff1673ffffffffffffffffffffffffffffffffffffffff1681526020019081526020016000205481548110610bad57610bac612509565b5b9060005260206000209060020201600101805480602002602001604051908101604052809291908181526020016000905b82821015610c8457838290600052602060002090600402016040518060800160405290816000820160009054906101000a900473ffffffffffffffffffffffffffffffffffffffff1673ffffffffffffffffffffffffffffffffffffffff1673ffffffffffffffffffffffffffffffffffffffff168152602001600182015481526020016002820154815260200160038201548152505081526020019060010190610bde565b50505050815250905060005b816020015151811015610d35576000610cc683602001518381518110610cb957610cb8612509565b5b6020026020010151611ab7565b90508083602001518381518110610ce057610cdf612509565b5b6020026020010151606001818152505082602001518281518110610d0757610d06612509565b5b60200260200101516020015184610d1e919061232f565b935050600181610d2e919061232f565b9050610c90565b50818160000181815250508092505050919050565b3373ffffffffffffffffffffffffffffffffffffffff1660008054906101000a900473ffffffffffffffffffffffffffffffffffffffff1673ffffffffffffffffffffffffffffffffffffffff1614610dd8576040517f08c379a0000000000000000000000000000000000000000000000000000000008152600401610dcf906123f7565b60405180910390fd5b610de181611af9565b50565b600073ffffffffffffffffffffffffffffffffffffffff168373ffffffffffffffffffffffffffffffffffffffff1603610e53576040517f08c379a0000000000000000000000000000000000000000000000000000000008152600401610e4a906125aa565b60405180910390fd5b600073ffffffffffffffffffffffffffffffffffffffff168273ffffffffffffffffffffffffffffffffffffffff1603610ec2576040517f08c379a0000000000000000000000000000000000000000000000000000000008152600401610eb99061263c565b60405180910390fd5b80600960008573ffffffffffffffffffffffffffffffffffffffff1673ffffffffffffffffffffffffffffffffffffffff16815260200190815260200160002060008473ffffffffffffffffffffffffffffffffffffffff1673ffffffffffffffffffffffffffffffffffffffff168152602001908152602001600020819055508173ffffffffffffffffffffffffffffffffffffffff168373ffffffffffffffffffffffffffffffffffffffff167f8c5be1e5ebec7d5bd14f71427d1e84f3dd0314c0f7b2291e5b200ac8c7c3b92583604051610fa09190611efd565b60405180910390a3505050565b600073ffffffffffffffffffffffffffffffffffffffff168373ffffffffffffffffffffffffffffffffffffffff160361101c576040517f08c379a0000000000000000000000000000000000000000000000000000000008152600401611013906126ce565b60405180910390fd5b600073ffffffffffffffffffffffffffffffffffffffff168273ffffffffffffffffffffffffffffffffffffffff160361108b576040517f08c379a00000000000000000000000000000000000000000000000000000000081526004016110829061273a565b60405180910390fd5b80600860008573ffffffffffffffffffffffffffffffffffffffff1673ffffffffffffffffffffffffffffffffffffffff16815260200190815260200160002054101561110d576040517f08c379a0000000000000000000000000000000000000000000000000000000008152600401611104906127cc565b60405180910390fd5b80600860008573ffffffffffffffffffffffffffffffffffffffff1673ffffffffffffffffffffffffffffffffffffffff1681526020019081526020016000205461115891906122fb565b600860008573ffffffffffffffffffffffffffffffffffffffff1673ffffffffffffffffffffffffffffffffffffffff1681526020019081526020016000208190555080600860008473ffffffffffffffffffffffffffffffffffffffff1673ffffffffffffffffffffffffffffffffffffffff168152602001908152602001600020546111e6919061232f565b600860008473ffffffffffffffffffffffffffffffffffffffff1673ffffffffffffffffffffffffffffffffffffffff168152602001908152602001600020819055508173ffffffffffffffffffffffffffffffffffffffff168373ffffffffffffffffffffffffffffffffffffffff167fddf252ad1be2c89b69c2b068fc378daa952ba7f163c4a11628f55a4df523b3ef836040516112869190611efd565b60405180910390a3505050565b600080600260003373ffffffffffffffffffffffffffffffffffffffff1673ffffffffffffffffffffffffffffffffffffffff1681526020019081526020016000205490506000600182815481106112ee576112ed612509565b5b9060005260206000209060020201600101848154811061131157611310612509565b5b90600052602060002090600402016040518060800160405290816000820160009054906101000a900473ffffffffffffffffffffffffffffffffffffffff1673ffffffffffffffffffffffffffffffffffffffff1673ffffffffffffffffffffffffffffffffffffffff1681526020016001820154815260200160028201548152602001600382015481525050905084816020015110156113e7576040517f08c379a00000000000000000000000000000000000000000000000000000000081526004016113de9061285e565b60405180910390fd5b60006113f282611ab7565b905085826020015161140491906122fb565b82602001818152505060008260200151036114a5576001838154811061142d5761142c612509565b5b906000526020600020906002020160010185815481106114505761144f612509565b5b9060005260206000209060040201600080820160006101000a81549073ffffffffffffffffffffffffffffffffffffffff02191690556001820160009055600282016000905560038201600090555050611544565b8160200151600184815481106114be576114bd612509565b5b906000526020600020906002020160010186815481106114e1576114e0612509565b5b906000526020600020906004020160010181905550426001848154811061150b5761150a612509565b5b9060005260206000209060020201600101868154811061152e5761152d612509565b5b9060005260206000209060040201600201819055505b8086611550919061232f565b935050505092915050565b600073ffffffffffffffffffffffffffffffffffffffff168273ffffffffffffffffffffffffffffffffffffffff16036115ca576040517f08c379a00000000000000000000000000000000000000000000000000000000081526004016115c1906128f0565b60405180910390fd5b806004546115d8919061232f565b60048190555080600860008473ffffffffffffffffffffffffffffffffffffffff1673ffffffffffffffffffffffffffffffffffffffff16815260200190815260200160002054611629919061232f565b600860008473ffffffffffffffffffffffffffffffffffffffff1673ffffffffffffffffffffffffffffffffffffffff168152602001908152602001600020819055508173ffffffffffffffffffffffffffffffffffffffff16600073ffffffffffffffffffffffffffffffffffffffff167fddf252ad1be2c89b69c2b068fc378daa952ba7f163c4a11628f55a4df523b3ef836040516116ca9190611efd565b60405180910390a35050565b600073ffffffffffffffffffffffffffffffffffffffff168273ffffffffffffffffffffffffffffffffffffffff1603611745576040517f08c379a000000000000000000000000000000000000000000000000000000000815260040161173c90612982565b60405180910390fd5b80600860008473ffffffffffffffffffffffffffffffffffffffff1673ffffffffffffffffffffffffffffffffffffffff1681526020019081526020016000205410156117c7576040517f08c379a00000000000000000000000000000000000000000000000000000000081526004016117be90612a14565b60405180910390fd5b80600860008473ffffffffffffffffffffffffffffffffffffffff1673ffffffffffffffffffffffffffffffffffffffff1681526020019081526020016000205461181291906122fb565b600860008473ffffffffffffffffffffffffffffffffffffffff1673ffffffffffffffffffffffffffffffffffffffff168152602001908152602001600020819055508060045461186391906122fb565b600481905550600073ffffffffffffffffffffffffffffffffffffffff168273ffffffffffffffffffffffffffffffffffffffff167fddf252ad1be2c89b69c2b068fc378daa952ba7f163c4a11628f55a4df523b3ef836040516118c79190611efd565b60405180910390a35050565b60008111611916576040517f08c379a000000000000000000000000000000000000000000000000000000000815260040161190d90612a80565b60405180910390fd5b6000600260003373ffffffffffffffffffffffffffffffffffffffff1673ffffffffffffffffffffffffffffffffffffffff1681526020019081526020016000205490506000429050600082036119735761197033611c25565b91505b6001828154811061198757611986612509565b5b906000526020600020906002020160010160405180608001604052803373ffffffffffffffffffffffffffffffffffffffff1681526020018581526020018381526020016000815250908060018154018082558091505060019003906000526020600020906004020160009091909190915060008201518160000160006101000a81548173ffffffffffffffffffffffffffffffffffffffff021916908373ffffffffffffffffffffffffffffffffffffffff16021790555060208201518160010155604082015181600201556060820151816003015550503373ffffffffffffffffffffffffffffffffffffffff167fb4caaf29adda3eefee3ad552a8e85058589bf834c7466cae4ee58787f70589ed848484604051611aaa93929190612aa0565b60405180910390a2505050565b60006003548260200151610e10846040015142611ad491906122fb565b611ade9190612b06565b611ae89190612b37565b611af29190612b06565b9050919050565b600073ffffffffffffffffffffffffffffffffffffffff168173ffffffffffffffffffffffffffffffffffffffff1603611b68576040517f08c379a0000000000000000000000000000000000000000000000000000000008152600401611b5f90612c03565b60405180910390fd5b8073ffffffffffffffffffffffffffffffffffffffff1660008054906101000a900473ffffffffffffffffffffffffffffffffffffffff1673ffffffffffffffffffffffffffffffffffffffff167f8be0079c531659141344cd1fd0a4f28419497f9722a3daafe3b4186f6b6457e060405160405180910390a3806000806101000a81548173ffffffffffffffffffffffffffffffffffffffff021916908373ffffffffffffffffffffffffffffffffffffffff16021790555050565b60006001808160018154018082558091505003906000526020600020905050600060018080549050611c5791906122fb565b90508260018281548110611c6e57611c6d612509565b5b906000526020600020906002020160000160006101000a81548173ffffffffffffffffffffffffffffffffffffffff021916908373ffffffffffffffffffffffffffffffffffffffff16021790555080600260008573ffffffffffffffffffffffffffffffffffffffff1673ffffffffffffffffffffffffffffffffffffffff1681526020019081526020016000208190555080915050919050565b604051806040016040528060008152602001606081525090565b600081519050919050565b600082825260208201905092915050565b60005b83811015611d5e578082015181840152602081019050611d43565b83811115611d6d576000848401525b50505050565b6000601f19601f8301169050919050565b6000611d8f82611d24565b611d998185611d2f565b9350611da9818560208601611d40565b611db281611d73565b840191505092915050565b60006020820190508181036000830152611dd78184611d84565b905092915050565b600080fd5b600073ffffffffffffffffffffffffffffffffffffffff82169050919050565b6000611e0f82611de4565b9050919050565b611e1f81611e04565b8114611e2a57600080fd5b50565b600081359050611e3c81611e16565b92915050565b6000819050919050565b611e5581611e42565b8114611e6057600080fd5b50565b600081359050611e7281611e4c565b92915050565b60008060408385031215611e8f57611e8e611ddf565b5b6000611e9d85828601611e2d565b9250506020611eae85828601611e63565b9150509250929050565b60008115159050919050565b611ecd81611eb8565b82525050565b6000602082019050611ee86000830184611ec4565b92915050565b611ef781611e42565b82525050565b6000602082019050611f126000830184611eee565b92915050565b600080600060608486031215611f3157611f30611ddf565b5b6000611f3f86828701611e2d565b9350506020611f5086828701611e2d565b9250506040611f6186828701611e63565b9150509250925092565b600080600060608486031215611f8457611f83611ddf565b5b6000611f9286828701611e63565b9350506020611fa386828701611e63565b9250506040611fb486828701611e63565b9150509250925092565b600060ff82169050919050565b611fd481611fbe565b82525050565b6000602082019050611fef6000830184611fcb565b92915050565b60006020828403121561200b5761200a611ddf565b5b600061201984828501611e2d565b91505092915050565b61202b81611e04565b82525050565b60006020820190506120466000830184612022565b92915050565b60006020828403121561206257612061611ddf565b5b600061207084828501611e63565b91505092915050565b600080604083850312156120905761208f611ddf565b5b600061209e85828601611e2d565b92505060206120af85828601611e2d565b9150509250929050565b6120c281611e42565b82525050565b600081519050919050565b600082825260208201905092915050565b6000819050602082019050919050565b6120fd81611e04565b82525050565b60808201600082015161211960008501826120f4565b50602082015161212c60208501826120b9565b50604082015161213f60408501826120b9565b50606082015161215260608501826120b9565b50505050565b60006121648383612103565b60808301905092915050565b6000602082019050919050565b6000612188826120c8565b61219281856120d3565b935061219d836120e4565b8060005b838110156121ce5781516121b58882612158565b97506121c083612170565b9250506001810190506121a1565b5085935050505092915050565b60006040830160008301516121f360008601826120b9565b506020830151848203602086015261220b828261217d565b9150508091505092915050565b6000602082019050818103600083015261223281846121db565b905092915050565b7f4d657472613a20596f752063616e6e6f74207370656e642074686174206d756360008201527f68206f6e2074686973206163636f756e74000000000000000000000000000000602082015250565b6000612296603183611d2f565b91506122a18261223a565b604082019050919050565b600060208201905081810360008301526122c581612289565b9050919050565b7f4e487b7100000000000000000000000000000000000000000000000000000000600052601160045260246000fd5b600061230682611e42565b915061231183611e42565b925082821015612324576123236122cc565b5b828203905092915050565b600061233a82611e42565b915061234583611e42565b9250827fffffffffffffffffffffffffffffffffffffffffffffffffffffffffffffffff0382111561237a576123796122cc565b5b828201905092915050565b7f4f776e61626c653a206f6e6c79206f776e65722063616e2063616c6c2074686960008201527f732066756e6374696f6e00000000000000000000000000000000000000000000602082015250565b60006123e1602a83611d2f565b91506123ec82612385565b604082019050919050565b60006020820190508181036000830152612410816123d4565b9050919050565b7f4e487b7100000000000000000000000000000000000000000000000000000000600052602260045260246000fd5b6000600282049050600182168061245e57607f821691505b60208210810361247157612470612417565b5b50919050565b7f4d657472613a2043616e6e6f74207374616b65206d6f7265207468616e20796f60008201527f75206f776e000000000000000000000000000000000000000000000000000000602082015250565b60006124d3602583611d2f565b91506124de82612477565b604082019050919050565b60006020820190508181036000830152612502816124c6565b9050919050565b7f4e487b7100000000000000000000000000000000000000000000000000000000600052603260045260246000fd5b7f4d657472613a20617070726f76652063616e6e6f7420626520646f6e6520667260008201527f6f6d207a65726f20616464726573730000000000000000000000000000000000602082015250565b6000612594602f83611d2f565b915061259f82612538565b604082019050919050565b600060208201905081810360008301526125c381612587565b9050919050565b7f4d657472613a20617070726f76652063616e6e6f7420626520746f207a65726f60008201527f2061646472657373000000000000000000000000000000000000000000000000602082015250565b6000612626602883611d2f565b9150612631826125ca565b604082019050919050565b6000602082019050818103600083015261265581612619565b9050919050565b7f4d657472613a207472616e736665722066726f6d207a65726f2061646472657360008201527f7300000000000000000000000000000000000000000000000000000000000000602082015250565b60006126b8602183611d2f565b91506126c38261265c565b604082019050919050565b600060208201905081810360008301526126e7816126ab565b9050919050565b7f4d657472613a207472616e7366657220746f207a65726f206164647265737300600082015250565b6000612724601f83611d2f565b915061272f826126ee565b602082019050919050565b6000602082019050818103600083015261275381612717565b9050919050565b7f4d657472613a2063616e74207472616e73666572206d6f7265207468616e207960008201527f6f7572206163636f756e7420686f6c6473000000000000000000000000000000602082015250565b60006127b6603183611d2f565b91506127c18261275a565b604082019050919050565b600060208201905081810360008301526127e5816127a9565b9050919050565b7f5374616b696e673a2043616e6e6f74207769746864726177206d6f726520746860008201527f616e20796f752068617665207374616b65640000000000000000000000000000602082015250565b6000612848603283611d2f565b9150612853826127ec565b604082019050919050565b600060208201905081810360008301526128778161283b565b9050919050565b7f4d657472613a2063616e6e6f74206d696e7420746f207a65726f20616464726560008201527f7373000000000000000000000000000000000000000000000000000000000000602082015250565b60006128da602283611d2f565b91506128e58261287e565b604082019050919050565b60006020820190508181036000830152612909816128cd565b9050919050565b7f4d657472613a2063616e6e6f74206275726e2066726f6d207a65726f2061646460008201527f7265737300000000000000000000000000000000000000000000000000000000602082015250565b600061296c602483611d2f565b915061297782612910565b604082019050919050565b6000602082019050818103600083015261299b8161295f565b9050919050565b7f4d657472613a2043616e6e6f74206275726e206d6f7265207468616e2074686560008201527f206163636f756e74206f776e7300000000000000000000000000000000000000602082015250565b60006129fe602d83611d2f565b9150612a09826129a2565b604082019050919050565b60006020820190508181036000830152612a2d816129f1565b9050919050565b7f43616e6e6f74207374616b65206e6f7468696e67000000000000000000000000600082015250565b6000612a6a601483611d2f565b9150612a7582612a34565b602082019050919050565b60006020820190508181036000830152612a9981612a5d565b9050919050565b6000606082019050612ab56000830186611eee565b612ac26020830185611eee565b612acf6040830184611eee565b949350505050565b7f4e487b7100000000000000000000000000000000000000000000000000000000600052601260045260246000fd5b6000612b1182611e42565b9150612b1c83611e42565b925082612b2c57612b2b612ad7565b5b828204905092915050565b6000612b4282611e42565b9150612b4d83611e42565b9250817fffffffffffffffffffffffffffffffffffffffffffffffffffffffffffffffff0483118215151615612b8657612b856122cc565b5b828202905092915050565b7f4f776e61626c653a206e6577206f776e657220697320746865207a65726f206160008201527f6464726573730000000000000000000000000000000000000000000000000000602082015250565b6000612bed602683611d2f565b9150612bf882612b91565b604082019050919050565b60006020820190508181036000830152612c1c81612be0565b905091905056fea26469706673582212200e814ef177b4b3152fbfc72e6ac8d0133a677dd4c47e980d344d1eea7559236664736f6c634300080f0033",
					"opcodes": "PUSH1 0x80 PUSH1 0x40 MSTORE PUSH4 0x5F5E100 PUSH1 0x3 SSTORE CALLVALUE DUP1 ISZERO PUSH3 0x19 JUMPI PUSH1 0x0 DUP1 REVERT JUMPDEST POP PUSH1 0x40 MLOAD PUSH3 0x349C CODESIZE SUB DUP1 PUSH3 0x349C DUP4 CODECOPY DUP2 DUP2 ADD PUSH1 0x40 MSTORE DUP2 ADD SWAP1 PUSH3 0x3F SWAP2 SWAP1 PUSH3 0x42D JUMP JUMPDEST CALLER PUSH1 0x0 DUP1 PUSH2 0x100 EXP DUP2 SLOAD DUP2 PUSH20 0xFFFFFFFFFFFFFFFFFFFFFFFFFFFFFFFFFFFFFFFF MUL NOT AND SWAP1 DUP4 PUSH20 0xFFFFFFFFFFFFFFFFFFFFFFFFFFFFFFFFFFFFFFFF AND MUL OR SWAP1 SSTORE POP PUSH1 0x0 DUP1 SLOAD SWAP1 PUSH2 0x100 EXP SWAP1 DIV PUSH20 0xFFFFFFFFFFFFFFFFFFFFFFFFFFFFFFFFFFFFFFFF AND PUSH20 0xFFFFFFFFFFFFFFFFFFFFFFFFFFFFFFFFFFFFFFFF AND PUSH1 0x0 PUSH20 0xFFFFFFFFFFFFFFFFFFFFFFFFFFFFFFFFFFFFFFFF AND PUSH32 0x8BE0079C531659141344CD1FD0A4F28419497F9722A3DAAFE3B4186F6B6457E0 PUSH1 0x40 MLOAD PUSH1 0x40 MLOAD DUP1 SWAP2 SUB SWAP1 LOG3 PUSH1 0x1 DUP1 DUP2 PUSH1 0x1 DUP2 SLOAD ADD DUP1 DUP3 SSTORE DUP1 SWAP2 POP POP SUB SWAP1 PUSH1 0x0 MSTORE PUSH1 0x20 PUSH1 0x0 KECCAK256 SWAP1 POP POP DUP4 PUSH1 0x7 SWAP1 DUP2 PUSH3 0x128 SWAP2 SWAP1 PUSH3 0x71E JUMP JUMPDEST POP DUP3 PUSH1 0x6 SWAP1 DUP2 PUSH3 0x13A SWAP2 SWAP1 PUSH3 0x71E JUMP JUMPDEST POP DUP2 PUSH1 0x5 PUSH1 0x0 PUSH2 0x100 EXP DUP2 SLOAD DUP2 PUSH1 0xFF MUL NOT AND SWAP1 DUP4 PUSH1 0xFF AND MUL OR SWAP1 SSTORE POP DUP1 PUSH1 0x4 DUP2 SWAP1 SSTORE POP PUSH1 0x4 SLOAD PUSH1 0x8 PUSH1 0x0 CALLER PUSH20 0xFFFFFFFFFFFFFFFFFFFFFFFFFFFFFFFFFFFFFFFF AND PUSH20 0xFFFFFFFFFFFFFFFFFFFFFFFFFFFFFFFFFFFFFFFF AND DUP2 MSTORE PUSH1 0x20 ADD SWAP1 DUP2 MSTORE PUSH1 0x20 ADD PUSH1 0x0 KECCAK256 DUP2 SWAP1 SSTORE POP CALLER PUSH20 0xFFFFFFFFFFFFFFFFFFFFFFFFFFFFFFFFFFFFFFFF AND PUSH1 0x0 PUSH20 0xFFFFFFFFFFFFFFFFFFFFFFFFFFFFFFFFFFFFFFFF AND PUSH32 0xDDF252AD1BE2C89B69C2B068FC378DAA952BA7F163C4A11628F55A4DF523B3EF PUSH1 0x4 SLOAD PUSH1 0x40 MLOAD PUSH3 0x205 SWAP2 SWAP1 PUSH3 0x816 JUMP JUMPDEST PUSH1 0x40 MLOAD DUP1 SWAP2 SUB SWAP1 LOG3 POP POP POP POP PUSH3 0x833 JUMP JUMPDEST PUSH1 0x0 PUSH1 0x40 MLOAD SWAP1 POP SWAP1 JUMP JUMPDEST PUSH1 0x0 DUP1 REVERT JUMPDEST PUSH1 0x0 DUP1 REVERT JUMPDEST PUSH1 0x0 DUP1 REVERT JUMPDEST PUSH1 0x0 DUP1 REVERT JUMPDEST PUSH1 0x0 PUSH1 0x1F NOT PUSH1 0x1F DUP4 ADD AND SWAP1 POP SWAP2 SWAP1 POP JUMP JUMPDEST PUSH32 0x4E487B7100000000000000000000000000000000000000000000000000000000 PUSH1 0x0 MSTORE PUSH1 0x41 PUSH1 0x4 MSTORE PUSH1 0x24 PUSH1 0x0 REVERT JUMPDEST PUSH3 0x280 DUP3 PUSH3 0x235 JUMP JUMPDEST DUP2 ADD DUP2 DUP2 LT PUSH8 0xFFFFFFFFFFFFFFFF DUP3 GT OR ISZERO PUSH3 0x2A2 JUMPI PUSH3 0x2A1 PUSH3 0x246 JUMP JUMPDEST JUMPDEST DUP1 PUSH1 0x40 MSTORE POP POP POP JUMP JUMPDEST PUSH1 0x0 PUSH3 0x2B7 PUSH3 0x217 JUMP JUMPDEST SWAP1 POP PUSH3 0x2C5 DUP3 DUP3 PUSH3 0x275 JUMP JUMPDEST SWAP2 SWAP1 POP JUMP JUMPDEST PUSH1 0x0 PUSH8 0xFFFFFFFFFFFFFFFF DUP3 GT ISZERO PUSH3 0x2E8 JUMPI PUSH3 0x2E7 PUSH3 0x246 JUMP JUMPDEST JUMPDEST PUSH3 0x2F3 DUP3 PUSH3 0x235 JUMP JUMPDEST SWAP1 POP PUSH1 0x20 DUP2 ADD SWAP1 POP SWAP2 SWAP1 POP JUMP JUMPDEST PUSH1 0x0 JUMPDEST DUP4 DUP2 LT ISZERO PUSH3 0x320 JUMPI DUP1 DUP3 ADD MLOAD DUP2 DUP5 ADD MSTORE PUSH1 0x20 DUP2 ADD SWAP1 POP PUSH3 0x303 JUMP JUMPDEST DUP4 DUP2 GT ISZERO PUSH3 0x330 JUMPI PUSH1 0x0 DUP5 DUP5 ADD MSTORE JUMPDEST POP POP POP POP JUMP JUMPDEST PUSH1 0x0 PUSH3 0x34D PUSH3 0x347 DUP5 PUSH3 0x2CA JUMP JUMPDEST PUSH3 0x2AB JUMP JUMPDEST SWAP1 POP DUP3 DUP2 MSTORE PUSH1 0x20 DUP2 ADD DUP5 DUP5 DUP5 ADD GT ISZERO PUSH3 0x36C JUMPI PUSH3 0x36B PUSH3 0x230 JUMP JUMPDEST JUMPDEST PUSH3 0x379 DUP5 DUP3 DUP6 PUSH3 0x300 JUMP JUMPDEST POP SWAP4 SWAP3 POP POP POP JUMP JUMPDEST PUSH1 0x0 DUP3 PUSH1 0x1F DUP4 ADD SLT PUSH3 0x399 JUMPI PUSH3 0x398 PUSH3 0x22B JUMP JUMPDEST JUMPDEST DUP2 MLOAD PUSH3 0x3AB DUP5 DUP3 PUSH1 0x20 DUP7 ADD PUSH3 0x336 JUMP JUMPDEST SWAP2 POP POP SWAP3 SWAP2 POP POP JUMP JUMPDEST PUSH1 0x0 PUSH1 0xFF DUP3 AND SWAP1 POP SWAP2 SWAP1 POP JUMP JUMPDEST PUSH3 0x3CC DUP2 PUSH3 0x3B4 JUMP JUMPDEST DUP2 EQ PUSH3 0x3D8 JUMPI PUSH1 0x0 DUP1 REVERT JUMPDEST POP JUMP JUMPDEST PUSH1 0x0 DUP2 MLOAD SWAP1 POP PUSH3 0x3EC DUP2 PUSH3 0x3C1 JUMP JUMPDEST SWAP3 SWAP2 POP POP JUMP JUMPDEST PUSH1 0x0 DUP2 SWAP1 POP SWAP2 SWAP1 POP JUMP JUMPDEST PUSH3 0x407 DUP2 PUSH3 0x3F2 JUMP JUMPDEST DUP2 EQ PUSH3 0x413 JUMPI PUSH1 0x0 DUP1 REVERT JUMPDEST POP JUMP JUMPDEST PUSH1 0x0 DUP2 MLOAD SWAP1 POP PUSH3 0x427 DUP2 PUSH3 0x3FC JUMP JUMPDEST SWAP3 SWAP2 POP POP JUMP JUMPDEST PUSH1 0x0 DUP1 PUSH1 0x0 DUP1 PUSH1 0x80 DUP6 DUP8 SUB SLT ISZERO PUSH3 0x44A JUMPI PUSH3 0x449 PUSH3 0x221 JUMP JUMPDEST JUMPDEST PUSH1 0x0 DUP6 ADD MLOAD PUSH8 0xFFFFFFFFFFFFFFFF DUP2 GT ISZERO PUSH3 0x46B JUMPI PUSH3 0x46A PUSH3 0x226 JUMP JUMPDEST JUMPDEST PUSH3 0x479 DUP8 DUP3 DUP9 ADD PUSH3 0x381 JUMP JUMPDEST SWAP5 POP POP PUSH1 0x20 DUP6 ADD MLOAD PUSH8 0xFFFFFFFFFFFFFFFF DUP2 GT ISZERO PUSH3 0x49D JUMPI PUSH3 0x49C PUSH3 0x226 JUMP JUMPDEST JUMPDEST PUSH3 0x4AB DUP8 DUP3 DUP9 ADD PUSH3 0x381 JUMP JUMPDEST SWAP4 POP POP PUSH1 0x40 PUSH3 0x4BE DUP8 DUP3 DUP9 ADD PUSH3 0x3DB JUMP JUMPDEST SWAP3 POP POP PUSH1 0x60 PUSH3 0x4D1 DUP8 DUP3 DUP9 ADD PUSH3 0x416 JUMP JUMPDEST SWAP2 POP POP SWAP3 SWAP6 SWAP2 SWAP5 POP SWAP3 POP JUMP JUMPDEST PUSH1 0x0 DUP2 MLOAD SWAP1 POP SWAP2 SWAP1 POP JUMP JUMPDEST PUSH32 0x4E487B7100000000000000000000000000000000000000000000000000000000 PUSH1 0x0 MSTORE PUSH1 0x22 PUSH1 0x4 MSTORE PUSH1 0x24 PUSH1 0x0 REVERT JUMPDEST PUSH1 0x0 PUSH1 0x2 DUP3 DIV SWAP1 POP PUSH1 0x1 DUP3 AND DUP1 PUSH3 0x530 JUMPI PUSH1 0x7F DUP3 AND SWAP2 POP JUMPDEST PUSH1 0x20 DUP3 LT DUP2 SUB PUSH3 0x546 JUMPI PUSH3 0x545 PUSH3 0x4E8 JUMP JUMPDEST JUMPDEST POP SWAP2 SWAP1 POP JUMP JUMPDEST PUSH1 0x0 DUP2 SWAP1 POP DUP2 PUSH1 0x0 MSTORE PUSH1 0x20 PUSH1 0x0 KECCAK256 SWAP1 POP SWAP2 SWAP1 POP JUMP JUMPDEST PUSH1 0x0 PUSH1 0x20 PUSH1 0x1F DUP4 ADD DIV SWAP1 POP SWAP2 SWAP1 POP JUMP JUMPDEST PUSH1 0x0 DUP3 DUP3 SHL SWAP1 POP SWAP3 SWAP2 POP POP JUMP JUMPDEST PUSH1 0x0 PUSH1 0x8 DUP4 MUL PUSH3 0x5B0 PUSH32 0xFFFFFFFFFFFFFFFFFFFFFFFFFFFFFFFFFFFFFFFFFFFFFFFFFFFFFFFFFFFFFFFF DUP3 PUSH3 0x571 JUMP JUMPDEST PUSH3 0x5BC DUP7 DUP4 PUSH3 0x571 JUMP JUMPDEST SWAP6 POP DUP1 NOT DUP5 AND SWAP4 POP DUP1 DUP7 AND DUP5 OR SWAP3 POP POP POP SWAP4 SWAP3 POP POP POP JUMP JUMPDEST PUSH1 0x0 DUP2 SWAP1 POP SWAP2 SWAP1 POP JUMP JUMPDEST PUSH1 0x0 PUSH3 0x5FF PUSH3 0x5F9 PUSH3 0x5F3 DUP5 PUSH3 0x3F2 JUMP JUMPDEST PUSH3 0x5D4 JUMP JUMPDEST PUSH3 0x3F2 JUMP JUMPDEST SWAP1 POP SWAP2 SWAP1 POP JUMP JUMPDEST PUSH1 0x0 DUP2 SWAP1 POP SWAP2 SWAP1 POP JUMP JUMPDEST PUSH3 0x61B DUP4 PUSH3 0x5DE JUMP JUMPDEST PUSH3 0x633 PUSH3 0x62A DUP3 PUSH3 0x606 JUMP JUMPDEST DUP5 DUP5 SLOAD PUSH3 0x57E JUMP JUMPDEST DUP3 SSTORE POP POP POP POP JUMP JUMPDEST PUSH1 0x0 SWAP1 JUMP JUMPDEST PUSH3 0x64A PUSH3 0x63B JUMP JUMPDEST PUSH3 0x657 DUP2 DUP5 DUP5 PUSH3 0x610 JUMP JUMPDEST POP POP POP JUMP JUMPDEST JUMPDEST DUP2 DUP2 LT ISZERO PUSH3 0x67F JUMPI PUSH3 0x673 PUSH1 0x0 DUP3 PUSH3 0x640 JUMP JUMPDEST PUSH1 0x1 DUP2 ADD SWAP1 POP PUSH3 0x65D JUMP JUMPDEST POP POP JUMP JUMPDEST PUSH1 0x1F DUP3 GT ISZERO PUSH3 0x6CE JUMPI PUSH3 0x698 DUP2 PUSH3 0x54C JUMP JUMPDEST PUSH3 0x6A3 DUP5 PUSH3 0x561 JUMP JUMPDEST DUP2 ADD PUSH1 0x20 DUP6 LT ISZERO PUSH3 0x6B3 JUMPI DUP2 SWAP1 POP JUMPDEST PUSH3 0x6CB PUSH3 0x6C2 DUP6 PUSH3 0x561 JUMP JUMPDEST DUP4 ADD DUP3 PUSH3 0x65C JUMP JUMPDEST POP POP JUMPDEST POP POP POP JUMP JUMPDEST PUSH1 0x0 DUP3 DUP3 SHR SWAP1 POP SWAP3 SWAP2 POP POP JUMP JUMPDEST PUSH1 0x0 PUSH3 0x6F3 PUSH1 0x0 NOT DUP5 PUSH1 0x8 MUL PUSH3 0x6D3 JUMP JUMPDEST NOT DUP1 DUP4 AND SWAP2 POP POP SWAP3 SWAP2 POP POP JUMP JUMPDEST PUSH1 0x0 PUSH3 0x70E DUP4 DUP4 PUSH3 0x6E0 JUMP JUMPDEST SWAP2 POP DUP3 PUSH1 0x2 MUL DUP3 OR SWAP1 POP SWAP3 SWAP2 POP POP JUMP JUMPDEST PUSH3 0x729 DUP3 PUSH3 0x4DD JUMP JUMPDEST PUSH8 0xFFFFFFFFFFFFFFFF DUP2 GT ISZERO PUSH3 0x745 JUMPI PUSH3 0x744 PUSH3 0x246 JUMP JUMPDEST JUMPDEST PUSH3 0x751 DUP3 SLOAD PUSH3 0x517 JUMP JUMPDEST PUSH3 0x75E DUP3 DUP3 DUP6 PUSH3 0x683 JUMP JUMPDEST PUSH1 0x0 PUSH1 0x20 SWAP1 POP PUSH1 0x1F DUP4 GT PUSH1 0x1 DUP2 EQ PUSH3 0x796 JUMPI PUSH1 0x0 DUP5 ISZERO PUSH3 0x781 JUMPI DUP3 DUP8 ADD MLOAD SWAP1 POP JUMPDEST PUSH3 0x78D DUP6 DUP3 PUSH3 0x700 JUMP JUMPDEST DUP7 SSTORE POP PUSH3 0x7FD JUMP JUMPDEST PUSH1 0x1F NOT DUP5 AND PUSH3 0x7A6 DUP7 PUSH3 0x54C JUMP JUMPDEST PUSH1 0x0 JUMPDEST DUP3 DUP2 LT ISZERO PUSH3 0x7D0 JUMPI DUP5 DUP10 ADD MLOAD DUP3 SSTORE PUSH1 0x1 DUP3 ADD SWAP2 POP PUSH1 0x20 DUP6 ADD SWAP5 POP PUSH1 0x20 DUP2 ADD SWAP1 POP PUSH3 0x7A9 JUMP JUMPDEST DUP7 DUP4 LT ISZERO PUSH3 0x7F0 JUMPI DUP5 DUP10 ADD MLOAD PUSH3 0x7EC PUSH1 0x1F DUP10 AND DUP3 PUSH3 0x6E0 JUMP JUMPDEST DUP4 SSTORE POP JUMPDEST PUSH1 0x1 PUSH1 0x2 DUP9 MUL ADD DUP9 SSTORE POP POP POP JUMPDEST POP POP POP POP POP POP JUMP JUMPDEST PUSH3 0x810 DUP2 PUSH3 0x3F2 JUMP JUMPDEST DUP3 MSTORE POP POP JUMP JUMPDEST PUSH1 0x0 PUSH1 0x20 DUP3 ADD SWAP1 POP PUSH3 0x82D PUSH1 0x0 DUP4 ADD DUP5 PUSH3 0x805 JUMP JUMPDEST SWAP3 SWAP2 POP POP JUMP JUMPDEST PUSH2 0x2C59 DUP1 PUSH3 0x843 PUSH1 0x0 CODECOPY PUSH1 0x0 RETURN INVALID PUSH1 0x80 PUSH1 0x40 MSTORE CALLVALUE DUP1 ISZERO PUSH2 0x10 JUMPI PUSH1 0x0 DUP1 REVERT JUMPDEST POP PUSH1 0x4 CALLDATASIZE LT PUSH2 0x121 JUMPI PUSH1 0x0 CALLDATALOAD PUSH1 0xE0 SHR DUP1 PUSH4 0x893D20E8 GT PUSH2 0xAD JUMPI DUP1 PUSH4 0xA694FC3A GT PUSH2 0x71 JUMPI DUP1 PUSH4 0xA694FC3A EQ PUSH2 0x320 JUMPI DUP1 PUSH4 0xA9059CBB EQ PUSH2 0x33C JUMPI DUP1 PUSH4 0xDD62ED3E EQ PUSH2 0x36C JUMPI DUP1 PUSH4 0xE73E14BF EQ PUSH2 0x39C JUMPI DUP1 PUSH4 0xF2FDE38B EQ PUSH2 0x3CC JUMPI PUSH2 0x121 JUMP JUMPDEST DUP1 PUSH4 0x893D20E8 EQ PUSH2 0x266 JUMPI DUP1 PUSH4 0x8DA5CB5B EQ PUSH2 0x284 JUMPI DUP1 PUSH4 0x95D89B41 EQ PUSH2 0x2A2 JUMPI DUP1 PUSH4 0x9DC29FAC EQ PUSH2 0x2C0 JUMPI DUP1 PUSH4 0xA457C2D7 EQ PUSH2 0x2F0 JUMPI PUSH2 0x121 JUMP JUMPDEST DUP1 PUSH4 0x279F9B11 GT PUSH2 0xF4 JUMPI DUP1 PUSH4 0x279F9B11 EQ PUSH2 0x1C2 JUMPI DUP1 PUSH4 0x313CE567 EQ PUSH2 0x1DE JUMPI DUP1 PUSH4 0x39509351 EQ PUSH2 0x1FC JUMPI DUP1 PUSH4 0x70A08231 EQ PUSH2 0x22C JUMPI DUP1 PUSH4 0x715018A6 EQ PUSH2 0x25C JUMPI PUSH2 0x121 JUMP JUMPDEST DUP1 PUSH4 0x6FDDE03 EQ PUSH2 0x126 JUMPI DUP1 PUSH4 0x95EA7B3 EQ PUSH2 0x144 JUMPI DUP1 PUSH4 0x18160DDD EQ PUSH2 0x174 JUMPI DUP1 PUSH4 0x23B872DD EQ PUSH2 0x192 JUMPI JUMPDEST PUSH1 0x0 DUP1 REVERT JUMPDEST PUSH2 0x12E PUSH2 0x3E8 JUMP JUMPDEST PUSH1 0x40 MLOAD PUSH2 0x13B SWAP2 SWAP1 PUSH2 0x1DBD JUMP JUMPDEST PUSH1 0x40 MLOAD DUP1 SWAP2 SUB SWAP1 RETURN JUMPDEST PUSH2 0x15E PUSH1 0x4 DUP1 CALLDATASIZE SUB DUP2 ADD SWAP1 PUSH2 0x159 SWAP2 SWAP1 PUSH2 0x1E78 JUMP JUMPDEST PUSH2 0x3FF JUMP JUMPDEST PUSH1 0x40 MLOAD PUSH2 0x16B SWAP2 SWAP1 PUSH2 0x1ED3 JUMP JUMPDEST PUSH1 0x40 MLOAD DUP1 SWAP2 SUB SWAP1 RETURN JUMPDEST PUSH2 0x17C PUSH2 0x416 JUMP JUMPDEST PUSH1 0x40 MLOAD PUSH2 0x189 SWAP2 SWAP1 PUSH2 0x1EFD JUMP JUMPDEST PUSH1 0x40 MLOAD DUP1 SWAP2 SUB SWAP1 RETURN JUMPDEST PUSH2 0x1AC PUSH1 0x4 DUP1 CALLDATASIZE SUB DUP2 ADD SWAP1 PUSH2 0x1A7 SWAP2 SWAP1 PUSH2 0x1F18 JUMP JUMPDEST PUSH2 0x420 JUMP JUMPDEST PUSH1 0x40 MLOAD PUSH2 0x1B9 SWAP2 SWAP1 PUSH2 0x1ED3 JUMP JUMPDEST PUSH1 0x40 MLOAD DUP1 SWAP2 SUB SWAP1 RETURN JUMPDEST PUSH2 0x1DC PUSH1 0x4 DUP1 CALLDATASIZE SUB DUP2 ADD SWAP1 PUSH2 0x1D7 SWAP2 SWAP1 PUSH2 0x1F6B JUMP JUMPDEST PUSH2 0x589 JUMP JUMPDEST STOP JUMPDEST PUSH2 0x1E6 PUSH2 0x5B2 JUMP JUMPDEST PUSH1 0x40 MLOAD PUSH2 0x1F3 SWAP2 SWAP1 PUSH2 0x1FDA JUMP JUMPDEST PUSH1 0x40 MLOAD DUP1 SWAP2 SUB SWAP1 RETURN JUMPDEST PUSH2 0x216 PUSH1 0x4 DUP1 CALLDATASIZE SUB DUP2 ADD SWAP1 PUSH2 0x211 SWAP2 SWAP1 PUSH2 0x1E78 JUMP JUMPDEST PUSH2 0x5C9 JUMP JUMPDEST PUSH1 0x40 MLOAD PUSH2 0x223 SWAP2 SWAP1 PUSH2 0x1ED3 JUMP JUMPDEST PUSH1 0x40 MLOAD DUP1 SWAP2 SUB SWAP1 RETURN JUMPDEST PUSH2 0x246 PUSH1 0x4 DUP1 CALLDATASIZE SUB DUP2 ADD SWAP1 PUSH2 0x241 SWAP2 SWAP1 PUSH2 0x1FF5 JUMP JUMPDEST PUSH2 0x667 JUMP JUMPDEST PUSH1 0x40 MLOAD PUSH2 0x253 SWAP2 SWAP1 PUSH2 0x1EFD JUMP JUMPDEST PUSH1 0x40 MLOAD DUP1 SWAP2 SUB SWAP1 RETURN JUMPDEST PUSH2 0x264 PUSH2 0x6B0 JUMP JUMPDEST STOP JUMPDEST PUSH2 0x26E PUSH2 0x7FC JUMP JUMPDEST PUSH1 0x40 MLOAD PUSH2 0x27B SWAP2 SWAP1 PUSH2 0x2031 JUMP JUMPDEST PUSH1 0x40 MLOAD DUP1 SWAP2 SUB SWAP1 RETURN JUMPDEST PUSH2 0x28C PUSH2 0x80B JUMP JUMPDEST PUSH1 0x40 MLOAD PUSH2 0x299 SWAP2 SWAP1 PUSH2 0x2031 JUMP JUMPDEST PUSH1 0x40 MLOAD DUP1 SWAP2 SUB SWAP1 RETURN JUMPDEST PUSH2 0x2AA PUSH2 0x834 JUMP JUMPDEST PUSH1 0x40 MLOAD PUSH2 0x2B7 SWAP2 SWAP1 PUSH2 0x1DBD JUMP JUMPDEST PUSH1 0x40 MLOAD DUP1 SWAP2 SUB SWAP1 RETURN JUMPDEST PUSH2 0x2DA PUSH1 0x4 DUP1 CALLDATASIZE SUB DUP2 ADD SWAP1 PUSH2 0x2D5 SWAP2 SWAP1 PUSH2 0x1E78 JUMP JUMPDEST PUSH2 0x8C6 JUMP JUMPDEST PUSH1 0x40 MLOAD PUSH2 0x2E7 SWAP2 SWAP1 PUSH2 0x1ED3 JUMP JUMPDEST PUSH1 0x40 MLOAD DUP1 SWAP2 SUB SWAP1 RETURN JUMPDEST PUSH2 0x30A PUSH1 0x4 DUP1 CALLDATASIZE SUB DUP2 ADD SWAP1 PUSH2 0x305 SWAP2 SWAP1 PUSH2 0x1E78 JUMP JUMPDEST PUSH2 0x96A JUMP JUMPDEST PUSH1 0x40 MLOAD PUSH2 0x317 SWAP2 SWAP1 PUSH2 0x1ED3 JUMP JUMPDEST PUSH1 0x40 MLOAD DUP1 SWAP2 SUB SWAP1 RETURN JUMPDEST PUSH2 0x33A PUSH1 0x4 DUP1 CALLDATASIZE SUB DUP2 ADD SWAP1 PUSH2 0x335 SWAP2 SWAP1 PUSH2 0x204C JUMP JUMPDEST PUSH2 0xA08 JUMP JUMPDEST STOP JUMPDEST PUSH2 0x356 PUSH1 0x4 DUP1 CALLDATASIZE SUB DUP2 ADD SWAP1 PUSH2 0x351 SWAP2 SWAP1 PUSH2 0x1E78 JUMP JUMPDEST PUSH2 0xA9F JUMP JUMPDEST PUSH1 0x40 MLOAD PUSH2 0x363 SWAP2 SWAP1 PUSH2 0x1ED3 JUMP JUMPDEST PUSH1 0x40 MLOAD DUP1 SWAP2 SUB SWAP1 RETURN JUMPDEST PUSH2 0x386 PUSH1 0x4 DUP1 CALLDATASIZE SUB DUP2 ADD SWAP1 PUSH2 0x381 SWAP2 SWAP1 PUSH2 0x2079 JUMP JUMPDEST PUSH2 0xAB6 JUMP JUMPDEST PUSH1 0x40 MLOAD PUSH2 0x393 SWAP2 SWAP1 PUSH2 0x1EFD JUMP JUMPDEST PUSH1 0x40 MLOAD DUP1 SWAP2 SUB SWAP1 RETURN JUMPDEST PUSH2 0x3B6 PUSH1 0x4 DUP1 CALLDATASIZE SUB DUP2 ADD SWAP1 PUSH2 0x3B1 SWAP2 SWAP1 PUSH2 0x1FF5 JUMP JUMPDEST PUSH2 0xB3D JUMP JUMPDEST PUSH1 0x40 MLOAD PUSH2 0x3C3 SWAP2 SWAP1 PUSH2 0x2218 JUMP JUMPDEST PUSH1 0x40 MLOAD DUP1 SWAP2 SUB SWAP1 RETURN JUMPDEST PUSH2 0x3E6 PUSH1 0x4 DUP1 CALLDATASIZE SUB DUP2 ADD SWAP1 PUSH2 0x3E1 SWAP2 SWAP1 PUSH2 0x1FF5 JUMP JUMPDEST PUSH2 0xD4A JUMP JUMPDEST STOP JUMPDEST PUSH1 0x60 PUSH1 0x40 MLOAD DUP1 PUSH1 0x20 ADD PUSH1 0x40 MSTORE DUP1 PUSH1 0x0 DUP2 MSTORE POP SWAP1 POP SWAP1 JUMP JUMPDEST PUSH1 0x0 PUSH2 0x40C CALLER DUP5 DUP5 PUSH2 0xDE4 JUMP JUMPDEST PUSH1 0x1 SWAP1 POP SWAP3 SWAP2 POP POP JUMP JUMPDEST PUSH1 0x0 PUSH1 0x4 SLOAD SWAP1 POP SWAP1 JUMP JUMPDEST PUSH1 0x0 DUP2 PUSH1 0x9 PUSH1 0x0 DUP7 PUSH20 0xFFFFFFFFFFFFFFFFFFFFFFFFFFFFFFFFFFFFFFFF AND PUSH20 0xFFFFFFFFFFFFFFFFFFFFFFFFFFFFFFFFFFFFFFFF AND DUP2 MSTORE PUSH1 0x20 ADD SWAP1 DUP2 MSTORE PUSH1 0x20 ADD PUSH1 0x0 KECCAK256 PUSH1 0x0 CALLER PUSH20 0xFFFFFFFFFFFFFFFFFFFFFFFFFFFFFFFFFFFFFFFF AND PUSH20 0xFFFFFFFFFFFFFFFFFFFFFFFFFFFFFFFFFFFFFFFF AND DUP2 MSTORE PUSH1 0x20 ADD SWAP1 DUP2 MSTORE PUSH1 0x20 ADD PUSH1 0x0 KECCAK256 SLOAD LT ISZERO PUSH2 0x4E1 JUMPI PUSH1 0x40 MLOAD PUSH32 0x8C379A000000000000000000000000000000000000000000000000000000000 DUP2 MSTORE PUSH1 0x4 ADD PUSH2 0x4D8 SWAP1 PUSH2 0x22AC JUMP JUMPDEST PUSH1 0x40 MLOAD DUP1 SWAP2 SUB SWAP1 REVERT JUMPDEST PUSH2 0x4EC DUP5 DUP5 DUP5 PUSH2 0xFAD JUMP JUMPDEST PUSH2 0x57E DUP5 CALLER DUP5 PUSH1 0x9 PUSH1 0x0 DUP10 PUSH20 0xFFFFFFFFFFFFFFFFFFFFFFFFFFFFFFFFFFFFFFFF AND PUSH20 0xFFFFFFFFFFFFFFFFFFFFFFFFFFFFFFFFFFFFFFFF AND DUP2 MSTORE PUSH1 0x20 ADD SWAP1 DUP2 MSTORE PUSH1 0x20 ADD PUSH1 0x0 KECCAK256 PUSH1 0x0 CALLER PUSH20 0xFFFFFFFFFFFFFFFFFFFFFFFFFFFFFFFFFFFFFFFF AND PUSH20 0xFFFFFFFFFFFFFFFFFFFFFFFFFFFFFFFFFFFFFFFF AND DUP2 MSTORE PUSH1 0x20 ADD SWAP1 DUP2 MSTORE PUSH1 0x20 ADD PUSH1 0x0 KECCAK256 SLOAD PUSH2 0x579 SWAP2 SWAP1 PUSH2 0x22FB JUMP JUMPDEST PUSH2 0xDE4 JUMP JUMPDEST PUSH1 0x1 SWAP1 POP SWAP4 SWAP3 POP POP POP JUMP JUMPDEST PUSH1 0x0 PUSH2 0x5A0 DUP3 DUP6 PUSH2 0x59A SWAP2 SWAP1 PUSH2 0x232F JUMP JUMPDEST DUP5 PUSH2 0x1293 JUMP JUMPDEST SWAP1 POP PUSH2 0x5AC CALLER DUP3 PUSH2 0x155B JUMP JUMPDEST POP POP POP POP JUMP JUMPDEST PUSH1 0x0 PUSH1 0x5 PUSH1 0x0 SWAP1 SLOAD SWAP1 PUSH2 0x100 EXP SWAP1 DIV PUSH1 0xFF AND SWAP1 POP SWAP1 JUMP JUMPDEST PUSH1 0x0 PUSH2 0x65D CALLER DUP5 DUP5 PUSH1 0x9 PUSH1 0x0 CALLER PUSH20 0xFFFFFFFFFFFFFFFFFFFFFFFFFFFFFFFFFFFFFFFF AND PUSH20 0xFFFFFFFFFFFFFFFFFFFFFFFFFFFFFFFFFFFFFFFF AND DUP2 MSTORE PUSH1 0x20 ADD SWAP1 DUP2 MSTORE PUSH1 0x20 ADD PUSH1 0x0 KECCAK256 PUSH1 0x0 DUP9 PUSH20 0xFFFFFFFFFFFFFFFFFFFFFFFFFFFFFFFFFFFFFFFF AND PUSH20 0xFFFFFFFFFFFFFFFFFFFFFFFFFFFFFFFFFFFFFFFF AND DUP2 MSTORE PUSH1 0x20 ADD SWAP1 DUP2 MSTORE PUSH1 0x20 ADD PUSH1 0x0 KECCAK256 SLOAD PUSH2 0x658 SWAP2 SWAP1 PUSH2 0x232F JUMP JUMPDEST PUSH2 0xDE4 JUMP JUMPDEST PUSH1 0x1 SWAP1 POP SWAP3 SWAP2 POP POP JUMP JUMPDEST PUSH1 0x0 PUSH1 0x8 PUSH1 0x0 DUP4 PUSH20 0xFFFFFFFFFFFFFFFFFFFFFFFFFFFFFFFFFFFFFFFF AND PUSH20 0xFFFFFFFFFFFFFFFFFFFFFFFFFFFFFFFFFFFFFFFF AND DUP2 MSTORE PUSH1 0x20 ADD SWAP1 DUP2 MSTORE PUSH1 0x20 ADD PUSH1 0x0 KECCAK256 SLOAD SWAP1 POP SWAP2 SWAP1 POP JUMP JUMPDEST CALLER PUSH20 0xFFFFFFFFFFFFFFFFFFFFFFFFFFFFFFFFFFFFFFFF AND PUSH1 0x0 DUP1 SLOAD SWAP1 PUSH2 0x100 EXP SWAP1 DIV PUSH20 0xFFFFFFFFFFFFFFFFFFFFFFFFFFFFFFFFFFFFFFFF AND PUSH20 0xFFFFFFFFFFFFFFFFFFFFFFFFFFFFFFFFFFFFFFFF AND EQ PUSH2 0x73E JUMPI PUSH1 0x40 MLOAD PUSH32 0x8C379A000000000000000000000000000000000000000000000000000000000 DUP2 MSTORE PUSH1 0x4 ADD PUSH2 0x735 SWAP1 PUSH2 0x23F7 JUMP JUMPDEST PUSH1 0x40 MLOAD DUP1 SWAP2 SUB SWAP1 REVERT JUMPDEST PUSH1 0x0 PUSH20 0xFFFFFFFFFFFFFFFFFFFFFFFFFFFFFFFFFFFFFFFF AND PUSH1 0x0 DUP1 SLOAD SWAP1 PUSH2 0x100 EXP SWAP1 DIV PUSH20 0xFFFFFFFFFFFFFFFFFFFFFFFFFFFFFFFFFFFFFFFF AND PUSH20 0xFFFFFFFFFFFFFFFFFFFFFFFFFFFFFFFFFFFFFFFF AND PUSH32 0x8BE0079C531659141344CD1FD0A4F28419497F9722A3DAAFE3B4186F6B6457E0 PUSH1 0x40 MLOAD PUSH1 0x40 MLOAD DUP1 SWAP2 SUB SWAP1 LOG3 PUSH1 0x0 DUP1 PUSH1 0x0 PUSH2 0x100 EXP DUP2 SLOAD DUP2 PUSH20 0xFFFFFFFFFFFFFFFFFFFFFFFFFFFFFFFFFFFFFFFF MUL NOT AND SWAP1 DUP4 PUSH20 0xFFFFFFFFFFFFFFFFFFFFFFFFFFFFFFFFFFFFFFFF AND MUL OR SWAP1 SSTORE POP JUMP JUMPDEST PUSH1 0x0 PUSH2 0x806 PUSH2 0x80B JUMP JUMPDEST SWAP1 POP SWAP1 JUMP JUMPDEST PUSH1 0x0 DUP1 PUSH1 0x0 SWAP1 SLOAD SWAP1 PUSH2 0x100 EXP SWAP1 DIV PUSH20 0xFFFFFFFFFFFFFFFFFFFFFFFFFFFFFFFFFFFFFFFF AND SWAP1 POP SWAP1 JUMP JUMPDEST PUSH1 0x60 PUSH1 0x6 DUP1 SLOAD PUSH2 0x843 SWAP1 PUSH2 0x2446 JUMP JUMPDEST DUP1 PUSH1 0x1F ADD PUSH1 0x20 DUP1 SWAP2 DIV MUL PUSH1 0x20 ADD PUSH1 0x40 MLOAD SWAP1 DUP2 ADD PUSH1 0x40 MSTORE DUP1 SWAP3 SWAP2 SWAP1 DUP2 DUP2 MSTORE PUSH1 0x20 ADD DUP3 DUP1 SLOAD PUSH2 0x86F SWAP1 PUSH2 0x2446 JUMP JUMPDEST DUP1 ISZERO PUSH2 0x8BC JUMPI DUP1 PUSH1 0x1F LT PUSH2 0x891 JUMPI PUSH2 0x100 DUP1 DUP4 SLOAD DIV MUL DUP4 MSTORE SWAP2 PUSH1 0x20 ADD SWAP2 PUSH2 0x8BC JUMP JUMPDEST DUP3 ADD SWAP2 SWAP1 PUSH1 0x0 MSTORE PUSH1 0x20 PUSH1 0x0 KECCAK256 SWAP1 JUMPDEST DUP2 SLOAD DUP2 MSTORE SWAP1 PUSH1 0x1 ADD SWAP1 PUSH1 0x20 ADD DUP1 DUP4 GT PUSH2 0x89F JUMPI DUP3 SWAP1 SUB PUSH1 0x1F AND DUP3 ADD SWAP2 JUMPDEST POP POP POP POP POP SWAP1 POP SWAP1 JUMP JUMPDEST PUSH1 0x0 CALLER PUSH20 0xFFFFFFFFFFFFFFFFFFFFFFFFFFFFFFFFFFFFFFFF AND PUSH1 0x0 DUP1 SLOAD SWAP1 PUSH2 0x100 EXP SWAP1 DIV PUSH20 0xFFFFFFFFFFFFFFFFFFFFFFFFFFFFFFFFFFFFFFFF AND PUSH20 0xFFFFFFFFFFFFFFFFFFFFFFFFFFFFFFFFFFFFFFFF AND EQ PUSH2 0x956 JUMPI PUSH1 0x40 MLOAD PUSH32 0x8C379A000000000000000000000000000000000000000000000000000000000 DUP2 MSTORE PUSH1 0x4 ADD PUSH2 0x94D SWAP1 PUSH2 0x23F7 JUMP JUMPDEST PUSH1 0x40 MLOAD DUP1 SWAP2 SUB SWAP1 REVERT JUMPDEST PUSH2 0x960 DUP4 DUP4 PUSH2 0x16D6 JUMP JUMPDEST PUSH1 0x1 SWAP1 POP SWAP3 SWAP2 POP POP JUMP JUMPDEST PUSH1 0x0 PUSH2 0x9FE CALLER DUP5 DUP5 PUSH1 0x9 PUSH1 0x0 CALLER PUSH20 0xFFFFFFFFFFFFFFFFFFFFFFFFFFFFFFFFFFFFFFFF AND PUSH20 0xFFFFFFFFFFFFFFFFFFFFFFFFFFFFFFFFFFFFFFFF AND DUP2 MSTORE PUSH1 0x20 ADD SWAP1 DUP2 MSTORE PUSH1 0x20 ADD PUSH1 0x0 KECCAK256 PUSH1 0x0 DUP9 PUSH20 0xFFFFFFFFFFFFFFFFFFFFFFFFFFFFFFFFFFFFFFFF AND PUSH20 0xFFFFFFFFFFFFFFFFFFFFFFFFFFFFFFFFFFFFFFFF AND DUP2 MSTORE PUSH1 0x20 ADD SWAP1 DUP2 MSTORE PUSH1 0x20 ADD PUSH1 0x0 KECCAK256 SLOAD PUSH2 0x9F9 SWAP2 SWAP1 PUSH2 0x22FB JUMP JUMPDEST PUSH2 0xDE4 JUMP JUMPDEST PUSH1 0x1 SWAP1 POP SWAP3 SWAP2 POP POP JUMP JUMPDEST PUSH1 0x8 PUSH1 0x0 CALLER PUSH20 0xFFFFFFFFFFFFFFFFFFFFFFFFFFFFFFFFFFFFFFFF AND PUSH20 0xFFFFFFFFFFFFFFFFFFFFFFFFFFFFFFFFFFFFFFFF AND DUP2 MSTORE PUSH1 0x20 ADD SWAP1 DUP2 MSTORE PUSH1 0x20 ADD PUSH1 0x0 KECCAK256 SLOAD DUP2 LT PUSH2 0xA89 JUMPI PUSH1 0x40 MLOAD PUSH32 0x8C379A000000000000000000000000000000000000000000000000000000000 DUP2 MSTORE PUSH1 0x4 ADD PUSH2 0xA80 SWAP1 PUSH2 0x24E9 JUMP JUMPDEST PUSH1 0x40 MLOAD DUP1 SWAP2 SUB SWAP1 REVERT JUMPDEST PUSH2 0xA92 DUP2 PUSH2 0x18D3 JUMP JUMPDEST PUSH2 0xA9C CALLER DUP3 PUSH2 0x16D6 JUMP JUMPDEST POP JUMP JUMPDEST PUSH1 0x0 PUSH2 0xAAC CALLER DUP5 DUP5 PUSH2 0xFAD JUMP JUMPDEST PUSH1 0x1 SWAP1 POP SWAP3 SWAP2 POP POP JUMP JUMPDEST PUSH1 0x0 PUSH1 0x9 PUSH1 0x0 DUP5 PUSH20 0xFFFFFFFFFFFFFFFFFFFFFFFFFFFFFFFFFFFFFFFF AND PUSH20 0xFFFFFFFFFFFFFFFFFFFFFFFFFFFFFFFFFFFFFFFF AND DUP2 MSTORE PUSH1 0x20 ADD SWAP1 DUP2 MSTORE PUSH1 0x20 ADD PUSH1 0x0 KECCAK256 PUSH1 0x0 DUP4 PUSH20 0xFFFFFFFFFFFFFFFFFFFFFFFFFFFFFFFFFFFFFFFF AND PUSH20 0xFFFFFFFFFFFFFFFFFFFFFFFFFFFFFFFFFFFFFFFF AND DUP2 MSTORE PUSH1 0x20 ADD SWAP1 DUP2 MSTORE PUSH1 0x20 ADD PUSH1 0x0 KECCAK256 SLOAD SWAP1 POP SWAP3 SWAP2 POP POP JUMP JUMPDEST PUSH2 0xB45 PUSH2 0x1D0A JUMP JUMPDEST PUSH1 0x0 DUP1 PUSH1 0x40 MLOAD DUP1 PUSH1 0x40 ADD PUSH1 0x40 MSTORE DUP1 PUSH1 0x0 DUP2 MSTORE PUSH1 0x20 ADD PUSH1 0x1 PUSH1 0x2 PUSH1 0x0 DUP9 PUSH20 0xFFFFFFFFFFFFFFFFFFFFFFFFFFFFFFFFFFFFFFFF AND PUSH20 0xFFFFFFFFFFFFFFFFFFFFFFFFFFFFFFFFFFFFFFFF AND DUP2 MSTORE PUSH1 0x20 ADD SWAP1 DUP2 MSTORE PUSH1 0x20 ADD PUSH1 0x0 KECCAK256 SLOAD DUP2 SLOAD DUP2 LT PUSH2 0xBAD JUMPI PUSH2 0xBAC PUSH2 0x2509 JUMP JUMPDEST JUMPDEST SWAP1 PUSH1 0x0 MSTORE PUSH1 0x20 PUSH1 0x0 KECCAK256 SWAP1 PUSH1 0x2 MUL ADD PUSH1 0x1 ADD DUP1 SLOAD DUP1 PUSH1 0x20 MUL PUSH1 0x20 ADD PUSH1 0x40 MLOAD SWAP1 DUP2 ADD PUSH1 0x40 MSTORE DUP1 SWAP3 SWAP2 SWAP1 DUP2 DUP2 MSTORE PUSH1 0x20 ADD PUSH1 0x0 SWAP1 JUMPDEST DUP3 DUP3 LT ISZERO PUSH2 0xC84 JUMPI DUP4 DUP3 SWAP1 PUSH1 0x0 MSTORE PUSH1 0x20 PUSH1 0x0 KECCAK256 SWAP1 PUSH1 0x4 MUL ADD PUSH1 0x40 MLOAD DUP1 PUSH1 0x80 ADD PUSH1 0x40 MSTORE SWAP1 DUP2 PUSH1 0x0 DUP3 ADD PUSH1 0x0 SWAP1 SLOAD SWAP1 PUSH2 0x100 EXP SWAP1 DIV PUSH20 0xFFFFFFFFFFFFFFFFFFFFFFFFFFFFFFFFFFFFFFFF AND PUSH20 0xFFFFFFFFFFFFFFFFFFFFFFFFFFFFFFFFFFFFFFFF AND PUSH20 0xFFFFFFFFFFFFFFFFFFFFFFFFFFFFFFFFFFFFFFFF AND DUP2 MSTORE PUSH1 0x20 ADD PUSH1 0x1 DUP3 ADD SLOAD DUP2 MSTORE PUSH1 0x20 ADD PUSH1 0x2 DUP3 ADD SLOAD DUP2 MSTORE PUSH1 0x20 ADD PUSH1 0x3 DUP3 ADD SLOAD DUP2 MSTORE POP POP DUP2 MSTORE PUSH1 0x20 ADD SWAP1 PUSH1 0x1 ADD SWAP1 PUSH2 0xBDE JUMP JUMPDEST POP POP POP POP DUP2 MSTORE POP SWAP1 POP PUSH1 0x0 JUMPDEST DUP2 PUSH1 0x20 ADD MLOAD MLOAD DUP2 LT ISZERO PUSH2 0xD35 JUMPI PUSH1 0x0 PUSH2 0xCC6 DUP4 PUSH1 0x20 ADD MLOAD DUP4 DUP2 MLOAD DUP2 LT PUSH2 0xCB9 JUMPI PUSH2 0xCB8 PUSH2 0x2509 JUMP JUMPDEST JUMPDEST PUSH1 0x20 MUL PUSH1 0x20 ADD ADD MLOAD PUSH2 0x1AB7 JUMP JUMPDEST SWAP1 POP DUP1 DUP4 PUSH1 0x20 ADD MLOAD DUP4 DUP2 MLOAD DUP2 LT PUSH2 0xCE0 JUMPI PUSH2 0xCDF PUSH2 0x2509 JUMP JUMPDEST JUMPDEST PUSH1 0x20 MUL PUSH1 0x20 ADD ADD MLOAD PUSH1 0x60 ADD DUP2 DUP2 MSTORE POP POP DUP3 PUSH1 0x20 ADD MLOAD DUP3 DUP2 MLOAD DUP2 LT PUSH2 0xD07 JUMPI PUSH2 0xD06 PUSH2 0x2509 JUMP JUMPDEST JUMPDEST PUSH1 0x20 MUL PUSH1 0x20 ADD ADD MLOAD PUSH1 0x20 ADD MLOAD DUP5 PUSH2 0xD1E SWAP2 SWAP1 PUSH2 0x232F JUMP JUMPDEST SWAP4 POP POP PUSH1 0x1 DUP2 PUSH2 0xD2E SWAP2 SWAP1 PUSH2 0x232F JUMP JUMPDEST SWAP1 POP PUSH2 0xC90 JUMP JUMPDEST POP DUP2 DUP2 PUSH1 0x0 ADD DUP2 DUP2 MSTORE POP POP DUP1 SWAP3 POP POP POP SWAP2 SWAP1 POP JUMP JUMPDEST CALLER PUSH20 0xFFFFFFFFFFFFFFFFFFFFFFFFFFFFFFFFFFFFFFFF AND PUSH1 0x0 DUP1 SLOAD SWAP1 PUSH2 0x100 EXP SWAP1 DIV PUSH20 0xFFFFFFFFFFFFFFFFFFFFFFFFFFFFFFFFFFFFFFFF AND PUSH20 0xFFFFFFFFFFFFFFFFFFFFFFFFFFFFFFFFFFFFFFFF AND EQ PUSH2 0xDD8 JUMPI PUSH1 0x40 MLOAD PUSH32 0x8C379A000000000000000000000000000000000000000000000000000000000 DUP2 MSTORE PUSH1 0x4 ADD PUSH2 0xDCF SWAP1 PUSH2 0x23F7 JUMP JUMPDEST PUSH1 0x40 MLOAD DUP1 SWAP2 SUB SWAP1 REVERT JUMPDEST PUSH2 0xDE1 DUP2 PUSH2 0x1AF9 JUMP JUMPDEST POP JUMP JUMPDEST PUSH1 0x0 PUSH20 0xFFFFFFFFFFFFFFFFFFFFFFFFFFFFFFFFFFFFFFFF AND DUP4 PUSH20 0xFFFFFFFFFFFFFFFFFFFFFFFFFFFFFFFFFFFFFFFF AND SUB PUSH2 0xE53 JUMPI PUSH1 0x40 MLOAD PUSH32 0x8C379A000000000000000000000000000000000000000000000000000000000 DUP2 MSTORE PUSH1 0x4 ADD PUSH2 0xE4A SWAP1 PUSH2 0x25AA JUMP JUMPDEST PUSH1 0x40 MLOAD DUP1 SWAP2 SUB SWAP1 REVERT JUMPDEST PUSH1 0x0 PUSH20 0xFFFFFFFFFFFFFFFFFFFFFFFFFFFFFFFFFFFFFFFF AND DUP3 PUSH20 0xFFFFFFFFFFFFFFFFFFFFFFFFFFFFFFFFFFFFFFFF AND SUB PUSH2 0xEC2 JUMPI PUSH1 0x40 MLOAD PUSH32 0x8C379A000000000000000000000000000000000000000000000000000000000 DUP2 MSTORE PUSH1 0x4 ADD PUSH2 0xEB9 SWAP1 PUSH2 0x263C JUMP JUMPDEST PUSH1 0x40 MLOAD DUP1 SWAP2 SUB SWAP1 REVERT JUMPDEST DUP1 PUSH1 0x9 PUSH1 0x0 DUP6 PUSH20 0xFFFFFFFFFFFFFFFFFFFFFFFFFFFFFFFFFFFFFFFF AND PUSH20 0xFFFFFFFFFFFFFFFFFFFFFFFFFFFFFFFFFFFFFFFF AND DUP2 MSTORE PUSH1 0x20 ADD SWAP1 DUP2 MSTORE PUSH1 0x20 ADD PUSH1 0x0 KECCAK256 PUSH1 0x0 DUP5 PUSH20 0xFFFFFFFFFFFFFFFFFFFFFFFFFFFFFFFFFFFFFFFF AND PUSH20 0xFFFFFFFFFFFFFFFFFFFFFFFFFFFFFFFFFFFFFFFF AND DUP2 MSTORE PUSH1 0x20 ADD SWAP1 DUP2 MSTORE PUSH1 0x20 ADD PUSH1 0x0 KECCAK256 DUP2 SWAP1 SSTORE POP DUP2 PUSH20 0xFFFFFFFFFFFFFFFFFFFFFFFFFFFFFFFFFFFFFFFF AND DUP4 PUSH20 0xFFFFFFFFFFFFFFFFFFFFFFFFFFFFFFFFFFFFFFFF AND PUSH32 0x8C5BE1E5EBEC7D5BD14F71427D1E84F3DD0314C0F7B2291E5B200AC8C7C3B925 DUP4 PUSH1 0x40 MLOAD PUSH2 0xFA0 SWAP2 SWAP1 PUSH2 0x1EFD JUMP JUMPDEST PUSH1 0x40 MLOAD DUP1 SWAP2 SUB SWAP1 LOG3 POP POP POP JUMP JUMPDEST PUSH1 0x0 PUSH20 0xFFFFFFFFFFFFFFFFFFFFFFFFFFFFFFFFFFFFFFFF AND DUP4 PUSH20 0xFFFFFFFFFFFFFFFFFFFFFFFFFFFFFFFFFFFFFFFF AND SUB PUSH2 0x101C JUMPI PUSH1 0x40 MLOAD PUSH32 0x8C379A000000000000000000000000000000000000000000000000000000000 DUP2 MSTORE PUSH1 0x4 ADD PUSH2 0x1013 SWAP1 PUSH2 0x26CE JUMP JUMPDEST PUSH1 0x40 MLOAD DUP1 SWAP2 SUB SWAP1 REVERT JUMPDEST PUSH1 0x0 PUSH20 0xFFFFFFFFFFFFFFFFFFFFFFFFFFFFFFFFFFFFFFFF AND DUP3 PUSH20 0xFFFFFFFFFFFFFFFFFFFFFFFFFFFFFFFFFFFFFFFF AND SUB PUSH2 0x108B JUMPI PUSH1 0x40 MLOAD PUSH32 0x8C379A000000000000000000000000000000000000000000000000000000000 DUP2 MSTORE PUSH1 0x4 ADD PUSH2 0x1082 SWAP1 PUSH2 0x273A JUMP JUMPDEST PUSH1 0x40 MLOAD DUP1 SWAP2 SUB SWAP1 REVERT JUMPDEST DUP1 PUSH1 0x8 PUSH1 0x0 DUP6 PUSH20 0xFFFFFFFFFFFFFFFFFFFFFFFFFFFFFFFFFFFFFFFF AND PUSH20 0xFFFFFFFFFFFFFFFFFFFFFFFFFFFFFFFFFFFFFFFF AND DUP2 MSTORE PUSH1 0x20 ADD SWAP1 DUP2 MSTORE PUSH1 0x20 ADD PUSH1 0x0 KECCAK256 SLOAD LT ISZERO PUSH2 0x110D JUMPI PUSH1 0x40 MLOAD PUSH32 0x8C379A000000000000000000000000000000000000000000000000000000000 DUP2 MSTORE PUSH1 0x4 ADD PUSH2 0x1104 SWAP1 PUSH2 0x27CC JUMP JUMPDEST PUSH1 0x40 MLOAD DUP1 SWAP2 SUB SWAP1 REVERT JUMPDEST DUP1 PUSH1 0x8 PUSH1 0x0 DUP6 PUSH20 0xFFFFFFFFFFFFFFFFFFFFFFFFFFFFFFFFFFFFFFFF AND PUSH20 0xFFFFFFFFFFFFFFFFFFFFFFFFFFFFFFFFFFFFFFFF AND DUP2 MSTORE PUSH1 0x20 ADD SWAP1 DUP2 MSTORE PUSH1 0x20 ADD PUSH1 0x0 KECCAK256 SLOAD PUSH2 0x1158 SWAP2 SWAP1 PUSH2 0x22FB JUMP JUMPDEST PUSH1 0x8 PUSH1 0x0 DUP6 PUSH20 0xFFFFFFFFFFFFFFFFFFFFFFFFFFFFFFFFFFFFFFFF AND PUSH20 0xFFFFFFFFFFFFFFFFFFFFFFFFFFFFFFFFFFFFFFFF AND DUP2 MSTORE PUSH1 0x20 ADD SWAP1 DUP2 MSTORE PUSH1 0x20 ADD PUSH1 0x0 KECCAK256 DUP2 SWAP1 SSTORE POP DUP1 PUSH1 0x8 PUSH1 0x0 DUP5 PUSH20 0xFFFFFFFFFFFFFFFFFFFFFFFFFFFFFFFFFFFFFFFF AND PUSH20 0xFFFFFFFFFFFFFFFFFFFFFFFFFFFFFFFFFFFFFFFF AND DUP2 MSTORE PUSH1 0x20 ADD SWAP1 DUP2 MSTORE PUSH1 0x20 ADD PUSH1 0x0 KECCAK256 SLOAD PUSH2 0x11E6 SWAP2 SWAP1 PUSH2 0x232F JUMP JUMPDEST PUSH1 0x8 PUSH1 0x0 DUP5 PUSH20 0xFFFFFFFFFFFFFFFFFFFFFFFFFFFFFFFFFFFFFFFF AND PUSH20 0xFFFFFFFFFFFFFFFFFFFFFFFFFFFFFFFFFFFFFFFF AND DUP2 MSTORE PUSH1 0x20 ADD SWAP1 DUP2 MSTORE PUSH1 0x20 ADD PUSH1 0x0 KECCAK256 DUP2 SWAP1 SSTORE POP DUP2 PUSH20 0xFFFFFFFFFFFFFFFFFFFFFFFFFFFFFFFFFFFFFFFF AND DUP4 PUSH20 0xFFFFFFFFFFFFFFFFFFFFFFFFFFFFFFFFFFFFFFFF AND PUSH32 0xDDF252AD1BE2C89B69C2B068FC378DAA952BA7F163C4A11628F55A4DF523B3EF DUP4 PUSH1 0x40 MLOAD PUSH2 0x1286 SWAP2 SWAP1 PUSH2 0x1EFD JUMP JUMPDEST PUSH1 0x40 MLOAD DUP1 SWAP2 SUB SWAP1 LOG3 POP POP POP JUMP JUMPDEST PUSH1 0x0 DUP1 PUSH1 0x2 PUSH1 0x0 CALLER PUSH20 0xFFFFFFFFFFFFFFFFFFFFFFFFFFFFFFFFFFFFFFFF AND PUSH20 0xFFFFFFFFFFFFFFFFFFFFFFFFFFFFFFFFFFFFFFFF AND DUP2 MSTORE PUSH1 0x20 ADD SWAP1 DUP2 MSTORE PUSH1 0x20 ADD PUSH1 0x0 KECCAK256 SLOAD SWAP1 POP PUSH1 0x0 PUSH1 0x1 DUP3 DUP2 SLOAD DUP2 LT PUSH2 0x12EE JUMPI PUSH2 0x12ED PUSH2 0x2509 JUMP JUMPDEST JUMPDEST SWAP1 PUSH1 0x0 MSTORE PUSH1 0x20 PUSH1 0x0 KECCAK256 SWAP1 PUSH1 0x2 MUL ADD PUSH1 0x1 ADD DUP5 DUP2 SLOAD DUP2 LT PUSH2 0x1311 JUMPI PUSH2 0x1310 PUSH2 0x2509 JUMP JUMPDEST JUMPDEST SWAP1 PUSH1 0x0 MSTORE PUSH1 0x20 PUSH1 0x0 KECCAK256 SWAP1 PUSH1 0x4 MUL ADD PUSH1 0x40 MLOAD DUP1 PUSH1 0x80 ADD PUSH1 0x40 MSTORE SWAP1 DUP2 PUSH1 0x0 DUP3 ADD PUSH1 0x0 SWAP1 SLOAD SWAP1 PUSH2 0x100 EXP SWAP1 DIV PUSH20 0xFFFFFFFFFFFFFFFFFFFFFFFFFFFFFFFFFFFFFFFF AND PUSH20 0xFFFFFFFFFFFFFFFFFFFFFFFFFFFFFFFFFFFFFFFF AND PUSH20 0xFFFFFFFFFFFFFFFFFFFFFFFFFFFFFFFFFFFFFFFF AND DUP2 MSTORE PUSH1 0x20 ADD PUSH1 0x1 DUP3 ADD SLOAD DUP2 MSTORE PUSH1 0x20 ADD PUSH1 0x2 DUP3 ADD SLOAD DUP2 MSTORE PUSH1 0x20 ADD PUSH1 0x3 DUP3 ADD SLOAD DUP2 MSTORE POP POP SWAP1 POP DUP5 DUP2 PUSH1 0x20 ADD MLOAD LT ISZERO PUSH2 0x13E7 JUMPI PUSH1 0x40 MLOAD PUSH32 0x8C379A000000000000000000000000000000000000000000000000000000000 DUP2 MSTORE PUSH1 0x4 ADD PUSH2 0x13DE SWAP1 PUSH2 0x285E JUMP JUMPDEST PUSH1 0x40 MLOAD DUP1 SWAP2 SUB SWAP1 REVERT JUMPDEST PUSH1 0x0 PUSH2 0x13F2 DUP3 PUSH2 0x1AB7 JUMP JUMPDEST SWAP1 POP DUP6 DUP3 PUSH1 0x20 ADD MLOAD PUSH2 0x1404 SWAP2 SWAP1 PUSH2 0x22FB JUMP JUMPDEST DUP3 PUSH1 0x20 ADD DUP2 DUP2 MSTORE POP POP PUSH1 0x0 DUP3 PUSH1 0x20 ADD MLOAD SUB PUSH2 0x14A5 JUMPI PUSH1 0x1 DUP4 DUP2 SLOAD DUP2 LT PUSH2 0x142D JUMPI PUSH2 0x142C PUSH2 0x2509 JUMP JUMPDEST JUMPDEST SWAP1 PUSH1 0x0 MSTORE PUSH1 0x20 PUSH1 0x0 KECCAK256 SWAP1 PUSH1 0x2 MUL ADD PUSH1 0x1 ADD DUP6 DUP2 SLOAD DUP2 LT PUSH2 0x1450 JUMPI PUSH2 0x144F PUSH2 0x2509 JUMP JUMPDEST JUMPDEST SWAP1 PUSH1 0x0 MSTORE PUSH1 0x20 PUSH1 0x0 KECCAK256 SWAP1 PUSH1 0x4 MUL ADD PUSH1 0x0 DUP1 DUP3 ADD PUSH1 0x0 PUSH2 0x100 EXP DUP2 SLOAD SWAP1 PUSH20 0xFFFFFFFFFFFFFFFFFFFFFFFFFFFFFFFFFFFFFFFF MUL NOT AND SWAP1 SSTORE PUSH1 0x1 DUP3 ADD PUSH1 0x0 SWAP1 SSTORE PUSH1 0x2 DUP3 ADD PUSH1 0x0 SWAP1 SSTORE PUSH1 0x3 DUP3 ADD PUSH1 0x0 SWAP1 SSTORE POP POP PUSH2 0x1544 JUMP JUMPDEST DUP2 PUSH1 0x20 ADD MLOAD PUSH1 0x1 DUP5 DUP2 SLOAD DUP2 LT PUSH2 0x14BE JUMPI PUSH2 0x14BD PUSH2 0x2509 JUMP JUMPDEST JUMPDEST SWAP1 PUSH1 0x0 MSTORE PUSH1 0x20 PUSH1 0x0 KECCAK256 SWAP1 PUSH1 0x2 MUL ADD PUSH1 0x1 ADD DUP7 DUP2 SLOAD DUP2 LT PUSH2 0x14E1 JUMPI PUSH2 0x14E0 PUSH2 0x2509 JUMP JUMPDEST JUMPDEST SWAP1 PUSH1 0x0 MSTORE PUSH1 0x20 PUSH1 0x0 KECCAK256 SWAP1 PUSH1 0x4 MUL ADD PUSH1 0x1 ADD DUP2 SWAP1 SSTORE POP TIMESTAMP PUSH1 0x1 DUP5 DUP2 SLOAD DUP2 LT PUSH2 0x150B JUMPI PUSH2 0x150A PUSH2 0x2509 JUMP JUMPDEST JUMPDEST SWAP1 PUSH1 0x0 MSTORE PUSH1 0x20 PUSH1 0x0 KECCAK256 SWAP1 PUSH1 0x2 MUL ADD PUSH1 0x1 ADD DUP7 DUP2 SLOAD DUP2 LT PUSH2 0x152E JUMPI PUSH2 0x152D PUSH2 0x2509 JUMP JUMPDEST JUMPDEST SWAP1 PUSH1 0x0 MSTORE PUSH1 0x20 PUSH1 0x0 KECCAK256 SWAP1 PUSH1 0x4 MUL ADD PUSH1 0x2 ADD DUP2 SWAP1 SSTORE POP JUMPDEST DUP1 DUP7 PUSH2 0x1550 SWAP2 SWAP1 PUSH2 0x232F JUMP JUMPDEST SWAP4 POP POP POP POP SWAP3 SWAP2 POP POP JUMP JUMPDEST PUSH1 0x0 PUSH20 0xFFFFFFFFFFFFFFFFFFFFFFFFFFFFFFFFFFFFFFFF AND DUP3 PUSH20 0xFFFFFFFFFFFFFFFFFFFFFFFFFFFFFFFFFFFFFFFF AND SUB PUSH2 0x15CA JUMPI PUSH1 0x40 MLOAD PUSH32 0x8C379A000000000000000000000000000000000000000000000000000000000 DUP2 MSTORE PUSH1 0x4 ADD PUSH2 0x15C1 SWAP1 PUSH2 0x28F0 JUMP JUMPDEST PUSH1 0x40 MLOAD DUP1 SWAP2 SUB SWAP1 REVERT JUMPDEST DUP1 PUSH1 0x4 SLOAD PUSH2 0x15D8 SWAP2 SWAP1 PUSH2 0x232F JUMP JUMPDEST PUSH1 0x4 DUP2 SWAP1 SSTORE POP DUP1 PUSH1 0x8 PUSH1 0x0 DUP5 PUSH20 0xFFFFFFFFFFFFFFFFFFFFFFFFFFFFFFFFFFFFFFFF AND PUSH20 0xFFFFFFFFFFFFFFFFFFFFFFFFFFFFFFFFFFFFFFFF AND DUP2 MSTORE PUSH1 0x20 ADD SWAP1 DUP2 MSTORE PUSH1 0x20 ADD PUSH1 0x0 KECCAK256 SLOAD PUSH2 0x1629 SWAP2 SWAP1 PUSH2 0x232F JUMP JUMPDEST PUSH1 0x8 PUSH1 0x0 DUP5 PUSH20 0xFFFFFFFFFFFFFFFFFFFFFFFFFFFFFFFFFFFFFFFF AND PUSH20 0xFFFFFFFFFFFFFFFFFFFFFFFFFFFFFFFFFFFFFFFF AND DUP2 MSTORE PUSH1 0x20 ADD SWAP1 DUP2 MSTORE PUSH1 0x20 ADD PUSH1 0x0 KECCAK256 DUP2 SWAP1 SSTORE POP DUP2 PUSH20 0xFFFFFFFFFFFFFFFFFFFFFFFFFFFFFFFFFFFFFFFF AND PUSH1 0x0 PUSH20 0xFFFFFFFFFFFFFFFFFFFFFFFFFFFFFFFFFFFFFFFF AND PUSH32 0xDDF252AD1BE2C89B69C2B068FC378DAA952BA7F163C4A11628F55A4DF523B3EF DUP4 PUSH1 0x40 MLOAD PUSH2 0x16CA SWAP2 SWAP1 PUSH2 0x1EFD JUMP JUMPDEST PUSH1 0x40 MLOAD DUP1 SWAP2 SUB SWAP1 LOG3 POP POP JUMP JUMPDEST PUSH1 0x0 PUSH20 0xFFFFFFFFFFFFFFFFFFFFFFFFFFFFFFFFFFFFFFFF AND DUP3 PUSH20 0xFFFFFFFFFFFFFFFFFFFFFFFFFFFFFFFFFFFFFFFF AND SUB PUSH2 0x1745 JUMPI PUSH1 0x40 MLOAD PUSH32 0x8C379A000000000000000000000000000000000000000000000000000000000 DUP2 MSTORE PUSH1 0x4 ADD PUSH2 0x173C SWAP1 PUSH2 0x2982 JUMP JUMPDEST PUSH1 0x40 MLOAD DUP1 SWAP2 SUB SWAP1 REVERT JUMPDEST DUP1 PUSH1 0x8 PUSH1 0x0 DUP5 PUSH20 0xFFFFFFFFFFFFFFFFFFFFFFFFFFFFFFFFFFFFFFFF AND PUSH20 0xFFFFFFFFFFFFFFFFFFFFFFFFFFFFFFFFFFFFFFFF AND DUP2 MSTORE PUSH1 0x20 ADD SWAP1 DUP2 MSTORE PUSH1 0x20 ADD PUSH1 0x0 KECCAK256 SLOAD LT ISZERO PUSH2 0x17C7 JUMPI PUSH1 0x40 MLOAD PUSH32 0x8C379A000000000000000000000000000000000000000000000000000000000 DUP2 MSTORE PUSH1 0x4 ADD PUSH2 0x17BE SWAP1 PUSH2 0x2A14 JUMP JUMPDEST PUSH1 0x40 MLOAD DUP1 SWAP2 SUB SWAP1 REVERT JUMPDEST DUP1 PUSH1 0x8 PUSH1 0x0 DUP5 PUSH20 0xFFFFFFFFFFFFFFFFFFFFFFFFFFFFFFFFFFFFFFFF AND PUSH20 0xFFFFFFFFFFFFFFFFFFFFFFFFFFFFFFFFFFFFFFFF AND DUP2 MSTORE PUSH1 0x20 ADD SWAP1 DUP2 MSTORE PUSH1 0x20 ADD PUSH1 0x0 KECCAK256 SLOAD PUSH2 0x1812 SWAP2 SWAP1 PUSH2 0x22FB JUMP JUMPDEST PUSH1 0x8 PUSH1 0x0 DUP5 PUSH20 0xFFFFFFFFFFFFFFFFFFFFFFFFFFFFFFFFFFFFFFFF AND PUSH20 0xFFFFFFFFFFFFFFFFFFFFFFFFFFFFFFFFFFFFFFFF AND DUP2 MSTORE PUSH1 0x20 ADD SWAP1 DUP2 MSTORE PUSH1 0x20 ADD PUSH1 0x0 KECCAK256 DUP2 SWAP1 SSTORE POP DUP1 PUSH1 0x4 SLOAD PUSH2 0x1863 SWAP2 SWAP1 PUSH2 0x22FB JUMP JUMPDEST PUSH1 0x4 DUP2 SWAP1 SSTORE POP PUSH1 0x0 PUSH20 0xFFFFFFFFFFFFFFFFFFFFFFFFFFFFFFFFFFFFFFFF AND DUP3 PUSH20 0xFFFFFFFFFFFFFFFFFFFFFFFFFFFFFFFFFFFFFFFF AND PUSH32 0xDDF252AD1BE2C89B69C2B068FC378DAA952BA7F163C4A11628F55A4DF523B3EF DUP4 PUSH1 0x40 MLOAD PUSH2 0x18C7 SWAP2 SWAP1 PUSH2 0x1EFD JUMP JUMPDEST PUSH1 0x40 MLOAD DUP1 SWAP2 SUB SWAP1 LOG3 POP POP JUMP JUMPDEST PUSH1 0x0 DUP2 GT PUSH2 0x1916 JUMPI PUSH1 0x40 MLOAD PUSH32 0x8C379A000000000000000000000000000000000000000000000000000000000 DUP2 MSTORE PUSH1 0x4 ADD PUSH2 0x190D SWAP1 PUSH2 0x2A80 JUMP JUMPDEST PUSH1 0x40 MLOAD DUP1 SWAP2 SUB SWAP1 REVERT JUMPDEST PUSH1 0x0 PUSH1 0x2 PUSH1 0x0 CALLER PUSH20 0xFFFFFFFFFFFFFFFFFFFFFFFFFFFFFFFFFFFFFFFF AND PUSH20 0xFFFFFFFFFFFFFFFFFFFFFFFFFFFFFFFFFFFFFFFF AND DUP2 MSTORE PUSH1 0x20 ADD SWAP1 DUP2 MSTORE PUSH1 0x20 ADD PUSH1 0x0 KECCAK256 SLOAD SWAP1 POP PUSH1 0x0 TIMESTAMP SWAP1 POP PUSH1 0x0 DUP3 SUB PUSH2 0x1973 JUMPI PUSH2 0x1970 CALLER PUSH2 0x1C25 JUMP JUMPDEST SWAP2 POP JUMPDEST PUSH1 0x1 DUP3 DUP2 SLOAD DUP2 LT PUSH2 0x1987 JUMPI PUSH2 0x1986 PUSH2 0x2509 JUMP JUMPDEST JUMPDEST SWAP1 PUSH1 0x0 MSTORE PUSH1 0x20 PUSH1 0x0 KECCAK256 SWAP1 PUSH1 0x2 MUL ADD PUSH1 0x1 ADD PUSH1 0x40 MLOAD DUP1 PUSH1 0x80 ADD PUSH1 0x40 MSTORE DUP1 CALLER PUSH20 0xFFFFFFFFFFFFFFFFFFFFFFFFFFFFFFFFFFFFFFFF AND DUP2 MSTORE PUSH1 0x20 ADD DUP6 DUP2 MSTORE PUSH1 0x20 ADD DUP4 DUP2 MSTORE PUSH1 0x20 ADD PUSH1 0x0 DUP2 MSTORE POP SWAP1 DUP1 PUSH1 0x1 DUP2 SLOAD ADD DUP1 DUP3 SSTORE DUP1 SWAP2 POP POP PUSH1 0x1 SWAP1 SUB SWAP1 PUSH1 0x0 MSTORE PUSH1 0x20 PUSH1 0x0 KECCAK256 SWAP1 PUSH1 0x4 MUL ADD PUSH1 0x0 SWAP1 SWAP2 SWAP1 SWAP2 SWAP1 SWAP2 POP PUSH1 0x0 DUP3 ADD MLOAD DUP2 PUSH1 0x0 ADD PUSH1 0x0 PUSH2 0x100 EXP DUP2 SLOAD DUP2 PUSH20 0xFFFFFFFFFFFFFFFFFFFFFFFFFFFFFFFFFFFFFFFF MUL NOT AND SWAP1 DUP4 PUSH20 0xFFFFFFFFFFFFFFFFFFFFFFFFFFFFFFFFFFFFFFFF AND MUL OR SWAP1 SSTORE POP PUSH1 0x20 DUP3 ADD MLOAD DUP2 PUSH1 0x1 ADD SSTORE PUSH1 0x40 DUP3 ADD MLOAD DUP2 PUSH1 0x2 ADD SSTORE PUSH1 0x60 DUP3 ADD MLOAD DUP2 PUSH1 0x3 ADD SSTORE POP POP CALLER PUSH20 0xFFFFFFFFFFFFFFFFFFFFFFFFFFFFFFFFFFFFFFFF AND PUSH32 0xB4CAAF29ADDA3EEFEE3AD552A8E85058589BF834C7466CAE4EE58787F70589ED DUP5 DUP5 DUP5 PUSH1 0x40 MLOAD PUSH2 0x1AAA SWAP4 SWAP3 SWAP2 SWAP1 PUSH2 0x2AA0 JUMP JUMPDEST PUSH1 0x40 MLOAD DUP1 SWAP2 SUB SWAP1 LOG2 POP POP POP JUMP JUMPDEST PUSH1 0x0 PUSH1 0x3 SLOAD DUP3 PUSH1 0x20 ADD MLOAD PUSH2 0xE10 DUP5 PUSH1 0x40 ADD MLOAD TIMESTAMP PUSH2 0x1AD4 SWAP2 SWAP1 PUSH2 0x22FB JUMP JUMPDEST PUSH2 0x1ADE SWAP2 SWAP1 PUSH2 0x2B06 JUMP JUMPDEST PUSH2 0x1AE8 SWAP2 SWAP1 PUSH2 0x2B37 JUMP JUMPDEST PUSH2 0x1AF2 SWAP2 SWAP1 PUSH2 0x2B06 JUMP JUMPDEST SWAP1 POP SWAP2 SWAP1 POP JUMP JUMPDEST PUSH1 0x0 PUSH20 0xFFFFFFFFFFFFFFFFFFFFFFFFFFFFFFFFFFFFFFFF AND DUP2 PUSH20 0xFFFFFFFFFFFFFFFFFFFFFFFFFFFFFFFFFFFFFFFF AND SUB PUSH2 0x1B68 JUMPI PUSH1 0x40 MLOAD PUSH32 0x8C379A000000000000000000000000000000000000000000000000000000000 DUP2 MSTORE PUSH1 0x4 ADD PUSH2 0x1B5F SWAP1 PUSH2 0x2C03 JUMP JUMPDEST PUSH1 0x40 MLOAD DUP1 SWAP2 SUB SWAP1 REVERT JUMPDEST DUP1 PUSH20 0xFFFFFFFFFFFFFFFFFFFFFFFFFFFFFFFFFFFFFFFF AND PUSH1 0x0 DUP1 SLOAD SWAP1 PUSH2 0x100 EXP SWAP1 DIV PUSH20 0xFFFFFFFFFFFFFFFFFFFFFFFFFFFFFFFFFFFFFFFF AND PUSH20 0xFFFFFFFFFFFFFFFFFFFFFFFFFFFFFFFFFFFFFFFF AND PUSH32 0x8BE0079C531659141344CD1FD0A4F28419497F9722A3DAAFE3B4186F6B6457E0 PUSH1 0x40 MLOAD PUSH1 0x40 MLOAD DUP1 SWAP2 SUB SWAP1 LOG3 DUP1 PUSH1 0x0 DUP1 PUSH2 0x100 EXP DUP2 SLOAD DUP2 PUSH20 0xFFFFFFFFFFFFFFFFFFFFFFFFFFFFFFFFFFFFFFFF MUL NOT AND SWAP1 DUP4 PUSH20 0xFFFFFFFFFFFFFFFFFFFFFFFFFFFFFFFFFFFFFFFF AND MUL OR SWAP1 SSTORE POP POP JUMP JUMPDEST PUSH1 0x0 PUSH1 0x1 DUP1 DUP2 PUSH1 0x1 DUP2 SLOAD ADD DUP1 DUP3 SSTORE DUP1 SWAP2 POP POP SUB SWAP1 PUSH1 0x0 MSTORE PUSH1 0x20 PUSH1 0x0 KECCAK256 SWAP1 POP POP PUSH1 0x0 PUSH1 0x1 DUP1 DUP1 SLOAD SWAP1 POP PUSH2 0x1C57 SWAP2 SWAP1 PUSH2 0x22FB JUMP JUMPDEST SWAP1 POP DUP3 PUSH1 0x1 DUP3 DUP2 SLOAD DUP2 LT PUSH2 0x1C6E JUMPI PUSH2 0x1C6D PUSH2 0x2509 JUMP JUMPDEST JUMPDEST SWAP1 PUSH1 0x0 MSTORE PUSH1 0x20 PUSH1 0x0 KECCAK256 SWAP1 PUSH1 0x2 MUL ADD PUSH1 0x0 ADD PUSH1 0x0 PUSH2 0x100 EXP DUP2 SLOAD DUP2 PUSH20 0xFFFFFFFFFFFFFFFFFFFFFFFFFFFFFFFFFFFFFFFF MUL NOT AND SWAP1 DUP4 PUSH20 0xFFFFFFFFFFFFFFFFFFFFFFFFFFFFFFFFFFFFFFFF AND MUL OR SWAP1 SSTORE POP DUP1 PUSH1 0x2 PUSH1 0x0 DUP6 PUSH20 0xFFFFFFFFFFFFFFFFFFFFFFFFFFFFFFFFFFFFFFFF AND PUSH20 0xFFFFFFFFFFFFFFFFFFFFFFFFFFFFFFFFFFFFFFFF AND DUP2 MSTORE PUSH1 0x20 ADD SWAP1 DUP2 MSTORE PUSH1 0x20 ADD PUSH1 0x0 KECCAK256 DUP2 SWAP1 SSTORE POP DUP1 SWAP2 POP POP SWAP2 SWAP1 POP JUMP JUMPDEST PUSH1 0x40 MLOAD DUP1 PUSH1 0x40 ADD PUSH1 0x40 MSTORE DUP1 PUSH1 0x0 DUP2 MSTORE PUSH1 0x20 ADD PUSH1 0x60 DUP2 MSTORE POP SWAP1 JUMP JUMPDEST PUSH1 0x0 DUP2 MLOAD SWAP1 POP SWAP2 SWAP1 POP JUMP JUMPDEST PUSH1 0x0 DUP3 DUP3 MSTORE PUSH1 0x20 DUP3 ADD SWAP1 POP SWAP3 SWAP2 POP POP JUMP JUMPDEST PUSH1 0x0 JUMPDEST DUP4 DUP2 LT ISZERO PUSH2 0x1D5E JUMPI DUP1 DUP3 ADD MLOAD DUP2 DUP5 ADD MSTORE PUSH1 0x20 DUP2 ADD SWAP1 POP PUSH2 0x1D43 JUMP JUMPDEST DUP4 DUP2 GT ISZERO PUSH2 0x1D6D JUMPI PUSH1 0x0 DUP5 DUP5 ADD MSTORE JUMPDEST POP POP POP POP JUMP JUMPDEST PUSH1 0x0 PUSH1 0x1F NOT PUSH1 0x1F DUP4 ADD AND SWAP1 POP SWAP2 SWAP1 POP JUMP JUMPDEST PUSH1 0x0 PUSH2 0x1D8F DUP3 PUSH2 0x1D24 JUMP JUMPDEST PUSH2 0x1D99 DUP2 DUP6 PUSH2 0x1D2F JUMP JUMPDEST SWAP4 POP PUSH2 0x1DA9 DUP2 DUP6 PUSH1 0x20 DUP7 ADD PUSH2 0x1D40 JUMP JUMPDEST PUSH2 0x1DB2 DUP2 PUSH2 0x1D73 JUMP JUMPDEST DUP5 ADD SWAP2 POP POP SWAP3 SWAP2 POP POP JUMP JUMPDEST PUSH1 0x0 PUSH1 0x20 DUP3 ADD SWAP1 POP DUP2 DUP2 SUB PUSH1 0x0 DUP4 ADD MSTORE PUSH2 0x1DD7 DUP2 DUP5 PUSH2 0x1D84 JUMP JUMPDEST SWAP1 POP SWAP3 SWAP2 POP POP JUMP JUMPDEST PUSH1 0x0 DUP1 REVERT JUMPDEST PUSH1 0x0 PUSH20 0xFFFFFFFFFFFFFFFFFFFFFFFFFFFFFFFFFFFFFFFF DUP3 AND SWAP1 POP SWAP2 SWAP1 POP JUMP JUMPDEST PUSH1 0x0 PUSH2 0x1E0F DUP3 PUSH2 0x1DE4 JUMP JUMPDEST SWAP1 POP SWAP2 SWAP1 POP JUMP JUMPDEST PUSH2 0x1E1F DUP2 PUSH2 0x1E04 JUMP JUMPDEST DUP2 EQ PUSH2 0x1E2A JUMPI PUSH1 0x0 DUP1 REVERT JUMPDEST POP JUMP JUMPDEST PUSH1 0x0 DUP2 CALLDATALOAD SWAP1 POP PUSH2 0x1E3C DUP2 PUSH2 0x1E16 JUMP JUMPDEST SWAP3 SWAP2 POP POP JUMP JUMPDEST PUSH1 0x0 DUP2 SWAP1 POP SWAP2 SWAP1 POP JUMP JUMPDEST PUSH2 0x1E55 DUP2 PUSH2 0x1E42 JUMP JUMPDEST DUP2 EQ PUSH2 0x1E60 JUMPI PUSH1 0x0 DUP1 REVERT JUMPDEST POP JUMP JUMPDEST PUSH1 0x0 DUP2 CALLDATALOAD SWAP1 POP PUSH2 0x1E72 DUP2 PUSH2 0x1E4C JUMP JUMPDEST SWAP3 SWAP2 POP POP JUMP JUMPDEST PUSH1 0x0 DUP1 PUSH1 0x40 DUP4 DUP6 SUB SLT ISZERO PUSH2 0x1E8F JUMPI PUSH2 0x1E8E PUSH2 0x1DDF JUMP JUMPDEST JUMPDEST PUSH1 0x0 PUSH2 0x1E9D DUP6 DUP3 DUP7 ADD PUSH2 0x1E2D JUMP JUMPDEST SWAP3 POP POP PUSH1 0x20 PUSH2 0x1EAE DUP6 DUP3 DUP7 ADD PUSH2 0x1E63 JUMP JUMPDEST SWAP2 POP POP SWAP3 POP SWAP3 SWAP1 POP JUMP JUMPDEST PUSH1 0x0 DUP2 ISZERO ISZERO SWAP1 POP SWAP2 SWAP1 POP JUMP JUMPDEST PUSH2 0x1ECD DUP2 PUSH2 0x1EB8 JUMP JUMPDEST DUP3 MSTORE POP POP JUMP JUMPDEST PUSH1 0x0 PUSH1 0x20 DUP3 ADD SWAP1 POP PUSH2 0x1EE8 PUSH1 0x0 DUP4 ADD DUP5 PUSH2 0x1EC4 JUMP JUMPDEST SWAP3 SWAP2 POP POP JUMP JUMPDEST PUSH2 0x1EF7 DUP2 PUSH2 0x1E42 JUMP JUMPDEST DUP3 MSTORE POP POP JUMP JUMPDEST PUSH1 0x0 PUSH1 0x20 DUP3 ADD SWAP1 POP PUSH2 0x1F12 PUSH1 0x0 DUP4 ADD DUP5 PUSH2 0x1EEE JUMP JUMPDEST SWAP3 SWAP2 POP POP JUMP JUMPDEST PUSH1 0x0 DUP1 PUSH1 0x0 PUSH1 0x60 DUP5 DUP7 SUB SLT ISZERO PUSH2 0x1F31 JUMPI PUSH2 0x1F30 PUSH2 0x1DDF JUMP JUMPDEST JUMPDEST PUSH1 0x0 PUSH2 0x1F3F DUP7 DUP3 DUP8 ADD PUSH2 0x1E2D JUMP JUMPDEST SWAP4 POP POP PUSH1 0x20 PUSH2 0x1F50 DUP7 DUP3 DUP8 ADD PUSH2 0x1E2D JUMP JUMPDEST SWAP3 POP POP PUSH1 0x40 PUSH2 0x1F61 DUP7 DUP3 DUP8 ADD PUSH2 0x1E63 JUMP JUMPDEST SWAP2 POP POP SWAP3 POP SWAP3 POP SWAP3 JUMP JUMPDEST PUSH1 0x0 DUP1 PUSH1 0x0 PUSH1 0x60 DUP5 DUP7 SUB SLT ISZERO PUSH2 0x1F84 JUMPI PUSH2 0x1F83 PUSH2 0x1DDF JUMP JUMPDEST JUMPDEST PUSH1 0x0 PUSH2 0x1F92 DUP7 DUP3 DUP8 ADD PUSH2 0x1E63 JUMP JUMPDEST SWAP4 POP POP PUSH1 0x20 PUSH2 0x1FA3 DUP7 DUP3 DUP8 ADD PUSH2 0x1E63 JUMP JUMPDEST SWAP3 POP POP PUSH1 0x40 PUSH2 0x1FB4 DUP7 DUP3 DUP8 ADD PUSH2 0x1E63 JUMP JUMPDEST SWAP2 POP POP SWAP3 POP SWAP3 POP SWAP3 JUMP JUMPDEST PUSH1 0x0 PUSH1 0xFF DUP3 AND SWAP1 POP SWAP2 SWAP1 POP JUMP JUMPDEST PUSH2 0x1FD4 DUP2 PUSH2 0x1FBE JUMP JUMPDEST DUP3 MSTORE POP POP JUMP JUMPDEST PUSH1 0x0 PUSH1 0x20 DUP3 ADD SWAP1 POP PUSH2 0x1FEF PUSH1 0x0 DUP4 ADD DUP5 PUSH2 0x1FCB JUMP JUMPDEST SWAP3 SWAP2 POP POP JUMP JUMPDEST PUSH1 0x0 PUSH1 0x20 DUP3 DUP5 SUB SLT ISZERO PUSH2 0x200B JUMPI PUSH2 0x200A PUSH2 0x1DDF JUMP JUMPDEST JUMPDEST PUSH1 0x0 PUSH2 0x2019 DUP5 DUP3 DUP6 ADD PUSH2 0x1E2D JUMP JUMPDEST SWAP2 POP POP SWAP3 SWAP2 POP POP JUMP JUMPDEST PUSH2 0x202B DUP2 PUSH2 0x1E04 JUMP JUMPDEST DUP3 MSTORE POP POP JUMP JUMPDEST PUSH1 0x0 PUSH1 0x20 DUP3 ADD SWAP1 POP PUSH2 0x2046 PUSH1 0x0 DUP4 ADD DUP5 PUSH2 0x2022 JUMP JUMPDEST SWAP3 SWAP2 POP POP JUMP JUMPDEST PUSH1 0x0 PUSH1 0x20 DUP3 DUP5 SUB SLT ISZERO PUSH2 0x2062 JUMPI PUSH2 0x2061 PUSH2 0x1DDF JUMP JUMPDEST JUMPDEST PUSH1 0x0 PUSH2 0x2070 DUP5 DUP3 DUP6 ADD PUSH2 0x1E63 JUMP JUMPDEST SWAP2 POP POP SWAP3 SWAP2 POP POP JUMP JUMPDEST PUSH1 0x0 DUP1 PUSH1 0x40 DUP4 DUP6 SUB SLT ISZERO PUSH2 0x2090 JUMPI PUSH2 0x208F PUSH2 0x1DDF JUMP JUMPDEST JUMPDEST PUSH1 0x0 PUSH2 0x209E DUP6 DUP3 DUP7 ADD PUSH2 0x1E2D JUMP JUMPDEST SWAP3 POP POP PUSH1 0x20 PUSH2 0x20AF DUP6 DUP3 DUP7 ADD PUSH2 0x1E2D JUMP JUMPDEST SWAP2 POP POP SWAP3 POP SWAP3 SWAP1 POP JUMP JUMPDEST PUSH2 0x20C2 DUP2 PUSH2 0x1E42 JUMP JUMPDEST DUP3 MSTORE POP POP JUMP JUMPDEST PUSH1 0x0 DUP2 MLOAD SWAP1 POP SWAP2 SWAP1 POP JUMP JUMPDEST PUSH1 0x0 DUP3 DUP3 MSTORE PUSH1 0x20 DUP3 ADD SWAP1 POP SWAP3 SWAP2 POP POP JUMP JUMPDEST PUSH1 0x0 DUP2 SWAP1 POP PUSH1 0x20 DUP3 ADD SWAP1 POP SWAP2 SWAP1 POP JUMP JUMPDEST PUSH2 0x20FD DUP2 PUSH2 0x1E04 JUMP JUMPDEST DUP3 MSTORE POP POP JUMP JUMPDEST PUSH1 0x80 DUP3 ADD PUSH1 0x0 DUP3 ADD MLOAD PUSH2 0x2119 PUSH1 0x0 DUP6 ADD DUP3 PUSH2 0x20F4 JUMP JUMPDEST POP PUSH1 0x20 DUP3 ADD MLOAD PUSH2 0x212C PUSH1 0x20 DUP6 ADD DUP3 PUSH2 0x20B9 JUMP JUMPDEST POP PUSH1 0x40 DUP3 ADD MLOAD PUSH2 0x213F PUSH1 0x40 DUP6 ADD DUP3 PUSH2 0x20B9 JUMP JUMPDEST POP PUSH1 0x60 DUP3 ADD MLOAD PUSH2 0x2152 PUSH1 0x60 DUP6 ADD DUP3 PUSH2 0x20B9 JUMP JUMPDEST POP POP POP POP JUMP JUMPDEST PUSH1 0x0 PUSH2 0x2164 DUP4 DUP4 PUSH2 0x2103 JUMP JUMPDEST PUSH1 0x80 DUP4 ADD SWAP1 POP SWAP3 SWAP2 POP POP JUMP JUMPDEST PUSH1 0x0 PUSH1 0x20 DUP3 ADD SWAP1 POP SWAP2 SWAP1 POP JUMP JUMPDEST PUSH1 0x0 PUSH2 0x2188 DUP3 PUSH2 0x20C8 JUMP JUMPDEST PUSH2 0x2192 DUP2 DUP6 PUSH2 0x20D3 JUMP JUMPDEST SWAP4 POP PUSH2 0x219D DUP4 PUSH2 0x20E4 JUMP JUMPDEST DUP1 PUSH1 0x0 JUMPDEST DUP4 DUP2 LT ISZERO PUSH2 0x21CE JUMPI DUP2 MLOAD PUSH2 0x21B5 DUP9 DUP3 PUSH2 0x2158 JUMP JUMPDEST SWAP8 POP PUSH2 0x21C0 DUP4 PUSH2 0x2170 JUMP JUMPDEST SWAP3 POP POP PUSH1 0x1 DUP2 ADD SWAP1 POP PUSH2 0x21A1 JUMP JUMPDEST POP DUP6 SWAP4 POP POP POP POP SWAP3 SWAP2 POP POP JUMP JUMPDEST PUSH1 0x0 PUSH1 0x40 DUP4 ADD PUSH1 0x0 DUP4 ADD MLOAD PUSH2 0x21F3 PUSH1 0x0 DUP7 ADD DUP3 PUSH2 0x20B9 JUMP JUMPDEST POP PUSH1 0x20 DUP4 ADD MLOAD DUP5 DUP3 SUB PUSH1 0x20 DUP7 ADD MSTORE PUSH2 0x220B DUP3 DUP3 PUSH2 0x217D JUMP JUMPDEST SWAP2 POP POP DUP1 SWAP2 POP POP SWAP3 SWAP2 POP POP JUMP JUMPDEST PUSH1 0x0 PUSH1 0x20 DUP3 ADD SWAP1 POP DUP2 DUP2 SUB PUSH1 0x0 DUP4 ADD MSTORE PUSH2 0x2232 DUP2 DUP5 PUSH2 0x21DB JUMP JUMPDEST SWAP1 POP SWAP3 SWAP2 POP POP JUMP JUMPDEST PUSH32 0x4D657472613A20596F752063616E6E6F74207370656E642074686174206D7563 PUSH1 0x0 DUP3 ADD MSTORE PUSH32 0x68206F6E2074686973206163636F756E74000000000000000000000000000000 PUSH1 0x20 DUP3 ADD MSTORE POP JUMP JUMPDEST PUSH1 0x0 PUSH2 0x2296 PUSH1 0x31 DUP4 PUSH2 0x1D2F JUMP JUMPDEST SWAP2 POP PUSH2 0x22A1 DUP3 PUSH2 0x223A JUMP JUMPDEST PUSH1 0x40 DUP3 ADD SWAP1 POP SWAP2 SWAP1 POP JUMP JUMPDEST PUSH1 0x0 PUSH1 0x20 DUP3 ADD SWAP1 POP DUP2 DUP2 SUB PUSH1 0x0 DUP4 ADD MSTORE PUSH2 0x22C5 DUP2 PUSH2 0x2289 JUMP JUMPDEST SWAP1 POP SWAP2 SWAP1 POP JUMP JUMPDEST PUSH32 0x4E487B7100000000000000000000000000000000000000000000000000000000 PUSH1 0x0 MSTORE PUSH1 0x11 PUSH1 0x4 MSTORE PUSH1 0x24 PUSH1 0x0 REVERT JUMPDEST PUSH1 0x0 PUSH2 0x2306 DUP3 PUSH2 0x1E42 JUMP JUMPDEST SWAP2 POP PUSH2 0x2311 DUP4 PUSH2 0x1E42 JUMP JUMPDEST SWAP3 POP DUP3 DUP3 LT ISZERO PUSH2 0x2324 JUMPI PUSH2 0x2323 PUSH2 0x22CC JUMP JUMPDEST JUMPDEST DUP3 DUP3 SUB SWAP1 POP SWAP3 SWAP2 POP POP JUMP JUMPDEST PUSH1 0x0 PUSH2 0x233A DUP3 PUSH2 0x1E42 JUMP JUMPDEST SWAP2 POP PUSH2 0x2345 DUP4 PUSH2 0x1E42 JUMP JUMPDEST SWAP3 POP DUP3 PUSH32 0xFFFFFFFFFFFFFFFFFFFFFFFFFFFFFFFFFFFFFFFFFFFFFFFFFFFFFFFFFFFFFFFF SUB DUP3 GT ISZERO PUSH2 0x237A JUMPI PUSH2 0x2379 PUSH2 0x22CC JUMP JUMPDEST JUMPDEST DUP3 DUP3 ADD SWAP1 POP SWAP3 SWAP2 POP POP JUMP JUMPDEST PUSH32 0x4F776E61626C653A206F6E6C79206F776E65722063616E2063616C6C20746869 PUSH1 0x0 DUP3 ADD MSTORE PUSH32 0x732066756E6374696F6E00000000000000000000000000000000000000000000 PUSH1 0x20 DUP3 ADD MSTORE POP JUMP JUMPDEST PUSH1 0x0 PUSH2 0x23E1 PUSH1 0x2A DUP4 PUSH2 0x1D2F JUMP JUMPDEST SWAP2 POP PUSH2 0x23EC DUP3 PUSH2 0x2385 JUMP JUMPDEST PUSH1 0x40 DUP3 ADD SWAP1 POP SWAP2 SWAP1 POP JUMP JUMPDEST PUSH1 0x0 PUSH1 0x20 DUP3 ADD SWAP1 POP DUP2 DUP2 SUB PUSH1 0x0 DUP4 ADD MSTORE PUSH2 0x2410 DUP2 PUSH2 0x23D4 JUMP JUMPDEST SWAP1 POP SWAP2 SWAP1 POP JUMP JUMPDEST PUSH32 0x4E487B7100000000000000000000000000000000000000000000000000000000 PUSH1 0x0 MSTORE PUSH1 0x22 PUSH1 0x4 MSTORE PUSH1 0x24 PUSH1 0x0 REVERT JUMPDEST PUSH1 0x0 PUSH1 0x2 DUP3 DIV SWAP1 POP PUSH1 0x1 DUP3 AND DUP1 PUSH2 0x245E JUMPI PUSH1 0x7F DUP3 AND SWAP2 POP JUMPDEST PUSH1 0x20 DUP3 LT DUP2 SUB PUSH2 0x2471 JUMPI PUSH2 0x2470 PUSH2 0x2417 JUMP JUMPDEST JUMPDEST POP SWAP2 SWAP1 POP JUMP JUMPDEST PUSH32 0x4D657472613A2043616E6E6F74207374616B65206D6F7265207468616E20796F PUSH1 0x0 DUP3 ADD MSTORE PUSH32 0x75206F776E000000000000000000000000000000000000000000000000000000 PUSH1 0x20 DUP3 ADD MSTORE POP JUMP JUMPDEST PUSH1 0x0 PUSH2 0x24D3 PUSH1 0x25 DUP4 PUSH2 0x1D2F JUMP JUMPDEST SWAP2 POP PUSH2 0x24DE DUP3 PUSH2 0x2477 JUMP JUMPDEST PUSH1 0x40 DUP3 ADD SWAP1 POP SWAP2 SWAP1 POP JUMP JUMPDEST PUSH1 0x0 PUSH1 0x20 DUP3 ADD SWAP1 POP DUP2 DUP2 SUB PUSH1 0x0 DUP4 ADD MSTORE PUSH2 0x2502 DUP2 PUSH2 0x24C6 JUMP JUMPDEST SWAP1 POP SWAP2 SWAP1 POP JUMP JUMPDEST PUSH32 0x4E487B7100000000000000000000000000000000000000000000000000000000 PUSH1 0x0 MSTORE PUSH1 0x32 PUSH1 0x4 MSTORE PUSH1 0x24 PUSH1 0x0 REVERT JUMPDEST PUSH32 0x4D657472613A20617070726F76652063616E6E6F7420626520646F6E65206672 PUSH1 0x0 DUP3 ADD MSTORE PUSH32 0x6F6D207A65726F20616464726573730000000000000000000000000000000000 PUSH1 0x20 DUP3 ADD MSTORE POP JUMP JUMPDEST PUSH1 0x0 PUSH2 0x2594 PUSH1 0x2F DUP4 PUSH2 0x1D2F JUMP JUMPDEST SWAP2 POP PUSH2 0x259F DUP3 PUSH2 0x2538 JUMP JUMPDEST PUSH1 0x40 DUP3 ADD SWAP1 POP SWAP2 SWAP1 POP JUMP JUMPDEST PUSH1 0x0 PUSH1 0x20 DUP3 ADD SWAP1 POP DUP2 DUP2 SUB PUSH1 0x0 DUP4 ADD MSTORE PUSH2 0x25C3 DUP2 PUSH2 0x2587 JUMP JUMPDEST SWAP1 POP SWAP2 SWAP1 POP JUMP JUMPDEST PUSH32 0x4D657472613A20617070726F76652063616E6E6F7420626520746F207A65726F PUSH1 0x0 DUP3 ADD MSTORE PUSH32 0x2061646472657373000000000000000000000000000000000000000000000000 PUSH1 0x20 DUP3 ADD MSTORE POP JUMP JUMPDEST PUSH1 0x0 PUSH2 0x2626 PUSH1 0x28 DUP4 PUSH2 0x1D2F JUMP JUMPDEST SWAP2 POP PUSH2 0x2631 DUP3 PUSH2 0x25CA JUMP JUMPDEST PUSH1 0x40 DUP3 ADD SWAP1 POP SWAP2 SWAP1 POP JUMP JUMPDEST PUSH1 0x0 PUSH1 0x20 DUP3 ADD SWAP1 POP DUP2 DUP2 SUB PUSH1 0x0 DUP4 ADD MSTORE PUSH2 0x2655 DUP2 PUSH2 0x2619 JUMP JUMPDEST SWAP1 POP SWAP2 SWAP1 POP JUMP JUMPDEST PUSH32 0x4D657472613A207472616E736665722066726F6D207A65726F20616464726573 PUSH1 0x0 DUP3 ADD MSTORE PUSH32 0x7300000000000000000000000000000000000000000000000000000000000000 PUSH1 0x20 DUP3 ADD MSTORE POP JUMP JUMPDEST PUSH1 0x0 PUSH2 0x26B8 PUSH1 0x21 DUP4 PUSH2 0x1D2F JUMP JUMPDEST SWAP2 POP PUSH2 0x26C3 DUP3 PUSH2 0x265C JUMP JUMPDEST PUSH1 0x40 DUP3 ADD SWAP1 POP SWAP2 SWAP1 POP JUMP JUMPDEST PUSH1 0x0 PUSH1 0x20 DUP3 ADD SWAP1 POP DUP2 DUP2 SUB PUSH1 0x0 DUP4 ADD MSTORE PUSH2 0x26E7 DUP2 PUSH2 0x26AB JUMP JUMPDEST SWAP1 POP SWAP2 SWAP1 POP JUMP JUMPDEST PUSH32 0x4D657472613A207472616E7366657220746F207A65726F206164647265737300 PUSH1 0x0 DUP3 ADD MSTORE POP JUMP JUMPDEST PUSH1 0x0 PUSH2 0x2724 PUSH1 0x1F DUP4 PUSH2 0x1D2F JUMP JUMPDEST SWAP2 POP PUSH2 0x272F DUP3 PUSH2 0x26EE JUMP JUMPDEST PUSH1 0x20 DUP3 ADD SWAP1 POP SWAP2 SWAP1 POP JUMP JUMPDEST PUSH1 0x0 PUSH1 0x20 DUP3 ADD SWAP1 POP DUP2 DUP2 SUB PUSH1 0x0 DUP4 ADD MSTORE PUSH2 0x2753 DUP2 PUSH2 0x2717 JUMP JUMPDEST SWAP1 POP SWAP2 SWAP1 POP JUMP JUMPDEST PUSH32 0x4D657472613A2063616E74207472616E73666572206D6F7265207468616E2079 PUSH1 0x0 DUP3 ADD MSTORE PUSH32 0x6F7572206163636F756E7420686F6C6473000000000000000000000000000000 PUSH1 0x20 DUP3 ADD MSTORE POP JUMP JUMPDEST PUSH1 0x0 PUSH2 0x27B6 PUSH1 0x31 DUP4 PUSH2 0x1D2F JUMP JUMPDEST SWAP2 POP PUSH2 0x27C1 DUP3 PUSH2 0x275A JUMP JUMPDEST PUSH1 0x40 DUP3 ADD SWAP1 POP SWAP2 SWAP1 POP JUMP JUMPDEST PUSH1 0x0 PUSH1 0x20 DUP3 ADD SWAP1 POP DUP2 DUP2 SUB PUSH1 0x0 DUP4 ADD MSTORE PUSH2 0x27E5 DUP2 PUSH2 0x27A9 JUMP JUMPDEST SWAP1 POP SWAP2 SWAP1 POP JUMP JUMPDEST PUSH32 0x5374616B696E673A2043616E6E6F74207769746864726177206D6F7265207468 PUSH1 0x0 DUP3 ADD MSTORE PUSH32 0x616E20796F752068617665207374616B65640000000000000000000000000000 PUSH1 0x20 DUP3 ADD MSTORE POP JUMP JUMPDEST PUSH1 0x0 PUSH2 0x2848 PUSH1 0x32 DUP4 PUSH2 0x1D2F JUMP JUMPDEST SWAP2 POP PUSH2 0x2853 DUP3 PUSH2 0x27EC JUMP JUMPDEST PUSH1 0x40 DUP3 ADD SWAP1 POP SWAP2 SWAP1 POP JUMP JUMPDEST PUSH1 0x0 PUSH1 0x20 DUP3 ADD SWAP1 POP DUP2 DUP2 SUB PUSH1 0x0 DUP4 ADD MSTORE PUSH2 0x2877 DUP2 PUSH2 0x283B JUMP JUMPDEST SWAP1 POP SWAP2 SWAP1 POP JUMP JUMPDEST PUSH32 0x4D657472613A2063616E6E6F74206D696E7420746F207A65726F206164647265 PUSH1 0x0 DUP3 ADD MSTORE PUSH32 0x7373000000000000000000000000000000000000000000000000000000000000 PUSH1 0x20 DUP3 ADD MSTORE POP JUMP JUMPDEST PUSH1 0x0 PUSH2 0x28DA PUSH1 0x22 DUP4 PUSH2 0x1D2F JUMP JUMPDEST SWAP2 POP PUSH2 0x28E5 DUP3 PUSH2 0x287E JUMP JUMPDEST PUSH1 0x40 DUP3 ADD SWAP1 POP SWAP2 SWAP1 POP JUMP JUMPDEST PUSH1 0x0 PUSH1 0x20 DUP3 ADD SWAP1 POP DUP2 DUP2 SUB PUSH1 0x0 DUP4 ADD MSTORE PUSH2 0x2909 DUP2 PUSH2 0x28CD JUMP JUMPDEST SWAP1 POP SWAP2 SWAP1 POP JUMP JUMPDEST PUSH32 0x4D657472613A2063616E6E6F74206275726E2066726F6D207A65726F20616464 PUSH1 0x0 DUP3 ADD MSTORE PUSH32 0x7265737300000000000000000000000000000000000000000000000000000000 PUSH1 0x20 DUP3 ADD MSTORE POP JUMP JUMPDEST PUSH1 0x0 PUSH2 0x296C PUSH1 0x24 DUP4 PUSH2 0x1D2F JUMP JUMPDEST SWAP2 POP PUSH2 0x2977 DUP3 PUSH2 0x2910 JUMP JUMPDEST PUSH1 0x40 DUP3 ADD SWAP1 POP SWAP2 SWAP1 POP JUMP JUMPDEST PUSH1 0x0 PUSH1 0x20 DUP3 ADD SWAP1 POP DUP2 DUP2 SUB PUSH1 0x0 DUP4 ADD MSTORE PUSH2 0x299B DUP2 PUSH2 0x295F JUMP JUMPDEST SWAP1 POP SWAP2 SWAP1 POP JUMP JUMPDEST PUSH32 0x4D657472613A2043616E6E6F74206275726E206D6F7265207468616E20746865 PUSH1 0x0 DUP3 ADD MSTORE PUSH32 0x206163636F756E74206F776E7300000000000000000000000000000000000000 PUSH1 0x20 DUP3 ADD MSTORE POP JUMP JUMPDEST PUSH1 0x0 PUSH2 0x29FE PUSH1 0x2D DUP4 PUSH2 0x1D2F JUMP JUMPDEST SWAP2 POP PUSH2 0x2A09 DUP3 PUSH2 0x29A2 JUMP JUMPDEST PUSH1 0x40 DUP3 ADD SWAP1 POP SWAP2 SWAP1 POP JUMP JUMPDEST PUSH1 0x0 PUSH1 0x20 DUP3 ADD SWAP1 POP DUP2 DUP2 SUB PUSH1 0x0 DUP4 ADD MSTORE PUSH2 0x2A2D DUP2 PUSH2 0x29F1 JUMP JUMPDEST SWAP1 POP SWAP2 SWAP1 POP JUMP JUMPDEST PUSH32 0x43616E6E6F74207374616B65206E6F7468696E67000000000000000000000000 PUSH1 0x0 DUP3 ADD MSTORE POP JUMP JUMPDEST PUSH1 0x0 PUSH2 0x2A6A PUSH1 0x14 DUP4 PUSH2 0x1D2F JUMP JUMPDEST SWAP2 POP PUSH2 0x2A75 DUP3 PUSH2 0x2A34 JUMP JUMPDEST PUSH1 0x20 DUP3 ADD SWAP1 POP SWAP2 SWAP1 POP JUMP JUMPDEST PUSH1 0x0 PUSH1 0x20 DUP3 ADD SWAP1 POP DUP2 DUP2 SUB PUSH1 0x0 DUP4 ADD MSTORE PUSH2 0x2A99 DUP2 PUSH2 0x2A5D JUMP JUMPDEST SWAP1 POP SWAP2 SWAP1 POP JUMP JUMPDEST PUSH1 0x0 PUSH1 0x60 DUP3 ADD SWAP1 POP PUSH2 0x2AB5 PUSH1 0x0 DUP4 ADD DUP7 PUSH2 0x1EEE JUMP JUMPDEST PUSH2 0x2AC2 PUSH1 0x20 DUP4 ADD DUP6 PUSH2 0x1EEE JUMP JUMPDEST PUSH2 0x2ACF PUSH1 0x40 DUP4 ADD DUP5 PUSH2 0x1EEE JUMP JUMPDEST SWAP5 SWAP4 POP POP POP POP JUMP JUMPDEST PUSH32 0x4E487B7100000000000000000000000000000000000000000000000000000000 PUSH1 0x0 MSTORE PUSH1 0x12 PUSH1 0x4 MSTORE PUSH1 0x24 PUSH1 0x0 REVERT JUMPDEST PUSH1 0x0 PUSH2 0x2B11 DUP3 PUSH2 0x1E42 JUMP JUMPDEST SWAP2 POP PUSH2 0x2B1C DUP4 PUSH2 0x1E42 JUMP JUMPDEST SWAP3 POP DUP3 PUSH2 0x2B2C JUMPI PUSH2 0x2B2B PUSH2 0x2AD7 JUMP JUMPDEST JUMPDEST DUP3 DUP3 DIV SWAP1 POP SWAP3 SWAP2 POP POP JUMP JUMPDEST PUSH1 0x0 PUSH2 0x2B42 DUP3 PUSH2 0x1E42 JUMP JUMPDEST SWAP2 POP PUSH2 0x2B4D DUP4 PUSH2 0x1E42 JUMP JUMPDEST SWAP3 POP DUP2 PUSH32 0xFFFFFFFFFFFFFFFFFFFFFFFFFFFFFFFFFFFFFFFFFFFFFFFFFFFFFFFFFFFFFFFF DIV DUP4 GT DUP3 ISZERO ISZERO AND ISZERO PUSH2 0x2B86 JUMPI PUSH2 0x2B85 PUSH2 0x22CC JUMP JUMPDEST JUMPDEST DUP3 DUP3 MUL SWAP1 POP SWAP3 SWAP2 POP POP JUMP JUMPDEST PUSH32 0x4F776E61626C653A206E6577206F776E657220697320746865207A65726F2061 PUSH1 0x0 DUP3 ADD MSTORE PUSH32 0x6464726573730000000000000000000000000000000000000000000000000000 PUSH1 0x20 DUP3 ADD MSTORE POP JUMP JUMPDEST PUSH1 0x0 PUSH2 0x2BED PUSH1 0x26 DUP4 PUSH2 0x1D2F JUMP JUMPDEST SWAP2 POP PUSH2 0x2BF8 DUP3 PUSH2 0x2B91 JUMP JUMPDEST PUSH1 0x40 DUP3 ADD SWAP1 POP SWAP2 SWAP1 POP JUMP JUMPDEST PUSH1 0x0 PUSH1 0x20 DUP3 ADD SWAP1 POP DUP2 DUP2 SUB PUSH1 0x0 DUP4 ADD MSTORE PUSH2 0x2C1C DUP2 PUSH2 0x2BE0 JUMP JUMPDEST SWAP1 POP SWAP2 SWAP1 POP JUMP INVALID LOG2 PUSH5 0x6970667358 0x22 SLT KECCAK256 0xE DUP2 0x4E CALL PUSH24 0xB4B3152FBFC72E6AC8D0133A677DD4C47E980D344D1EEA75 MSIZE 0x23 PUSH7 0x64736F6C634300 ADDMOD 0xF STOP CALLER "
				},
				"gasEstimates": {
					"creation": {
						"codeDepositCost": "2270600",
						"executionCost": "infinite",
						"totalCost": "infinite"
					},
					"external": {
						"allowance(address,address)": "infinite",
						"approve(address,uint256)": "infinite",
						"balanceOf(address)": "2930",
						"burn(address,uint256)": "infinite",
						"decimals()": "2524",
						"decreaseAllowance(address,uint256)": "infinite",
						"getOwner()": "2580",
						"hasStake(address)": "infinite",
						"increaseAllowance(address,uint256)": "infinite",
						"name()": "673",
						"owner()": "2567",
						"renounceOwnership()": "30367",
						"stake(uint256)": "infinite",
						"symbol()": "infinite",
						"totalSupply()": "2505",
						"transfer(address,uint256)": "infinite",
						"transferFrom(address,address,uint256)": "infinite",
						"transferOwnership(address)": "30741",
						"withdrawStake(uint256,uint256,uint256)": "infinite"
					},
					"internal": {
						"_approve(address,address,uint256)": "infinite",
						"_burn(address,uint256)": "infinite",
						"_mint(address,uint256)": "infinite",
						"_transfer(address,address,uint256)": "infinite"
					}
				},
				"methodIdentifiers": {
					"allowance(address,address)": "dd62ed3e",
					"approve(address,uint256)": "095ea7b3",
					"balanceOf(address)": "70a08231",
					"burn(address,uint256)": "9dc29fac",
					"decimals()": "313ce567",
					"decreaseAllowance(address,uint256)": "a457c2d7",
					"getOwner()": "893d20e8",
					"hasStake(address)": "e73e14bf",
					"increaseAllowance(address,uint256)": "39509351",
					"name()": "06fdde03",
					"owner()": "8da5cb5b",
					"renounceOwnership()": "715018a6",
					"stake(uint256)": "a694fc3a",
					"symbol()": "95d89b41",
					"totalSupply()": "18160ddd",
					"transfer(address,uint256)": "a9059cbb",
					"transferFrom(address,address,uint256)": "23b872dd",
					"transferOwnership(address)": "f2fde38b",
					"withdrawStake(uint256,uint256,uint256)": "279f9b11"
				}
			},
			"storageLayout": {
				"storage": [
					{
						"astId": 598,
						"contract": "contracts/MetraToken.sol:Metra",
						"label": "_owner",
						"offset": 0,
						"slot": "0",
						"type": "t_address"
					},
					{
						"astId": 747,
						"contract": "contracts/MetraToken.sol:Metra",
						"label": "stakeholders",
						"offset": 0,
						"slot": "1",
						"type": "t_array(t_struct(Stakeholder)735_storage)dyn_storage"
					},
					{
						"astId": 752,
						"contract": "contracts/MetraToken.sol:Metra",
						"label": "stakes",
						"offset": 0,
						"slot": "2",
						"type": "t_mapping(t_address,t_uint256)"
					},
					{
						"astId": 767,
						"contract": "contracts/MetraToken.sol:Metra",
						"label": "rewardPerHour",
						"offset": 0,
						"slot": "3",
						"type": "t_uint256"
					},
					{
						"astId": 11,
						"contract": "contracts/MetraToken.sol:Metra",
						"label": "_totalSupply",
						"offset": 0,
						"slot": "4",
						"type": "t_uint256"
					},
					{
						"astId": 13,
						"contract": "contracts/MetraToken.sol:Metra",
						"label": "_decimals",
						"offset": 0,
						"slot": "5",
						"type": "t_uint8"
					},
					{
						"astId": 15,
						"contract": "contracts/MetraToken.sol:Metra",
						"label": "_symbol",
						"offset": 0,
						"slot": "6",
						"type": "t_string_storage"
					},
					{
						"astId": 17,
						"contract": "contracts/MetraToken.sol:Metra",
						"label": "_name",
						"offset": 0,
						"slot": "7",
						"type": "t_string_storage"
					},
					{
						"astId": 22,
						"contract": "contracts/MetraToken.sol:Metra",
						"label": "_balances",
						"offset": 0,
						"slot": "8",
						"type": "t_mapping(t_address,t_uint256)"
					},
					{
						"astId": 29,
						"contract": "contracts/MetraToken.sol:Metra",
						"label": "_allowances",
						"offset": 0,
						"slot": "9",
						"type": "t_mapping(t_address,t_mapping(t_address,t_uint256))"
					}
				],
				"types": {
					"t_address": {
						"encoding": "inplace",
						"label": "address",
						"numberOfBytes": "20"
					},
					"t_array(t_struct(Stake)728_storage)dyn_storage": {
						"base": "t_struct(Stake)728_storage",
						"encoding": "dynamic_array",
						"label": "struct Stakeable.Stake[]",
						"numberOfBytes": "32"
					},
					"t_array(t_struct(Stakeholder)735_storage)dyn_storage": {
						"base": "t_struct(Stakeholder)735_storage",
						"encoding": "dynamic_array",
						"label": "struct Stakeable.Stakeholder[]",
						"numberOfBytes": "32"
					},
					"t_mapping(t_address,t_mapping(t_address,t_uint256))": {
						"encoding": "mapping",
						"key": "t_address",
						"label": "mapping(address => mapping(address => uint256))",
						"numberOfBytes": "32",
						"value": "t_mapping(t_address,t_uint256)"
					},
					"t_mapping(t_address,t_uint256)": {
						"encoding": "mapping",
						"key": "t_address",
						"label": "mapping(address => uint256)",
						"numberOfBytes": "32",
						"value": "t_uint256"
					},
					"t_string_storage": {
						"encoding": "bytes",
						"label": "string",
						"numberOfBytes": "32"
					},
					"t_struct(Stake)728_storage": {
						"encoding": "inplace",
						"label": "struct Stakeable.Stake",
						"members": [
							{
								"astId": 721,
								"contract": "contracts/MetraToken.sol:Metra",
								"label": "user",
								"offset": 0,
								"slot": "0",
								"type": "t_address"
							},
							{
								"astId": 723,
								"contract": "contracts/MetraToken.sol:Metra",
								"label": "amount",
								"offset": 0,
								"slot": "1",
								"type": "t_uint256"
							},
							{
								"astId": 725,
								"contract": "contracts/MetraToken.sol:Metra",
								"label": "since",
								"offset": 0,
								"slot": "2",
								"type": "t_uint256"
							},
							{
								"astId": 727,
								"contract": "contracts/MetraToken.sol:Metra",
								"label": "claimable",
								"offset": 0,
								"slot": "3",
								"type": "t_uint256"
							}
						],
						"numberOfBytes": "128"
					},
					"t_struct(Stakeholder)735_storage": {
						"encoding": "inplace",
						"label": "struct Stakeable.Stakeholder",
						"members": [
							{
								"astId": 730,
								"contract": "contracts/MetraToken.sol:Metra",
								"label": "user",
								"offset": 0,
								"slot": "0",
								"type": "t_address"
							},
							{
								"astId": 734,
								"contract": "contracts/MetraToken.sol:Metra",
								"label": "address_stakes",
								"offset": 0,
								"slot": "1",
								"type": "t_array(t_struct(Stake)728_storage)dyn_storage"
							}
						],
						"numberOfBytes": "64"
					},
					"t_uint256": {
						"encoding": "inplace",
						"label": "uint256",
						"numberOfBytes": "32"
					},
					"t_uint8": {
						"encoding": "inplace",
						"label": "uint8",
						"numberOfBytes": "1"
					}
				}
			},
			"userdoc": {
				"events": {
					"Approval(address,address,uint256)": {
						"notice": "Approval is emitted when a new Spender is approved to spend Tokens on the Owners account"
					},
					"OwnershipTransferred(address,address)": {
						"notice": "Event OwnershipTransferred is used to log that a ownership change of the token has occured"
					},
					"Staked(address,uint256,uint256,uint256)": {
						"notice": "Staked event is triggered whenever a user stakes tokens, address is indexed to make it filterable"
					},
					"Transfer(address,address,uint256)": {
						"notice": "Events are created below. Transfer event is a event that notify the blockchain that a transfer of assets has taken place"
					}
				},
				"kind": "user",
				"methods": {
					"allowance(address,address)": {
						"notice": "allowance is used view how much allowance an spender has"
					},
					"approve(address,uint256)": {
						"notice": "approve will use the senders address and allow the spender to use X amount of tokens on his behalf"
					},
					"balanceOf(address)": {
						"notice": "balanceOf will return the account balance for the given account"
					},
					"burn(address,uint256)": {
						"notice": "burn is used to destroy tokens on an address  See {_burn} Requires   - msg.sender must be the token owner"
					},
					"constructor": {
						"notice": "constructor will be triggered when we create the Smart contract _name = name of the token _short_symbol = Short Symbol name for the token token_decimals = The decimal precision of the Token, defaults 18 _totalSupply is how much Tokens there are totally "
					},
					"decimals()": {
						"notice": "decimals will return the number of decimal precision the Token is deployed with"
					},
					"decreaseAllowance(address,uint256)": {
						"notice": "decreaseAllowance Decrease the allowance on the account inputted from the caller address"
					},
					"getOwner()": {
						"notice": "getOwner just calls Ownables owner function.  returns owner of the token "
					},
					"hasStake(address)": {
						"notice": "hasStake is used to check if a account has stakes and the total amount along with all the seperate stakes"
					},
					"increaseAllowance(address,uint256)": {
						"notice": "increaseAllowance Adds allowance to a account from the function caller address"
					},
					"name()": {
						"notice": "name will return the Token's symbol "
					},
					"owner()": {
						"notice": "owner() returns the currently assigned owner of the Token "
					},
					"renounceOwnership()": {
						"notice": "renounceOwnership will set the owner to zero address This will make the contract owner less, It will make ALL functions with onlyOwner no longer callable. There is no way of restoring the owner"
					},
					"stake(uint256)": {
						"notice": "Add functionality like burn to the _stake afunction"
					},
					"symbol()": {
						"notice": "symbol will return the Token's symbol "
					},
					"totalSupply()": {
						"notice": "totalSupply will return the tokens total supply of tokens"
					},
					"transfer(address,uint256)": {
						"notice": "transfer is used to transfer funds from the sender to the recipient This function is only callable from outside the contract. For internal usage see  _transfer Requires - Caller cannot be zero - Caller must have a balance = or bigger than amount"
					},
					"transferFrom(address,address,uint256)": {
						"notice": "transferFrom is uesd to transfer Tokens from a Accounts allowance Spender address should be the token holder Requires   - The caller must have a allowance = or bigger than the amount spending"
					},
					"transferOwnership(address)": {
						"notice": "transferOwnership will assign the {newOwner} as owner"
					},
					"withdrawStake(uint256,uint256,uint256)": {
						"notice": "withdrawStake is used to withdraw stakes from the account holder"
					}
				},
				"notice": "Metra Token Contract Code",
				"version": 1
			}
		}
	}
}